{
  "_format": "hh-sol-artifact-1",
  "contractName": "UpgradeableMultiStakeManagerV2",
  "sourceName": "contracts/UpgradeableMultiStakeManagerV2.sol",
  "abi": [
    {
      "inputs": [],
      "name": "AccessControlBadConfirmation",
      "type": "error"
    },
    {
      "inputs": [
        {
          "internalType": "address",
          "name": "account",
          "type": "address"
        },
        {
          "internalType": "bytes32",
          "name": "neededRole",
          "type": "bytes32"
        }
      ],
      "name": "AccessControlUnauthorizedAccount",
      "type": "error"
    },
    {
      "inputs": [
        {
          "internalType": "address",
          "name": "target",
          "type": "address"
        }
      ],
      "name": "AddressEmptyCode",
      "type": "error"
    },
    {
      "inputs": [
        {
          "internalType": "address",
          "name": "implementation",
          "type": "address"
        }
      ],
      "name": "ERC1967InvalidImplementation",
      "type": "error"
    },
    {
      "inputs": [],
      "name": "ERC1967NonPayable",
      "type": "error"
    },
    {
      "inputs": [],
      "name": "FailedCall",
      "type": "error"
    },
    {
      "inputs": [],
      "name": "InvalidInitialization",
      "type": "error"
    },
    {
      "inputs": [],
      "name": "NotInitializing",
      "type": "error"
    },
    {
      "inputs": [],
      "name": "ReentrancyGuardReentrantCall",
      "type": "error"
    },
    {
      "inputs": [],
      "name": "UUPSUnauthorizedCallContext",
      "type": "error"
    },
    {
      "inputs": [
        {
          "internalType": "bytes32",
          "name": "slot",
          "type": "bytes32"
        }
      ],
      "name": "UUPSUnsupportedProxiableUUID",
      "type": "error"
    },
    {
      "anonymous": false,
      "inputs": [
        {
          "indexed": false,
          "internalType": "uint64",
          "name": "version",
          "type": "uint64"
        }
      ],
      "name": "Initialized",
      "type": "event"
    },
    {
      "anonymous": false,
      "inputs": [
        {
          "indexed": true,
          "internalType": "uint256",
          "name": "positionId",
          "type": "uint256"
        },
        {
          "indexed": true,
          "internalType": "address",
          "name": "owner",
          "type": "address"
        },
        {
          "indexed": false,
          "internalType": "uint256",
          "name": "amount",
          "type": "uint256"
        }
      ],
      "name": "PositionClosed",
      "type": "event"
    },
    {
      "anonymous": false,
      "inputs": [
        {
          "indexed": true,
          "internalType": "uint256",
          "name": "positionId",
          "type": "uint256"
        },
        {
          "indexed": true,
          "internalType": "address",
          "name": "owner",
          "type": "address"
        },
        {
          "indexed": false,
          "internalType": "uint256",
          "name": "amount",
          "type": "uint256"
        },
        {
          "indexed": false,
          "internalType": "uint8",
          "name": "tier",
          "type": "uint8"
        }
      ],
      "name": "PositionCreated",
      "type": "event"
    },
    {
      "anonymous": false,
      "inputs": [
        {
          "indexed": true,
          "internalType": "uint256",
          "name": "positionId",
          "type": "uint256"
        },
        {
          "indexed": true,
          "internalType": "address",
          "name": "owner",
          "type": "address"
        },
        {
          "indexed": false,
          "internalType": "uint256",
          "name": "amount",
          "type": "uint256"
        }
      ],
      "name": "RewardsClaimed",
      "type": "event"
    },
    {
      "anonymous": false,
      "inputs": [
        {
          "indexed": true,
          "internalType": "bytes32",
          "name": "role",
          "type": "bytes32"
        },
        {
          "indexed": true,
          "internalType": "bytes32",
          "name": "previousAdminRole",
          "type": "bytes32"
        },
        {
          "indexed": true,
          "internalType": "bytes32",
          "name": "newAdminRole",
          "type": "bytes32"
        }
      ],
      "name": "RoleAdminChanged",
      "type": "event"
    },
    {
      "anonymous": false,
      "inputs": [
        {
          "indexed": true,
          "internalType": "bytes32",
          "name": "role",
          "type": "bytes32"
        },
        {
          "indexed": true,
          "internalType": "address",
          "name": "account",
          "type": "address"
        },
        {
          "indexed": true,
          "internalType": "address",
          "name": "sender",
          "type": "address"
        }
      ],
      "name": "RoleGranted",
      "type": "event"
    },
    {
      "anonymous": false,
      "inputs": [
        {
          "indexed": true,
          "internalType": "bytes32",
          "name": "role",
          "type": "bytes32"
        },
        {
          "indexed": true,
          "internalType": "address",
          "name": "account",
          "type": "address"
        },
        {
          "indexed": true,
          "internalType": "address",
          "name": "sender",
          "type": "address"
        }
      ],
      "name": "RoleRevoked",
      "type": "event"
    },
    {
      "anonymous": false,
      "inputs": [
        {
          "indexed": true,
          "internalType": "uint8",
          "name": "tier",
          "type": "uint8"
        },
        {
          "indexed": false,
          "internalType": "uint256",
          "name": "weight",
          "type": "uint256"
        },
        {
          "indexed": false,
          "internalType": "uint256",
          "name": "duration",
          "type": "uint256"
        },
        {
          "indexed": false,
          "internalType": "uint256",
          "name": "minAmount",
          "type": "uint256"
        }
      ],
      "name": "TierUpdated",
      "type": "event"
    },
    {
      "anonymous": false,
      "inputs": [
        {
          "indexed": true,
          "internalType": "address",
          "name": "implementation",
          "type": "address"
        }
      ],
      "name": "Upgraded",
      "type": "event"
    },
    {
      "inputs": [],
      "name": "ADMIN_ROLE",
      "outputs": [
        {
          "internalType": "bytes32",
          "name": "",
          "type": "bytes32"
        }
      ],
      "stateMutability": "view",
      "type": "function"
    },
    {
      "inputs": [],
      "name": "DEFAULT_ADMIN_ROLE",
      "outputs": [
        {
          "internalType": "bytes32",
          "name": "",
          "type": "bytes32"
        }
      ],
      "stateMutability": "view",
      "type": "function"
    },
    {
      "inputs": [],
      "name": "MINTER_ROLE",
      "outputs": [
        {
          "internalType": "bytes32",
          "name": "",
          "type": "bytes32"
        }
      ],
      "stateMutability": "view",
      "type": "function"
    },
    {
      "inputs": [],
      "name": "REWARD_INTERVAL",
      "outputs": [
        {
          "internalType": "uint256",
          "name": "",
          "type": "uint256"
        }
      ],
      "stateMutability": "view",
      "type": "function"
    },
    {
      "inputs": [],
      "name": "UPGRADE_INTERFACE_VERSION",
      "outputs": [
        {
          "internalType": "string",
          "name": "",
          "type": "string"
        }
      ],
      "stateMutability": "view",
      "type": "function"
    },
    {
      "inputs": [
        {
          "internalType": "uint256",
          "name": "amount",
          "type": "uint256"
        },
        {
          "internalType": "uint256",
          "name": "duration",
          "type": "uint256"
        }
      ],
      "name": "createPosition",
      "outputs": [],
      "stateMutability": "nonpayable",
      "type": "function"
    },
    {
      "inputs": [
        {
          "internalType": "bytes32",
          "name": "role",
          "type": "bytes32"
        }
      ],
      "name": "getRoleAdmin",
      "outputs": [
        {
          "internalType": "bytes32",
          "name": "",
          "type": "bytes32"
        }
      ],
      "stateMutability": "view",
      "type": "function"
    },
    {
      "inputs": [
        {
          "internalType": "uint8",
          "name": "tier",
          "type": "uint8"
        }
      ],
      "name": "getTierDuration",
      "outputs": [
        {
          "internalType": "uint256",
          "name": "",
          "type": "uint256"
        }
      ],
      "stateMutability": "view",
      "type": "function"
    },
    {
      "inputs": [
        {
          "internalType": "uint8",
          "name": "tier",
          "type": "uint8"
        }
      ],
      "name": "getTierMinAmount",
      "outputs": [
        {
          "internalType": "uint256",
          "name": "",
          "type": "uint256"
        }
      ],
      "stateMutability": "view",
      "type": "function"
    },
    {
      "inputs": [
        {
          "internalType": "uint8",
          "name": "tier",
          "type": "uint8"
        }
      ],
      "name": "getTierWeight",
      "outputs": [
        {
          "internalType": "uint256",
          "name": "",
          "type": "uint256"
        }
      ],
      "stateMutability": "view",
      "type": "function"
    },
    {
      "inputs": [
        {
          "internalType": "address",
          "name": "user",
          "type": "address"
        }
      ],
      "name": "getUserPositions",
      "outputs": [
        {
          "internalType": "uint256[]",
          "name": "",
          "type": "uint256[]"
        }
      ],
      "stateMutability": "view",
      "type": "function"
    },
    {
      "inputs": [
        {
          "internalType": "bytes32",
          "name": "role",
          "type": "bytes32"
        },
        {
          "internalType": "address",
          "name": "account",
          "type": "address"
        }
      ],
      "name": "grantRole",
      "outputs": [],
      "stateMutability": "nonpayable",
      "type": "function"
    },
    {
      "inputs": [
        {
          "internalType": "bytes32",
          "name": "role",
          "type": "bytes32"
        },
        {
          "internalType": "address",
          "name": "account",
          "type": "address"
        }
      ],
      "name": "hasRole",
      "outputs": [
        {
          "internalType": "bool",
          "name": "",
          "type": "bool"
        }
      ],
      "stateMutability": "view",
      "type": "function"
    },
    {
      "inputs": [
        {
          "internalType": "address",
          "name": "_stakingToken",
          "type": "address"
        },
        {
          "internalType": "address",
          "name": "_tierCalculator",
          "type": "address"
        }
      ],
      "name": "initialize",
      "outputs": [],
      "stateMutability": "nonpayable",
      "type": "function"
    },
    {
      "inputs": [
        {
          "internalType": "uint256",
          "name": "positionId",
          "type": "uint256"
        }
      ],
      "name": "mintNextNFT",
      "outputs": [],
      "stateMutability": "nonpayable",
      "type": "function"
    },
    {
      "inputs": [],
      "name": "nextPositionId",
      "outputs": [
        {
          "internalType": "uint256",
          "name": "",
          "type": "uint256"
        }
      ],
      "stateMutability": "view",
      "type": "function"
    },
    {
      "inputs": [],
      "name": "nftFactory",
      "outputs": [
        {
          "internalType": "contract IPADNFTFactory",
          "name": "",
          "type": "address"
        }
      ],
      "stateMutability": "view",
      "type": "function"
    },
    {
      "inputs": [
        {
          "internalType": "uint256",
          "name": "",
          "type": "uint256"
        }
      ],
      "name": "positions",
      "outputs": [
        {
          "internalType": "uint256",
          "name": "id",
          "type": "uint256"
        },
        {
          "internalType": "address",
          "name": "owner",
          "type": "address"
        },
        {
          "internalType": "uint256",
          "name": "amount",
          "type": "uint256"
        },
        {
          "internalType": "uint256",
          "name": "startTime",
          "type": "uint256"
        },
        {
          "internalType": "uint256",
          "name": "duration",
          "type": "uint256"
        },
        {
          "internalType": "uint8",
          "name": "tier",
          "type": "uint8"
        },
        {
          "internalType": "bool",
          "name": "isActive",
          "type": "bool"
        },
        {
          "internalType": "uint256",
          "name": "lastClaimTime",
          "type": "uint256"
        },
        {
          "internalType": "uint256",
          "name": "totalClaimed",
          "type": "uint256"
        },
        {
          "internalType": "uint256",
          "name": "nextMintAt",
          "type": "uint256"
        },
        {
          "internalType": "uint8",
          "name": "monthIndex",
          "type": "uint8"
        }
      ],
      "stateMutability": "view",
      "type": "function"
    },
    {
      "inputs": [],
      "name": "proxiableUUID",
      "outputs": [
        {
          "internalType": "bytes32",
          "name": "",
          "type": "bytes32"
        }
      ],
      "stateMutability": "view",
      "type": "function"
    },
    {
      "inputs": [
        {
          "internalType": "bytes32",
          "name": "role",
          "type": "bytes32"
        },
        {
          "internalType": "address",
          "name": "callerConfirmation",
          "type": "address"
        }
      ],
      "name": "renounceRole",
      "outputs": [],
      "stateMutability": "nonpayable",
      "type": "function"
    },
    {
      "inputs": [
        {
          "internalType": "bytes32",
          "name": "role",
          "type": "bytes32"
        },
        {
          "internalType": "address",
          "name": "account",
          "type": "address"
        }
      ],
      "name": "revokeRole",
      "outputs": [],
      "stateMutability": "nonpayable",
      "type": "function"
    },
    {
      "inputs": [
        {
          "internalType": "address",
          "name": "_nftFactory",
          "type": "address"
        }
      ],
      "name": "setNFTFactory",
      "outputs": [],
      "stateMutability": "nonpayable",
      "type": "function"
    },
    {
      "inputs": [],
      "name": "stakingToken",
      "outputs": [
        {
          "internalType": "contract IERC20",
          "name": "",
          "type": "address"
        }
      ],
      "stateMutability": "view",
      "type": "function"
    },
    {
      "inputs": [
        {
          "internalType": "bytes4",
          "name": "interfaceId",
          "type": "bytes4"
        }
      ],
      "name": "supportsInterface",
      "outputs": [
        {
          "internalType": "bool",
          "name": "",
          "type": "bool"
        }
      ],
      "stateMutability": "view",
      "type": "function"
    },
    {
      "inputs": [],
      "name": "tierCalculator",
      "outputs": [
        {
          "internalType": "contract ITierCalculator",
          "name": "",
          "type": "address"
        }
      ],
      "stateMutability": "view",
      "type": "function"
    },
    {
      "inputs": [
        {
          "internalType": "uint8",
          "name": "",
          "type": "uint8"
        }
      ],
      "name": "tierDurations",
      "outputs": [
        {
          "internalType": "uint256",
          "name": "",
          "type": "uint256"
        }
      ],
      "stateMutability": "view",
      "type": "function"
    },
    {
      "inputs": [
        {
          "internalType": "uint8",
          "name": "",
          "type": "uint8"
        }
      ],
      "name": "tierMinAmounts",
      "outputs": [
        {
          "internalType": "uint256",
          "name": "",
          "type": "uint256"
        }
      ],
      "stateMutability": "view",
      "type": "function"
    },
    {
      "inputs": [
        {
          "internalType": "uint8",
          "name": "",
          "type": "uint8"
        }
      ],
      "name": "tierWeights",
      "outputs": [
        {
          "internalType": "uint256",
          "name": "",
          "type": "uint256"
        }
      ],
      "stateMutability": "view",
      "type": "function"
    },
    {
      "inputs": [
        {
          "internalType": "uint8",
          "name": "tier",
          "type": "uint8"
        },
        {
          "internalType": "uint256",
          "name": "weight",
          "type": "uint256"
        },
        {
          "internalType": "uint256",
          "name": "duration",
          "type": "uint256"
        },
        {
          "internalType": "uint256",
          "name": "minAmount",
          "type": "uint256"
        }
      ],
      "name": "updateTierRequirements",
      "outputs": [],
      "stateMutability": "nonpayable",
      "type": "function"
    },
    {
      "inputs": [
        {
          "internalType": "address",
          "name": "newImplementation",
          "type": "address"
        },
        {
          "internalType": "bytes",
          "name": "data",
          "type": "bytes"
        }
      ],
      "name": "upgradeToAndCall",
      "outputs": [],
      "stateMutability": "payable",
      "type": "function"
    },
    {
      "inputs": [
        {
          "internalType": "address",
          "name": "",
          "type": "address"
        },
        {
          "internalType": "uint256",
          "name": "",
          "type": "uint256"
        }
      ],
      "name": "userPositions",
      "outputs": [
        {
          "internalType": "uint256",
          "name": "",
          "type": "uint256"
        }
      ],
      "stateMutability": "view",
      "type": "function"
    },
    {
      "inputs": [],
      "name": "version",
      "outputs": [
        {
          "internalType": "string",
          "name": "",
          "type": "string"
        }
      ],
      "stateMutability": "pure",
      "type": "function"
    }
  ],
  "bytecode": "0x60a060405230608052348015601357600080fd5b50608051611dd761003d600039600081816115320152818161155b015261169f0152611dd76000f3fe6080604052600436106101e35760003560e01c806391d1485411610102578063d1aaef0511610095578063df6756a111610064578063df6756a1146106d1578063f883462c146106fe578063f8d459f01461071e578063fc640da51461073e57600080fd5b8063d1aaef051461063d578063d53913931461065d578063d547741f14610691578063d63843cd146106b157600080fd5b8063ad3cb1cc116100d1578063ad3cb1cc1461059c578063be0f2b88146105cd578063ca059910146105ed578063cb2d93ce1461061d57600080fd5b806391d148541461044e578063929352361461046e57806399fbab881461049b578063a217fddf1461058757600080fd5b806354fd4d501161017a5780636551ab2a116101495780636551ab2a1461039f57806372f702f3146103cc57806375b238fc14610404578063899346c71461043857600080fd5b806354fd4d50146103025780635dbdda69146103395780635e07e8771461034f5780635e1b4d991461037f57600080fd5b806336568abe116101b657806336568abe1461029a578063485cc955146102ba5780634f1ef286146102da57806352d1902d146102ed57600080fd5b806301ffc9a7146101e8578063248a9ca31461021d5780632a6bc2dd1461024b5780632f2ff15d14610278575b600080fd5b3480156101f457600080fd5b5061020861020336600461195b565b61076e565b60405190151581526020015b60405180910390f35b34801561022957600080fd5b5061023d610238366004611985565b6107a5565b604051908152602001610214565b34801561025757600080fd5b5061026b6102663660046119ba565b6107c7565b60405161021491906119d5565b34801561028457600080fd5b50610298610293366004611a18565b610833565b005b3480156102a657600080fd5b506102986102b5366004611a18565b610855565b3480156102c657600080fd5b506102986102d5366004611a44565b61088d565b6102986102e8366004611a84565b610bde565b3480156102f957600080fd5b5061023d610bfd565b34801561030e57600080fd5b506040805180820190915260058152640322e302e360dc1b60208201525b6040516102149190611b72565b34801561034557600080fd5b5061023d61012c81565b34801561035b57600080fd5b5061023d61036a366004611bb6565b60ff1660009081526006602052604090205490565b34801561038b57600080fd5b5061023d61039a366004611bd1565b610c1a565b3480156103ab57600080fd5b5061023d6103ba366004611bb6565b60066020526000908152604090205481565b3480156103d857600080fd5b506000546103ec906001600160a01b031681565b6040516001600160a01b039091168152602001610214565b34801561041057600080fd5b5061023d7fa49807205ce4d355092ef5a8a18f56e8913cf4a201fbe287825b095693c2177581565b34801561044457600080fd5b5061023d60085481565b34801561045a57600080fd5b50610208610469366004611a18565b610c4b565b34801561047a57600080fd5b5061023d610489366004611bb6565b60056020526000908152604090205481565b3480156104a757600080fd5b5061051e6104b6366004611985565b6003602081905260009182526040909120805460018201546002830154938301546004840154600585015460068601546007870154600888015460099098015496986001600160a01b039096169795969495939460ff8085169561010090950481169491168b565b604080519b8c526001600160a01b03909a1660208c0152988a01979097526060890195909552608088019390935260ff91821660a0880152151560c087015260e08601919091526101008501919091526101208401919091521661014082015261016001610214565b34801561059357600080fd5b5061023d600081565b3480156105a857600080fd5b5061032c604051806040016040528060058152602001640352e302e360dc1b81525081565b3480156105d957600080fd5b506001546103ec906001600160a01b031681565b3480156105f957600080fd5b5061023d610608366004611bb6565b60ff1660009081526005602052604090205490565b34801561062957600080fd5b506102986106383660046119ba565b610c83565b34801561064957600080fd5b50610298610658366004611bfb565b610cee565b34801561066957600080fd5b5061023d7f9f2df0fed2c77648de5860a4cc508cd0818c85b8b8a1ab4ceeef8d981c8956a681565b34801561069d57600080fd5b506102986106ac366004611a18565b6110ce565b3480156106bd57600080fd5b506002546103ec906001600160a01b031681565b3480156106dd57600080fd5b5061023d6106ec366004611bb6565b60076020526000908152604090205481565b34801561070a57600080fd5b50610298610719366004611985565b6110ea565b34801561072a57600080fd5b50610298610739366004611c1d565b611345565b34801561074a57600080fd5b5061023d610759366004611bb6565b60ff1660009081526007602052604090205490565b60006001600160e01b03198216637965db0b60e01b148061079f57506301ffc9a760e01b6001600160e01b03198316145b92915050565b6000908152600080516020611d82833981519152602052604090206001015490565b6001600160a01b03811660009081526004602090815260409182902080548351818402810184019094528084526060939283018282801561082757602002820191906000526020600020905b815481526020019060010190808311610813575b50505050509050919050565b61083c826107a5565b610845816113b6565b61084f83836113c3565b50505050565b6001600160a01b038116331461087e5760405163334bd91960e11b815260040160405180910390fd5b6108888282611468565b505050565b60006108976114e4565b805490915060ff600160401b820416159067ffffffffffffffff166000811580156108bf5750825b905060008267ffffffffffffffff1660011480156108dc5750303b155b9050811580156108ea575080155b156109085760405163f92ee8a960e01b815260040160405180910390fd5b845467ffffffffffffffff19166001178555831561093257845460ff60401b1916600160401b1785555b61093a61150d565b610942611517565b600080546001600160a01b03808a166001600160a01b031992831617835560018054918a169190921617905561097890336113c3565b506109a37fa49807205ce4d355092ef5a8a18f56e8913cf4a201fbe287825b095693c21775336113c3565b50610b8f60647f05b8ccbb9d4d8fb16ea74ce3c29a41f1b461fbdaff4714a0d9a8eb05499746bc5560c87f1471eb6eb2c5e789fc3de43f8ce62938c7d1836ec861730447e2ada8fd81017b5561012c7f89832631fb3c3307a103ba2c84ab569c64d6182a18893dcd163f0f1c2090733a556101907fa9bc9a3a348c357ba16b37005d7e6b3236198c0e939f4af8c5f19b8deeb8ebc05562278d007f54cdd369e4e8a8515e52ca72ec816c2101831ad1f18bf44102ed171459c9b4f8556276a7007f3e5fec24aa4dc4e5aee2e025e51e1392c72a2500577559fae9665c6d52bd6a315562ed4e007f8819ef417987f8ae7a81f42cdfb18815282fe989326fbff903d13cf0e03ace29556301e133807f75f96ab15d697e93042dc45b5c896c4b27e89bb6eaf39475c5c371cb2513f7d2556007602052681b1ae4d6e2ef5000007f6d5257204ebe7d88fd91ae87941cb2dd9d8062b64ae5a2bd2d28ec40b9fbf6df55683635c9adc5dea000007fb39221ace053465ec3453ce2b36430bd138b997ecea25c1043da0c366812b8285568878678326eac9000007fb7c774451310d1be4108bc180d1b52823cb0ee0274a6c0081bcaf94f115fb96d55600360005269010f0cf064dd592000007f3be6fd20d5acfde5b873b48692cd31f4d3c7e8ee8a813af4696af8859e5ca6c655565b8315610bd557845460ff60401b19168555604051600181527fc7f505b2f371ae2175ee4913f4499e1f2633a7b5936321eed1cdaeb6115181d29060200160405180910390a15b50505050505050565b610be6611527565b610bef826115cc565b610bf982826115d7565b5050565b6000610c07611694565b50600080516020611d6283398151915290565b60046020528160005260406000208181548110610c3657600080fd5b90600052602060002001600091509150505481565b6000918252600080516020611d82833981519152602090815260408084206001600160a01b0393909316845291905290205460ff1690565b610c8e600033610c4b565b610ccc5760405162461bcd60e51b815260206004820152600a60248201526927b7363c9030b236b4b760b11b60448201526064015b60405180910390fd5b600280546001600160a01b0319166001600160a01b0392909216919091179055565b60008211610d3e5760405162461bcd60e51b815260206004820152601d60248201527f416d6f756e74206d7573742062652067726561746572207468616e20300000006044820152606401610cc3565b60008111610d8e5760405162461bcd60e51b815260206004820152601f60248201527f4475726174696f6e206d7573742062652067726561746572207468616e2030006044820152606401610cc3565b600154604051632783162d60e11b8152600481018390526000916001600160a01b031690634f062c5a90602401602060405180830381865afa158015610dd8573d6000803e3d6000fd5b505050506040513d601f19601f82011682018060405250810190610dfc9190611c56565b6003811115610e0d57610e0d611c77565b60ff8116600090815260076020526040902054909150831015610e725760405162461bcd60e51b815260206004820152601d60248201527f416d6f756e742062656c6f77206d696e696d756d20666f7220746965720000006044820152606401610cc3565b6000546040516323b872dd60e01b8152336004820152306024820152604481018590526001600160a01b03909116906323b872dd906064016020604051808303816000875af1158015610ec9573d6000803e3d6000fd5b505050506040513d601f19601f82011682018060405250810190610eed9190611c8d565b610f2b5760405162461bcd60e51b815260206004820152600f60248201526e151c985b9cd9995c8819985a5b1959608a1b6044820152606401610cc3565b6008805460009182610f3c83611cc5565b919050559050604051806101600160405280828152602001336001600160a01b031681526020018581526020014281526020018481526020018360ff1681526020016001151581526020014281526020016000815260200161012c42610fa29190611cde565b815260006020918201819052838152600380835260408083208551815585850151600180830180546001600160a01b0319166001600160a01b0390931692909217909155868301516002830155606087015193820193909355608086015160048083019190915560a087015160058301805460c08a015160ff93841661ffff199092169190911761010091151582021790915560e0890151600685015588015160078401556101208801516008840155610140909701516009909201805460ff19169288169290921790915533808552908552818420805493840181558452928490209091018590558051888152938616928401929092529183917f777faa44f45af96105bd34ff5ed16f195afc71ff2a37560bbc675164bc1bd58d910160405180910390a350505050565b6110d7826107a5565b6110e0816113b6565b61084f8383611468565b60008181526003602052604090206005810154610100900460ff166111475760405162461bcd60e51b8152602060048201526013602482015272506f736974696f6e206e6f742061637469766560681b6044820152606401610cc3565b80600801544210156111945760405162461bcd60e51b8152602060048201526016602482015275151bdbc819585c9b1e48199bdc881b995e1d0813919560521b6044820152606401610cc3565b600061012c82600401546111a89190611cf1565b600983015490915060ff1681116111f35760405162461bcd60e51b815260206004820152600f60248201526e105b1b081391951cc81b5a5b9d1959608a1b6044820152606401610cc3565b6002546001600160a01b0316156112f2576002805460018401549184015460048501546001600160a01b039283169363f4fb8159931691879161123a9062278d0090611cf1565b6003880154600989015460088a015460ff9091169061125c9061012c90611cde565b6040516001600160e01b031960e08a901b1681526001600160a01b039097166004880152602487019590955260448601939093526064850191909152608484015260ff1660a483015260c482015260e4016020604051808303816000875af11580156112cc573d6000803e3d6000fd5b505050506040513d601f19601f820116820180604052508101906112f09190611d13565b505b6009820180546001919060009061130d90849060ff16611d2c565b92506101000a81548160ff021916908360ff16021790555061012c82600801600082825461133b9190611cde565b9091555050505050565b60ff8416600081815260056020908152604080832087905560068252808320869055600782529182902084905581518681529081018590529081018390527f8a8be32f561bae947d8a12913d5ddbcb7eb4b7e8db9d7474ce283d37adb1ab739060600160405180910390a250505050565b6113c081336116dd565b50565b6000600080516020611d828339815191526113de8484610c4b565b61145e576000848152602082815260408083206001600160a01b03871684529091529020805460ff191660011790556114143390565b6001600160a01b0316836001600160a01b0316857f2f8788117e7eff1d82e926ec794901d17c78024a50270940304540a733656f0d60405160405180910390a4600191505061079f565b600091505061079f565b6000600080516020611d828339815191526114838484610c4b565b1561145e576000848152602082815260408083206001600160a01b0387168085529252808320805460ff1916905551339287917ff6391f5c32d9c69d2a47ea670b442974b53935d1edc7fd64eb21e047a839171b9190a4600191505061079f565b6000807ff0c57e16840df040f15088dc2f81fe391c3923bec73e23a9662efc9c229c6a0061079f565b611515611716565b565b61151f611716565b61151561173b565b306001600160a01b037f00000000000000000000000000000000000000000000000000000000000000001614806115ae57507f00000000000000000000000000000000000000000000000000000000000000006001600160a01b03166115a2600080516020611d62833981519152546001600160a01b031690565b6001600160a01b031614155b156115155760405163703e46dd60e11b815260040160405180910390fd5b6000610bf9816113b6565b816001600160a01b03166352d1902d6040518163ffffffff1660e01b8152600401602060405180830381865afa925050508015611631575060408051601f3d908101601f1916820190925261162e91810190611d13565b60015b61165957604051634c9c8ce360e01b81526001600160a01b0383166004820152602401610cc3565b600080516020611d62833981519152811461168a57604051632a87526960e21b815260048101829052602401610cc3565b6108888383611769565b306001600160a01b037f000000000000000000000000000000000000000000000000000000000000000016146115155760405163703e46dd60e11b815260040160405180910390fd5b6116e78282610c4b565b610bf95760405163e2517d3f60e01b81526001600160a01b038216600482015260248101839052604401610cc3565b61171e6117bf565b61151557604051631afcd79f60e31b815260040160405180910390fd5b611743611716565b60017f9b779b17422d0df92223018b32b4d1fa46e071723d6817e2486d003becc55f0055565b611772826117d9565b6040516001600160a01b038316907fbc7cd75a20ee27fd9adebab32041f755214dbc6bffa90cc0225b39da2e5c2d3b90600090a28051156117b757610888828261183e565b610bf96118b4565b60006117c96114e4565b54600160401b900460ff16919050565b806001600160a01b03163b60000361180f57604051634c9c8ce360e01b81526001600160a01b0382166004820152602401610cc3565b600080516020611d6283398151915280546001600160a01b0319166001600160a01b0392909216919091179055565b6060600080846001600160a01b03168460405161185b9190611d45565b600060405180830381855af49150503d8060008114611896576040519150601f19603f3d011682016040523d82523d6000602084013e61189b565b606091505b50915091506118ab8583836118d3565b95945050505050565b34156115155760405163b398979f60e01b815260040160405180910390fd5b6060826118e8576118e382611932565b61192b565b81511580156118ff57506001600160a01b0384163b155b1561192857604051639996b31560e01b81526001600160a01b0385166004820152602401610cc3565b50805b9392505050565b8051156119425780518082602001fd5b60405163d6bda27560e01b815260040160405180910390fd5b60006020828403121561196d57600080fd5b81356001600160e01b03198116811461192b57600080fd5b60006020828403121561199757600080fd5b5035919050565b80356001600160a01b03811681146119b557600080fd5b919050565b6000602082840312156119cc57600080fd5b61192b8261199e565b602080825282518282018190526000918401906040840190835b81811015611a0d5783518352602093840193909201916001016119ef565b509095945050505050565b60008060408385031215611a2b57600080fd5b82359150611a3b6020840161199e565b90509250929050565b60008060408385031215611a5757600080fd5b611a608361199e565b9150611a3b6020840161199e565b634e487b7160e01b600052604160045260246000fd5b60008060408385031215611a9757600080fd5b611aa08361199e565b9150602083013567ffffffffffffffff811115611abc57600080fd5b8301601f81018513611acd57600080fd5b803567ffffffffffffffff811115611ae757611ae7611a6e565b604051601f8201601f19908116603f0116810167ffffffffffffffff81118282101715611b1657611b16611a6e565b604052818152828201602001871015611b2e57600080fd5b816020840160208301376000602083830101528093505050509250929050565b60005b83811015611b69578181015183820152602001611b51565b50506000910152565b6020815260008251806020840152611b91816040850160208701611b4e565b601f01601f19169190910160400192915050565b803560ff811681146119b557600080fd5b600060208284031215611bc857600080fd5b61192b82611ba5565b60008060408385031215611be457600080fd5b611bed8361199e565b946020939093013593505050565b60008060408385031215611c0e57600080fd5b50508035926020909101359150565b60008060008060808587031215611c3357600080fd5b611c3c85611ba5565b966020860135965060408601359560600135945092505050565b600060208284031215611c6857600080fd5b81516004811061192b57600080fd5b634e487b7160e01b600052602160045260246000fd5b600060208284031215611c9f57600080fd5b8151801515811461192b57600080fd5b634e487b7160e01b600052601160045260246000fd5b600060018201611cd757611cd7611caf565b5060010190565b8082018082111561079f5761079f611caf565b600082611d0e57634e487b7160e01b600052601260045260246000fd5b500490565b600060208284031215611d2557600080fd5b5051919050565b60ff818116838216019081111561079f5761079f611caf565b60008251611d57818460208701611b4e565b919091019291505056fe360894a13ba1a3210667c828492db98dca3e2076cc3735a920a3ca505d382bbc02dd7bc7dec4dceedda775e58dd541e08a116c6c53815c0bd028192f7b626800a264697066735822122006f217c6557f5d38b215e7015bbb2da8f2d05c73ff5c224c8c7a46811de9285764736f6c634300081c0033",
  "linkReferences": {},
  "deployedLinkReferences": {}
}