{
  "_format": "hh-sol-artifact-1",
  "contractName": "ProxyFactory",
  "sourceName": "contracts/ProxyFactory.sol",
  "abi": [
    {
      "inputs": [],
      "stateMutability": "nonpayable",
      "type": "constructor"
    },
    {
      "inputs": [],
      "name": "AccessControlBadConfirmation",
      "type": "error"
    },
    {
      "inputs": [
        {
          "internalType": "address",
          "name": "account",
          "type": "address"
        },
        {
          "internalType": "bytes32",
          "name": "neededRole",
          "type": "bytes32"
        }
      ],
      "name": "AccessControlUnauthorizedAccount",
      "type": "error"
    },
    {
      "anonymous": false,
      "inputs": [
        {
          "indexed": true,
          "internalType": "uint256",
          "name": "deploymentId",
          "type": "uint256"
        },
        {
          "indexed": true,
          "internalType": "address",
          "name": "proxy",
          "type": "address"
        },
        {
          "indexed": true,
          "internalType": "address",
          "name": "implementation",
          "type": "address"
        },
        {
          "indexed": false,
          "internalType": "address",
          "name": "proxyAdmin",
          "type": "address"
        },
        {
          "indexed": false,
          "internalType": "address",
          "name": "tierWeightManager",
          "type": "address"
        }
      ],
      "name": "DeploymentCreated",
      "type": "event"
    },
    {
      "anonymous": false,
      "inputs": [
        {
          "indexed": true,
          "internalType": "uint256",
          "name": "deploymentId",
          "type": "uint256"
        },
        {
          "indexed": true,
          "internalType": "address",
          "name": "oldImplementation",
          "type": "address"
        },
        {
          "indexed": true,
          "internalType": "address",
          "name": "newImplementation",
          "type": "address"
        }
      ],
      "name": "ImplementationUpgraded",
      "type": "event"
    },
    {
      "anonymous": false,
      "inputs": [
        {
          "indexed": true,
          "internalType": "bytes32",
          "name": "role",
          "type": "bytes32"
        },
        {
          "indexed": true,
          "internalType": "bytes32",
          "name": "previousAdminRole",
          "type": "bytes32"
        },
        {
          "indexed": true,
          "internalType": "bytes32",
          "name": "newAdminRole",
          "type": "bytes32"
        }
      ],
      "name": "RoleAdminChanged",
      "type": "event"
    },
    {
      "anonymous": false,
      "inputs": [
        {
          "indexed": true,
          "internalType": "bytes32",
          "name": "role",
          "type": "bytes32"
        },
        {
          "indexed": true,
          "internalType": "address",
          "name": "account",
          "type": "address"
        },
        {
          "indexed": true,
          "internalType": "address",
          "name": "sender",
          "type": "address"
        }
      ],
      "name": "RoleGranted",
      "type": "event"
    },
    {
      "anonymous": false,
      "inputs": [
        {
          "indexed": true,
          "internalType": "bytes32",
          "name": "role",
          "type": "bytes32"
        },
        {
          "indexed": true,
          "internalType": "address",
          "name": "account",
          "type": "address"
        },
        {
          "indexed": true,
          "internalType": "address",
          "name": "sender",
          "type": "address"
        }
      ],
      "name": "RoleRevoked",
      "type": "event"
    },
    {
      "anonymous": false,
      "inputs": [
        {
          "indexed": true,
          "internalType": "uint256",
          "name": "deploymentId",
          "type": "uint256"
        },
        {
          "indexed": true,
          "internalType": "address",
          "name": "oldTierWeightManager",
          "type": "address"
        },
        {
          "indexed": true,
          "internalType": "address",
          "name": "newTierWeightManager",
          "type": "address"
        }
      ],
      "name": "TierWeightManagerUpdated",
      "type": "event"
    },
    {
      "inputs": [],
      "name": "DEFAULT_ADMIN_ROLE",
      "outputs": [
        {
          "internalType": "bytes32",
          "name": "",
          "type": "bytes32"
        }
      ],
      "stateMutability": "view",
      "type": "function"
    },
    {
      "inputs": [],
      "name": "DEPLOYER_ROLE",
      "outputs": [
        {
          "internalType": "bytes32",
          "name": "",
          "type": "bytes32"
        }
      ],
      "stateMutability": "view",
      "type": "function"
    },
    {
      "inputs": [],
      "name": "UPGRADER_ROLE",
      "outputs": [
        {
          "internalType": "bytes32",
          "name": "",
          "type": "bytes32"
        }
      ],
      "stateMutability": "view",
      "type": "function"
    },
    {
      "inputs": [
        {
          "internalType": "address",
          "name": "stakingToken",
          "type": "address"
        },
        {
          "components": [
            {
              "internalType": "uint256",
              "name": "minAmount",
              "type": "uint256"
            },
            {
              "internalType": "uint256",
              "name": "maxAmount",
              "type": "uint256"
            },
            {
              "internalType": "uint256",
              "name": "duration",
              "type": "uint256"
            },
            {
              "internalType": "uint256",
              "name": "rewardRate",
              "type": "uint256"
            },
            {
              "internalType": "uint256",
              "name": "nftMultiplier",
              "type": "uint256"
            },
            {
              "internalType": "bool",
              "name": "isActive",
              "type": "bool"
            }
          ],
          "internalType": "struct TierWeightManager.TierConfig[4]",
          "name": "initialTierWeights",
          "type": "tuple[4]"
        }
      ],
      "name": "createDeployment",
      "outputs": [
        {
          "internalType": "uint256",
          "name": "deploymentId",
          "type": "uint256"
        },
        {
          "internalType": "address",
          "name": "proxy",
          "type": "address"
        },
        {
          "internalType": "address",
          "name": "proxyAdmin",
          "type": "address"
        }
      ],
      "stateMutability": "nonpayable",
      "type": "function"
    },
    {
      "inputs": [
        {
          "internalType": "uint256",
          "name": "deploymentId",
          "type": "uint256"
        }
      ],
      "name": "deactivateDeployment",
      "outputs": [],
      "stateMutability": "nonpayable",
      "type": "function"
    },
    {
      "inputs": [],
      "name": "deploymentCount",
      "outputs": [
        {
          "internalType": "uint256",
          "name": "",
          "type": "uint256"
        }
      ],
      "stateMutability": "view",
      "type": "function"
    },
    {
      "inputs": [
        {
          "internalType": "uint256",
          "name": "",
          "type": "uint256"
        }
      ],
      "name": "deployments",
      "outputs": [
        {
          "internalType": "address",
          "name": "proxy",
          "type": "address"
        },
        {
          "internalType": "address",
          "name": "implementation",
          "type": "address"
        },
        {
          "internalType": "address",
          "name": "proxyAdmin",
          "type": "address"
        },
        {
          "internalType": "address",
          "name": "tierWeightManager",
          "type": "address"
        },
        {
          "internalType": "uint256",
          "name": "deploymentTime",
          "type": "uint256"
        },
        {
          "internalType": "bool",
          "name": "isActive",
          "type": "bool"
        }
      ],
      "stateMutability": "view",
      "type": "function"
    },
    {
      "inputs": [],
      "name": "getActiveDeployments",
      "outputs": [
        {
          "internalType": "uint256[]",
          "name": "activeDeployments",
          "type": "uint256[]"
        }
      ],
      "stateMutability": "view",
      "type": "function"
    },
    {
      "inputs": [
        {
          "internalType": "uint256",
          "name": "deploymentId",
          "type": "uint256"
        }
      ],
      "name": "getDeploymentInfo",
      "outputs": [
        {
          "components": [
            {
              "internalType": "address",
              "name": "proxy",
              "type": "address"
            },
            {
              "internalType": "address",
              "name": "implementation",
              "type": "address"
            },
            {
              "internalType": "address",
              "name": "proxyAdmin",
              "type": "address"
            },
            {
              "internalType": "address",
              "name": "tierWeightManager",
              "type": "address"
            },
            {
              "internalType": "uint256",
              "name": "deploymentTime",
              "type": "uint256"
            },
            {
              "internalType": "bool",
              "name": "isActive",
              "type": "bool"
            }
          ],
          "internalType": "struct ProxyFactory.DeploymentInfo",
          "name": "info",
          "type": "tuple"
        }
      ],
      "stateMutability": "view",
      "type": "function"
    },
    {
      "inputs": [
        {
          "internalType": "uint256",
          "name": "deploymentId",
          "type": "uint256"
        }
      ],
      "name": "getProxyAddress",
      "outputs": [
        {
          "internalType": "address",
          "name": "proxy",
          "type": "address"
        }
      ],
      "stateMutability": "view",
      "type": "function"
    },
    {
      "inputs": [
        {
          "internalType": "uint256",
          "name": "deploymentId",
          "type": "uint256"
        }
      ],
      "name": "getProxyAdminAddress",
      "outputs": [
        {
          "internalType": "address",
          "name": "proxyAdmin",
          "type": "address"
        }
      ],
      "stateMutability": "view",
      "type": "function"
    },
    {
      "inputs": [
        {
          "internalType": "bytes32",
          "name": "role",
          "type": "bytes32"
        }
      ],
      "name": "getRoleAdmin",
      "outputs": [
        {
          "internalType": "bytes32",
          "name": "",
          "type": "bytes32"
        }
      ],
      "stateMutability": "view",
      "type": "function"
    },
    {
      "inputs": [
        {
          "internalType": "bytes32",
          "name": "role",
          "type": "bytes32"
        },
        {
          "internalType": "address",
          "name": "account",
          "type": "address"
        }
      ],
      "name": "grantRole",
      "outputs": [],
      "stateMutability": "nonpayable",
      "type": "function"
    },
    {
      "inputs": [
        {
          "internalType": "bytes32",
          "name": "role",
          "type": "bytes32"
        },
        {
          "internalType": "address",
          "name": "account",
          "type": "address"
        }
      ],
      "name": "hasRole",
      "outputs": [
        {
          "internalType": "bool",
          "name": "",
          "type": "bool"
        }
      ],
      "stateMutability": "view",
      "type": "function"
    },
    {
      "inputs": [
        {
          "internalType": "bytes32",
          "name": "role",
          "type": "bytes32"
        },
        {
          "internalType": "address",
          "name": "callerConfirmation",
          "type": "address"
        }
      ],
      "name": "renounceRole",
      "outputs": [],
      "stateMutability": "nonpayable",
      "type": "function"
    },
    {
      "inputs": [
        {
          "internalType": "bytes32",
          "name": "role",
          "type": "bytes32"
        },
        {
          "internalType": "address",
          "name": "account",
          "type": "address"
        }
      ],
      "name": "revokeRole",
      "outputs": [],
      "stateMutability": "nonpayable",
      "type": "function"
    },
    {
      "inputs": [
        {
          "internalType": "bytes4",
          "name": "interfaceId",
          "type": "bytes4"
        }
      ],
      "name": "supportsInterface",
      "outputs": [
        {
          "internalType": "bool",
          "name": "",
          "type": "bool"
        }
      ],
      "stateMutability": "view",
      "type": "function"
    },
    {
      "inputs": [
        {
          "internalType": "uint256",
          "name": "deploymentId",
          "type": "uint256"
        },
        {
          "internalType": "address",
          "name": "newTierWeightManager",
          "type": "address"
        }
      ],
      "name": "updateTierWeightManager",
      "outputs": [],
      "stateMutability": "nonpayable",
      "type": "function"
    },
    {
      "inputs": [
        {
          "internalType": "uint256",
          "name": "deploymentId",
          "type": "uint256"
        },
        {
          "internalType": "address",
          "name": "newImplementation",
          "type": "address"
        }
      ],
      "name": "upgradeImplementation",
      "outputs": [],
      "stateMutability": "nonpayable",
      "type": "function"
    }
  ],
  "bytecode": "0x608060405234801561001057600080fd5b5061001c600033610078565b506100477ffc425f2263d0df187444b70e47283d622c70181c5baebb1306a01edba1ce184c33610078565b506100727f189ab7a9244df0848122154315af71fe140f3db0fe014031783b0946b8c9d2e333610078565b50610124565b6000828152602081815260408083206001600160a01b038516845290915281205460ff1661011a576000838152602081815260408083206001600160a01b03861684529091529020805460ff191660011790556100d23390565b6001600160a01b0316826001600160a01b0316847f2f8788117e7eff1d82e926ec794901d17c78024a50270940304540a733656f0d60405160405180910390a450600161011e565b5060005b92915050565b6160e2806101336000396000f3fe608060405234801561001057600080fd5b50600436106101215760003560e01c80634c36f10d116100ad578063d547741f11610071578063d547741f14610317578063d8b640bf1461032a578063e91743271461033d578063ecd0026114610447578063f72c0d8b1461046e57600080fd5b80634c36f10d146102a85780634feefa9b146102b15780636c4d4eeb146102c457806391d14854146102fc578063a217fddf1461030f57600080fd5b8063248a9ca3116100f4578063248a9ca3146102295780632f2ff15d1461025a57806336568abe1461026f578063384ba7f21461028257806348b911fa1461029557600080fd5b806301ffc9a71461012657806306609bbe1461014e5780630faca2d5146101e957806310df35bd146101fe575b600080fd5b61013961013436600461109e565b610495565b60405190151581526020015b60405180910390f35b6101a761015c3660046110cf565b60016020819052600091825260409091208054918101546002820154600383015460048401546005909401546001600160a01b03958616959384169492841693909116919060ff1686565b604080516001600160a01b03978816815295871660208701529386169385019390935293166060830152608082019290925290151560a082015260c001610145565b6101f16104cc565b60405161014591906110e8565b61021161020c3660046110cf565b6105b4565b6040516001600160a01b039091168152602001610145565b61024c6102373660046110cf565b60009081526020819052604090206001015490565b604051908152602001610145565b61026d610268366004611147565b61060d565b005b61026d61027d366004611147565b610638565b6102116102903660046110cf565b610670565b61026d6102a3366004611147565b6106bd565b61024c60025481565b61026d6102bf3660046110cf565b610847565b6102d76102d2366004611173565b6108cf565b604080519384526001600160a01b039283166020850152911690820152606001610145565b61013961030a366004611147565b610d31565b61024c600081565b61026d610325366004611147565b610d5a565b61026d610338366004611147565b610d7f565b6103ec61034b3660046110cf565b6040805160c081018252600080825260208201819052918101829052606081018290526080810182905260a081019190915250600090815260016020818152604092839020835160c08101855281546001600160a01b039081168252938201548416928101929092526002810154831693820193909352600383015490911660608201526004820154608082015260059091015460ff16151560a082015290565b604051610145919081516001600160a01b039081168252602080840151821690830152604080840151821690830152606080840151909116908201526080808301519082015260a09182015115159181019190915260c00190565b61024c7ffc425f2263d0df187444b70e47283d622c70181c5baebb1306a01edba1ce184c81565b61024c7f189ab7a9244df0848122154315af71fe140f3db0fe014031783b0946b8c9d2e381565b60006001600160e01b03198216637965db0b60e01b14806104c657506301ffc9a760e01b6001600160e01b03198316145b92915050565b60606000805b60025481101561050c5760008181526001602052604090206005015460ff16156105045781610500816111af565b9250505b6001016104d2565b508067ffffffffffffffff811115610526576105266111d6565b60405190808252806020026020018201604052801561054f578160200160208202803683370190505b5091506000805b6002548110156105ae5760008181526001602052604090206005015460ff16156105a6578084838151811061058d5761058d6111ec565b6020908102919091010152816105a2816111af565b9250505b600101610556565b50505090565b60008181526001602052604081206005015460ff166105ee5760405162461bcd60e51b81526004016105e590611202565b60405180910390fd5b506000908152600160205260409020600201546001600160a01b031690565b60008281526020819052604090206001015461062881610f23565b6106328383610f30565b50505050565b6001600160a01b03811633146106615760405163334bd91960e11b815260040160405180910390fd5b61066b8282610fc2565b505050565b60008181526001602052604081206005015460ff166106a15760405162461bcd60e51b81526004016105e590611202565b506000908152600160205260409020546001600160a01b031690565b7f189ab7a9244df0848122154315af71fe140f3db0fe014031783b0946b8c9d2e36106e781610f23565b60008381526001602052604090206005015460ff166107185760405162461bcd60e51b81526004016105e590611202565b6001600160a01b03821661076e5760405162461bcd60e51b815260206004820181905260248201527f5a65726f207469657220776569676874206d616e61676572206164647265737360448201526064016105e5565b6000838152600160205260409081902060038101549054915163d8ba624960e01b81526001600160a01b03858116600483015291821692919091169063d8ba624990602401600060405180830381600087803b1580156107cd57600080fd5b505af11580156107e1573d6000803e3d6000fd5b50505060008581526001602052604080822060030180546001600160a01b0319166001600160a01b03888116918217909255915191935084169187917f5de93e762c94afe1fc8fba2cef1463afd5fb414edd14b9b538c85ab0361076489190a450505050565b600061085281610f23565b60008281526001602052604090206005015460ff166108b35760405162461bcd60e51b815260206004820152601b60248201527f4465706c6f796d656e7420616c726561647920696e616374697665000000000060448201526064016105e5565b506000908152600160205260409020600501805460ff19169055565b60008060007ffc425f2263d0df187444b70e47283d622c70181c5baebb1306a01edba1ce184c6108fe81610f23565b6001600160a01b0386166109545760405162461bcd60e51b815260206004820152601a60248201527f5a65726f207374616b696e6720746f6b656e206164647265737300000000000060448201526064016105e5565b60028054906000610964836111af565b91905055935060006040516109789061106a565b604051809103906000f080158015610994573d6000803e3d6000fd5b5090506000336040516109a690611077565b6001600160a01b039091168152602001604051809103906000f0801580156109d2573d6000803e3d6000fd5b50905080935060006040516109e690611084565b604051809103906000f080158015610a02573d6000803e3d6000fd5b50604080516001600160a01b038c81166024830152861660448083019190915282518083039091018152606490910182526020810180516001600160e01b031663485cc95560e01b179052905191925090829087908390610a6290611091565b610a6e93929190611277565b604051809103906000f080158015610a8a573d6000803e3d6000fd5b50965060005b60048160ff161015610b2057846001600160a01b0316634c9d3653828c8460ff1660048110610ac157610ac16111ec565b60c002016040518363ffffffff1660e01b8152600401610ae29291906112ac565b600060405180830381600087803b158015610afc57600080fd5b505af1158015610b10573d6000803e3d6000fd5b505060019092019150610a909050565b5060405163f2fde38b60e01b81523360048201526001600160a01b0387169063f2fde38b90602401600060405180830381600087803b158015610b6257600080fd5b505af1158015610b76573d6000803e3d6000fd5b505050506040518060c00160405280886001600160a01b03168152602001836001600160a01b03168152602001876001600160a01b03168152602001856001600160a01b0316815260200142815260200160011515815250600160008a815260200190815260200160002060008201518160000160006101000a8154816001600160a01b0302191690836001600160a01b0316021790555060208201518160010160006101000a8154816001600160a01b0302191690836001600160a01b0316021790555060408201518160020160006101000a8154816001600160a01b0302191690836001600160a01b0316021790555060608201518160030160006101000a8154816001600160a01b0302191690836001600160a01b031602179055506080820151816004015560a08201518160050160006101000a81548160ff021916908315150217905550905050816001600160a01b0316876001600160a01b0316897f0ba58c51ecf9532dd6fabb21bab95fec56e2287b005ca74562b0745bd9a73a8f8988604051610d1d9291906001600160a01b0392831681529116602082015260400190565b60405180910390a450505050509250925092565b6000918252602082815260408084206001600160a01b0393909316845291905290205460ff1690565b600082815260208190526040902060010154610d7581610f23565b6106328383610fc2565b7f189ab7a9244df0848122154315af71fe140f3db0fe014031783b0946b8c9d2e3610da981610f23565b60008381526001602052604090206005015460ff16610dda5760405162461bcd60e51b81526004016105e590611202565b6001600160a01b038216610e305760405162461bcd60e51b815260206004820152601b60248201527f5a65726f20696d706c656d656e746174696f6e2061646472657373000000000060448201526064016105e5565b60008381526001602081815260408084206002810154938101549054825193840183529483529051639623609d60e01b81526001600160a01b0393841694918416938593639623609d93610e8c93921691899190600401611277565b600060405180830381600087803b158015610ea657600080fd5b505af1158015610eba573d6000803e3d6000fd5b505050600086815260016020819052604080832090910180546001600160a01b0319166001600160a01b03898116918217909255915191935084169188917fe7f4fdf73585f3faebd55989710e33e2960156702264aafcfea17fa40e4aa0e39190a45050505050565b610f2d813361102d565b50565b6000610f3c8383610d31565b610fba576000838152602081815260408083206001600160a01b03861684529091529020805460ff19166001179055610f723390565b6001600160a01b0316826001600160a01b0316847f2f8788117e7eff1d82e926ec794901d17c78024a50270940304540a733656f0d60405160405180910390a45060016104c6565b5060006104c6565b6000610fce8383610d31565b15610fba576000838152602081815260408083206001600160a01b0386168085529252808320805460ff1916905551339286917ff6391f5c32d9c69d2a47ea670b442974b53935d1edc7fd64eb21e047a839171b9190a45060016104c6565b6110378282610d31565b6110665760405163e2517d3f60e01b81526001600160a01b0382166004820152602481018390526044016105e5565b5050565b61154b8061131483390190565b61052c8061285f83390190565b61249e80612d8b83390190565b610e848061522983390190565b6000602082840312156110b057600080fd5b81356001600160e01b0319811681146110c857600080fd5b9392505050565b6000602082840312156110e157600080fd5b5035919050565b602080825282518282018190526000918401906040840190835b81811015611120578351835260209384019390920191600101611102565b509095945050505050565b80356001600160a01b038116811461114257600080fd5b919050565b6000806040838503121561115a57600080fd5b8235915061116a6020840161112b565b90509250929050565b600080610320838503121561118757600080fd5b6111908361112b565b915083610320840111156111a357600080fd5b50926020919091019150565b6000600182016111cf57634e487b7160e01b600052601160045260246000fd5b5060010190565b634e487b7160e01b600052604160045260246000fd5b634e487b7160e01b600052603260045260246000fd5b6020808252601590820152744465706c6f796d656e74206e6f742061637469766560581b604082015260600190565b6000815180845260005b818110156112575760208185018101518683018201520161123b565b506000602082860101526020601f19601f83011685010191505092915050565b6001600160a01b038481168252831660208201526060604082018190526000906112a390830184611231565b95945050505050565b60ff83168152813560208083019190915282013560408083019190915282013560608083019190915282013560808083019190915282013560a08083019190915260e082019083013580151580821461130457600080fd5b8060c08501525050939250505056fe608060405234801561001057600080fd5b5060018055610020600033610084565b5061004b7fa49807205ce4d355092ef5a8a18f56e8913cf4a201fbe287825b095693c2177533610084565b506100767f135612785e76fe57e7696609c82bd391eb5fb0f6cb27da7151e3420a6934327633610084565b5061007f610130565b6105f9565b6000828152602081815260408083206001600160a01b038516845290915281205460ff16610126576000838152602081815260408083206001600160a01b03861684529091529020805460ff191660011790556100de3390565b6001600160a01b0316826001600160a01b0316847f2f8788117e7eff1d82e926ec794901d17c78024a50270940304540a733656f0d60405160405180910390a450600161012a565b5060005b92915050565b6040805160c08082018352681b1ae4d6e2ef500000808352602080840191825262278d008486019081526000606080870182815260016080808a0182815260a0808c018481528780526002808b529c517fac33ff75c19e70fe83507db0d683fd3465c996598dc972688b7ace676c89077b5599517fac33ff75c19e70fe83507db0d683fd3465c996598dc972688b7ace676c89077c5596517fac33ff75c19e70fe83507db0d683fd3465c996598dc972688b7ace676c89077d5592517fac33ff75c19e70fe83507db0d683fd3465c996598dc972688b7ace676c89077e5591517fac33ff75c19e70fe83507db0d683fd3465c996598dc972688b7ace676c89077f5595517fac33ff75c19e70fe83507db0d683fd3465c996598dc972688b7ace676c890780805460ff1990811692151592909217905589518089018b52683635c9adc5dea000008082528188019081526276a700828d019081528286018781528386018b8152848a018c81528c8a528e8c5294517fe90b7bceb6e7df5418fb78d8ee546e97c83a08bbccc01a0644d599ccd2a7c2e05592517fe90b7bceb6e7df5418fb78d8ee546e97c83a08bbccc01a0644d599ccd2a7c2e15590517fe90b7bceb6e7df5418fb78d8ee546e97c83a08bbccc01a0644d599ccd2a7c2e255517fe90b7bceb6e7df5418fb78d8ee546e97c83a08bbccc01a0644d599ccd2a7c2e355517fe90b7bceb6e7df5418fb78d8ee546e97c83a08bbccc01a0644d599ccd2a7c2e455517fe90b7bceb6e7df5418fb78d8ee546e97c83a08bbccc01a0644d599ccd2a7c2e58054831691151591909117905589518089018b5268878678326eac90000080825281880190815262ed4e00828d019081528286018781528386018b8152848a018c81528e8a528e8c5294517f679795a0195a1b76cdebb7c51d74e058aee92919b8c3389af86ef24535e8a28c5592517f679795a0195a1b76cdebb7c51d74e058aee92919b8c3389af86ef24535e8a28d5590517f679795a0195a1b76cdebb7c51d74e058aee92919b8c3389af86ef24535e8a28e55517f679795a0195a1b76cdebb7c51d74e058aee92919b8c3389af86ef24535e8a28f55517f679795a0195a1b76cdebb7c51d74e058aee92919b8c3389af86ef24535e8a29055517f679795a0195a1b76cdebb7c51d74e058aee92919b8c3389af86ef24535e8a2918054831691151591909117905589519788018a5269010f0cf064dd592000008089528887019081526301e13380898c0190815293890185815292890188815295890188815260039586905299875297517f88601476d11616a71c5be67555bd1dff4b1cbf21533d2669b768b61518cfe1c35596517f88601476d11616a71c5be67555bd1dff4b1cbf21533d2669b768b61518cfe1c45590517f88601476d11616a71c5be67555bd1dff4b1cbf21533d2669b768b61518cfe1c555517f88601476d11616a71c5be67555bd1dff4b1cbf21533d2669b768b61518cfe1c65590517f88601476d11616a71c5be67555bd1dff4b1cbf21533d2669b768b61518cfe1c75593517f88601476d11616a71c5be67555bd1dff4b1cbf21533d2669b768b61518cfe1c88054909416901515179092559182905591519081527f6126ab0a9aadc9f729174668b7965114b5198740cc236df82aa4435b33d3626a910160405180910390a1565b610f43806106086000396000f3fe608060405234801561001057600080fd5b50600436106101215760003560e01c80639da9db2a116100ad578063b8265b3411610071578063b8265b34146102c9578063c0055ba9146102f0578063c022c52314610315578063d547741f14610376578063dd64d24d1461038957600080fd5b80639da9db2a1461021c5780639dc6edc714610293578063a217fddf1461029b578063affa9f2e146102a3578063b0140470146102b657600080fd5b806336568abe116100f457806336568abe146101a95780634c9d3653146101bc57806375b238fc146101cf57806379604e1a146101f657806391d148541461020957600080fd5b806301ffc9a71461012657806302f73f2d1461014e578063248a9ca3146101635780632f2ff15d14610194575b600080fd5b610139610134366004610c2e565b610392565b60405190151581526020015b60405180910390f35b6101566103c9565b6040516101459190610c5f565b610186610171366004610ca5565b60009081526020819052604090206001015490565b604051908152602001610145565b6101a76101a2366004610cbe565b6104da565b005b6101a76101b7366004610cbe565b610505565b6101a76101ca366004610d10565b61053d565b6101867fa49807205ce4d355092ef5a8a18f56e8913cf4a201fbe287825b095693c2177581565b610186610204366004610d4f565b6107c4565b610139610217366004610cbe565b610803565b61026461022a366004610d4f565b6002602081905260009182526040909120805460018201549282015460038301546004840154600590940154929493919290919060ff1686565b6040805196875260208701959095529385019290925260608401526080830152151560a082015260c001610145565b600354610186565b610186600081565b6101866102b1366004610d4f565b61082c565b6101a76102c4366004610d78565b61086b565b6101867f135612785e76fe57e7696609c82bd391eb5fb0f6cb27da7151e3420a6934327681565b6103036102fe366004610da4565b610916565b60405160ff9091168152602001610145565b610328610323366004610d4f565b6109d9565b6040516101459190600060c082019050825182526020830151602083015260408301516040830152606083015160608301526080830151608083015260a0830151151560a083015292915050565b6101a7610384366004610cbe565b610a98565b61018660035481565b60006001600160e01b03198216637965db0b60e01b14806103c357506301ffc9a760e01b6001600160e01b03198316145b92915050565b60606000805b60038160ff16116104175760ff8082166000908152600260205260409020600501541615610405578161040181610ddc565b9250505b8061040f81610ddc565b9150506103cf565b508060ff1667ffffffffffffffff81111561043457610434610dfb565b60405190808252806020026020018201604052801561045d578160200160208202803683370190505b5091506000805b60038160ff16116104d45760ff80821660009081526002602052604090206005015416156104c25780848360ff16815181106104a2576104a2610e11565b60ff90921660209283029190910190910152816104be81610ddc565b9250505b806104cc81610ddc565b915050610464565b50505090565b6000828152602081905260409020600101546104f581610abd565b6104ff8383610aca565b50505050565b6001600160a01b038116331461052e5760405163334bd91960e11b815260040160405180910390fd5b6105388282610b5c565b505050565b7f135612785e76fe57e7696609c82bd391eb5fb0f6cb27da7151e3420a6934327661056781610abd565b61056f610bc7565b60038360ff16111561059c5760405162461bcd60e51b815260040161059390610e27565b60405180910390fd5b81356105df5760405162461bcd60e51b8152602060048201526012602482015271125b9d985b1a59081b5a5b88185b5bdd5b9d60721b6044820152606401610593565b81356020830135101561062b5760405162461bcd60e51b8152602060048201526014602482015273496e76616c696420616d6f756e742072616e676560601b6044820152606401610593565b60008260400135116106725760405162461bcd60e51b815260206004820152601060248201526f24b73b30b634b210323ab930ba34b7b760811b6044820152606401610593565b612710826060013511156106bf5760405162461bcd60e51b81526020600482015260146024820152730a4caeec2e4c840e4c2e8ca40e8dede40d0d2ced60631b6044820152606401610593565b600082608001351161070c5760405162461bcd60e51b815260206004820152601660248201527524b73b30b634b21027232a1036bab63a34b83634b2b960511b6044820152606401610593565b60ff83166000908152600260205260409020829061072a8282610e4d565b50506003805490600061073c83610ea1565b91905055508260ff167f493a29baeb3cc4d6f5ab26f60b3936df82384abd62bcc6f1575dcaeb3bdf437383600354604051610778929190610eba565b60405180910390a27f6126ab0a9aadc9f729174668b7965114b5198740cc236df82aa4435b33d3626a6003546040516107b391815260200190565b60405180910390a161053860018055565b600060038260ff1611156107ea5760405162461bcd60e51b815260040161059390610e27565b5060ff1660009081526002602052604090206004015490565b6000918252602082815260408084206001600160a01b0393909316845291905290205460ff1690565b600060038260ff1611156108525760405162461bcd60e51b815260040161059390610e27565b5060ff1660009081526002602052604090206003015490565b7fa49807205ce4d355092ef5a8a18f56e8913cf4a201fbe287825b095693c2177561089581610abd565b60038360ff1611156108b95760405162461bcd60e51b815260040161059390610e27565b60ff8316600081815260026020908152604091829020600501805460ff191686151590811790915591519182527fe5283e65312a60b7d36b0f9a3f40b565fd52e49b2c2a2bd37452d2d8849eb9db910160405180910390a2505050565b6000805b60038160ff16116109cf5760ff808216600090815260026020818152604092839020835160c08101855281548152600182015492810192909252918201549281019290925260038101546060830152600481015460808301526005015490911615801560a0830181905290610990575080518510155b80156109a0575080602001518511155b80156109af5750806040015184145b156109bc575090506103c3565b50806109c781610ddc565b91505061091a565b5060ff9392505050565b610a146040518060c0016040528060008152602001600081526020016000815260200160008152602001600081526020016000151581525090565b60038260ff161115610a385760405162461bcd60e51b815260040161059390610e27565b5060ff908116600090815260026020818152604092839020835160c081018552815481526001820154928101929092529182015492810192909252600381015460608301526004810154608083015260050154909116151560a082015290565b600082815260208190526040902060010154610ab381610abd565b6104ff8383610b5c565b610ac78133610bf1565b50565b6000610ad68383610803565b610b54576000838152602081815260408083206001600160a01b03861684529091529020805460ff19166001179055610b0c3390565b6001600160a01b0316826001600160a01b0316847f2f8788117e7eff1d82e926ec794901d17c78024a50270940304540a733656f0d60405160405180910390a45060016103c3565b5060006103c3565b6000610b688383610803565b15610b54576000838152602081815260408083206001600160a01b0386168085529252808320805460ff1916905551339286917ff6391f5c32d9c69d2a47ea670b442974b53935d1edc7fd64eb21e047a839171b9190a45060016103c3565b600260015403610bea57604051633ee5aeb560e01b815260040160405180910390fd5b6002600155565b610bfb8282610803565b610c2a5760405163e2517d3f60e01b81526001600160a01b038216600482015260248101839052604401610593565b5050565b600060208284031215610c4057600080fd5b81356001600160e01b031981168114610c5857600080fd5b9392505050565b602080825282518282018190526000918401906040840190835b81811015610c9a57835160ff16835260209384019390920191600101610c79565b509095945050505050565b600060208284031215610cb757600080fd5b5035919050565b60008060408385031215610cd157600080fd5b8235915060208301356001600160a01b0381168114610cef57600080fd5b809150509250929050565b803560ff81168114610d0b57600080fd5b919050565b60008082840360e0811215610d2457600080fd5b610d2d84610cfa565b925060c0601f1982011215610d4157600080fd5b506020830190509250929050565b600060208284031215610d6157600080fd5b610c5882610cfa565b8015158114610ac757600080fd5b60008060408385031215610d8b57600080fd5b610d9483610cfa565b91506020830135610cef81610d6a565b60008060408385031215610db757600080fd5b50508035926020909101359150565b634e487b7160e01b600052601160045260246000fd5b600060ff821660ff8103610df257610df2610dc6565b60010192915050565b634e487b7160e01b600052604160045260246000fd5b634e487b7160e01b600052603260045260246000fd5b6020808252600c908201526b24b73b30b634b2103a34b2b960a11b604082015260600190565b81358155602082013560018201556040820135600282015560608201356003820155608082013560048201556005810160a0830135610e8b81610d6a565b815490151560ff1660ff19919091161790555050565b600060018201610eb357610eb3610dc6565b5060010190565b823581526020808401359082015260408084013590820152606080840135908201526080808401359082015260e0810160a0840135610ef881610d6a565b151560a083015260c09091019190915291905056fea26469706673582212203218be5723c7738320272bdd344ec09491d0f1179769033f1d3c506e0c13049064736f6c634300081c0033608060405234801561001057600080fd5b5060405161052c38038061052c83398101604081905261002f916100be565b806001600160a01b03811661005e57604051631e4fbdf760e01b81526000600482015260240160405180910390fd5b6100678161006e565b50506100ee565b600080546001600160a01b038381166001600160a01b0319831681178455604051919092169283917f8be0079c531659141344cd1fd0a4f28419497f9722a3daafe3b4186f6b6457e09190a35050565b6000602082840312156100d057600080fd5b81516001600160a01b03811681146100e757600080fd5b9392505050565b61042f806100fd6000396000f3fe60806040526004361061004a5760003560e01c8063715018a61461004f5780638da5cb5b146100665780639623609d14610093578063ad3cb1cc146100a6578063f2fde38b146100e4575b600080fd5b34801561005b57600080fd5b50610064610104565b005b34801561007257600080fd5b506000546040516001600160a01b0390911681526020015b60405180910390f35b6100646100a1366004610272565b610118565b3480156100b257600080fd5b506100d7604051806040016040528060058152602001640352e302e360dc1b81525081565b60405161008a9190610396565b3480156100f057600080fd5b506100646100ff3660046103b0565b610187565b61010c6101ca565b61011660006101f7565b565b6101206101ca565b60405163278f794360e11b81526001600160a01b03841690634f1ef28690349061015090869086906004016103cd565b6000604051808303818588803b15801561016957600080fd5b505af115801561017d573d6000803e3d6000fd5b5050505050505050565b61018f6101ca565b6001600160a01b0381166101be57604051631e4fbdf760e01b8152600060048201526024015b60405180910390fd5b6101c7816101f7565b50565b6000546001600160a01b031633146101165760405163118cdaa760e01b81523360048201526024016101b5565b600080546001600160a01b038381166001600160a01b0319831681178455604051919092169283917f8be0079c531659141344cd1fd0a4f28419497f9722a3daafe3b4186f6b6457e09190a35050565b6001600160a01b03811681146101c757600080fd5b634e487b7160e01b600052604160045260246000fd5b60008060006060848603121561028757600080fd5b833561029281610247565b925060208401356102a281610247565b9150604084013567ffffffffffffffff8111156102be57600080fd5b8401601f810186136102cf57600080fd5b803567ffffffffffffffff8111156102e9576102e961025c565b604051601f8201601f19908116603f0116810167ffffffffffffffff811182821017156103185761031861025c565b60405281815282820160200188101561033057600080fd5b816020840160208301376000602083830101528093505050509250925092565b6000815180845260005b818110156103765760208185018101518683018201520161035a565b506000602082860101526020601f19601f83011685010191505092915050565b6020815260006103a96020830184610350565b9392505050565b6000602082840312156103c257600080fd5b81356103a981610247565b6001600160a01b03831681526040602082018190526000906103f190830184610350565b94935050505056fea2646970667358221220b9bb4f14aaeea685610ded00340e3b9236364f7fa4f5c0630bf6c32033d5a4e564736f6c634300081c003360806040526001600455348015601457600080fd5b5060018055612476806100286000396000f3fe608060405234801561001057600080fd5b50600436106101e55760003560e01c806396371a9a1161010f578063d3ea4350116100a2578063e89636d911610071578063e89636d914610513578063f31c658914610533578063f72c0d8b14610546578063f883462c1461056d57600080fd5b8063d3ea4350146104c7578063d547741f146104da578063d63843cd146104ed578063d8ba62491461050057600080fd5b8063a217fddf116100de578063a217fddf14610486578063ca19e4121461048e578063cb2d93ce146104a1578063d1aaef05146104b457600080fd5b806396371a9a1461035157806399fbab88146103735780639dc6edc71461046b578063a126d6011461047357600080fd5b80633b313361116101875780635e1b4d99116101565780635e1b4d99146102eb57806372f702f3146102fe57806375b238fc1461032957806391d148541461033e57600080fd5b80633b313361146102a8578063485cc955146102bb5780635312ea8e146102ce5780635dbdda69146102e157600080fd5b8063248a9ca3116101c3578063248a9ca31461023d5780632a6bc2dd146102605780632f2ff15d1461028057806336568abe1461029557600080fd5b806301ffc9a7146101ea57806302f73f2d1461021257806303d50b1f14610227575b600080fd5b6101fd6101f8366004611d2d565b610580565b60405190151581526020015b60405180910390f35b61021a6105b7565b6040516102099190611d5e565b61022f600a81565b604051908152602001610209565b61022f61024b366004611da4565b60009081526020819052604090206001015490565b61027361026e366004611dd9565b61062e565b6040516102099190611df4565b61029361028e366004611e2c565b61069a565b005b6102936102a3366004611e2c565b6106c5565b6102936102b6366004611dd9565b6106fd565b6102936102c9366004611e58565b610767565b6102936102dc366004611da4565b6108e1565b61022f62278d0081565b61022f6102f9366004611e82565b610aab565b600254610311906001600160a01b031681565b6040516001600160a01b039091168152602001610209565b61022f60008051602061242183398151915281565b6101fd61034c366004611e2c565b610adc565b61036461035f366004611da4565b610b05565b60405161020993929190611eac565b6103fe610381366004611da4565b6005602052600090815260409020805460018201546002909201546001600160801b038216926001600160401b03600160801b8404169263ffffffff600160c01b8204811693600160e01b909204169160ff808216926101008304821692620100008104909216916001600160a01b036301000000909104169089565b604080516001600160801b03909a168a526001600160401b0390981660208a015263ffffffff9687169789019790975294909316606087015260ff91821660808701521660a0850152151560c08401526001600160a01b031660e083015261010082015261012001610209565b61022f610d29565b610293610481366004611da4565b610d97565b61022f600081565b600954610311906001600160a01b031681565b6102936104af366004611dd9565b610fc5565b6102936104c2366004611fba565b61104e565b61022f6104d5366004611da4565b6115c9565b6102936104e8366004611e2c565b6116c4565b600854610311906001600160a01b031681565b61029361050e366004611dd9565b6116e9565b61022f610521366004611da4565b60076020526000908152604090205481565b600354610311906001600160a01b031681565b61022f7f189ab7a9244df0848122154315af71fe140f3db0fe014031783b0946b8c9d2e381565b61029361057b366004611da4565b611784565b60006001600160e01b03198216637965db0b60e01b14806105b157506301ffc9a760e01b6001600160e01b03198316145b92915050565b600354604080516302f73f2d60e01b815290516060926001600160a01b0316916302f73f2d9160048083019260009291908290030181865afa158015610601573d6000803e3d6000fd5b505050506040513d6000823e601f3d908101601f191682016040526106299190810190612056565b905090565b6001600160a01b03811660009081526006602090815260409182902080548351818402810184019094528084526060939283018282801561068e57602002820191906000526020600020905b81548152602001906001019080831161067a575b50505050509050919050565b6000828152602081905260409020600101546106b581611acd565b6106bf8383611ad7565b50505050565b6001600160a01b03811633146106ee5760405163334bd91960e11b815260040160405180910390fd5b6106f88282611b69565b505050565b60008051602061242183398151915261071581611acd565b6001600160a01b0382166107445760405162461bcd60e51b815260040161073b906120f7565b60405180910390fd5b50600980546001600160a01b0319166001600160a01b0392909216919091179055565b6001600160a01b0382166107bd5760405162461bcd60e51b815260206004820152601a60248201527f5a65726f207374616b696e6720746f6b656e2061646472657373000000000000604482015260640161073b565b6001600160a01b0381166108135760405162461bcd60e51b815260206004820181905260248201527f5a65726f207469657220776569676874206d616e616765722061646472657373604482015260640161073b565b6002546001600160a01b0316156108625760405162461bcd60e51b8152602060048201526013602482015272105b1c9958591e481a5b9a5d1a585b1a5e9959606a1b604482015260640161073b565b600280546001600160a01b038085166001600160a01b031992831617909255600380549284169290911691909117905561089d600033611ad7565b506108b660008051602061242183398151915233611ad7565b506106f87f189ab7a9244df0848122154315af71fe140f3db0fe014031783b0946b8c9d2e333611ad7565b6108e9611bd4565b6000818152600560205260409020600181015462010000900460ff166109215760405162461bcd60e51b815260040161073b9061211d565b6001810154630100000090046001600160a01b031633146109795760405162461bcd60e51b81526020600482015260126024820152712737ba103837b9b4ba34b7b71037bbb732b960711b604482015260640161073b565b3332146109b35760405162461bcd60e51b81526020600482015260086024820152674f6e6c7920454f4160c01b604482015260640161073b565b805460018201805462ff0000191690556001600160801b03166109d583611bfe565b60025460405163a9059cbb60e01b8152336004820152602481018390526001600160a01b039091169063a9059cbb906044016020604051808303816000875af1158015610a26573d6000803e3d6000fd5b505050506040513d601f19601f82011682018060405250810190610a4a919061215a565b610a665760405162461bcd60e51b815260040161073b90612175565b604051818152339084907fafe87099d21cd68765ccb431a535ca7a632ac9f66e04e99c9574fb5ddfdefca79060200160405180910390a35050610aa860018055565b50565b60066020528160005260406000208181548110610ac757600080fd5b90600052602060002001600091509150505481565b6000918252602082815260408084206001600160a01b0393909316845291905290205460ff1690565b6040805161012081018252600080825260208201819052918101829052606081018290526080810182905260a0810182905260c0810182905260e08101829052610100810191909152610b896040518060c0016040528060008152602001600081526020016000815260200160008152602001600081526020016000151581525090565b600083815260056020908152604080832081516101208101835281546001600160801b03811682526001600160401b03600160801b8204169482019490945263ffffffff600160c01b8504811682850152600160e01b9094049093166060840152600181015460ff80821660808601819052610100808404831660a0880152620100008404909216151560c08701526001600160a01b036301000000909304831660e087015260029093015490850152600354925163c022c52360e01b8152600481019290925292955091169063c022c5239060240160c060405180830381865afa158015610c7c573d6000803e3d6000fd5b505050506040513d601f19601f82011682018060405250810190610ca0919061219e565b9150600360009054906101000a90046001600160a01b03166001600160a01b0316639dc6edc76040518163ffffffff1660e01b8152600401602060405180830381865afa158015610cf5573d6000803e3d6000fd5b505050506040513d601f19601f82011682018060405250810190610d199190612223565b8361010001511090509193909250565b60035460408051639dc6edc760e01b815290516000926001600160a01b031691639dc6edc79160048083019260209291908290030181865afa158015610d73573d6000803e3d6000fd5b505050506040513d601f19601f820116820180604052508101906106299190612223565b610d9f611bd4565b6000818152600560205260409020600181015462010000900460ff16610dd75760405162461bcd60e51b815260040161073b9061211d565b6001810154630100000090046001600160a01b03163314610e2f5760405162461bcd60e51b81526020600482015260126024820152712737ba103837b9b4ba34b7b71037bbb732b960711b604482015260640161073b565b8054610e5890600160c01b810463ffffffff1690600160801b90046001600160401b0316612252565b6001600160401b0316421015610ea65760405162461bcd60e51b8152602060048201526013602482015272506f736974696f6e206e6f74206d617475726560681b604482015260640161073b565b80546001600160801b03166000610ebc846115c9565b60018401805462ff0000191690559050610ed584611bfe565b6002546001600160a01b031663a9059cbb33610ef18486612271565b6040516001600160e01b031960e085901b1681526001600160a01b03909216600483015260248201526044016020604051808303816000875af1158015610f3c573d6000803e3d6000fd5b505050506040513d601f19601f82011682018060405250810190610f60919061215a565b610f7c5760405162461bcd60e51b815260040161073b90612175565b6040805183815260208101839052339186917f3120c845c5d2c39308641201562a412527c1e7aff294f09c0c936f1c60a1b067910160405180910390a3505050610aa860018055565b600080516020612421833981519152610fdd81611acd565b6001600160a01b0382166110035760405162461bcd60e51b815260040161073b906120f7565b600880546001600160a01b0319166001600160a01b0384169081179091556040517f0b2a4659dd447011d8135e07f985a6153b6446f82b0d167e0f804c5fde175e2f90600090a25050565b611056611bd4565b600082116110945760405162461bcd60e51b815260206004820152600b60248201526a16995c9bc8185b5bdd5b9d60aa1b604482015260640161073b565b33600090815260066020526040902054600a116110e85760405162461bcd60e51b8152602060048201526012602482015271546f6f206d616e7920706f736974696f6e7360701b604482015260640161073b565b6001600160801b038211156111325760405162461bcd60e51b815260206004820152601060248201526f416d6f756e7420746f6f206c6172676560801b604482015260640161073b565b60035460405163c0055ba960e01b815260048101849052602481018390526000916001600160a01b03169063c0055ba990604401602060405180830381865afa158015611183573d6000803e3d6000fd5b505050506040513d601f19601f820116820180604052508101906111a79190612284565b90508060ff1660ff036111fc5760405162461bcd60e51b815260206004820152601f60248201527f496e76616c6964207469657220616d6f756e74206f72206475726174696f6e00604482015260640161073b565b600480546000918261120d8361229f565b9091555060035460408051639dc6edc760e01b8152905192935042926000926001600160a01b031691639dc6edc79160048083019260209291908290030181865afa158015611260573d6000803e3d6000fd5b505050506040513d601f19601f820116820180604052508101906112849190612223565b9050600062278d009050604051806101200160405280886001600160801b03168152602001846001600160401b031681526020018763ffffffff16815260200182856112d09190612271565b63ffffffff908116825260ff8089166020808501919091526000604080860182905260016060808801829052336080808a0182905260a0998a018d90528e8652600587528486208b5181548d8a01518e890151968f01518d16600160e01b026001600160e01b0397909d16600160c01b02969096166001600160c01b036001600160401b03909716600160801b026001600160c01b03199092166001600160801b0390931692909217179490941693909317989098178255968901518183018054998b015160c08c015160e08d01516001600160a01b03166301000000026301000000600160b81b031991151562010000029190911662010000600160b81b0319928b1661010090810261ffff19909e1695909b16949094179b909b17169190911798909817909755939096015160029095019490945582845260068152938320805480830182558185529484209094018890559152905461143291906122b8565b600085815260076020526040908190209190915560025490516323b872dd60e01b8152336004820152306024820152604481018990526001600160a01b03909116906323b872dd906064016020604051808303816000875af115801561149c573d6000803e3d6000fd5b505050506040513d601f19601f820116820180604052508101906114c0919061215a565b6114dc5760405162461bcd60e51b815260040161073b90612175565b604080518881526020810188905260ff8716818301529051339186917fac935f2e66d6e01ce1829c130e6f9b3ba4cf0b492eaba790477f0ed11ae0e5399181900360600190a36009546001600160a01b0316156115b75760095460405163eb8e413b60e01b81523360048201526024810186905260ff871660448201526001600160a01b039091169063eb8e413b906064016000604051808303816000875af115801561158d573d6000803e3d6000fd5b505050506040513d6000823e601f3d908101601f191682016040526115b591908101906122cb565b505b50505050506115c560018055565b5050565b6000818152600560205260408120600181015462010000900460ff166116015760405162461bcd60e51b815260040161073b9061211d565b60035460018201546040516357fd4f9760e11b815260ff90911660048201526000916001600160a01b03169063affa9f2e90602401602060405180830381865afa158015611653573d6000803e3d6000fd5b505050506040513d601f19601f820116820180604052508101906116779190612223565b8254909150600090612710906116979084906001600160801b0316612356565b6116a19190612383565b60018401549091506116bb90610100900460ff1682612356565b95945050505050565b6000828152602081905260409020600101546116df81611acd565b6106bf8383611b69565b7f189ab7a9244df0848122154315af71fe140f3db0fe014031783b0946b8c9d2e361171381611acd565b6001600160a01b0382166117395760405162461bcd60e51b815260040161073b906120f7565b600380546001600160a01b0319166001600160a01b0384169081179091556040517fa5da5fb11cf6d623063884cb7bc66e4fea856ee0ecf785f19c79d4a4a47eb50290600090a25050565b6000818152600560205260409020600181015462010000900460ff166117bc5760405162461bcd60e51b815260040161073b9061211d565b8054600160e01b900463ffffffff164210156118135760405162461bcd60e51b8152602060048201526016602482015275151bdbc819585c9b1e48199bdc881b995e1d0813919560521b604482015260640161073b565b6003546001820154604051633cb0270d60e11b815260ff90911660048201526000916001600160a01b0316906379604e1a90602401602060405180830381865afa158015611865573d6000803e3d6000fd5b505050506040513d601f19601f820116820180604052508101906118899190612223565b825490915060009082906118ae9062278d0090600160c01b900463ffffffff16612383565b6118b89190612356565b6001840154909150610100900460ff1681116119085760405162461bcd60e51b815260206004820152600f60248201526e105b1b081391951cc81b5a5b9d1959608a1b604482015260640161073b565b6008546001600160a01b031615611a4f57600854600184015484546001600160a01b039283169263f4fb81599263010000009004169087906001600160801b0381169061196590610e1090600160c01b900463ffffffff16612397565b885460018a0154600160801b82046001600160401b03169161010090910460ff16906119a29062278d0090600160e01b900463ffffffff16612271565b6040516001600160e01b031960e08a901b1681526001600160a01b03909716600488015260248701959095526001600160801b03909316604486015263ffffffff9190911660648501526001600160401b0316608484015260ff1660a483015260c482015260e4016020604051808303816000875af1158015611a29573d6000803e3d6000fd5b505050506040513d601f19601f82011682018060405250810190611a4d9190612223565b505b600183810180548290611a6b908290610100900460ff166123bf565b92506101000a81548160ff021916908360ff16021790555062278d0083600001601c8282829054906101000a900463ffffffff16611aa991906123d8565b92506101000a81548163ffffffff021916908363ffffffff16021790555050505050565b610aa88133611cf4565b6000611ae38383610adc565b611b61576000838152602081815260408083206001600160a01b03861684529091529020805460ff19166001179055611b193390565b6001600160a01b0316826001600160a01b0316847f2f8788117e7eff1d82e926ec794901d17c78024a50270940304540a733656f0d60405160405180910390a45060016105b1565b5060006105b1565b6000611b758383610adc565b15611b61576000838152602081815260408083206001600160a01b0386168085529252808320805460ff1916905551339286917ff6391f5c32d9c69d2a47ea670b442974b53935d1edc7fd64eb21e047a839171b9190a45060016105b1565b600260015403611bf757604051633ee5aeb560e01b815260040160405180910390fd5b6002600155565b6000818152600560209081526040808320600180820154630100000090046001600160a01b03168552600684528285208686526007909452919093205482549091611c48916122b8565b8114611cb15781546000908390611c61906001906122b8565b81548110611c7157611c716123f4565b9060005260206000200154905080838381548110611c9157611c916123f4565b600091825260208083209091019290925591825260079052604090208190555b81805480611cc157611cc161240a565b60019003818190600052602060002001600090559055600760008581526020019081526020016000206000905550505050565b611cfe8282610adc565b6115c55760405163e2517d3f60e01b81526001600160a01b03821660048201526024810183905260440161073b565b600060208284031215611d3f57600080fd5b81356001600160e01b031981168114611d5757600080fd5b9392505050565b602080825282518282018190526000918401906040840190835b81811015611d9957835160ff16835260209384019390920191600101611d78565b509095945050505050565b600060208284031215611db657600080fd5b5035919050565b80356001600160a01b0381168114611dd457600080fd5b919050565b600060208284031215611deb57600080fd5b611d5782611dbd565b602080825282518282018190526000918401906040840190835b81811015611d99578351835260209384019390920191600101611e0e565b60008060408385031215611e3f57600080fd5b82359150611e4f60208401611dbd565b90509250929050565b60008060408385031215611e6b57600080fd5b611e7483611dbd565b9150611e4f60208401611dbd565b60008060408385031215611e9557600080fd5b611e9e83611dbd565b946020939093013593505050565b6000610200820190506001600160801b0385511682526001600160401b0360208601511660208301526040850151611eec604084018263ffffffff169052565b506060850151611f04606084018263ffffffff169052565b506080850151611f19608084018260ff169052565b5060a0850151611f2e60a084018260ff169052565b5060c0850151611f4260c084018215159052565b5060e0850151611f5d60e08401826001600160a01b03169052565b506101009485015194820194909452825161012082015260208301516101408201526040830151610160820152606083015161018082015260808301516101a082015260a09092015115156101c083015215156101e09091015290565b60008060408385031215611fcd57600080fd5b50508035926020909101359150565b634e487b7160e01b600052604160045260246000fd5b604051601f8201601f191681016001600160401b038111828210171561201a5761201a611fdc565b604052919050565b60006001600160401b0382111561203b5761203b611fdc565b5060051b60200190565b805160ff81168114611dd457600080fd5b60006020828403121561206857600080fd5b81516001600160401b0381111561207e57600080fd5b8201601f8101841361208f57600080fd5b80516120a261209d82612022565b611ff2565b8082825260208201915060208360051b8501019250868311156120c457600080fd5b6020840193505b828410156120ed576120dc84612045565b8252602093840193909101906120cb565b9695505050505050565b6020808252600c908201526b5a65726f206164647265737360a01b604082015260600190565b602080825260139082015272506f736974696f6e206e6f742061637469766560681b604082015260600190565b80518015158114611dd457600080fd5b60006020828403121561216c57600080fd5b611d578261214a565b6020808252600f908201526e151c985b9cd9995c8819985a5b1959608a1b604082015260600190565b600060c08284031280156121b157600080fd5b5060405160009060c081016001600160401b03811182821017156121d7576121d7611fdc565b60409081528451825260208086015190830152848101519082015260608085015190820152608080850151908201819052915061221660a0850161214a565b60a0820152949350505050565b60006020828403121561223557600080fd5b5051919050565b634e487b7160e01b600052601160045260246000fd5b6001600160401b0381811683821601908111156105b1576105b161223c565b808201808211156105b1576105b161223c565b60006020828403121561229657600080fd5b611d5782612045565b6000600182016122b1576122b161223c565b5060010190565b818103818111156105b1576105b161223c565b6000602082840312156122dd57600080fd5b81516001600160401b038111156122f357600080fd5b8201601f8101841361230457600080fd5b805161231261209d82612022565b8082825260208201915060208360051b85010192508683111561233457600080fd5b6020840193505b828410156120ed57835182526020938401939091019061233b565b80820281158282048414176105b1576105b161223c565b634e487b7160e01b600052601260045260246000fd5b6000826123925761239261236d565b500490565b600063ffffffff8316806123ad576123ad61236d565b8063ffffffff84160491505092915050565b60ff81811683821601908111156105b1576105b161223c565b63ffffffff81811683821601908111156105b1576105b161223c565b634e487b7160e01b600052603260045260246000fd5b634e487b7160e01b600052603160045260246000fdfea49807205ce4d355092ef5a8a18f56e8913cf4a201fbe287825b095693c21775a26469706673582212205ac01fed17febcea8242cce266bdd0aaba8599773108f8b643037d1fa706c06264736f6c634300081c003360a0604052604051610e84380380610e848339810160408190526100229161039d565b828161002e828261008f565b50508160405161003d9061033a565b6001600160a01b039091168152602001604051809103906000f080158015610069573d6000803e3d6000fd5b506001600160a01b031660805261008761008260805190565b6100ee565b50505061048f565b6100988261015c565b6040516001600160a01b038316907fbc7cd75a20ee27fd9adebab32041f755214dbc6bffa90cc0225b39da2e5c2d3b90600090a28051156100e2576100dd82826101db565b505050565b6100ea610252565b5050565b7f7e644d79422f17c01e4894b5f4f588d331ebfa28653d42ae832dc59e38c9798f61012e600080516020610e64833981519152546001600160a01b031690565b604080516001600160a01b03928316815291841660208301520160405180910390a161015981610273565b50565b806001600160a01b03163b60000361019757604051634c9c8ce360e01b81526001600160a01b03821660048201526024015b60405180910390fd5b807f360894a13ba1a3210667c828492db98dca3e2076cc3735a920a3ca505d382bbc5b80546001600160a01b0319166001600160a01b039290921691909117905550565b6060600080846001600160a01b0316846040516101f89190610473565b600060405180830381855af49150503d8060008114610233576040519150601f19603f3d011682016040523d82523d6000602084013e610238565b606091505b5090925090506102498583836102b2565b95945050505050565b34156102715760405163b398979f60e01b815260040160405180910390fd5b565b6001600160a01b03811661029d57604051633173bdd160e11b81526000600482015260240161018e565b80600080516020610e648339815191526101ba565b6060826102c7576102c282610311565b61030a565b81511580156102de57506001600160a01b0384163b155b1561030757604051639996b31560e01b81526001600160a01b038516600482015260240161018e565b50805b9392505050565b8051156103215780518082602001fd5b60405163d6bda27560e01b815260040160405180910390fd5b61052c8061093883390190565b80516001600160a01b038116811461035e57600080fd5b919050565b634e487b7160e01b600052604160045260246000fd5b60005b8381101561039457818101518382015260200161037c565b50506000910152565b6000806000606084860312156103b257600080fd5b6103bb84610347565b92506103c960208501610347565b60408501519092506001600160401b038111156103e557600080fd5b8401601f810186136103f657600080fd5b80516001600160401b0381111561040f5761040f610363565b604051601f8201601f19908116603f011681016001600160401b038111828210171561043d5761043d610363565b60405281815282820160200188101561045557600080fd5b610466826020830160208601610379565b8093505050509250925092565b60008251610485818460208701610379565b9190910192915050565b60805161048f6104a960003960006010015261048f6000f3fe608060405261000c61000e565b005b7f00000000000000000000000000000000000000000000000000000000000000006001600160a01b0316330361007b576000356001600160e01b03191663278f794360e11b14610071576040516334ad5dbb60e21b815260040160405180910390fd5b610079610083565b565b6100796100b2565b6000806100933660048184610312565b8101906100a09190610352565b915091506100ae82826100c2565b5050565b6100796100bd61011d565b610155565b6100cb82610179565b6040516001600160a01b038316907fbc7cd75a20ee27fd9adebab32041f755214dbc6bffa90cc0225b39da2e5c2d3b90600090a28051156101155761011082826101f5565b505050565b6100ae61026b565b60006101507f360894a13ba1a3210667c828492db98dca3e2076cc3735a920a3ca505d382bbc546001600160a01b031690565b905090565b3660008037600080366000845af43d6000803e808015610174573d6000f35b3d6000fd5b806001600160a01b03163b6000036101b457604051634c9c8ce360e01b81526001600160a01b03821660048201526024015b60405180910390fd5b7f360894a13ba1a3210667c828492db98dca3e2076cc3735a920a3ca505d382bbc80546001600160a01b0319166001600160a01b0392909216919091179055565b6060600080846001600160a01b031684604051610212919061042a565b600060405180830381855af49150503d806000811461024d576040519150601f19603f3d011682016040523d82523d6000602084013e610252565b606091505b509150915061026285838361028a565b95945050505050565b34156100795760405163b398979f60e01b815260040160405180910390fd5b60608261029f5761029a826102e9565b6102e2565b81511580156102b657506001600160a01b0384163b155b156102df57604051639996b31560e01b81526001600160a01b03851660048201526024016101ab565b50805b9392505050565b8051156102f95780518082602001fd5b60405163d6bda27560e01b815260040160405180910390fd5b6000808585111561032257600080fd5b8386111561032f57600080fd5b5050820193919092039150565b634e487b7160e01b600052604160045260246000fd5b6000806040838503121561036557600080fd5b82356001600160a01b038116811461037c57600080fd5b9150602083013567ffffffffffffffff81111561039857600080fd5b8301601f810185136103a957600080fd5b803567ffffffffffffffff8111156103c3576103c361033c565b604051601f8201601f19908116603f0116810167ffffffffffffffff811182821017156103f2576103f261033c565b60405281815282820160200187101561040a57600080fd5b816020840160208301376000602083830101528093505050509250929050565b6000825160005b8181101561044b5760208186018101518583015201610431565b50600092019182525091905056fea26469706673582212202641a07c0f9a93a20e8c4294c21e97708075d8d67294ebd2a0387a717345cc4564736f6c634300081c0033608060405234801561001057600080fd5b5060405161052c38038061052c83398101604081905261002f916100be565b806001600160a01b03811661005e57604051631e4fbdf760e01b81526000600482015260240160405180910390fd5b6100678161006e565b50506100ee565b600080546001600160a01b038381166001600160a01b0319831681178455604051919092169283917f8be0079c531659141344cd1fd0a4f28419497f9722a3daafe3b4186f6b6457e09190a35050565b6000602082840312156100d057600080fd5b81516001600160a01b03811681146100e757600080fd5b9392505050565b61042f806100fd6000396000f3fe60806040526004361061004a5760003560e01c8063715018a61461004f5780638da5cb5b146100665780639623609d14610093578063ad3cb1cc146100a6578063f2fde38b146100e4575b600080fd5b34801561005b57600080fd5b50610064610104565b005b34801561007257600080fd5b506000546040516001600160a01b0390911681526020015b60405180910390f35b6100646100a1366004610272565b610118565b3480156100b257600080fd5b506100d7604051806040016040528060058152602001640352e302e360dc1b81525081565b60405161008a9190610396565b3480156100f057600080fd5b506100646100ff3660046103b0565b610187565b61010c6101ca565b61011660006101f7565b565b6101206101ca565b60405163278f794360e11b81526001600160a01b03841690634f1ef28690349061015090869086906004016103cd565b6000604051808303818588803b15801561016957600080fd5b505af115801561017d573d6000803e3d6000fd5b5050505050505050565b61018f6101ca565b6001600160a01b0381166101be57604051631e4fbdf760e01b8152600060048201526024015b60405180910390fd5b6101c7816101f7565b50565b6000546001600160a01b031633146101165760405163118cdaa760e01b81523360048201526024016101b5565b600080546001600160a01b038381166001600160a01b0319831681178455604051919092169283917f8be0079c531659141344cd1fd0a4f28419497f9722a3daafe3b4186f6b6457e09190a35050565b6001600160a01b03811681146101c757600080fd5b634e487b7160e01b600052604160045260246000fd5b60008060006060848603121561028757600080fd5b833561029281610247565b925060208401356102a281610247565b9150604084013567ffffffffffffffff8111156102be57600080fd5b8401601f810186136102cf57600080fd5b803567ffffffffffffffff8111156102e9576102e961025c565b604051601f8201601f19908116603f0116810167ffffffffffffffff811182821017156103185761031861025c565b60405281815282820160200188101561033057600080fd5b816020840160208301376000602083830101528093505050509250925092565b6000815180845260005b818110156103765760208185018101518683018201520161035a565b506000602082860101526020601f19601f83011685010191505092915050565b6020815260006103a96020830184610350565b9392505050565b6000602082840312156103c257600080fd5b81356103a981610247565b6001600160a01b03831681526040602082018190526000906103f190830184610350565b94935050505056fea2646970667358221220b9bb4f14aaeea685610ded00340e3b9236364f7fa4f5c0630bf6c32033d5a4e564736f6c634300081c0033b53127684a568b3173ae13b9f8a6016e243e63b6e8ee1178d6a717850b5d6103a26469706673582212206d368e79c460eaa03643c29daaecca2ee0607aefc5e42b59f2dfd17db78c8e5564736f6c634300081c0033",
  "linkReferences": {},
  "deployedLinkReferences": {}
}