{
  "_format": "hh-sol-artifact-1",
  "contractName": "PADNFTFactory",
  "sourceName": "contracts/PADNFTFactory.sol",
  "abi": [
    {
      "inputs": [
        {
          "internalType": "address",
          "name": "_stakeManager",
          "type": "address"
        },
        {
          "internalType": "address",
          "name": "_tierCalculator",
          "type": "address"
        }
      ],
      "stateMutability": "nonpayable",
      "type": "constructor"
    },
    {
      "inputs": [],
      "name": "AccessControlBadConfirmation",
      "type": "error"
    },
    {
      "inputs": [
        {
          "internalType": "address",
          "name": "account",
          "type": "address"
        },
        {
          "internalType": "bytes32",
          "name": "neededRole",
          "type": "bytes32"
        }
      ],
      "name": "AccessControlUnauthorizedAccount",
      "type": "error"
    },
    {
      "inputs": [],
      "name": "ApprovalCallerNotOwnerNorApproved",
      "type": "error"
    },
    {
      "inputs": [],
      "name": "ApprovalQueryForNonexistentToken",
      "type": "error"
    },
    {
      "inputs": [],
      "name": "BalanceQueryForZeroAddress",
      "type": "error"
    },
    {
      "inputs": [],
      "name": "MintERC2309QuantityExceedsLimit",
      "type": "error"
    },
    {
      "inputs": [],
      "name": "MintToZeroAddress",
      "type": "error"
    },
    {
      "inputs": [],
      "name": "MintZeroQuantity",
      "type": "error"
    },
    {
      "inputs": [],
      "name": "NotCompatibleWithSpotMints",
      "type": "error"
    },
    {
      "inputs": [],
      "name": "OwnerQueryForNonexistentToken",
      "type": "error"
    },
    {
      "inputs": [],
      "name": "OwnershipNotInitializedForExtraData",
      "type": "error"
    },
    {
      "inputs": [],
      "name": "SequentialMintExceedsLimit",
      "type": "error"
    },
    {
      "inputs": [],
      "name": "SequentialUpToTooSmall",
      "type": "error"
    },
    {
      "inputs": [],
      "name": "SpotMintTokenIdTooSmall",
      "type": "error"
    },
    {
      "inputs": [],
      "name": "TokenAlreadyExists",
      "type": "error"
    },
    {
      "inputs": [],
      "name": "TransferCallerNotOwnerNorApproved",
      "type": "error"
    },
    {
      "inputs": [],
      "name": "TransferFromIncorrectOwner",
      "type": "error"
    },
    {
      "inputs": [],
      "name": "TransferToNonERC721ReceiverImplementer",
      "type": "error"
    },
    {
      "inputs": [],
      "name": "TransferToZeroAddress",
      "type": "error"
    },
    {
      "inputs": [],
      "name": "URIQueryForNonexistentToken",
      "type": "error"
    },
    {
      "anonymous": false,
      "inputs": [
        {
          "indexed": true,
          "internalType": "address",
          "name": "owner",
          "type": "address"
        },
        {
          "indexed": true,
          "internalType": "address",
          "name": "approved",
          "type": "address"
        },
        {
          "indexed": true,
          "internalType": "uint256",
          "name": "tokenId",
          "type": "uint256"
        }
      ],
      "name": "Approval",
      "type": "event"
    },
    {
      "anonymous": false,
      "inputs": [
        {
          "indexed": true,
          "internalType": "address",
          "name": "owner",
          "type": "address"
        },
        {
          "indexed": true,
          "internalType": "address",
          "name": "operator",
          "type": "address"
        },
        {
          "indexed": false,
          "internalType": "bool",
          "name": "approved",
          "type": "bool"
        }
      ],
      "name": "ApprovalForAll",
      "type": "event"
    },
    {
      "anonymous": false,
      "inputs": [
        {
          "indexed": false,
          "internalType": "string",
          "name": "newBaseURI",
          "type": "string"
        }
      ],
      "name": "BaseURISet",
      "type": "event"
    },
    {
      "anonymous": false,
      "inputs": [
        {
          "indexed": true,
          "internalType": "uint256",
          "name": "fromTokenId",
          "type": "uint256"
        },
        {
          "indexed": false,
          "internalType": "uint256",
          "name": "toTokenId",
          "type": "uint256"
        },
        {
          "indexed": true,
          "internalType": "address",
          "name": "from",
          "type": "address"
        },
        {
          "indexed": true,
          "internalType": "address",
          "name": "to",
          "type": "address"
        }
      ],
      "name": "ConsecutiveTransfer",
      "type": "event"
    },
    {
      "anonymous": false,
      "inputs": [
        {
          "indexed": true,
          "internalType": "address",
          "name": "to",
          "type": "address"
        },
        {
          "indexed": true,
          "internalType": "uint256",
          "name": "tokenId",
          "type": "uint256"
        },
        {
          "components": [
            {
              "internalType": "uint256",
              "name": "positionId",
              "type": "uint256"
            },
            {
              "internalType": "uint256",
              "name": "amountStaked",
              "type": "uint256"
            },
            {
              "internalType": "uint256",
              "name": "lockDurationHours",
              "type": "uint256"
            },
            {
              "internalType": "uint256",
              "name": "startTimestamp",
              "type": "uint256"
            },
            {
              "internalType": "uint8",
              "name": "tierLevel",
              "type": "uint8"
            },
            {
              "internalType": "uint256",
              "name": "hourIndex",
              "type": "uint256"
            },
            {
              "internalType": "uint256",
              "name": "nextMintOn",
              "type": "uint256"
            }
          ],
          "indexed": false,
          "internalType": "struct PADNFTFactory.NFTMetadata",
          "name": "meta",
          "type": "tuple"
        }
      ],
      "name": "NFTMinted",
      "type": "event"
    },
    {
      "anonymous": false,
      "inputs": [
        {
          "indexed": true,
          "internalType": "bytes32",
          "name": "role",
          "type": "bytes32"
        },
        {
          "indexed": true,
          "internalType": "bytes32",
          "name": "previousAdminRole",
          "type": "bytes32"
        },
        {
          "indexed": true,
          "internalType": "bytes32",
          "name": "newAdminRole",
          "type": "bytes32"
        }
      ],
      "name": "RoleAdminChanged",
      "type": "event"
    },
    {
      "anonymous": false,
      "inputs": [
        {
          "indexed": true,
          "internalType": "bytes32",
          "name": "role",
          "type": "bytes32"
        },
        {
          "indexed": true,
          "internalType": "address",
          "name": "account",
          "type": "address"
        },
        {
          "indexed": true,
          "internalType": "address",
          "name": "sender",
          "type": "address"
        }
      ],
      "name": "RoleGranted",
      "type": "event"
    },
    {
      "anonymous": false,
      "inputs": [
        {
          "indexed": true,
          "internalType": "bytes32",
          "name": "role",
          "type": "bytes32"
        },
        {
          "indexed": true,
          "internalType": "address",
          "name": "account",
          "type": "address"
        },
        {
          "indexed": true,
          "internalType": "address",
          "name": "sender",
          "type": "address"
        }
      ],
      "name": "RoleRevoked",
      "type": "event"
    },
    {
      "anonymous": false,
      "inputs": [
        {
          "indexed": true,
          "internalType": "address",
          "name": "from",
          "type": "address"
        },
        {
          "indexed": true,
          "internalType": "address",
          "name": "to",
          "type": "address"
        },
        {
          "indexed": true,
          "internalType": "uint256",
          "name": "tokenId",
          "type": "uint256"
        }
      ],
      "name": "Transfer",
      "type": "event"
    },
    {
      "inputs": [],
      "name": "DEFAULT_ADMIN_ROLE",
      "outputs": [
        {
          "internalType": "bytes32",
          "name": "",
          "type": "bytes32"
        }
      ],
      "stateMutability": "view",
      "type": "function"
    },
    {
      "inputs": [],
      "name": "MINTER_ROLE",
      "outputs": [
        {
          "internalType": "bytes32",
          "name": "",
          "type": "bytes32"
        }
      ],
      "stateMutability": "view",
      "type": "function"
    },
    {
      "inputs": [],
      "name": "URI_SETTER_ROLE",
      "outputs": [
        {
          "internalType": "bytes32",
          "name": "",
          "type": "bytes32"
        }
      ],
      "stateMutability": "view",
      "type": "function"
    },
    {
      "inputs": [
        {
          "internalType": "address",
          "name": "to",
          "type": "address"
        },
        {
          "internalType": "uint256",
          "name": "tokenId",
          "type": "uint256"
        }
      ],
      "name": "approve",
      "outputs": [],
      "stateMutability": "payable",
      "type": "function"
    },
    {
      "inputs": [
        {
          "internalType": "address",
          "name": "owner",
          "type": "address"
        }
      ],
      "name": "balanceOf",
      "outputs": [
        {
          "internalType": "uint256",
          "name": "",
          "type": "uint256"
        }
      ],
      "stateMutability": "view",
      "type": "function"
    },
    {
      "inputs": [
        {
          "internalType": "uint256",
          "name": "tokenId",
          "type": "uint256"
        }
      ],
      "name": "getApproved",
      "outputs": [
        {
          "internalType": "address",
          "name": "",
          "type": "address"
        }
      ],
      "stateMutability": "view",
      "type": "function"
    },
    {
      "inputs": [
        {
          "internalType": "bytes32",
          "name": "role",
          "type": "bytes32"
        }
      ],
      "name": "getRoleAdmin",
      "outputs": [
        {
          "internalType": "bytes32",
          "name": "",
          "type": "bytes32"
        }
      ],
      "stateMutability": "view",
      "type": "function"
    },
    {
      "inputs": [
        {
          "internalType": "bytes32",
          "name": "role",
          "type": "bytes32"
        },
        {
          "internalType": "address",
          "name": "account",
          "type": "address"
        }
      ],
      "name": "grantRole",
      "outputs": [],
      "stateMutability": "nonpayable",
      "type": "function"
    },
    {
      "inputs": [
        {
          "internalType": "bytes32",
          "name": "role",
          "type": "bytes32"
        },
        {
          "internalType": "address",
          "name": "account",
          "type": "address"
        }
      ],
      "name": "hasRole",
      "outputs": [
        {
          "internalType": "bool",
          "name": "",
          "type": "bool"
        }
      ],
      "stateMutability": "view",
      "type": "function"
    },
    {
      "inputs": [
        {
          "internalType": "address",
          "name": "owner",
          "type": "address"
        },
        {
          "internalType": "address",
          "name": "operator",
          "type": "address"
        }
      ],
      "name": "isApprovedForAll",
      "outputs": [
        {
          "internalType": "bool",
          "name": "",
          "type": "bool"
        }
      ],
      "stateMutability": "view",
      "type": "function"
    },
    {
      "inputs": [
        {
          "internalType": "address",
          "name": "to",
          "type": "address"
        },
        {
          "internalType": "uint256",
          "name": "positionId",
          "type": "uint256"
        },
        {
          "internalType": "uint256",
          "name": "amountStaked",
          "type": "uint256"
        },
        {
          "internalType": "uint256",
          "name": "lockDurationHours",
          "type": "uint256"
        },
        {
          "internalType": "uint256",
          "name": "startTimestamp",
          "type": "uint256"
        },
        {
          "internalType": "uint256",
          "name": "hourIndex",
          "type": "uint256"
        },
        {
          "internalType": "uint256",
          "name": "nextMintOn",
          "type": "uint256"
        }
      ],
      "name": "mintNFT",
      "outputs": [
        {
          "internalType": "uint256",
          "name": "",
          "type": "uint256"
        }
      ],
      "stateMutability": "nonpayable",
      "type": "function"
    },
    {
      "inputs": [],
      "name": "name",
      "outputs": [
        {
          "internalType": "string",
          "name": "",
          "type": "string"
        }
      ],
      "stateMutability": "view",
      "type": "function"
    },
    {
      "inputs": [
        {
          "internalType": "uint256",
          "name": "",
          "type": "uint256"
        }
      ],
      "name": "nftMetadata",
      "outputs": [
        {
          "internalType": "uint256",
          "name": "positionId",
          "type": "uint256"
        },
        {
          "internalType": "uint256",
          "name": "amountStaked",
          "type": "uint256"
        },
        {
          "internalType": "uint256",
          "name": "lockDurationHours",
          "type": "uint256"
        },
        {
          "internalType": "uint256",
          "name": "startTimestamp",
          "type": "uint256"
        },
        {
          "internalType": "uint8",
          "name": "tierLevel",
          "type": "uint8"
        },
        {
          "internalType": "uint256",
          "name": "hourIndex",
          "type": "uint256"
        },
        {
          "internalType": "uint256",
          "name": "nextMintOn",
          "type": "uint256"
        }
      ],
      "stateMutability": "view",
      "type": "function"
    },
    {
      "inputs": [
        {
          "internalType": "uint256",
          "name": "tokenId",
          "type": "uint256"
        }
      ],
      "name": "ownerOf",
      "outputs": [
        {
          "internalType": "address",
          "name": "",
          "type": "address"
        }
      ],
      "stateMutability": "view",
      "type": "function"
    },
    {
      "inputs": [
        {
          "internalType": "bytes32",
          "name": "role",
          "type": "bytes32"
        },
        {
          "internalType": "address",
          "name": "callerConfirmation",
          "type": "address"
        }
      ],
      "name": "renounceRole",
      "outputs": [],
      "stateMutability": "nonpayable",
      "type": "function"
    },
    {
      "inputs": [
        {
          "internalType": "bytes32",
          "name": "role",
          "type": "bytes32"
        },
        {
          "internalType": "address",
          "name": "account",
          "type": "address"
        }
      ],
      "name": "revokeRole",
      "outputs": [],
      "stateMutability": "nonpayable",
      "type": "function"
    },
    {
      "inputs": [
        {
          "internalType": "address",
          "name": "from",
          "type": "address"
        },
        {
          "internalType": "address",
          "name": "to",
          "type": "address"
        },
        {
          "internalType": "uint256",
          "name": "tokenId",
          "type": "uint256"
        }
      ],
      "name": "safeTransferFrom",
      "outputs": [],
      "stateMutability": "payable",
      "type": "function"
    },
    {
      "inputs": [
        {
          "internalType": "address",
          "name": "from",
          "type": "address"
        },
        {
          "internalType": "address",
          "name": "to",
          "type": "address"
        },
        {
          "internalType": "uint256",
          "name": "tokenId",
          "type": "uint256"
        },
        {
          "internalType": "bytes",
          "name": "_data",
          "type": "bytes"
        }
      ],
      "name": "safeTransferFrom",
      "outputs": [],
      "stateMutability": "payable",
      "type": "function"
    },
    {
      "inputs": [
        {
          "internalType": "address",
          "name": "operator",
          "type": "address"
        },
        {
          "internalType": "bool",
          "name": "approved",
          "type": "bool"
        }
      ],
      "name": "setApprovalForAll",
      "outputs": [],
      "stateMutability": "nonpayable",
      "type": "function"
    },
    {
      "inputs": [
        {
          "internalType": "string",
          "name": "newBaseURI",
          "type": "string"
        }
      ],
      "name": "setBaseURI",
      "outputs": [],
      "stateMutability": "nonpayable",
      "type": "function"
    },
    {
      "inputs": [],
      "name": "stakeManager",
      "outputs": [
        {
          "internalType": "address",
          "name": "",
          "type": "address"
        }
      ],
      "stateMutability": "view",
      "type": "function"
    },
    {
      "inputs": [
        {
          "internalType": "bytes4",
          "name": "interfaceId",
          "type": "bytes4"
        }
      ],
      "name": "supportsInterface",
      "outputs": [
        {
          "internalType": "bool",
          "name": "",
          "type": "bool"
        }
      ],
      "stateMutability": "view",
      "type": "function"
    },
    {
      "inputs": [],
      "name": "symbol",
      "outputs": [
        {
          "internalType": "string",
          "name": "",
          "type": "string"
        }
      ],
      "stateMutability": "view",
      "type": "function"
    },
    {
      "inputs": [],
      "name": "tierCalculator",
      "outputs": [
        {
          "internalType": "address",
          "name": "",
          "type": "address"
        }
      ],
      "stateMutability": "view",
      "type": "function"
    },
    {
      "inputs": [
        {
          "internalType": "uint256",
          "name": "tokenId",
          "type": "uint256"
        }
      ],
      "name": "tokenURI",
      "outputs": [
        {
          "internalType": "string",
          "name": "",
          "type": "string"
        }
      ],
      "stateMutability": "view",
      "type": "function"
    },
    {
      "inputs": [],
      "name": "totalSupply",
      "outputs": [
        {
          "internalType": "uint256",
          "name": "result",
          "type": "uint256"
        }
      ],
      "stateMutability": "view",
      "type": "function"
    },
    {
      "inputs": [
        {
          "internalType": "address",
          "name": "from",
          "type": "address"
        },
        {
          "internalType": "address",
          "name": "to",
          "type": "address"
        },
        {
          "internalType": "uint256",
          "name": "tokenId",
          "type": "uint256"
        }
      ],
      "name": "transferFrom",
      "outputs": [],
      "stateMutability": "payable",
      "type": "function"
    }
  ],
  "bytecode": "0x608060405234801561001057600080fd5b50604051611e2e380380611e2e83398101604081905261002f916101f7565b6040518060400160405280600c81526020016b504144204e4654202876322960a01b815250604051806040016040528060088152602001672820a227232a3b1960c11b815250816002908161008491906102c9565b50600361009182826102c9565b505060008080556100a391503361012b565b506100ce7f7804d923f43a17d325d77e781528e0793b2edd9890ab45fc64efd7b4b427744c3361012b565b506100f97f9f2df0fed2c77648de5860a4cc508cd0818c85b8b8a1ab4ceeef8d981c8956a63361012b565b50600b80546001600160a01b039384166001600160a01b031991821617909155600c8054929093169116179055610387565b60008281526009602090815260408083206001600160a01b038516845290915281205460ff166101d15760008381526009602090815260408083206001600160a01b03861684529091529020805460ff191660011790556101893390565b6001600160a01b0316826001600160a01b0316847f2f8788117e7eff1d82e926ec794901d17c78024a50270940304540a733656f0d60405160405180910390a45060016101d5565b5060005b92915050565b80516001600160a01b03811681146101f257600080fd5b919050565b6000806040838503121561020a57600080fd5b610213836101db565b9150610221602084016101db565b90509250929050565b634e487b7160e01b600052604160045260246000fd5b600181811c9082168061025457607f821691505b60208210810361027457634e487b7160e01b600052602260045260246000fd5b50919050565b601f8211156102c457806000526020600020601f840160051c810160208510156102a15750805b601f840160051c820191505b818110156102c157600081556001016102ad565b50505b505050565b81516001600160401b038111156102e2576102e261022a565b6102f6816102f08454610240565b8461027a565b6020601f82116001811461032a57600083156103125750848201515b600019600385901b1c1916600184901b1784556102c1565b600084815260208120601f198516915b8281101561035a578785015182556020948501946001909201910161033a565b50848210156103785786840151600019600387901b60f8161c191681555b50505050600190811b01905550565b611a98806103966000396000f3fe60806040526004361061019c5760003560e01c806370a08231116100ec578063b88d4fde1161008a578063d539139311610064578063d539139314610503578063d547741f14610537578063e985e9c514610557578063f4fb8159146105a057600080fd5b8063b88d4fde146104b0578063be0f2b88146104c3578063c87b56dd146104e357600080fd5b806391d14854116100c657806391d148541461044657806395d89b4114610466578063a217fddf1461047b578063a22cb4651461049057600080fd5b806370a08231146103d25780637542ff95146103f25780637f3457101461041257600080fd5b8063248a9ca31161015957806342842e0e1161013357806342842e0e146102eb57806349541015146102fe57806355f804b3146103925780636352211e146103b257600080fd5b8063248a9ca31461027b5780632f2ff15d146102ab57806336568abe146102cb57600080fd5b806301ffc9a7146101a157806306fdde03146101d6578063081812fc146101f8578063095ea7b31461023057806318160ddd1461024557806323b872dd14610268575b600080fd5b3480156101ad57600080fd5b506101c16101bc3660046114a3565b6105c0565b60405190151581526020015b60405180910390f35b3480156101e257600080fd5b506101eb6105d1565b6040516101cd9190611510565b34801561020457600080fd5b50610218610213366004611523565b610663565b6040516001600160a01b0390911681526020016101cd565b61024361023e366004611553565b61069e565b005b34801561025157600080fd5b50600154600054035b6040519081526020016101cd565b61024361027636600461157d565b6106ae565b34801561028757600080fd5b5061025a610296366004611523565b60009081526009602052604090206001015490565b3480156102b757600080fd5b506102436102c63660046115ba565b610820565b3480156102d757600080fd5b506102436102e63660046115ba565b61084b565b6102436102f936600461157d565b610883565b34801561030a57600080fd5b5061035a610319366004611523565b600d602052600090815260409020805460018201546002830154600384015460048501546005860154600690960154949593949293919260ff909116919087565b60408051978852602088019690965294860193909352606085019190915260ff16608084015260a083015260c082015260e0016101cd565b34801561039e57600080fd5b506102436103ad366004611676565b61089e565b3480156103be57600080fd5b506102186103cd366004611523565b610910565b3480156103de57600080fd5b5061025a6103ed3660046116bf565b61091b565b3480156103fe57600080fd5b50600b54610218906001600160a01b031681565b34801561041e57600080fd5b5061025a7f7804d923f43a17d325d77e781528e0793b2edd9890ab45fc64efd7b4b427744c81565b34801561045257600080fd5b506101c16104613660046115ba565b610961565b34801561047257600080fd5b506101eb61098c565b34801561048757600080fd5b5061025a600081565b34801561049c57600080fd5b506102436104ab3660046116da565b61099b565b6102436104be366004611716565b610a07565b3480156104cf57600080fd5b50600c54610218906001600160a01b031681565b3480156104ef57600080fd5b506101eb6104fe366004611523565b610a42565b34801561050f57600080fd5b5061025a7f9f2df0fed2c77648de5860a4cc508cd0818c85b8b8a1ab4ceeef8d981c8956a681565b34801561054357600080fd5b506102436105523660046115ba565b610b12565b34801561056357600080fd5b506101c1610572366004611792565b6001600160a01b03918216600090815260076020908152604080832093909416825291909152205460ff1690565b3480156105ac57600080fd5b5061025a6105bb3660046117bc565b610b37565b60006105cb82610d15565b92915050565b6060600280546105e09061180f565b80601f016020809104026020016040519081016040528092919081815260200182805461060c9061180f565b80156106595780601f1061062e57610100808354040283529160200191610659565b820191906000526020600020905b81548152906001019060200180831161063c57829003601f168201915b5050505050905090565b600061066e82610d4a565b610682576106826333d1c03960e21b610d8f565b506000908152600660205260409020546001600160a01b031690565b6106aa82826001610d99565b5050565b60006106b982610e3c565b6001600160a01b0394851694909150811684146106df576106df62a1148160e81b610d8f565b60008281526006602052604090208054338082146001600160a01b038816909114176107235761070f8633610572565b61072357610723632ce44b5f60e11b610d8f565b6107308686866001610ed2565b801561073b57600082555b6001600160a01b038681166000908152600560205260408082208054600019019055918716808252919020805460010190554260a01b17600160e11b17600085815260046020526040812091909155600160e11b841690036107cd576001840160008181526004602052604081205490036107cb5760005481146107cb5760008181526004602052604090208490555b505b6001600160a01b0385168481887fddf252ad1be2c89b69c2b068fc378daa952ba7f163c4a11628f55a4df523b3ef600080a48060000361081757610817633a954ecd60e21b610d8f565b50505050505050565b60008281526009602052604090206001015461083b81610f9f565b6108458383610fac565b50505050565b6001600160a01b03811633146108745760405163334bd91960e11b815260040160405180910390fd5b61087e8282611040565b505050565b61087e83838360405180602001604052806000815250610a07565b7f7804d923f43a17d325d77e781528e0793b2edd9890ab45fc64efd7b4b427744c6108c881610f9f565b600a6108d48382611890565b507ff9c7803e94e0d3c02900d8a90893a6d5e90dd04d32a4cfe825520f82bf9f32f6826040516109049190611510565b60405180910390a15050565b60006105cb82610e3c565b60006001600160a01b03821661093b5761093b6323d3ad8160e21b610d8f565b506001600160a01b031660009081526005602052604090205467ffffffffffffffff1690565b60009182526009602090815260408084206001600160a01b0393909316845291905290205460ff1690565b6060600380546105e09061180f565b3360008181526007602090815260408083206001600160a01b03871680855290835292819020805460ff191686151590811790915590519081529192917f17307eab39ab6107e8899845ad3d59bd9653f200f220920489ca2b5937696c31910160405180910390a35050565b610a128484846106ae565b6001600160a01b0383163b1561084557610a2e848484846110ad565b610845576108456368d2bf6b60e11b610d8f565b6060610a4d82610d4a565b610ab65760405162461bcd60e51b815260206004820152602f60248201527f4552433732314d657461646174613a2055524920717565727920666f72206e6f60448201526e3732bc34b9ba32b73a103a37b5b2b760891b60648201526084015b60405180910390fd5b6000610ac0611190565b90506000815111610ae05760405180602001604052806000815250610b0b565b80610aea8461119f565b604051602001610afb92919061194f565b6040516020818303038152906040525b9392505050565b600082815260096020526040902060010154610b2d81610f9f565b6108458383611040565b60007f9f2df0fed2c77648de5860a4cc508cd0818c85b8b8a1ab4ceeef8d981c8956a6610b6381610f9f565b600c546000906001600160a01b0316634f062c5a610b8389610e106119a4565b6040518263ffffffff1660e01b8152600401610ba191815260200190565b602060405180830381865afa158015610bbe573d6000803e3d6000fd5b505050506040513d601f19601f82011682018060405250810190610be291906119bb565b90506000610bef60005490565b9050610bfc8b6001611232565b6040805160e0810182528b815260208082018c81528284018c8152606084018c815260ff8089166080870190815260a087018e815260c088018e815260008b8152600d909852968990209751885594516001880155925160028701559051600386015590516004850180549190921660ff19909116179055516005830155516006820155905182916001600160a01b038e16917fe7d68240bedb6ce33d1206b929279de9c2153e8fbfb2936aa32034b60c45ca7391610cff9181548152600182015460208201526002820154604082015260038201546060820152600482015460ff166080820152600582015460a082015260069091015460c082015260e00190565b60405180910390a39a9950505050505050505050565b60006001600160e01b03198216637965db0b60e01b14806105cb57506301ffc9a760e01b6001600160e01b03198316146105cb565b60008054821015610d8a5760005b5060008281526004602052604081205490819003610d8057610d79836119de565b9250610d58565b600160e01b161590505b919050565b8060005260046000fd5b6000610da483610910565b9050818015610dbc5750336001600160a01b03821614155b15610ddf57610dcb8133610572565b610ddf57610ddf6367d9dca160e11b610d8f565b60008381526006602052604080822080546001600160a01b0319166001600160a01b0388811691821790925591518693918516917f8c5be1e5ebec7d5bd14f71427d1e84f3dd0314c0f7b2291e5b200ac8c7c3b92591a450505050565b60008181526004602052604090205480600003610eaf576000548210610e6c57610e6c636f96cda160e11b610d8f565b5b50600019016000818152600460205260409020548015610e6d57600160e01b8116600003610e9a57919050565b610eaa636f96cda160e11b610d8f565b610e6d565b600160e01b8116600003610ec257919050565b610d8a636f96cda160e11b610d8f565b6001600160a01b03841615801590610ef257506001600160a01b03831615155b15610f9a5760005b81811015610f98576000600d81610f1184876119f5565b815260208101919091526040016000206004015460ff1690506002811015610f8f5760405162461bcd60e51b815260206004820152602b60248201527f536f756c2d626f756e643a206f6e6c7920476f6c642f506c6174696e756d207460448201526a72616e7366657261626c6560a81b6064820152608401610aad565b50600101610efa565b505b610845565b610fa9813361124c565b50565b6000610fb88383610961565b6110385760008381526009602090815260408083206001600160a01b03861684529091529020805460ff19166001179055610ff03390565b6001600160a01b0316826001600160a01b0316847f2f8788117e7eff1d82e926ec794901d17c78024a50270940304540a733656f0d60405160405180910390a45060016105cb565b5060006105cb565b600061104c8383610961565b156110385760008381526009602090815260408083206001600160a01b0386168085529252808320805460ff1916905551339286917ff6391f5c32d9c69d2a47ea670b442974b53935d1edc7fd64eb21e047a839171b9190a45060016105cb565b604051630a85bd0160e11b81526000906001600160a01b0385169063150b7a02906110e2903390899088908890600401611a08565b6020604051808303816000875af192505050801561111d575060408051601f3d908101601f1916820190925261111a91810190611a45565b60015b611172573d80801561114b576040519150601f19603f3d011682016040523d82523d6000602084013e611150565b606091505b50805160000361116a5761116a6368d2bf6b60e11b610d8f565b805181602001fd5b6001600160e01b031916630a85bd0160e11b1490505b949350505050565b6060600a80546105e09061180f565b606060006111ac83611285565b600101905060008167ffffffffffffffff8111156111cc576111cc6115e6565b6040519080825280601f01601f1916602001820160405280156111f6576020820181803683370190505b5090508181016020015b600019016f181899199a1a9b1b9c1cb0b131b232b360811b600a86061a8153600a850494508461120057509392505050565b6106aa82826040518060200160405280600081525061135d565b6112568282610961565b6106aa5760405163e2517d3f60e01b81526001600160a01b038216600482015260248101839052604401610aad565b60008072184f03e93ff9f4daa797ed6e38ed64bf6a1f0160401b83106112c45772184f03e93ff9f4daa797ed6e38ed64bf6a1f0160401b830492506040015b6d04ee2d6d415b85acef810000000083106112f0576d04ee2d6d415b85acef8100000000830492506020015b662386f26fc10000831061130e57662386f26fc10000830492506010015b6305f5e1008310611326576305f5e100830492506008015b612710831061133a57612710830492506004015b6064831061134c576064830492506002015b600a83106105cb5760010192915050565b61136783836113c1565b6001600160a01b0383163b1561087e576000548281035b61139160008683806001019450866110ad565b6113a5576113a56368d2bf6b60e11b610d8f565b81811061137e5781600054146113ba57600080fd5b5050505050565b60008054908290036113dd576113dd63b562e8dd60e01b610d8f565b6113ea6000848385610ed2565b60008181526004602090815260408083206001600160a01b0387164260a01b6001881460e11b1781179091558084526005909252822080546801000000000000000186020190559081900361144857611448622e076360e81b610d8f565b818301825b808360007fddf252ad1be2c89b69c2b068fc378daa952ba7f163c4a11628f55a4df523b3ef600080a481816001019150810361144d575060005550505050565b6001600160e01b031981168114610fa957600080fd5b6000602082840312156114b557600080fd5b8135610b0b8161148d565b60005b838110156114db5781810151838201526020016114c3565b50506000910152565b600081518084526114fc8160208601602086016114c0565b601f01601f19169290920160200192915050565b602081526000610b0b60208301846114e4565b60006020828403121561153557600080fd5b5035919050565b80356001600160a01b0381168114610d8a57600080fd5b6000806040838503121561156657600080fd5b61156f8361153c565b946020939093013593505050565b60008060006060848603121561159257600080fd5b61159b8461153c565b92506115a96020850161153c565b929592945050506040919091013590565b600080604083850312156115cd57600080fd5b823591506115dd6020840161153c565b90509250929050565b634e487b7160e01b600052604160045260246000fd5b60008067ffffffffffffffff841115611617576116176115e6565b50604051601f19601f85018116603f0116810181811067ffffffffffffffff82111715611646576116466115e6565b60405283815290508082840185101561165e57600080fd5b83836020830137600060208583010152509392505050565b60006020828403121561168857600080fd5b813567ffffffffffffffff81111561169f57600080fd5b8201601f810184136116b057600080fd5b611188848235602084016115fc565b6000602082840312156116d157600080fd5b610b0b8261153c565b600080604083850312156116ed57600080fd5b6116f68361153c565b91506020830135801515811461170b57600080fd5b809150509250929050565b6000806000806080858703121561172c57600080fd5b6117358561153c565b93506117436020860161153c565b925060408501359150606085013567ffffffffffffffff81111561176657600080fd5b8501601f8101871361177757600080fd5b611786878235602084016115fc565b91505092959194509250565b600080604083850312156117a557600080fd5b6117ae8361153c565b91506115dd6020840161153c565b600080600080600080600060e0888a0312156117d757600080fd5b6117e08861153c565b9960208901359950604089013598606081013598506080810135975060a0810135965060c00135945092505050565b600181811c9082168061182357607f821691505b60208210810361184357634e487b7160e01b600052602260045260246000fd5b50919050565b601f82111561087e57806000526020600020601f840160051c810160208510156118705750805b601f840160051c820191505b818110156113ba576000815560010161187c565b815167ffffffffffffffff8111156118aa576118aa6115e6565b6118be816118b8845461180f565b84611849565b6020601f8211600181146118f257600083156118da5750848201515b600019600385901b1c1916600184901b1784556113ba565b600084815260208120601f198516915b828110156119225787850151825560209485019460019092019101611902565b50848210156119405786840151600019600387901b60f8161c191681555b50505050600190811b01905550565b600083516119618184602088016114c0565b8351908301906119758183602088016114c0565b64173539b7b760d91b9101908152600501949350505050565b634e487b7160e01b600052601160045260246000fd5b80820281158282048414176105cb576105cb61198e565b6000602082840312156119cd57600080fd5b815160ff81168114610b0b57600080fd5b6000816119ed576119ed61198e565b506000190190565b808201808211156105cb576105cb61198e565b6001600160a01b0385811682528416602082015260408101839052608060608201819052600090611a3b908301846114e4565b9695505050505050565b600060208284031215611a5757600080fd5b8151610b0b8161148d56fea2646970667358221220c63b849caef5698ff813890a06e9180ae00ffc3e96859a4d31566286358e912464736f6c634300081c0033",
  "linkReferences": {},
  "deployedLinkReferences": {}
}