{
  "_format": "hh-sol-artifact-1",
  "contractName": "TierCalculator",
  "sourceName": "contracts/TierCalculator.sol",
  "abi": [
    {
      "inputs": [
        {
          "internalType": "uint256",
          "name": "duration",
          "type": "uint256"
        }
      ],
      "name": "getTier",
      "outputs": [
        {
          "internalType": "uint8",
          "name": "",
          "type": "uint8"
        }
      ],
      "stateMutability": "pure",
      "type": "function"
    }
  ],
  "bytecode": "0x6080604052348015600f57600080fd5b5061011e8061001f6000396000f3fe6080604052348015600f57600080fd5b506004361060285760003560e01c80634f062c5a14602d575b600080fd5b603c603836600460d0565b6052565b60405160ff909116815260200160405180910390f35b6000617e90821060655760035b92915050565b61627082106073576002605f565b61384082106081576001605f565b610e108210608f576000605f565b60405162461bcd60e51b8152602060048201526012602482015271111d5c985d1a5bdb881d1bdbc81cda1bdc9d60721b604482015260640160405180910390fd5b60006020828403121560e157600080fd5b503591905056fea2646970667358221220815226425d76c6519c1b48a209dd0a76ba23f6317e1cb348cde8976f3d30acc764736f6c634300081c0033",
  "linkReferences": {},
  "deployedLinkReferences": {}
}