{
  "_format": "hh-sol-artifact-1",
  "contractName": "TierCalculatorV2",
  "sourceName": "contracts/TierCalculatorV2.sol",
  "abi": [
    {
      "inputs": [],
      "stateMutability": "nonpayable",
      "type": "constructor"
    },
    {
      "inputs": [],
      "name": "AccessControlBadConfirmation",
      "type": "error"
    },
    {
      "inputs": [
        {
          "internalType": "address",
          "name": "account",
          "type": "address"
        },
        {
          "internalType": "bytes32",
          "name": "neededRole",
          "type": "bytes32"
        }
      ],
      "name": "AccessControlUnauthorizedAccount",
      "type": "error"
    },
    {
      "inputs": [
        {
          "internalType": "address",
          "name": "target",
          "type": "address"
        }
      ],
      "name": "AddressEmptyCode",
      "type": "error"
    },
    {
      "inputs": [
        {
          "internalType": "address",
          "name": "implementation",
          "type": "address"
        }
      ],
      "name": "ERC1967InvalidImplementation",
      "type": "error"
    },
    {
      "inputs": [],
      "name": "ERC1967NonPayable",
      "type": "error"
    },
    {
      "inputs": [],
      "name": "FailedCall",
      "type": "error"
    },
    {
      "inputs": [
        {
          "internalType": "uint256",
          "name": "duration",
          "type": "uint256"
        }
      ],
      "name": "InvalidDuration",
      "type": "error"
    },
    {
      "inputs": [],
      "name": "InvalidInitialization",
      "type": "error"
    },
    {
      "inputs": [
        {
          "internalType": "uint8",
          "name": "tier",
          "type": "uint8"
        }
      ],
      "name": "InvalidTier",
      "type": "error"
    },
    {
      "inputs": [],
      "name": "NotInitializing",
      "type": "error"
    },
    {
      "inputs": [],
      "name": "UUPSUnauthorizedCallContext",
      "type": "error"
    },
    {
      "inputs": [
        {
          "internalType": "bytes32",
          "name": "slot",
          "type": "bytes32"
        }
      ],
      "name": "UUPSUnsupportedProxiableUUID",
      "type": "error"
    },
    {
      "anonymous": false,
      "inputs": [
        {
          "indexed": false,
          "internalType": "uint64",
          "name": "version",
          "type": "uint64"
        }
      ],
      "name": "Initialized",
      "type": "event"
    },
    {
      "anonymous": false,
      "inputs": [
        {
          "indexed": true,
          "internalType": "bytes32",
          "name": "role",
          "type": "bytes32"
        },
        {
          "indexed": true,
          "internalType": "bytes32",
          "name": "previousAdminRole",
          "type": "bytes32"
        },
        {
          "indexed": true,
          "internalType": "bytes32",
          "name": "newAdminRole",
          "type": "bytes32"
        }
      ],
      "name": "RoleAdminChanged",
      "type": "event"
    },
    {
      "anonymous": false,
      "inputs": [
        {
          "indexed": true,
          "internalType": "bytes32",
          "name": "role",
          "type": "bytes32"
        },
        {
          "indexed": true,
          "internalType": "address",
          "name": "account",
          "type": "address"
        },
        {
          "indexed": true,
          "internalType": "address",
          "name": "sender",
          "type": "address"
        }
      ],
      "name": "RoleGranted",
      "type": "event"
    },
    {
      "anonymous": false,
      "inputs": [
        {
          "indexed": true,
          "internalType": "bytes32",
          "name": "role",
          "type": "bytes32"
        },
        {
          "indexed": true,
          "internalType": "address",
          "name": "account",
          "type": "address"
        },
        {
          "indexed": true,
          "internalType": "address",
          "name": "sender",
          "type": "address"
        }
      ],
      "name": "RoleRevoked",
      "type": "event"
    },
    {
      "anonymous": false,
      "inputs": [
        {
          "indexed": true,
          "internalType": "uint8",
          "name": "tier",
          "type": "uint8"
        },
        {
          "indexed": false,
          "internalType": "uint256",
          "name": "minDuration",
          "type": "uint256"
        },
        {
          "indexed": false,
          "internalType": "uint256",
          "name": "maxDuration",
          "type": "uint256"
        }
      ],
      "name": "TierConfigAdded",
      "type": "event"
    },
    {
      "anonymous": false,
      "inputs": [
        {
          "indexed": true,
          "internalType": "uint8",
          "name": "tier",
          "type": "uint8"
        },
        {
          "indexed": false,
          "internalType": "uint256",
          "name": "minDuration",
          "type": "uint256"
        },
        {
          "indexed": false,
          "internalType": "uint256",
          "name": "maxDuration",
          "type": "uint256"
        }
      ],
      "name": "TierConfigUpdated",
      "type": "event"
    },
    {
      "anonymous": false,
      "inputs": [
        {
          "indexed": true,
          "internalType": "address",
          "name": "implementation",
          "type": "address"
        }
      ],
      "name": "Upgraded",
      "type": "event"
    },
    {
      "inputs": [],
      "name": "DEFAULT_ADMIN_ROLE",
      "outputs": [
        {
          "internalType": "bytes32",
          "name": "",
          "type": "bytes32"
        }
      ],
      "stateMutability": "view",
      "type": "function"
    },
    {
      "inputs": [],
      "name": "UPGRADE_INTERFACE_VERSION",
      "outputs": [
        {
          "internalType": "string",
          "name": "",
          "type": "string"
        }
      ],
      "stateMutability": "view",
      "type": "function"
    },
    {
      "inputs": [
        {
          "internalType": "uint256",
          "name": "minDuration",
          "type": "uint256"
        },
        {
          "internalType": "uint256",
          "name": "maxDuration",
          "type": "uint256"
        }
      ],
      "name": "addTierConfig",
      "outputs": [
        {
          "internalType": "uint8",
          "name": "",
          "type": "uint8"
        }
      ],
      "stateMutability": "nonpayable",
      "type": "function"
    },
    {
      "inputs": [
        {
          "internalType": "bytes32",
          "name": "role",
          "type": "bytes32"
        }
      ],
      "name": "getRoleAdmin",
      "outputs": [
        {
          "internalType": "bytes32",
          "name": "",
          "type": "bytes32"
        }
      ],
      "stateMutability": "view",
      "type": "function"
    },
    {
      "inputs": [
        {
          "internalType": "uint256",
          "name": "duration",
          "type": "uint256"
        }
      ],
      "name": "getTier",
      "outputs": [
        {
          "internalType": "uint8",
          "name": "",
          "type": "uint8"
        }
      ],
      "stateMutability": "view",
      "type": "function"
    },
    {
      "inputs": [
        {
          "internalType": "uint8",
          "name": "tier",
          "type": "uint8"
        }
      ],
      "name": "getTierConfig",
      "outputs": [
        {
          "internalType": "uint256",
          "name": "minDuration",
          "type": "uint256"
        },
        {
          "internalType": "uint256",
          "name": "maxDuration",
          "type": "uint256"
        }
      ],
      "stateMutability": "view",
      "type": "function"
    },
    {
      "inputs": [],
      "name": "getTierCount",
      "outputs": [
        {
          "internalType": "uint256",
          "name": "",
          "type": "uint256"
        }
      ],
      "stateMutability": "view",
      "type": "function"
    },
    {
      "inputs": [
        {
          "internalType": "bytes32",
          "name": "role",
          "type": "bytes32"
        },
        {
          "internalType": "address",
          "name": "account",
          "type": "address"
        }
      ],
      "name": "grantRole",
      "outputs": [],
      "stateMutability": "nonpayable",
      "type": "function"
    },
    {
      "inputs": [
        {
          "internalType": "bytes32",
          "name": "role",
          "type": "bytes32"
        },
        {
          "internalType": "address",
          "name": "account",
          "type": "address"
        }
      ],
      "name": "hasRole",
      "outputs": [
        {
          "internalType": "bool",
          "name": "",
          "type": "bool"
        }
      ],
      "stateMutability": "view",
      "type": "function"
    },
    {
      "inputs": [],
      "name": "initialize",
      "outputs": [],
      "stateMutability": "nonpayable",
      "type": "function"
    },
    {
      "inputs": [],
      "name": "proxiableUUID",
      "outputs": [
        {
          "internalType": "bytes32",
          "name": "",
          "type": "bytes32"
        }
      ],
      "stateMutability": "view",
      "type": "function"
    },
    {
      "inputs": [
        {
          "internalType": "bytes32",
          "name": "role",
          "type": "bytes32"
        },
        {
          "internalType": "address",
          "name": "callerConfirmation",
          "type": "address"
        }
      ],
      "name": "renounceRole",
      "outputs": [],
      "stateMutability": "nonpayable",
      "type": "function"
    },
    {
      "inputs": [
        {
          "internalType": "bytes32",
          "name": "role",
          "type": "bytes32"
        },
        {
          "internalType": "address",
          "name": "account",
          "type": "address"
        }
      ],
      "name": "revokeRole",
      "outputs": [],
      "stateMutability": "nonpayable",
      "type": "function"
    },
    {
      "inputs": [
        {
          "internalType": "bytes4",
          "name": "interfaceId",
          "type": "bytes4"
        }
      ],
      "name": "supportsInterface",
      "outputs": [
        {
          "internalType": "bool",
          "name": "",
          "type": "bool"
        }
      ],
      "stateMutability": "view",
      "type": "function"
    },
    {
      "inputs": [
        {
          "internalType": "uint256",
          "name": "",
          "type": "uint256"
        }
      ],
      "name": "tierConfigs",
      "outputs": [
        {
          "internalType": "uint256",
          "name": "minDuration",
          "type": "uint256"
        },
        {
          "internalType": "uint256",
          "name": "maxDuration",
          "type": "uint256"
        },
        {
          "internalType": "uint8",
          "name": "tier",
          "type": "uint8"
        }
      ],
      "stateMutability": "view",
      "type": "function"
    },
    {
      "inputs": [
        {
          "internalType": "uint8",
          "name": "tier",
          "type": "uint8"
        },
        {
          "internalType": "uint256",
          "name": "minDuration",
          "type": "uint256"
        },
        {
          "internalType": "uint256",
          "name": "maxDuration",
          "type": "uint256"
        }
      ],
      "name": "updateTierConfig",
      "outputs": [],
      "stateMutability": "nonpayable",
      "type": "function"
    },
    {
      "inputs": [
        {
          "internalType": "address",
          "name": "newImplementation",
          "type": "address"
        },
        {
          "internalType": "bytes",
          "name": "data",
          "type": "bytes"
        }
      ],
      "name": "upgradeToAndCall",
      "outputs": [],
      "stateMutability": "payable",
      "type": "function"
    },
    {
      "inputs": [],
      "name": "version",
      "outputs": [
        {
          "internalType": "string",
          "name": "",
          "type": "string"
        }
      ],
      "stateMutability": "pure",
      "type": "function"
    }
  ],
  "bytecode": "0x60a06040523060805234801561001457600080fd5b5061001d610022565b6100d4565b7ff0c57e16840df040f15088dc2f81fe391c3923bec73e23a9662efc9c229c6a00805468010000000000000000900460ff16156100725760405163f92ee8a960e01b815260040160405180910390fd5b80546001600160401b03908116146100d15780546001600160401b0319166001600160401b0390811782556040519081527fc7f505b2f371ae2175ee4913f4499e1f2633a7b5936321eed1cdaeb6115181d29060200160405180910390a15b50565b6080516113546100fd60003960008181610c2201528181610c4b0152610d9101526113546000f3fe6080604052600436106101095760003560e01c80638129fc1c11610095578063a656efe411610064578063a656efe4146102e1578063ad3cb1cc14610301578063c022c52314610332578063d38cd9bf14610367578063d547741f1461038757600080fd5b80638129fc1c146102595780638af8198c1461026e57806391d14854146102ac578063a217fddf146102cc57600080fd5b80634f062c5a116100dc5780634f062c5a146101b35780634f1ef286146101e557806352d1902d146101f857806354fd4d501461020d57806367184e281461024457600080fd5b806301ffc9a71461010e578063248a9ca3146101435780632f2ff15d1461017157806336568abe14610193575b600080fd5b34801561011a57600080fd5b5061012e610129366004611050565b6103a7565b60405190151581526020015b60405180910390f35b34801561014f57600080fd5b5061016361015e36600461107a565b6103de565b60405190815260200161013a565b34801561017d57600080fd5b5061019161018c3660046110af565b610400565b005b34801561019f57600080fd5b506101916101ae3660046110af565b610422565b3480156101bf57600080fd5b506101d36101ce36600461107a565b61045a565b60405160ff909116815260200161013a565b6101916101f33660046110f1565b610505565b34801561020457600080fd5b50610163610524565b34801561021957600080fd5b506040805180820190915260058152640322e302e360dc1b60208201525b60405161013a91906111df565b34801561025057600080fd5b50600054610163565b34801561026557600080fd5b50610191610541565b34801561027a57600080fd5b5061028e61028936600461107a565b6107f1565b60408051938452602084019290925260ff169082015260600161013a565b3480156102b857600080fd5b5061012e6102c73660046110af565b610827565b3480156102d857600080fd5b50610163600081565b3480156102ed57600080fd5b506101d36102fc366004611212565b61085f565b34801561030d57600080fd5b50610237604051806040016040528060058152602001640352e302e360dc1b81525081565b34801561033e57600080fd5b5061035261034d366004611245565b610960565b6040805192835260208301919091520161013a565b34801561037357600080fd5b50610191610382366004611260565b6109ec565b34801561039357600080fd5b506101916103a23660046110af565b610acd565b60006001600160e01b03198216637965db0b60e01b14806103d857506301ffc9a760e01b6001600160e01b03198316145b92915050565b60009081526000805160206112ff833981519152602052604090206001015490565b610409826103de565b61041281610ae9565b61041c8383610af6565b50505050565b6001600160a01b038116331461044b5760405163334bd91960e11b815260040160405180910390fd5b6104558282610b9b565b505050565b6000805b6000548110156104e357600080828154811061047c5761047c611293565b600091825260209182902060408051606081018252600390930290910180548084526001820154948401949094526002015460ff1690820152915084108015906104ca575080602001518411155b156104da57604001519392505050565b5060010161045e565b506040516313b783af60e21b8152600481018390526024015b60405180910390fd5b61050d610c17565b61051682610cbe565b6105208282610cc9565b5050565b600061052e610d86565b506000805160206112df83398151915290565b600061054b610dcf565b805490915060ff600160401b820416159067ffffffffffffffff166000811580156105735750825b905060008267ffffffffffffffff1660011480156105905750303b155b90508115801561059e575080155b156105bc5760405163f92ee8a960e01b815260040160405180910390fd5b845467ffffffffffffffff1916600117855583156105e657845460ff60401b1916600160401b1785555b6105ee610df8565b6105f6610df8565b610601600033610af6565b50604080516060808201835262278d008252627555806020808401918252600084860181815281546001808201845583805296517f290decd9548b62a8d60345a988386fc84ba6bc95484008f6362f93160ef3e56360039283028181019290925595517f290decd9548b62a8d60345a988386fc84ba6bc95484008f6362f93160ef3e5648083019190915592517f290decd9548b62a8d60345a988386fc84ba6bc95484008f6362f93160ef3e565918201805460ff1990811660ff938416179091558a51808a018c526276a700815262ebfc80818901908152818d018c81528854808e018a558980529251928702808c019390935590518288015551908401805483169184169190911790558a51808a018c5262ed4e0081526301dfe2008189019081526002828e019081528854808e018a558980529251928702808c019390935590518288015551908401805483169184169190911790558a519889018b526301e1338089526000199689019687529988018381528554998a018655948052965197909102948501969096559151918301919091555192018054909316911617905583156107ea57845460ff60401b19168555604051600181527fc7f505b2f371ae2175ee4913f4499e1f2633a7b5936321eed1cdaeb6115181d29060200160405180910390a15b5050505050565b6000818154811061080157600080fd5b600091825260209091206003909102018054600182015460029092015490925060ff1683565b60009182526000805160206112ff833981519152602090815260408084206001600160a01b0393909316845291905290205460ff1690565b60008061086b81610ae9565b6000805460408051606081018252878152602080820188815260ff80861684860181815260018801895597805293517f290decd9548b62a8d60345a988386fc84ba6bc95484008f6362f93160ef3e563600388029081019190915591517f290decd9548b62a8d60345a988386fc84ba6bc95484008f6362f93160ef3e56483015595517f290decd9548b62a8d60345a988386fc84ba6bc95484008f6362f93160ef3e565909101805460ff19169190961617909455815188815293840187905291927ff779feeaa55c1eac5f404733eb117b6129947ee9859b740af84fc6499d6af7ce910160405180910390a2949350505050565b60008054819060ff84161061098d57604051635e50d4ab60e11b815260ff841660048201526024016104fc565b6000808460ff16815481106109a4576109a4611293565b60009182526020918290206040805160608101825260039093029091018054808452600182015494840185905260029091015460ff1692909101919091529590945092505050565b60006109f781610ae9565b60005460ff851610610a2157604051635e50d4ab60e11b815260ff851660048201526024016104fc565b60405180606001604052808481526020018381526020018560ff1681525060008560ff1681548110610a5557610a55611293565b60009182526020918290208351600392909202019081558282015160018201556040928301516002909101805460ff191660ff92831617905582518681529182018590528616917fd487e616194ff3e12b09be324fea3f977af857fcef673ddfd9902ea1f580ec0d910160405180910390a250505050565b610ad6826103de565b610adf81610ae9565b61041c8383610b9b565b610af38133610e00565b50565b60006000805160206112ff833981519152610b118484610827565b610b91576000848152602082815260408083206001600160a01b03871684529091529020805460ff19166001179055610b473390565b6001600160a01b0316836001600160a01b0316857f2f8788117e7eff1d82e926ec794901d17c78024a50270940304540a733656f0d60405160405180910390a460019150506103d8565b60009150506103d8565b60006000805160206112ff833981519152610bb68484610827565b15610b91576000848152602082815260408083206001600160a01b0387168085529252808320805460ff1916905551339287917ff6391f5c32d9c69d2a47ea670b442974b53935d1edc7fd64eb21e047a839171b9190a460019150506103d8565b306001600160a01b037f0000000000000000000000000000000000000000000000000000000000000000161480610c9e57507f00000000000000000000000000000000000000000000000000000000000000006001600160a01b0316610c926000805160206112df833981519152546001600160a01b031690565b6001600160a01b031614155b15610cbc5760405163703e46dd60e11b815260040160405180910390fd5b565b600061052081610ae9565b816001600160a01b03166352d1902d6040518163ffffffff1660e01b8152600401602060405180830381865afa925050508015610d23575060408051601f3d908101601f19168201909252610d20918101906112a9565b60015b610d4b57604051634c9c8ce360e01b81526001600160a01b03831660048201526024016104fc565b6000805160206112df8339815191528114610d7c57604051632a87526960e21b8152600481018290526024016104fc565b6104558383610e39565b306001600160a01b037f00000000000000000000000000000000000000000000000000000000000000001614610cbc5760405163703e46dd60e11b815260040160405180910390fd5b6000807ff0c57e16840df040f15088dc2f81fe391c3923bec73e23a9662efc9c229c6a006103d8565b610cbc610e8f565b610e0a8282610827565b6105205760405163e2517d3f60e01b81526001600160a01b0382166004820152602481018390526044016104fc565b610e4282610eb4565b6040516001600160a01b038316907fbc7cd75a20ee27fd9adebab32041f755214dbc6bffa90cc0225b39da2e5c2d3b90600090a2805115610e87576104558282610f19565b610520610f8f565b610e97610fae565b610cbc57604051631afcd79f60e31b815260040160405180910390fd5b806001600160a01b03163b600003610eea57604051634c9c8ce360e01b81526001600160a01b03821660048201526024016104fc565b6000805160206112df83398151915280546001600160a01b0319166001600160a01b0392909216919091179055565b6060600080846001600160a01b031684604051610f3691906112c2565b600060405180830381855af49150503d8060008114610f71576040519150601f19603f3d011682016040523d82523d6000602084013e610f76565b606091505b5091509150610f86858383610fc8565b95945050505050565b3415610cbc5760405163b398979f60e01b815260040160405180910390fd5b6000610fb8610dcf565b54600160401b900460ff16919050565b606082610fdd57610fd882611027565b611020565b8151158015610ff457506001600160a01b0384163b155b1561101d57604051639996b31560e01b81526001600160a01b03851660048201526024016104fc565b50805b9392505050565b8051156110375780518082602001fd5b60405163d6bda27560e01b815260040160405180910390fd5b60006020828403121561106257600080fd5b81356001600160e01b03198116811461102057600080fd5b60006020828403121561108c57600080fd5b5035919050565b80356001600160a01b03811681146110aa57600080fd5b919050565b600080604083850312156110c257600080fd5b823591506110d260208401611093565b90509250929050565b634e487b7160e01b600052604160045260246000fd5b6000806040838503121561110457600080fd5b61110d83611093565b9150602083013567ffffffffffffffff81111561112957600080fd5b8301601f8101851361113a57600080fd5b803567ffffffffffffffff811115611154576111546110db565b604051601f8201601f19908116603f0116810167ffffffffffffffff81118282101715611183576111836110db565b60405281815282820160200187101561119b57600080fd5b816020840160208301376000602083830101528093505050509250929050565b60005b838110156111d65781810151838201526020016111be565b50506000910152565b60208152600082518060208401526111fe8160408501602087016111bb565b601f01601f19169190910160400192915050565b6000806040838503121561122557600080fd5b50508035926020909101359150565b803560ff811681146110aa57600080fd5b60006020828403121561125757600080fd5b61102082611234565b60008060006060848603121561127557600080fd5b61127e84611234565b95602085013595506040909401359392505050565b634e487b7160e01b600052603260045260246000fd5b6000602082840312156112bb57600080fd5b5051919050565b600082516112d48184602087016111bb565b919091019291505056fe360894a13ba1a3210667c828492db98dca3e2076cc3735a920a3ca505d382bbc02dd7bc7dec4dceedda775e58dd541e08a116c6c53815c0bd028192f7b626800a26469706673582212203fcd005f17bdf76d750689a8e58014e1037231a6bb49f806d17b5350aaabeb8064736f6c634300081c0033",
  "linkReferences": {},
  "deployedLinkReferences": {}
}