{
  "_format": "hh-sol-artifact-1",
  "contractName": "VoucherManagerV2",
  "sourceName": "contracts/VoucherManagerV2.sol",
  "abi": [
    {
      "inputs": [],
      "stateMutability": "nonpayable",
      "type": "constructor"
    },
    {
      "inputs": [],
      "name": "AccessControlBadConfirmation",
      "type": "error"
    },
    {
      "inputs": [
        {
          "internalType": "address",
          "name": "account",
          "type": "address"
        },
        {
          "internalType": "bytes32",
          "name": "neededRole",
          "type": "bytes32"
        }
      ],
      "name": "AccessControlUnauthorizedAccount",
      "type": "error"
    },
    {
      "inputs": [
        {
          "internalType": "address",
          "name": "target",
          "type": "address"
        }
      ],
      "name": "AddressEmptyCode",
      "type": "error"
    },
    {
      "inputs": [
        {
          "internalType": "address",
          "name": "implementation",
          "type": "address"
        }
      ],
      "name": "ERC1967InvalidImplementation",
      "type": "error"
    },
    {
      "inputs": [],
      "name": "ERC1967NonPayable",
      "type": "error"
    },
    {
      "inputs": [],
      "name": "FailedCall",
      "type": "error"
    },
    {
      "inputs": [],
      "name": "InvalidInitialization",
      "type": "error"
    },
    {
      "inputs": [
        {
          "internalType": "string",
          "name": "qrCode",
          "type": "string"
        }
      ],
      "name": "InvalidQRCode",
      "type": "error"
    },
    {
      "inputs": [],
      "name": "NotInitializing",
      "type": "error"
    },
    {
      "inputs": [],
      "name": "ReentrancyGuardReentrantCall",
      "type": "error"
    },
    {
      "inputs": [],
      "name": "UUPSUnauthorizedCallContext",
      "type": "error"
    },
    {
      "inputs": [
        {
          "internalType": "bytes32",
          "name": "slot",
          "type": "bytes32"
        }
      ],
      "name": "UUPSUnsupportedProxiableUUID",
      "type": "error"
    },
    {
      "inputs": [],
      "name": "Unauthorized",
      "type": "error"
    },
    {
      "inputs": [
        {
          "internalType": "uint256",
          "name": "voucherId",
          "type": "uint256"
        }
      ],
      "name": "VoucherExhausted",
      "type": "error"
    },
    {
      "inputs": [
        {
          "internalType": "uint256",
          "name": "voucherId",
          "type": "uint256"
        }
      ],
      "name": "VoucherInactive",
      "type": "error"
    },
    {
      "inputs": [
        {
          "internalType": "uint256",
          "name": "voucherId",
          "type": "uint256"
        }
      ],
      "name": "VoucherNotFound",
      "type": "error"
    },
    {
      "anonymous": false,
      "inputs": [
        {
          "indexed": false,
          "internalType": "uint64",
          "name": "version",
          "type": "uint64"
        }
      ],
      "name": "Initialized",
      "type": "event"
    },
    {
      "anonymous": false,
      "inputs": [
        {
          "indexed": true,
          "internalType": "uint256",
          "name": "voucherId",
          "type": "uint256"
        },
        {
          "indexed": false,
          "internalType": "string",
          "name": "qrCode",
          "type": "string"
        }
      ],
      "name": "QRCodeUpdated",
      "type": "event"
    },
    {
      "anonymous": false,
      "inputs": [
        {
          "indexed": true,
          "internalType": "bytes32",
          "name": "role",
          "type": "bytes32"
        },
        {
          "indexed": true,
          "internalType": "bytes32",
          "name": "previousAdminRole",
          "type": "bytes32"
        },
        {
          "indexed": true,
          "internalType": "bytes32",
          "name": "newAdminRole",
          "type": "bytes32"
        }
      ],
      "name": "RoleAdminChanged",
      "type": "event"
    },
    {
      "anonymous": false,
      "inputs": [
        {
          "indexed": true,
          "internalType": "bytes32",
          "name": "role",
          "type": "bytes32"
        },
        {
          "indexed": true,
          "internalType": "address",
          "name": "account",
          "type": "address"
        },
        {
          "indexed": true,
          "internalType": "address",
          "name": "sender",
          "type": "address"
        }
      ],
      "name": "RoleGranted",
      "type": "event"
    },
    {
      "anonymous": false,
      "inputs": [
        {
          "indexed": true,
          "internalType": "bytes32",
          "name": "role",
          "type": "bytes32"
        },
        {
          "indexed": true,
          "internalType": "address",
          "name": "account",
          "type": "address"
        },
        {
          "indexed": true,
          "internalType": "address",
          "name": "sender",
          "type": "address"
        }
      ],
      "name": "RoleRevoked",
      "type": "event"
    },
    {
      "anonymous": false,
      "inputs": [
        {
          "indexed": true,
          "internalType": "address",
          "name": "implementation",
          "type": "address"
        }
      ],
      "name": "Upgraded",
      "type": "event"
    },
    {
      "anonymous": false,
      "inputs": [
        {
          "indexed": true,
          "internalType": "uint256",
          "name": "voucherId",
          "type": "uint256"
        },
        {
          "indexed": true,
          "internalType": "address",
          "name": "creator",
          "type": "address"
        },
        {
          "indexed": false,
          "internalType": "string",
          "name": "name",
          "type": "string"
        }
      ],
      "name": "VoucherCreated",
      "type": "event"
    },
    {
      "anonymous": false,
      "inputs": [
        {
          "indexed": true,
          "internalType": "uint256",
          "name": "voucherId",
          "type": "uint256"
        },
        {
          "indexed": true,
          "internalType": "address",
          "name": "admin",
          "type": "address"
        }
      ],
      "name": "VoucherDeactivated",
      "type": "event"
    },
    {
      "anonymous": false,
      "inputs": [
        {
          "indexed": true,
          "internalType": "uint256",
          "name": "voucherId",
          "type": "uint256"
        },
        {
          "indexed": true,
          "internalType": "address",
          "name": "user",
          "type": "address"
        },
        {
          "indexed": false,
          "internalType": "uint256",
          "name": "remainingUses",
          "type": "uint256"
        }
      ],
      "name": "VoucherUsed",
      "type": "event"
    },
    {
      "inputs": [],
      "name": "DEFAULT_ADMIN_ROLE",
      "outputs": [
        {
          "internalType": "bytes32",
          "name": "",
          "type": "bytes32"
        }
      ],
      "stateMutability": "view",
      "type": "function"
    },
    {
      "inputs": [],
      "name": "UPGRADE_INTERFACE_VERSION",
      "outputs": [
        {
          "internalType": "string",
          "name": "",
          "type": "string"
        }
      ],
      "stateMutability": "view",
      "type": "function"
    },
    {
      "inputs": [
        {
          "internalType": "string",
          "name": "name",
          "type": "string"
        },
        {
          "internalType": "string",
          "name": "description",
          "type": "string"
        },
        {
          "internalType": "uint256",
          "name": "value",
          "type": "uint256"
        },
        {
          "internalType": "string",
          "name": "tier",
          "type": "string"
        },
        {
          "internalType": "string",
          "name": "type_",
          "type": "string"
        },
        {
          "internalType": "uint256",
          "name": "maxUses",
          "type": "uint256"
        },
        {
          "internalType": "string",
          "name": "qrCode",
          "type": "string"
        }
      ],
      "name": "createVoucher",
      "outputs": [
        {
          "internalType": "uint256",
          "name": "",
          "type": "uint256"
        }
      ],
      "stateMutability": "nonpayable",
      "type": "function"
    },
    {
      "inputs": [
        {
          "internalType": "uint256",
          "name": "voucherId",
          "type": "uint256"
        }
      ],
      "name": "deactivateVoucher",
      "outputs": [],
      "stateMutability": "nonpayable",
      "type": "function"
    },
    {
      "inputs": [
        {
          "internalType": "bytes32",
          "name": "role",
          "type": "bytes32"
        }
      ],
      "name": "getRoleAdmin",
      "outputs": [
        {
          "internalType": "bytes32",
          "name": "",
          "type": "bytes32"
        }
      ],
      "stateMutability": "view",
      "type": "function"
    },
    {
      "inputs": [],
      "name": "getTotalVouchers",
      "outputs": [
        {
          "internalType": "uint256",
          "name": "",
          "type": "uint256"
        }
      ],
      "stateMutability": "view",
      "type": "function"
    },
    {
      "inputs": [
        {
          "internalType": "address",
          "name": "user",
          "type": "address"
        }
      ],
      "name": "getUserVouchers",
      "outputs": [
        {
          "internalType": "uint256[]",
          "name": "",
          "type": "uint256[]"
        }
      ],
      "stateMutability": "view",
      "type": "function"
    },
    {
      "inputs": [
        {
          "internalType": "uint256",
          "name": "voucherId",
          "type": "uint256"
        }
      ],
      "name": "getVoucher",
      "outputs": [
        {
          "components": [
            {
              "internalType": "uint256",
              "name": "id",
              "type": "uint256"
            },
            {
              "internalType": "string",
              "name": "name",
              "type": "string"
            },
            {
              "internalType": "string",
              "name": "description",
              "type": "string"
            },
            {
              "internalType": "uint256",
              "name": "value",
              "type": "uint256"
            },
            {
              "internalType": "string",
              "name": "tier",
              "type": "string"
            },
            {
              "internalType": "string",
              "name": "type_",
              "type": "string"
            },
            {
              "internalType": "uint256",
              "name": "maxUses",
              "type": "uint256"
            },
            {
              "internalType": "uint256",
              "name": "currentUses",
              "type": "uint256"
            },
            {
              "internalType": "bool",
              "name": "isActive",
              "type": "bool"
            },
            {
              "internalType": "address",
              "name": "creator",
              "type": "address"
            },
            {
              "internalType": "uint256",
              "name": "createdAt",
              "type": "uint256"
            }
          ],
          "internalType": "struct VoucherManagerV2.Voucher",
          "name": "",
          "type": "tuple"
        }
      ],
      "stateMutability": "view",
      "type": "function"
    },
    {
      "inputs": [
        {
          "internalType": "string",
          "name": "qrCode",
          "type": "string"
        }
      ],
      "name": "getVoucherByQRCode",
      "outputs": [
        {
          "components": [
            {
              "internalType": "uint256",
              "name": "id",
              "type": "uint256"
            },
            {
              "internalType": "string",
              "name": "name",
              "type": "string"
            },
            {
              "internalType": "string",
              "name": "description",
              "type": "string"
            },
            {
              "internalType": "uint256",
              "name": "value",
              "type": "uint256"
            },
            {
              "internalType": "string",
              "name": "tier",
              "type": "string"
            },
            {
              "internalType": "string",
              "name": "type_",
              "type": "string"
            },
            {
              "internalType": "uint256",
              "name": "maxUses",
              "type": "uint256"
            },
            {
              "internalType": "uint256",
              "name": "currentUses",
              "type": "uint256"
            },
            {
              "internalType": "bool",
              "name": "isActive",
              "type": "bool"
            },
            {
              "internalType": "address",
              "name": "creator",
              "type": "address"
            },
            {
              "internalType": "uint256",
              "name": "createdAt",
              "type": "uint256"
            }
          ],
          "internalType": "struct VoucherManagerV2.Voucher",
          "name": "",
          "type": "tuple"
        }
      ],
      "stateMutability": "view",
      "type": "function"
    },
    {
      "inputs": [
        {
          "internalType": "bytes32",
          "name": "role",
          "type": "bytes32"
        },
        {
          "internalType": "address",
          "name": "account",
          "type": "address"
        }
      ],
      "name": "grantRole",
      "outputs": [],
      "stateMutability": "nonpayable",
      "type": "function"
    },
    {
      "inputs": [
        {
          "internalType": "bytes32",
          "name": "role",
          "type": "bytes32"
        },
        {
          "internalType": "address",
          "name": "account",
          "type": "address"
        }
      ],
      "name": "hasRole",
      "outputs": [
        {
          "internalType": "bool",
          "name": "",
          "type": "bool"
        }
      ],
      "stateMutability": "view",
      "type": "function"
    },
    {
      "inputs": [],
      "name": "initialize",
      "outputs": [],
      "stateMutability": "nonpayable",
      "type": "function"
    },
    {
      "inputs": [
        {
          "internalType": "uint256",
          "name": "voucherId",
          "type": "uint256"
        }
      ],
      "name": "isVoucherValid",
      "outputs": [
        {
          "internalType": "bool",
          "name": "",
          "type": "bool"
        }
      ],
      "stateMutability": "view",
      "type": "function"
    },
    {
      "inputs": [],
      "name": "nextVoucherId",
      "outputs": [
        {
          "internalType": "uint256",
          "name": "",
          "type": "uint256"
        }
      ],
      "stateMutability": "view",
      "type": "function"
    },
    {
      "inputs": [],
      "name": "proxiableUUID",
      "outputs": [
        {
          "internalType": "bytes32",
          "name": "",
          "type": "bytes32"
        }
      ],
      "stateMutability": "view",
      "type": "function"
    },
    {
      "inputs": [
        {
          "internalType": "string",
          "name": "",
          "type": "string"
        }
      ],
      "name": "qrCodeToVoucherId",
      "outputs": [
        {
          "internalType": "uint256",
          "name": "",
          "type": "uint256"
        }
      ],
      "stateMutability": "view",
      "type": "function"
    },
    {
      "inputs": [
        {
          "internalType": "bytes32",
          "name": "role",
          "type": "bytes32"
        },
        {
          "internalType": "address",
          "name": "callerConfirmation",
          "type": "address"
        }
      ],
      "name": "renounceRole",
      "outputs": [],
      "stateMutability": "nonpayable",
      "type": "function"
    },
    {
      "inputs": [
        {
          "internalType": "bytes32",
          "name": "role",
          "type": "bytes32"
        },
        {
          "internalType": "address",
          "name": "account",
          "type": "address"
        }
      ],
      "name": "revokeRole",
      "outputs": [],
      "stateMutability": "nonpayable",
      "type": "function"
    },
    {
      "inputs": [
        {
          "internalType": "bytes4",
          "name": "interfaceId",
          "type": "bytes4"
        }
      ],
      "name": "supportsInterface",
      "outputs": [
        {
          "internalType": "bool",
          "name": "",
          "type": "bool"
        }
      ],
      "stateMutability": "view",
      "type": "function"
    },
    {
      "inputs": [
        {
          "internalType": "address",
          "name": "newImplementation",
          "type": "address"
        },
        {
          "internalType": "bytes",
          "name": "data",
          "type": "bytes"
        }
      ],
      "name": "upgradeToAndCall",
      "outputs": [],
      "stateMutability": "payable",
      "type": "function"
    },
    {
      "inputs": [
        {
          "internalType": "uint256",
          "name": "voucherId",
          "type": "uint256"
        }
      ],
      "name": "useVoucher",
      "outputs": [],
      "stateMutability": "nonpayable",
      "type": "function"
    },
    {
      "inputs": [
        {
          "internalType": "string",
          "name": "qrCode",
          "type": "string"
        }
      ],
      "name": "useVoucherByQRCode",
      "outputs": [],
      "stateMutability": "nonpayable",
      "type": "function"
    },
    {
      "inputs": [
        {
          "internalType": "address",
          "name": "",
          "type": "address"
        },
        {
          "internalType": "uint256",
          "name": "",
          "type": "uint256"
        }
      ],
      "name": "userVouchers",
      "outputs": [
        {
          "internalType": "uint256",
          "name": "",
          "type": "uint256"
        }
      ],
      "stateMutability": "view",
      "type": "function"
    },
    {
      "inputs": [],
      "name": "version",
      "outputs": [
        {
          "internalType": "string",
          "name": "",
          "type": "string"
        }
      ],
      "stateMutability": "pure",
      "type": "function"
    },
    {
      "inputs": [
        {
          "internalType": "uint256",
          "name": "",
          "type": "uint256"
        }
      ],
      "name": "vouchers",
      "outputs": [
        {
          "internalType": "uint256",
          "name": "id",
          "type": "uint256"
        },
        {
          "internalType": "string",
          "name": "name",
          "type": "string"
        },
        {
          "internalType": "string",
          "name": "description",
          "type": "string"
        },
        {
          "internalType": "uint256",
          "name": "value",
          "type": "uint256"
        },
        {
          "internalType": "string",
          "name": "tier",
          "type": "string"
        },
        {
          "internalType": "string",
          "name": "type_",
          "type": "string"
        },
        {
          "internalType": "uint256",
          "name": "maxUses",
          "type": "uint256"
        },
        {
          "internalType": "uint256",
          "name": "currentUses",
          "type": "uint256"
        },
        {
          "internalType": "bool",
          "name": "isActive",
          "type": "bool"
        },
        {
          "internalType": "address",
          "name": "creator",
          "type": "address"
        },
        {
          "internalType": "uint256",
          "name": "createdAt",
          "type": "uint256"
        }
      ],
      "stateMutability": "view",
      "type": "function"
    }
  ],
  "bytecode": "0x60a06040523060805234801561001457600080fd5b5061001d610022565b6100d4565b7ff0c57e16840df040f15088dc2f81fe391c3923bec73e23a9662efc9c229c6a00805468010000000000000000900460ff16156100725760405163f92ee8a960e01b815260040160405180910390fd5b80546001600160401b03908116146100d15780546001600160401b0319166001600160401b0390811782556040519081527fc7f505b2f371ae2175ee4913f4499e1f2633a7b5936321eed1cdaeb6115181d29060200160405180910390a15b50565b6080516126236100fd600039600081816119a2015281816119cb0152611b1101526126236000f3fe6080604052600436106101665760003560e01c806366bab42a116100d1578063a217fddf1161008a578063d547741f11610064578063d547741f14610473578063e3856b0014610493578063f91ce77e146104a8578063fe7c7bcf146104c857600080fd5b8063a217fddf1461040d578063ad3cb1cc14610422578063c9caa9ed1461045357600080fd5b806366bab42a146103405780638129fc1c1461037857806384ac51b51461038d57806391d14854146103ad5780639b52b431146103cd5780639f48bc9d146103ed57600080fd5b806336568abe1161012357806336568abe1461026a5780633e97b43f1461028a5780634f1ef286146102c157806352d1902d146102d457806354fd4d50146102e95780636200ee7a1461032057600080fd5b806301ffc9a71461016b5780630cfa2fd8146101a0578063248a9ca3146101cd578063278fd07a146101fb5780632d211e951461021b5780632f2ff15d14610248575b600080fd5b34801561017757600080fd5b5061018b610186366004611e96565b6104de565b60405190151581526020015b60405180910390f35b3480156101ac57600080fd5b506101c06101bb366004611ec0565b610515565b6040516101979190611f29565b3480156101d957600080fd5b506101ed6101e8366004611ec0565b61080f565b604051908152602001610197565b34801561020757600080fd5b506101c06102163660046120bf565b610831565b34801561022757600080fd5b5061023b610236366004612118565b610b3c565b6040516101979190612133565b34801561025457600080fd5b50610268610263366004612176565b610ba8565b005b34801561027657600080fd5b50610268610285366004612176565b610bca565b34801561029657600080fd5b506102aa6102a5366004611ec0565b610c02565b6040516101979b9a999897969594939291906121a2565b6102686102cf366004612238565b610e84565b3480156102e057600080fd5b506101ed610ea3565b3480156102f557600080fd5b506040805180820190915260058152640322e302e360dc1b60208201525b604051610197919061229a565b34801561032c57600080fd5b5061018b61033b366004611ec0565b610ec0565b34801561034c57600080fd5b506101ed61035b3660046120bf565b805160208183018101805160028252928201919093012091525481565b34801561038457600080fd5b506102686111a5565b34801561039957600080fd5b506102686103a8366004611ec0565b6112c0565b3480156103b957600080fd5b5061018b6103c8366004612176565b6113ea565b3480156103d957600080fd5b506102686103e8366004611ec0565b611422565b3480156103f957600080fd5b506102686104083660046120bf565b61149e565b34801561041957600080fd5b506101ed600081565b34801561042e57600080fd5b50610313604051806040016040528060058152602001640352e302e360dc1b81525081565b34801561045f57600080fd5b506101ed61046e3660046122ad565b61160c565b34801561047f57600080fd5b5061026861048e366004612176565b611809565b34801561049f57600080fd5b506101ed611825565b3480156104b457600080fd5b506101ed6104c33660046123ac565b61183b565b3480156104d457600080fd5b506101ed60035481565b60006001600160e01b03198216637965db0b60e01b148061050f57506301ffc9a760e01b6001600160e01b03198316145b92915050565b61051d611e31565b600082815260208190526040812054900361055357604051637ecba32960e01b8152600481018390526024015b60405180910390fd5b6000828152602081815260409182902082516101608101909352805483526001810180549192840191610585906123d6565b80601f01602080910402602001604051908101604052809291908181526020018280546105b1906123d6565b80156105fe5780601f106105d3576101008083540402835291602001916105fe565b820191906000526020600020905b8154815290600101906020018083116105e157829003601f168201915b50505050508152602001600282018054610617906123d6565b80601f0160208091040260200160405190810160405280929190818152602001828054610643906123d6565b80156106905780601f1061066557610100808354040283529160200191610690565b820191906000526020600020905b81548152906001019060200180831161067357829003601f168201915b50505050508152602001600382015481526020016004820180546106b3906123d6565b80601f01602080910402602001604051908101604052809291908181526020018280546106df906123d6565b801561072c5780601f106107015761010080835404028352916020019161072c565b820191906000526020600020905b81548152906001019060200180831161070f57829003601f168201915b50505050508152602001600582018054610745906123d6565b80601f0160208091040260200160405190810160405280929190818152602001828054610771906123d6565b80156107be5780601f10610793576101008083540402835291602001916107be565b820191906000526020600020905b8154815290600101906020018083116107a157829003601f168201915b50505091835250506006820154602082015260078201546040820152600882015460ff81161515606083015261010090046001600160a01b0316608082015260099091015460a09091015292915050565b60009081526000805160206125ae833981519152602052604090206001015490565b610839611e31565b600060028360405161084b9190612410565b90815260200160405180910390205490508060000361087f5782604051638f7b790560e01b815260040161054a919061229a565b60008181526020818152604091829020825161016081019093528054835260018101805491928401916108b1906123d6565b80601f01602080910402602001604051908101604052809291908181526020018280546108dd906123d6565b801561092a5780601f106108ff5761010080835404028352916020019161092a565b820191906000526020600020905b81548152906001019060200180831161090d57829003601f168201915b50505050508152602001600282018054610943906123d6565b80601f016020809104026020016040519081016040528092919081815260200182805461096f906123d6565b80156109bc5780601f10610991576101008083540402835291602001916109bc565b820191906000526020600020905b81548152906001019060200180831161099f57829003601f168201915b50505050508152602001600382015481526020016004820180546109df906123d6565b80601f0160208091040260200160405190810160405280929190818152602001828054610a0b906123d6565b8015610a585780601f10610a2d57610100808354040283529160200191610a58565b820191906000526020600020905b815481529060010190602001808311610a3b57829003601f168201915b50505050508152602001600582018054610a71906123d6565b80601f0160208091040260200160405190810160405280929190818152602001828054610a9d906123d6565b8015610aea5780601f10610abf57610100808354040283529160200191610aea565b820191906000526020600020905b815481529060010190602001808311610acd57829003601f168201915b50505091835250506006820154602082015260078201546040820152600882015460ff81161515606083015261010090046001600160a01b0316608082015260099091015460a0909101529392505050565b6001600160a01b038116600090815260016020908152604091829020805483518184028101840190945280845260609392830182828015610b9c57602002820191906000526020600020905b815481526020019060010190808311610b88575b50505050509050919050565b610bb18261080f565b610bba8161186c565b610bc48383611876565b50505050565b6001600160a01b0381163314610bf35760405163334bd91960e11b815260040160405180910390fd5b610bfd828261191b565b505050565b60006020819052908152604090208054600182018054919291610c24906123d6565b80601f0160208091040260200160405190810160405280929190818152602001828054610c50906123d6565b8015610c9d5780601f10610c7257610100808354040283529160200191610c9d565b820191906000526020600020905b815481529060010190602001808311610c8057829003601f168201915b505050505090806002018054610cb2906123d6565b80601f0160208091040260200160405190810160405280929190818152602001828054610cde906123d6565b8015610d2b5780601f10610d0057610100808354040283529160200191610d2b565b820191906000526020600020905b815481529060010190602001808311610d0e57829003601f168201915b505050505090806003015490806004018054610d46906123d6565b80601f0160208091040260200160405190810160405280929190818152602001828054610d72906123d6565b8015610dbf5780601f10610d9457610100808354040283529160200191610dbf565b820191906000526020600020905b815481529060010190602001808311610da257829003601f168201915b505050505090806005018054610dd4906123d6565b80601f0160208091040260200160405190810160405280929190818152602001828054610e00906123d6565b8015610e4d5780601f10610e2257610100808354040283529160200191610e4d565b820191906000526020600020905b815481529060010190602001808311610e3057829003601f168201915b505050506006830154600784015460088501546009909501549394919390925060ff82169161010090046001600160a01b0316908b565b610e8c611997565b610e9582611a3e565b610e9f8282611a49565b5050565b6000610ead611b06565b5060008051602061258e83398151915290565b6000818152602081815260408083208151610160810190925280548252600181018054859484019190610ef2906123d6565b80601f0160208091040260200160405190810160405280929190818152602001828054610f1e906123d6565b8015610f6b5780601f10610f4057610100808354040283529160200191610f6b565b820191906000526020600020905b815481529060010190602001808311610f4e57829003601f168201915b50505050508152602001600282018054610f84906123d6565b80601f0160208091040260200160405190810160405280929190818152602001828054610fb0906123d6565b8015610ffd5780601f10610fd257610100808354040283529160200191610ffd565b820191906000526020600020905b815481529060010190602001808311610fe057829003601f168201915b5050505050815260200160038201548152602001600482018054611020906123d6565b80601f016020809104026020016040519081016040528092919081815260200182805461104c906123d6565b80156110995780601f1061106e57610100808354040283529160200191611099565b820191906000526020600020905b81548152906001019060200180831161107c57829003601f168201915b505050505081526020016005820180546110b2906123d6565b80601f01602080910402602001604051908101604052809291908181526020018280546110de906123d6565b801561112b5780601f106111005761010080835404028352916020019161112b565b820191906000526020600020905b81548152906001019060200180831161110e57829003601f168201915b50505091835250506006820154602082015260078201546040820152600882015460ff81161515606083015261010090046001600160a01b0316608082015260099091015460a09091015280519091501580159061118b57508061010001515b801561119e57508060c001518160e00151105b9392505050565b60006111af611b4f565b805490915060ff600160401b820416159067ffffffffffffffff166000811580156111d75750825b905060008267ffffffffffffffff1660011480156111f45750303b155b905081158015611202575080155b156112205760405163f92ee8a960e01b815260040160405180910390fd5b845467ffffffffffffffff19166001178555831561124a57845460ff60401b1916600160401b1785555b611252611b78565b61125a611b78565b611262611b80565b61126d600033611876565b50600160035583156112b957845460ff60401b19168555604051600181527fc7f505b2f371ae2175ee4913f4499e1f2633a7b5936321eed1cdaeb6115181d29060200160405180910390a15b5050505050565b6112c8611b90565b600081815260208190526040812080549091036112fb57604051637ecba32960e01b81526004810183905260240161054a565b600881015460ff1661132357604051630ab7e87b60e01b81526004810183905260240161054a565b806006015481600701541061134e5760405163d549d60160e01b81526004810183905260240161054a565b60078101805490600061136083612442565b90915550503360008181526001602081815260408320805492830181558352909120018390556007820154600683015484917f7b6f41a7ebae9ed4a1e9a52a100d2846f17583555c38db2d37ca80229d1a0df7916113be919061245b565b60405190815260200160405180910390a3506113e760016000805160206125ce83398151915255565b50565b60009182526000805160206125ae833981519152602090815260408084206001600160a01b0393909316845291905290205460ff1690565b600061142d8161186c565b6000828152602081905260408120805490910361146057604051637ecba32960e01b81526004810184905260240161054a565b60088101805460ff19169055604051339084907f838c33bf16e205d45e6b726dba4395a590a91a01794d31a2e638d85627dfbe2490600090a3505050565b6114a6611b90565b60006002826040516114b89190612410565b9081526020016040518091039020549050806000036114ec5781604051638f7b790560e01b815260040161054a919061229a565b6000818152602081905260408120805490910361151f57604051637ecba32960e01b81526004810183905260240161054a565b600881015460ff1661154757604051630ab7e87b60e01b81526004810183905260240161054a565b80600601548160070154106115725760405163d549d60160e01b81526004810183905260240161054a565b60078101805490600061158483612442565b90915550503360008181526001602081815260408320805492830181558352909120018390556007820154600683015484917f7b6f41a7ebae9ed4a1e9a52a100d2846f17583555c38db2d37ca80229d1a0df7916115e2919061245b565b60405190815260200160405180910390a350506113e760016000805160206125ce83398151915255565b6000806116188161186c565b600380546000918261162983612442565b90915550604080516101608101825282815260208082018e81528284018e9052606083018d9052608083018c905260a083018b905260c083018a9052600060e0840181905260016101008501819052336101208601524261014086015286825292819052939093208251815592519394509092908201906116aa90826124b5565b50604082015160028201906116bf90826124b5565b5060608201516003820155608082015160048201906116de90826124b5565b5060a082015160058201906116f390826124b5565b5060c0820151600682015560e08201516007820155610100808301516008830180546101208601516001600160a81b0319909116921515610100600160a81b031916929092176001600160a01b03909216909202179055610140909101516009909101558351156117ba578060028560405161176f9190612410565b908152602001604051809103902081905550807f5180bc518c3d0a2db96a7a63b3818add6332f47e06e42e9059fc2b508727eede856040516117b1919061229a565b60405180910390a25b336001600160a01b0316817fcf95a09019e2f49ebbb3d85efd07c0ed41c2cb90b17acf90618a6acdae6f0e328c6040516117f4919061229a565b60405180910390a39998505050505050505050565b6118128261080f565b61181b8161186c565b610bc4838361191b565b60006001600354611836919061245b565b905090565b6001602052816000526040600020818154811061185757600080fd5b90600052602060002001600091509150505481565b6113e78133611bdc565b60006000805160206125ae83398151915261189184846113ea565b611911576000848152602082815260408083206001600160a01b03871684529091529020805460ff191660011790556118c73390565b6001600160a01b0316836001600160a01b0316857f2f8788117e7eff1d82e926ec794901d17c78024a50270940304540a733656f0d60405160405180910390a4600191505061050f565b600091505061050f565b60006000805160206125ae83398151915261193684846113ea565b15611911576000848152602082815260408083206001600160a01b0387168085529252808320805460ff1916905551339287917ff6391f5c32d9c69d2a47ea670b442974b53935d1edc7fd64eb21e047a839171b9190a4600191505061050f565b306001600160a01b037f0000000000000000000000000000000000000000000000000000000000000000161480611a1e57507f00000000000000000000000000000000000000000000000000000000000000006001600160a01b0316611a1260008051602061258e833981519152546001600160a01b031690565b6001600160a01b031614155b15611a3c5760405163703e46dd60e11b815260040160405180910390fd5b565b6000610e9f8161186c565b816001600160a01b03166352d1902d6040518163ffffffff1660e01b8152600401602060405180830381865afa925050508015611aa3575060408051601f3d908101601f19168201909252611aa091810190612574565b60015b611acb57604051634c9c8ce360e01b81526001600160a01b038316600482015260240161054a565b60008051602061258e8339815191528114611afc57604051632a87526960e21b81526004810182905260240161054a565b610bfd8383611c15565b306001600160a01b037f00000000000000000000000000000000000000000000000000000000000000001614611a3c5760405163703e46dd60e11b815260040160405180910390fd5b6000807ff0c57e16840df040f15088dc2f81fe391c3923bec73e23a9662efc9c229c6a0061050f565b611a3c611c6b565b611b88611c6b565b611a3c611c90565b6000805160206125ce833981519152805460011901611bc257604051633ee5aeb560e01b815260040160405180910390fd5b60029055565b60016000805160206125ce83398151915255565b611be682826113ea565b610e9f5760405163e2517d3f60e01b81526001600160a01b03821660048201526024810183905260440161054a565b611c1e82611c98565b6040516001600160a01b038316907fbc7cd75a20ee27fd9adebab32041f755214dbc6bffa90cc0225b39da2e5c2d3b90600090a2805115611c6357610bfd8282611cfd565b610e9f611d73565b611c73611d92565b611a3c57604051631afcd79f60e31b815260040160405180910390fd5b611bc8611c6b565b806001600160a01b03163b600003611cce57604051634c9c8ce360e01b81526001600160a01b038216600482015260240161054a565b60008051602061258e83398151915280546001600160a01b0319166001600160a01b0392909216919091179055565b6060600080846001600160a01b031684604051611d1a9190612410565b600060405180830381855af49150503d8060008114611d55576040519150601f19603f3d011682016040523d82523d6000602084013e611d5a565b606091505b5091509150611d6a858383611dac565b95945050505050565b3415611a3c5760405163b398979f60e01b815260040160405180910390fd5b6000611d9c611b4f565b54600160401b900460ff16919050565b606082611dc157611dbc82611e08565b61119e565b8151158015611dd857506001600160a01b0384163b155b15611e0157604051639996b31560e01b81526001600160a01b038516600482015260240161054a565b5092915050565b805115611e185780518082602001fd5b60405163d6bda27560e01b815260040160405180910390fd5b604051806101600160405280600081526020016060815260200160608152602001600081526020016060815260200160608152602001600081526020016000815260200160001515815260200160006001600160a01b03168152602001600081525090565b600060208284031215611ea857600080fd5b81356001600160e01b03198116811461119e57600080fd5b600060208284031215611ed257600080fd5b5035919050565b60005b83811015611ef4578181015183820152602001611edc565b50506000910152565b60008151808452611f15816020860160208601611ed9565b601f01601f19169290920160200192915050565b6020815281516020820152600060208301516101606040840152611f51610180840182611efd565b90506040840151601f19848303016060850152611f6e8282611efd565b915050606084015160808401526080840151601f198483030160a0850152611f968282611efd565b91505060a0840151601f198483030160c0850152611fb48282611efd565b91505060c084015160e084015260e0840151610100840152610100840151611fe161012085018215159052565b506101208401516001600160a01b038116610140850152506101408401516101608401528091505092915050565b634e487b7160e01b600052604160045260246000fd5b60008067ffffffffffffffff8411156120405761204061200f565b50604051601f19601f85018116603f0116810181811067ffffffffffffffff8211171561206f5761206f61200f565b60405283815290508082840185101561208757600080fd5b83836020830137600060208583010152509392505050565b600082601f8301126120b057600080fd5b61119e83833560208501612025565b6000602082840312156120d157600080fd5b813567ffffffffffffffff8111156120e857600080fd5b6120f48482850161209f565b949350505050565b80356001600160a01b038116811461211357600080fd5b919050565b60006020828403121561212a57600080fd5b61119e826120fc565b602080825282518282018190526000918401906040840190835b8181101561216b57835183526020938401939092019160010161214d565b509095945050505050565b6000806040838503121561218957600080fd5b82359150612199602084016120fc565b90509250929050565b8b8152610160602082015260006121bd61016083018d611efd565b82810360408401526121cf818d611efd565b90508a606084015282810360808401526121e9818b611efd565b905082810360a08401526121fd818a611efd565b60c0840198909852505060e08101949094529115156101008401526001600160a01b0316610120830152610140909101529695505050505050565b6000806040838503121561224b57600080fd5b612254836120fc565b9150602083013567ffffffffffffffff81111561227057600080fd5b8301601f8101851361228157600080fd5b61229085823560208401612025565b9150509250929050565b60208152600061119e6020830184611efd565b600080600080600080600060e0888a0312156122c857600080fd5b873567ffffffffffffffff8111156122df57600080fd5b6122eb8a828b0161209f565b975050602088013567ffffffffffffffff81111561230857600080fd5b6123148a828b0161209f565b96505060408801359450606088013567ffffffffffffffff81111561233857600080fd5b6123448a828b0161209f565b945050608088013567ffffffffffffffff81111561236157600080fd5b61236d8a828b0161209f565b93505060a0880135915060c088013567ffffffffffffffff81111561239157600080fd5b61239d8a828b0161209f565b91505092959891949750929550565b600080604083850312156123bf57600080fd5b6123c8836120fc565b946020939093013593505050565b600181811c908216806123ea57607f821691505b60208210810361240a57634e487b7160e01b600052602260045260246000fd5b50919050565b60008251612422818460208701611ed9565b9190910192915050565b634e487b7160e01b600052601160045260246000fd5b6000600182016124545761245461242c565b5060010190565b8181038181111561050f5761050f61242c565b601f821115610bfd57806000526020600020601f840160051c810160208510156124955750805b601f840160051c820191505b818110156112b957600081556001016124a1565b815167ffffffffffffffff8111156124cf576124cf61200f565b6124e3816124dd84546123d6565b8461246e565b6020601f82116001811461251757600083156124ff5750848201515b600019600385901b1c1916600184901b1784556112b9565b600084815260208120601f198516915b828110156125475787850151825560209485019460019092019101612527565b50848210156125655786840151600019600387901b60f8161c191681555b50505050600190811b01905550565b60006020828403121561258657600080fd5b505191905056fe360894a13ba1a3210667c828492db98dca3e2076cc3735a920a3ca505d382bbc02dd7bc7dec4dceedda775e58dd541e08a116c6c53815c0bd028192f7b6268009b779b17422d0df92223018b32b4d1fa46e071723d6817e2486d003becc55f00a2646970667358221220c5e5434f9a6bfa8f75b84cb9516e35fe6f7db279e2ee0181aff511289044895d64736f6c634300081c0033",
  "linkReferences": {},
  "deployedLinkReferences": {}
}