{"contracts/PADTokenV3.sol":{"PADTokenV3":{"abi":[{"inputs":[],"name":"AccessControlBadConfirmation","type":"error"},{"inputs":[{"internalType":"address","name":"account","type":"address"},{"internalType":"bytes32","name":"neededRole","type":"bytes32"}],"name":"AccessControlUnauthorizedAccount","type":"error"},{"inputs":[{"internalType":"address","name":"target","type":"address"}],"name":"AddressEmptyCode","type":"error"},{"inputs":[{"internalType":"address","name":"account","type":"address"}],"name":"AddressIsBlacklisted","type":"error"},{"inputs":[{"internalType":"address","name":"account","type":"address"},{"internalType":"uint256","name":"cooldown","type":"uint256"}],"name":"CooldownNotExpired","type":"error"},{"inputs":[],"name":"ECDSAInvalidSignature","type":"error"},{"inputs":[{"internalType":"uint256","name":"length","type":"uint256"}],"name":"ECDSAInvalidSignatureLength","type":"error"},{"inputs":[{"internalType":"bytes32","name":"s","type":"bytes32"}],"name":"ECDSAInvalidSignatureS","type":"error"},{"inputs":[{"internalType":"address","name":"implementation","type":"address"}],"name":"ERC1967InvalidImplementation","type":"error"},{"inputs":[],"name":"ERC1967NonPayable","type":"error"},{"inputs":[{"internalType":"address","name":"spender","type":"address"},{"internalType":"uint256","name":"allowance","type":"uint256"},{"internalType":"uint256","name":"needed","type":"uint256"}],"name":"ERC20InsufficientAllowance","type":"error"},{"inputs":[{"internalType":"address","name":"sender","type":"address"},{"internalType":"uint256","name":"balance","type":"uint256"},{"internalType":"uint256","name":"needed","type":"uint256"}],"name":"ERC20InsufficientBalance","type":"error"},{"inputs":[{"internalType":"address","name":"approver","type":"address"}],"name":"ERC20InvalidApprover","type":"error"},{"inputs":[{"internalType":"address","name":"receiver","type":"address"}],"name":"ERC20InvalidReceiver","type":"error"},{"inputs":[{"internalType":"address","name":"sender","type":"address"}],"name":"ERC20InvalidSender","type":"error"},{"inputs":[{"internalType":"address","name":"spender","type":"address"}],"name":"ERC20InvalidSpender","type":"error"},{"inputs":[{"internalType":"uint256","name":"deadline","type":"uint256"}],"name":"ERC2612ExpiredSignature","type":"error"},{"inputs":[{"internalType":"address","name":"signer","type":"address"},{"internalType":"address","name":"owner","type":"address"}],"name":"ERC2612InvalidSigner","type":"error"},{"inputs":[],"name":"EnforcedPause","type":"error"},{"inputs":[],"name":"ExpectedPause","type":"error"},{"inputs":[],"name":"FailedCall","type":"error"},{"inputs":[{"internalType":"address","name":"account","type":"address"},{"internalType":"uint256","name":"currentNonce","type":"uint256"}],"name":"InvalidAccountNonce","type":"error"},{"inputs":[],"name":"InvalidInitialization","type":"error"},{"inputs":[],"name":"NotInitializing","type":"error"},{"inputs":[],"name":"UUPSUnauthorizedCallContext","type":"error"},{"inputs":[{"internalType":"bytes32","name":"slot","type":"bytes32"}],"name":"UUPSUnsupportedProxiableUUID","type":"error"},{"anonymous":false,"inputs":[{"indexed":true,"internalType":"address","name":"account","type":"address"},{"indexed":true,"internalType":"address","name":"admin","type":"address"}],"name":"AddressBlacklisted","type":"event"},{"anonymous":false,"inputs":[{"indexed":true,"internalType":"address","name":"account","type":"address"},{"indexed":true,"internalType":"address","name":"admin","type":"address"}],"name":"AddressRemovedFromBlacklist","type":"event"},{"anonymous":false,"inputs":[{"indexed":true,"internalType":"address","name":"owner","type":"address"},{"indexed":true,"internalType":"address","name":"spender","type":"address"},{"indexed":false,"internalType":"uint256","name":"value","type":"uint256"}],"name":"Approval","type":"event"},{"anonymous":false,"inputs":[{"indexed":false,"internalType":"uint256","name":"oldPeriod","type":"uint256"},{"indexed":false,"internalType":"uint256","name":"newPeriod","type":"uint256"}],"name":"CooldownPeriodUpdated","type":"event"},{"anonymous":false,"inputs":[{"indexed":true,"internalType":"address","name":"account","type":"address"},{"indexed":false,"internalType":"uint256","name":"cooldown","type":"uint256"}],"name":"CooldownSet","type":"event"},{"anonymous":false,"inputs":[],"name":"EIP712DomainChanged","type":"event"},{"anonymous":false,"inputs":[{"indexed":true,"internalType":"address","name":"oldSafe","type":"address"},{"indexed":true,"internalType":"address","name":"newSafe","type":"address"}],"name":"GnosisSafeUpdated","type":"event"},{"anonymous":false,"inputs":[{"indexed":false,"internalType":"uint64","name":"version","type":"uint64"}],"name":"Initialized","type":"event"},{"anonymous":false,"inputs":[{"indexed":false,"internalType":"address","name":"account","type":"address"}],"name":"Paused","type":"event"},{"anonymous":false,"inputs":[{"indexed":true,"internalType":"bytes32","name":"role","type":"bytes32"},{"indexed":true,"internalType":"bytes32","name":"previousAdminRole","type":"bytes32"},{"indexed":true,"internalType":"bytes32","name":"newAdminRole","type":"bytes32"}],"name":"RoleAdminChanged","type":"event"},{"anonymous":false,"inputs":[{"indexed":true,"internalType":"bytes32","name":"role","type":"bytes32"},{"indexed":true,"internalType":"address","name":"account","type":"address"},{"indexed":true,"internalType":"address","name":"sender","type":"address"}],"name":"RoleGranted","type":"event"},{"anonymous":false,"inputs":[{"indexed":true,"internalType":"bytes32","name":"role","type":"bytes32"},{"indexed":true,"internalType":"address","name":"account","type":"address"},{"indexed":true,"internalType":"address","name":"sender","type":"address"}],"name":"RoleRevoked","type":"event"},{"anonymous":false,"inputs":[{"indexed":true,"internalType":"address","name":"from","type":"address"},{"indexed":true,"internalType":"address","name":"to","type":"address"},{"indexed":false,"internalType":"uint256","name":"value","type":"uint256"}],"name":"Transfer","type":"event"},{"anonymous":false,"inputs":[{"indexed":false,"internalType":"address","name":"account","type":"address"}],"name":"Unpaused","type":"event"},{"anonymous":false,"inputs":[{"indexed":true,"internalType":"address","name":"implementation","type":"address"}],"name":"Upgraded","type":"event"},{"inputs":[],"name":"DEFAULT_ADMIN_ROLE","outputs":[{"internalType":"bytes32","name":"","type":"bytes32"}],"stateMutability":"view","type":"function"},{"inputs":[],"name":"DOMAIN_SEPARATOR","outputs":[{"internalType":"bytes32","name":"","type":"bytes32"}],"stateMutability":"view","type":"function"},{"inputs":[],"name":"MINTER_ROLE","outputs":[{"internalType":"bytes32","name":"","type":"bytes32"}],"stateMutability":"view","type":"function"},{"inputs":[],"name":"PAUSER_ROLE","outputs":[{"internalType":"bytes32","name":"","type":"bytes32"}],"stateMutability":"view","type":"function"},{"inputs":[],"name":"UPGRADE_INTERFACE_VERSION","outputs":[{"internalType":"string","name":"","type":"string"}],"stateMutability":"view","type":"function"},{"inputs":[{"internalType":"address","name":"account","type":"address"}],"name":"addToBlacklist","outputs":[],"stateMutability":"nonpayable","type":"function"},{"inputs":[{"internalType":"address","name":"owner","type":"address"},{"internalType":"address","name":"spender","type":"address"}],"name":"allowance","outputs":[{"internalType":"uint256","name":"","type":"uint256"}],"stateMutability":"view","type":"function"},{"inputs":[{"internalType":"address","name":"spender","type":"address"},{"internalType":"uint256","name":"value","type":"uint256"}],"name":"approve","outputs":[{"internalType":"bool","name":"","type":"bool"}],"stateMutability":"nonpayable","type":"function"},{"inputs":[{"internalType":"address","name":"account","type":"address"}],"name":"balanceOf","outputs":[{"internalType":"uint256","name":"","type":"uint256"}],"stateMutability":"view","type":"function"},{"inputs":[{"internalType":"address[]","name":"accounts","type":"address[]"}],"name":"batchAddToBlacklist","outputs":[],"stateMutability":"nonpayable","type":"function"},{"inputs":[{"internalType":"address[]","name":"accounts","type":"address[]"}],"name":"batchRemoveFromBlacklist","outputs":[],"stateMutability":"nonpayable","type":"function"},{"inputs":[{"internalType":"address[]","name":"recipients","type":"address[]"},{"internalType":"uint256[]","name":"amounts","type":"uint256[]"}],"name":"batchTransfer","outputs":[],"stateMutability":"nonpayable","type":"function"},{"inputs":[],"name":"cooldownPeriod","outputs":[{"internalType":"uint256","name":"","type":"uint256"}],"stateMutability":"view","type":"function"},{"inputs":[{"internalType":"address","name":"","type":"address"}],"name":"cooldowns","outputs":[{"internalType":"uint256","name":"","type":"uint256"}],"stateMutability":"view","type":"function"},{"inputs":[],"name":"decimals","outputs":[{"internalType":"uint8","name":"","type":"uint8"}],"stateMutability":"view","type":"function"},{"inputs":[],"name":"eip712Domain","outputs":[{"internalType":"bytes1","name":"fields","type":"bytes1"},{"internalType":"string","name":"name","type":"string"},{"internalType":"string","name":"version","type":"string"},{"internalType":"uint256","name":"chainId","type":"uint256"},{"internalType":"address","name":"verifyingContract","type":"address"},{"internalType":"bytes32","name":"salt","type":"bytes32"},{"internalType":"uint256[]","name":"extensions","type":"uint256[]"}],"stateMutability":"view","type":"function"},{"inputs":[{"internalType":"address[]","name":"accounts","type":"address[]"}],"name":"getBlacklistStatus","outputs":[{"internalType":"bool[]","name":"statuses","type":"bool[]"}],"stateMutability":"view","type":"function"},{"inputs":[{"internalType":"bytes32","name":"role","type":"bytes32"}],"name":"getRoleAdmin","outputs":[{"internalType":"bytes32","name":"","type":"bytes32"}],"stateMutability":"view","type":"function"},{"inputs":[],"name":"gnosisSafe","outputs":[{"internalType":"address","name":"","type":"address"}],"stateMutability":"view","type":"function"},{"inputs":[{"internalType":"bytes32","name":"role","type":"bytes32"},{"internalType":"address","name":"account","type":"address"}],"name":"grantRole","outputs":[],"stateMutability":"nonpayable","type":"function"},{"inputs":[{"internalType":"bytes32","name":"role","type":"bytes32"},{"internalType":"address","name":"account","type":"address"}],"name":"hasRole","outputs":[{"internalType":"bool","name":"","type":"bool"}],"stateMutability":"view","type":"function"},{"inputs":[{"internalType":"uint256","name":"initialSupply","type":"uint256"}],"name":"initialize","outputs":[],"stateMutability":"nonpayable","type":"function"},{"inputs":[],"name":"initializeV3","outputs":[],"stateMutability":"nonpayable","type":"function"},{"inputs":[{"internalType":"address","name":"account","type":"address"}],"name":"isBlacklisted","outputs":[{"internalType":"bool","name":"","type":"bool"}],"stateMutability":"view","type":"function"},{"inputs":[],"name":"name","outputs":[{"internalType":"string","name":"","type":"string"}],"stateMutability":"view","type":"function"},{"inputs":[{"internalType":"address","name":"owner","type":"address"}],"name":"nonces","outputs":[{"internalType":"uint256","name":"","type":"uint256"}],"stateMutability":"view","type":"function"},{"inputs":[],"name":"pause","outputs":[],"stateMutability":"nonpayable","type":"function"},{"inputs":[],"name":"paused","outputs":[{"internalType":"bool","name":"","type":"bool"}],"stateMutability":"view","type":"function"},{"inputs":[{"internalType":"address","name":"owner","type":"address"},{"internalType":"address","name":"spender","type":"address"},{"internalType":"uint256","name":"value","type":"uint256"},{"internalType":"uint256","name":"deadline","type":"uint256"},{"internalType":"uint8","name":"v","type":"uint8"},{"internalType":"bytes32","name":"r","type":"bytes32"},{"internalType":"bytes32","name":"s","type":"bytes32"}],"name":"permit","outputs":[],"stateMutability":"nonpayable","type":"function"},{"inputs":[],"name":"proxiableUUID","outputs":[{"internalType":"bytes32","name":"","type":"bytes32"}],"stateMutability":"view","type":"function"},{"inputs":[{"internalType":"address","name":"account","type":"address"}],"name":"removeFromBlacklist","outputs":[],"stateMutability":"nonpayable","type":"function"},{"inputs":[{"internalType":"bytes32","name":"role","type":"bytes32"},{"internalType":"address","name":"callerConfirmation","type":"address"}],"name":"renounceRole","outputs":[],"stateMutability":"nonpayable","type":"function"},{"inputs":[{"internalType":"bytes32","name":"role","type":"bytes32"},{"internalType":"address","name":"account","type":"address"}],"name":"revokeRole","outputs":[],"stateMutability":"nonpayable","type":"function"},{"inputs":[{"internalType":"address","name":"account","type":"address"},{"internalType":"uint256","name":"cooldown","type":"uint256"}],"name":"setCooldown","outputs":[],"stateMutability":"nonpayable","type":"function"},{"inputs":[{"internalType":"uint256","name":"_cooldownPeriod","type":"uint256"}],"name":"setCooldownPeriod","outputs":[],"stateMutability":"nonpayable","type":"function"},{"inputs":[{"internalType":"address","name":"_gnosisSafe","type":"address"}],"name":"setGnosisSafe","outputs":[],"stateMutability":"nonpayable","type":"function"},{"inputs":[{"internalType":"bytes4","name":"interfaceId","type":"bytes4"}],"name":"supportsInterface","outputs":[{"internalType":"bool","name":"","type":"bool"}],"stateMutability":"view","type":"function"},{"inputs":[],"name":"symbol","outputs":[{"internalType":"string","name":"","type":"string"}],"stateMutability":"view","type":"function"},{"inputs":[],"name":"totalSupply","outputs":[{"internalType":"uint256","name":"","type":"uint256"}],"stateMutability":"view","type":"function"},{"inputs":[{"internalType":"address","name":"to","type":"address"},{"internalType":"uint256","name":"value","type":"uint256"}],"name":"transfer","outputs":[{"internalType":"bool","name":"","type":"bool"}],"stateMutability":"nonpayable","type":"function"},{"inputs":[{"internalType":"address","name":"from","type":"address"},{"internalType":"address","name":"to","type":"address"},{"internalType":"uint256","name":"value","type":"uint256"}],"name":"transferFrom","outputs":[{"internalType":"bool","name":"","type":"bool"}],"stateMutability":"nonpayable","type":"function"},{"inputs":[],"name":"unpause","outputs":[],"stateMutability":"nonpayable","type":"function"},{"inputs":[{"internalType":"address","name":"newImplementation","type":"address"},{"internalType":"bytes","name":"data","type":"bytes"}],"name":"upgradeToAndCall","outputs":[],"stateMutability":"payable","type":"function"},{"inputs":[],"name":"version","outputs":[{"internalType":"string","name":"","type":"string"}],"stateMutability":"pure","type":"function"}],"evm":{"bytecode":{"linkReferences":{},"object":"60a06040523060805234801561001457600080fd5b5061001d610022565b6100d4565b7ff0c57e16840df040f15088dc2f81fe391c3923bec73e23a9662efc9c229c6a00805468010000000000000000900460ff16156100725760405163f92ee8a960e01b815260040160405180910390fd5b80546001600160401b03908116146100d15780546001600160401b0319166001600160401b0390811782556040519081527fc7f505b2f371ae2175ee4913f4499e1f2633a7b5936321eed1cdaeb6115181d29060200160405180910390a15b50565b608051612d486100fd600039600081816118ae015281816118d70152611a1d0152612d486000f3fe6080604052600436106102675760003560e01c80637ecebe0011610144578063a9059cbb116100b6578063d547741f1161007a578063d547741f14610771578063d716265714610791578063dd62ed3e146107b1578063e63ab1e9146107d1578063fe4b84df146107f3578063fe575a871461081357600080fd5b8063a9059cbb146106ac578063ad3cb1cc146106cc578063c3085a3e146106fd578063d505accf1461071d578063d53913931461073d57600080fd5b806391d148541161010857806391d14854146105dd57806395d89b41146105fd5780639781a37e14610612578063a217fddf14610632578063a6ecc5cf14610647578063a84173ae1461067457600080fd5b80637ecebe001461054057806380ea3de1146105605780638456cb591461058057806384b0196e1461059557806388d695b2146105bd57600080fd5b806336568abe116101dd57806352d1902d116101a157806352d1902d14610478578063537df3b61461048d57806354fd4d50146104ad5780635c975abb146104db578063679d665f1461050057806370a082311461052057600080fd5b806336568abe146103fb57806338e454b11461041b5780633f4ba83a1461043057806344337ea1146104455780634f1ef2861461046557600080fd5b806318160ddd1161022f57806318160ddd1461033457806323b872dd14610368578063248a9ca3146103885780632f2ff15d146103a8578063313ce567146103ca5780633644e515146103e657600080fd5b806301320fe21461026c57806301ffc9a7146102ac57806304646a49146102dc57806306fdde03146102f2578063095ea7b314610314575b600080fd5b34801561027857600080fd5b506102996102873660046125eb565b60026020526000908152604090205481565b6040519081526020015b60405180910390f35b3480156102b857600080fd5b506102cc6102c7366004612606565b61084c565b60405190151581526020016102a3565b3480156102e857600080fd5b5061029960015481565b3480156102fe57600080fd5b50610307610883565b6040516102a39190612680565b34801561032057600080fd5b506102cc61032f366004612693565b61092c565b34801561034057600080fd5b507f52c63247e1f47db19d5ce0460030c497f067ca4cebf71ba98eeadabe20bace0254610299565b34801561037457600080fd5b506102cc6103833660046126bd565b610944565b34801561039457600080fd5b506102996103a33660046126fa565b61096a565b3480156103b457600080fd5b506103c86103c3366004612713565b61098c565b005b3480156103d657600080fd5b50604051601281526020016102a3565b3480156103f257600080fd5b506102996109ae565b34801561040757600080fd5b506103c8610416366004612713565b6109bd565b34801561042757600080fd5b506103c86109f5565b34801561043c57600080fd5b506103c8610aa7565b34801561045157600080fd5b506103c86104603660046125eb565b610aca565b6103c8610473366004612755565b610be8565b34801561048457600080fd5b50610299610c07565b34801561049957600080fd5b506103c86104a83660046125eb565b610c24565b3480156104b957600080fd5b506040805180820190915260058152640332e302e360dc1b6020820152610307565b3480156104e757600080fd5b50600080516020612cf38339815191525460ff166102cc565b34801561050c57600080fd5b506103c861051b366004612867565b610ce3565b34801561052c57600080fd5b5061029961053b3660046125eb565b610daf565b34801561054c57600080fd5b5061029961055b3660046125eb565b610de2565b34801561056c57600080fd5b506103c861057b3660046126fa565b610ded565b34801561058c57600080fd5b506103c8610e3e565b3480156105a157600080fd5b506105aa610e5e565b6040516102a397969594939291906128a8565b3480156105c957600080fd5b506103c86105d8366004612940565b610f0a565b3480156105e957600080fd5b506102cc6105f8366004612713565b610fb5565b34801561060957600080fd5b50610307610fed565b34801561061e57600080fd5b506103c861062d366004612693565b61102c565b34801561063e57600080fd5b50610299600081565b34801561065357600080fd5b50610667610662366004612867565b611091565b6040516102a391906129af565b34801561068057600080fd5b50600054610694906001600160a01b031681565b6040516001600160a01b0390911681526020016102a3565b3480156106b857600080fd5b506102cc6106c7366004612693565b611160565b3480156106d857600080fd5b50610307604051806040016040528060058152602001640352e302e360dc1b81525081565b34801561070957600080fd5b506103c86107183660046125eb565b61116e565b34801561072957600080fd5b506103c86107383660046129f4565b6111ca565b34801561074957600080fd5b506102997f9f2df0fed2c77648de5860a4cc508cd0818c85b8b8a1ab4ceeef8d981c8956a681565b34801561077d57600080fd5b506103c861078c366004612713565b611323565b34801561079d57600080fd5b506103c86107ac366004612867565b61133f565b3480156107bd57600080fd5b506102996107cc366004612a67565b6113f4565b3480156107dd57600080fd5b50610299600080516020612cb383398151915281565b3480156107ff57600080fd5b506103c861080e3660046126fa565b61143e565b34801561081f57600080fd5b506102cc61082e3660046125eb565b6001600160a01b031660009081526003602052604090205460ff1690565b60006001600160e01b03198216637965db0b60e01b148061087d57506301ffc9a760e01b6001600160e01b03198316145b92915050565b60606000600080516020612c538339815191525b90508060030180546108a890612a91565b80601f01602080910402602001604051908101604052809291908181526020018280546108d490612a91565b80156109215780601f106108f657610100808354040283529160200191610921565b820191906000526020600020905b81548152906001019060200180831161090457829003601f168201915b505050505091505090565b60003361093a818585611618565b5060019392505050565b600033610952858285611625565b61095d858585611686565b60019150505b9392505050565b6000908152600080516020612cd3833981519152602052604090206001015490565b6109958261096a565b61099e816116e5565b6109a883836116ef565b50505050565b60006109b8611794565b905090565b6001600160a01b03811633146109e65760405163334bd91960e11b815260040160405180910390fd5b6109f0828261179e565b505050565b60036000610a0161181a565b8054909150600160401b900460ff1680610a28575080546001600160401b03808416911610155b15610a465760405163f92ee8a960e01b815260040160405180910390fd5b805468ffffffffffffffffff19166001600160401b038316908117600160401b1760ff60401b191682556040519081527fc7f505b2f371ae2175ee4913f4499e1f2633a7b5936321eed1cdaeb6115181d29060200160405180910390a15050565b600080516020612cb3833981519152610abf816116e5565b610ac7611843565b50565b6000610ad5816116e5565b6001600160a01b038216610b305760405162461bcd60e51b815260206004820152601d60248201527f43616e6e6f7420626c61636b6c697374207a65726f206164647265737300000060448201526064015b60405180910390fd5b6001600160a01b03821660009081526003602052604090205460ff1615610b995760405162461bcd60e51b815260206004820152601b60248201527f4164647265737320616c726561647920626c61636b6c697374656400000000006044820152606401610b27565b6001600160a01b038216600081815260036020526040808220805460ff19166001179055513392917f4a740bebda0bde2baf1735e1b1fa93babe7a2bb77ecade7bf5e222d541c076cd91a35050565b610bf06118a3565b610bf98261194a565b610c038282611955565b5050565b6000610c11611a12565b50600080516020612c9383398151915290565b6000610c2f816116e5565b6001600160a01b03821660009081526003602052604090205460ff16610c975760405162461bcd60e51b815260206004820152601760248201527f41646472657373206e6f7420626c61636b6c69737465640000000000000000006044820152606401610b27565b6001600160a01b038216600081815260036020526040808220805460ff19169055513392917fc5d633221a999da7b50bad97ddd6cff0c917455d8651123a6433642833252b7c91a35050565b6000610cee816116e5565b60005b828110156109a8576000848483818110610d0d57610d0d612acb565b9050602002016020810190610d2291906125eb565b90506001600160a01b03811615801590610d5557506001600160a01b03811660009081526003602052604090205460ff16155b15610da6576001600160a01b038116600081815260036020526040808220805460ff19166001179055513392917f4a740bebda0bde2baf1735e1b1fa93babe7a2bb77ecade7bf5e222d541c076cd91a35b50600101610cf1565b600080600080516020612c538339815191525b6001600160a01b0390931660009081526020939093525050604090205490565b600061087d82611a5b565b6000610df8816116e5565b600180549083905560408051828152602081018590527f98eaabfe135a9c40c420208962bf81e7926b4d6df3e23502164c0554b7b35224910160405180910390a1505050565b600080516020612cb3833981519152610e56816116e5565b610ac7611a84565b60006060808280808381600080516020612c738339815191528054909150158015610e8b57506001810154155b610ecf5760405162461bcd60e51b81526020600482015260156024820152741152540dcc4c8e88155b9a5b9a5d1a585b1a5e9959605a1b6044820152606401610b27565b610ed7611acd565b610edf611b0c565b60408051600080825260208201909252600f60f81b9c939b5091995046985030975095509350915050565b828114610f525760405162461bcd60e51b8152602060048201526016602482015275082e4e4c2f2e640d8cadccee8d040dad2e6dac2e8c6d60531b6044820152606401610b27565b60005b83811015610fae57610fa633868684818110610f7357610f73612acb565b9050602002016020810190610f8891906125eb565b858585818110610f9a57610f9a612acb565b90506020020135611686565b600101610f55565b5050505050565b6000918252600080516020612cd3833981519152602090815260408084206001600160a01b0393909316845291905290205460ff1690565b7f52c63247e1f47db19d5ce0460030c497f067ca4cebf71ba98eeadabe20bace048054606091600080516020612c53833981519152916108a890612a91565b6000611037816116e5565b6001600160a01b03831660008181526002602052604090819020849055517fa162f0703cbc0c48ea2c9e9bed5743aabc058e7532e594490e3a35bfb0f75ab8906110849085815260200190565b60405180910390a2505050565b6060816001600160401b038111156110ab576110ab61273f565b6040519080825280602002602001820160405280156110d4578160200160208202803683370190505b50905060005b8281101561115957600360008585848181106110f8576110f8612acb565b905060200201602081019061110d91906125eb565b6001600160a01b03168152602081019190915260400160002054825160ff9091169083908390811061114157611141612acb565b911515602092830291909101909101526001016110da565b5092915050565b60003361093a818585611686565b6000611179816116e5565b600080546001600160a01b038481166001600160a01b0319831681178455604051919092169283917fdaaf87d9985c65a1bfbd019043294923ae1b048ba8b4616e3acb32741d268da19190a3505050565b834211156111ee5760405163313c898160e11b815260048101859052602401610b27565b60007f6e71edae12b1b97f4d1f60370fef10105fa2faae0126114a169c64845d6126c988888861125a8c6001600160a01b031660009081527f5ab42ced628888259c08ac98db1eb0cf702fc1501344311d8b100cd1bfe4bb006020526040902080546001810190915590565b6040805160208101969096526001600160a01b0394851690860152929091166060840152608083015260a082015260c0810186905260e00160405160208183030381529060405280519060200120905060006112b582611b24565b905060006112c582878787611b51565b9050896001600160a01b0316816001600160a01b03161461130c576040516325c0072360e11b81526001600160a01b0380831660048301528b166024820152604401610b27565b6113178a8a8a611618565b50505050505050505050565b61132c8261096a565b611335816116e5565b6109a8838361179e565b600061134a816116e5565b60005b828110156109a857600084848381811061136957611369612acb565b905060200201602081019061137e91906125eb565b6001600160a01b03811660009081526003602052604090205490915060ff16156113eb576001600160a01b038116600081815260036020526040808220805460ff19169055513392917fc5d633221a999da7b50bad97ddd6cff0c917455d8651123a6433642833252b7c91a35b5060010161134d565b6001600160a01b0391821660009081527f52c63247e1f47db19d5ce0460030c497f067ca4cebf71ba98eeadabe20bace016020908152604080832093909416825291909152205490565b600061144861181a565b805490915060ff600160401b82041615906001600160401b031660008115801561146f5750825b90506000826001600160401b0316600114801561148b5750303b155b905081158015611499575080155b156114b75760405163f92ee8a960e01b815260040160405180910390fd5b845467ffffffffffffffff1916600117855583156114e157845460ff60401b1916600160401b1785555b611527604051806040016040528060098152602001682820a2102a37b5b2b760b91b8152506040518060400160405280600381526020016214105160ea1b815250611b7f565b611551604051806040016040528060098152602001682820a2102a37b5b2b760b91b815250611b91565b611559611bbc565b611561611bbc565b611569611bbc565b6115746000336116ef565b5061158d600080516020612cb3833981519152336116ef565b506115b87f9f2df0fed2c77648de5860a4cc508cd0818c85b8b8a1ab4ceeef8d981c8956a6336116ef565b506115c33387611bc4565b62015180600155831561161057845460ff60401b19168555604051600181527fc7f505b2f371ae2175ee4913f4499e1f2633a7b5936321eed1cdaeb6115181d29060200160405180910390a15b505050505050565b6109f08383836001611bfa565b600061163184846113f4565b90506000198110156109a8578181101561167757604051637dc7a0d960e11b81526001600160a01b03841660048201526024810182905260448101839052606401610b27565b6109a884848484036000611bfa565b6001600160a01b0383166116b057604051634b637e8f60e11b815260006004820152602401610b27565b6001600160a01b0382166116da5760405163ec442f0560e01b815260006004820152602401610b27565b6109f0838383611ce1565b610ac78133611dfb565b6000600080516020612cd383398151915261170a8484610fb5565b61178a576000848152602082815260408083206001600160a01b03871684529091529020805460ff191660011790556117403390565b6001600160a01b0316836001600160a01b0316857f2f8788117e7eff1d82e926ec794901d17c78024a50270940304540a733656f0d60405160405180910390a4600191505061087d565b600091505061087d565b60006109b8611e34565b6000600080516020612cd38339815191526117b98484610fb5565b1561178a576000848152602082815260408083206001600160a01b0387168085529252808320805460ff1916905551339287917ff6391f5c32d9c69d2a47ea670b442974b53935d1edc7fd64eb21e047a839171b9190a4600191505061087d565b6000807ff0c57e16840df040f15088dc2f81fe391c3923bec73e23a9662efc9c229c6a0061087d565b61184b611ea8565b600080516020612cf3833981519152805460ff191681557f5db9ee0a495bf2e6ff9c91a7834c1ba4fdd244a5e8aa4e537bd38aeae4b073aa335b6040516001600160a01b03909116815260200160405180910390a150565b306001600160a01b037f000000000000000000000000000000000000000000000000000000000000000016148061192a57507f00000000000000000000000000000000000000000000000000000000000000006001600160a01b031661191e600080516020612c93833981519152546001600160a01b031690565b6001600160a01b031614155b156119485760405163703e46dd60e11b815260040160405180910390fd5b565b6000610c03816116e5565b816001600160a01b03166352d1902d6040518163ffffffff1660e01b8152600401602060405180830381865afa9250505080156119af575060408051601f3d908101601f191682019092526119ac91810190612ae1565b60015b6119d757604051634c9c8ce360e01b81526001600160a01b0383166004820152602401610b27565b600080516020612c938339815191528114611a0857604051632a87526960e21b815260048101829052602401610b27565b6109f08383611ed8565b306001600160a01b037f000000000000000000000000000000000000000000000000000000000000000016146119485760405163703e46dd60e11b815260040160405180910390fd5b6000807f5ab42ced628888259c08ac98db1eb0cf702fc1501344311d8b100cd1bfe4bb00610dc2565b611a8c611f2e565b600080516020612cf3833981519152805460ff191660011781557f62e78cea01bee320cd4e420270b5ea74000d11b0c9f74754ebdbfc544b05a25833611885565b7fa16a46d94261c7517cc8ff89f61c0ce93598e3c849801011dee649a6a557d1028054606091600080516020612c73833981519152916108a890612a91565b60606000600080516020612c73833981519152610897565b600061087d611b31611794565b8360405161190160f01b8152600281019290925260228201526042902090565b600080600080611b6388888888611f5f565b925092509250611b73828261202e565b50909695505050505050565b611b876120e7565b610c03828261210c565b611b996120e7565b610ac781604051806040016040528060018152602001603160f81b81525061215d565b6119486120e7565b6001600160a01b038216611bee5760405163ec442f0560e01b815260006004820152602401610b27565b610c0360008383611ce1565b600080516020612c538339815191526001600160a01b038516611c335760405163e602df0560e01b815260006004820152602401610b27565b6001600160a01b038416611c5d57604051634a1406b160e11b815260006004820152602401610b27565b6001600160a01b03808616600090815260018301602090815260408083209388168352929052208390558115610fae57836001600160a01b0316856001600160a01b03167f8c5be1e5ebec7d5bd14f71427d1e84f3dd0314c0f7b2291e5b200ac8c7c3b92585604051611cd291815260200190565b60405180910390a35050505050565b6001600160a01b038316600090815260036020526040902054839060ff1615611d285760405163e2a0fe6360e01b81526001600160a01b0382166004820152602401610b27565b6001600160a01b038316600090815260036020526040902054839060ff1615611d6f5760405163e2a0fe6360e01b81526001600160a01b0382166004820152602401610b27565b6001600160a01b03851615801590611d8f57506001600160a01b03841615155b15611df0576001600160a01b038516600090815260026020526040902054421015611df0576001600160a01b03851660008181526002602052604090819020549051630dac64f960e01b815260048101929092526024820152604401610b27565b610fae8585856121be565b611e058282610fb5565b610c035760405163e2517d3f60e01b81526001600160a01b038216600482015260248101839052604401610b27565b60007f8b73c3c69bb8fe3d512ecc4cf759cc79239f7b179b0ffacaa9a75d522b39400f611e5f61224a565b611e676122b4565b60408051602081019490945283019190915260608201524660808201523060a082015260c00160405160208183030381529060405280519060200120905090565b600080516020612cf38339815191525460ff1661194857604051638dfc202b60e01b815260040160405180910390fd5b611ee1826122f8565b6040516001600160a01b038316907fbc7cd75a20ee27fd9adebab32041f755214dbc6bffa90cc0225b39da2e5c2d3b90600090a2805115611f26576109f0828261235d565b610c036123d3565b600080516020612cf38339815191525460ff16156119485760405163d93c066560e01b815260040160405180910390fd5b600080807f7fffffffffffffffffffffffffffffff5d576e7357a4501ddfe92f46681b20a0841115611f9a5750600091506003905082612024565b604080516000808252602082018084528a905260ff891692820192909252606081018790526080810186905260019060a0016020604051602081039080840390855afa158015611fee573d6000803e3d6000fd5b5050604051601f1901519150506001600160a01b03811661201a57506000925060019150829050612024565b9250600091508190505b9450945094915050565b600082600381111561204257612042612afa565b0361204b575050565b600182600381111561205f5761205f612afa565b0361207d5760405163f645eedf60e01b815260040160405180910390fd5b600282600381111561209157612091612afa565b036120b25760405163fce698f760e01b815260048101829052602401610b27565b60038260038111156120c6576120c6612afa565b03610c03576040516335e2f38360e21b815260048101829052602401610b27565b6120ef6123f2565b61194857604051631afcd79f60e31b815260040160405180910390fd5b6121146120e7565b600080516020612c538339815191527f52c63247e1f47db19d5ce0460030c497f067ca4cebf71ba98eeadabe20bace0361214e8482612b57565b50600481016109a88382612b57565b6121656120e7565b600080516020612c738339815191527fa16a46d94261c7517cc8ff89f61c0ce93598e3c849801011dee649a6a557d10261219f8482612b57565b50600381016121ae8382612b57565b5060008082556001909101555050565b6001600160a01b038316158015906121de57506001600160a01b03821615155b1561223f576001600160a01b03831660009081526002602052604090205442101561223f576001600160a01b03831660008181526002602052604090819020549051630dac64f960e01b815260048101929092526024820152604401610b27565b6109f083838361240c565b6000600080516020612c7383398151915281612264611acd565b80519091501561227c57805160209091012092915050565b8154801561228b579392505050565b7fc5d2460186f7233c927e7db2dcc703c0e500b653ca82273b7bfad8045d85a470935050505090565b6000600080516020612c73833981519152816122ce611b0c565b8051909150156122e657805160209091012092915050565b6001820154801561228b579392505050565b806001600160a01b03163b60000361232e57604051634c9c8ce360e01b81526001600160a01b0382166004820152602401610b27565b600080516020612c9383398151915280546001600160a01b0319166001600160a01b0392909216919091179055565b6060600080846001600160a01b03168460405161237a9190612c15565b600060405180830381855af49150503d80600081146123b5576040519150601f19603f3d011682016040523d82523d6000602084013e6123ba565b606091505b50915091506123ca85838361254a565b95945050505050565b34156119485760405163b398979f60e01b815260040160405180910390fd5b60006123fc61181a565b54600160401b900460ff16919050565b600080516020612c538339815191526001600160a01b038416612448578181600201600082825461243d9190612c31565b909155506124ba9050565b6001600160a01b0384166000908152602082905260409020548281101561249b5760405163391434e360e21b81526001600160a01b03861660048201526024810182905260448101849052606401610b27565b6001600160a01b03851660009081526020839052604090209083900390555b6001600160a01b0383166124d85760028101805483900390556124f7565b6001600160a01b03831660009081526020829052604090208054830190555b826001600160a01b0316846001600160a01b03167fddf252ad1be2c89b69c2b068fc378daa952ba7f163c4a11628f55a4df523b3ef8460405161253c91815260200190565b60405180910390a350505050565b60608261255f5761255a826125a6565b610963565b815115801561257657506001600160a01b0384163b155b1561259f57604051639996b31560e01b81526001600160a01b0385166004820152602401610b27565b5080610963565b8051156125b65780518082602001fd5b60405163d6bda27560e01b815260040160405180910390fd5b80356001600160a01b03811681146125e657600080fd5b919050565b6000602082840312156125fd57600080fd5b610963826125cf565b60006020828403121561261857600080fd5b81356001600160e01b03198116811461096357600080fd5b60005b8381101561264b578181015183820152602001612633565b50506000910152565b6000815180845261266c816020860160208601612630565b601f01601f19169290920160200192915050565b6020815260006109636020830184612654565b600080604083850312156126a657600080fd5b6126af836125cf565b946020939093013593505050565b6000806000606084860312156126d257600080fd5b6126db846125cf565b92506126e9602085016125cf565b929592945050506040919091013590565b60006020828403121561270c57600080fd5b5035919050565b6000806040838503121561272657600080fd5b82359150612736602084016125cf565b90509250929050565b634e487b7160e01b600052604160045260246000fd5b6000806040838503121561276857600080fd5b612771836125cf565b915060208301356001600160401b0381111561278c57600080fd5b8301601f8101851361279d57600080fd5b80356001600160401b038111156127b6576127b661273f565b604051601f8201601f19908116603f011681016001600160401b03811182821017156127e4576127e461273f565b6040528181528282016020018710156127fc57600080fd5b816020840160208301376000602083830101528093505050509250929050565b60008083601f84011261282e57600080fd5b5081356001600160401b0381111561284557600080fd5b6020830191508360208260051b850101111561286057600080fd5b9250929050565b6000806020838503121561287a57600080fd5b82356001600160401b0381111561289057600080fd5b61289c8582860161281c565b90969095509350505050565b60ff60f81b8816815260e0602082015260006128c760e0830189612654565b82810360408401526128d98189612654565b606084018890526001600160a01b038716608085015260a0840186905283810360c08501528451808252602080870193509091019060005b8181101561292f578351835260209384019390920191600101612911565b50909b9a5050505050505050505050565b6000806000806040858703121561295657600080fd5b84356001600160401b0381111561296c57600080fd5b6129788782880161281c565b90955093505060208501356001600160401b0381111561299757600080fd5b6129a38782880161281c565b95989497509550505050565b602080825282518282018190526000918401906040840190835b818110156129e957835115158352602093840193909201916001016129c9565b509095945050505050565b600080600080600080600060e0888a031215612a0f57600080fd5b612a18886125cf565b9650612a26602089016125cf565b95506040880135945060608801359350608088013560ff81168114612a4a57600080fd5b9699959850939692959460a0840135945060c09093013592915050565b60008060408385031215612a7a57600080fd5b612a83836125cf565b9150612736602084016125cf565b600181811c90821680612aa557607f821691505b602082108103612ac557634e487b7160e01b600052602260045260246000fd5b50919050565b634e487b7160e01b600052603260045260246000fd5b600060208284031215612af357600080fd5b5051919050565b634e487b7160e01b600052602160045260246000fd5b601f8211156109f057806000526020600020601f840160051c81016020851015612b375750805b601f840160051c820191505b81811015610fae5760008155600101612b43565b81516001600160401b03811115612b7057612b7061273f565b612b8481612b7e8454612a91565b84612b10565b6020601f821160018114612bb85760008315612ba05750848201515b600019600385901b1c1916600184901b178455610fae565b600084815260208120601f198516915b82811015612be85787850151825560209485019460019092019101612bc8565b5084821015612c065786840151600019600387901b60f8161c191681555b50505050600190811b01905550565b60008251612c27818460208701612630565b9190910192915050565b8082018082111561087d57634e487b7160e01b600052601160045260246000fdfe52c63247e1f47db19d5ce0460030c497f067ca4cebf71ba98eeadabe20bace00a16a46d94261c7517cc8ff89f61c0ce93598e3c849801011dee649a6a557d100360894a13ba1a3210667c828492db98dca3e2076cc3735a920a3ca505d382bbc65d7a28e3265b37a6474929f336521b332c1681b933f6cb9f3376673440d862a02dd7bc7dec4dceedda775e58dd541e08a116c6c53815c0bd028192f7b626800cd5ed15c6e187e77e9aee88184c21f4f2182ab5827cb3b7e07fbedcd63f03300a2646970667358221220f886522ba52d6949bb91587414997ffd3e434d01e8d7ccde6d0ae11b8001e5c664736f6c634300081c0033","opcodes":"PUSH1 0xA0 PUSH1 0x40 MSTORE ADDRESS PUSH1 0x80 MSTORE CALLVALUE DUP1 ISZERO PUSH2 0x14 JUMPI PUSH1 0x0 DUP1 REVERT JUMPDEST POP PUSH2 0x1D PUSH2 0x22 JUMP JUMPDEST PUSH2 0xD4 JUMP JUMPDEST PUSH32 0xF0C57E16840DF040F15088DC2F81FE391C3923BEC73E23A9662EFC9C229C6A00 DUP1 SLOAD PUSH9 0x10000000000000000 SWAP1 DIV PUSH1 0xFF AND ISZERO PUSH2 0x72 JUMPI PUSH1 0x40 MLOAD PUSH4 0xF92EE8A9 PUSH1 0xE0 SHL DUP2 MSTORE PUSH1 0x4 ADD PUSH1 0x40 MLOAD DUP1 SWAP2 SUB SWAP1 REVERT JUMPDEST DUP1 SLOAD PUSH1 0x1 PUSH1 0x1 PUSH1 0x40 SHL SUB SWAP1 DUP2 AND EQ PUSH2 0xD1 JUMPI DUP1 SLOAD PUSH1 0x1 PUSH1 0x1 PUSH1 0x40 SHL SUB NOT AND PUSH1 0x1 PUSH1 0x1 PUSH1 0x40 SHL SUB SWAP1 DUP2 OR DUP3 SSTORE PUSH1 0x40 MLOAD SWAP1 DUP2 MSTORE PUSH32 0xC7F505B2F371AE2175EE4913F4499E1F2633A7B5936321EED1CDAEB6115181D2 SWAP1 PUSH1 0x20 ADD PUSH1 0x40 MLOAD DUP1 SWAP2 SUB SWAP1 LOG1 JUMPDEST POP JUMP JUMPDEST PUSH1 0x80 MLOAD PUSH2 0x2D48 PUSH2 0xFD PUSH1 0x0 CODECOPY PUSH1 0x0 DUP2 DUP2 PUSH2 0x18AE ADD MSTORE DUP2 DUP2 PUSH2 0x18D7 ADD MSTORE PUSH2 0x1A1D ADD MSTORE PUSH2 0x2D48 PUSH1 0x0 RETURN INVALID PUSH1 0x80 PUSH1 0x40 MSTORE PUSH1 0x4 CALLDATASIZE LT PUSH2 0x267 JUMPI PUSH1 0x0 CALLDATALOAD PUSH1 0xE0 SHR DUP1 PUSH4 0x7ECEBE00 GT PUSH2 0x144 JUMPI DUP1 PUSH4 0xA9059CBB GT PUSH2 0xB6 JUMPI DUP1 PUSH4 0xD547741F GT PUSH2 0x7A JUMPI DUP1 PUSH4 0xD547741F EQ PUSH2 0x771 JUMPI DUP1 PUSH4 0xD7162657 EQ PUSH2 0x791 JUMPI DUP1 PUSH4 0xDD62ED3E EQ PUSH2 0x7B1 JUMPI DUP1 PUSH4 0xE63AB1E9 EQ PUSH2 0x7D1 JUMPI DUP1 PUSH4 0xFE4B84DF EQ PUSH2 0x7F3 JUMPI DUP1 PUSH4 0xFE575A87 EQ PUSH2 0x813 JUMPI PUSH1 0x0 DUP1 REVERT JUMPDEST DUP1 PUSH4 0xA9059CBB EQ PUSH2 0x6AC JUMPI DUP1 PUSH4 0xAD3CB1CC EQ PUSH2 0x6CC JUMPI DUP1 PUSH4 0xC3085A3E EQ PUSH2 0x6FD JUMPI DUP1 PUSH4 0xD505ACCF EQ PUSH2 0x71D JUMPI DUP1 PUSH4 0xD5391393 EQ PUSH2 0x73D JUMPI PUSH1 0x0 DUP1 REVERT JUMPDEST DUP1 PUSH4 0x91D14854 GT PUSH2 0x108 JUMPI DUP1 PUSH4 0x91D14854 EQ PUSH2 0x5DD JUMPI DUP1 PUSH4 0x95D89B41 EQ PUSH2 0x5FD JUMPI DUP1 PUSH4 0x9781A37E EQ PUSH2 0x612 JUMPI DUP1 PUSH4 0xA217FDDF EQ PUSH2 0x632 JUMPI DUP1 PUSH4 0xA6ECC5CF EQ PUSH2 0x647 JUMPI DUP1 PUSH4 0xA84173AE EQ PUSH2 0x674 JUMPI PUSH1 0x0 DUP1 REVERT JUMPDEST DUP1 PUSH4 0x7ECEBE00 EQ PUSH2 0x540 JUMPI DUP1 PUSH4 0x80EA3DE1 EQ PUSH2 0x560 JUMPI DUP1 PUSH4 0x8456CB59 EQ PUSH2 0x580 JUMPI DUP1 PUSH4 0x84B0196E EQ PUSH2 0x595 JUMPI DUP1 PUSH4 0x88D695B2 EQ PUSH2 0x5BD JUMPI PUSH1 0x0 DUP1 REVERT JUMPDEST DUP1 PUSH4 0x36568ABE GT PUSH2 0x1DD JUMPI DUP1 PUSH4 0x52D1902D GT PUSH2 0x1A1 JUMPI DUP1 PUSH4 0x52D1902D EQ PUSH2 0x478 JUMPI DUP1 PUSH4 0x537DF3B6 EQ PUSH2 0x48D JUMPI DUP1 PUSH4 0x54FD4D50 EQ PUSH2 0x4AD JUMPI DUP1 PUSH4 0x5C975ABB EQ PUSH2 0x4DB JUMPI DUP1 PUSH4 0x679D665F EQ PUSH2 0x500 JUMPI DUP1 PUSH4 0x70A08231 EQ PUSH2 0x520 JUMPI PUSH1 0x0 DUP1 REVERT JUMPDEST DUP1 PUSH4 0x36568ABE EQ PUSH2 0x3FB JUMPI DUP1 PUSH4 0x38E454B1 EQ PUSH2 0x41B JUMPI DUP1 PUSH4 0x3F4BA83A EQ PUSH2 0x430 JUMPI DUP1 PUSH4 0x44337EA1 EQ PUSH2 0x445 JUMPI DUP1 PUSH4 0x4F1EF286 EQ PUSH2 0x465 JUMPI PUSH1 0x0 DUP1 REVERT JUMPDEST DUP1 PUSH4 0x18160DDD GT PUSH2 0x22F JUMPI DUP1 PUSH4 0x18160DDD EQ PUSH2 0x334 JUMPI DUP1 PUSH4 0x23B872DD EQ PUSH2 0x368 JUMPI DUP1 PUSH4 0x248A9CA3 EQ PUSH2 0x388 JUMPI DUP1 PUSH4 0x2F2FF15D EQ PUSH2 0x3A8 JUMPI DUP1 PUSH4 0x313CE567 EQ PUSH2 0x3CA JUMPI DUP1 PUSH4 0x3644E515 EQ PUSH2 0x3E6 JUMPI PUSH1 0x0 DUP1 REVERT JUMPDEST DUP1 PUSH4 0x1320FE2 EQ PUSH2 0x26C JUMPI DUP1 PUSH4 0x1FFC9A7 EQ PUSH2 0x2AC JUMPI DUP1 PUSH4 0x4646A49 EQ PUSH2 0x2DC JUMPI DUP1 PUSH4 0x6FDDE03 EQ PUSH2 0x2F2 JUMPI DUP1 PUSH4 0x95EA7B3 EQ PUSH2 0x314 JUMPI JUMPDEST PUSH1 0x0 DUP1 REVERT JUMPDEST CALLVALUE DUP1 ISZERO PUSH2 0x278 JUMPI PUSH1 0x0 DUP1 REVERT JUMPDEST POP PUSH2 0x299 PUSH2 0x287 CALLDATASIZE PUSH1 0x4 PUSH2 0x25EB JUMP JUMPDEST PUSH1 0x2 PUSH1 0x20 MSTORE PUSH1 0x0 SWAP1 DUP2 MSTORE PUSH1 0x40 SWAP1 KECCAK256 SLOAD DUP2 JUMP JUMPDEST PUSH1 0x40 MLOAD SWAP1 DUP2 MSTORE PUSH1 0x20 ADD JUMPDEST PUSH1 0x40 MLOAD DUP1 SWAP2 SUB SWAP1 RETURN JUMPDEST CALLVALUE DUP1 ISZERO PUSH2 0x2B8 JUMPI PUSH1 0x0 DUP1 REVERT JUMPDEST POP PUSH2 0x2CC PUSH2 0x2C7 CALLDATASIZE PUSH1 0x4 PUSH2 0x2606 JUMP JUMPDEST PUSH2 0x84C JUMP JUMPDEST PUSH1 0x40 MLOAD SWAP1 ISZERO ISZERO DUP2 MSTORE PUSH1 0x20 ADD PUSH2 0x2A3 JUMP JUMPDEST CALLVALUE DUP1 ISZERO PUSH2 0x2E8 JUMPI PUSH1 0x0 DUP1 REVERT JUMPDEST POP PUSH2 0x299 PUSH1 0x1 SLOAD DUP2 JUMP JUMPDEST CALLVALUE DUP1 ISZERO PUSH2 0x2FE JUMPI PUSH1 0x0 DUP1 REVERT JUMPDEST POP PUSH2 0x307 PUSH2 0x883 JUMP JUMPDEST PUSH1 0x40 MLOAD PUSH2 0x2A3 SWAP2 SWAP1 PUSH2 0x2680 JUMP JUMPDEST CALLVALUE DUP1 ISZERO PUSH2 0x320 JUMPI PUSH1 0x0 DUP1 REVERT JUMPDEST POP PUSH2 0x2CC PUSH2 0x32F CALLDATASIZE PUSH1 0x4 PUSH2 0x2693 JUMP JUMPDEST PUSH2 0x92C JUMP JUMPDEST CALLVALUE DUP1 ISZERO PUSH2 0x340 JUMPI PUSH1 0x0 DUP1 REVERT JUMPDEST POP PUSH32 0x52C63247E1F47DB19D5CE0460030C497F067CA4CEBF71BA98EEADABE20BACE02 SLOAD PUSH2 0x299 JUMP JUMPDEST CALLVALUE DUP1 ISZERO PUSH2 0x374 JUMPI PUSH1 0x0 DUP1 REVERT JUMPDEST POP PUSH2 0x2CC PUSH2 0x383 CALLDATASIZE PUSH1 0x4 PUSH2 0x26BD JUMP JUMPDEST PUSH2 0x944 JUMP JUMPDEST CALLVALUE DUP1 ISZERO PUSH2 0x394 JUMPI PUSH1 0x0 DUP1 REVERT JUMPDEST POP PUSH2 0x299 PUSH2 0x3A3 CALLDATASIZE PUSH1 0x4 PUSH2 0x26FA JUMP JUMPDEST PUSH2 0x96A JUMP JUMPDEST CALLVALUE DUP1 ISZERO PUSH2 0x3B4 JUMPI PUSH1 0x0 DUP1 REVERT JUMPDEST POP PUSH2 0x3C8 PUSH2 0x3C3 CALLDATASIZE PUSH1 0x4 PUSH2 0x2713 JUMP JUMPDEST PUSH2 0x98C JUMP JUMPDEST STOP JUMPDEST CALLVALUE DUP1 ISZERO PUSH2 0x3D6 JUMPI PUSH1 0x0 DUP1 REVERT JUMPDEST POP PUSH1 0x40 MLOAD PUSH1 0x12 DUP2 MSTORE PUSH1 0x20 ADD PUSH2 0x2A3 JUMP JUMPDEST CALLVALUE DUP1 ISZERO PUSH2 0x3F2 JUMPI PUSH1 0x0 DUP1 REVERT JUMPDEST POP PUSH2 0x299 PUSH2 0x9AE JUMP JUMPDEST CALLVALUE DUP1 ISZERO PUSH2 0x407 JUMPI PUSH1 0x0 DUP1 REVERT JUMPDEST POP PUSH2 0x3C8 PUSH2 0x416 CALLDATASIZE PUSH1 0x4 PUSH2 0x2713 JUMP JUMPDEST PUSH2 0x9BD JUMP JUMPDEST CALLVALUE DUP1 ISZERO PUSH2 0x427 JUMPI PUSH1 0x0 DUP1 REVERT JUMPDEST POP PUSH2 0x3C8 PUSH2 0x9F5 JUMP JUMPDEST CALLVALUE DUP1 ISZERO PUSH2 0x43C JUMPI PUSH1 0x0 DUP1 REVERT JUMPDEST POP PUSH2 0x3C8 PUSH2 0xAA7 JUMP JUMPDEST CALLVALUE DUP1 ISZERO PUSH2 0x451 JUMPI PUSH1 0x0 DUP1 REVERT JUMPDEST POP PUSH2 0x3C8 PUSH2 0x460 CALLDATASIZE PUSH1 0x4 PUSH2 0x25EB JUMP JUMPDEST PUSH2 0xACA JUMP JUMPDEST PUSH2 0x3C8 PUSH2 0x473 CALLDATASIZE PUSH1 0x4 PUSH2 0x2755 JUMP JUMPDEST PUSH2 0xBE8 JUMP JUMPDEST CALLVALUE DUP1 ISZERO PUSH2 0x484 JUMPI PUSH1 0x0 DUP1 REVERT JUMPDEST POP PUSH2 0x299 PUSH2 0xC07 JUMP JUMPDEST CALLVALUE DUP1 ISZERO PUSH2 0x499 JUMPI PUSH1 0x0 DUP1 REVERT JUMPDEST POP PUSH2 0x3C8 PUSH2 0x4A8 CALLDATASIZE PUSH1 0x4 PUSH2 0x25EB JUMP JUMPDEST PUSH2 0xC24 JUMP JUMPDEST CALLVALUE DUP1 ISZERO PUSH2 0x4B9 JUMPI PUSH1 0x0 DUP1 REVERT JUMPDEST POP PUSH1 0x40 DUP1 MLOAD DUP1 DUP3 ADD SWAP1 SWAP2 MSTORE PUSH1 0x5 DUP2 MSTORE PUSH5 0x332E302E3 PUSH1 0xDC SHL PUSH1 0x20 DUP3 ADD MSTORE PUSH2 0x307 JUMP JUMPDEST CALLVALUE DUP1 ISZERO PUSH2 0x4E7 JUMPI PUSH1 0x0 DUP1 REVERT JUMPDEST POP PUSH1 0x0 DUP1 MLOAD PUSH1 0x20 PUSH2 0x2CF3 DUP4 CODECOPY DUP2 MLOAD SWAP2 MSTORE SLOAD PUSH1 0xFF AND PUSH2 0x2CC JUMP JUMPDEST CALLVALUE DUP1 ISZERO PUSH2 0x50C JUMPI PUSH1 0x0 DUP1 REVERT JUMPDEST POP PUSH2 0x3C8 PUSH2 0x51B CALLDATASIZE PUSH1 0x4 PUSH2 0x2867 JUMP JUMPDEST PUSH2 0xCE3 JUMP JUMPDEST CALLVALUE DUP1 ISZERO PUSH2 0x52C JUMPI PUSH1 0x0 DUP1 REVERT JUMPDEST POP PUSH2 0x299 PUSH2 0x53B CALLDATASIZE PUSH1 0x4 PUSH2 0x25EB JUMP JUMPDEST PUSH2 0xDAF JUMP JUMPDEST CALLVALUE DUP1 ISZERO PUSH2 0x54C JUMPI PUSH1 0x0 DUP1 REVERT JUMPDEST POP PUSH2 0x299 PUSH2 0x55B CALLDATASIZE PUSH1 0x4 PUSH2 0x25EB JUMP JUMPDEST PUSH2 0xDE2 JUMP JUMPDEST CALLVALUE DUP1 ISZERO PUSH2 0x56C JUMPI PUSH1 0x0 DUP1 REVERT JUMPDEST POP PUSH2 0x3C8 PUSH2 0x57B CALLDATASIZE PUSH1 0x4 PUSH2 0x26FA JUMP JUMPDEST PUSH2 0xDED JUMP JUMPDEST CALLVALUE DUP1 ISZERO PUSH2 0x58C JUMPI PUSH1 0x0 DUP1 REVERT JUMPDEST POP PUSH2 0x3C8 PUSH2 0xE3E JUMP JUMPDEST CALLVALUE DUP1 ISZERO PUSH2 0x5A1 JUMPI PUSH1 0x0 DUP1 REVERT JUMPDEST POP PUSH2 0x5AA PUSH2 0xE5E JUMP JUMPDEST PUSH1 0x40 MLOAD PUSH2 0x2A3 SWAP8 SWAP7 SWAP6 SWAP5 SWAP4 SWAP3 SWAP2 SWAP1 PUSH2 0x28A8 JUMP JUMPDEST CALLVALUE DUP1 ISZERO PUSH2 0x5C9 JUMPI PUSH1 0x0 DUP1 REVERT JUMPDEST POP PUSH2 0x3C8 PUSH2 0x5D8 CALLDATASIZE PUSH1 0x4 PUSH2 0x2940 JUMP JUMPDEST PUSH2 0xF0A JUMP JUMPDEST CALLVALUE DUP1 ISZERO PUSH2 0x5E9 JUMPI PUSH1 0x0 DUP1 REVERT JUMPDEST POP PUSH2 0x2CC PUSH2 0x5F8 CALLDATASIZE PUSH1 0x4 PUSH2 0x2713 JUMP JUMPDEST PUSH2 0xFB5 JUMP JUMPDEST CALLVALUE DUP1 ISZERO PUSH2 0x609 JUMPI PUSH1 0x0 DUP1 REVERT JUMPDEST POP PUSH2 0x307 PUSH2 0xFED JUMP JUMPDEST CALLVALUE DUP1 ISZERO PUSH2 0x61E JUMPI PUSH1 0x0 DUP1 REVERT JUMPDEST POP PUSH2 0x3C8 PUSH2 0x62D CALLDATASIZE PUSH1 0x4 PUSH2 0x2693 JUMP JUMPDEST PUSH2 0x102C JUMP JUMPDEST CALLVALUE DUP1 ISZERO PUSH2 0x63E JUMPI PUSH1 0x0 DUP1 REVERT JUMPDEST POP PUSH2 0x299 PUSH1 0x0 DUP2 JUMP JUMPDEST CALLVALUE DUP1 ISZERO PUSH2 0x653 JUMPI PUSH1 0x0 DUP1 REVERT JUMPDEST POP PUSH2 0x667 PUSH2 0x662 CALLDATASIZE PUSH1 0x4 PUSH2 0x2867 JUMP JUMPDEST PUSH2 0x1091 JUMP JUMPDEST PUSH1 0x40 MLOAD PUSH2 0x2A3 SWAP2 SWAP1 PUSH2 0x29AF JUMP JUMPDEST CALLVALUE DUP1 ISZERO PUSH2 0x680 JUMPI PUSH1 0x0 DUP1 REVERT JUMPDEST POP PUSH1 0x0 SLOAD PUSH2 0x694 SWAP1 PUSH1 0x1 PUSH1 0x1 PUSH1 0xA0 SHL SUB AND DUP2 JUMP JUMPDEST PUSH1 0x40 MLOAD PUSH1 0x1 PUSH1 0x1 PUSH1 0xA0 SHL SUB SWAP1 SWAP2 AND DUP2 MSTORE PUSH1 0x20 ADD PUSH2 0x2A3 JUMP JUMPDEST CALLVALUE DUP1 ISZERO PUSH2 0x6B8 JUMPI PUSH1 0x0 DUP1 REVERT JUMPDEST POP PUSH2 0x2CC PUSH2 0x6C7 CALLDATASIZE PUSH1 0x4 PUSH2 0x2693 JUMP JUMPDEST PUSH2 0x1160 JUMP JUMPDEST CALLVALUE DUP1 ISZERO PUSH2 0x6D8 JUMPI PUSH1 0x0 DUP1 REVERT JUMPDEST POP PUSH2 0x307 PUSH1 0x40 MLOAD DUP1 PUSH1 0x40 ADD PUSH1 0x40 MSTORE DUP1 PUSH1 0x5 DUP2 MSTORE PUSH1 0x20 ADD PUSH5 0x352E302E3 PUSH1 0xDC SHL DUP2 MSTORE POP DUP2 JUMP JUMPDEST CALLVALUE DUP1 ISZERO PUSH2 0x709 JUMPI PUSH1 0x0 DUP1 REVERT JUMPDEST POP PUSH2 0x3C8 PUSH2 0x718 CALLDATASIZE PUSH1 0x4 PUSH2 0x25EB JUMP JUMPDEST PUSH2 0x116E JUMP JUMPDEST CALLVALUE DUP1 ISZERO PUSH2 0x729 JUMPI PUSH1 0x0 DUP1 REVERT JUMPDEST POP PUSH2 0x3C8 PUSH2 0x738 CALLDATASIZE PUSH1 0x4 PUSH2 0x29F4 JUMP JUMPDEST PUSH2 0x11CA JUMP JUMPDEST CALLVALUE DUP1 ISZERO PUSH2 0x749 JUMPI PUSH1 0x0 DUP1 REVERT JUMPDEST POP PUSH2 0x299 PUSH32 0x9F2DF0FED2C77648DE5860A4CC508CD0818C85B8B8A1AB4CEEEF8D981C8956A6 DUP2 JUMP JUMPDEST CALLVALUE DUP1 ISZERO PUSH2 0x77D JUMPI PUSH1 0x0 DUP1 REVERT JUMPDEST POP PUSH2 0x3C8 PUSH2 0x78C CALLDATASIZE PUSH1 0x4 PUSH2 0x2713 JUMP JUMPDEST PUSH2 0x1323 JUMP JUMPDEST CALLVALUE DUP1 ISZERO PUSH2 0x79D JUMPI PUSH1 0x0 DUP1 REVERT JUMPDEST POP PUSH2 0x3C8 PUSH2 0x7AC CALLDATASIZE PUSH1 0x4 PUSH2 0x2867 JUMP JUMPDEST PUSH2 0x133F JUMP JUMPDEST CALLVALUE DUP1 ISZERO PUSH2 0x7BD JUMPI PUSH1 0x0 DUP1 REVERT JUMPDEST POP PUSH2 0x299 PUSH2 0x7CC CALLDATASIZE PUSH1 0x4 PUSH2 0x2A67 JUMP JUMPDEST PUSH2 0x13F4 JUMP JUMPDEST CALLVALUE DUP1 ISZERO PUSH2 0x7DD JUMPI PUSH1 0x0 DUP1 REVERT JUMPDEST POP PUSH2 0x299 PUSH1 0x0 DUP1 MLOAD PUSH1 0x20 PUSH2 0x2CB3 DUP4 CODECOPY DUP2 MLOAD SWAP2 MSTORE DUP2 JUMP JUMPDEST CALLVALUE DUP1 ISZERO PUSH2 0x7FF JUMPI PUSH1 0x0 DUP1 REVERT JUMPDEST POP PUSH2 0x3C8 PUSH2 0x80E CALLDATASIZE PUSH1 0x4 PUSH2 0x26FA JUMP JUMPDEST PUSH2 0x143E JUMP JUMPDEST CALLVALUE DUP1 ISZERO PUSH2 0x81F JUMPI PUSH1 0x0 DUP1 REVERT JUMPDEST POP PUSH2 0x2CC PUSH2 0x82E CALLDATASIZE PUSH1 0x4 PUSH2 0x25EB JUMP JUMPDEST PUSH1 0x1 PUSH1 0x1 PUSH1 0xA0 SHL SUB AND PUSH1 0x0 SWAP1 DUP2 MSTORE PUSH1 0x3 PUSH1 0x20 MSTORE PUSH1 0x40 SWAP1 KECCAK256 SLOAD PUSH1 0xFF AND SWAP1 JUMP JUMPDEST PUSH1 0x0 PUSH1 0x1 PUSH1 0x1 PUSH1 0xE0 SHL SUB NOT DUP3 AND PUSH4 0x7965DB0B PUSH1 0xE0 SHL EQ DUP1 PUSH2 0x87D JUMPI POP PUSH4 0x1FFC9A7 PUSH1 0xE0 SHL PUSH1 0x1 PUSH1 0x1 PUSH1 0xE0 SHL SUB NOT DUP4 AND EQ JUMPDEST SWAP3 SWAP2 POP POP JUMP JUMPDEST PUSH1 0x60 PUSH1 0x0 PUSH1 0x0 DUP1 MLOAD PUSH1 0x20 PUSH2 0x2C53 DUP4 CODECOPY DUP2 MLOAD SWAP2 MSTORE JUMPDEST SWAP1 POP DUP1 PUSH1 0x3 ADD DUP1 SLOAD PUSH2 0x8A8 SWAP1 PUSH2 0x2A91 JUMP JUMPDEST DUP1 PUSH1 0x1F ADD PUSH1 0x20 DUP1 SWAP2 DIV MUL PUSH1 0x20 ADD PUSH1 0x40 MLOAD SWAP1 DUP2 ADD PUSH1 0x40 MSTORE DUP1 SWAP3 SWAP2 SWAP1 DUP2 DUP2 MSTORE PUSH1 0x20 ADD DUP3 DUP1 SLOAD PUSH2 0x8D4 SWAP1 PUSH2 0x2A91 JUMP JUMPDEST DUP1 ISZERO PUSH2 0x921 JUMPI DUP1 PUSH1 0x1F LT PUSH2 0x8F6 JUMPI PUSH2 0x100 DUP1 DUP4 SLOAD DIV MUL DUP4 MSTORE SWAP2 PUSH1 0x20 ADD SWAP2 PUSH2 0x921 JUMP JUMPDEST DUP3 ADD SWAP2 SWAP1 PUSH1 0x0 MSTORE PUSH1 0x20 PUSH1 0x0 KECCAK256 SWAP1 JUMPDEST DUP2 SLOAD DUP2 MSTORE SWAP1 PUSH1 0x1 ADD SWAP1 PUSH1 0x20 ADD DUP1 DUP4 GT PUSH2 0x904 JUMPI DUP3 SWAP1 SUB PUSH1 0x1F AND DUP3 ADD SWAP2 JUMPDEST POP POP POP POP POP SWAP2 POP POP SWAP1 JUMP JUMPDEST PUSH1 0x0 CALLER PUSH2 0x93A DUP2 DUP6 DUP6 PUSH2 0x1618 JUMP JUMPDEST POP PUSH1 0x1 SWAP4 SWAP3 POP POP POP JUMP JUMPDEST PUSH1 0x0 CALLER PUSH2 0x952 DUP6 DUP3 DUP6 PUSH2 0x1625 JUMP JUMPDEST PUSH2 0x95D DUP6 DUP6 DUP6 PUSH2 0x1686 JUMP JUMPDEST PUSH1 0x1 SWAP2 POP POP JUMPDEST SWAP4 SWAP3 POP POP POP JUMP JUMPDEST PUSH1 0x0 SWAP1 DUP2 MSTORE PUSH1 0x0 DUP1 MLOAD PUSH1 0x20 PUSH2 0x2CD3 DUP4 CODECOPY DUP2 MLOAD SWAP2 MSTORE PUSH1 0x20 MSTORE PUSH1 0x40 SWAP1 KECCAK256 PUSH1 0x1 ADD SLOAD SWAP1 JUMP JUMPDEST PUSH2 0x995 DUP3 PUSH2 0x96A JUMP JUMPDEST PUSH2 0x99E DUP2 PUSH2 0x16E5 JUMP JUMPDEST PUSH2 0x9A8 DUP4 DUP4 PUSH2 0x16EF JUMP JUMPDEST POP POP POP POP JUMP JUMPDEST PUSH1 0x0 PUSH2 0x9B8 PUSH2 0x1794 JUMP JUMPDEST SWAP1 POP SWAP1 JUMP JUMPDEST PUSH1 0x1 PUSH1 0x1 PUSH1 0xA0 SHL SUB DUP2 AND CALLER EQ PUSH2 0x9E6 JUMPI PUSH1 0x40 MLOAD PUSH4 0x334BD919 PUSH1 0xE1 SHL DUP2 MSTORE PUSH1 0x4 ADD PUSH1 0x40 MLOAD DUP1 SWAP2 SUB SWAP1 REVERT JUMPDEST PUSH2 0x9F0 DUP3 DUP3 PUSH2 0x179E JUMP JUMPDEST POP POP POP JUMP JUMPDEST PUSH1 0x3 PUSH1 0x0 PUSH2 0xA01 PUSH2 0x181A JUMP JUMPDEST DUP1 SLOAD SWAP1 SWAP2 POP PUSH1 0x1 PUSH1 0x40 SHL SWAP1 DIV PUSH1 0xFF AND DUP1 PUSH2 0xA28 JUMPI POP DUP1 SLOAD PUSH1 0x1 PUSH1 0x1 PUSH1 0x40 SHL SUB DUP1 DUP5 AND SWAP2 AND LT ISZERO JUMPDEST ISZERO PUSH2 0xA46 JUMPI PUSH1 0x40 MLOAD PUSH4 0xF92EE8A9 PUSH1 0xE0 SHL DUP2 MSTORE PUSH1 0x4 ADD PUSH1 0x40 MLOAD DUP1 SWAP2 SUB SWAP1 REVERT JUMPDEST DUP1 SLOAD PUSH9 0xFFFFFFFFFFFFFFFFFF NOT AND PUSH1 0x1 PUSH1 0x1 PUSH1 0x40 SHL SUB DUP4 AND SWAP1 DUP2 OR PUSH1 0x1 PUSH1 0x40 SHL OR PUSH1 0xFF PUSH1 0x40 SHL NOT AND DUP3 SSTORE PUSH1 0x40 MLOAD SWAP1 DUP2 MSTORE PUSH32 0xC7F505B2F371AE2175EE4913F4499E1F2633A7B5936321EED1CDAEB6115181D2 SWAP1 PUSH1 0x20 ADD PUSH1 0x40 MLOAD DUP1 SWAP2 SUB SWAP1 LOG1 POP POP JUMP JUMPDEST PUSH1 0x0 DUP1 MLOAD PUSH1 0x20 PUSH2 0x2CB3 DUP4 CODECOPY DUP2 MLOAD SWAP2 MSTORE PUSH2 0xABF DUP2 PUSH2 0x16E5 JUMP JUMPDEST PUSH2 0xAC7 PUSH2 0x1843 JUMP JUMPDEST POP JUMP JUMPDEST PUSH1 0x0 PUSH2 0xAD5 DUP2 PUSH2 0x16E5 JUMP JUMPDEST PUSH1 0x1 PUSH1 0x1 PUSH1 0xA0 SHL SUB DUP3 AND PUSH2 0xB30 JUMPI PUSH1 0x40 MLOAD PUSH3 0x461BCD PUSH1 0xE5 SHL DUP2 MSTORE PUSH1 0x20 PUSH1 0x4 DUP3 ADD MSTORE PUSH1 0x1D PUSH1 0x24 DUP3 ADD MSTORE PUSH32 0x43616E6E6F7420626C61636B6C697374207A65726F2061646472657373000000 PUSH1 0x44 DUP3 ADD MSTORE PUSH1 0x64 ADD JUMPDEST PUSH1 0x40 MLOAD DUP1 SWAP2 SUB SWAP1 REVERT JUMPDEST PUSH1 0x1 PUSH1 0x1 PUSH1 0xA0 SHL SUB DUP3 AND PUSH1 0x0 SWAP1 DUP2 MSTORE PUSH1 0x3 PUSH1 0x20 MSTORE PUSH1 0x40 SWAP1 KECCAK256 SLOAD PUSH1 0xFF AND ISZERO PUSH2 0xB99 JUMPI PUSH1 0x40 MLOAD PUSH3 0x461BCD PUSH1 0xE5 SHL DUP2 MSTORE PUSH1 0x20 PUSH1 0x4 DUP3 ADD MSTORE PUSH1 0x1B PUSH1 0x24 DUP3 ADD MSTORE PUSH32 0x4164647265737320616C726561647920626C61636B6C69737465640000000000 PUSH1 0x44 DUP3 ADD MSTORE PUSH1 0x64 ADD PUSH2 0xB27 JUMP JUMPDEST PUSH1 0x1 PUSH1 0x1 PUSH1 0xA0 SHL SUB DUP3 AND PUSH1 0x0 DUP2 DUP2 MSTORE PUSH1 0x3 PUSH1 0x20 MSTORE PUSH1 0x40 DUP1 DUP3 KECCAK256 DUP1 SLOAD PUSH1 0xFF NOT AND PUSH1 0x1 OR SWAP1 SSTORE MLOAD CALLER SWAP3 SWAP2 PUSH32 0x4A740BEBDA0BDE2BAF1735E1B1FA93BABE7A2BB77ECADE7BF5E222D541C076CD SWAP2 LOG3 POP POP JUMP JUMPDEST PUSH2 0xBF0 PUSH2 0x18A3 JUMP JUMPDEST PUSH2 0xBF9 DUP3 PUSH2 0x194A JUMP JUMPDEST PUSH2 0xC03 DUP3 DUP3 PUSH2 0x1955 JUMP JUMPDEST POP POP JUMP JUMPDEST PUSH1 0x0 PUSH2 0xC11 PUSH2 0x1A12 JUMP JUMPDEST POP PUSH1 0x0 DUP1 MLOAD PUSH1 0x20 PUSH2 0x2C93 DUP4 CODECOPY DUP2 MLOAD SWAP2 MSTORE SWAP1 JUMP JUMPDEST PUSH1 0x0 PUSH2 0xC2F DUP2 PUSH2 0x16E5 JUMP JUMPDEST PUSH1 0x1 PUSH1 0x1 PUSH1 0xA0 SHL SUB DUP3 AND PUSH1 0x0 SWAP1 DUP2 MSTORE PUSH1 0x3 PUSH1 0x20 MSTORE PUSH1 0x40 SWAP1 KECCAK256 SLOAD PUSH1 0xFF AND PUSH2 0xC97 JUMPI PUSH1 0x40 MLOAD PUSH3 0x461BCD PUSH1 0xE5 SHL DUP2 MSTORE PUSH1 0x20 PUSH1 0x4 DUP3 ADD MSTORE PUSH1 0x17 PUSH1 0x24 DUP3 ADD MSTORE PUSH32 0x41646472657373206E6F7420626C61636B6C6973746564000000000000000000 PUSH1 0x44 DUP3 ADD MSTORE PUSH1 0x64 ADD PUSH2 0xB27 JUMP JUMPDEST PUSH1 0x1 PUSH1 0x1 PUSH1 0xA0 SHL SUB DUP3 AND PUSH1 0x0 DUP2 DUP2 MSTORE PUSH1 0x3 PUSH1 0x20 MSTORE PUSH1 0x40 DUP1 DUP3 KECCAK256 DUP1 SLOAD PUSH1 0xFF NOT AND SWAP1 SSTORE MLOAD CALLER SWAP3 SWAP2 PUSH32 0xC5D633221A999DA7B50BAD97DDD6CFF0C917455D8651123A6433642833252B7C SWAP2 LOG3 POP POP JUMP JUMPDEST PUSH1 0x0 PUSH2 0xCEE DUP2 PUSH2 0x16E5 JUMP JUMPDEST PUSH1 0x0 JUMPDEST DUP3 DUP2 LT ISZERO PUSH2 0x9A8 JUMPI PUSH1 0x0 DUP5 DUP5 DUP4 DUP2 DUP2 LT PUSH2 0xD0D JUMPI PUSH2 0xD0D PUSH2 0x2ACB JUMP JUMPDEST SWAP1 POP PUSH1 0x20 MUL ADD PUSH1 0x20 DUP2 ADD SWAP1 PUSH2 0xD22 SWAP2 SWAP1 PUSH2 0x25EB JUMP JUMPDEST SWAP1 POP PUSH1 0x1 PUSH1 0x1 PUSH1 0xA0 SHL SUB DUP2 AND ISZERO DUP1 ISZERO SWAP1 PUSH2 0xD55 JUMPI POP PUSH1 0x1 PUSH1 0x1 PUSH1 0xA0 SHL SUB DUP2 AND PUSH1 0x0 SWAP1 DUP2 MSTORE PUSH1 0x3 PUSH1 0x20 MSTORE PUSH1 0x40 SWAP1 KECCAK256 SLOAD PUSH1 0xFF AND ISZERO JUMPDEST ISZERO PUSH2 0xDA6 JUMPI PUSH1 0x1 PUSH1 0x1 PUSH1 0xA0 SHL SUB DUP2 AND PUSH1 0x0 DUP2 DUP2 MSTORE PUSH1 0x3 PUSH1 0x20 MSTORE PUSH1 0x40 DUP1 DUP3 KECCAK256 DUP1 SLOAD PUSH1 0xFF NOT AND PUSH1 0x1 OR SWAP1 SSTORE MLOAD CALLER SWAP3 SWAP2 PUSH32 0x4A740BEBDA0BDE2BAF1735E1B1FA93BABE7A2BB77ECADE7BF5E222D541C076CD SWAP2 LOG3 JUMPDEST POP PUSH1 0x1 ADD PUSH2 0xCF1 JUMP JUMPDEST PUSH1 0x0 DUP1 PUSH1 0x0 DUP1 MLOAD PUSH1 0x20 PUSH2 0x2C53 DUP4 CODECOPY DUP2 MLOAD SWAP2 MSTORE JUMPDEST PUSH1 0x1 PUSH1 0x1 PUSH1 0xA0 SHL SUB SWAP1 SWAP4 AND PUSH1 0x0 SWAP1 DUP2 MSTORE PUSH1 0x20 SWAP4 SWAP1 SWAP4 MSTORE POP POP PUSH1 0x40 SWAP1 KECCAK256 SLOAD SWAP1 JUMP JUMPDEST PUSH1 0x0 PUSH2 0x87D DUP3 PUSH2 0x1A5B JUMP JUMPDEST PUSH1 0x0 PUSH2 0xDF8 DUP2 PUSH2 0x16E5 JUMP JUMPDEST PUSH1 0x1 DUP1 SLOAD SWAP1 DUP4 SWAP1 SSTORE PUSH1 0x40 DUP1 MLOAD DUP3 DUP2 MSTORE PUSH1 0x20 DUP2 ADD DUP6 SWAP1 MSTORE PUSH32 0x98EAABFE135A9C40C420208962BF81E7926B4D6DF3E23502164C0554B7B35224 SWAP2 ADD PUSH1 0x40 MLOAD DUP1 SWAP2 SUB SWAP1 LOG1 POP POP POP JUMP JUMPDEST PUSH1 0x0 DUP1 MLOAD PUSH1 0x20 PUSH2 0x2CB3 DUP4 CODECOPY DUP2 MLOAD SWAP2 MSTORE PUSH2 0xE56 DUP2 PUSH2 0x16E5 JUMP JUMPDEST PUSH2 0xAC7 PUSH2 0x1A84 JUMP JUMPDEST PUSH1 0x0 PUSH1 0x60 DUP1 DUP3 DUP1 DUP1 DUP4 DUP2 PUSH1 0x0 DUP1 MLOAD PUSH1 0x20 PUSH2 0x2C73 DUP4 CODECOPY DUP2 MLOAD SWAP2 MSTORE DUP1 SLOAD SWAP1 SWAP2 POP ISZERO DUP1 ISZERO PUSH2 0xE8B JUMPI POP PUSH1 0x1 DUP2 ADD SLOAD ISZERO JUMPDEST PUSH2 0xECF JUMPI PUSH1 0x40 MLOAD PUSH3 0x461BCD PUSH1 0xE5 SHL DUP2 MSTORE PUSH1 0x20 PUSH1 0x4 DUP3 ADD MSTORE PUSH1 0x15 PUSH1 0x24 DUP3 ADD MSTORE PUSH21 0x1152540DCC4C8E88155B9A5B9A5D1A585B1A5E9959 PUSH1 0x5A SHL PUSH1 0x44 DUP3 ADD MSTORE PUSH1 0x64 ADD PUSH2 0xB27 JUMP JUMPDEST PUSH2 0xED7 PUSH2 0x1ACD JUMP JUMPDEST PUSH2 0xEDF PUSH2 0x1B0C JUMP JUMPDEST PUSH1 0x40 DUP1 MLOAD PUSH1 0x0 DUP1 DUP3 MSTORE PUSH1 0x20 DUP3 ADD SWAP1 SWAP3 MSTORE PUSH1 0xF PUSH1 0xF8 SHL SWAP13 SWAP4 SWAP12 POP SWAP2 SWAP10 POP CHAINID SWAP9 POP ADDRESS SWAP8 POP SWAP6 POP SWAP4 POP SWAP2 POP POP JUMP JUMPDEST DUP3 DUP2 EQ PUSH2 0xF52 JUMPI PUSH1 0x40 MLOAD PUSH3 0x461BCD PUSH1 0xE5 SHL DUP2 MSTORE PUSH1 0x20 PUSH1 0x4 DUP3 ADD MSTORE PUSH1 0x16 PUSH1 0x24 DUP3 ADD MSTORE PUSH22 0x82E4E4C2F2E640D8CADCCEE8D040DAD2E6DAC2E8C6D PUSH1 0x53 SHL PUSH1 0x44 DUP3 ADD MSTORE PUSH1 0x64 ADD PUSH2 0xB27 JUMP JUMPDEST PUSH1 0x0 JUMPDEST DUP4 DUP2 LT ISZERO PUSH2 0xFAE JUMPI PUSH2 0xFA6 CALLER DUP7 DUP7 DUP5 DUP2 DUP2 LT PUSH2 0xF73 JUMPI PUSH2 0xF73 PUSH2 0x2ACB JUMP JUMPDEST SWAP1 POP PUSH1 0x20 MUL ADD PUSH1 0x20 DUP2 ADD SWAP1 PUSH2 0xF88 SWAP2 SWAP1 PUSH2 0x25EB JUMP JUMPDEST DUP6 DUP6 DUP6 DUP2 DUP2 LT PUSH2 0xF9A JUMPI PUSH2 0xF9A PUSH2 0x2ACB JUMP JUMPDEST SWAP1 POP PUSH1 0x20 MUL ADD CALLDATALOAD PUSH2 0x1686 JUMP JUMPDEST PUSH1 0x1 ADD PUSH2 0xF55 JUMP JUMPDEST POP POP POP POP POP JUMP JUMPDEST PUSH1 0x0 SWAP2 DUP3 MSTORE PUSH1 0x0 DUP1 MLOAD PUSH1 0x20 PUSH2 0x2CD3 DUP4 CODECOPY DUP2 MLOAD SWAP2 MSTORE PUSH1 0x20 SWAP1 DUP2 MSTORE PUSH1 0x40 DUP1 DUP5 KECCAK256 PUSH1 0x1 PUSH1 0x1 PUSH1 0xA0 SHL SUB SWAP4 SWAP1 SWAP4 AND DUP5 MSTORE SWAP2 SWAP1 MSTORE SWAP1 KECCAK256 SLOAD PUSH1 0xFF AND SWAP1 JUMP JUMPDEST PUSH32 0x52C63247E1F47DB19D5CE0460030C497F067CA4CEBF71BA98EEADABE20BACE04 DUP1 SLOAD PUSH1 0x60 SWAP2 PUSH1 0x0 DUP1 MLOAD PUSH1 0x20 PUSH2 0x2C53 DUP4 CODECOPY DUP2 MLOAD SWAP2 MSTORE SWAP2 PUSH2 0x8A8 SWAP1 PUSH2 0x2A91 JUMP JUMPDEST PUSH1 0x0 PUSH2 0x1037 DUP2 PUSH2 0x16E5 JUMP JUMPDEST PUSH1 0x1 PUSH1 0x1 PUSH1 0xA0 SHL SUB DUP4 AND PUSH1 0x0 DUP2 DUP2 MSTORE PUSH1 0x2 PUSH1 0x20 MSTORE PUSH1 0x40 SWAP1 DUP2 SWAP1 KECCAK256 DUP5 SWAP1 SSTORE MLOAD PUSH32 0xA162F0703CBC0C48EA2C9E9BED5743AABC058E7532E594490E3A35BFB0F75AB8 SWAP1 PUSH2 0x1084 SWAP1 DUP6 DUP2 MSTORE PUSH1 0x20 ADD SWAP1 JUMP JUMPDEST PUSH1 0x40 MLOAD DUP1 SWAP2 SUB SWAP1 LOG2 POP POP POP JUMP JUMPDEST PUSH1 0x60 DUP2 PUSH1 0x1 PUSH1 0x1 PUSH1 0x40 SHL SUB DUP2 GT ISZERO PUSH2 0x10AB JUMPI PUSH2 0x10AB PUSH2 0x273F JUMP JUMPDEST PUSH1 0x40 MLOAD SWAP1 DUP1 DUP3 MSTORE DUP1 PUSH1 0x20 MUL PUSH1 0x20 ADD DUP3 ADD PUSH1 0x40 MSTORE DUP1 ISZERO PUSH2 0x10D4 JUMPI DUP2 PUSH1 0x20 ADD PUSH1 0x20 DUP3 MUL DUP1 CALLDATASIZE DUP4 CALLDATACOPY ADD SWAP1 POP JUMPDEST POP SWAP1 POP PUSH1 0x0 JUMPDEST DUP3 DUP2 LT ISZERO PUSH2 0x1159 JUMPI PUSH1 0x3 PUSH1 0x0 DUP6 DUP6 DUP5 DUP2 DUP2 LT PUSH2 0x10F8 JUMPI PUSH2 0x10F8 PUSH2 0x2ACB JUMP JUMPDEST SWAP1 POP PUSH1 0x20 MUL ADD PUSH1 0x20 DUP2 ADD SWAP1 PUSH2 0x110D SWAP2 SWAP1 PUSH2 0x25EB JUMP JUMPDEST PUSH1 0x1 PUSH1 0x1 PUSH1 0xA0 SHL SUB AND DUP2 MSTORE PUSH1 0x20 DUP2 ADD SWAP2 SWAP1 SWAP2 MSTORE PUSH1 0x40 ADD PUSH1 0x0 KECCAK256 SLOAD DUP3 MLOAD PUSH1 0xFF SWAP1 SWAP2 AND SWAP1 DUP4 SWAP1 DUP4 SWAP1 DUP2 LT PUSH2 0x1141 JUMPI PUSH2 0x1141 PUSH2 0x2ACB JUMP JUMPDEST SWAP2 ISZERO ISZERO PUSH1 0x20 SWAP3 DUP4 MUL SWAP2 SWAP1 SWAP2 ADD SWAP1 SWAP2 ADD MSTORE PUSH1 0x1 ADD PUSH2 0x10DA JUMP JUMPDEST POP SWAP3 SWAP2 POP POP JUMP JUMPDEST PUSH1 0x0 CALLER PUSH2 0x93A DUP2 DUP6 DUP6 PUSH2 0x1686 JUMP JUMPDEST PUSH1 0x0 PUSH2 0x1179 DUP2 PUSH2 0x16E5 JUMP JUMPDEST PUSH1 0x0 DUP1 SLOAD PUSH1 0x1 PUSH1 0x1 PUSH1 0xA0 SHL SUB DUP5 DUP2 AND PUSH1 0x1 PUSH1 0x1 PUSH1 0xA0 SHL SUB NOT DUP4 AND DUP2 OR DUP5 SSTORE PUSH1 0x40 MLOAD SWAP2 SWAP1 SWAP3 AND SWAP3 DUP4 SWAP2 PUSH32 0xDAAF87D9985C65A1BFBD019043294923AE1B048BA8B4616E3ACB32741D268DA1 SWAP2 SWAP1 LOG3 POP POP POP JUMP JUMPDEST DUP4 TIMESTAMP GT ISZERO PUSH2 0x11EE JUMPI PUSH1 0x40 MLOAD PUSH4 0x313C8981 PUSH1 0xE1 SHL DUP2 MSTORE PUSH1 0x4 DUP2 ADD DUP6 SWAP1 MSTORE PUSH1 0x24 ADD PUSH2 0xB27 JUMP JUMPDEST PUSH1 0x0 PUSH32 0x6E71EDAE12B1B97F4D1F60370FEF10105FA2FAAE0126114A169C64845D6126C9 DUP9 DUP9 DUP9 PUSH2 0x125A DUP13 PUSH1 0x1 PUSH1 0x1 PUSH1 0xA0 SHL SUB AND PUSH1 0x0 SWAP1 DUP2 MSTORE PUSH32 0x5AB42CED628888259C08AC98DB1EB0CF702FC1501344311D8B100CD1BFE4BB00 PUSH1 0x20 MSTORE PUSH1 0x40 SWAP1 KECCAK256 DUP1 SLOAD PUSH1 0x1 DUP2 ADD SWAP1 SWAP2 SSTORE SWAP1 JUMP JUMPDEST PUSH1 0x40 DUP1 MLOAD PUSH1 0x20 DUP2 ADD SWAP7 SWAP1 SWAP7 MSTORE PUSH1 0x1 PUSH1 0x1 PUSH1 0xA0 SHL SUB SWAP5 DUP6 AND SWAP1 DUP7 ADD MSTORE SWAP3 SWAP1 SWAP2 AND PUSH1 0x60 DUP5 ADD MSTORE PUSH1 0x80 DUP4 ADD MSTORE PUSH1 0xA0 DUP3 ADD MSTORE PUSH1 0xC0 DUP2 ADD DUP7 SWAP1 MSTORE PUSH1 0xE0 ADD PUSH1 0x40 MLOAD PUSH1 0x20 DUP2 DUP4 SUB SUB DUP2 MSTORE SWAP1 PUSH1 0x40 MSTORE DUP1 MLOAD SWAP1 PUSH1 0x20 ADD KECCAK256 SWAP1 POP PUSH1 0x0 PUSH2 0x12B5 DUP3 PUSH2 0x1B24 JUMP JUMPDEST SWAP1 POP PUSH1 0x0 PUSH2 0x12C5 DUP3 DUP8 DUP8 DUP8 PUSH2 0x1B51 JUMP JUMPDEST SWAP1 POP DUP10 PUSH1 0x1 PUSH1 0x1 PUSH1 0xA0 SHL SUB AND DUP2 PUSH1 0x1 PUSH1 0x1 PUSH1 0xA0 SHL SUB AND EQ PUSH2 0x130C JUMPI PUSH1 0x40 MLOAD PUSH4 0x25C00723 PUSH1 0xE1 SHL DUP2 MSTORE PUSH1 0x1 PUSH1 0x1 PUSH1 0xA0 SHL SUB DUP1 DUP4 AND PUSH1 0x4 DUP4 ADD MSTORE DUP12 AND PUSH1 0x24 DUP3 ADD MSTORE PUSH1 0x44 ADD PUSH2 0xB27 JUMP JUMPDEST PUSH2 0x1317 DUP11 DUP11 DUP11 PUSH2 0x1618 JUMP JUMPDEST POP POP POP POP POP POP POP POP POP POP JUMP JUMPDEST PUSH2 0x132C DUP3 PUSH2 0x96A JUMP JUMPDEST PUSH2 0x1335 DUP2 PUSH2 0x16E5 JUMP JUMPDEST PUSH2 0x9A8 DUP4 DUP4 PUSH2 0x179E JUMP JUMPDEST PUSH1 0x0 PUSH2 0x134A DUP2 PUSH2 0x16E5 JUMP JUMPDEST PUSH1 0x0 JUMPDEST DUP3 DUP2 LT ISZERO PUSH2 0x9A8 JUMPI PUSH1 0x0 DUP5 DUP5 DUP4 DUP2 DUP2 LT PUSH2 0x1369 JUMPI PUSH2 0x1369 PUSH2 0x2ACB JUMP JUMPDEST SWAP1 POP PUSH1 0x20 MUL ADD PUSH1 0x20 DUP2 ADD SWAP1 PUSH2 0x137E SWAP2 SWAP1 PUSH2 0x25EB JUMP JUMPDEST PUSH1 0x1 PUSH1 0x1 PUSH1 0xA0 SHL SUB DUP2 AND PUSH1 0x0 SWAP1 DUP2 MSTORE PUSH1 0x3 PUSH1 0x20 MSTORE PUSH1 0x40 SWAP1 KECCAK256 SLOAD SWAP1 SWAP2 POP PUSH1 0xFF AND ISZERO PUSH2 0x13EB JUMPI PUSH1 0x1 PUSH1 0x1 PUSH1 0xA0 SHL SUB DUP2 AND PUSH1 0x0 DUP2 DUP2 MSTORE PUSH1 0x3 PUSH1 0x20 MSTORE PUSH1 0x40 DUP1 DUP3 KECCAK256 DUP1 SLOAD PUSH1 0xFF NOT AND SWAP1 SSTORE MLOAD CALLER SWAP3 SWAP2 PUSH32 0xC5D633221A999DA7B50BAD97DDD6CFF0C917455D8651123A6433642833252B7C SWAP2 LOG3 JUMPDEST POP PUSH1 0x1 ADD PUSH2 0x134D JUMP JUMPDEST PUSH1 0x1 PUSH1 0x1 PUSH1 0xA0 SHL SUB SWAP2 DUP3 AND PUSH1 0x0 SWAP1 DUP2 MSTORE PUSH32 0x52C63247E1F47DB19D5CE0460030C497F067CA4CEBF71BA98EEADABE20BACE01 PUSH1 0x20 SWAP1 DUP2 MSTORE PUSH1 0x40 DUP1 DUP4 KECCAK256 SWAP4 SWAP1 SWAP5 AND DUP3 MSTORE SWAP2 SWAP1 SWAP2 MSTORE KECCAK256 SLOAD SWAP1 JUMP JUMPDEST PUSH1 0x0 PUSH2 0x1448 PUSH2 0x181A JUMP JUMPDEST DUP1 SLOAD SWAP1 SWAP2 POP PUSH1 0xFF PUSH1 0x1 PUSH1 0x40 SHL DUP3 DIV AND ISZERO SWAP1 PUSH1 0x1 PUSH1 0x1 PUSH1 0x40 SHL SUB AND PUSH1 0x0 DUP2 ISZERO DUP1 ISZERO PUSH2 0x146F JUMPI POP DUP3 JUMPDEST SWAP1 POP PUSH1 0x0 DUP3 PUSH1 0x1 PUSH1 0x1 PUSH1 0x40 SHL SUB AND PUSH1 0x1 EQ DUP1 ISZERO PUSH2 0x148B JUMPI POP ADDRESS EXTCODESIZE ISZERO JUMPDEST SWAP1 POP DUP2 ISZERO DUP1 ISZERO PUSH2 0x1499 JUMPI POP DUP1 ISZERO JUMPDEST ISZERO PUSH2 0x14B7 JUMPI PUSH1 0x40 MLOAD PUSH4 0xF92EE8A9 PUSH1 0xE0 SHL DUP2 MSTORE PUSH1 0x4 ADD PUSH1 0x40 MLOAD DUP1 SWAP2 SUB SWAP1 REVERT JUMPDEST DUP5 SLOAD PUSH8 0xFFFFFFFFFFFFFFFF NOT AND PUSH1 0x1 OR DUP6 SSTORE DUP4 ISZERO PUSH2 0x14E1 JUMPI DUP5 SLOAD PUSH1 0xFF PUSH1 0x40 SHL NOT AND PUSH1 0x1 PUSH1 0x40 SHL OR DUP6 SSTORE JUMPDEST PUSH2 0x1527 PUSH1 0x40 MLOAD DUP1 PUSH1 0x40 ADD PUSH1 0x40 MSTORE DUP1 PUSH1 0x9 DUP2 MSTORE PUSH1 0x20 ADD PUSH9 0x2820A2102A37B5B2B7 PUSH1 0xB9 SHL DUP2 MSTORE POP PUSH1 0x40 MLOAD DUP1 PUSH1 0x40 ADD PUSH1 0x40 MSTORE DUP1 PUSH1 0x3 DUP2 MSTORE PUSH1 0x20 ADD PUSH3 0x141051 PUSH1 0xEA SHL DUP2 MSTORE POP PUSH2 0x1B7F JUMP JUMPDEST PUSH2 0x1551 PUSH1 0x40 MLOAD DUP1 PUSH1 0x40 ADD PUSH1 0x40 MSTORE DUP1 PUSH1 0x9 DUP2 MSTORE PUSH1 0x20 ADD PUSH9 0x2820A2102A37B5B2B7 PUSH1 0xB9 SHL DUP2 MSTORE POP PUSH2 0x1B91 JUMP JUMPDEST PUSH2 0x1559 PUSH2 0x1BBC JUMP JUMPDEST PUSH2 0x1561 PUSH2 0x1BBC JUMP JUMPDEST PUSH2 0x1569 PUSH2 0x1BBC JUMP JUMPDEST PUSH2 0x1574 PUSH1 0x0 CALLER PUSH2 0x16EF JUMP JUMPDEST POP PUSH2 0x158D PUSH1 0x0 DUP1 MLOAD PUSH1 0x20 PUSH2 0x2CB3 DUP4 CODECOPY DUP2 MLOAD SWAP2 MSTORE CALLER PUSH2 0x16EF JUMP JUMPDEST POP PUSH2 0x15B8 PUSH32 0x9F2DF0FED2C77648DE5860A4CC508CD0818C85B8B8A1AB4CEEEF8D981C8956A6 CALLER PUSH2 0x16EF JUMP JUMPDEST POP PUSH2 0x15C3 CALLER DUP8 PUSH2 0x1BC4 JUMP JUMPDEST PUSH3 0x15180 PUSH1 0x1 SSTORE DUP4 ISZERO PUSH2 0x1610 JUMPI DUP5 SLOAD PUSH1 0xFF PUSH1 0x40 SHL NOT AND DUP6 SSTORE PUSH1 0x40 MLOAD PUSH1 0x1 DUP2 MSTORE PUSH32 0xC7F505B2F371AE2175EE4913F4499E1F2633A7B5936321EED1CDAEB6115181D2 SWAP1 PUSH1 0x20 ADD PUSH1 0x40 MLOAD DUP1 SWAP2 SUB SWAP1 LOG1 JUMPDEST POP POP POP POP POP POP JUMP JUMPDEST PUSH2 0x9F0 DUP4 DUP4 DUP4 PUSH1 0x1 PUSH2 0x1BFA JUMP JUMPDEST PUSH1 0x0 PUSH2 0x1631 DUP5 DUP5 PUSH2 0x13F4 JUMP JUMPDEST SWAP1 POP PUSH1 0x0 NOT DUP2 LT ISZERO PUSH2 0x9A8 JUMPI DUP2 DUP2 LT ISZERO PUSH2 0x1677 JUMPI PUSH1 0x40 MLOAD PUSH4 0x7DC7A0D9 PUSH1 0xE1 SHL DUP2 MSTORE PUSH1 0x1 PUSH1 0x1 PUSH1 0xA0 SHL SUB DUP5 AND PUSH1 0x4 DUP3 ADD MSTORE PUSH1 0x24 DUP2 ADD DUP3 SWAP1 MSTORE PUSH1 0x44 DUP2 ADD DUP4 SWAP1 MSTORE PUSH1 0x64 ADD PUSH2 0xB27 JUMP JUMPDEST PUSH2 0x9A8 DUP5 DUP5 DUP5 DUP5 SUB PUSH1 0x0 PUSH2 0x1BFA JUMP JUMPDEST PUSH1 0x1 PUSH1 0x1 PUSH1 0xA0 SHL SUB DUP4 AND PUSH2 0x16B0 JUMPI PUSH1 0x40 MLOAD PUSH4 0x4B637E8F PUSH1 0xE1 SHL DUP2 MSTORE PUSH1 0x0 PUSH1 0x4 DUP3 ADD MSTORE PUSH1 0x24 ADD PUSH2 0xB27 JUMP JUMPDEST PUSH1 0x1 PUSH1 0x1 PUSH1 0xA0 SHL SUB DUP3 AND PUSH2 0x16DA JUMPI PUSH1 0x40 MLOAD PUSH4 0xEC442F05 PUSH1 0xE0 SHL DUP2 MSTORE PUSH1 0x0 PUSH1 0x4 DUP3 ADD MSTORE PUSH1 0x24 ADD PUSH2 0xB27 JUMP JUMPDEST PUSH2 0x9F0 DUP4 DUP4 DUP4 PUSH2 0x1CE1 JUMP JUMPDEST PUSH2 0xAC7 DUP2 CALLER PUSH2 0x1DFB JUMP JUMPDEST PUSH1 0x0 PUSH1 0x0 DUP1 MLOAD PUSH1 0x20 PUSH2 0x2CD3 DUP4 CODECOPY DUP2 MLOAD SWAP2 MSTORE PUSH2 0x170A DUP5 DUP5 PUSH2 0xFB5 JUMP JUMPDEST PUSH2 0x178A JUMPI PUSH1 0x0 DUP5 DUP2 MSTORE PUSH1 0x20 DUP3 DUP2 MSTORE PUSH1 0x40 DUP1 DUP4 KECCAK256 PUSH1 0x1 PUSH1 0x1 PUSH1 0xA0 SHL SUB DUP8 AND DUP5 MSTORE SWAP1 SWAP2 MSTORE SWAP1 KECCAK256 DUP1 SLOAD PUSH1 0xFF NOT AND PUSH1 0x1 OR SWAP1 SSTORE PUSH2 0x1740 CALLER SWAP1 JUMP JUMPDEST PUSH1 0x1 PUSH1 0x1 PUSH1 0xA0 SHL SUB AND DUP4 PUSH1 0x1 PUSH1 0x1 PUSH1 0xA0 SHL SUB AND DUP6 PUSH32 0x2F8788117E7EFF1D82E926EC794901D17C78024A50270940304540A733656F0D PUSH1 0x40 MLOAD PUSH1 0x40 MLOAD DUP1 SWAP2 SUB SWAP1 LOG4 PUSH1 0x1 SWAP2 POP POP PUSH2 0x87D JUMP JUMPDEST PUSH1 0x0 SWAP2 POP POP PUSH2 0x87D JUMP JUMPDEST PUSH1 0x0 PUSH2 0x9B8 PUSH2 0x1E34 JUMP JUMPDEST PUSH1 0x0 PUSH1 0x0 DUP1 MLOAD PUSH1 0x20 PUSH2 0x2CD3 DUP4 CODECOPY DUP2 MLOAD SWAP2 MSTORE PUSH2 0x17B9 DUP5 DUP5 PUSH2 0xFB5 JUMP JUMPDEST ISZERO PUSH2 0x178A JUMPI PUSH1 0x0 DUP5 DUP2 MSTORE PUSH1 0x20 DUP3 DUP2 MSTORE PUSH1 0x40 DUP1 DUP4 KECCAK256 PUSH1 0x1 PUSH1 0x1 PUSH1 0xA0 SHL SUB DUP8 AND DUP1 DUP6 MSTORE SWAP3 MSTORE DUP1 DUP4 KECCAK256 DUP1 SLOAD PUSH1 0xFF NOT AND SWAP1 SSTORE MLOAD CALLER SWAP3 DUP8 SWAP2 PUSH32 0xF6391F5C32D9C69D2A47EA670B442974B53935D1EDC7FD64EB21E047A839171B SWAP2 SWAP1 LOG4 PUSH1 0x1 SWAP2 POP POP PUSH2 0x87D JUMP JUMPDEST PUSH1 0x0 DUP1 PUSH32 0xF0C57E16840DF040F15088DC2F81FE391C3923BEC73E23A9662EFC9C229C6A00 PUSH2 0x87D JUMP JUMPDEST PUSH2 0x184B PUSH2 0x1EA8 JUMP JUMPDEST PUSH1 0x0 DUP1 MLOAD PUSH1 0x20 PUSH2 0x2CF3 DUP4 CODECOPY DUP2 MLOAD SWAP2 MSTORE DUP1 SLOAD PUSH1 0xFF NOT AND DUP2 SSTORE PUSH32 0x5DB9EE0A495BF2E6FF9C91A7834C1BA4FDD244A5E8AA4E537BD38AEAE4B073AA CALLER JUMPDEST PUSH1 0x40 MLOAD PUSH1 0x1 PUSH1 0x1 PUSH1 0xA0 SHL SUB SWAP1 SWAP2 AND DUP2 MSTORE PUSH1 0x20 ADD PUSH1 0x40 MLOAD DUP1 SWAP2 SUB SWAP1 LOG1 POP JUMP JUMPDEST ADDRESS PUSH1 0x1 PUSH1 0x1 PUSH1 0xA0 SHL SUB PUSH32 0x0 AND EQ DUP1 PUSH2 0x192A JUMPI POP PUSH32 0x0 PUSH1 0x1 PUSH1 0x1 PUSH1 0xA0 SHL SUB AND PUSH2 0x191E PUSH1 0x0 DUP1 MLOAD PUSH1 0x20 PUSH2 0x2C93 DUP4 CODECOPY DUP2 MLOAD SWAP2 MSTORE SLOAD PUSH1 0x1 PUSH1 0x1 PUSH1 0xA0 SHL SUB AND SWAP1 JUMP JUMPDEST PUSH1 0x1 PUSH1 0x1 PUSH1 0xA0 SHL SUB AND EQ ISZERO JUMPDEST ISZERO PUSH2 0x1948 JUMPI PUSH1 0x40 MLOAD PUSH4 0x703E46DD PUSH1 0xE1 SHL DUP2 MSTORE PUSH1 0x4 ADD PUSH1 0x40 MLOAD DUP1 SWAP2 SUB SWAP1 REVERT JUMPDEST JUMP JUMPDEST PUSH1 0x0 PUSH2 0xC03 DUP2 PUSH2 0x16E5 JUMP JUMPDEST DUP2 PUSH1 0x1 PUSH1 0x1 PUSH1 0xA0 SHL SUB AND PUSH4 0x52D1902D PUSH1 0x40 MLOAD DUP2 PUSH4 0xFFFFFFFF AND PUSH1 0xE0 SHL DUP2 MSTORE PUSH1 0x4 ADD PUSH1 0x20 PUSH1 0x40 MLOAD DUP1 DUP4 SUB DUP2 DUP7 GAS STATICCALL SWAP3 POP POP POP DUP1 ISZERO PUSH2 0x19AF JUMPI POP PUSH1 0x40 DUP1 MLOAD PUSH1 0x1F RETURNDATASIZE SWAP1 DUP2 ADD PUSH1 0x1F NOT AND DUP3 ADD SWAP1 SWAP3 MSTORE PUSH2 0x19AC SWAP2 DUP2 ADD SWAP1 PUSH2 0x2AE1 JUMP JUMPDEST PUSH1 0x1 JUMPDEST PUSH2 0x19D7 JUMPI PUSH1 0x40 MLOAD PUSH4 0x4C9C8CE3 PUSH1 0xE0 SHL DUP2 MSTORE PUSH1 0x1 PUSH1 0x1 PUSH1 0xA0 SHL SUB DUP4 AND PUSH1 0x4 DUP3 ADD MSTORE PUSH1 0x24 ADD PUSH2 0xB27 JUMP JUMPDEST PUSH1 0x0 DUP1 MLOAD PUSH1 0x20 PUSH2 0x2C93 DUP4 CODECOPY DUP2 MLOAD SWAP2 MSTORE DUP2 EQ PUSH2 0x1A08 JUMPI PUSH1 0x40 MLOAD PUSH4 0x2A875269 PUSH1 0xE2 SHL DUP2 MSTORE PUSH1 0x4 DUP2 ADD DUP3 SWAP1 MSTORE PUSH1 0x24 ADD PUSH2 0xB27 JUMP JUMPDEST PUSH2 0x9F0 DUP4 DUP4 PUSH2 0x1ED8 JUMP JUMPDEST ADDRESS PUSH1 0x1 PUSH1 0x1 PUSH1 0xA0 SHL SUB PUSH32 0x0 AND EQ PUSH2 0x1948 JUMPI PUSH1 0x40 MLOAD PUSH4 0x703E46DD PUSH1 0xE1 SHL DUP2 MSTORE PUSH1 0x4 ADD PUSH1 0x40 MLOAD DUP1 SWAP2 SUB SWAP1 REVERT JUMPDEST PUSH1 0x0 DUP1 PUSH32 0x5AB42CED628888259C08AC98DB1EB0CF702FC1501344311D8B100CD1BFE4BB00 PUSH2 0xDC2 JUMP JUMPDEST PUSH2 0x1A8C PUSH2 0x1F2E JUMP JUMPDEST PUSH1 0x0 DUP1 MLOAD PUSH1 0x20 PUSH2 0x2CF3 DUP4 CODECOPY DUP2 MLOAD SWAP2 MSTORE DUP1 SLOAD PUSH1 0xFF NOT AND PUSH1 0x1 OR DUP2 SSTORE PUSH32 0x62E78CEA01BEE320CD4E420270B5EA74000D11B0C9F74754EBDBFC544B05A258 CALLER PUSH2 0x1885 JUMP JUMPDEST PUSH32 0xA16A46D94261C7517CC8FF89F61C0CE93598E3C849801011DEE649A6A557D102 DUP1 SLOAD PUSH1 0x60 SWAP2 PUSH1 0x0 DUP1 MLOAD PUSH1 0x20 PUSH2 0x2C73 DUP4 CODECOPY DUP2 MLOAD SWAP2 MSTORE SWAP2 PUSH2 0x8A8 SWAP1 PUSH2 0x2A91 JUMP JUMPDEST PUSH1 0x60 PUSH1 0x0 PUSH1 0x0 DUP1 MLOAD PUSH1 0x20 PUSH2 0x2C73 DUP4 CODECOPY DUP2 MLOAD SWAP2 MSTORE PUSH2 0x897 JUMP JUMPDEST PUSH1 0x0 PUSH2 0x87D PUSH2 0x1B31 PUSH2 0x1794 JUMP JUMPDEST DUP4 PUSH1 0x40 MLOAD PUSH2 0x1901 PUSH1 0xF0 SHL DUP2 MSTORE PUSH1 0x2 DUP2 ADD SWAP3 SWAP1 SWAP3 MSTORE PUSH1 0x22 DUP3 ADD MSTORE PUSH1 0x42 SWAP1 KECCAK256 SWAP1 JUMP JUMPDEST PUSH1 0x0 DUP1 PUSH1 0x0 DUP1 PUSH2 0x1B63 DUP9 DUP9 DUP9 DUP9 PUSH2 0x1F5F JUMP JUMPDEST SWAP3 POP SWAP3 POP SWAP3 POP PUSH2 0x1B73 DUP3 DUP3 PUSH2 0x202E JUMP JUMPDEST POP SWAP1 SWAP7 SWAP6 POP POP POP POP POP POP JUMP JUMPDEST PUSH2 0x1B87 PUSH2 0x20E7 JUMP JUMPDEST PUSH2 0xC03 DUP3 DUP3 PUSH2 0x210C JUMP JUMPDEST PUSH2 0x1B99 PUSH2 0x20E7 JUMP JUMPDEST PUSH2 0xAC7 DUP2 PUSH1 0x40 MLOAD DUP1 PUSH1 0x40 ADD PUSH1 0x40 MSTORE DUP1 PUSH1 0x1 DUP2 MSTORE PUSH1 0x20 ADD PUSH1 0x31 PUSH1 0xF8 SHL DUP2 MSTORE POP PUSH2 0x215D JUMP JUMPDEST PUSH2 0x1948 PUSH2 0x20E7 JUMP JUMPDEST PUSH1 0x1 PUSH1 0x1 PUSH1 0xA0 SHL SUB DUP3 AND PUSH2 0x1BEE JUMPI PUSH1 0x40 MLOAD PUSH4 0xEC442F05 PUSH1 0xE0 SHL DUP2 MSTORE PUSH1 0x0 PUSH1 0x4 DUP3 ADD MSTORE PUSH1 0x24 ADD PUSH2 0xB27 JUMP JUMPDEST PUSH2 0xC03 PUSH1 0x0 DUP4 DUP4 PUSH2 0x1CE1 JUMP JUMPDEST PUSH1 0x0 DUP1 MLOAD PUSH1 0x20 PUSH2 0x2C53 DUP4 CODECOPY DUP2 MLOAD SWAP2 MSTORE PUSH1 0x1 PUSH1 0x1 PUSH1 0xA0 SHL SUB DUP6 AND PUSH2 0x1C33 JUMPI PUSH1 0x40 MLOAD PUSH4 0xE602DF05 PUSH1 0xE0 SHL DUP2 MSTORE PUSH1 0x0 PUSH1 0x4 DUP3 ADD MSTORE PUSH1 0x24 ADD PUSH2 0xB27 JUMP JUMPDEST PUSH1 0x1 PUSH1 0x1 PUSH1 0xA0 SHL SUB DUP5 AND PUSH2 0x1C5D JUMPI PUSH1 0x40 MLOAD PUSH4 0x4A1406B1 PUSH1 0xE1 SHL DUP2 MSTORE PUSH1 0x0 PUSH1 0x4 DUP3 ADD MSTORE PUSH1 0x24 ADD PUSH2 0xB27 JUMP JUMPDEST PUSH1 0x1 PUSH1 0x1 PUSH1 0xA0 SHL SUB DUP1 DUP7 AND PUSH1 0x0 SWAP1 DUP2 MSTORE PUSH1 0x1 DUP4 ADD PUSH1 0x20 SWAP1 DUP2 MSTORE PUSH1 0x40 DUP1 DUP4 KECCAK256 SWAP4 DUP9 AND DUP4 MSTORE SWAP3 SWAP1 MSTORE KECCAK256 DUP4 SWAP1 SSTORE DUP2 ISZERO PUSH2 0xFAE JUMPI DUP4 PUSH1 0x1 PUSH1 0x1 PUSH1 0xA0 SHL SUB AND DUP6 PUSH1 0x1 PUSH1 0x1 PUSH1 0xA0 SHL SUB AND PUSH32 0x8C5BE1E5EBEC7D5BD14F71427D1E84F3DD0314C0F7B2291E5B200AC8C7C3B925 DUP6 PUSH1 0x40 MLOAD PUSH2 0x1CD2 SWAP2 DUP2 MSTORE PUSH1 0x20 ADD SWAP1 JUMP JUMPDEST PUSH1 0x40 MLOAD DUP1 SWAP2 SUB SWAP1 LOG3 POP POP POP POP POP JUMP JUMPDEST PUSH1 0x1 PUSH1 0x1 PUSH1 0xA0 SHL SUB DUP4 AND PUSH1 0x0 SWAP1 DUP2 MSTORE PUSH1 0x3 PUSH1 0x20 MSTORE PUSH1 0x40 SWAP1 KECCAK256 SLOAD DUP4 SWAP1 PUSH1 0xFF AND ISZERO PUSH2 0x1D28 JUMPI PUSH1 0x40 MLOAD PUSH4 0xE2A0FE63 PUSH1 0xE0 SHL DUP2 MSTORE PUSH1 0x1 PUSH1 0x1 PUSH1 0xA0 SHL SUB DUP3 AND PUSH1 0x4 DUP3 ADD MSTORE PUSH1 0x24 ADD PUSH2 0xB27 JUMP JUMPDEST PUSH1 0x1 PUSH1 0x1 PUSH1 0xA0 SHL SUB DUP4 AND PUSH1 0x0 SWAP1 DUP2 MSTORE PUSH1 0x3 PUSH1 0x20 MSTORE PUSH1 0x40 SWAP1 KECCAK256 SLOAD DUP4 SWAP1 PUSH1 0xFF AND ISZERO PUSH2 0x1D6F JUMPI PUSH1 0x40 MLOAD PUSH4 0xE2A0FE63 PUSH1 0xE0 SHL DUP2 MSTORE PUSH1 0x1 PUSH1 0x1 PUSH1 0xA0 SHL SUB DUP3 AND PUSH1 0x4 DUP3 ADD MSTORE PUSH1 0x24 ADD PUSH2 0xB27 JUMP JUMPDEST PUSH1 0x1 PUSH1 0x1 PUSH1 0xA0 SHL SUB DUP6 AND ISZERO DUP1 ISZERO SWAP1 PUSH2 0x1D8F JUMPI POP PUSH1 0x1 PUSH1 0x1 PUSH1 0xA0 SHL SUB DUP5 AND ISZERO ISZERO JUMPDEST ISZERO PUSH2 0x1DF0 JUMPI PUSH1 0x1 PUSH1 0x1 PUSH1 0xA0 SHL SUB DUP6 AND PUSH1 0x0 SWAP1 DUP2 MSTORE PUSH1 0x2 PUSH1 0x20 MSTORE PUSH1 0x40 SWAP1 KECCAK256 SLOAD TIMESTAMP LT ISZERO PUSH2 0x1DF0 JUMPI PUSH1 0x1 PUSH1 0x1 PUSH1 0xA0 SHL SUB DUP6 AND PUSH1 0x0 DUP2 DUP2 MSTORE PUSH1 0x2 PUSH1 0x20 MSTORE PUSH1 0x40 SWAP1 DUP2 SWAP1 KECCAK256 SLOAD SWAP1 MLOAD PUSH4 0xDAC64F9 PUSH1 0xE0 SHL DUP2 MSTORE PUSH1 0x4 DUP2 ADD SWAP3 SWAP1 SWAP3 MSTORE PUSH1 0x24 DUP3 ADD MSTORE PUSH1 0x44 ADD PUSH2 0xB27 JUMP JUMPDEST PUSH2 0xFAE DUP6 DUP6 DUP6 PUSH2 0x21BE JUMP JUMPDEST PUSH2 0x1E05 DUP3 DUP3 PUSH2 0xFB5 JUMP JUMPDEST PUSH2 0xC03 JUMPI PUSH1 0x40 MLOAD PUSH4 0xE2517D3F PUSH1 0xE0 SHL DUP2 MSTORE PUSH1 0x1 PUSH1 0x1 PUSH1 0xA0 SHL SUB DUP3 AND PUSH1 0x4 DUP3 ADD MSTORE PUSH1 0x24 DUP2 ADD DUP4 SWAP1 MSTORE PUSH1 0x44 ADD PUSH2 0xB27 JUMP JUMPDEST PUSH1 0x0 PUSH32 0x8B73C3C69BB8FE3D512ECC4CF759CC79239F7B179B0FFACAA9A75D522B39400F PUSH2 0x1E5F PUSH2 0x224A JUMP JUMPDEST PUSH2 0x1E67 PUSH2 0x22B4 JUMP JUMPDEST PUSH1 0x40 DUP1 MLOAD PUSH1 0x20 DUP2 ADD SWAP5 SWAP1 SWAP5 MSTORE DUP4 ADD SWAP2 SWAP1 SWAP2 MSTORE PUSH1 0x60 DUP3 ADD MSTORE CHAINID PUSH1 0x80 DUP3 ADD MSTORE ADDRESS PUSH1 0xA0 DUP3 ADD MSTORE PUSH1 0xC0 ADD PUSH1 0x40 MLOAD PUSH1 0x20 DUP2 DUP4 SUB SUB DUP2 MSTORE SWAP1 PUSH1 0x40 MSTORE DUP1 MLOAD SWAP1 PUSH1 0x20 ADD KECCAK256 SWAP1 POP SWAP1 JUMP JUMPDEST PUSH1 0x0 DUP1 MLOAD PUSH1 0x20 PUSH2 0x2CF3 DUP4 CODECOPY DUP2 MLOAD SWAP2 MSTORE SLOAD PUSH1 0xFF AND PUSH2 0x1948 JUMPI PUSH1 0x40 MLOAD PUSH4 0x8DFC202B PUSH1 0xE0 SHL DUP2 MSTORE PUSH1 0x4 ADD PUSH1 0x40 MLOAD DUP1 SWAP2 SUB SWAP1 REVERT JUMPDEST PUSH2 0x1EE1 DUP3 PUSH2 0x22F8 JUMP JUMPDEST PUSH1 0x40 MLOAD PUSH1 0x1 PUSH1 0x1 PUSH1 0xA0 SHL SUB DUP4 AND SWAP1 PUSH32 0xBC7CD75A20EE27FD9ADEBAB32041F755214DBC6BFFA90CC0225B39DA2E5C2D3B SWAP1 PUSH1 0x0 SWAP1 LOG2 DUP1 MLOAD ISZERO PUSH2 0x1F26 JUMPI PUSH2 0x9F0 DUP3 DUP3 PUSH2 0x235D JUMP JUMPDEST PUSH2 0xC03 PUSH2 0x23D3 JUMP JUMPDEST PUSH1 0x0 DUP1 MLOAD PUSH1 0x20 PUSH2 0x2CF3 DUP4 CODECOPY DUP2 MLOAD SWAP2 MSTORE SLOAD PUSH1 0xFF AND ISZERO PUSH2 0x1948 JUMPI PUSH1 0x40 MLOAD PUSH4 0xD93C0665 PUSH1 0xE0 SHL DUP2 MSTORE PUSH1 0x4 ADD PUSH1 0x40 MLOAD DUP1 SWAP2 SUB SWAP1 REVERT JUMPDEST PUSH1 0x0 DUP1 DUP1 PUSH32 0x7FFFFFFFFFFFFFFFFFFFFFFFFFFFFFFF5D576E7357A4501DDFE92F46681B20A0 DUP5 GT ISZERO PUSH2 0x1F9A JUMPI POP PUSH1 0x0 SWAP2 POP PUSH1 0x3 SWAP1 POP DUP3 PUSH2 0x2024 JUMP JUMPDEST PUSH1 0x40 DUP1 MLOAD PUSH1 0x0 DUP1 DUP3 MSTORE PUSH1 0x20 DUP3 ADD DUP1 DUP5 MSTORE DUP11 SWAP1 MSTORE PUSH1 0xFF DUP10 AND SWAP3 DUP3 ADD SWAP3 SWAP1 SWAP3 MSTORE PUSH1 0x60 DUP2 ADD DUP8 SWAP1 MSTORE PUSH1 0x80 DUP2 ADD DUP7 SWAP1 MSTORE PUSH1 0x1 SWAP1 PUSH1 0xA0 ADD PUSH1 0x20 PUSH1 0x40 MLOAD PUSH1 0x20 DUP2 SUB SWAP1 DUP1 DUP5 SUB SWAP1 DUP6 GAS STATICCALL ISZERO DUP1 ISZERO PUSH2 0x1FEE JUMPI RETURNDATASIZE PUSH1 0x0 DUP1 RETURNDATACOPY RETURNDATASIZE PUSH1 0x0 REVERT JUMPDEST POP POP PUSH1 0x40 MLOAD PUSH1 0x1F NOT ADD MLOAD SWAP2 POP POP PUSH1 0x1 PUSH1 0x1 PUSH1 0xA0 SHL SUB DUP2 AND PUSH2 0x201A JUMPI POP PUSH1 0x0 SWAP3 POP PUSH1 0x1 SWAP2 POP DUP3 SWAP1 POP PUSH2 0x2024 JUMP JUMPDEST SWAP3 POP PUSH1 0x0 SWAP2 POP DUP2 SWAP1 POP JUMPDEST SWAP5 POP SWAP5 POP SWAP5 SWAP2 POP POP JUMP JUMPDEST PUSH1 0x0 DUP3 PUSH1 0x3 DUP2 GT ISZERO PUSH2 0x2042 JUMPI PUSH2 0x2042 PUSH2 0x2AFA JUMP JUMPDEST SUB PUSH2 0x204B JUMPI POP POP JUMP JUMPDEST PUSH1 0x1 DUP3 PUSH1 0x3 DUP2 GT ISZERO PUSH2 0x205F JUMPI PUSH2 0x205F PUSH2 0x2AFA JUMP JUMPDEST SUB PUSH2 0x207D JUMPI PUSH1 0x40 MLOAD PUSH4 0xF645EEDF PUSH1 0xE0 SHL DUP2 MSTORE PUSH1 0x4 ADD PUSH1 0x40 MLOAD DUP1 SWAP2 SUB SWAP1 REVERT JUMPDEST PUSH1 0x2 DUP3 PUSH1 0x3 DUP2 GT ISZERO PUSH2 0x2091 JUMPI PUSH2 0x2091 PUSH2 0x2AFA JUMP JUMPDEST SUB PUSH2 0x20B2 JUMPI PUSH1 0x40 MLOAD PUSH4 0xFCE698F7 PUSH1 0xE0 SHL DUP2 MSTORE PUSH1 0x4 DUP2 ADD DUP3 SWAP1 MSTORE PUSH1 0x24 ADD PUSH2 0xB27 JUMP JUMPDEST PUSH1 0x3 DUP3 PUSH1 0x3 DUP2 GT ISZERO PUSH2 0x20C6 JUMPI PUSH2 0x20C6 PUSH2 0x2AFA JUMP JUMPDEST SUB PUSH2 0xC03 JUMPI PUSH1 0x40 MLOAD PUSH4 0x35E2F383 PUSH1 0xE2 SHL DUP2 MSTORE PUSH1 0x4 DUP2 ADD DUP3 SWAP1 MSTORE PUSH1 0x24 ADD PUSH2 0xB27 JUMP JUMPDEST PUSH2 0x20EF PUSH2 0x23F2 JUMP JUMPDEST PUSH2 0x1948 JUMPI PUSH1 0x40 MLOAD PUSH4 0x1AFCD79F PUSH1 0xE3 SHL DUP2 MSTORE PUSH1 0x4 ADD PUSH1 0x40 MLOAD DUP1 SWAP2 SUB SWAP1 REVERT JUMPDEST PUSH2 0x2114 PUSH2 0x20E7 JUMP JUMPDEST PUSH1 0x0 DUP1 MLOAD PUSH1 0x20 PUSH2 0x2C53 DUP4 CODECOPY DUP2 MLOAD SWAP2 MSTORE PUSH32 0x52C63247E1F47DB19D5CE0460030C497F067CA4CEBF71BA98EEADABE20BACE03 PUSH2 0x214E DUP5 DUP3 PUSH2 0x2B57 JUMP JUMPDEST POP PUSH1 0x4 DUP2 ADD PUSH2 0x9A8 DUP4 DUP3 PUSH2 0x2B57 JUMP JUMPDEST PUSH2 0x2165 PUSH2 0x20E7 JUMP JUMPDEST PUSH1 0x0 DUP1 MLOAD PUSH1 0x20 PUSH2 0x2C73 DUP4 CODECOPY DUP2 MLOAD SWAP2 MSTORE PUSH32 0xA16A46D94261C7517CC8FF89F61C0CE93598E3C849801011DEE649A6A557D102 PUSH2 0x219F DUP5 DUP3 PUSH2 0x2B57 JUMP JUMPDEST POP PUSH1 0x3 DUP2 ADD PUSH2 0x21AE DUP4 DUP3 PUSH2 0x2B57 JUMP JUMPDEST POP PUSH1 0x0 DUP1 DUP3 SSTORE PUSH1 0x1 SWAP1 SWAP2 ADD SSTORE POP POP JUMP JUMPDEST PUSH1 0x1 PUSH1 0x1 PUSH1 0xA0 SHL SUB DUP4 AND ISZERO DUP1 ISZERO SWAP1 PUSH2 0x21DE JUMPI POP PUSH1 0x1 PUSH1 0x1 PUSH1 0xA0 SHL SUB DUP3 AND ISZERO ISZERO JUMPDEST ISZERO PUSH2 0x223F JUMPI PUSH1 0x1 PUSH1 0x1 PUSH1 0xA0 SHL SUB DUP4 AND PUSH1 0x0 SWAP1 DUP2 MSTORE PUSH1 0x2 PUSH1 0x20 MSTORE PUSH1 0x40 SWAP1 KECCAK256 SLOAD TIMESTAMP LT ISZERO PUSH2 0x223F JUMPI PUSH1 0x1 PUSH1 0x1 PUSH1 0xA0 SHL SUB DUP4 AND PUSH1 0x0 DUP2 DUP2 MSTORE PUSH1 0x2 PUSH1 0x20 MSTORE PUSH1 0x40 SWAP1 DUP2 SWAP1 KECCAK256 SLOAD SWAP1 MLOAD PUSH4 0xDAC64F9 PUSH1 0xE0 SHL DUP2 MSTORE PUSH1 0x4 DUP2 ADD SWAP3 SWAP1 SWAP3 MSTORE PUSH1 0x24 DUP3 ADD MSTORE PUSH1 0x44 ADD PUSH2 0xB27 JUMP JUMPDEST PUSH2 0x9F0 DUP4 DUP4 DUP4 PUSH2 0x240C JUMP JUMPDEST PUSH1 0x0 PUSH1 0x0 DUP1 MLOAD PUSH1 0x20 PUSH2 0x2C73 DUP4 CODECOPY DUP2 MLOAD SWAP2 MSTORE DUP2 PUSH2 0x2264 PUSH2 0x1ACD JUMP JUMPDEST DUP1 MLOAD SWAP1 SWAP2 POP ISZERO PUSH2 0x227C JUMPI DUP1 MLOAD PUSH1 0x20 SWAP1 SWAP2 ADD KECCAK256 SWAP3 SWAP2 POP POP JUMP JUMPDEST DUP2 SLOAD DUP1 ISZERO PUSH2 0x228B JUMPI SWAP4 SWAP3 POP POP POP JUMP JUMPDEST PUSH32 0xC5D2460186F7233C927E7DB2DCC703C0E500B653CA82273B7BFAD8045D85A470 SWAP4 POP POP POP POP SWAP1 JUMP JUMPDEST PUSH1 0x0 PUSH1 0x0 DUP1 MLOAD PUSH1 0x20 PUSH2 0x2C73 DUP4 CODECOPY DUP2 MLOAD SWAP2 MSTORE DUP2 PUSH2 0x22CE PUSH2 0x1B0C JUMP JUMPDEST DUP1 MLOAD SWAP1 SWAP2 POP ISZERO PUSH2 0x22E6 JUMPI DUP1 MLOAD PUSH1 0x20 SWAP1 SWAP2 ADD KECCAK256 SWAP3 SWAP2 POP POP JUMP JUMPDEST PUSH1 0x1 DUP3 ADD SLOAD DUP1 ISZERO PUSH2 0x228B JUMPI SWAP4 SWAP3 POP POP POP JUMP JUMPDEST DUP1 PUSH1 0x1 PUSH1 0x1 PUSH1 0xA0 SHL SUB AND EXTCODESIZE PUSH1 0x0 SUB PUSH2 0x232E JUMPI PUSH1 0x40 MLOAD PUSH4 0x4C9C8CE3 PUSH1 0xE0 SHL DUP2 MSTORE PUSH1 0x1 PUSH1 0x1 PUSH1 0xA0 SHL SUB DUP3 AND PUSH1 0x4 DUP3 ADD MSTORE PUSH1 0x24 ADD PUSH2 0xB27 JUMP JUMPDEST PUSH1 0x0 DUP1 MLOAD PUSH1 0x20 PUSH2 0x2C93 DUP4 CODECOPY DUP2 MLOAD SWAP2 MSTORE DUP1 SLOAD PUSH1 0x1 PUSH1 0x1 PUSH1 0xA0 SHL SUB NOT AND PUSH1 0x1 PUSH1 0x1 PUSH1 0xA0 SHL SUB SWAP3 SWAP1 SWAP3 AND SWAP2 SWAP1 SWAP2 OR SWAP1 SSTORE JUMP JUMPDEST PUSH1 0x60 PUSH1 0x0 DUP1 DUP5 PUSH1 0x1 PUSH1 0x1 PUSH1 0xA0 SHL SUB AND DUP5 PUSH1 0x40 MLOAD PUSH2 0x237A SWAP2 SWAP1 PUSH2 0x2C15 JUMP JUMPDEST PUSH1 0x0 PUSH1 0x40 MLOAD DUP1 DUP4 SUB DUP2 DUP6 GAS DELEGATECALL SWAP2 POP POP RETURNDATASIZE DUP1 PUSH1 0x0 DUP2 EQ PUSH2 0x23B5 JUMPI PUSH1 0x40 MLOAD SWAP2 POP PUSH1 0x1F NOT PUSH1 0x3F RETURNDATASIZE ADD AND DUP3 ADD PUSH1 0x40 MSTORE RETURNDATASIZE DUP3 MSTORE RETURNDATASIZE PUSH1 0x0 PUSH1 0x20 DUP5 ADD RETURNDATACOPY PUSH2 0x23BA JUMP JUMPDEST PUSH1 0x60 SWAP2 POP JUMPDEST POP SWAP2 POP SWAP2 POP PUSH2 0x23CA DUP6 DUP4 DUP4 PUSH2 0x254A JUMP JUMPDEST SWAP6 SWAP5 POP POP POP POP POP JUMP JUMPDEST CALLVALUE ISZERO PUSH2 0x1948 JUMPI PUSH1 0x40 MLOAD PUSH4 0xB398979F PUSH1 0xE0 SHL DUP2 MSTORE PUSH1 0x4 ADD PUSH1 0x40 MLOAD DUP1 SWAP2 SUB SWAP1 REVERT JUMPDEST PUSH1 0x0 PUSH2 0x23FC PUSH2 0x181A JUMP JUMPDEST SLOAD PUSH1 0x1 PUSH1 0x40 SHL SWAP1 DIV PUSH1 0xFF AND SWAP2 SWAP1 POP JUMP JUMPDEST PUSH1 0x0 DUP1 MLOAD PUSH1 0x20 PUSH2 0x2C53 DUP4 CODECOPY DUP2 MLOAD SWAP2 MSTORE PUSH1 0x1 PUSH1 0x1 PUSH1 0xA0 SHL SUB DUP5 AND PUSH2 0x2448 JUMPI DUP2 DUP2 PUSH1 0x2 ADD PUSH1 0x0 DUP3 DUP3 SLOAD PUSH2 0x243D SWAP2 SWAP1 PUSH2 0x2C31 JUMP JUMPDEST SWAP1 SWAP2 SSTORE POP PUSH2 0x24BA SWAP1 POP JUMP JUMPDEST PUSH1 0x1 PUSH1 0x1 PUSH1 0xA0 SHL SUB DUP5 AND PUSH1 0x0 SWAP1 DUP2 MSTORE PUSH1 0x20 DUP3 SWAP1 MSTORE PUSH1 0x40 SWAP1 KECCAK256 SLOAD DUP3 DUP2 LT ISZERO PUSH2 0x249B JUMPI PUSH1 0x40 MLOAD PUSH4 0x391434E3 PUSH1 0xE2 SHL DUP2 MSTORE PUSH1 0x1 PUSH1 0x1 PUSH1 0xA0 SHL SUB DUP7 AND PUSH1 0x4 DUP3 ADD MSTORE PUSH1 0x24 DUP2 ADD DUP3 SWAP1 MSTORE PUSH1 0x44 DUP2 ADD DUP5 SWAP1 MSTORE PUSH1 0x64 ADD PUSH2 0xB27 JUMP JUMPDEST PUSH1 0x1 PUSH1 0x1 PUSH1 0xA0 SHL SUB DUP6 AND PUSH1 0x0 SWAP1 DUP2 MSTORE PUSH1 0x20 DUP4 SWAP1 MSTORE PUSH1 0x40 SWAP1 KECCAK256 SWAP1 DUP4 SWAP1 SUB SWAP1 SSTORE JUMPDEST PUSH1 0x1 PUSH1 0x1 PUSH1 0xA0 SHL SUB DUP4 AND PUSH2 0x24D8 JUMPI PUSH1 0x2 DUP2 ADD DUP1 SLOAD DUP4 SWAP1 SUB SWAP1 SSTORE PUSH2 0x24F7 JUMP JUMPDEST PUSH1 0x1 PUSH1 0x1 PUSH1 0xA0 SHL SUB DUP4 AND PUSH1 0x0 SWAP1 DUP2 MSTORE PUSH1 0x20 DUP3 SWAP1 MSTORE PUSH1 0x40 SWAP1 KECCAK256 DUP1 SLOAD DUP4 ADD SWAP1 SSTORE JUMPDEST DUP3 PUSH1 0x1 PUSH1 0x1 PUSH1 0xA0 SHL SUB AND DUP5 PUSH1 0x1 PUSH1 0x1 PUSH1 0xA0 SHL SUB AND PUSH32 0xDDF252AD1BE2C89B69C2B068FC378DAA952BA7F163C4A11628F55A4DF523B3EF DUP5 PUSH1 0x40 MLOAD PUSH2 0x253C SWAP2 DUP2 MSTORE PUSH1 0x20 ADD SWAP1 JUMP JUMPDEST PUSH1 0x40 MLOAD DUP1 SWAP2 SUB SWAP1 LOG3 POP POP POP POP JUMP JUMPDEST PUSH1 0x60 DUP3 PUSH2 0x255F JUMPI PUSH2 0x255A DUP3 PUSH2 0x25A6 JUMP JUMPDEST PUSH2 0x963 JUMP JUMPDEST DUP2 MLOAD ISZERO DUP1 ISZERO PUSH2 0x2576 JUMPI POP PUSH1 0x1 PUSH1 0x1 PUSH1 0xA0 SHL SUB DUP5 AND EXTCODESIZE ISZERO JUMPDEST ISZERO PUSH2 0x259F JUMPI PUSH1 0x40 MLOAD PUSH4 0x9996B315 PUSH1 0xE0 SHL DUP2 MSTORE PUSH1 0x1 PUSH1 0x1 PUSH1 0xA0 SHL SUB DUP6 AND PUSH1 0x4 DUP3 ADD MSTORE PUSH1 0x24 ADD PUSH2 0xB27 JUMP JUMPDEST POP DUP1 PUSH2 0x963 JUMP JUMPDEST DUP1 MLOAD ISZERO PUSH2 0x25B6 JUMPI DUP1 MLOAD DUP1 DUP3 PUSH1 0x20 ADD REVERT JUMPDEST PUSH1 0x40 MLOAD PUSH4 0xD6BDA275 PUSH1 0xE0 SHL DUP2 MSTORE PUSH1 0x4 ADD PUSH1 0x40 MLOAD DUP1 SWAP2 SUB SWAP1 REVERT JUMPDEST DUP1 CALLDATALOAD PUSH1 0x1 PUSH1 0x1 PUSH1 0xA0 SHL SUB DUP2 AND DUP2 EQ PUSH2 0x25E6 JUMPI PUSH1 0x0 DUP1 REVERT JUMPDEST SWAP2 SWAP1 POP JUMP JUMPDEST PUSH1 0x0 PUSH1 0x20 DUP3 DUP5 SUB SLT ISZERO PUSH2 0x25FD JUMPI PUSH1 0x0 DUP1 REVERT JUMPDEST PUSH2 0x963 DUP3 PUSH2 0x25CF JUMP JUMPDEST PUSH1 0x0 PUSH1 0x20 DUP3 DUP5 SUB SLT ISZERO PUSH2 0x2618 JUMPI PUSH1 0x0 DUP1 REVERT JUMPDEST DUP2 CALLDATALOAD PUSH1 0x1 PUSH1 0x1 PUSH1 0xE0 SHL SUB NOT DUP2 AND DUP2 EQ PUSH2 0x963 JUMPI PUSH1 0x0 DUP1 REVERT JUMPDEST PUSH1 0x0 JUMPDEST DUP4 DUP2 LT ISZERO PUSH2 0x264B JUMPI DUP2 DUP2 ADD MLOAD DUP4 DUP3 ADD MSTORE PUSH1 0x20 ADD PUSH2 0x2633 JUMP JUMPDEST POP POP PUSH1 0x0 SWAP2 ADD MSTORE JUMP JUMPDEST PUSH1 0x0 DUP2 MLOAD DUP1 DUP5 MSTORE PUSH2 0x266C DUP2 PUSH1 0x20 DUP7 ADD PUSH1 0x20 DUP7 ADD PUSH2 0x2630 JUMP JUMPDEST PUSH1 0x1F ADD PUSH1 0x1F NOT AND SWAP3 SWAP1 SWAP3 ADD PUSH1 0x20 ADD SWAP3 SWAP2 POP POP JUMP JUMPDEST PUSH1 0x20 DUP2 MSTORE PUSH1 0x0 PUSH2 0x963 PUSH1 0x20 DUP4 ADD DUP5 PUSH2 0x2654 JUMP JUMPDEST PUSH1 0x0 DUP1 PUSH1 0x40 DUP4 DUP6 SUB SLT ISZERO PUSH2 0x26A6 JUMPI PUSH1 0x0 DUP1 REVERT JUMPDEST PUSH2 0x26AF DUP4 PUSH2 0x25CF JUMP JUMPDEST SWAP5 PUSH1 0x20 SWAP4 SWAP1 SWAP4 ADD CALLDATALOAD SWAP4 POP POP POP JUMP JUMPDEST PUSH1 0x0 DUP1 PUSH1 0x0 PUSH1 0x60 DUP5 DUP7 SUB SLT ISZERO PUSH2 0x26D2 JUMPI PUSH1 0x0 DUP1 REVERT JUMPDEST PUSH2 0x26DB DUP5 PUSH2 0x25CF JUMP JUMPDEST SWAP3 POP PUSH2 0x26E9 PUSH1 0x20 DUP6 ADD PUSH2 0x25CF JUMP JUMPDEST SWAP3 SWAP6 SWAP3 SWAP5 POP POP POP PUSH1 0x40 SWAP2 SWAP1 SWAP2 ADD CALLDATALOAD SWAP1 JUMP JUMPDEST PUSH1 0x0 PUSH1 0x20 DUP3 DUP5 SUB SLT ISZERO PUSH2 0x270C JUMPI PUSH1 0x0 DUP1 REVERT JUMPDEST POP CALLDATALOAD SWAP2 SWAP1 POP JUMP JUMPDEST PUSH1 0x0 DUP1 PUSH1 0x40 DUP4 DUP6 SUB SLT ISZERO PUSH2 0x2726 JUMPI PUSH1 0x0 DUP1 REVERT JUMPDEST DUP3 CALLDATALOAD SWAP2 POP PUSH2 0x2736 PUSH1 0x20 DUP5 ADD PUSH2 0x25CF JUMP JUMPDEST SWAP1 POP SWAP3 POP SWAP3 SWAP1 POP JUMP JUMPDEST PUSH4 0x4E487B71 PUSH1 0xE0 SHL PUSH1 0x0 MSTORE PUSH1 0x41 PUSH1 0x4 MSTORE PUSH1 0x24 PUSH1 0x0 REVERT JUMPDEST PUSH1 0x0 DUP1 PUSH1 0x40 DUP4 DUP6 SUB SLT ISZERO PUSH2 0x2768 JUMPI PUSH1 0x0 DUP1 REVERT JUMPDEST PUSH2 0x2771 DUP4 PUSH2 0x25CF JUMP JUMPDEST SWAP2 POP PUSH1 0x20 DUP4 ADD CALLDATALOAD PUSH1 0x1 PUSH1 0x1 PUSH1 0x40 SHL SUB DUP2 GT ISZERO PUSH2 0x278C JUMPI PUSH1 0x0 DUP1 REVERT JUMPDEST DUP4 ADD PUSH1 0x1F DUP2 ADD DUP6 SGT PUSH2 0x279D JUMPI PUSH1 0x0 DUP1 REVERT JUMPDEST DUP1 CALLDATALOAD PUSH1 0x1 PUSH1 0x1 PUSH1 0x40 SHL SUB DUP2 GT ISZERO PUSH2 0x27B6 JUMPI PUSH2 0x27B6 PUSH2 0x273F JUMP JUMPDEST PUSH1 0x40 MLOAD PUSH1 0x1F DUP3 ADD PUSH1 0x1F NOT SWAP1 DUP2 AND PUSH1 0x3F ADD AND DUP2 ADD PUSH1 0x1 PUSH1 0x1 PUSH1 0x40 SHL SUB DUP2 GT DUP3 DUP3 LT OR ISZERO PUSH2 0x27E4 JUMPI PUSH2 0x27E4 PUSH2 0x273F JUMP JUMPDEST PUSH1 0x40 MSTORE DUP2 DUP2 MSTORE DUP3 DUP3 ADD PUSH1 0x20 ADD DUP8 LT ISZERO PUSH2 0x27FC JUMPI PUSH1 0x0 DUP1 REVERT JUMPDEST DUP2 PUSH1 0x20 DUP5 ADD PUSH1 0x20 DUP4 ADD CALLDATACOPY PUSH1 0x0 PUSH1 0x20 DUP4 DUP4 ADD ADD MSTORE DUP1 SWAP4 POP POP POP POP SWAP3 POP SWAP3 SWAP1 POP JUMP JUMPDEST PUSH1 0x0 DUP1 DUP4 PUSH1 0x1F DUP5 ADD SLT PUSH2 0x282E JUMPI PUSH1 0x0 DUP1 REVERT JUMPDEST POP DUP2 CALLDATALOAD PUSH1 0x1 PUSH1 0x1 PUSH1 0x40 SHL SUB DUP2 GT ISZERO PUSH2 0x2845 JUMPI PUSH1 0x0 DUP1 REVERT JUMPDEST PUSH1 0x20 DUP4 ADD SWAP2 POP DUP4 PUSH1 0x20 DUP3 PUSH1 0x5 SHL DUP6 ADD ADD GT ISZERO PUSH2 0x2860 JUMPI PUSH1 0x0 DUP1 REVERT JUMPDEST SWAP3 POP SWAP3 SWAP1 POP JUMP JUMPDEST PUSH1 0x0 DUP1 PUSH1 0x20 DUP4 DUP6 SUB SLT ISZERO PUSH2 0x287A JUMPI PUSH1 0x0 DUP1 REVERT JUMPDEST DUP3 CALLDATALOAD PUSH1 0x1 PUSH1 0x1 PUSH1 0x40 SHL SUB DUP2 GT ISZERO PUSH2 0x2890 JUMPI PUSH1 0x0 DUP1 REVERT JUMPDEST PUSH2 0x289C DUP6 DUP3 DUP7 ADD PUSH2 0x281C JUMP JUMPDEST SWAP1 SWAP7 SWAP1 SWAP6 POP SWAP4 POP POP POP POP JUMP JUMPDEST PUSH1 0xFF PUSH1 0xF8 SHL DUP9 AND DUP2 MSTORE PUSH1 0xE0 PUSH1 0x20 DUP3 ADD MSTORE PUSH1 0x0 PUSH2 0x28C7 PUSH1 0xE0 DUP4 ADD DUP10 PUSH2 0x2654 JUMP JUMPDEST DUP3 DUP2 SUB PUSH1 0x40 DUP5 ADD MSTORE PUSH2 0x28D9 DUP2 DUP10 PUSH2 0x2654 JUMP JUMPDEST PUSH1 0x60 DUP5 ADD DUP9 SWAP1 MSTORE PUSH1 0x1 PUSH1 0x1 PUSH1 0xA0 SHL SUB DUP8 AND PUSH1 0x80 DUP6 ADD MSTORE PUSH1 0xA0 DUP5 ADD DUP7 SWAP1 MSTORE DUP4 DUP2 SUB PUSH1 0xC0 DUP6 ADD MSTORE DUP5 MLOAD DUP1 DUP3 MSTORE PUSH1 0x20 DUP1 DUP8 ADD SWAP4 POP SWAP1 SWAP2 ADD SWAP1 PUSH1 0x0 JUMPDEST DUP2 DUP2 LT ISZERO PUSH2 0x292F JUMPI DUP4 MLOAD DUP4 MSTORE PUSH1 0x20 SWAP4 DUP5 ADD SWAP4 SWAP1 SWAP3 ADD SWAP2 PUSH1 0x1 ADD PUSH2 0x2911 JUMP JUMPDEST POP SWAP1 SWAP12 SWAP11 POP POP POP POP POP POP POP POP POP POP POP JUMP JUMPDEST PUSH1 0x0 DUP1 PUSH1 0x0 DUP1 PUSH1 0x40 DUP6 DUP8 SUB SLT ISZERO PUSH2 0x2956 JUMPI PUSH1 0x0 DUP1 REVERT JUMPDEST DUP5 CALLDATALOAD PUSH1 0x1 PUSH1 0x1 PUSH1 0x40 SHL SUB DUP2 GT ISZERO PUSH2 0x296C JUMPI PUSH1 0x0 DUP1 REVERT JUMPDEST PUSH2 0x2978 DUP8 DUP3 DUP9 ADD PUSH2 0x281C JUMP JUMPDEST SWAP1 SWAP6 POP SWAP4 POP POP PUSH1 0x20 DUP6 ADD CALLDATALOAD PUSH1 0x1 PUSH1 0x1 PUSH1 0x40 SHL SUB DUP2 GT ISZERO PUSH2 0x2997 JUMPI PUSH1 0x0 DUP1 REVERT JUMPDEST PUSH2 0x29A3 DUP8 DUP3 DUP9 ADD PUSH2 0x281C JUMP JUMPDEST SWAP6 SWAP9 SWAP5 SWAP8 POP SWAP6 POP POP POP POP JUMP JUMPDEST PUSH1 0x20 DUP1 DUP3 MSTORE DUP3 MLOAD DUP3 DUP3 ADD DUP2 SWAP1 MSTORE PUSH1 0x0 SWAP2 DUP5 ADD SWAP1 PUSH1 0x40 DUP5 ADD SWAP1 DUP4 JUMPDEST DUP2 DUP2 LT ISZERO PUSH2 0x29E9 JUMPI DUP4 MLOAD ISZERO ISZERO DUP4 MSTORE PUSH1 0x20 SWAP4 DUP5 ADD SWAP4 SWAP1 SWAP3 ADD SWAP2 PUSH1 0x1 ADD PUSH2 0x29C9 JUMP JUMPDEST POP SWAP1 SWAP6 SWAP5 POP POP POP POP POP JUMP JUMPDEST PUSH1 0x0 DUP1 PUSH1 0x0 DUP1 PUSH1 0x0 DUP1 PUSH1 0x0 PUSH1 0xE0 DUP9 DUP11 SUB SLT ISZERO PUSH2 0x2A0F JUMPI PUSH1 0x0 DUP1 REVERT JUMPDEST PUSH2 0x2A18 DUP9 PUSH2 0x25CF JUMP JUMPDEST SWAP7 POP PUSH2 0x2A26 PUSH1 0x20 DUP10 ADD PUSH2 0x25CF JUMP JUMPDEST SWAP6 POP PUSH1 0x40 DUP9 ADD CALLDATALOAD SWAP5 POP PUSH1 0x60 DUP9 ADD CALLDATALOAD SWAP4 POP PUSH1 0x80 DUP9 ADD CALLDATALOAD PUSH1 0xFF DUP2 AND DUP2 EQ PUSH2 0x2A4A JUMPI PUSH1 0x0 DUP1 REVERT JUMPDEST SWAP7 SWAP10 SWAP6 SWAP9 POP SWAP4 SWAP7 SWAP3 SWAP6 SWAP5 PUSH1 0xA0 DUP5 ADD CALLDATALOAD SWAP5 POP PUSH1 0xC0 SWAP1 SWAP4 ADD CALLDATALOAD SWAP3 SWAP2 POP POP JUMP JUMPDEST PUSH1 0x0 DUP1 PUSH1 0x40 DUP4 DUP6 SUB SLT ISZERO PUSH2 0x2A7A JUMPI PUSH1 0x0 DUP1 REVERT JUMPDEST PUSH2 0x2A83 DUP4 PUSH2 0x25CF JUMP JUMPDEST SWAP2 POP PUSH2 0x2736 PUSH1 0x20 DUP5 ADD PUSH2 0x25CF JUMP JUMPDEST PUSH1 0x1 DUP2 DUP2 SHR SWAP1 DUP3 AND DUP1 PUSH2 0x2AA5 JUMPI PUSH1 0x7F DUP3 AND SWAP2 POP JUMPDEST PUSH1 0x20 DUP3 LT DUP2 SUB PUSH2 0x2AC5 JUMPI PUSH4 0x4E487B71 PUSH1 0xE0 SHL PUSH1 0x0 MSTORE PUSH1 0x22 PUSH1 0x4 MSTORE PUSH1 0x24 PUSH1 0x0 REVERT JUMPDEST POP SWAP2 SWAP1 POP JUMP JUMPDEST PUSH4 0x4E487B71 PUSH1 0xE0 SHL PUSH1 0x0 MSTORE PUSH1 0x32 PUSH1 0x4 MSTORE PUSH1 0x24 PUSH1 0x0 REVERT JUMPDEST PUSH1 0x0 PUSH1 0x20 DUP3 DUP5 SUB SLT ISZERO PUSH2 0x2AF3 JUMPI PUSH1 0x0 DUP1 REVERT JUMPDEST POP MLOAD SWAP2 SWAP1 POP JUMP JUMPDEST PUSH4 0x4E487B71 PUSH1 0xE0 SHL PUSH1 0x0 MSTORE PUSH1 0x21 PUSH1 0x4 MSTORE PUSH1 0x24 PUSH1 0x0 REVERT JUMPDEST PUSH1 0x1F DUP3 GT ISZERO PUSH2 0x9F0 JUMPI DUP1 PUSH1 0x0 MSTORE PUSH1 0x20 PUSH1 0x0 KECCAK256 PUSH1 0x1F DUP5 ADD PUSH1 0x5 SHR DUP2 ADD PUSH1 0x20 DUP6 LT ISZERO PUSH2 0x2B37 JUMPI POP DUP1 JUMPDEST PUSH1 0x1F DUP5 ADD PUSH1 0x5 SHR DUP3 ADD SWAP2 POP JUMPDEST DUP2 DUP2 LT ISZERO PUSH2 0xFAE JUMPI PUSH1 0x0 DUP2 SSTORE PUSH1 0x1 ADD PUSH2 0x2B43 JUMP JUMPDEST DUP2 MLOAD PUSH1 0x1 PUSH1 0x1 PUSH1 0x40 SHL SUB DUP2 GT ISZERO PUSH2 0x2B70 JUMPI PUSH2 0x2B70 PUSH2 0x273F JUMP JUMPDEST PUSH2 0x2B84 DUP2 PUSH2 0x2B7E DUP5 SLOAD PUSH2 0x2A91 JUMP JUMPDEST DUP5 PUSH2 0x2B10 JUMP JUMPDEST PUSH1 0x20 PUSH1 0x1F DUP3 GT PUSH1 0x1 DUP2 EQ PUSH2 0x2BB8 JUMPI PUSH1 0x0 DUP4 ISZERO PUSH2 0x2BA0 JUMPI POP DUP5 DUP3 ADD MLOAD JUMPDEST PUSH1 0x0 NOT PUSH1 0x3 DUP6 SWAP1 SHL SHR NOT AND PUSH1 0x1 DUP5 SWAP1 SHL OR DUP5 SSTORE PUSH2 0xFAE JUMP JUMPDEST PUSH1 0x0 DUP5 DUP2 MSTORE PUSH1 0x20 DUP2 KECCAK256 PUSH1 0x1F NOT DUP6 AND SWAP2 JUMPDEST DUP3 DUP2 LT ISZERO PUSH2 0x2BE8 JUMPI DUP8 DUP6 ADD MLOAD DUP3 SSTORE PUSH1 0x20 SWAP5 DUP6 ADD SWAP5 PUSH1 0x1 SWAP1 SWAP3 ADD SWAP2 ADD PUSH2 0x2BC8 JUMP JUMPDEST POP DUP5 DUP3 LT ISZERO PUSH2 0x2C06 JUMPI DUP7 DUP5 ADD MLOAD PUSH1 0x0 NOT PUSH1 0x3 DUP8 SWAP1 SHL PUSH1 0xF8 AND SHR NOT AND DUP2 SSTORE JUMPDEST POP POP POP POP PUSH1 0x1 SWAP1 DUP2 SHL ADD SWAP1 SSTORE POP JUMP JUMPDEST PUSH1 0x0 DUP3 MLOAD PUSH2 0x2C27 DUP2 DUP5 PUSH1 0x20 DUP8 ADD PUSH2 0x2630 JUMP JUMPDEST SWAP2 SWAP1 SWAP2 ADD SWAP3 SWAP2 POP POP JUMP JUMPDEST DUP1 DUP3 ADD DUP1 DUP3 GT ISZERO PUSH2 0x87D JUMPI PUSH4 0x4E487B71 PUSH1 0xE0 SHL PUSH1 0x0 MSTORE PUSH1 0x11 PUSH1 0x4 MSTORE PUSH1 0x24 PUSH1 0x0 REVERT INVALID MSTORE 0xC6 ORIGIN SELFBALANCE 0xE1 DELEGATECALL PUSH30 0xB19D5CE0460030C497F067CA4CEBF71BA98EEADABE20BACE00A16A46D942 PUSH2 0xC751 PUSH29 0xC8FF89F61C0CE93598E3C849801011DEE649A6A557D100360894A13BA1 LOG3 0x21 MOD PUSH8 0xC828492DB98DCA3E KECCAK256 PUSH23 0xCC3735A920A3CA505D382BBC65D7A28E3265B37A647492 SWAP16 CALLER PUSH6 0x21B332C1681B SWAP4 EXTCODEHASH PUSH13 0xB9F3376673440D862A02DD7BC7 0xDE 0xC4 0xDC 0xEE 0xDD 0xA7 PUSH22 0xE58DD541E08A116C6C53815C0BD028192F7B626800CD MCOPY 0xD1 TLOAD PUSH15 0x187E77E9AEE88184C21F4F2182AB58 0x27 0xCB EXTCODESIZE PUSH31 0x7FBEDCD63F03300A2646970667358221220F886522BA52D6949BB91587414 SWAP10 PUSH32 0xFD3E434D01E8D7CCDE6D0AE11B8001E5C664736F6C634300081C003300000000 "},"methodIdentifiers":{"DEFAULT_ADMIN_ROLE()":"a217fddf","DOMAIN_SEPARATOR()":"3644e515","MINTER_ROLE()":"d5391393","PAUSER_ROLE()":"e63ab1e9","UPGRADE_INTERFACE_VERSION()":"ad3cb1cc","addToBlacklist(address)":"44337ea1","allowance(address,address)":"dd62ed3e","approve(address,uint256)":"095ea7b3","balanceOf(address)":"70a08231","batchAddToBlacklist(address[])":"679d665f","batchRemoveFromBlacklist(address[])":"d7162657","batchTransfer(address[],uint256[])":"88d695b2","cooldownPeriod()":"04646a49","cooldowns(address)":"01320fe2","decimals()":"313ce567","eip712Domain()":"84b0196e","getBlacklistStatus(address[])":"a6ecc5cf","getRoleAdmin(bytes32)":"248a9ca3","gnosisSafe()":"a84173ae","grantRole(bytes32,address)":"2f2ff15d","hasRole(bytes32,address)":"91d14854","initialize(uint256)":"fe4b84df","initializeV3()":"38e454b1","isBlacklisted(address)":"fe575a87","name()":"06fdde03","nonces(address)":"7ecebe00","pause()":"8456cb59","paused()":"5c975abb","permit(address,address,uint256,uint256,uint8,bytes32,bytes32)":"d505accf","proxiableUUID()":"52d1902d","removeFromBlacklist(address)":"537df3b6","renounceRole(bytes32,address)":"36568abe","revokeRole(bytes32,address)":"d547741f","setCooldown(address,uint256)":"9781a37e","setCooldownPeriod(uint256)":"80ea3de1","setGnosisSafe(address)":"c3085a3e","supportsInterface(bytes4)":"01ffc9a7","symbol()":"95d89b41","totalSupply()":"18160ddd","transfer(address,uint256)":"a9059cbb","transferFrom(address,address,uint256)":"23b872dd","unpause()":"3f4ba83a","upgradeToAndCall(address,bytes)":"4f1ef286","version()":"54fd4d50"}},"storageLayout":{"storage":[{"astId":8890,"contract":"contracts/PADTokenV3.sol:PADTokenV3","label":"gnosisSafe","offset":0,"slot":"0","type":"t_address"},{"astId":8892,"contract":"contracts/PADTokenV3.sol:PADTokenV3","label":"cooldownPeriod","offset":0,"slot":"1","type":"t_uint256"},{"astId":8896,"contract":"contracts/PADTokenV3.sol:PADTokenV3","label":"cooldowns","offset":0,"slot":"2","type":"t_mapping(t_address,t_uint256)"},{"astId":9203,"contract":"contracts/PADTokenV3.sol:PADTokenV3","label":"_blacklisted","offset":0,"slot":"3","type":"t_mapping(t_address,t_bool)"}],"types":{"t_address":{"encoding":"inplace","label":"address","numberOfBytes":"20"},"t_bool":{"encoding":"inplace","label":"bool","numberOfBytes":"1"},"t_mapping(t_address,t_bool)":{"encoding":"mapping","key":"t_address","label":"mapping(address => bool)","numberOfBytes":"32","value":"t_bool"},"t_mapping(t_address,t_uint256)":{"encoding":"mapping","key":"t_address","label":"mapping(address => uint256)","numberOfBytes":"32","value":"t_uint256"},"t_uint256":{"encoding":"inplace","label":"uint256","numberOfBytes":"32"}}}}}}