{"contracts/VoucherManagerV2.sol":{"VoucherManagerV2":{"abi":[{"inputs":[],"stateMutability":"nonpayable","type":"constructor"},{"inputs":[],"name":"AccessControlBadConfirmation","type":"error"},{"inputs":[{"internalType":"address","name":"account","type":"address"},{"internalType":"bytes32","name":"neededRole","type":"bytes32"}],"name":"AccessControlUnauthorizedAccount","type":"error"},{"inputs":[{"internalType":"address","name":"target","type":"address"}],"name":"AddressEmptyCode","type":"error"},{"inputs":[{"internalType":"address","name":"implementation","type":"address"}],"name":"ERC1967InvalidImplementation","type":"error"},{"inputs":[],"name":"ERC1967NonPayable","type":"error"},{"inputs":[],"name":"FailedCall","type":"error"},{"inputs":[],"name":"InvalidInitialization","type":"error"},{"inputs":[{"internalType":"string","name":"qrCode","type":"string"}],"name":"InvalidQRCode","type":"error"},{"inputs":[],"name":"NotInitializing","type":"error"},{"inputs":[],"name":"ReentrancyGuardReentrantCall","type":"error"},{"inputs":[],"name":"UUPSUnauthorizedCallContext","type":"error"},{"inputs":[{"internalType":"bytes32","name":"slot","type":"bytes32"}],"name":"UUPSUnsupportedProxiableUUID","type":"error"},{"inputs":[],"name":"Unauthorized","type":"error"},{"inputs":[{"internalType":"uint256","name":"voucherId","type":"uint256"}],"name":"VoucherExhausted","type":"error"},{"inputs":[{"internalType":"uint256","name":"voucherId","type":"uint256"}],"name":"VoucherInactive","type":"error"},{"inputs":[{"internalType":"uint256","name":"voucherId","type":"uint256"}],"name":"VoucherNotFound","type":"error"},{"anonymous":false,"inputs":[{"indexed":false,"internalType":"uint64","name":"version","type":"uint64"}],"name":"Initialized","type":"event"},{"anonymous":false,"inputs":[{"indexed":true,"internalType":"uint256","name":"voucherId","type":"uint256"},{"indexed":false,"internalType":"string","name":"qrCode","type":"string"}],"name":"QRCodeUpdated","type":"event"},{"anonymous":false,"inputs":[{"indexed":true,"internalType":"bytes32","name":"role","type":"bytes32"},{"indexed":true,"internalType":"bytes32","name":"previousAdminRole","type":"bytes32"},{"indexed":true,"internalType":"bytes32","name":"newAdminRole","type":"bytes32"}],"name":"RoleAdminChanged","type":"event"},{"anonymous":false,"inputs":[{"indexed":true,"internalType":"bytes32","name":"role","type":"bytes32"},{"indexed":true,"internalType":"address","name":"account","type":"address"},{"indexed":true,"internalType":"address","name":"sender","type":"address"}],"name":"RoleGranted","type":"event"},{"anonymous":false,"inputs":[{"indexed":true,"internalType":"bytes32","name":"role","type":"bytes32"},{"indexed":true,"internalType":"address","name":"account","type":"address"},{"indexed":true,"internalType":"address","name":"sender","type":"address"}],"name":"RoleRevoked","type":"event"},{"anonymous":false,"inputs":[{"indexed":true,"internalType":"address","name":"implementation","type":"address"}],"name":"Upgraded","type":"event"},{"anonymous":false,"inputs":[{"indexed":true,"internalType":"uint256","name":"voucherId","type":"uint256"},{"indexed":true,"internalType":"address","name":"creator","type":"address"},{"indexed":false,"internalType":"string","name":"name","type":"string"}],"name":"VoucherCreated","type":"event"},{"anonymous":false,"inputs":[{"indexed":true,"internalType":"uint256","name":"voucherId","type":"uint256"},{"indexed":true,"internalType":"address","name":"admin","type":"address"}],"name":"VoucherDeactivated","type":"event"},{"anonymous":false,"inputs":[{"indexed":true,"internalType":"uint256","name":"voucherId","type":"uint256"},{"indexed":true,"internalType":"address","name":"user","type":"address"},{"indexed":false,"internalType":"uint256","name":"remainingUses","type":"uint256"}],"name":"VoucherUsed","type":"event"},{"inputs":[],"name":"DEFAULT_ADMIN_ROLE","outputs":[{"internalType":"bytes32","name":"","type":"bytes32"}],"stateMutability":"view","type":"function"},{"inputs":[],"name":"UPGRADE_INTERFACE_VERSION","outputs":[{"internalType":"string","name":"","type":"string"}],"stateMutability":"view","type":"function"},{"inputs":[{"internalType":"string","name":"name","type":"string"},{"internalType":"string","name":"description","type":"string"},{"internalType":"uint256","name":"value","type":"uint256"},{"internalType":"string","name":"tier","type":"string"},{"internalType":"string","name":"type_","type":"string"},{"internalType":"uint256","name":"maxUses","type":"uint256"},{"internalType":"string","name":"qrCode","type":"string"}],"name":"createVoucher","outputs":[{"internalType":"uint256","name":"","type":"uint256"}],"stateMutability":"nonpayable","type":"function"},{"inputs":[{"internalType":"uint256","name":"voucherId","type":"uint256"}],"name":"deactivateVoucher","outputs":[],"stateMutability":"nonpayable","type":"function"},{"inputs":[{"internalType":"bytes32","name":"role","type":"bytes32"}],"name":"getRoleAdmin","outputs":[{"internalType":"bytes32","name":"","type":"bytes32"}],"stateMutability":"view","type":"function"},{"inputs":[],"name":"getTotalVouchers","outputs":[{"internalType":"uint256","name":"","type":"uint256"}],"stateMutability":"view","type":"function"},{"inputs":[{"internalType":"address","name":"user","type":"address"}],"name":"getUserVouchers","outputs":[{"internalType":"uint256[]","name":"","type":"uint256[]"}],"stateMutability":"view","type":"function"},{"inputs":[{"internalType":"uint256","name":"voucherId","type":"uint256"}],"name":"getVoucher","outputs":[{"components":[{"internalType":"uint256","name":"id","type":"uint256"},{"internalType":"string","name":"name","type":"string"},{"internalType":"string","name":"description","type":"string"},{"internalType":"uint256","name":"value","type":"uint256"},{"internalType":"string","name":"tier","type":"string"},{"internalType":"string","name":"type_","type":"string"},{"internalType":"uint256","name":"maxUses","type":"uint256"},{"internalType":"uint256","name":"currentUses","type":"uint256"},{"internalType":"bool","name":"isActive","type":"bool"},{"internalType":"address","name":"creator","type":"address"},{"internalType":"uint256","name":"createdAt","type":"uint256"}],"internalType":"struct VoucherManagerV2.Voucher","name":"","type":"tuple"}],"stateMutability":"view","type":"function"},{"inputs":[{"internalType":"string","name":"qrCode","type":"string"}],"name":"getVoucherByQRCode","outputs":[{"components":[{"internalType":"uint256","name":"id","type":"uint256"},{"internalType":"string","name":"name","type":"string"},{"internalType":"string","name":"description","type":"string"},{"internalType":"uint256","name":"value","type":"uint256"},{"internalType":"string","name":"tier","type":"string"},{"internalType":"string","name":"type_","type":"string"},{"internalType":"uint256","name":"maxUses","type":"uint256"},{"internalType":"uint256","name":"currentUses","type":"uint256"},{"internalType":"bool","name":"isActive","type":"bool"},{"internalType":"address","name":"creator","type":"address"},{"internalType":"uint256","name":"createdAt","type":"uint256"}],"internalType":"struct VoucherManagerV2.Voucher","name":"","type":"tuple"}],"stateMutability":"view","type":"function"},{"inputs":[{"internalType":"bytes32","name":"role","type":"bytes32"},{"internalType":"address","name":"account","type":"address"}],"name":"grantRole","outputs":[],"stateMutability":"nonpayable","type":"function"},{"inputs":[{"internalType":"bytes32","name":"role","type":"bytes32"},{"internalType":"address","name":"account","type":"address"}],"name":"hasRole","outputs":[{"internalType":"bool","name":"","type":"bool"}],"stateMutability":"view","type":"function"},{"inputs":[],"name":"initialize","outputs":[],"stateMutability":"nonpayable","type":"function"},{"inputs":[{"internalType":"uint256","name":"voucherId","type":"uint256"}],"name":"isVoucherValid","outputs":[{"internalType":"bool","name":"","type":"bool"}],"stateMutability":"view","type":"function"},{"inputs":[],"name":"nextVoucherId","outputs":[{"internalType":"uint256","name":"","type":"uint256"}],"stateMutability":"view","type":"function"},{"inputs":[],"name":"proxiableUUID","outputs":[{"internalType":"bytes32","name":"","type":"bytes32"}],"stateMutability":"view","type":"function"},{"inputs":[{"internalType":"string","name":"","type":"string"}],"name":"qrCodeToVoucherId","outputs":[{"internalType":"uint256","name":"","type":"uint256"}],"stateMutability":"view","type":"function"},{"inputs":[{"internalType":"bytes32","name":"role","type":"bytes32"},{"internalType":"address","name":"callerConfirmation","type":"address"}],"name":"renounceRole","outputs":[],"stateMutability":"nonpayable","type":"function"},{"inputs":[{"internalType":"bytes32","name":"role","type":"bytes32"},{"internalType":"address","name":"account","type":"address"}],"name":"revokeRole","outputs":[],"stateMutability":"nonpayable","type":"function"},{"inputs":[{"internalType":"bytes4","name":"interfaceId","type":"bytes4"}],"name":"supportsInterface","outputs":[{"internalType":"bool","name":"","type":"bool"}],"stateMutability":"view","type":"function"},{"inputs":[{"internalType":"address","name":"newImplementation","type":"address"},{"internalType":"bytes","name":"data","type":"bytes"}],"name":"upgradeToAndCall","outputs":[],"stateMutability":"payable","type":"function"},{"inputs":[{"internalType":"uint256","name":"voucherId","type":"uint256"}],"name":"useVoucher","outputs":[],"stateMutability":"nonpayable","type":"function"},{"inputs":[{"internalType":"string","name":"qrCode","type":"string"}],"name":"useVoucherByQRCode","outputs":[],"stateMutability":"nonpayable","type":"function"},{"inputs":[{"internalType":"address","name":"","type":"address"},{"internalType":"uint256","name":"","type":"uint256"}],"name":"userVouchers","outputs":[{"internalType":"uint256","name":"","type":"uint256"}],"stateMutability":"view","type":"function"},{"inputs":[],"name":"version","outputs":[{"internalType":"string","name":"","type":"string"}],"stateMutability":"pure","type":"function"},{"inputs":[{"internalType":"uint256","name":"","type":"uint256"}],"name":"vouchers","outputs":[{"internalType":"uint256","name":"id","type":"uint256"},{"internalType":"string","name":"name","type":"string"},{"internalType":"string","name":"description","type":"string"},{"internalType":"uint256","name":"value","type":"uint256"},{"internalType":"string","name":"tier","type":"string"},{"internalType":"string","name":"type_","type":"string"},{"internalType":"uint256","name":"maxUses","type":"uint256"},{"internalType":"uint256","name":"currentUses","type":"uint256"},{"internalType":"bool","name":"isActive","type":"bool"},{"internalType":"address","name":"creator","type":"address"},{"internalType":"uint256","name":"createdAt","type":"uint256"}],"stateMutability":"view","type":"function"}],"evm":{"bytecode":{"linkReferences":{},"object":"60a06040523060805234801561001457600080fd5b5061001d610022565b6100d4565b7ff0c57e16840df040f15088dc2f81fe391c3923bec73e23a9662efc9c229c6a00805468010000000000000000900460ff16156100725760405163f92ee8a960e01b815260040160405180910390fd5b80546001600160401b03908116146100d15780546001600160401b0319166001600160401b0390811782556040519081527fc7f505b2f371ae2175ee4913f4499e1f2633a7b5936321eed1cdaeb6115181d29060200160405180910390a15b50565b6080516126236100fd600039600081816119a2015281816119cb0152611b1101526126236000f3fe6080604052600436106101665760003560e01c806366bab42a116100d1578063a217fddf1161008a578063d547741f11610064578063d547741f14610473578063e3856b0014610493578063f91ce77e146104a8578063fe7c7bcf146104c857600080fd5b8063a217fddf1461040d578063ad3cb1cc14610422578063c9caa9ed1461045357600080fd5b806366bab42a146103405780638129fc1c1461037857806384ac51b51461038d57806391d14854146103ad5780639b52b431146103cd5780639f48bc9d146103ed57600080fd5b806336568abe1161012357806336568abe1461026a5780633e97b43f1461028a5780634f1ef286146102c157806352d1902d146102d457806354fd4d50146102e95780636200ee7a1461032057600080fd5b806301ffc9a71461016b5780630cfa2fd8146101a0578063248a9ca3146101cd578063278fd07a146101fb5780632d211e951461021b5780632f2ff15d14610248575b600080fd5b34801561017757600080fd5b5061018b610186366004611e96565b6104de565b60405190151581526020015b60405180910390f35b3480156101ac57600080fd5b506101c06101bb366004611ec0565b610515565b6040516101979190611f29565b3480156101d957600080fd5b506101ed6101e8366004611ec0565b61080f565b604051908152602001610197565b34801561020757600080fd5b506101c06102163660046120bf565b610831565b34801561022757600080fd5b5061023b610236366004612118565b610b3c565b6040516101979190612133565b34801561025457600080fd5b50610268610263366004612176565b610ba8565b005b34801561027657600080fd5b50610268610285366004612176565b610bca565b34801561029657600080fd5b506102aa6102a5366004611ec0565b610c02565b6040516101979b9a999897969594939291906121a2565b6102686102cf366004612238565b610e84565b3480156102e057600080fd5b506101ed610ea3565b3480156102f557600080fd5b506040805180820190915260058152640322e302e360dc1b60208201525b604051610197919061229a565b34801561032c57600080fd5b5061018b61033b366004611ec0565b610ec0565b34801561034c57600080fd5b506101ed61035b3660046120bf565b805160208183018101805160028252928201919093012091525481565b34801561038457600080fd5b506102686111a5565b34801561039957600080fd5b506102686103a8366004611ec0565b6112c0565b3480156103b957600080fd5b5061018b6103c8366004612176565b6113ea565b3480156103d957600080fd5b506102686103e8366004611ec0565b611422565b3480156103f957600080fd5b506102686104083660046120bf565b61149e565b34801561041957600080fd5b506101ed600081565b34801561042e57600080fd5b50610313604051806040016040528060058152602001640352e302e360dc1b81525081565b34801561045f57600080fd5b506101ed61046e3660046122ad565b61160c565b34801561047f57600080fd5b5061026861048e366004612176565b611809565b34801561049f57600080fd5b506101ed611825565b3480156104b457600080fd5b506101ed6104c33660046123ac565b61183b565b3480156104d457600080fd5b506101ed60035481565b60006001600160e01b03198216637965db0b60e01b148061050f57506301ffc9a760e01b6001600160e01b03198316145b92915050565b61051d611e31565b600082815260208190526040812054900361055357604051637ecba32960e01b8152600481018390526024015b60405180910390fd5b6000828152602081815260409182902082516101608101909352805483526001810180549192840191610585906123d6565b80601f01602080910402602001604051908101604052809291908181526020018280546105b1906123d6565b80156105fe5780601f106105d3576101008083540402835291602001916105fe565b820191906000526020600020905b8154815290600101906020018083116105e157829003601f168201915b50505050508152602001600282018054610617906123d6565b80601f0160208091040260200160405190810160405280929190818152602001828054610643906123d6565b80156106905780601f1061066557610100808354040283529160200191610690565b820191906000526020600020905b81548152906001019060200180831161067357829003601f168201915b50505050508152602001600382015481526020016004820180546106b3906123d6565b80601f01602080910402602001604051908101604052809291908181526020018280546106df906123d6565b801561072c5780601f106107015761010080835404028352916020019161072c565b820191906000526020600020905b81548152906001019060200180831161070f57829003601f168201915b50505050508152602001600582018054610745906123d6565b80601f0160208091040260200160405190810160405280929190818152602001828054610771906123d6565b80156107be5780601f10610793576101008083540402835291602001916107be565b820191906000526020600020905b8154815290600101906020018083116107a157829003601f168201915b50505091835250506006820154602082015260078201546040820152600882015460ff81161515606083015261010090046001600160a01b0316608082015260099091015460a09091015292915050565b60009081526000805160206125ae833981519152602052604090206001015490565b610839611e31565b600060028360405161084b9190612410565b90815260200160405180910390205490508060000361087f5782604051638f7b790560e01b815260040161054a919061229a565b60008181526020818152604091829020825161016081019093528054835260018101805491928401916108b1906123d6565b80601f01602080910402602001604051908101604052809291908181526020018280546108dd906123d6565b801561092a5780601f106108ff5761010080835404028352916020019161092a565b820191906000526020600020905b81548152906001019060200180831161090d57829003601f168201915b50505050508152602001600282018054610943906123d6565b80601f016020809104026020016040519081016040528092919081815260200182805461096f906123d6565b80156109bc5780601f10610991576101008083540402835291602001916109bc565b820191906000526020600020905b81548152906001019060200180831161099f57829003601f168201915b50505050508152602001600382015481526020016004820180546109df906123d6565b80601f0160208091040260200160405190810160405280929190818152602001828054610a0b906123d6565b8015610a585780601f10610a2d57610100808354040283529160200191610a58565b820191906000526020600020905b815481529060010190602001808311610a3b57829003601f168201915b50505050508152602001600582018054610a71906123d6565b80601f0160208091040260200160405190810160405280929190818152602001828054610a9d906123d6565b8015610aea5780601f10610abf57610100808354040283529160200191610aea565b820191906000526020600020905b815481529060010190602001808311610acd57829003601f168201915b50505091835250506006820154602082015260078201546040820152600882015460ff81161515606083015261010090046001600160a01b0316608082015260099091015460a0909101529392505050565b6001600160a01b038116600090815260016020908152604091829020805483518184028101840190945280845260609392830182828015610b9c57602002820191906000526020600020905b815481526020019060010190808311610b88575b50505050509050919050565b610bb18261080f565b610bba8161186c565b610bc48383611876565b50505050565b6001600160a01b0381163314610bf35760405163334bd91960e11b815260040160405180910390fd5b610bfd828261191b565b505050565b60006020819052908152604090208054600182018054919291610c24906123d6565b80601f0160208091040260200160405190810160405280929190818152602001828054610c50906123d6565b8015610c9d5780601f10610c7257610100808354040283529160200191610c9d565b820191906000526020600020905b815481529060010190602001808311610c8057829003601f168201915b505050505090806002018054610cb2906123d6565b80601f0160208091040260200160405190810160405280929190818152602001828054610cde906123d6565b8015610d2b5780601f10610d0057610100808354040283529160200191610d2b565b820191906000526020600020905b815481529060010190602001808311610d0e57829003601f168201915b505050505090806003015490806004018054610d46906123d6565b80601f0160208091040260200160405190810160405280929190818152602001828054610d72906123d6565b8015610dbf5780601f10610d9457610100808354040283529160200191610dbf565b820191906000526020600020905b815481529060010190602001808311610da257829003601f168201915b505050505090806005018054610dd4906123d6565b80601f0160208091040260200160405190810160405280929190818152602001828054610e00906123d6565b8015610e4d5780601f10610e2257610100808354040283529160200191610e4d565b820191906000526020600020905b815481529060010190602001808311610e3057829003601f168201915b505050506006830154600784015460088501546009909501549394919390925060ff82169161010090046001600160a01b0316908b565b610e8c611997565b610e9582611a3e565b610e9f8282611a49565b5050565b6000610ead611b06565b5060008051602061258e83398151915290565b6000818152602081815260408083208151610160810190925280548252600181018054859484019190610ef2906123d6565b80601f0160208091040260200160405190810160405280929190818152602001828054610f1e906123d6565b8015610f6b5780601f10610f4057610100808354040283529160200191610f6b565b820191906000526020600020905b815481529060010190602001808311610f4e57829003601f168201915b50505050508152602001600282018054610f84906123d6565b80601f0160208091040260200160405190810160405280929190818152602001828054610fb0906123d6565b8015610ffd5780601f10610fd257610100808354040283529160200191610ffd565b820191906000526020600020905b815481529060010190602001808311610fe057829003601f168201915b5050505050815260200160038201548152602001600482018054611020906123d6565b80601f016020809104026020016040519081016040528092919081815260200182805461104c906123d6565b80156110995780601f1061106e57610100808354040283529160200191611099565b820191906000526020600020905b81548152906001019060200180831161107c57829003601f168201915b505050505081526020016005820180546110b2906123d6565b80601f01602080910402602001604051908101604052809291908181526020018280546110de906123d6565b801561112b5780601f106111005761010080835404028352916020019161112b565b820191906000526020600020905b81548152906001019060200180831161110e57829003601f168201915b50505091835250506006820154602082015260078201546040820152600882015460ff81161515606083015261010090046001600160a01b0316608082015260099091015460a09091015280519091501580159061118b57508061010001515b801561119e57508060c001518160e00151105b9392505050565b60006111af611b4f565b805490915060ff600160401b820416159067ffffffffffffffff166000811580156111d75750825b905060008267ffffffffffffffff1660011480156111f45750303b155b905081158015611202575080155b156112205760405163f92ee8a960e01b815260040160405180910390fd5b845467ffffffffffffffff19166001178555831561124a57845460ff60401b1916600160401b1785555b611252611b78565b61125a611b78565b611262611b80565b61126d600033611876565b50600160035583156112b957845460ff60401b19168555604051600181527fc7f505b2f371ae2175ee4913f4499e1f2633a7b5936321eed1cdaeb6115181d29060200160405180910390a15b5050505050565b6112c8611b90565b600081815260208190526040812080549091036112fb57604051637ecba32960e01b81526004810183905260240161054a565b600881015460ff1661132357604051630ab7e87b60e01b81526004810183905260240161054a565b806006015481600701541061134e5760405163d549d60160e01b81526004810183905260240161054a565b60078101805490600061136083612442565b90915550503360008181526001602081815260408320805492830181558352909120018390556007820154600683015484917f7b6f41a7ebae9ed4a1e9a52a100d2846f17583555c38db2d37ca80229d1a0df7916113be919061245b565b60405190815260200160405180910390a3506113e760016000805160206125ce83398151915255565b50565b60009182526000805160206125ae833981519152602090815260408084206001600160a01b0393909316845291905290205460ff1690565b600061142d8161186c565b6000828152602081905260408120805490910361146057604051637ecba32960e01b81526004810184905260240161054a565b60088101805460ff19169055604051339084907f838c33bf16e205d45e6b726dba4395a590a91a01794d31a2e638d85627dfbe2490600090a3505050565b6114a6611b90565b60006002826040516114b89190612410565b9081526020016040518091039020549050806000036114ec5781604051638f7b790560e01b815260040161054a919061229a565b6000818152602081905260408120805490910361151f57604051637ecba32960e01b81526004810183905260240161054a565b600881015460ff1661154757604051630ab7e87b60e01b81526004810183905260240161054a565b80600601548160070154106115725760405163d549d60160e01b81526004810183905260240161054a565b60078101805490600061158483612442565b90915550503360008181526001602081815260408320805492830181558352909120018390556007820154600683015484917f7b6f41a7ebae9ed4a1e9a52a100d2846f17583555c38db2d37ca80229d1a0df7916115e2919061245b565b60405190815260200160405180910390a350506113e760016000805160206125ce83398151915255565b6000806116188161186c565b600380546000918261162983612442565b90915550604080516101608101825282815260208082018e81528284018e9052606083018d9052608083018c905260a083018b905260c083018a9052600060e0840181905260016101008501819052336101208601524261014086015286825292819052939093208251815592519394509092908201906116aa90826124b5565b50604082015160028201906116bf90826124b5565b5060608201516003820155608082015160048201906116de90826124b5565b5060a082015160058201906116f390826124b5565b5060c0820151600682015560e08201516007820155610100808301516008830180546101208601516001600160a81b0319909116921515610100600160a81b031916929092176001600160a01b03909216909202179055610140909101516009909101558351156117ba578060028560405161176f9190612410565b908152602001604051809103902081905550807f5180bc518c3d0a2db96a7a63b3818add6332f47e06e42e9059fc2b508727eede856040516117b1919061229a565b60405180910390a25b336001600160a01b0316817fcf95a09019e2f49ebbb3d85efd07c0ed41c2cb90b17acf90618a6acdae6f0e328c6040516117f4919061229a565b60405180910390a39998505050505050505050565b6118128261080f565b61181b8161186c565b610bc4838361191b565b60006001600354611836919061245b565b905090565b6001602052816000526040600020818154811061185757600080fd5b90600052602060002001600091509150505481565b6113e78133611bdc565b60006000805160206125ae83398151915261189184846113ea565b611911576000848152602082815260408083206001600160a01b03871684529091529020805460ff191660011790556118c73390565b6001600160a01b0316836001600160a01b0316857f2f8788117e7eff1d82e926ec794901d17c78024a50270940304540a733656f0d60405160405180910390a4600191505061050f565b600091505061050f565b60006000805160206125ae83398151915261193684846113ea565b15611911576000848152602082815260408083206001600160a01b0387168085529252808320805460ff1916905551339287917ff6391f5c32d9c69d2a47ea670b442974b53935d1edc7fd64eb21e047a839171b9190a4600191505061050f565b306001600160a01b037f0000000000000000000000000000000000000000000000000000000000000000161480611a1e57507f00000000000000000000000000000000000000000000000000000000000000006001600160a01b0316611a1260008051602061258e833981519152546001600160a01b031690565b6001600160a01b031614155b15611a3c5760405163703e46dd60e11b815260040160405180910390fd5b565b6000610e9f8161186c565b816001600160a01b03166352d1902d6040518163ffffffff1660e01b8152600401602060405180830381865afa925050508015611aa3575060408051601f3d908101601f19168201909252611aa091810190612574565b60015b611acb57604051634c9c8ce360e01b81526001600160a01b038316600482015260240161054a565b60008051602061258e8339815191528114611afc57604051632a87526960e21b81526004810182905260240161054a565b610bfd8383611c15565b306001600160a01b037f00000000000000000000000000000000000000000000000000000000000000001614611a3c5760405163703e46dd60e11b815260040160405180910390fd5b6000807ff0c57e16840df040f15088dc2f81fe391c3923bec73e23a9662efc9c229c6a0061050f565b611a3c611c6b565b611b88611c6b565b611a3c611c90565b6000805160206125ce833981519152805460011901611bc257604051633ee5aeb560e01b815260040160405180910390fd5b60029055565b60016000805160206125ce83398151915255565b611be682826113ea565b610e9f5760405163e2517d3f60e01b81526001600160a01b03821660048201526024810183905260440161054a565b611c1e82611c98565b6040516001600160a01b038316907fbc7cd75a20ee27fd9adebab32041f755214dbc6bffa90cc0225b39da2e5c2d3b90600090a2805115611c6357610bfd8282611cfd565b610e9f611d73565b611c73611d92565b611a3c57604051631afcd79f60e31b815260040160405180910390fd5b611bc8611c6b565b806001600160a01b03163b600003611cce57604051634c9c8ce360e01b81526001600160a01b038216600482015260240161054a565b60008051602061258e83398151915280546001600160a01b0319166001600160a01b0392909216919091179055565b6060600080846001600160a01b031684604051611d1a9190612410565b600060405180830381855af49150503d8060008114611d55576040519150601f19603f3d011682016040523d82523d6000602084013e611d5a565b606091505b5091509150611d6a858383611dac565b95945050505050565b3415611a3c5760405163b398979f60e01b815260040160405180910390fd5b6000611d9c611b4f565b54600160401b900460ff16919050565b606082611dc157611dbc82611e08565b61119e565b8151158015611dd857506001600160a01b0384163b155b15611e0157604051639996b31560e01b81526001600160a01b038516600482015260240161054a565b5092915050565b805115611e185780518082602001fd5b60405163d6bda27560e01b815260040160405180910390fd5b604051806101600160405280600081526020016060815260200160608152602001600081526020016060815260200160608152602001600081526020016000815260200160001515815260200160006001600160a01b03168152602001600081525090565b600060208284031215611ea857600080fd5b81356001600160e01b03198116811461119e57600080fd5b600060208284031215611ed257600080fd5b5035919050565b60005b83811015611ef4578181015183820152602001611edc565b50506000910152565b60008151808452611f15816020860160208601611ed9565b601f01601f19169290920160200192915050565b6020815281516020820152600060208301516101606040840152611f51610180840182611efd565b90506040840151601f19848303016060850152611f6e8282611efd565b915050606084015160808401526080840151601f198483030160a0850152611f968282611efd565b91505060a0840151601f198483030160c0850152611fb48282611efd565b91505060c084015160e084015260e0840151610100840152610100840151611fe161012085018215159052565b506101208401516001600160a01b038116610140850152506101408401516101608401528091505092915050565b634e487b7160e01b600052604160045260246000fd5b60008067ffffffffffffffff8411156120405761204061200f565b50604051601f19601f85018116603f0116810181811067ffffffffffffffff8211171561206f5761206f61200f565b60405283815290508082840185101561208757600080fd5b83836020830137600060208583010152509392505050565b600082601f8301126120b057600080fd5b61119e83833560208501612025565b6000602082840312156120d157600080fd5b813567ffffffffffffffff8111156120e857600080fd5b6120f48482850161209f565b949350505050565b80356001600160a01b038116811461211357600080fd5b919050565b60006020828403121561212a57600080fd5b61119e826120fc565b602080825282518282018190526000918401906040840190835b8181101561216b57835183526020938401939092019160010161214d565b509095945050505050565b6000806040838503121561218957600080fd5b82359150612199602084016120fc565b90509250929050565b8b8152610160602082015260006121bd61016083018d611efd565b82810360408401526121cf818d611efd565b90508a606084015282810360808401526121e9818b611efd565b905082810360a08401526121fd818a611efd565b60c0840198909852505060e08101949094529115156101008401526001600160a01b0316610120830152610140909101529695505050505050565b6000806040838503121561224b57600080fd5b612254836120fc565b9150602083013567ffffffffffffffff81111561227057600080fd5b8301601f8101851361228157600080fd5b61229085823560208401612025565b9150509250929050565b60208152600061119e6020830184611efd565b600080600080600080600060e0888a0312156122c857600080fd5b873567ffffffffffffffff8111156122df57600080fd5b6122eb8a828b0161209f565b975050602088013567ffffffffffffffff81111561230857600080fd5b6123148a828b0161209f565b96505060408801359450606088013567ffffffffffffffff81111561233857600080fd5b6123448a828b0161209f565b945050608088013567ffffffffffffffff81111561236157600080fd5b61236d8a828b0161209f565b93505060a0880135915060c088013567ffffffffffffffff81111561239157600080fd5b61239d8a828b0161209f565b91505092959891949750929550565b600080604083850312156123bf57600080fd5b6123c8836120fc565b946020939093013593505050565b600181811c908216806123ea57607f821691505b60208210810361240a57634e487b7160e01b600052602260045260246000fd5b50919050565b60008251612422818460208701611ed9565b9190910192915050565b634e487b7160e01b600052601160045260246000fd5b6000600182016124545761245461242c565b5060010190565b8181038181111561050f5761050f61242c565b601f821115610bfd57806000526020600020601f840160051c810160208510156124955750805b601f840160051c820191505b818110156112b957600081556001016124a1565b815167ffffffffffffffff8111156124cf576124cf61200f565b6124e3816124dd84546123d6565b8461246e565b6020601f82116001811461251757600083156124ff5750848201515b600019600385901b1c1916600184901b1784556112b9565b600084815260208120601f198516915b828110156125475787850151825560209485019460019092019101612527565b50848210156125655786840151600019600387901b60f8161c191681555b50505050600190811b01905550565b60006020828403121561258657600080fd5b505191905056fe360894a13ba1a3210667c828492db98dca3e2076cc3735a920a3ca505d382bbc02dd7bc7dec4dceedda775e58dd541e08a116c6c53815c0bd028192f7b6268009b779b17422d0df92223018b32b4d1fa46e071723d6817e2486d003becc55f00a2646970667358221220c5e5434f9a6bfa8f75b84cb9516e35fe6f7db279e2ee0181aff511289044895d64736f6c634300081c0033","opcodes":"PUSH1 0xA0 PUSH1 0x40 MSTORE ADDRESS PUSH1 0x80 MSTORE CALLVALUE DUP1 ISZERO PUSH2 0x14 JUMPI PUSH1 0x0 DUP1 REVERT JUMPDEST POP PUSH2 0x1D PUSH2 0x22 JUMP JUMPDEST PUSH2 0xD4 JUMP JUMPDEST PUSH32 0xF0C57E16840DF040F15088DC2F81FE391C3923BEC73E23A9662EFC9C229C6A00 DUP1 SLOAD PUSH9 0x10000000000000000 SWAP1 DIV PUSH1 0xFF AND ISZERO PUSH2 0x72 JUMPI PUSH1 0x40 MLOAD PUSH4 0xF92EE8A9 PUSH1 0xE0 SHL DUP2 MSTORE PUSH1 0x4 ADD PUSH1 0x40 MLOAD DUP1 SWAP2 SUB SWAP1 REVERT JUMPDEST DUP1 SLOAD PUSH1 0x1 PUSH1 0x1 PUSH1 0x40 SHL SUB SWAP1 DUP2 AND EQ PUSH2 0xD1 JUMPI DUP1 SLOAD PUSH1 0x1 PUSH1 0x1 PUSH1 0x40 SHL SUB NOT AND PUSH1 0x1 PUSH1 0x1 PUSH1 0x40 SHL SUB SWAP1 DUP2 OR DUP3 SSTORE PUSH1 0x40 MLOAD SWAP1 DUP2 MSTORE PUSH32 0xC7F505B2F371AE2175EE4913F4499E1F2633A7B5936321EED1CDAEB6115181D2 SWAP1 PUSH1 0x20 ADD PUSH1 0x40 MLOAD DUP1 SWAP2 SUB SWAP1 LOG1 JUMPDEST POP JUMP JUMPDEST PUSH1 0x80 MLOAD PUSH2 0x2623 PUSH2 0xFD PUSH1 0x0 CODECOPY PUSH1 0x0 DUP2 DUP2 PUSH2 0x19A2 ADD MSTORE DUP2 DUP2 PUSH2 0x19CB ADD MSTORE PUSH2 0x1B11 ADD MSTORE PUSH2 0x2623 PUSH1 0x0 RETURN INVALID PUSH1 0x80 PUSH1 0x40 MSTORE PUSH1 0x4 CALLDATASIZE LT PUSH2 0x166 JUMPI PUSH1 0x0 CALLDATALOAD PUSH1 0xE0 SHR DUP1 PUSH4 0x66BAB42A GT PUSH2 0xD1 JUMPI DUP1 PUSH4 0xA217FDDF GT PUSH2 0x8A JUMPI DUP1 PUSH4 0xD547741F GT PUSH2 0x64 JUMPI DUP1 PUSH4 0xD547741F EQ PUSH2 0x473 JUMPI DUP1 PUSH4 0xE3856B00 EQ PUSH2 0x493 JUMPI DUP1 PUSH4 0xF91CE77E EQ PUSH2 0x4A8 JUMPI DUP1 PUSH4 0xFE7C7BCF EQ PUSH2 0x4C8 JUMPI PUSH1 0x0 DUP1 REVERT JUMPDEST DUP1 PUSH4 0xA217FDDF EQ PUSH2 0x40D JUMPI DUP1 PUSH4 0xAD3CB1CC EQ PUSH2 0x422 JUMPI DUP1 PUSH4 0xC9CAA9ED EQ PUSH2 0x453 JUMPI PUSH1 0x0 DUP1 REVERT JUMPDEST DUP1 PUSH4 0x66BAB42A EQ PUSH2 0x340 JUMPI DUP1 PUSH4 0x8129FC1C EQ PUSH2 0x378 JUMPI DUP1 PUSH4 0x84AC51B5 EQ PUSH2 0x38D JUMPI DUP1 PUSH4 0x91D14854 EQ PUSH2 0x3AD JUMPI DUP1 PUSH4 0x9B52B431 EQ PUSH2 0x3CD JUMPI DUP1 PUSH4 0x9F48BC9D EQ PUSH2 0x3ED JUMPI PUSH1 0x0 DUP1 REVERT JUMPDEST DUP1 PUSH4 0x36568ABE GT PUSH2 0x123 JUMPI DUP1 PUSH4 0x36568ABE EQ PUSH2 0x26A JUMPI DUP1 PUSH4 0x3E97B43F EQ PUSH2 0x28A JUMPI DUP1 PUSH4 0x4F1EF286 EQ PUSH2 0x2C1 JUMPI DUP1 PUSH4 0x52D1902D EQ PUSH2 0x2D4 JUMPI DUP1 PUSH4 0x54FD4D50 EQ PUSH2 0x2E9 JUMPI DUP1 PUSH4 0x6200EE7A EQ PUSH2 0x320 JUMPI PUSH1 0x0 DUP1 REVERT JUMPDEST DUP1 PUSH4 0x1FFC9A7 EQ PUSH2 0x16B JUMPI DUP1 PUSH4 0xCFA2FD8 EQ PUSH2 0x1A0 JUMPI DUP1 PUSH4 0x248A9CA3 EQ PUSH2 0x1CD JUMPI DUP1 PUSH4 0x278FD07A EQ PUSH2 0x1FB JUMPI DUP1 PUSH4 0x2D211E95 EQ PUSH2 0x21B JUMPI DUP1 PUSH4 0x2F2FF15D EQ PUSH2 0x248 JUMPI JUMPDEST PUSH1 0x0 DUP1 REVERT JUMPDEST CALLVALUE DUP1 ISZERO PUSH2 0x177 JUMPI PUSH1 0x0 DUP1 REVERT JUMPDEST POP PUSH2 0x18B PUSH2 0x186 CALLDATASIZE PUSH1 0x4 PUSH2 0x1E96 JUMP JUMPDEST PUSH2 0x4DE JUMP JUMPDEST PUSH1 0x40 MLOAD SWAP1 ISZERO ISZERO DUP2 MSTORE PUSH1 0x20 ADD JUMPDEST PUSH1 0x40 MLOAD DUP1 SWAP2 SUB SWAP1 RETURN JUMPDEST CALLVALUE DUP1 ISZERO PUSH2 0x1AC JUMPI PUSH1 0x0 DUP1 REVERT JUMPDEST POP PUSH2 0x1C0 PUSH2 0x1BB CALLDATASIZE PUSH1 0x4 PUSH2 0x1EC0 JUMP JUMPDEST PUSH2 0x515 JUMP JUMPDEST PUSH1 0x40 MLOAD PUSH2 0x197 SWAP2 SWAP1 PUSH2 0x1F29 JUMP JUMPDEST CALLVALUE DUP1 ISZERO PUSH2 0x1D9 JUMPI PUSH1 0x0 DUP1 REVERT JUMPDEST POP PUSH2 0x1ED PUSH2 0x1E8 CALLDATASIZE PUSH1 0x4 PUSH2 0x1EC0 JUMP JUMPDEST PUSH2 0x80F JUMP JUMPDEST PUSH1 0x40 MLOAD SWAP1 DUP2 MSTORE PUSH1 0x20 ADD PUSH2 0x197 JUMP JUMPDEST CALLVALUE DUP1 ISZERO PUSH2 0x207 JUMPI PUSH1 0x0 DUP1 REVERT JUMPDEST POP PUSH2 0x1C0 PUSH2 0x216 CALLDATASIZE PUSH1 0x4 PUSH2 0x20BF JUMP JUMPDEST PUSH2 0x831 JUMP JUMPDEST CALLVALUE DUP1 ISZERO PUSH2 0x227 JUMPI PUSH1 0x0 DUP1 REVERT JUMPDEST POP PUSH2 0x23B PUSH2 0x236 CALLDATASIZE PUSH1 0x4 PUSH2 0x2118 JUMP JUMPDEST PUSH2 0xB3C JUMP JUMPDEST PUSH1 0x40 MLOAD PUSH2 0x197 SWAP2 SWAP1 PUSH2 0x2133 JUMP JUMPDEST CALLVALUE DUP1 ISZERO PUSH2 0x254 JUMPI PUSH1 0x0 DUP1 REVERT JUMPDEST POP PUSH2 0x268 PUSH2 0x263 CALLDATASIZE PUSH1 0x4 PUSH2 0x2176 JUMP JUMPDEST PUSH2 0xBA8 JUMP JUMPDEST STOP JUMPDEST CALLVALUE DUP1 ISZERO PUSH2 0x276 JUMPI PUSH1 0x0 DUP1 REVERT JUMPDEST POP PUSH2 0x268 PUSH2 0x285 CALLDATASIZE PUSH1 0x4 PUSH2 0x2176 JUMP JUMPDEST PUSH2 0xBCA JUMP JUMPDEST CALLVALUE DUP1 ISZERO PUSH2 0x296 JUMPI PUSH1 0x0 DUP1 REVERT JUMPDEST POP PUSH2 0x2AA PUSH2 0x2A5 CALLDATASIZE PUSH1 0x4 PUSH2 0x1EC0 JUMP JUMPDEST PUSH2 0xC02 JUMP JUMPDEST PUSH1 0x40 MLOAD PUSH2 0x197 SWAP12 SWAP11 SWAP10 SWAP9 SWAP8 SWAP7 SWAP6 SWAP5 SWAP4 SWAP3 SWAP2 SWAP1 PUSH2 0x21A2 JUMP JUMPDEST PUSH2 0x268 PUSH2 0x2CF CALLDATASIZE PUSH1 0x4 PUSH2 0x2238 JUMP JUMPDEST PUSH2 0xE84 JUMP JUMPDEST CALLVALUE DUP1 ISZERO PUSH2 0x2E0 JUMPI PUSH1 0x0 DUP1 REVERT JUMPDEST POP PUSH2 0x1ED PUSH2 0xEA3 JUMP JUMPDEST CALLVALUE DUP1 ISZERO PUSH2 0x2F5 JUMPI PUSH1 0x0 DUP1 REVERT JUMPDEST POP PUSH1 0x40 DUP1 MLOAD DUP1 DUP3 ADD SWAP1 SWAP2 MSTORE PUSH1 0x5 DUP2 MSTORE PUSH5 0x322E302E3 PUSH1 0xDC SHL PUSH1 0x20 DUP3 ADD MSTORE JUMPDEST PUSH1 0x40 MLOAD PUSH2 0x197 SWAP2 SWAP1 PUSH2 0x229A JUMP JUMPDEST CALLVALUE DUP1 ISZERO PUSH2 0x32C JUMPI PUSH1 0x0 DUP1 REVERT JUMPDEST POP PUSH2 0x18B PUSH2 0x33B CALLDATASIZE PUSH1 0x4 PUSH2 0x1EC0 JUMP JUMPDEST PUSH2 0xEC0 JUMP JUMPDEST CALLVALUE DUP1 ISZERO PUSH2 0x34C JUMPI PUSH1 0x0 DUP1 REVERT JUMPDEST POP PUSH2 0x1ED PUSH2 0x35B CALLDATASIZE PUSH1 0x4 PUSH2 0x20BF JUMP JUMPDEST DUP1 MLOAD PUSH1 0x20 DUP2 DUP4 ADD DUP2 ADD DUP1 MLOAD PUSH1 0x2 DUP3 MSTORE SWAP3 DUP3 ADD SWAP2 SWAP1 SWAP4 ADD KECCAK256 SWAP2 MSTORE SLOAD DUP2 JUMP JUMPDEST CALLVALUE DUP1 ISZERO PUSH2 0x384 JUMPI PUSH1 0x0 DUP1 REVERT JUMPDEST POP PUSH2 0x268 PUSH2 0x11A5 JUMP JUMPDEST CALLVALUE DUP1 ISZERO PUSH2 0x399 JUMPI PUSH1 0x0 DUP1 REVERT JUMPDEST POP PUSH2 0x268 PUSH2 0x3A8 CALLDATASIZE PUSH1 0x4 PUSH2 0x1EC0 JUMP JUMPDEST PUSH2 0x12C0 JUMP JUMPDEST CALLVALUE DUP1 ISZERO PUSH2 0x3B9 JUMPI PUSH1 0x0 DUP1 REVERT JUMPDEST POP PUSH2 0x18B PUSH2 0x3C8 CALLDATASIZE PUSH1 0x4 PUSH2 0x2176 JUMP JUMPDEST PUSH2 0x13EA JUMP JUMPDEST CALLVALUE DUP1 ISZERO PUSH2 0x3D9 JUMPI PUSH1 0x0 DUP1 REVERT JUMPDEST POP PUSH2 0x268 PUSH2 0x3E8 CALLDATASIZE PUSH1 0x4 PUSH2 0x1EC0 JUMP JUMPDEST PUSH2 0x1422 JUMP JUMPDEST CALLVALUE DUP1 ISZERO PUSH2 0x3F9 JUMPI PUSH1 0x0 DUP1 REVERT JUMPDEST POP PUSH2 0x268 PUSH2 0x408 CALLDATASIZE PUSH1 0x4 PUSH2 0x20BF JUMP JUMPDEST PUSH2 0x149E JUMP JUMPDEST CALLVALUE DUP1 ISZERO PUSH2 0x419 JUMPI PUSH1 0x0 DUP1 REVERT JUMPDEST POP PUSH2 0x1ED PUSH1 0x0 DUP2 JUMP JUMPDEST CALLVALUE DUP1 ISZERO PUSH2 0x42E JUMPI PUSH1 0x0 DUP1 REVERT JUMPDEST POP PUSH2 0x313 PUSH1 0x40 MLOAD DUP1 PUSH1 0x40 ADD PUSH1 0x40 MSTORE DUP1 PUSH1 0x5 DUP2 MSTORE PUSH1 0x20 ADD PUSH5 0x352E302E3 PUSH1 0xDC SHL DUP2 MSTORE POP DUP2 JUMP JUMPDEST CALLVALUE DUP1 ISZERO PUSH2 0x45F JUMPI PUSH1 0x0 DUP1 REVERT JUMPDEST POP PUSH2 0x1ED PUSH2 0x46E CALLDATASIZE PUSH1 0x4 PUSH2 0x22AD JUMP JUMPDEST PUSH2 0x160C JUMP JUMPDEST CALLVALUE DUP1 ISZERO PUSH2 0x47F JUMPI PUSH1 0x0 DUP1 REVERT JUMPDEST POP PUSH2 0x268 PUSH2 0x48E CALLDATASIZE PUSH1 0x4 PUSH2 0x2176 JUMP JUMPDEST PUSH2 0x1809 JUMP JUMPDEST CALLVALUE DUP1 ISZERO PUSH2 0x49F JUMPI PUSH1 0x0 DUP1 REVERT JUMPDEST POP PUSH2 0x1ED PUSH2 0x1825 JUMP JUMPDEST CALLVALUE DUP1 ISZERO PUSH2 0x4B4 JUMPI PUSH1 0x0 DUP1 REVERT JUMPDEST POP PUSH2 0x1ED PUSH2 0x4C3 CALLDATASIZE PUSH1 0x4 PUSH2 0x23AC JUMP JUMPDEST PUSH2 0x183B JUMP JUMPDEST CALLVALUE DUP1 ISZERO PUSH2 0x4D4 JUMPI PUSH1 0x0 DUP1 REVERT JUMPDEST POP PUSH2 0x1ED PUSH1 0x3 SLOAD DUP2 JUMP JUMPDEST PUSH1 0x0 PUSH1 0x1 PUSH1 0x1 PUSH1 0xE0 SHL SUB NOT DUP3 AND PUSH4 0x7965DB0B PUSH1 0xE0 SHL EQ DUP1 PUSH2 0x50F JUMPI POP PUSH4 0x1FFC9A7 PUSH1 0xE0 SHL PUSH1 0x1 PUSH1 0x1 PUSH1 0xE0 SHL SUB NOT DUP4 AND EQ JUMPDEST SWAP3 SWAP2 POP POP JUMP JUMPDEST PUSH2 0x51D PUSH2 0x1E31 JUMP JUMPDEST PUSH1 0x0 DUP3 DUP2 MSTORE PUSH1 0x20 DUP2 SWAP1 MSTORE PUSH1 0x40 DUP2 KECCAK256 SLOAD SWAP1 SUB PUSH2 0x553 JUMPI PUSH1 0x40 MLOAD PUSH4 0x7ECBA329 PUSH1 0xE0 SHL DUP2 MSTORE PUSH1 0x4 DUP2 ADD DUP4 SWAP1 MSTORE PUSH1 0x24 ADD JUMPDEST PUSH1 0x40 MLOAD DUP1 SWAP2 SUB SWAP1 REVERT JUMPDEST PUSH1 0x0 DUP3 DUP2 MSTORE PUSH1 0x20 DUP2 DUP2 MSTORE PUSH1 0x40 SWAP2 DUP3 SWAP1 KECCAK256 DUP3 MLOAD PUSH2 0x160 DUP2 ADD SWAP1 SWAP4 MSTORE DUP1 SLOAD DUP4 MSTORE PUSH1 0x1 DUP2 ADD DUP1 SLOAD SWAP2 SWAP3 DUP5 ADD SWAP2 PUSH2 0x585 SWAP1 PUSH2 0x23D6 JUMP JUMPDEST DUP1 PUSH1 0x1F ADD PUSH1 0x20 DUP1 SWAP2 DIV MUL PUSH1 0x20 ADD PUSH1 0x40 MLOAD SWAP1 DUP2 ADD PUSH1 0x40 MSTORE DUP1 SWAP3 SWAP2 SWAP1 DUP2 DUP2 MSTORE PUSH1 0x20 ADD DUP3 DUP1 SLOAD PUSH2 0x5B1 SWAP1 PUSH2 0x23D6 JUMP JUMPDEST DUP1 ISZERO PUSH2 0x5FE JUMPI DUP1 PUSH1 0x1F LT PUSH2 0x5D3 JUMPI PUSH2 0x100 DUP1 DUP4 SLOAD DIV MUL DUP4 MSTORE SWAP2 PUSH1 0x20 ADD SWAP2 PUSH2 0x5FE JUMP JUMPDEST DUP3 ADD SWAP2 SWAP1 PUSH1 0x0 MSTORE PUSH1 0x20 PUSH1 0x0 KECCAK256 SWAP1 JUMPDEST DUP2 SLOAD DUP2 MSTORE SWAP1 PUSH1 0x1 ADD SWAP1 PUSH1 0x20 ADD DUP1 DUP4 GT PUSH2 0x5E1 JUMPI DUP3 SWAP1 SUB PUSH1 0x1F AND DUP3 ADD SWAP2 JUMPDEST POP POP POP POP POP DUP2 MSTORE PUSH1 0x20 ADD PUSH1 0x2 DUP3 ADD DUP1 SLOAD PUSH2 0x617 SWAP1 PUSH2 0x23D6 JUMP JUMPDEST DUP1 PUSH1 0x1F ADD PUSH1 0x20 DUP1 SWAP2 DIV MUL PUSH1 0x20 ADD PUSH1 0x40 MLOAD SWAP1 DUP2 ADD PUSH1 0x40 MSTORE DUP1 SWAP3 SWAP2 SWAP1 DUP2 DUP2 MSTORE PUSH1 0x20 ADD DUP3 DUP1 SLOAD PUSH2 0x643 SWAP1 PUSH2 0x23D6 JUMP JUMPDEST DUP1 ISZERO PUSH2 0x690 JUMPI DUP1 PUSH1 0x1F LT PUSH2 0x665 JUMPI PUSH2 0x100 DUP1 DUP4 SLOAD DIV MUL DUP4 MSTORE SWAP2 PUSH1 0x20 ADD SWAP2 PUSH2 0x690 JUMP JUMPDEST DUP3 ADD SWAP2 SWAP1 PUSH1 0x0 MSTORE PUSH1 0x20 PUSH1 0x0 KECCAK256 SWAP1 JUMPDEST DUP2 SLOAD DUP2 MSTORE SWAP1 PUSH1 0x1 ADD SWAP1 PUSH1 0x20 ADD DUP1 DUP4 GT PUSH2 0x673 JUMPI DUP3 SWAP1 SUB PUSH1 0x1F AND DUP3 ADD SWAP2 JUMPDEST POP POP POP POP POP DUP2 MSTORE PUSH1 0x20 ADD PUSH1 0x3 DUP3 ADD SLOAD DUP2 MSTORE PUSH1 0x20 ADD PUSH1 0x4 DUP3 ADD DUP1 SLOAD PUSH2 0x6B3 SWAP1 PUSH2 0x23D6 JUMP JUMPDEST DUP1 PUSH1 0x1F ADD PUSH1 0x20 DUP1 SWAP2 DIV MUL PUSH1 0x20 ADD PUSH1 0x40 MLOAD SWAP1 DUP2 ADD PUSH1 0x40 MSTORE DUP1 SWAP3 SWAP2 SWAP1 DUP2 DUP2 MSTORE PUSH1 0x20 ADD DUP3 DUP1 SLOAD PUSH2 0x6DF SWAP1 PUSH2 0x23D6 JUMP JUMPDEST DUP1 ISZERO PUSH2 0x72C JUMPI DUP1 PUSH1 0x1F LT PUSH2 0x701 JUMPI PUSH2 0x100 DUP1 DUP4 SLOAD DIV MUL DUP4 MSTORE SWAP2 PUSH1 0x20 ADD SWAP2 PUSH2 0x72C JUMP JUMPDEST DUP3 ADD SWAP2 SWAP1 PUSH1 0x0 MSTORE PUSH1 0x20 PUSH1 0x0 KECCAK256 SWAP1 JUMPDEST DUP2 SLOAD DUP2 MSTORE SWAP1 PUSH1 0x1 ADD SWAP1 PUSH1 0x20 ADD DUP1 DUP4 GT PUSH2 0x70F JUMPI DUP3 SWAP1 SUB PUSH1 0x1F AND DUP3 ADD SWAP2 JUMPDEST POP POP POP POP POP DUP2 MSTORE PUSH1 0x20 ADD PUSH1 0x5 DUP3 ADD DUP1 SLOAD PUSH2 0x745 SWAP1 PUSH2 0x23D6 JUMP JUMPDEST DUP1 PUSH1 0x1F ADD PUSH1 0x20 DUP1 SWAP2 DIV MUL PUSH1 0x20 ADD PUSH1 0x40 MLOAD SWAP1 DUP2 ADD PUSH1 0x40 MSTORE DUP1 SWAP3 SWAP2 SWAP1 DUP2 DUP2 MSTORE PUSH1 0x20 ADD DUP3 DUP1 SLOAD PUSH2 0x771 SWAP1 PUSH2 0x23D6 JUMP JUMPDEST DUP1 ISZERO PUSH2 0x7BE JUMPI DUP1 PUSH1 0x1F LT PUSH2 0x793 JUMPI PUSH2 0x100 DUP1 DUP4 SLOAD DIV MUL DUP4 MSTORE SWAP2 PUSH1 0x20 ADD SWAP2 PUSH2 0x7BE JUMP JUMPDEST DUP3 ADD SWAP2 SWAP1 PUSH1 0x0 MSTORE PUSH1 0x20 PUSH1 0x0 KECCAK256 SWAP1 JUMPDEST DUP2 SLOAD DUP2 MSTORE SWAP1 PUSH1 0x1 ADD SWAP1 PUSH1 0x20 ADD DUP1 DUP4 GT PUSH2 0x7A1 JUMPI DUP3 SWAP1 SUB PUSH1 0x1F AND DUP3 ADD SWAP2 JUMPDEST POP POP POP SWAP2 DUP4 MSTORE POP POP PUSH1 0x6 DUP3 ADD SLOAD PUSH1 0x20 DUP3 ADD MSTORE PUSH1 0x7 DUP3 ADD SLOAD PUSH1 0x40 DUP3 ADD MSTORE PUSH1 0x8 DUP3 ADD SLOAD PUSH1 0xFF DUP2 AND ISZERO ISZERO PUSH1 0x60 DUP4 ADD MSTORE PUSH2 0x100 SWAP1 DIV PUSH1 0x1 PUSH1 0x1 PUSH1 0xA0 SHL SUB AND PUSH1 0x80 DUP3 ADD MSTORE PUSH1 0x9 SWAP1 SWAP2 ADD SLOAD PUSH1 0xA0 SWAP1 SWAP2 ADD MSTORE SWAP3 SWAP2 POP POP JUMP JUMPDEST PUSH1 0x0 SWAP1 DUP2 MSTORE PUSH1 0x0 DUP1 MLOAD PUSH1 0x20 PUSH2 0x25AE DUP4 CODECOPY DUP2 MLOAD SWAP2 MSTORE PUSH1 0x20 MSTORE PUSH1 0x40 SWAP1 KECCAK256 PUSH1 0x1 ADD SLOAD SWAP1 JUMP JUMPDEST PUSH2 0x839 PUSH2 0x1E31 JUMP JUMPDEST PUSH1 0x0 PUSH1 0x2 DUP4 PUSH1 0x40 MLOAD PUSH2 0x84B SWAP2 SWAP1 PUSH2 0x2410 JUMP JUMPDEST SWAP1 DUP2 MSTORE PUSH1 0x20 ADD PUSH1 0x40 MLOAD DUP1 SWAP2 SUB SWAP1 KECCAK256 SLOAD SWAP1 POP DUP1 PUSH1 0x0 SUB PUSH2 0x87F JUMPI DUP3 PUSH1 0x40 MLOAD PUSH4 0x8F7B7905 PUSH1 0xE0 SHL DUP2 MSTORE PUSH1 0x4 ADD PUSH2 0x54A SWAP2 SWAP1 PUSH2 0x229A JUMP JUMPDEST PUSH1 0x0 DUP2 DUP2 MSTORE PUSH1 0x20 DUP2 DUP2 MSTORE PUSH1 0x40 SWAP2 DUP3 SWAP1 KECCAK256 DUP3 MLOAD PUSH2 0x160 DUP2 ADD SWAP1 SWAP4 MSTORE DUP1 SLOAD DUP4 MSTORE PUSH1 0x1 DUP2 ADD DUP1 SLOAD SWAP2 SWAP3 DUP5 ADD SWAP2 PUSH2 0x8B1 SWAP1 PUSH2 0x23D6 JUMP JUMPDEST DUP1 PUSH1 0x1F ADD PUSH1 0x20 DUP1 SWAP2 DIV MUL PUSH1 0x20 ADD PUSH1 0x40 MLOAD SWAP1 DUP2 ADD PUSH1 0x40 MSTORE DUP1 SWAP3 SWAP2 SWAP1 DUP2 DUP2 MSTORE PUSH1 0x20 ADD DUP3 DUP1 SLOAD PUSH2 0x8DD SWAP1 PUSH2 0x23D6 JUMP JUMPDEST DUP1 ISZERO PUSH2 0x92A JUMPI DUP1 PUSH1 0x1F LT PUSH2 0x8FF JUMPI PUSH2 0x100 DUP1 DUP4 SLOAD DIV MUL DUP4 MSTORE SWAP2 PUSH1 0x20 ADD SWAP2 PUSH2 0x92A JUMP JUMPDEST DUP3 ADD SWAP2 SWAP1 PUSH1 0x0 MSTORE PUSH1 0x20 PUSH1 0x0 KECCAK256 SWAP1 JUMPDEST DUP2 SLOAD DUP2 MSTORE SWAP1 PUSH1 0x1 ADD SWAP1 PUSH1 0x20 ADD DUP1 DUP4 GT PUSH2 0x90D JUMPI DUP3 SWAP1 SUB PUSH1 0x1F AND DUP3 ADD SWAP2 JUMPDEST POP POP POP POP POP DUP2 MSTORE PUSH1 0x20 ADD PUSH1 0x2 DUP3 ADD DUP1 SLOAD PUSH2 0x943 SWAP1 PUSH2 0x23D6 JUMP JUMPDEST DUP1 PUSH1 0x1F ADD PUSH1 0x20 DUP1 SWAP2 DIV MUL PUSH1 0x20 ADD PUSH1 0x40 MLOAD SWAP1 DUP2 ADD PUSH1 0x40 MSTORE DUP1 SWAP3 SWAP2 SWAP1 DUP2 DUP2 MSTORE PUSH1 0x20 ADD DUP3 DUP1 SLOAD PUSH2 0x96F SWAP1 PUSH2 0x23D6 JUMP JUMPDEST DUP1 ISZERO PUSH2 0x9BC JUMPI DUP1 PUSH1 0x1F LT PUSH2 0x991 JUMPI PUSH2 0x100 DUP1 DUP4 SLOAD DIV MUL DUP4 MSTORE SWAP2 PUSH1 0x20 ADD SWAP2 PUSH2 0x9BC JUMP JUMPDEST DUP3 ADD SWAP2 SWAP1 PUSH1 0x0 MSTORE PUSH1 0x20 PUSH1 0x0 KECCAK256 SWAP1 JUMPDEST DUP2 SLOAD DUP2 MSTORE SWAP1 PUSH1 0x1 ADD SWAP1 PUSH1 0x20 ADD DUP1 DUP4 GT PUSH2 0x99F JUMPI DUP3 SWAP1 SUB PUSH1 0x1F AND DUP3 ADD SWAP2 JUMPDEST POP POP POP POP POP DUP2 MSTORE PUSH1 0x20 ADD PUSH1 0x3 DUP3 ADD SLOAD DUP2 MSTORE PUSH1 0x20 ADD PUSH1 0x4 DUP3 ADD DUP1 SLOAD PUSH2 0x9DF SWAP1 PUSH2 0x23D6 JUMP JUMPDEST DUP1 PUSH1 0x1F ADD PUSH1 0x20 DUP1 SWAP2 DIV MUL PUSH1 0x20 ADD PUSH1 0x40 MLOAD SWAP1 DUP2 ADD PUSH1 0x40 MSTORE DUP1 SWAP3 SWAP2 SWAP1 DUP2 DUP2 MSTORE PUSH1 0x20 ADD DUP3 DUP1 SLOAD PUSH2 0xA0B SWAP1 PUSH2 0x23D6 JUMP JUMPDEST DUP1 ISZERO PUSH2 0xA58 JUMPI DUP1 PUSH1 0x1F LT PUSH2 0xA2D JUMPI PUSH2 0x100 DUP1 DUP4 SLOAD DIV MUL DUP4 MSTORE SWAP2 PUSH1 0x20 ADD SWAP2 PUSH2 0xA58 JUMP JUMPDEST DUP3 ADD SWAP2 SWAP1 PUSH1 0x0 MSTORE PUSH1 0x20 PUSH1 0x0 KECCAK256 SWAP1 JUMPDEST DUP2 SLOAD DUP2 MSTORE SWAP1 PUSH1 0x1 ADD SWAP1 PUSH1 0x20 ADD DUP1 DUP4 GT PUSH2 0xA3B JUMPI DUP3 SWAP1 SUB PUSH1 0x1F AND DUP3 ADD SWAP2 JUMPDEST POP POP POP POP POP DUP2 MSTORE PUSH1 0x20 ADD PUSH1 0x5 DUP3 ADD DUP1 SLOAD PUSH2 0xA71 SWAP1 PUSH2 0x23D6 JUMP JUMPDEST DUP1 PUSH1 0x1F ADD PUSH1 0x20 DUP1 SWAP2 DIV MUL PUSH1 0x20 ADD PUSH1 0x40 MLOAD SWAP1 DUP2 ADD PUSH1 0x40 MSTORE DUP1 SWAP3 SWAP2 SWAP1 DUP2 DUP2 MSTORE PUSH1 0x20 ADD DUP3 DUP1 SLOAD PUSH2 0xA9D SWAP1 PUSH2 0x23D6 JUMP JUMPDEST DUP1 ISZERO PUSH2 0xAEA JUMPI DUP1 PUSH1 0x1F LT PUSH2 0xABF JUMPI PUSH2 0x100 DUP1 DUP4 SLOAD DIV MUL DUP4 MSTORE SWAP2 PUSH1 0x20 ADD SWAP2 PUSH2 0xAEA JUMP JUMPDEST DUP3 ADD SWAP2 SWAP1 PUSH1 0x0 MSTORE PUSH1 0x20 PUSH1 0x0 KECCAK256 SWAP1 JUMPDEST DUP2 SLOAD DUP2 MSTORE SWAP1 PUSH1 0x1 ADD SWAP1 PUSH1 0x20 ADD DUP1 DUP4 GT PUSH2 0xACD JUMPI DUP3 SWAP1 SUB PUSH1 0x1F AND DUP3 ADD SWAP2 JUMPDEST POP POP POP SWAP2 DUP4 MSTORE POP POP PUSH1 0x6 DUP3 ADD SLOAD PUSH1 0x20 DUP3 ADD MSTORE PUSH1 0x7 DUP3 ADD SLOAD PUSH1 0x40 DUP3 ADD MSTORE PUSH1 0x8 DUP3 ADD SLOAD PUSH1 0xFF DUP2 AND ISZERO ISZERO PUSH1 0x60 DUP4 ADD MSTORE PUSH2 0x100 SWAP1 DIV PUSH1 0x1 PUSH1 0x1 PUSH1 0xA0 SHL SUB AND PUSH1 0x80 DUP3 ADD MSTORE PUSH1 0x9 SWAP1 SWAP2 ADD SLOAD PUSH1 0xA0 SWAP1 SWAP2 ADD MSTORE SWAP4 SWAP3 POP POP POP JUMP JUMPDEST PUSH1 0x1 PUSH1 0x1 PUSH1 0xA0 SHL SUB DUP2 AND PUSH1 0x0 SWAP1 DUP2 MSTORE PUSH1 0x1 PUSH1 0x20 SWAP1 DUP2 MSTORE PUSH1 0x40 SWAP2 DUP3 SWAP1 KECCAK256 DUP1 SLOAD DUP4 MLOAD DUP2 DUP5 MUL DUP2 ADD DUP5 ADD SWAP1 SWAP5 MSTORE DUP1 DUP5 MSTORE PUSH1 0x60 SWAP4 SWAP3 DUP4 ADD DUP3 DUP3 DUP1 ISZERO PUSH2 0xB9C JUMPI PUSH1 0x20 MUL DUP3 ADD SWAP2 SWAP1 PUSH1 0x0 MSTORE PUSH1 0x20 PUSH1 0x0 KECCAK256 SWAP1 JUMPDEST DUP2 SLOAD DUP2 MSTORE PUSH1 0x20 ADD SWAP1 PUSH1 0x1 ADD SWAP1 DUP1 DUP4 GT PUSH2 0xB88 JUMPI JUMPDEST POP POP POP POP POP SWAP1 POP SWAP2 SWAP1 POP JUMP JUMPDEST PUSH2 0xBB1 DUP3 PUSH2 0x80F JUMP JUMPDEST PUSH2 0xBBA DUP2 PUSH2 0x186C JUMP JUMPDEST PUSH2 0xBC4 DUP4 DUP4 PUSH2 0x1876 JUMP JUMPDEST POP POP POP POP JUMP JUMPDEST PUSH1 0x1 PUSH1 0x1 PUSH1 0xA0 SHL SUB DUP2 AND CALLER EQ PUSH2 0xBF3 JUMPI PUSH1 0x40 MLOAD PUSH4 0x334BD919 PUSH1 0xE1 SHL DUP2 MSTORE PUSH1 0x4 ADD PUSH1 0x40 MLOAD DUP1 SWAP2 SUB SWAP1 REVERT JUMPDEST PUSH2 0xBFD DUP3 DUP3 PUSH2 0x191B JUMP JUMPDEST POP POP POP JUMP JUMPDEST PUSH1 0x0 PUSH1 0x20 DUP2 SWAP1 MSTORE SWAP1 DUP2 MSTORE PUSH1 0x40 SWAP1 KECCAK256 DUP1 SLOAD PUSH1 0x1 DUP3 ADD DUP1 SLOAD SWAP2 SWAP3 SWAP2 PUSH2 0xC24 SWAP1 PUSH2 0x23D6 JUMP JUMPDEST DUP1 PUSH1 0x1F ADD PUSH1 0x20 DUP1 SWAP2 DIV MUL PUSH1 0x20 ADD PUSH1 0x40 MLOAD SWAP1 DUP2 ADD PUSH1 0x40 MSTORE DUP1 SWAP3 SWAP2 SWAP1 DUP2 DUP2 MSTORE PUSH1 0x20 ADD DUP3 DUP1 SLOAD PUSH2 0xC50 SWAP1 PUSH2 0x23D6 JUMP JUMPDEST DUP1 ISZERO PUSH2 0xC9D JUMPI DUP1 PUSH1 0x1F LT PUSH2 0xC72 JUMPI PUSH2 0x100 DUP1 DUP4 SLOAD DIV MUL DUP4 MSTORE SWAP2 PUSH1 0x20 ADD SWAP2 PUSH2 0xC9D JUMP JUMPDEST DUP3 ADD SWAP2 SWAP1 PUSH1 0x0 MSTORE PUSH1 0x20 PUSH1 0x0 KECCAK256 SWAP1 JUMPDEST DUP2 SLOAD DUP2 MSTORE SWAP1 PUSH1 0x1 ADD SWAP1 PUSH1 0x20 ADD DUP1 DUP4 GT PUSH2 0xC80 JUMPI DUP3 SWAP1 SUB PUSH1 0x1F AND DUP3 ADD SWAP2 JUMPDEST POP POP POP POP POP SWAP1 DUP1 PUSH1 0x2 ADD DUP1 SLOAD PUSH2 0xCB2 SWAP1 PUSH2 0x23D6 JUMP JUMPDEST DUP1 PUSH1 0x1F ADD PUSH1 0x20 DUP1 SWAP2 DIV MUL PUSH1 0x20 ADD PUSH1 0x40 MLOAD SWAP1 DUP2 ADD PUSH1 0x40 MSTORE DUP1 SWAP3 SWAP2 SWAP1 DUP2 DUP2 MSTORE PUSH1 0x20 ADD DUP3 DUP1 SLOAD PUSH2 0xCDE SWAP1 PUSH2 0x23D6 JUMP JUMPDEST DUP1 ISZERO PUSH2 0xD2B JUMPI DUP1 PUSH1 0x1F LT PUSH2 0xD00 JUMPI PUSH2 0x100 DUP1 DUP4 SLOAD DIV MUL DUP4 MSTORE SWAP2 PUSH1 0x20 ADD SWAP2 PUSH2 0xD2B JUMP JUMPDEST DUP3 ADD SWAP2 SWAP1 PUSH1 0x0 MSTORE PUSH1 0x20 PUSH1 0x0 KECCAK256 SWAP1 JUMPDEST DUP2 SLOAD DUP2 MSTORE SWAP1 PUSH1 0x1 ADD SWAP1 PUSH1 0x20 ADD DUP1 DUP4 GT PUSH2 0xD0E JUMPI DUP3 SWAP1 SUB PUSH1 0x1F AND DUP3 ADD SWAP2 JUMPDEST POP POP POP POP POP SWAP1 DUP1 PUSH1 0x3 ADD SLOAD SWAP1 DUP1 PUSH1 0x4 ADD DUP1 SLOAD PUSH2 0xD46 SWAP1 PUSH2 0x23D6 JUMP JUMPDEST DUP1 PUSH1 0x1F ADD PUSH1 0x20 DUP1 SWAP2 DIV MUL PUSH1 0x20 ADD PUSH1 0x40 MLOAD SWAP1 DUP2 ADD PUSH1 0x40 MSTORE DUP1 SWAP3 SWAP2 SWAP1 DUP2 DUP2 MSTORE PUSH1 0x20 ADD DUP3 DUP1 SLOAD PUSH2 0xD72 SWAP1 PUSH2 0x23D6 JUMP JUMPDEST DUP1 ISZERO PUSH2 0xDBF JUMPI DUP1 PUSH1 0x1F LT PUSH2 0xD94 JUMPI PUSH2 0x100 DUP1 DUP4 SLOAD DIV MUL DUP4 MSTORE SWAP2 PUSH1 0x20 ADD SWAP2 PUSH2 0xDBF JUMP JUMPDEST DUP3 ADD SWAP2 SWAP1 PUSH1 0x0 MSTORE PUSH1 0x20 PUSH1 0x0 KECCAK256 SWAP1 JUMPDEST DUP2 SLOAD DUP2 MSTORE SWAP1 PUSH1 0x1 ADD SWAP1 PUSH1 0x20 ADD DUP1 DUP4 GT PUSH2 0xDA2 JUMPI DUP3 SWAP1 SUB PUSH1 0x1F AND DUP3 ADD SWAP2 JUMPDEST POP POP POP POP POP SWAP1 DUP1 PUSH1 0x5 ADD DUP1 SLOAD PUSH2 0xDD4 SWAP1 PUSH2 0x23D6 JUMP JUMPDEST DUP1 PUSH1 0x1F ADD PUSH1 0x20 DUP1 SWAP2 DIV MUL PUSH1 0x20 ADD PUSH1 0x40 MLOAD SWAP1 DUP2 ADD PUSH1 0x40 MSTORE DUP1 SWAP3 SWAP2 SWAP1 DUP2 DUP2 MSTORE PUSH1 0x20 ADD DUP3 DUP1 SLOAD PUSH2 0xE00 SWAP1 PUSH2 0x23D6 JUMP JUMPDEST DUP1 ISZERO PUSH2 0xE4D JUMPI DUP1 PUSH1 0x1F LT PUSH2 0xE22 JUMPI PUSH2 0x100 DUP1 DUP4 SLOAD DIV MUL DUP4 MSTORE SWAP2 PUSH1 0x20 ADD SWAP2 PUSH2 0xE4D JUMP JUMPDEST DUP3 ADD SWAP2 SWAP1 PUSH1 0x0 MSTORE PUSH1 0x20 PUSH1 0x0 KECCAK256 SWAP1 JUMPDEST DUP2 SLOAD DUP2 MSTORE SWAP1 PUSH1 0x1 ADD SWAP1 PUSH1 0x20 ADD DUP1 DUP4 GT PUSH2 0xE30 JUMPI DUP3 SWAP1 SUB PUSH1 0x1F AND DUP3 ADD SWAP2 JUMPDEST POP POP POP POP PUSH1 0x6 DUP4 ADD SLOAD PUSH1 0x7 DUP5 ADD SLOAD PUSH1 0x8 DUP6 ADD SLOAD PUSH1 0x9 SWAP1 SWAP6 ADD SLOAD SWAP4 SWAP5 SWAP2 SWAP4 SWAP1 SWAP3 POP PUSH1 0xFF DUP3 AND SWAP2 PUSH2 0x100 SWAP1 DIV PUSH1 0x1 PUSH1 0x1 PUSH1 0xA0 SHL SUB AND SWAP1 DUP12 JUMP JUMPDEST PUSH2 0xE8C PUSH2 0x1997 JUMP JUMPDEST PUSH2 0xE95 DUP3 PUSH2 0x1A3E JUMP JUMPDEST PUSH2 0xE9F DUP3 DUP3 PUSH2 0x1A49 JUMP JUMPDEST POP POP JUMP JUMPDEST PUSH1 0x0 PUSH2 0xEAD PUSH2 0x1B06 JUMP JUMPDEST POP PUSH1 0x0 DUP1 MLOAD PUSH1 0x20 PUSH2 0x258E DUP4 CODECOPY DUP2 MLOAD SWAP2 MSTORE SWAP1 JUMP JUMPDEST PUSH1 0x0 DUP2 DUP2 MSTORE PUSH1 0x20 DUP2 DUP2 MSTORE PUSH1 0x40 DUP1 DUP4 KECCAK256 DUP2 MLOAD PUSH2 0x160 DUP2 ADD SWAP1 SWAP3 MSTORE DUP1 SLOAD DUP3 MSTORE PUSH1 0x1 DUP2 ADD DUP1 SLOAD DUP6 SWAP5 DUP5 ADD SWAP2 SWAP1 PUSH2 0xEF2 SWAP1 PUSH2 0x23D6 JUMP JUMPDEST DUP1 PUSH1 0x1F ADD PUSH1 0x20 DUP1 SWAP2 DIV MUL PUSH1 0x20 ADD PUSH1 0x40 MLOAD SWAP1 DUP2 ADD PUSH1 0x40 MSTORE DUP1 SWAP3 SWAP2 SWAP1 DUP2 DUP2 MSTORE PUSH1 0x20 ADD DUP3 DUP1 SLOAD PUSH2 0xF1E SWAP1 PUSH2 0x23D6 JUMP JUMPDEST DUP1 ISZERO PUSH2 0xF6B JUMPI DUP1 PUSH1 0x1F LT PUSH2 0xF40 JUMPI PUSH2 0x100 DUP1 DUP4 SLOAD DIV MUL DUP4 MSTORE SWAP2 PUSH1 0x20 ADD SWAP2 PUSH2 0xF6B JUMP JUMPDEST DUP3 ADD SWAP2 SWAP1 PUSH1 0x0 MSTORE PUSH1 0x20 PUSH1 0x0 KECCAK256 SWAP1 JUMPDEST DUP2 SLOAD DUP2 MSTORE SWAP1 PUSH1 0x1 ADD SWAP1 PUSH1 0x20 ADD DUP1 DUP4 GT PUSH2 0xF4E JUMPI DUP3 SWAP1 SUB PUSH1 0x1F AND DUP3 ADD SWAP2 JUMPDEST POP POP POP POP POP DUP2 MSTORE PUSH1 0x20 ADD PUSH1 0x2 DUP3 ADD DUP1 SLOAD PUSH2 0xF84 SWAP1 PUSH2 0x23D6 JUMP JUMPDEST DUP1 PUSH1 0x1F ADD PUSH1 0x20 DUP1 SWAP2 DIV MUL PUSH1 0x20 ADD PUSH1 0x40 MLOAD SWAP1 DUP2 ADD PUSH1 0x40 MSTORE DUP1 SWAP3 SWAP2 SWAP1 DUP2 DUP2 MSTORE PUSH1 0x20 ADD DUP3 DUP1 SLOAD PUSH2 0xFB0 SWAP1 PUSH2 0x23D6 JUMP JUMPDEST DUP1 ISZERO PUSH2 0xFFD JUMPI DUP1 PUSH1 0x1F LT PUSH2 0xFD2 JUMPI PUSH2 0x100 DUP1 DUP4 SLOAD DIV MUL DUP4 MSTORE SWAP2 PUSH1 0x20 ADD SWAP2 PUSH2 0xFFD JUMP JUMPDEST DUP3 ADD SWAP2 SWAP1 PUSH1 0x0 MSTORE PUSH1 0x20 PUSH1 0x0 KECCAK256 SWAP1 JUMPDEST DUP2 SLOAD DUP2 MSTORE SWAP1 PUSH1 0x1 ADD SWAP1 PUSH1 0x20 ADD DUP1 DUP4 GT PUSH2 0xFE0 JUMPI DUP3 SWAP1 SUB PUSH1 0x1F AND DUP3 ADD SWAP2 JUMPDEST POP POP POP POP POP DUP2 MSTORE PUSH1 0x20 ADD PUSH1 0x3 DUP3 ADD SLOAD DUP2 MSTORE PUSH1 0x20 ADD PUSH1 0x4 DUP3 ADD DUP1 SLOAD PUSH2 0x1020 SWAP1 PUSH2 0x23D6 JUMP JUMPDEST DUP1 PUSH1 0x1F ADD PUSH1 0x20 DUP1 SWAP2 DIV MUL PUSH1 0x20 ADD PUSH1 0x40 MLOAD SWAP1 DUP2 ADD PUSH1 0x40 MSTORE DUP1 SWAP3 SWAP2 SWAP1 DUP2 DUP2 MSTORE PUSH1 0x20 ADD DUP3 DUP1 SLOAD PUSH2 0x104C SWAP1 PUSH2 0x23D6 JUMP JUMPDEST DUP1 ISZERO PUSH2 0x1099 JUMPI DUP1 PUSH1 0x1F LT PUSH2 0x106E JUMPI PUSH2 0x100 DUP1 DUP4 SLOAD DIV MUL DUP4 MSTORE SWAP2 PUSH1 0x20 ADD SWAP2 PUSH2 0x1099 JUMP JUMPDEST DUP3 ADD SWAP2 SWAP1 PUSH1 0x0 MSTORE PUSH1 0x20 PUSH1 0x0 KECCAK256 SWAP1 JUMPDEST DUP2 SLOAD DUP2 MSTORE SWAP1 PUSH1 0x1 ADD SWAP1 PUSH1 0x20 ADD DUP1 DUP4 GT PUSH2 0x107C JUMPI DUP3 SWAP1 SUB PUSH1 0x1F AND DUP3 ADD SWAP2 JUMPDEST POP POP POP POP POP DUP2 MSTORE PUSH1 0x20 ADD PUSH1 0x5 DUP3 ADD DUP1 SLOAD PUSH2 0x10B2 SWAP1 PUSH2 0x23D6 JUMP JUMPDEST DUP1 PUSH1 0x1F ADD PUSH1 0x20 DUP1 SWAP2 DIV MUL PUSH1 0x20 ADD PUSH1 0x40 MLOAD SWAP1 DUP2 ADD PUSH1 0x40 MSTORE DUP1 SWAP3 SWAP2 SWAP1 DUP2 DUP2 MSTORE PUSH1 0x20 ADD DUP3 DUP1 SLOAD PUSH2 0x10DE SWAP1 PUSH2 0x23D6 JUMP JUMPDEST DUP1 ISZERO PUSH2 0x112B JUMPI DUP1 PUSH1 0x1F LT PUSH2 0x1100 JUMPI PUSH2 0x100 DUP1 DUP4 SLOAD DIV MUL DUP4 MSTORE SWAP2 PUSH1 0x20 ADD SWAP2 PUSH2 0x112B JUMP JUMPDEST DUP3 ADD SWAP2 SWAP1 PUSH1 0x0 MSTORE PUSH1 0x20 PUSH1 0x0 KECCAK256 SWAP1 JUMPDEST DUP2 SLOAD DUP2 MSTORE SWAP1 PUSH1 0x1 ADD SWAP1 PUSH1 0x20 ADD DUP1 DUP4 GT PUSH2 0x110E JUMPI DUP3 SWAP1 SUB PUSH1 0x1F AND DUP3 ADD SWAP2 JUMPDEST POP POP POP SWAP2 DUP4 MSTORE POP POP PUSH1 0x6 DUP3 ADD SLOAD PUSH1 0x20 DUP3 ADD MSTORE PUSH1 0x7 DUP3 ADD SLOAD PUSH1 0x40 DUP3 ADD MSTORE PUSH1 0x8 DUP3 ADD SLOAD PUSH1 0xFF DUP2 AND ISZERO ISZERO PUSH1 0x60 DUP4 ADD MSTORE PUSH2 0x100 SWAP1 DIV PUSH1 0x1 PUSH1 0x1 PUSH1 0xA0 SHL SUB AND PUSH1 0x80 DUP3 ADD MSTORE PUSH1 0x9 SWAP1 SWAP2 ADD SLOAD PUSH1 0xA0 SWAP1 SWAP2 ADD MSTORE DUP1 MLOAD SWAP1 SWAP2 POP ISZERO DUP1 ISZERO SWAP1 PUSH2 0x118B JUMPI POP DUP1 PUSH2 0x100 ADD MLOAD JUMPDEST DUP1 ISZERO PUSH2 0x119E JUMPI POP DUP1 PUSH1 0xC0 ADD MLOAD DUP2 PUSH1 0xE0 ADD MLOAD LT JUMPDEST SWAP4 SWAP3 POP POP POP JUMP JUMPDEST PUSH1 0x0 PUSH2 0x11AF PUSH2 0x1B4F JUMP JUMPDEST DUP1 SLOAD SWAP1 SWAP2 POP PUSH1 0xFF PUSH1 0x1 PUSH1 0x40 SHL DUP3 DIV AND ISZERO SWAP1 PUSH8 0xFFFFFFFFFFFFFFFF AND PUSH1 0x0 DUP2 ISZERO DUP1 ISZERO PUSH2 0x11D7 JUMPI POP DUP3 JUMPDEST SWAP1 POP PUSH1 0x0 DUP3 PUSH8 0xFFFFFFFFFFFFFFFF AND PUSH1 0x1 EQ DUP1 ISZERO PUSH2 0x11F4 JUMPI POP ADDRESS EXTCODESIZE ISZERO JUMPDEST SWAP1 POP DUP2 ISZERO DUP1 ISZERO PUSH2 0x1202 JUMPI POP DUP1 ISZERO JUMPDEST ISZERO PUSH2 0x1220 JUMPI PUSH1 0x40 MLOAD PUSH4 0xF92EE8A9 PUSH1 0xE0 SHL DUP2 MSTORE PUSH1 0x4 ADD PUSH1 0x40 MLOAD DUP1 SWAP2 SUB SWAP1 REVERT JUMPDEST DUP5 SLOAD PUSH8 0xFFFFFFFFFFFFFFFF NOT AND PUSH1 0x1 OR DUP6 SSTORE DUP4 ISZERO PUSH2 0x124A JUMPI DUP5 SLOAD PUSH1 0xFF PUSH1 0x40 SHL NOT AND PUSH1 0x1 PUSH1 0x40 SHL OR DUP6 SSTORE JUMPDEST PUSH2 0x1252 PUSH2 0x1B78 JUMP JUMPDEST PUSH2 0x125A PUSH2 0x1B78 JUMP JUMPDEST PUSH2 0x1262 PUSH2 0x1B80 JUMP JUMPDEST PUSH2 0x126D PUSH1 0x0 CALLER PUSH2 0x1876 JUMP JUMPDEST POP PUSH1 0x1 PUSH1 0x3 SSTORE DUP4 ISZERO PUSH2 0x12B9 JUMPI DUP5 SLOAD PUSH1 0xFF PUSH1 0x40 SHL NOT AND DUP6 SSTORE PUSH1 0x40 MLOAD PUSH1 0x1 DUP2 MSTORE PUSH32 0xC7F505B2F371AE2175EE4913F4499E1F2633A7B5936321EED1CDAEB6115181D2 SWAP1 PUSH1 0x20 ADD PUSH1 0x40 MLOAD DUP1 SWAP2 SUB SWAP1 LOG1 JUMPDEST POP POP POP POP POP JUMP JUMPDEST PUSH2 0x12C8 PUSH2 0x1B90 JUMP JUMPDEST PUSH1 0x0 DUP2 DUP2 MSTORE PUSH1 0x20 DUP2 SWAP1 MSTORE PUSH1 0x40 DUP2 KECCAK256 DUP1 SLOAD SWAP1 SWAP2 SUB PUSH2 0x12FB JUMPI PUSH1 0x40 MLOAD PUSH4 0x7ECBA329 PUSH1 0xE0 SHL DUP2 MSTORE PUSH1 0x4 DUP2 ADD DUP4 SWAP1 MSTORE PUSH1 0x24 ADD PUSH2 0x54A JUMP JUMPDEST PUSH1 0x8 DUP2 ADD SLOAD PUSH1 0xFF AND PUSH2 0x1323 JUMPI PUSH1 0x40 MLOAD PUSH4 0xAB7E87B PUSH1 0xE0 SHL DUP2 MSTORE PUSH1 0x4 DUP2 ADD DUP4 SWAP1 MSTORE PUSH1 0x24 ADD PUSH2 0x54A JUMP JUMPDEST DUP1 PUSH1 0x6 ADD SLOAD DUP2 PUSH1 0x7 ADD SLOAD LT PUSH2 0x134E JUMPI PUSH1 0x40 MLOAD PUSH4 0xD549D601 PUSH1 0xE0 SHL DUP2 MSTORE PUSH1 0x4 DUP2 ADD DUP4 SWAP1 MSTORE PUSH1 0x24 ADD PUSH2 0x54A JUMP JUMPDEST PUSH1 0x7 DUP2 ADD DUP1 SLOAD SWAP1 PUSH1 0x0 PUSH2 0x1360 DUP4 PUSH2 0x2442 JUMP JUMPDEST SWAP1 SWAP2 SSTORE POP POP CALLER PUSH1 0x0 DUP2 DUP2 MSTORE PUSH1 0x1 PUSH1 0x20 DUP2 DUP2 MSTORE PUSH1 0x40 DUP4 KECCAK256 DUP1 SLOAD SWAP3 DUP4 ADD DUP2 SSTORE DUP4 MSTORE SWAP1 SWAP2 KECCAK256 ADD DUP4 SWAP1 SSTORE PUSH1 0x7 DUP3 ADD SLOAD PUSH1 0x6 DUP4 ADD SLOAD DUP5 SWAP2 PUSH32 0x7B6F41A7EBAE9ED4A1E9A52A100D2846F17583555C38DB2D37CA80229D1A0DF7 SWAP2 PUSH2 0x13BE SWAP2 SWAP1 PUSH2 0x245B JUMP JUMPDEST PUSH1 0x40 MLOAD SWAP1 DUP2 MSTORE PUSH1 0x20 ADD PUSH1 0x40 MLOAD DUP1 SWAP2 SUB SWAP1 LOG3 POP PUSH2 0x13E7 PUSH1 0x1 PUSH1 0x0 DUP1 MLOAD PUSH1 0x20 PUSH2 0x25CE DUP4 CODECOPY DUP2 MLOAD SWAP2 MSTORE SSTORE JUMP JUMPDEST POP JUMP JUMPDEST PUSH1 0x0 SWAP2 DUP3 MSTORE PUSH1 0x0 DUP1 MLOAD PUSH1 0x20 PUSH2 0x25AE DUP4 CODECOPY DUP2 MLOAD SWAP2 MSTORE PUSH1 0x20 SWAP1 DUP2 MSTORE PUSH1 0x40 DUP1 DUP5 KECCAK256 PUSH1 0x1 PUSH1 0x1 PUSH1 0xA0 SHL SUB SWAP4 SWAP1 SWAP4 AND DUP5 MSTORE SWAP2 SWAP1 MSTORE SWAP1 KECCAK256 SLOAD PUSH1 0xFF AND SWAP1 JUMP JUMPDEST PUSH1 0x0 PUSH2 0x142D DUP2 PUSH2 0x186C JUMP JUMPDEST PUSH1 0x0 DUP3 DUP2 MSTORE PUSH1 0x20 DUP2 SWAP1 MSTORE PUSH1 0x40 DUP2 KECCAK256 DUP1 SLOAD SWAP1 SWAP2 SUB PUSH2 0x1460 JUMPI PUSH1 0x40 MLOAD PUSH4 0x7ECBA329 PUSH1 0xE0 SHL DUP2 MSTORE PUSH1 0x4 DUP2 ADD DUP5 SWAP1 MSTORE PUSH1 0x24 ADD PUSH2 0x54A JUMP JUMPDEST PUSH1 0x8 DUP2 ADD DUP1 SLOAD PUSH1 0xFF NOT AND SWAP1 SSTORE PUSH1 0x40 MLOAD CALLER SWAP1 DUP5 SWAP1 PUSH32 0x838C33BF16E205D45E6B726DBA4395A590A91A01794D31A2E638D85627DFBE24 SWAP1 PUSH1 0x0 SWAP1 LOG3 POP POP POP JUMP JUMPDEST PUSH2 0x14A6 PUSH2 0x1B90 JUMP JUMPDEST PUSH1 0x0 PUSH1 0x2 DUP3 PUSH1 0x40 MLOAD PUSH2 0x14B8 SWAP2 SWAP1 PUSH2 0x2410 JUMP JUMPDEST SWAP1 DUP2 MSTORE PUSH1 0x20 ADD PUSH1 0x40 MLOAD DUP1 SWAP2 SUB SWAP1 KECCAK256 SLOAD SWAP1 POP DUP1 PUSH1 0x0 SUB PUSH2 0x14EC JUMPI DUP2 PUSH1 0x40 MLOAD PUSH4 0x8F7B7905 PUSH1 0xE0 SHL DUP2 MSTORE PUSH1 0x4 ADD PUSH2 0x54A SWAP2 SWAP1 PUSH2 0x229A JUMP JUMPDEST PUSH1 0x0 DUP2 DUP2 MSTORE PUSH1 0x20 DUP2 SWAP1 MSTORE PUSH1 0x40 DUP2 KECCAK256 DUP1 SLOAD SWAP1 SWAP2 SUB PUSH2 0x151F JUMPI PUSH1 0x40 MLOAD PUSH4 0x7ECBA329 PUSH1 0xE0 SHL DUP2 MSTORE PUSH1 0x4 DUP2 ADD DUP4 SWAP1 MSTORE PUSH1 0x24 ADD PUSH2 0x54A JUMP JUMPDEST PUSH1 0x8 DUP2 ADD SLOAD PUSH1 0xFF AND PUSH2 0x1547 JUMPI PUSH1 0x40 MLOAD PUSH4 0xAB7E87B PUSH1 0xE0 SHL DUP2 MSTORE PUSH1 0x4 DUP2 ADD DUP4 SWAP1 MSTORE PUSH1 0x24 ADD PUSH2 0x54A JUMP JUMPDEST DUP1 PUSH1 0x6 ADD SLOAD DUP2 PUSH1 0x7 ADD SLOAD LT PUSH2 0x1572 JUMPI PUSH1 0x40 MLOAD PUSH4 0xD549D601 PUSH1 0xE0 SHL DUP2 MSTORE PUSH1 0x4 DUP2 ADD DUP4 SWAP1 MSTORE PUSH1 0x24 ADD PUSH2 0x54A JUMP JUMPDEST PUSH1 0x7 DUP2 ADD DUP1 SLOAD SWAP1 PUSH1 0x0 PUSH2 0x1584 DUP4 PUSH2 0x2442 JUMP JUMPDEST SWAP1 SWAP2 SSTORE POP POP CALLER PUSH1 0x0 DUP2 DUP2 MSTORE PUSH1 0x1 PUSH1 0x20 DUP2 DUP2 MSTORE PUSH1 0x40 DUP4 KECCAK256 DUP1 SLOAD SWAP3 DUP4 ADD DUP2 SSTORE DUP4 MSTORE SWAP1 SWAP2 KECCAK256 ADD DUP4 SWAP1 SSTORE PUSH1 0x7 DUP3 ADD SLOAD PUSH1 0x6 DUP4 ADD SLOAD DUP5 SWAP2 PUSH32 0x7B6F41A7EBAE9ED4A1E9A52A100D2846F17583555C38DB2D37CA80229D1A0DF7 SWAP2 PUSH2 0x15E2 SWAP2 SWAP1 PUSH2 0x245B JUMP JUMPDEST PUSH1 0x40 MLOAD SWAP1 DUP2 MSTORE PUSH1 0x20 ADD PUSH1 0x40 MLOAD DUP1 SWAP2 SUB SWAP1 LOG3 POP POP PUSH2 0x13E7 PUSH1 0x1 PUSH1 0x0 DUP1 MLOAD PUSH1 0x20 PUSH2 0x25CE DUP4 CODECOPY DUP2 MLOAD SWAP2 MSTORE SSTORE JUMP JUMPDEST PUSH1 0x0 DUP1 PUSH2 0x1618 DUP2 PUSH2 0x186C JUMP JUMPDEST PUSH1 0x3 DUP1 SLOAD PUSH1 0x0 SWAP2 DUP3 PUSH2 0x1629 DUP4 PUSH2 0x2442 JUMP JUMPDEST SWAP1 SWAP2 SSTORE POP PUSH1 0x40 DUP1 MLOAD PUSH2 0x160 DUP2 ADD DUP3 MSTORE DUP3 DUP2 MSTORE PUSH1 0x20 DUP1 DUP3 ADD DUP15 DUP2 MSTORE DUP3 DUP5 ADD DUP15 SWAP1 MSTORE PUSH1 0x60 DUP4 ADD DUP14 SWAP1 MSTORE PUSH1 0x80 DUP4 ADD DUP13 SWAP1 MSTORE PUSH1 0xA0 DUP4 ADD DUP12 SWAP1 MSTORE PUSH1 0xC0 DUP4 ADD DUP11 SWAP1 MSTORE PUSH1 0x0 PUSH1 0xE0 DUP5 ADD DUP2 SWAP1 MSTORE PUSH1 0x1 PUSH2 0x100 DUP6 ADD DUP2 SWAP1 MSTORE CALLER PUSH2 0x120 DUP7 ADD MSTORE TIMESTAMP PUSH2 0x140 DUP7 ADD MSTORE DUP7 DUP3 MSTORE SWAP3 DUP2 SWAP1 MSTORE SWAP4 SWAP1 SWAP4 KECCAK256 DUP3 MLOAD DUP2 SSTORE SWAP3 MLOAD SWAP4 SWAP5 POP SWAP1 SWAP3 SWAP1 DUP3 ADD SWAP1 PUSH2 0x16AA SWAP1 DUP3 PUSH2 0x24B5 JUMP JUMPDEST POP PUSH1 0x40 DUP3 ADD MLOAD PUSH1 0x2 DUP3 ADD SWAP1 PUSH2 0x16BF SWAP1 DUP3 PUSH2 0x24B5 JUMP JUMPDEST POP PUSH1 0x60 DUP3 ADD MLOAD PUSH1 0x3 DUP3 ADD SSTORE PUSH1 0x80 DUP3 ADD MLOAD PUSH1 0x4 DUP3 ADD SWAP1 PUSH2 0x16DE SWAP1 DUP3 PUSH2 0x24B5 JUMP JUMPDEST POP PUSH1 0xA0 DUP3 ADD MLOAD PUSH1 0x5 DUP3 ADD SWAP1 PUSH2 0x16F3 SWAP1 DUP3 PUSH2 0x24B5 JUMP JUMPDEST POP PUSH1 0xC0 DUP3 ADD MLOAD PUSH1 0x6 DUP3 ADD SSTORE PUSH1 0xE0 DUP3 ADD MLOAD PUSH1 0x7 DUP3 ADD SSTORE PUSH2 0x100 DUP1 DUP4 ADD MLOAD PUSH1 0x8 DUP4 ADD DUP1 SLOAD PUSH2 0x120 DUP7 ADD MLOAD PUSH1 0x1 PUSH1 0x1 PUSH1 0xA8 SHL SUB NOT SWAP1 SWAP2 AND SWAP3 ISZERO ISZERO PUSH2 0x100 PUSH1 0x1 PUSH1 0xA8 SHL SUB NOT AND SWAP3 SWAP1 SWAP3 OR PUSH1 0x1 PUSH1 0x1 PUSH1 0xA0 SHL SUB SWAP1 SWAP3 AND SWAP1 SWAP3 MUL OR SWAP1 SSTORE PUSH2 0x140 SWAP1 SWAP2 ADD MLOAD PUSH1 0x9 SWAP1 SWAP2 ADD SSTORE DUP4 MLOAD ISZERO PUSH2 0x17BA JUMPI DUP1 PUSH1 0x2 DUP6 PUSH1 0x40 MLOAD PUSH2 0x176F SWAP2 SWAP1 PUSH2 0x2410 JUMP JUMPDEST SWAP1 DUP2 MSTORE PUSH1 0x20 ADD PUSH1 0x40 MLOAD DUP1 SWAP2 SUB SWAP1 KECCAK256 DUP2 SWAP1 SSTORE POP DUP1 PUSH32 0x5180BC518C3D0A2DB96A7A63B3818ADD6332F47E06E42E9059FC2B508727EEDE DUP6 PUSH1 0x40 MLOAD PUSH2 0x17B1 SWAP2 SWAP1 PUSH2 0x229A JUMP JUMPDEST PUSH1 0x40 MLOAD DUP1 SWAP2 SUB SWAP1 LOG2 JUMPDEST CALLER PUSH1 0x1 PUSH1 0x1 PUSH1 0xA0 SHL SUB AND DUP2 PUSH32 0xCF95A09019E2F49EBBB3D85EFD07C0ED41C2CB90B17ACF90618A6ACDAE6F0E32 DUP13 PUSH1 0x40 MLOAD PUSH2 0x17F4 SWAP2 SWAP1 PUSH2 0x229A JUMP JUMPDEST PUSH1 0x40 MLOAD DUP1 SWAP2 SUB SWAP1 LOG3 SWAP10 SWAP9 POP POP POP POP POP POP POP POP POP JUMP JUMPDEST PUSH2 0x1812 DUP3 PUSH2 0x80F JUMP JUMPDEST PUSH2 0x181B DUP2 PUSH2 0x186C JUMP JUMPDEST PUSH2 0xBC4 DUP4 DUP4 PUSH2 0x191B JUMP JUMPDEST PUSH1 0x0 PUSH1 0x1 PUSH1 0x3 SLOAD PUSH2 0x1836 SWAP2 SWAP1 PUSH2 0x245B JUMP JUMPDEST SWAP1 POP SWAP1 JUMP JUMPDEST PUSH1 0x1 PUSH1 0x20 MSTORE DUP2 PUSH1 0x0 MSTORE PUSH1 0x40 PUSH1 0x0 KECCAK256 DUP2 DUP2 SLOAD DUP2 LT PUSH2 0x1857 JUMPI PUSH1 0x0 DUP1 REVERT JUMPDEST SWAP1 PUSH1 0x0 MSTORE PUSH1 0x20 PUSH1 0x0 KECCAK256 ADD PUSH1 0x0 SWAP2 POP SWAP2 POP POP SLOAD DUP2 JUMP JUMPDEST PUSH2 0x13E7 DUP2 CALLER PUSH2 0x1BDC JUMP JUMPDEST PUSH1 0x0 PUSH1 0x0 DUP1 MLOAD PUSH1 0x20 PUSH2 0x25AE DUP4 CODECOPY DUP2 MLOAD SWAP2 MSTORE PUSH2 0x1891 DUP5 DUP5 PUSH2 0x13EA JUMP JUMPDEST PUSH2 0x1911 JUMPI PUSH1 0x0 DUP5 DUP2 MSTORE PUSH1 0x20 DUP3 DUP2 MSTORE PUSH1 0x40 DUP1 DUP4 KECCAK256 PUSH1 0x1 PUSH1 0x1 PUSH1 0xA0 SHL SUB DUP8 AND DUP5 MSTORE SWAP1 SWAP2 MSTORE SWAP1 KECCAK256 DUP1 SLOAD PUSH1 0xFF NOT AND PUSH1 0x1 OR SWAP1 SSTORE PUSH2 0x18C7 CALLER SWAP1 JUMP JUMPDEST PUSH1 0x1 PUSH1 0x1 PUSH1 0xA0 SHL SUB AND DUP4 PUSH1 0x1 PUSH1 0x1 PUSH1 0xA0 SHL SUB AND DUP6 PUSH32 0x2F8788117E7EFF1D82E926EC794901D17C78024A50270940304540A733656F0D PUSH1 0x40 MLOAD PUSH1 0x40 MLOAD DUP1 SWAP2 SUB SWAP1 LOG4 PUSH1 0x1 SWAP2 POP POP PUSH2 0x50F JUMP JUMPDEST PUSH1 0x0 SWAP2 POP POP PUSH2 0x50F JUMP JUMPDEST PUSH1 0x0 PUSH1 0x0 DUP1 MLOAD PUSH1 0x20 PUSH2 0x25AE DUP4 CODECOPY DUP2 MLOAD SWAP2 MSTORE PUSH2 0x1936 DUP5 DUP5 PUSH2 0x13EA JUMP JUMPDEST ISZERO PUSH2 0x1911 JUMPI PUSH1 0x0 DUP5 DUP2 MSTORE PUSH1 0x20 DUP3 DUP2 MSTORE PUSH1 0x40 DUP1 DUP4 KECCAK256 PUSH1 0x1 PUSH1 0x1 PUSH1 0xA0 SHL SUB DUP8 AND DUP1 DUP6 MSTORE SWAP3 MSTORE DUP1 DUP4 KECCAK256 DUP1 SLOAD PUSH1 0xFF NOT AND SWAP1 SSTORE MLOAD CALLER SWAP3 DUP8 SWAP2 PUSH32 0xF6391F5C32D9C69D2A47EA670B442974B53935D1EDC7FD64EB21E047A839171B SWAP2 SWAP1 LOG4 PUSH1 0x1 SWAP2 POP POP PUSH2 0x50F JUMP JUMPDEST ADDRESS PUSH1 0x1 PUSH1 0x1 PUSH1 0xA0 SHL SUB PUSH32 0x0 AND EQ DUP1 PUSH2 0x1A1E JUMPI POP PUSH32 0x0 PUSH1 0x1 PUSH1 0x1 PUSH1 0xA0 SHL SUB AND PUSH2 0x1A12 PUSH1 0x0 DUP1 MLOAD PUSH1 0x20 PUSH2 0x258E DUP4 CODECOPY DUP2 MLOAD SWAP2 MSTORE SLOAD PUSH1 0x1 PUSH1 0x1 PUSH1 0xA0 SHL SUB AND SWAP1 JUMP JUMPDEST PUSH1 0x1 PUSH1 0x1 PUSH1 0xA0 SHL SUB AND EQ ISZERO JUMPDEST ISZERO PUSH2 0x1A3C JUMPI PUSH1 0x40 MLOAD PUSH4 0x703E46DD PUSH1 0xE1 SHL DUP2 MSTORE PUSH1 0x4 ADD PUSH1 0x40 MLOAD DUP1 SWAP2 SUB SWAP1 REVERT JUMPDEST JUMP JUMPDEST PUSH1 0x0 PUSH2 0xE9F DUP2 PUSH2 0x186C JUMP JUMPDEST DUP2 PUSH1 0x1 PUSH1 0x1 PUSH1 0xA0 SHL SUB AND PUSH4 0x52D1902D PUSH1 0x40 MLOAD DUP2 PUSH4 0xFFFFFFFF AND PUSH1 0xE0 SHL DUP2 MSTORE PUSH1 0x4 ADD PUSH1 0x20 PUSH1 0x40 MLOAD DUP1 DUP4 SUB DUP2 DUP7 GAS STATICCALL SWAP3 POP POP POP DUP1 ISZERO PUSH2 0x1AA3 JUMPI POP PUSH1 0x40 DUP1 MLOAD PUSH1 0x1F RETURNDATASIZE SWAP1 DUP2 ADD PUSH1 0x1F NOT AND DUP3 ADD SWAP1 SWAP3 MSTORE PUSH2 0x1AA0 SWAP2 DUP2 ADD SWAP1 PUSH2 0x2574 JUMP JUMPDEST PUSH1 0x1 JUMPDEST PUSH2 0x1ACB JUMPI PUSH1 0x40 MLOAD PUSH4 0x4C9C8CE3 PUSH1 0xE0 SHL DUP2 MSTORE PUSH1 0x1 PUSH1 0x1 PUSH1 0xA0 SHL SUB DUP4 AND PUSH1 0x4 DUP3 ADD MSTORE PUSH1 0x24 ADD PUSH2 0x54A JUMP JUMPDEST PUSH1 0x0 DUP1 MLOAD PUSH1 0x20 PUSH2 0x258E DUP4 CODECOPY DUP2 MLOAD SWAP2 MSTORE DUP2 EQ PUSH2 0x1AFC JUMPI PUSH1 0x40 MLOAD PUSH4 0x2A875269 PUSH1 0xE2 SHL DUP2 MSTORE PUSH1 0x4 DUP2 ADD DUP3 SWAP1 MSTORE PUSH1 0x24 ADD PUSH2 0x54A JUMP JUMPDEST PUSH2 0xBFD DUP4 DUP4 PUSH2 0x1C15 JUMP JUMPDEST ADDRESS PUSH1 0x1 PUSH1 0x1 PUSH1 0xA0 SHL SUB PUSH32 0x0 AND EQ PUSH2 0x1A3C JUMPI PUSH1 0x40 MLOAD PUSH4 0x703E46DD PUSH1 0xE1 SHL DUP2 MSTORE PUSH1 0x4 ADD PUSH1 0x40 MLOAD DUP1 SWAP2 SUB SWAP1 REVERT JUMPDEST PUSH1 0x0 DUP1 PUSH32 0xF0C57E16840DF040F15088DC2F81FE391C3923BEC73E23A9662EFC9C229C6A00 PUSH2 0x50F JUMP JUMPDEST PUSH2 0x1A3C PUSH2 0x1C6B JUMP JUMPDEST PUSH2 0x1B88 PUSH2 0x1C6B JUMP JUMPDEST PUSH2 0x1A3C PUSH2 0x1C90 JUMP JUMPDEST PUSH1 0x0 DUP1 MLOAD PUSH1 0x20 PUSH2 0x25CE DUP4 CODECOPY DUP2 MLOAD SWAP2 MSTORE DUP1 SLOAD PUSH1 0x1 NOT ADD PUSH2 0x1BC2 JUMPI PUSH1 0x40 MLOAD PUSH4 0x3EE5AEB5 PUSH1 0xE0 SHL DUP2 MSTORE PUSH1 0x4 ADD PUSH1 0x40 MLOAD DUP1 SWAP2 SUB SWAP1 REVERT JUMPDEST PUSH1 0x2 SWAP1 SSTORE JUMP JUMPDEST PUSH1 0x1 PUSH1 0x0 DUP1 MLOAD PUSH1 0x20 PUSH2 0x25CE DUP4 CODECOPY DUP2 MLOAD SWAP2 MSTORE SSTORE JUMP JUMPDEST PUSH2 0x1BE6 DUP3 DUP3 PUSH2 0x13EA JUMP JUMPDEST PUSH2 0xE9F JUMPI PUSH1 0x40 MLOAD PUSH4 0xE2517D3F PUSH1 0xE0 SHL DUP2 MSTORE PUSH1 0x1 PUSH1 0x1 PUSH1 0xA0 SHL SUB DUP3 AND PUSH1 0x4 DUP3 ADD MSTORE PUSH1 0x24 DUP2 ADD DUP4 SWAP1 MSTORE PUSH1 0x44 ADD PUSH2 0x54A JUMP JUMPDEST PUSH2 0x1C1E DUP3 PUSH2 0x1C98 JUMP JUMPDEST PUSH1 0x40 MLOAD PUSH1 0x1 PUSH1 0x1 PUSH1 0xA0 SHL SUB DUP4 AND SWAP1 PUSH32 0xBC7CD75A20EE27FD9ADEBAB32041F755214DBC6BFFA90CC0225B39DA2E5C2D3B SWAP1 PUSH1 0x0 SWAP1 LOG2 DUP1 MLOAD ISZERO PUSH2 0x1C63 JUMPI PUSH2 0xBFD DUP3 DUP3 PUSH2 0x1CFD JUMP JUMPDEST PUSH2 0xE9F PUSH2 0x1D73 JUMP JUMPDEST PUSH2 0x1C73 PUSH2 0x1D92 JUMP JUMPDEST PUSH2 0x1A3C JUMPI PUSH1 0x40 MLOAD PUSH4 0x1AFCD79F PUSH1 0xE3 SHL DUP2 MSTORE PUSH1 0x4 ADD PUSH1 0x40 MLOAD DUP1 SWAP2 SUB SWAP1 REVERT JUMPDEST PUSH2 0x1BC8 PUSH2 0x1C6B JUMP JUMPDEST DUP1 PUSH1 0x1 PUSH1 0x1 PUSH1 0xA0 SHL SUB AND EXTCODESIZE PUSH1 0x0 SUB PUSH2 0x1CCE JUMPI PUSH1 0x40 MLOAD PUSH4 0x4C9C8CE3 PUSH1 0xE0 SHL DUP2 MSTORE PUSH1 0x1 PUSH1 0x1 PUSH1 0xA0 SHL SUB DUP3 AND PUSH1 0x4 DUP3 ADD MSTORE PUSH1 0x24 ADD PUSH2 0x54A JUMP JUMPDEST PUSH1 0x0 DUP1 MLOAD PUSH1 0x20 PUSH2 0x258E DUP4 CODECOPY DUP2 MLOAD SWAP2 MSTORE DUP1 SLOAD PUSH1 0x1 PUSH1 0x1 PUSH1 0xA0 SHL SUB NOT AND PUSH1 0x1 PUSH1 0x1 PUSH1 0xA0 SHL SUB SWAP3 SWAP1 SWAP3 AND SWAP2 SWAP1 SWAP2 OR SWAP1 SSTORE JUMP JUMPDEST PUSH1 0x60 PUSH1 0x0 DUP1 DUP5 PUSH1 0x1 PUSH1 0x1 PUSH1 0xA0 SHL SUB AND DUP5 PUSH1 0x40 MLOAD PUSH2 0x1D1A SWAP2 SWAP1 PUSH2 0x2410 JUMP JUMPDEST PUSH1 0x0 PUSH1 0x40 MLOAD DUP1 DUP4 SUB DUP2 DUP6 GAS DELEGATECALL SWAP2 POP POP RETURNDATASIZE DUP1 PUSH1 0x0 DUP2 EQ PUSH2 0x1D55 JUMPI PUSH1 0x40 MLOAD SWAP2 POP PUSH1 0x1F NOT PUSH1 0x3F RETURNDATASIZE ADD AND DUP3 ADD PUSH1 0x40 MSTORE RETURNDATASIZE DUP3 MSTORE RETURNDATASIZE PUSH1 0x0 PUSH1 0x20 DUP5 ADD RETURNDATACOPY PUSH2 0x1D5A JUMP JUMPDEST PUSH1 0x60 SWAP2 POP JUMPDEST POP SWAP2 POP SWAP2 POP PUSH2 0x1D6A DUP6 DUP4 DUP4 PUSH2 0x1DAC JUMP JUMPDEST SWAP6 SWAP5 POP POP POP POP POP JUMP JUMPDEST CALLVALUE ISZERO PUSH2 0x1A3C JUMPI PUSH1 0x40 MLOAD PUSH4 0xB398979F PUSH1 0xE0 SHL DUP2 MSTORE PUSH1 0x4 ADD PUSH1 0x40 MLOAD DUP1 SWAP2 SUB SWAP1 REVERT JUMPDEST PUSH1 0x0 PUSH2 0x1D9C PUSH2 0x1B4F JUMP JUMPDEST SLOAD PUSH1 0x1 PUSH1 0x40 SHL SWAP1 DIV PUSH1 0xFF AND SWAP2 SWAP1 POP JUMP JUMPDEST PUSH1 0x60 DUP3 PUSH2 0x1DC1 JUMPI PUSH2 0x1DBC DUP3 PUSH2 0x1E08 JUMP JUMPDEST PUSH2 0x119E JUMP JUMPDEST DUP2 MLOAD ISZERO DUP1 ISZERO PUSH2 0x1DD8 JUMPI POP PUSH1 0x1 PUSH1 0x1 PUSH1 0xA0 SHL SUB DUP5 AND EXTCODESIZE ISZERO JUMPDEST ISZERO PUSH2 0x1E01 JUMPI PUSH1 0x40 MLOAD PUSH4 0x9996B315 PUSH1 0xE0 SHL DUP2 MSTORE PUSH1 0x1 PUSH1 0x1 PUSH1 0xA0 SHL SUB DUP6 AND PUSH1 0x4 DUP3 ADD MSTORE PUSH1 0x24 ADD PUSH2 0x54A JUMP JUMPDEST POP SWAP3 SWAP2 POP POP JUMP JUMPDEST DUP1 MLOAD ISZERO PUSH2 0x1E18 JUMPI DUP1 MLOAD DUP1 DUP3 PUSH1 0x20 ADD REVERT JUMPDEST PUSH1 0x40 MLOAD PUSH4 0xD6BDA275 PUSH1 0xE0 SHL DUP2 MSTORE PUSH1 0x4 ADD PUSH1 0x40 MLOAD DUP1 SWAP2 SUB SWAP1 REVERT JUMPDEST PUSH1 0x40 MLOAD DUP1 PUSH2 0x160 ADD PUSH1 0x40 MSTORE DUP1 PUSH1 0x0 DUP2 MSTORE PUSH1 0x20 ADD PUSH1 0x60 DUP2 MSTORE PUSH1 0x20 ADD PUSH1 0x60 DUP2 MSTORE PUSH1 0x20 ADD PUSH1 0x0 DUP2 MSTORE PUSH1 0x20 ADD PUSH1 0x60 DUP2 MSTORE PUSH1 0x20 ADD PUSH1 0x60 DUP2 MSTORE PUSH1 0x20 ADD PUSH1 0x0 DUP2 MSTORE PUSH1 0x20 ADD PUSH1 0x0 DUP2 MSTORE PUSH1 0x20 ADD PUSH1 0x0 ISZERO ISZERO DUP2 MSTORE PUSH1 0x20 ADD PUSH1 0x0 PUSH1 0x1 PUSH1 0x1 PUSH1 0xA0 SHL SUB AND DUP2 MSTORE PUSH1 0x20 ADD PUSH1 0x0 DUP2 MSTORE POP SWAP1 JUMP JUMPDEST PUSH1 0x0 PUSH1 0x20 DUP3 DUP5 SUB SLT ISZERO PUSH2 0x1EA8 JUMPI PUSH1 0x0 DUP1 REVERT JUMPDEST DUP2 CALLDATALOAD PUSH1 0x1 PUSH1 0x1 PUSH1 0xE0 SHL SUB NOT DUP2 AND DUP2 EQ PUSH2 0x119E JUMPI PUSH1 0x0 DUP1 REVERT JUMPDEST PUSH1 0x0 PUSH1 0x20 DUP3 DUP5 SUB SLT ISZERO PUSH2 0x1ED2 JUMPI PUSH1 0x0 DUP1 REVERT JUMPDEST POP CALLDATALOAD SWAP2 SWAP1 POP JUMP JUMPDEST PUSH1 0x0 JUMPDEST DUP4 DUP2 LT ISZERO PUSH2 0x1EF4 JUMPI DUP2 DUP2 ADD MLOAD DUP4 DUP3 ADD MSTORE PUSH1 0x20 ADD PUSH2 0x1EDC JUMP JUMPDEST POP POP PUSH1 0x0 SWAP2 ADD MSTORE JUMP JUMPDEST PUSH1 0x0 DUP2 MLOAD DUP1 DUP5 MSTORE PUSH2 0x1F15 DUP2 PUSH1 0x20 DUP7 ADD PUSH1 0x20 DUP7 ADD PUSH2 0x1ED9 JUMP JUMPDEST PUSH1 0x1F ADD PUSH1 0x1F NOT AND SWAP3 SWAP1 SWAP3 ADD PUSH1 0x20 ADD SWAP3 SWAP2 POP POP JUMP JUMPDEST PUSH1 0x20 DUP2 MSTORE DUP2 MLOAD PUSH1 0x20 DUP3 ADD MSTORE PUSH1 0x0 PUSH1 0x20 DUP4 ADD MLOAD PUSH2 0x160 PUSH1 0x40 DUP5 ADD MSTORE PUSH2 0x1F51 PUSH2 0x180 DUP5 ADD DUP3 PUSH2 0x1EFD JUMP JUMPDEST SWAP1 POP PUSH1 0x40 DUP5 ADD MLOAD PUSH1 0x1F NOT DUP5 DUP4 SUB ADD PUSH1 0x60 DUP6 ADD MSTORE PUSH2 0x1F6E DUP3 DUP3 PUSH2 0x1EFD JUMP JUMPDEST SWAP2 POP POP PUSH1 0x60 DUP5 ADD MLOAD PUSH1 0x80 DUP5 ADD MSTORE PUSH1 0x80 DUP5 ADD MLOAD PUSH1 0x1F NOT DUP5 DUP4 SUB ADD PUSH1 0xA0 DUP6 ADD MSTORE PUSH2 0x1F96 DUP3 DUP3 PUSH2 0x1EFD JUMP JUMPDEST SWAP2 POP POP PUSH1 0xA0 DUP5 ADD MLOAD PUSH1 0x1F NOT DUP5 DUP4 SUB ADD PUSH1 0xC0 DUP6 ADD MSTORE PUSH2 0x1FB4 DUP3 DUP3 PUSH2 0x1EFD JUMP JUMPDEST SWAP2 POP POP PUSH1 0xC0 DUP5 ADD MLOAD PUSH1 0xE0 DUP5 ADD MSTORE PUSH1 0xE0 DUP5 ADD MLOAD PUSH2 0x100 DUP5 ADD MSTORE PUSH2 0x100 DUP5 ADD MLOAD PUSH2 0x1FE1 PUSH2 0x120 DUP6 ADD DUP3 ISZERO ISZERO SWAP1 MSTORE JUMP JUMPDEST POP PUSH2 0x120 DUP5 ADD MLOAD PUSH1 0x1 PUSH1 0x1 PUSH1 0xA0 SHL SUB DUP2 AND PUSH2 0x140 DUP6 ADD MSTORE POP PUSH2 0x140 DUP5 ADD MLOAD PUSH2 0x160 DUP5 ADD MSTORE DUP1 SWAP2 POP POP SWAP3 SWAP2 POP POP JUMP JUMPDEST PUSH4 0x4E487B71 PUSH1 0xE0 SHL PUSH1 0x0 MSTORE PUSH1 0x41 PUSH1 0x4 MSTORE PUSH1 0x24 PUSH1 0x0 REVERT JUMPDEST PUSH1 0x0 DUP1 PUSH8 0xFFFFFFFFFFFFFFFF DUP5 GT ISZERO PUSH2 0x2040 JUMPI PUSH2 0x2040 PUSH2 0x200F JUMP JUMPDEST POP PUSH1 0x40 MLOAD PUSH1 0x1F NOT PUSH1 0x1F DUP6 ADD DUP2 AND PUSH1 0x3F ADD AND DUP2 ADD DUP2 DUP2 LT PUSH8 0xFFFFFFFFFFFFFFFF DUP3 GT OR ISZERO PUSH2 0x206F JUMPI PUSH2 0x206F PUSH2 0x200F JUMP JUMPDEST PUSH1 0x40 MSTORE DUP4 DUP2 MSTORE SWAP1 POP DUP1 DUP3 DUP5 ADD DUP6 LT ISZERO PUSH2 0x2087 JUMPI PUSH1 0x0 DUP1 REVERT JUMPDEST DUP4 DUP4 PUSH1 0x20 DUP4 ADD CALLDATACOPY PUSH1 0x0 PUSH1 0x20 DUP6 DUP4 ADD ADD MSTORE POP SWAP4 SWAP3 POP POP POP JUMP JUMPDEST PUSH1 0x0 DUP3 PUSH1 0x1F DUP4 ADD SLT PUSH2 0x20B0 JUMPI PUSH1 0x0 DUP1 REVERT JUMPDEST PUSH2 0x119E DUP4 DUP4 CALLDATALOAD PUSH1 0x20 DUP6 ADD PUSH2 0x2025 JUMP JUMPDEST PUSH1 0x0 PUSH1 0x20 DUP3 DUP5 SUB SLT ISZERO PUSH2 0x20D1 JUMPI PUSH1 0x0 DUP1 REVERT JUMPDEST DUP2 CALLDATALOAD PUSH8 0xFFFFFFFFFFFFFFFF DUP2 GT ISZERO PUSH2 0x20E8 JUMPI PUSH1 0x0 DUP1 REVERT JUMPDEST PUSH2 0x20F4 DUP5 DUP3 DUP6 ADD PUSH2 0x209F JUMP JUMPDEST SWAP5 SWAP4 POP POP POP POP JUMP JUMPDEST DUP1 CALLDATALOAD PUSH1 0x1 PUSH1 0x1 PUSH1 0xA0 SHL SUB DUP2 AND DUP2 EQ PUSH2 0x2113 JUMPI PUSH1 0x0 DUP1 REVERT JUMPDEST SWAP2 SWAP1 POP JUMP JUMPDEST PUSH1 0x0 PUSH1 0x20 DUP3 DUP5 SUB SLT ISZERO PUSH2 0x212A JUMPI PUSH1 0x0 DUP1 REVERT JUMPDEST PUSH2 0x119E DUP3 PUSH2 0x20FC JUMP JUMPDEST PUSH1 0x20 DUP1 DUP3 MSTORE DUP3 MLOAD DUP3 DUP3 ADD DUP2 SWAP1 MSTORE PUSH1 0x0 SWAP2 DUP5 ADD SWAP1 PUSH1 0x40 DUP5 ADD SWAP1 DUP4 JUMPDEST DUP2 DUP2 LT ISZERO PUSH2 0x216B JUMPI DUP4 MLOAD DUP4 MSTORE PUSH1 0x20 SWAP4 DUP5 ADD SWAP4 SWAP1 SWAP3 ADD SWAP2 PUSH1 0x1 ADD PUSH2 0x214D JUMP JUMPDEST POP SWAP1 SWAP6 SWAP5 POP POP POP POP POP JUMP JUMPDEST PUSH1 0x0 DUP1 PUSH1 0x40 DUP4 DUP6 SUB SLT ISZERO PUSH2 0x2189 JUMPI PUSH1 0x0 DUP1 REVERT JUMPDEST DUP3 CALLDATALOAD SWAP2 POP PUSH2 0x2199 PUSH1 0x20 DUP5 ADD PUSH2 0x20FC JUMP JUMPDEST SWAP1 POP SWAP3 POP SWAP3 SWAP1 POP JUMP JUMPDEST DUP12 DUP2 MSTORE PUSH2 0x160 PUSH1 0x20 DUP3 ADD MSTORE PUSH1 0x0 PUSH2 0x21BD PUSH2 0x160 DUP4 ADD DUP14 PUSH2 0x1EFD JUMP JUMPDEST DUP3 DUP2 SUB PUSH1 0x40 DUP5 ADD MSTORE PUSH2 0x21CF DUP2 DUP14 PUSH2 0x1EFD JUMP JUMPDEST SWAP1 POP DUP11 PUSH1 0x60 DUP5 ADD MSTORE DUP3 DUP2 SUB PUSH1 0x80 DUP5 ADD MSTORE PUSH2 0x21E9 DUP2 DUP12 PUSH2 0x1EFD JUMP JUMPDEST SWAP1 POP DUP3 DUP2 SUB PUSH1 0xA0 DUP5 ADD MSTORE PUSH2 0x21FD DUP2 DUP11 PUSH2 0x1EFD JUMP JUMPDEST PUSH1 0xC0 DUP5 ADD SWAP9 SWAP1 SWAP9 MSTORE POP POP PUSH1 0xE0 DUP2 ADD SWAP5 SWAP1 SWAP5 MSTORE SWAP2 ISZERO ISZERO PUSH2 0x100 DUP5 ADD MSTORE PUSH1 0x1 PUSH1 0x1 PUSH1 0xA0 SHL SUB AND PUSH2 0x120 DUP4 ADD MSTORE PUSH2 0x140 SWAP1 SWAP2 ADD MSTORE SWAP7 SWAP6 POP POP POP POP POP POP JUMP JUMPDEST PUSH1 0x0 DUP1 PUSH1 0x40 DUP4 DUP6 SUB SLT ISZERO PUSH2 0x224B JUMPI PUSH1 0x0 DUP1 REVERT JUMPDEST PUSH2 0x2254 DUP4 PUSH2 0x20FC JUMP JUMPDEST SWAP2 POP PUSH1 0x20 DUP4 ADD CALLDATALOAD PUSH8 0xFFFFFFFFFFFFFFFF DUP2 GT ISZERO PUSH2 0x2270 JUMPI PUSH1 0x0 DUP1 REVERT JUMPDEST DUP4 ADD PUSH1 0x1F DUP2 ADD DUP6 SGT PUSH2 0x2281 JUMPI PUSH1 0x0 DUP1 REVERT JUMPDEST PUSH2 0x2290 DUP6 DUP3 CALLDATALOAD PUSH1 0x20 DUP5 ADD PUSH2 0x2025 JUMP JUMPDEST SWAP2 POP POP SWAP3 POP SWAP3 SWAP1 POP JUMP JUMPDEST PUSH1 0x20 DUP2 MSTORE PUSH1 0x0 PUSH2 0x119E PUSH1 0x20 DUP4 ADD DUP5 PUSH2 0x1EFD JUMP JUMPDEST PUSH1 0x0 DUP1 PUSH1 0x0 DUP1 PUSH1 0x0 DUP1 PUSH1 0x0 PUSH1 0xE0 DUP9 DUP11 SUB SLT ISZERO PUSH2 0x22C8 JUMPI PUSH1 0x0 DUP1 REVERT JUMPDEST DUP8 CALLDATALOAD PUSH8 0xFFFFFFFFFFFFFFFF DUP2 GT ISZERO PUSH2 0x22DF JUMPI PUSH1 0x0 DUP1 REVERT JUMPDEST PUSH2 0x22EB DUP11 DUP3 DUP12 ADD PUSH2 0x209F JUMP JUMPDEST SWAP8 POP POP PUSH1 0x20 DUP9 ADD CALLDATALOAD PUSH8 0xFFFFFFFFFFFFFFFF DUP2 GT ISZERO PUSH2 0x2308 JUMPI PUSH1 0x0 DUP1 REVERT JUMPDEST PUSH2 0x2314 DUP11 DUP3 DUP12 ADD PUSH2 0x209F JUMP JUMPDEST SWAP7 POP POP PUSH1 0x40 DUP9 ADD CALLDATALOAD SWAP5 POP PUSH1 0x60 DUP9 ADD CALLDATALOAD PUSH8 0xFFFFFFFFFFFFFFFF DUP2 GT ISZERO PUSH2 0x2338 JUMPI PUSH1 0x0 DUP1 REVERT JUMPDEST PUSH2 0x2344 DUP11 DUP3 DUP12 ADD PUSH2 0x209F JUMP JUMPDEST SWAP5 POP POP PUSH1 0x80 DUP9 ADD CALLDATALOAD PUSH8 0xFFFFFFFFFFFFFFFF DUP2 GT ISZERO PUSH2 0x2361 JUMPI PUSH1 0x0 DUP1 REVERT JUMPDEST PUSH2 0x236D DUP11 DUP3 DUP12 ADD PUSH2 0x209F JUMP JUMPDEST SWAP4 POP POP PUSH1 0xA0 DUP9 ADD CALLDATALOAD SWAP2 POP PUSH1 0xC0 DUP9 ADD CALLDATALOAD PUSH8 0xFFFFFFFFFFFFFFFF DUP2 GT ISZERO PUSH2 0x2391 JUMPI PUSH1 0x0 DUP1 REVERT JUMPDEST PUSH2 0x239D DUP11 DUP3 DUP12 ADD PUSH2 0x209F JUMP JUMPDEST SWAP2 POP POP SWAP3 SWAP6 SWAP9 SWAP2 SWAP5 SWAP8 POP SWAP3 SWAP6 POP JUMP JUMPDEST PUSH1 0x0 DUP1 PUSH1 0x40 DUP4 DUP6 SUB SLT ISZERO PUSH2 0x23BF JUMPI PUSH1 0x0 DUP1 REVERT JUMPDEST PUSH2 0x23C8 DUP4 PUSH2 0x20FC JUMP JUMPDEST SWAP5 PUSH1 0x20 SWAP4 SWAP1 SWAP4 ADD CALLDATALOAD SWAP4 POP POP POP JUMP JUMPDEST PUSH1 0x1 DUP2 DUP2 SHR SWAP1 DUP3 AND DUP1 PUSH2 0x23EA JUMPI PUSH1 0x7F DUP3 AND SWAP2 POP JUMPDEST PUSH1 0x20 DUP3 LT DUP2 SUB PUSH2 0x240A JUMPI PUSH4 0x4E487B71 PUSH1 0xE0 SHL PUSH1 0x0 MSTORE PUSH1 0x22 PUSH1 0x4 MSTORE PUSH1 0x24 PUSH1 0x0 REVERT JUMPDEST POP SWAP2 SWAP1 POP JUMP JUMPDEST PUSH1 0x0 DUP3 MLOAD PUSH2 0x2422 DUP2 DUP5 PUSH1 0x20 DUP8 ADD PUSH2 0x1ED9 JUMP JUMPDEST SWAP2 SWAP1 SWAP2 ADD SWAP3 SWAP2 POP POP JUMP JUMPDEST PUSH4 0x4E487B71 PUSH1 0xE0 SHL PUSH1 0x0 MSTORE PUSH1 0x11 PUSH1 0x4 MSTORE PUSH1 0x24 PUSH1 0x0 REVERT JUMPDEST PUSH1 0x0 PUSH1 0x1 DUP3 ADD PUSH2 0x2454 JUMPI PUSH2 0x2454 PUSH2 0x242C JUMP JUMPDEST POP PUSH1 0x1 ADD SWAP1 JUMP JUMPDEST DUP2 DUP2 SUB DUP2 DUP2 GT ISZERO PUSH2 0x50F JUMPI PUSH2 0x50F PUSH2 0x242C JUMP JUMPDEST PUSH1 0x1F DUP3 GT ISZERO PUSH2 0xBFD JUMPI DUP1 PUSH1 0x0 MSTORE PUSH1 0x20 PUSH1 0x0 KECCAK256 PUSH1 0x1F DUP5 ADD PUSH1 0x5 SHR DUP2 ADD PUSH1 0x20 DUP6 LT ISZERO PUSH2 0x2495 JUMPI POP DUP1 JUMPDEST PUSH1 0x1F DUP5 ADD PUSH1 0x5 SHR DUP3 ADD SWAP2 POP JUMPDEST DUP2 DUP2 LT ISZERO PUSH2 0x12B9 JUMPI PUSH1 0x0 DUP2 SSTORE PUSH1 0x1 ADD PUSH2 0x24A1 JUMP JUMPDEST DUP2 MLOAD PUSH8 0xFFFFFFFFFFFFFFFF DUP2 GT ISZERO PUSH2 0x24CF JUMPI PUSH2 0x24CF PUSH2 0x200F JUMP JUMPDEST PUSH2 0x24E3 DUP2 PUSH2 0x24DD DUP5 SLOAD PUSH2 0x23D6 JUMP JUMPDEST DUP5 PUSH2 0x246E JUMP JUMPDEST PUSH1 0x20 PUSH1 0x1F DUP3 GT PUSH1 0x1 DUP2 EQ PUSH2 0x2517 JUMPI PUSH1 0x0 DUP4 ISZERO PUSH2 0x24FF JUMPI POP DUP5 DUP3 ADD MLOAD JUMPDEST PUSH1 0x0 NOT PUSH1 0x3 DUP6 SWAP1 SHL SHR NOT AND PUSH1 0x1 DUP5 SWAP1 SHL OR DUP5 SSTORE PUSH2 0x12B9 JUMP JUMPDEST PUSH1 0x0 DUP5 DUP2 MSTORE PUSH1 0x20 DUP2 KECCAK256 PUSH1 0x1F NOT DUP6 AND SWAP2 JUMPDEST DUP3 DUP2 LT ISZERO PUSH2 0x2547 JUMPI DUP8 DUP6 ADD MLOAD DUP3 SSTORE PUSH1 0x20 SWAP5 DUP6 ADD SWAP5 PUSH1 0x1 SWAP1 SWAP3 ADD SWAP2 ADD PUSH2 0x2527 JUMP JUMPDEST POP DUP5 DUP3 LT ISZERO PUSH2 0x2565 JUMPI DUP7 DUP5 ADD MLOAD PUSH1 0x0 NOT PUSH1 0x3 DUP8 SWAP1 SHL PUSH1 0xF8 AND SHR NOT AND DUP2 SSTORE JUMPDEST POP POP POP POP PUSH1 0x1 SWAP1 DUP2 SHL ADD SWAP1 SSTORE POP JUMP JUMPDEST PUSH1 0x0 PUSH1 0x20 DUP3 DUP5 SUB SLT ISZERO PUSH2 0x2586 JUMPI PUSH1 0x0 DUP1 REVERT JUMPDEST POP MLOAD SWAP2 SWAP1 POP JUMP INVALID CALLDATASIZE ADDMOD SWAP5 LOG1 EXTCODESIZE LOG1 LOG3 0x21 MOD PUSH8 0xC828492DB98DCA3E KECCAK256 PUSH23 0xCC3735A920A3CA505D382BBC02DD7BC7DEC4DCEEDDA775 0xE5 DUP14 0xD5 COINBASE 0xE0 DUP11 GT PUSH13 0x6C53815C0BD028192F7B626800 SWAP12 PUSH24 0x9B17422D0DF92223018B32B4D1FA46E071723D6817E2486D STOP EXTCODESIZE 0xEC 0xC5 PUSH0 STOP LOG2 PUSH5 0x6970667358 0x22 SLT KECCAK256 0xC5 0xE5 NUMBER 0x4F SWAP11 PUSH12 0xFA8F75B84CB9516E35FE6F7D 0xB2 PUSH26 0xE2EE0181AFF511289044895D64736F6C634300081C0033000000 "},"methodIdentifiers":{"DEFAULT_ADMIN_ROLE()":"a217fddf","UPGRADE_INTERFACE_VERSION()":"ad3cb1cc","createVoucher(string,string,uint256,string,string,uint256,string)":"c9caa9ed","deactivateVoucher(uint256)":"9b52b431","getRoleAdmin(bytes32)":"248a9ca3","getTotalVouchers()":"e3856b00","getUserVouchers(address)":"2d211e95","getVoucher(uint256)":"0cfa2fd8","getVoucherByQRCode(string)":"278fd07a","grantRole(bytes32,address)":"2f2ff15d","hasRole(bytes32,address)":"91d14854","initialize()":"8129fc1c","isVoucherValid(uint256)":"6200ee7a","nextVoucherId()":"fe7c7bcf","proxiableUUID()":"52d1902d","qrCodeToVoucherId(string)":"66bab42a","renounceRole(bytes32,address)":"36568abe","revokeRole(bytes32,address)":"d547741f","supportsInterface(bytes4)":"01ffc9a7","upgradeToAndCall(address,bytes)":"4f1ef286","useVoucher(uint256)":"84ac51b5","useVoucherByQRCode(string)":"9f48bc9d","userVouchers(address,uint256)":"f91ce77e","version()":"54fd4d50","vouchers(uint256)":"3e97b43f"}},"storageLayout":{"storage":[{"astId":1908,"contract":"contracts/VoucherManagerV2.sol:VoucherManagerV2","label":"vouchers","offset":0,"slot":"0","type":"t_mapping(t_uint256,t_struct(Voucher)1903_storage)"},{"astId":1913,"contract":"contracts/VoucherManagerV2.sol:VoucherManagerV2","label":"userVouchers","offset":0,"slot":"1","type":"t_mapping(t_address,t_array(t_uint256)dyn_storage)"},{"astId":1917,"contract":"contracts/VoucherManagerV2.sol:VoucherManagerV2","label":"qrCodeToVoucherId","offset":0,"slot":"2","type":"t_mapping(t_string_memory_ptr,t_uint256)"},{"astId":1919,"contract":"contracts/VoucherManagerV2.sol:VoucherManagerV2","label":"nextVoucherId","offset":0,"slot":"3","type":"t_uint256"}],"types":{"t_address":{"encoding":"inplace","label":"address","numberOfBytes":"20"},"t_array(t_uint256)dyn_storage":{"base":"t_uint256","encoding":"dynamic_array","label":"uint256[]","numberOfBytes":"32"},"t_bool":{"encoding":"inplace","label":"bool","numberOfBytes":"1"},"t_mapping(t_address,t_array(t_uint256)dyn_storage)":{"encoding":"mapping","key":"t_address","label":"mapping(address => uint256[])","numberOfBytes":"32","value":"t_array(t_uint256)dyn_storage"},"t_mapping(t_string_memory_ptr,t_uint256)":{"encoding":"mapping","key":"t_string_memory_ptr","label":"mapping(string => uint256)","numberOfBytes":"32","value":"t_uint256"},"t_mapping(t_uint256,t_struct(Voucher)1903_storage)":{"encoding":"mapping","key":"t_uint256","label":"mapping(uint256 => struct VoucherManagerV2.Voucher)","numberOfBytes":"32","value":"t_struct(Voucher)1903_storage"},"t_string_memory_ptr":{"encoding":"bytes","label":"string","numberOfBytes":"32"},"t_string_storage":{"encoding":"bytes","label":"string","numberOfBytes":"32"},"t_struct(Voucher)1903_storage":{"encoding":"inplace","label":"struct VoucherManagerV2.Voucher","members":[{"astId":1882,"contract":"contracts/VoucherManagerV2.sol:VoucherManagerV2","label":"id","offset":0,"slot":"0","type":"t_uint256"},{"astId":1884,"contract":"contracts/VoucherManagerV2.sol:VoucherManagerV2","label":"name","offset":0,"slot":"1","type":"t_string_storage"},{"astId":1886,"contract":"contracts/VoucherManagerV2.sol:VoucherManagerV2","label":"description","offset":0,"slot":"2","type":"t_string_storage"},{"astId":1888,"contract":"contracts/VoucherManagerV2.sol:VoucherManagerV2","label":"value","offset":0,"slot":"3","type":"t_uint256"},{"astId":1890,"contract":"contracts/VoucherManagerV2.sol:VoucherManagerV2","label":"tier","offset":0,"slot":"4","type":"t_string_storage"},{"astId":1892,"contract":"contracts/VoucherManagerV2.sol:VoucherManagerV2","label":"type_","offset":0,"slot":"5","type":"t_string_storage"},{"astId":1894,"contract":"contracts/VoucherManagerV2.sol:VoucherManagerV2","label":"maxUses","offset":0,"slot":"6","type":"t_uint256"},{"astId":1896,"contract":"contracts/VoucherManagerV2.sol:VoucherManagerV2","label":"currentUses","offset":0,"slot":"7","type":"t_uint256"},{"astId":1898,"contract":"contracts/VoucherManagerV2.sol:VoucherManagerV2","label":"isActive","offset":0,"slot":"8","type":"t_bool"},{"astId":1900,"contract":"contracts/VoucherManagerV2.sol:VoucherManagerV2","label":"creator","offset":1,"slot":"8","type":"t_address"},{"astId":1902,"contract":"contracts/VoucherManagerV2.sol:VoucherManagerV2","label":"createdAt","offset":0,"slot":"9","type":"t_uint256"}],"numberOfBytes":"320"},"t_uint256":{"encoding":"inplace","label":"uint256","numberOfBytes":"32"}}}}}}