{"contracts/UpgradeableMultiStakeManagerV2.sol":{"UpgradeableMultiStakeManagerV2":{"abi":[{"inputs":[],"name":"AccessControlBadConfirmation","type":"error"},{"inputs":[{"internalType":"address","name":"account","type":"address"},{"internalType":"bytes32","name":"neededRole","type":"bytes32"}],"name":"AccessControlUnauthorizedAccount","type":"error"},{"inputs":[],"name":"InvalidInitialization","type":"error"},{"inputs":[],"name":"NotInitializing","type":"error"},{"inputs":[],"name":"ReentrancyGuardReentrantCall","type":"error"},{"anonymous":false,"inputs":[{"indexed":false,"internalType":"uint64","name":"version","type":"uint64"}],"name":"Initialized","type":"event"},{"anonymous":false,"inputs":[{"indexed":true,"internalType":"uint256","name":"positionId","type":"uint256"},{"indexed":true,"internalType":"address","name":"owner","type":"address"},{"indexed":false,"internalType":"uint256","name":"amount","type":"uint256"}],"name":"PositionClosed","type":"event"},{"anonymous":false,"inputs":[{"indexed":true,"internalType":"uint256","name":"positionId","type":"uint256"},{"indexed":true,"internalType":"address","name":"owner","type":"address"},{"indexed":false,"internalType":"uint256","name":"amount","type":"uint256"},{"indexed":false,"internalType":"uint8","name":"tier","type":"uint8"}],"name":"PositionCreated","type":"event"},{"anonymous":false,"inputs":[{"indexed":true,"internalType":"uint256","name":"positionId","type":"uint256"},{"indexed":true,"internalType":"address","name":"owner","type":"address"},{"indexed":false,"internalType":"uint256","name":"amount","type":"uint256"}],"name":"RewardsClaimed","type":"event"},{"anonymous":false,"inputs":[{"indexed":true,"internalType":"bytes32","name":"role","type":"bytes32"},{"indexed":true,"internalType":"bytes32","name":"previousAdminRole","type":"bytes32"},{"indexed":true,"internalType":"bytes32","name":"newAdminRole","type":"bytes32"}],"name":"RoleAdminChanged","type":"event"},{"anonymous":false,"inputs":[{"indexed":true,"internalType":"bytes32","name":"role","type":"bytes32"},{"indexed":true,"internalType":"address","name":"account","type":"address"},{"indexed":true,"internalType":"address","name":"sender","type":"address"}],"name":"RoleGranted","type":"event"},{"anonymous":false,"inputs":[{"indexed":true,"internalType":"bytes32","name":"role","type":"bytes32"},{"indexed":true,"internalType":"address","name":"account","type":"address"},{"indexed":true,"internalType":"address","name":"sender","type":"address"}],"name":"RoleRevoked","type":"event"},{"anonymous":false,"inputs":[{"indexed":true,"internalType":"uint8","name":"tier","type":"uint8"},{"indexed":false,"internalType":"uint256","name":"weight","type":"uint256"},{"indexed":false,"internalType":"uint256","name":"duration","type":"uint256"},{"indexed":false,"internalType":"uint256","name":"minAmount","type":"uint256"}],"name":"TierUpdated","type":"event"},{"inputs":[],"name":"ADMIN_ROLE","outputs":[{"internalType":"bytes32","name":"","type":"bytes32"}],"stateMutability":"view","type":"function"},{"inputs":[],"name":"DEFAULT_ADMIN_ROLE","outputs":[{"internalType":"bytes32","name":"","type":"bytes32"}],"stateMutability":"view","type":"function"},{"inputs":[],"name":"MINTER_ROLE","outputs":[{"internalType":"bytes32","name":"","type":"bytes32"}],"stateMutability":"view","type":"function"},{"inputs":[],"name":"REWARD_INTERVAL","outputs":[{"internalType":"uint256","name":"","type":"uint256"}],"stateMutability":"view","type":"function"},{"inputs":[{"internalType":"uint256","name":"amount","type":"uint256"},{"internalType":"uint256","name":"duration","type":"uint256"}],"name":"createPosition","outputs":[],"stateMutability":"nonpayable","type":"function"},{"inputs":[{"internalType":"bytes32","name":"role","type":"bytes32"}],"name":"getRoleAdmin","outputs":[{"internalType":"bytes32","name":"","type":"bytes32"}],"stateMutability":"view","type":"function"},{"inputs":[{"internalType":"uint8","name":"tier","type":"uint8"}],"name":"getTierDuration","outputs":[{"internalType":"uint256","name":"","type":"uint256"}],"stateMutability":"view","type":"function"},{"inputs":[{"internalType":"uint8","name":"tier","type":"uint8"}],"name":"getTierMinAmount","outputs":[{"internalType":"uint256","name":"","type":"uint256"}],"stateMutability":"view","type":"function"},{"inputs":[{"internalType":"uint8","name":"tier","type":"uint8"}],"name":"getTierWeight","outputs":[{"internalType":"uint256","name":"","type":"uint256"}],"stateMutability":"view","type":"function"},{"inputs":[{"internalType":"bytes32","name":"role","type":"bytes32"},{"internalType":"address","name":"account","type":"address"}],"name":"grantRole","outputs":[],"stateMutability":"nonpayable","type":"function"},{"inputs":[{"internalType":"bytes32","name":"role","type":"bytes32"},{"internalType":"address","name":"account","type":"address"}],"name":"hasRole","outputs":[{"internalType":"bool","name":"","type":"bool"}],"stateMutability":"view","type":"function"},{"inputs":[{"internalType":"address","name":"_stakingToken","type":"address"},{"internalType":"address","name":"_tierCalculator","type":"address"}],"name":"initialize","outputs":[],"stateMutability":"nonpayable","type":"function"},{"inputs":[{"internalType":"uint256","name":"positionId","type":"uint256"}],"name":"mintNextNFT","outputs":[],"stateMutability":"nonpayable","type":"function"},{"inputs":[],"name":"nextPositionId","outputs":[{"internalType":"uint256","name":"","type":"uint256"}],"stateMutability":"view","type":"function"},{"inputs":[],"name":"nftFactory","outputs":[{"internalType":"contract IPADNFTFactory","name":"","type":"address"}],"stateMutability":"view","type":"function"},{"inputs":[{"internalType":"uint256","name":"","type":"uint256"}],"name":"positions","outputs":[{"internalType":"uint256","name":"id","type":"uint256"},{"internalType":"address","name":"owner","type":"address"},{"internalType":"uint256","name":"amount","type":"uint256"},{"internalType":"uint256","name":"startTime","type":"uint256"},{"internalType":"uint256","name":"duration","type":"uint256"},{"internalType":"uint8","name":"tier","type":"uint8"},{"internalType":"bool","name":"isActive","type":"bool"},{"internalType":"uint256","name":"lastClaimTime","type":"uint256"},{"internalType":"uint256","name":"totalClaimed","type":"uint256"},{"internalType":"uint256","name":"nextMintAt","type":"uint256"},{"internalType":"uint8","name":"monthIndex","type":"uint8"}],"stateMutability":"view","type":"function"},{"inputs":[{"internalType":"bytes32","name":"role","type":"bytes32"},{"internalType":"address","name":"callerConfirmation","type":"address"}],"name":"renounceRole","outputs":[],"stateMutability":"nonpayable","type":"function"},{"inputs":[{"internalType":"bytes32","name":"role","type":"bytes32"},{"internalType":"address","name":"account","type":"address"}],"name":"revokeRole","outputs":[],"stateMutability":"nonpayable","type":"function"},{"inputs":[{"internalType":"address","name":"_nftFactory","type":"address"}],"name":"setNFTFactory","outputs":[],"stateMutability":"nonpayable","type":"function"},{"inputs":[],"name":"stakingToken","outputs":[{"internalType":"contract IERC20","name":"","type":"address"}],"stateMutability":"view","type":"function"},{"inputs":[{"internalType":"bytes4","name":"interfaceId","type":"bytes4"}],"name":"supportsInterface","outputs":[{"internalType":"bool","name":"","type":"bool"}],"stateMutability":"view","type":"function"},{"inputs":[],"name":"tierCalculator","outputs":[{"internalType":"contract ITierCalculator","name":"","type":"address"}],"stateMutability":"view","type":"function"},{"inputs":[{"internalType":"uint8","name":"","type":"uint8"}],"name":"tierDurations","outputs":[{"internalType":"uint256","name":"","type":"uint256"}],"stateMutability":"view","type":"function"},{"inputs":[{"internalType":"uint8","name":"","type":"uint8"}],"name":"tierMinAmounts","outputs":[{"internalType":"uint256","name":"","type":"uint256"}],"stateMutability":"view","type":"function"},{"inputs":[{"internalType":"uint8","name":"","type":"uint8"}],"name":"tierWeights","outputs":[{"internalType":"uint256","name":"","type":"uint256"}],"stateMutability":"view","type":"function"},{"inputs":[{"internalType":"uint8","name":"tier","type":"uint8"},{"internalType":"uint256","name":"weight","type":"uint256"},{"internalType":"uint256","name":"duration","type":"uint256"},{"internalType":"uint256","name":"minAmount","type":"uint256"}],"name":"updateTierRequirements","outputs":[],"stateMutability":"nonpayable","type":"function"},{"inputs":[{"internalType":"address","name":"","type":"address"},{"internalType":"uint256","name":"","type":"uint256"}],"name":"userPositions","outputs":[{"internalType":"uint256","name":"","type":"uint256"}],"stateMutability":"view","type":"function"},{"inputs":[],"name":"version","outputs":[{"internalType":"string","name":"","type":"string"}],"stateMutability":"pure","type":"function"}],"evm":{"bytecode":{"linkReferences":{},"object":"6080604052348015600f57600080fd5b506116188061001f6000396000f3fe608060405234801561001057600080fd5b50600436106101c45760003560e01c806392935236116100f9578063d539139311610097578063df6756a111610071578063df6756a1146104f2578063f883462c14610512578063f8d459f014610525578063fc640da51461053857600080fd5b8063d5391393146104a5578063d547741f146104cc578063d63843cd146104df57600080fd5b8063be0f2b88116100d3578063be0f2b8814610449578063ca0599101461045c578063cb2d93ce1461047f578063d1aaef051461049257600080fd5b8063929352361461034257806399fbab8814610362578063a217fddf1461044157600080fd5b80635e07e8771161016657806372f702f31161014057806372f702f3146102d457806375b238fc146102ff578063899346c71461032657806391d148541461032f57600080fd5b80635e07e8771461027e5780635e1b4d99146102a15780636551ab2a146102b457600080fd5b806336568abe116101a257806336568abe14610227578063485cc9551461023a57806354fd4d501461024d5780635dbdda691461027457600080fd5b806301ffc9a7146101c9578063248a9ca3146101f15780632f2ff15d14610212575b600080fd5b6101dc6101d73660046112fd565b61055b565b60405190151581526020015b60405180910390f35b6102046101ff36600461132e565b610592565b6040519081526020016101e8565b610225610220366004611363565b6105b4565b005b610225610235366004611363565b6105d6565b61022561024836600461138f565b61060e565b60408051808201825260058152640322e302e360dc1b602082015290516101e891906113b9565b61020462278d0081565b61020461028c366004611418565b60ff1660009081526006602052604090205490565b6102046102af366004611433565b610923565b6102046102c2366004611418565b60066020526000908152604090205481565b6000546102e7906001600160a01b031681565b6040516001600160a01b0390911681526020016101e8565b6102047fa49807205ce4d355092ef5a8a18f56e8913cf4a201fbe287825b095693c2177581565b61020460085481565b6101dc61033d366004611363565b610954565b610204610350366004611418565b60056020526000908152604090205481565b6103d861037036600461132e565b6003602081905260009182526040909120805460018201546002830154938301546004840154600585015460068601546007870154600888015460099098015496986001600160a01b039096169795969495939460ff8085169561010090950481169491168b565b604080519b8c526001600160a01b03909a1660208c0152988a01979097526060890195909552608088019390935260ff91821660a0880152151560c087015260e086019190915261010085019190915261012084019190915216610140820152610160016101e8565b610204600081565b6001546102e7906001600160a01b031681565b61020461046a366004611418565b60ff1660009081526005602052604090205490565b61022561048d36600461145d565b61098c565b6102256104a0366004611478565b610a16565b6102047f9f2df0fed2c77648de5860a4cc508cd0818c85b8b8a1ab4ceeef8d981c8956a681565b6102256104da366004611363565b610df7565b6002546102e7906001600160a01b031681565b610204610500366004611418565b60076020526000908152604090205481565b61022561052036600461132e565b610e13565b61022561053336600461149a565b611071565b610204610546366004611418565b60ff1660009081526007602052604090205490565b60006001600160e01b03198216637965db0b60e01b148061058c57506301ffc9a760e01b6001600160e01b03198316145b92915050565b60009081526000805160206115c3833981519152602052604090206001015490565b6105bd82610592565b6105c6816110e2565b6105d083836110ef565b50505050565b6001600160a01b03811633146105ff5760405163334bd91960e11b815260040160405180910390fd5b6106098282611194565b505050565b6000610618611210565b805490915060ff600160401b820416159067ffffffffffffffff166000811580156106405750825b905060008267ffffffffffffffff16600114801561065d5750303b155b90508115801561066b575080155b156106895760405163f92ee8a960e01b815260040160405180910390fd5b845467ffffffffffffffff1916600117855583156106b357845460ff60401b1916600160401b1785555b6106bb611239565b6106c3611243565b600080546001600160a01b038981166001600160a01b031992831617835560018054918a169190921617905560647f05b8ccbb9d4d8fb16ea74ce3c29a41f1b461fbdaff4714a0d9a8eb05499746bc5560c87f1471eb6eb2c5e789fc3de43f8ce62938c7d1836ec861730447e2ada8fd81017b5561012c7f89832631fb3c3307a103ba2c84ab569c64d6182a18893dcd163f0f1c2090733a556101907fa9bc9a3a348c357ba16b37005d7e6b3236198c0e939f4af8c5f19b8deeb8ebc05562278d007f54cdd369e4e8a8515e52ca72ec816c2101831ad1f18bf44102ed171459c9b4f8556276a7007f3e5fec24aa4dc4e5aee2e025e51e1392c72a2500577559fae9665c6d52bd6a315562ed4e007f8819ef417987f8ae7a81f42cdfb18815282fe989326fbff903d13cf0e03ace29556301e133807f75f96ab15d697e93042dc45b5c896c4b27e89bb6eaf39475c5c371cb2513f7d2556007602052681b1ae4d6e2ef5000007f6d5257204ebe7d88fd91ae87941cb2dd9d8062b64ae5a2bd2d28ec40b9fbf6df55683635c9adc5dea000007fb39221ace053465ec3453ce2b36430bd138b997ecea25c1043da0c366812b8285568878678326eac9000007fb7c774451310d1be4108bc180d1b52823cb0ee0274a6c0081bcaf94f115fb96d556003905269010f0cf064dd592000007f3be6fd20d5acfde5b873b48692cd31f4d3c7e8ee8a813af4696af8859e5ca6c655831561091a57845460ff60401b19168555604051600181527fc7f505b2f371ae2175ee4913f4499e1f2633a7b5936321eed1cdaeb6115181d29060200160405180910390a15b50505050505050565b6004602052816000526040600020818154811061093f57600080fd5b90600052602060002001600091509150505481565b60009182526000805160206115c3833981519152602090815260408084206001600160a01b0393909316845291905290205460ff1690565b6109b67fa49807205ce4d355092ef5a8a18f56e8913cf4a201fbe287825b095693c2177533610954565b6109f45760405162461bcd60e51b815260206004820152600a60248201526927b7363c9030b236b4b760b11b60448201526064015b60405180910390fd5b600280546001600160a01b0319166001600160a01b0392909216919091179055565b60008211610a665760405162461bcd60e51b815260206004820152601d60248201527f416d6f756e74206d7573742062652067726561746572207468616e203000000060448201526064016109eb565b60008111610ab65760405162461bcd60e51b815260206004820152601f60248201527f4475726174696f6e206d7573742062652067726561746572207468616e20300060448201526064016109eb565b600154604051632783162d60e11b8152600481018390526000916001600160a01b031690634f062c5a90602401602060405180830381865afa158015610b00573d6000803e3d6000fd5b505050506040513d601f19601f82011682018060405250810190610b2491906114d3565b6003811115610b3557610b356114f4565b60ff8116600090815260076020526040902054909150831015610b9a5760405162461bcd60e51b815260206004820152601d60248201527f416d6f756e742062656c6f77206d696e696d756d20666f72207469657200000060448201526064016109eb565b6000546040516323b872dd60e01b8152336004820152306024820152604481018590526001600160a01b03909116906323b872dd906064016020604051808303816000875af1158015610bf1573d6000803e3d6000fd5b505050506040513d601f19601f82011682018060405250810190610c15919061150a565b610c535760405162461bcd60e51b815260206004820152600f60248201526e151c985b9cd9995c8819985a5b1959608a1b60448201526064016109eb565b6008805460009182610c6483611542565b919050559050604051806101600160405280828152602001336001600160a01b031681526020018581526020014281526020018481526020018360ff1681526020016001151581526020014281526020016000815260200162278d0042610ccb919061155b565b815260006020918201819052838152600380835260408083208551815585850151600180830180546001600160a01b0319166001600160a01b0390931692909217909155868301516002830155606087015193820193909355608086015160048083019190915560a087015160058301805460c08a015160ff93841661ffff199092169190911761010091151582021790915560e0890151600685015588015160078401556101208801516008840155610140909701516009909201805460ff19169288169290921790915533808552908552818420805493840181558452928490209091018590558051888152938616928401929092529183917f777faa44f45af96105bd34ff5ed16f195afc71ff2a37560bbc675164bc1bd58d910160405180910390a350505050565b610e0082610592565b610e09816110e2565b6105d08383611194565b60008181526003602052604090206005810154610100900460ff16610e705760405162461bcd60e51b8152602060048201526013602482015272506f736974696f6e206e6f742061637469766560681b60448201526064016109eb565b8060080154421015610ebd5760405162461bcd60e51b8152602060048201526016602482015275151bdbc819585c9b1e48199bdc881b995e1d0813919560521b60448201526064016109eb565b600062278d008260040154610ed2919061156e565b600983015490915060ff168111610f1d5760405162461bcd60e51b815260206004820152600f60248201526e105b1b081391951cc81b5a5b9d1959608a1b60448201526064016109eb565b6002546001600160a01b03161561101d576002805460018401549184015460048501546001600160a01b039283169363f4fb81599316918791610f649062278d009061156e565b6003880154600989015460088a015460ff90911690610f879062278d009061155b565b6040516001600160e01b031960e08a901b1681526001600160a01b039097166004880152602487019590955260448601939093526064850191909152608484015260ff1660a483015260c482015260e4016020604051808303816000875af1158015610ff7573d6000803e3d6000fd5b505050506040513d601f19601f8201168201806040525081019061101b9190611590565b505b6009820180546001919060009061103890849060ff166115a9565b92506101000a81548160ff021916908360ff16021790555062278d00826008016000828254611067919061155b565b9091555050505050565b60ff8416600081815260056020908152604080832087905560068252808320869055600782529182902084905581518681529081018590529081018390527f8a8be32f561bae947d8a12913d5ddbcb7eb4b7e8db9d7474ce283d37adb1ab739060600160405180910390a250505050565b6110ec8133611253565b50565b60006000805160206115c383398151915261110a8484610954565b61118a576000848152602082815260408083206001600160a01b03871684529091529020805460ff191660011790556111403390565b6001600160a01b0316836001600160a01b0316857f2f8788117e7eff1d82e926ec794901d17c78024a50270940304540a733656f0d60405160405180910390a4600191505061058c565b600091505061058c565b60006000805160206115c38339815191526111af8484610954565b1561118a576000848152602082815260408083206001600160a01b0387168085529252808320805460ff1916905551339287917ff6391f5c32d9c69d2a47ea670b442974b53935d1edc7fd64eb21e047a839171b9190a4600191505061058c565b6000807ff0c57e16840df040f15088dc2f81fe391c3923bec73e23a9662efc9c229c6a0061058c565b611241611290565b565b61124b611290565b6112416112b5565b61125d8282610954565b61128c5760405163e2517d3f60e01b81526001600160a01b0382166004820152602481018390526044016109eb565b5050565b6112986112e3565b61124157604051631afcd79f60e31b815260040160405180910390fd5b6112bd611290565b60017f9b779b17422d0df92223018b32b4d1fa46e071723d6817e2486d003becc55f0055565b60006112ed611210565b54600160401b900460ff16919050565b60006020828403121561130f57600080fd5b81356001600160e01b03198116811461132757600080fd5b9392505050565b60006020828403121561134057600080fd5b5035919050565b80356001600160a01b038116811461135e57600080fd5b919050565b6000806040838503121561137657600080fd5b8235915061138660208401611347565b90509250929050565b600080604083850312156113a257600080fd5b6113ab83611347565b915061138660208401611347565b602081526000825180602084015260005b818110156113e757602081860181015160408684010152016113ca565b506000604082850101526040601f19601f83011684010191505092915050565b803560ff8116811461135e57600080fd5b60006020828403121561142a57600080fd5b61132782611407565b6000806040838503121561144657600080fd5b61144f83611347565b946020939093013593505050565b60006020828403121561146f57600080fd5b61132782611347565b6000806040838503121561148b57600080fd5b50508035926020909101359150565b600080600080608085870312156114b057600080fd5b6114b985611407565b966020860135965060408601359560600135945092505050565b6000602082840312156114e557600080fd5b81516004811061132757600080fd5b634e487b7160e01b600052602160045260246000fd5b60006020828403121561151c57600080fd5b8151801515811461132757600080fd5b634e487b7160e01b600052601160045260246000fd5b6000600182016115545761155461152c565b5060010190565b8082018082111561058c5761058c61152c565b60008261158b57634e487b7160e01b600052601260045260246000fd5b500490565b6000602082840312156115a257600080fd5b5051919050565b60ff818116838216019081111561058c5761058c61152c56fe02dd7bc7dec4dceedda775e58dd541e08a116c6c53815c0bd028192f7b626800a2646970667358221220e5b2e1c66d066b91a88f4fbd191f470f229c8b9f59d6de0cd6a1d39a86b5f30d64736f6c634300081c0033","opcodes":"PUSH1 0x80 PUSH1 0x40 MSTORE CALLVALUE DUP1 ISZERO PUSH1 0xF JUMPI PUSH1 0x0 DUP1 REVERT JUMPDEST POP PUSH2 0x1618 DUP1 PUSH2 0x1F PUSH1 0x0 CODECOPY PUSH1 0x0 RETURN INVALID PUSH1 0x80 PUSH1 0x40 MSTORE CALLVALUE DUP1 ISZERO PUSH2 0x10 JUMPI PUSH1 0x0 DUP1 REVERT JUMPDEST POP PUSH1 0x4 CALLDATASIZE LT PUSH2 0x1C4 JUMPI PUSH1 0x0 CALLDATALOAD PUSH1 0xE0 SHR DUP1 PUSH4 0x92935236 GT PUSH2 0xF9 JUMPI DUP1 PUSH4 0xD5391393 GT PUSH2 0x97 JUMPI DUP1 PUSH4 0xDF6756A1 GT PUSH2 0x71 JUMPI DUP1 PUSH4 0xDF6756A1 EQ PUSH2 0x4F2 JUMPI DUP1 PUSH4 0xF883462C EQ PUSH2 0x512 JUMPI DUP1 PUSH4 0xF8D459F0 EQ PUSH2 0x525 JUMPI DUP1 PUSH4 0xFC640DA5 EQ PUSH2 0x538 JUMPI PUSH1 0x0 DUP1 REVERT JUMPDEST DUP1 PUSH4 0xD5391393 EQ PUSH2 0x4A5 JUMPI DUP1 PUSH4 0xD547741F EQ PUSH2 0x4CC JUMPI DUP1 PUSH4 0xD63843CD EQ PUSH2 0x4DF JUMPI PUSH1 0x0 DUP1 REVERT JUMPDEST DUP1 PUSH4 0xBE0F2B88 GT PUSH2 0xD3 JUMPI DUP1 PUSH4 0xBE0F2B88 EQ PUSH2 0x449 JUMPI DUP1 PUSH4 0xCA059910 EQ PUSH2 0x45C JUMPI DUP1 PUSH4 0xCB2D93CE EQ PUSH2 0x47F JUMPI DUP1 PUSH4 0xD1AAEF05 EQ PUSH2 0x492 JUMPI PUSH1 0x0 DUP1 REVERT JUMPDEST DUP1 PUSH4 0x92935236 EQ PUSH2 0x342 JUMPI DUP1 PUSH4 0x99FBAB88 EQ PUSH2 0x362 JUMPI DUP1 PUSH4 0xA217FDDF EQ PUSH2 0x441 JUMPI PUSH1 0x0 DUP1 REVERT JUMPDEST DUP1 PUSH4 0x5E07E877 GT PUSH2 0x166 JUMPI DUP1 PUSH4 0x72F702F3 GT PUSH2 0x140 JUMPI DUP1 PUSH4 0x72F702F3 EQ PUSH2 0x2D4 JUMPI DUP1 PUSH4 0x75B238FC EQ PUSH2 0x2FF JUMPI DUP1 PUSH4 0x899346C7 EQ PUSH2 0x326 JUMPI DUP1 PUSH4 0x91D14854 EQ PUSH2 0x32F JUMPI PUSH1 0x0 DUP1 REVERT JUMPDEST DUP1 PUSH4 0x5E07E877 EQ PUSH2 0x27E JUMPI DUP1 PUSH4 0x5E1B4D99 EQ PUSH2 0x2A1 JUMPI DUP1 PUSH4 0x6551AB2A EQ PUSH2 0x2B4 JUMPI PUSH1 0x0 DUP1 REVERT JUMPDEST DUP1 PUSH4 0x36568ABE GT PUSH2 0x1A2 JUMPI DUP1 PUSH4 0x36568ABE EQ PUSH2 0x227 JUMPI DUP1 PUSH4 0x485CC955 EQ PUSH2 0x23A JUMPI DUP1 PUSH4 0x54FD4D50 EQ PUSH2 0x24D JUMPI DUP1 PUSH4 0x5DBDDA69 EQ PUSH2 0x274 JUMPI PUSH1 0x0 DUP1 REVERT JUMPDEST DUP1 PUSH4 0x1FFC9A7 EQ PUSH2 0x1C9 JUMPI DUP1 PUSH4 0x248A9CA3 EQ PUSH2 0x1F1 JUMPI DUP1 PUSH4 0x2F2FF15D EQ PUSH2 0x212 JUMPI JUMPDEST PUSH1 0x0 DUP1 REVERT JUMPDEST PUSH2 0x1DC PUSH2 0x1D7 CALLDATASIZE PUSH1 0x4 PUSH2 0x12FD JUMP JUMPDEST PUSH2 0x55B JUMP JUMPDEST PUSH1 0x40 MLOAD SWAP1 ISZERO ISZERO DUP2 MSTORE PUSH1 0x20 ADD JUMPDEST PUSH1 0x40 MLOAD DUP1 SWAP2 SUB SWAP1 RETURN JUMPDEST PUSH2 0x204 PUSH2 0x1FF CALLDATASIZE PUSH1 0x4 PUSH2 0x132E JUMP JUMPDEST PUSH2 0x592 JUMP JUMPDEST PUSH1 0x40 MLOAD SWAP1 DUP2 MSTORE PUSH1 0x20 ADD PUSH2 0x1E8 JUMP JUMPDEST PUSH2 0x225 PUSH2 0x220 CALLDATASIZE PUSH1 0x4 PUSH2 0x1363 JUMP JUMPDEST PUSH2 0x5B4 JUMP JUMPDEST STOP JUMPDEST PUSH2 0x225 PUSH2 0x235 CALLDATASIZE PUSH1 0x4 PUSH2 0x1363 JUMP JUMPDEST PUSH2 0x5D6 JUMP JUMPDEST PUSH2 0x225 PUSH2 0x248 CALLDATASIZE PUSH1 0x4 PUSH2 0x138F JUMP JUMPDEST PUSH2 0x60E JUMP JUMPDEST PUSH1 0x40 DUP1 MLOAD DUP1 DUP3 ADD DUP3 MSTORE PUSH1 0x5 DUP2 MSTORE PUSH5 0x322E302E3 PUSH1 0xDC SHL PUSH1 0x20 DUP3 ADD MSTORE SWAP1 MLOAD PUSH2 0x1E8 SWAP2 SWAP1 PUSH2 0x13B9 JUMP JUMPDEST PUSH2 0x204 PUSH3 0x278D00 DUP2 JUMP JUMPDEST PUSH2 0x204 PUSH2 0x28C CALLDATASIZE PUSH1 0x4 PUSH2 0x1418 JUMP JUMPDEST PUSH1 0xFF AND PUSH1 0x0 SWAP1 DUP2 MSTORE PUSH1 0x6 PUSH1 0x20 MSTORE PUSH1 0x40 SWAP1 KECCAK256 SLOAD SWAP1 JUMP JUMPDEST PUSH2 0x204 PUSH2 0x2AF CALLDATASIZE PUSH1 0x4 PUSH2 0x1433 JUMP JUMPDEST PUSH2 0x923 JUMP JUMPDEST PUSH2 0x204 PUSH2 0x2C2 CALLDATASIZE PUSH1 0x4 PUSH2 0x1418 JUMP JUMPDEST PUSH1 0x6 PUSH1 0x20 MSTORE PUSH1 0x0 SWAP1 DUP2 MSTORE PUSH1 0x40 SWAP1 KECCAK256 SLOAD DUP2 JUMP JUMPDEST PUSH1 0x0 SLOAD PUSH2 0x2E7 SWAP1 PUSH1 0x1 PUSH1 0x1 PUSH1 0xA0 SHL SUB AND DUP2 JUMP JUMPDEST PUSH1 0x40 MLOAD PUSH1 0x1 PUSH1 0x1 PUSH1 0xA0 SHL SUB SWAP1 SWAP2 AND DUP2 MSTORE PUSH1 0x20 ADD PUSH2 0x1E8 JUMP JUMPDEST PUSH2 0x204 PUSH32 0xA49807205CE4D355092EF5A8A18F56E8913CF4A201FBE287825B095693C21775 DUP2 JUMP JUMPDEST PUSH2 0x204 PUSH1 0x8 SLOAD DUP2 JUMP JUMPDEST PUSH2 0x1DC PUSH2 0x33D CALLDATASIZE PUSH1 0x4 PUSH2 0x1363 JUMP JUMPDEST PUSH2 0x954 JUMP JUMPDEST PUSH2 0x204 PUSH2 0x350 CALLDATASIZE PUSH1 0x4 PUSH2 0x1418 JUMP JUMPDEST PUSH1 0x5 PUSH1 0x20 MSTORE PUSH1 0x0 SWAP1 DUP2 MSTORE PUSH1 0x40 SWAP1 KECCAK256 SLOAD DUP2 JUMP JUMPDEST PUSH2 0x3D8 PUSH2 0x370 CALLDATASIZE PUSH1 0x4 PUSH2 0x132E JUMP JUMPDEST PUSH1 0x3 PUSH1 0x20 DUP2 SWAP1 MSTORE PUSH1 0x0 SWAP2 DUP3 MSTORE PUSH1 0x40 SWAP1 SWAP2 KECCAK256 DUP1 SLOAD PUSH1 0x1 DUP3 ADD SLOAD PUSH1 0x2 DUP4 ADD SLOAD SWAP4 DUP4 ADD SLOAD PUSH1 0x4 DUP5 ADD SLOAD PUSH1 0x5 DUP6 ADD SLOAD PUSH1 0x6 DUP7 ADD SLOAD PUSH1 0x7 DUP8 ADD SLOAD PUSH1 0x8 DUP9 ADD SLOAD PUSH1 0x9 SWAP1 SWAP9 ADD SLOAD SWAP7 SWAP9 PUSH1 0x1 PUSH1 0x1 PUSH1 0xA0 SHL SUB SWAP1 SWAP7 AND SWAP8 SWAP6 SWAP7 SWAP5 SWAP6 SWAP4 SWAP5 PUSH1 0xFF DUP1 DUP6 AND SWAP6 PUSH2 0x100 SWAP1 SWAP6 DIV DUP2 AND SWAP5 SWAP2 AND DUP12 JUMP JUMPDEST PUSH1 0x40 DUP1 MLOAD SWAP12 DUP13 MSTORE PUSH1 0x1 PUSH1 0x1 PUSH1 0xA0 SHL SUB SWAP1 SWAP11 AND PUSH1 0x20 DUP13 ADD MSTORE SWAP9 DUP11 ADD SWAP8 SWAP1 SWAP8 MSTORE PUSH1 0x60 DUP10 ADD SWAP6 SWAP1 SWAP6 MSTORE PUSH1 0x80 DUP9 ADD SWAP4 SWAP1 SWAP4 MSTORE PUSH1 0xFF SWAP2 DUP3 AND PUSH1 0xA0 DUP9 ADD MSTORE ISZERO ISZERO PUSH1 0xC0 DUP8 ADD MSTORE PUSH1 0xE0 DUP7 ADD SWAP2 SWAP1 SWAP2 MSTORE PUSH2 0x100 DUP6 ADD SWAP2 SWAP1 SWAP2 MSTORE PUSH2 0x120 DUP5 ADD SWAP2 SWAP1 SWAP2 MSTORE AND PUSH2 0x140 DUP3 ADD MSTORE PUSH2 0x160 ADD PUSH2 0x1E8 JUMP JUMPDEST PUSH2 0x204 PUSH1 0x0 DUP2 JUMP JUMPDEST PUSH1 0x1 SLOAD PUSH2 0x2E7 SWAP1 PUSH1 0x1 PUSH1 0x1 PUSH1 0xA0 SHL SUB AND DUP2 JUMP JUMPDEST PUSH2 0x204 PUSH2 0x46A CALLDATASIZE PUSH1 0x4 PUSH2 0x1418 JUMP JUMPDEST PUSH1 0xFF AND PUSH1 0x0 SWAP1 DUP2 MSTORE PUSH1 0x5 PUSH1 0x20 MSTORE PUSH1 0x40 SWAP1 KECCAK256 SLOAD SWAP1 JUMP JUMPDEST PUSH2 0x225 PUSH2 0x48D CALLDATASIZE PUSH1 0x4 PUSH2 0x145D JUMP JUMPDEST PUSH2 0x98C JUMP JUMPDEST PUSH2 0x225 PUSH2 0x4A0 CALLDATASIZE PUSH1 0x4 PUSH2 0x1478 JUMP JUMPDEST PUSH2 0xA16 JUMP JUMPDEST PUSH2 0x204 PUSH32 0x9F2DF0FED2C77648DE5860A4CC508CD0818C85B8B8A1AB4CEEEF8D981C8956A6 DUP2 JUMP JUMPDEST PUSH2 0x225 PUSH2 0x4DA CALLDATASIZE PUSH1 0x4 PUSH2 0x1363 JUMP JUMPDEST PUSH2 0xDF7 JUMP JUMPDEST PUSH1 0x2 SLOAD PUSH2 0x2E7 SWAP1 PUSH1 0x1 PUSH1 0x1 PUSH1 0xA0 SHL SUB AND DUP2 JUMP JUMPDEST PUSH2 0x204 PUSH2 0x500 CALLDATASIZE PUSH1 0x4 PUSH2 0x1418 JUMP JUMPDEST PUSH1 0x7 PUSH1 0x20 MSTORE PUSH1 0x0 SWAP1 DUP2 MSTORE PUSH1 0x40 SWAP1 KECCAK256 SLOAD DUP2 JUMP JUMPDEST PUSH2 0x225 PUSH2 0x520 CALLDATASIZE PUSH1 0x4 PUSH2 0x132E JUMP JUMPDEST PUSH2 0xE13 JUMP JUMPDEST PUSH2 0x225 PUSH2 0x533 CALLDATASIZE PUSH1 0x4 PUSH2 0x149A JUMP JUMPDEST PUSH2 0x1071 JUMP JUMPDEST PUSH2 0x204 PUSH2 0x546 CALLDATASIZE PUSH1 0x4 PUSH2 0x1418 JUMP JUMPDEST PUSH1 0xFF AND PUSH1 0x0 SWAP1 DUP2 MSTORE PUSH1 0x7 PUSH1 0x20 MSTORE PUSH1 0x40 SWAP1 KECCAK256 SLOAD SWAP1 JUMP JUMPDEST PUSH1 0x0 PUSH1 0x1 PUSH1 0x1 PUSH1 0xE0 SHL SUB NOT DUP3 AND PUSH4 0x7965DB0B PUSH1 0xE0 SHL EQ DUP1 PUSH2 0x58C JUMPI POP PUSH4 0x1FFC9A7 PUSH1 0xE0 SHL PUSH1 0x1 PUSH1 0x1 PUSH1 0xE0 SHL SUB NOT DUP4 AND EQ JUMPDEST SWAP3 SWAP2 POP POP JUMP JUMPDEST PUSH1 0x0 SWAP1 DUP2 MSTORE PUSH1 0x0 DUP1 MLOAD PUSH1 0x20 PUSH2 0x15C3 DUP4 CODECOPY DUP2 MLOAD SWAP2 MSTORE PUSH1 0x20 MSTORE PUSH1 0x40 SWAP1 KECCAK256 PUSH1 0x1 ADD SLOAD SWAP1 JUMP JUMPDEST PUSH2 0x5BD DUP3 PUSH2 0x592 JUMP JUMPDEST PUSH2 0x5C6 DUP2 PUSH2 0x10E2 JUMP JUMPDEST PUSH2 0x5D0 DUP4 DUP4 PUSH2 0x10EF JUMP JUMPDEST POP POP POP POP JUMP JUMPDEST PUSH1 0x1 PUSH1 0x1 PUSH1 0xA0 SHL SUB DUP2 AND CALLER EQ PUSH2 0x5FF JUMPI PUSH1 0x40 MLOAD PUSH4 0x334BD919 PUSH1 0xE1 SHL DUP2 MSTORE PUSH1 0x4 ADD PUSH1 0x40 MLOAD DUP1 SWAP2 SUB SWAP1 REVERT JUMPDEST PUSH2 0x609 DUP3 DUP3 PUSH2 0x1194 JUMP JUMPDEST POP POP POP JUMP JUMPDEST PUSH1 0x0 PUSH2 0x618 PUSH2 0x1210 JUMP JUMPDEST DUP1 SLOAD SWAP1 SWAP2 POP PUSH1 0xFF PUSH1 0x1 PUSH1 0x40 SHL DUP3 DIV AND ISZERO SWAP1 PUSH8 0xFFFFFFFFFFFFFFFF AND PUSH1 0x0 DUP2 ISZERO DUP1 ISZERO PUSH2 0x640 JUMPI POP DUP3 JUMPDEST SWAP1 POP PUSH1 0x0 DUP3 PUSH8 0xFFFFFFFFFFFFFFFF AND PUSH1 0x1 EQ DUP1 ISZERO PUSH2 0x65D JUMPI POP ADDRESS EXTCODESIZE ISZERO JUMPDEST SWAP1 POP DUP2 ISZERO DUP1 ISZERO PUSH2 0x66B JUMPI POP DUP1 ISZERO JUMPDEST ISZERO PUSH2 0x689 JUMPI PUSH1 0x40 MLOAD PUSH4 0xF92EE8A9 PUSH1 0xE0 SHL DUP2 MSTORE PUSH1 0x4 ADD PUSH1 0x40 MLOAD DUP1 SWAP2 SUB SWAP1 REVERT JUMPDEST DUP5 SLOAD PUSH8 0xFFFFFFFFFFFFFFFF NOT AND PUSH1 0x1 OR DUP6 SSTORE DUP4 ISZERO PUSH2 0x6B3 JUMPI DUP5 SLOAD PUSH1 0xFF PUSH1 0x40 SHL NOT AND PUSH1 0x1 PUSH1 0x40 SHL OR DUP6 SSTORE JUMPDEST PUSH2 0x6BB PUSH2 0x1239 JUMP JUMPDEST PUSH2 0x6C3 PUSH2 0x1243 JUMP JUMPDEST PUSH1 0x0 DUP1 SLOAD PUSH1 0x1 PUSH1 0x1 PUSH1 0xA0 SHL SUB DUP10 DUP2 AND PUSH1 0x1 PUSH1 0x1 PUSH1 0xA0 SHL SUB NOT SWAP3 DUP4 AND OR DUP4 SSTORE PUSH1 0x1 DUP1 SLOAD SWAP2 DUP11 AND SWAP2 SWAP1 SWAP3 AND OR SWAP1 SSTORE PUSH1 0x64 PUSH32 0x5B8CCBB9D4D8FB16EA74CE3C29A41F1B461FBDAFF4714A0D9A8EB05499746BC SSTORE PUSH1 0xC8 PUSH32 0x1471EB6EB2C5E789FC3DE43F8CE62938C7D1836EC861730447E2ADA8FD81017B SSTORE PUSH2 0x12C PUSH32 0x89832631FB3C3307A103BA2C84AB569C64D6182A18893DCD163F0F1C2090733A SSTORE PUSH2 0x190 PUSH32 0xA9BC9A3A348C357BA16B37005D7E6B3236198C0E939F4AF8C5F19B8DEEB8EBC0 SSTORE PUSH3 0x278D00 PUSH32 0x54CDD369E4E8A8515E52CA72EC816C2101831AD1F18BF44102ED171459C9B4F8 SSTORE PUSH3 0x76A700 PUSH32 0x3E5FEC24AA4DC4E5AEE2E025E51E1392C72A2500577559FAE9665C6D52BD6A31 SSTORE PUSH3 0xED4E00 PUSH32 0x8819EF417987F8AE7A81F42CDFB18815282FE989326FBFF903D13CF0E03ACE29 SSTORE PUSH4 0x1E13380 PUSH32 0x75F96AB15D697E93042DC45B5C896C4B27E89BB6EAF39475C5C371CB2513F7D2 SSTORE PUSH1 0x7 PUSH1 0x20 MSTORE PUSH9 0x1B1AE4D6E2EF500000 PUSH32 0x6D5257204EBE7D88FD91AE87941CB2DD9D8062B64AE5A2BD2D28EC40B9FBF6DF SSTORE PUSH9 0x3635C9ADC5DEA00000 PUSH32 0xB39221ACE053465EC3453CE2B36430BD138B997ECEA25C1043DA0C366812B828 SSTORE PUSH9 0x878678326EAC900000 PUSH32 0xB7C774451310D1BE4108BC180D1B52823CB0EE0274A6C0081BCAF94F115FB96D SSTORE PUSH1 0x3 SWAP1 MSTORE PUSH10 0x10F0CF064DD59200000 PUSH32 0x3BE6FD20D5ACFDE5B873B48692CD31F4D3C7E8EE8A813AF4696AF8859E5CA6C6 SSTORE DUP4 ISZERO PUSH2 0x91A JUMPI DUP5 SLOAD PUSH1 0xFF PUSH1 0x40 SHL NOT AND DUP6 SSTORE PUSH1 0x40 MLOAD PUSH1 0x1 DUP2 MSTORE PUSH32 0xC7F505B2F371AE2175EE4913F4499E1F2633A7B5936321EED1CDAEB6115181D2 SWAP1 PUSH1 0x20 ADD PUSH1 0x40 MLOAD DUP1 SWAP2 SUB SWAP1 LOG1 JUMPDEST POP POP POP POP POP POP POP JUMP JUMPDEST PUSH1 0x4 PUSH1 0x20 MSTORE DUP2 PUSH1 0x0 MSTORE PUSH1 0x40 PUSH1 0x0 KECCAK256 DUP2 DUP2 SLOAD DUP2 LT PUSH2 0x93F JUMPI PUSH1 0x0 DUP1 REVERT JUMPDEST SWAP1 PUSH1 0x0 MSTORE PUSH1 0x20 PUSH1 0x0 KECCAK256 ADD PUSH1 0x0 SWAP2 POP SWAP2 POP POP SLOAD DUP2 JUMP JUMPDEST PUSH1 0x0 SWAP2 DUP3 MSTORE PUSH1 0x0 DUP1 MLOAD PUSH1 0x20 PUSH2 0x15C3 DUP4 CODECOPY DUP2 MLOAD SWAP2 MSTORE PUSH1 0x20 SWAP1 DUP2 MSTORE PUSH1 0x40 DUP1 DUP5 KECCAK256 PUSH1 0x1 PUSH1 0x1 PUSH1 0xA0 SHL SUB SWAP4 SWAP1 SWAP4 AND DUP5 MSTORE SWAP2 SWAP1 MSTORE SWAP1 KECCAK256 SLOAD PUSH1 0xFF AND SWAP1 JUMP JUMPDEST PUSH2 0x9B6 PUSH32 0xA49807205CE4D355092EF5A8A18F56E8913CF4A201FBE287825B095693C21775 CALLER PUSH2 0x954 JUMP JUMPDEST PUSH2 0x9F4 JUMPI PUSH1 0x40 MLOAD PUSH3 0x461BCD PUSH1 0xE5 SHL DUP2 MSTORE PUSH1 0x20 PUSH1 0x4 DUP3 ADD MSTORE PUSH1 0xA PUSH1 0x24 DUP3 ADD MSTORE PUSH10 0x27B7363C9030B236B4B7 PUSH1 0xB1 SHL PUSH1 0x44 DUP3 ADD MSTORE PUSH1 0x64 ADD JUMPDEST PUSH1 0x40 MLOAD DUP1 SWAP2 SUB SWAP1 REVERT JUMPDEST PUSH1 0x2 DUP1 SLOAD PUSH1 0x1 PUSH1 0x1 PUSH1 0xA0 SHL SUB NOT AND PUSH1 0x1 PUSH1 0x1 PUSH1 0xA0 SHL SUB SWAP3 SWAP1 SWAP3 AND SWAP2 SWAP1 SWAP2 OR SWAP1 SSTORE JUMP JUMPDEST PUSH1 0x0 DUP3 GT PUSH2 0xA66 JUMPI PUSH1 0x40 MLOAD PUSH3 0x461BCD PUSH1 0xE5 SHL DUP2 MSTORE PUSH1 0x20 PUSH1 0x4 DUP3 ADD MSTORE PUSH1 0x1D PUSH1 0x24 DUP3 ADD MSTORE PUSH32 0x416D6F756E74206D7573742062652067726561746572207468616E2030000000 PUSH1 0x44 DUP3 ADD MSTORE PUSH1 0x64 ADD PUSH2 0x9EB JUMP JUMPDEST PUSH1 0x0 DUP2 GT PUSH2 0xAB6 JUMPI PUSH1 0x40 MLOAD PUSH3 0x461BCD PUSH1 0xE5 SHL DUP2 MSTORE PUSH1 0x20 PUSH1 0x4 DUP3 ADD MSTORE PUSH1 0x1F PUSH1 0x24 DUP3 ADD MSTORE PUSH32 0x4475726174696F6E206D7573742062652067726561746572207468616E203000 PUSH1 0x44 DUP3 ADD MSTORE PUSH1 0x64 ADD PUSH2 0x9EB JUMP JUMPDEST PUSH1 0x1 SLOAD PUSH1 0x40 MLOAD PUSH4 0x2783162D PUSH1 0xE1 SHL DUP2 MSTORE PUSH1 0x4 DUP2 ADD DUP4 SWAP1 MSTORE PUSH1 0x0 SWAP2 PUSH1 0x1 PUSH1 0x1 PUSH1 0xA0 SHL SUB AND SWAP1 PUSH4 0x4F062C5A SWAP1 PUSH1 0x24 ADD PUSH1 0x20 PUSH1 0x40 MLOAD DUP1 DUP4 SUB DUP2 DUP7 GAS STATICCALL ISZERO DUP1 ISZERO PUSH2 0xB00 JUMPI RETURNDATASIZE PUSH1 0x0 DUP1 RETURNDATACOPY RETURNDATASIZE PUSH1 0x0 REVERT JUMPDEST POP POP POP POP PUSH1 0x40 MLOAD RETURNDATASIZE PUSH1 0x1F NOT PUSH1 0x1F DUP3 ADD AND DUP3 ADD DUP1 PUSH1 0x40 MSTORE POP DUP2 ADD SWAP1 PUSH2 0xB24 SWAP2 SWAP1 PUSH2 0x14D3 JUMP JUMPDEST PUSH1 0x3 DUP2 GT ISZERO PUSH2 0xB35 JUMPI PUSH2 0xB35 PUSH2 0x14F4 JUMP JUMPDEST PUSH1 0xFF DUP2 AND PUSH1 0x0 SWAP1 DUP2 MSTORE PUSH1 0x7 PUSH1 0x20 MSTORE PUSH1 0x40 SWAP1 KECCAK256 SLOAD SWAP1 SWAP2 POP DUP4 LT ISZERO PUSH2 0xB9A JUMPI PUSH1 0x40 MLOAD PUSH3 0x461BCD PUSH1 0xE5 SHL DUP2 MSTORE PUSH1 0x20 PUSH1 0x4 DUP3 ADD MSTORE PUSH1 0x1D PUSH1 0x24 DUP3 ADD MSTORE PUSH32 0x416D6F756E742062656C6F77206D696E696D756D20666F722074696572000000 PUSH1 0x44 DUP3 ADD MSTORE PUSH1 0x64 ADD PUSH2 0x9EB JUMP JUMPDEST PUSH1 0x0 SLOAD PUSH1 0x40 MLOAD PUSH4 0x23B872DD PUSH1 0xE0 SHL DUP2 MSTORE CALLER PUSH1 0x4 DUP3 ADD MSTORE ADDRESS PUSH1 0x24 DUP3 ADD MSTORE PUSH1 0x44 DUP2 ADD DUP6 SWAP1 MSTORE PUSH1 0x1 PUSH1 0x1 PUSH1 0xA0 SHL SUB SWAP1 SWAP2 AND SWAP1 PUSH4 0x23B872DD SWAP1 PUSH1 0x64 ADD PUSH1 0x20 PUSH1 0x40 MLOAD DUP1 DUP4 SUB DUP2 PUSH1 0x0 DUP8 GAS CALL ISZERO DUP1 ISZERO PUSH2 0xBF1 JUMPI RETURNDATASIZE PUSH1 0x0 DUP1 RETURNDATACOPY RETURNDATASIZE PUSH1 0x0 REVERT JUMPDEST POP POP POP POP PUSH1 0x40 MLOAD RETURNDATASIZE PUSH1 0x1F NOT PUSH1 0x1F DUP3 ADD AND DUP3 ADD DUP1 PUSH1 0x40 MSTORE POP DUP2 ADD SWAP1 PUSH2 0xC15 SWAP2 SWAP1 PUSH2 0x150A JUMP JUMPDEST PUSH2 0xC53 JUMPI PUSH1 0x40 MLOAD PUSH3 0x461BCD PUSH1 0xE5 SHL DUP2 MSTORE PUSH1 0x20 PUSH1 0x4 DUP3 ADD MSTORE PUSH1 0xF PUSH1 0x24 DUP3 ADD MSTORE PUSH15 0x151C985B9CD9995C8819985A5B1959 PUSH1 0x8A SHL PUSH1 0x44 DUP3 ADD MSTORE PUSH1 0x64 ADD PUSH2 0x9EB JUMP JUMPDEST PUSH1 0x8 DUP1 SLOAD PUSH1 0x0 SWAP2 DUP3 PUSH2 0xC64 DUP4 PUSH2 0x1542 JUMP JUMPDEST SWAP2 SWAP1 POP SSTORE SWAP1 POP PUSH1 0x40 MLOAD DUP1 PUSH2 0x160 ADD PUSH1 0x40 MSTORE DUP1 DUP3 DUP2 MSTORE PUSH1 0x20 ADD CALLER PUSH1 0x1 PUSH1 0x1 PUSH1 0xA0 SHL SUB AND DUP2 MSTORE PUSH1 0x20 ADD DUP6 DUP2 MSTORE PUSH1 0x20 ADD TIMESTAMP DUP2 MSTORE PUSH1 0x20 ADD DUP5 DUP2 MSTORE PUSH1 0x20 ADD DUP4 PUSH1 0xFF AND DUP2 MSTORE PUSH1 0x20 ADD PUSH1 0x1 ISZERO ISZERO DUP2 MSTORE PUSH1 0x20 ADD TIMESTAMP DUP2 MSTORE PUSH1 0x20 ADD PUSH1 0x0 DUP2 MSTORE PUSH1 0x20 ADD PUSH3 0x278D00 TIMESTAMP PUSH2 0xCCB SWAP2 SWAP1 PUSH2 0x155B JUMP JUMPDEST DUP2 MSTORE PUSH1 0x0 PUSH1 0x20 SWAP2 DUP3 ADD DUP2 SWAP1 MSTORE DUP4 DUP2 MSTORE PUSH1 0x3 DUP1 DUP4 MSTORE PUSH1 0x40 DUP1 DUP4 KECCAK256 DUP6 MLOAD DUP2 SSTORE DUP6 DUP6 ADD MLOAD PUSH1 0x1 DUP1 DUP4 ADD DUP1 SLOAD PUSH1 0x1 PUSH1 0x1 PUSH1 0xA0 SHL SUB NOT AND PUSH1 0x1 PUSH1 0x1 PUSH1 0xA0 SHL SUB SWAP1 SWAP4 AND SWAP3 SWAP1 SWAP3 OR SWAP1 SWAP2 SSTORE DUP7 DUP4 ADD MLOAD PUSH1 0x2 DUP4 ADD SSTORE PUSH1 0x60 DUP8 ADD MLOAD SWAP4 DUP3 ADD SWAP4 SWAP1 SWAP4 SSTORE PUSH1 0x80 DUP7 ADD MLOAD PUSH1 0x4 DUP1 DUP4 ADD SWAP2 SWAP1 SWAP2 SSTORE PUSH1 0xA0 DUP8 ADD MLOAD PUSH1 0x5 DUP4 ADD DUP1 SLOAD PUSH1 0xC0 DUP11 ADD MLOAD PUSH1 0xFF SWAP4 DUP5 AND PUSH2 0xFFFF NOT SWAP1 SWAP3 AND SWAP2 SWAP1 SWAP2 OR PUSH2 0x100 SWAP2 ISZERO ISZERO DUP3 MUL OR SWAP1 SWAP2 SSTORE PUSH1 0xE0 DUP10 ADD MLOAD PUSH1 0x6 DUP6 ADD SSTORE DUP9 ADD MLOAD PUSH1 0x7 DUP5 ADD SSTORE PUSH2 0x120 DUP9 ADD MLOAD PUSH1 0x8 DUP5 ADD SSTORE PUSH2 0x140 SWAP1 SWAP8 ADD MLOAD PUSH1 0x9 SWAP1 SWAP3 ADD DUP1 SLOAD PUSH1 0xFF NOT AND SWAP3 DUP9 AND SWAP3 SWAP1 SWAP3 OR SWAP1 SWAP2 SSTORE CALLER DUP1 DUP6 MSTORE SWAP1 DUP6 MSTORE DUP2 DUP5 KECCAK256 DUP1 SLOAD SWAP4 DUP5 ADD DUP2 SSTORE DUP5 MSTORE SWAP3 DUP5 SWAP1 KECCAK256 SWAP1 SWAP2 ADD DUP6 SWAP1 SSTORE DUP1 MLOAD DUP9 DUP2 MSTORE SWAP4 DUP7 AND SWAP3 DUP5 ADD SWAP3 SWAP1 SWAP3 MSTORE SWAP2 DUP4 SWAP2 PUSH32 0x777FAA44F45AF96105BD34FF5ED16F195AFC71FF2A37560BBC675164BC1BD58D SWAP2 ADD PUSH1 0x40 MLOAD DUP1 SWAP2 SUB SWAP1 LOG3 POP POP POP POP JUMP JUMPDEST PUSH2 0xE00 DUP3 PUSH2 0x592 JUMP JUMPDEST PUSH2 0xE09 DUP2 PUSH2 0x10E2 JUMP JUMPDEST PUSH2 0x5D0 DUP4 DUP4 PUSH2 0x1194 JUMP JUMPDEST PUSH1 0x0 DUP2 DUP2 MSTORE PUSH1 0x3 PUSH1 0x20 MSTORE PUSH1 0x40 SWAP1 KECCAK256 PUSH1 0x5 DUP2 ADD SLOAD PUSH2 0x100 SWAP1 DIV PUSH1 0xFF AND PUSH2 0xE70 JUMPI PUSH1 0x40 MLOAD PUSH3 0x461BCD PUSH1 0xE5 SHL DUP2 MSTORE PUSH1 0x20 PUSH1 0x4 DUP3 ADD MSTORE PUSH1 0x13 PUSH1 0x24 DUP3 ADD MSTORE PUSH19 0x506F736974696F6E206E6F7420616374697665 PUSH1 0x68 SHL PUSH1 0x44 DUP3 ADD MSTORE PUSH1 0x64 ADD PUSH2 0x9EB JUMP JUMPDEST DUP1 PUSH1 0x8 ADD SLOAD TIMESTAMP LT ISZERO PUSH2 0xEBD JUMPI PUSH1 0x40 MLOAD PUSH3 0x461BCD PUSH1 0xE5 SHL DUP2 MSTORE PUSH1 0x20 PUSH1 0x4 DUP3 ADD MSTORE PUSH1 0x16 PUSH1 0x24 DUP3 ADD MSTORE PUSH22 0x151BDBC819585C9B1E48199BDC881B995E1D08139195 PUSH1 0x52 SHL PUSH1 0x44 DUP3 ADD MSTORE PUSH1 0x64 ADD PUSH2 0x9EB JUMP JUMPDEST PUSH1 0x0 PUSH3 0x278D00 DUP3 PUSH1 0x4 ADD SLOAD PUSH2 0xED2 SWAP2 SWAP1 PUSH2 0x156E JUMP JUMPDEST PUSH1 0x9 DUP4 ADD SLOAD SWAP1 SWAP2 POP PUSH1 0xFF AND DUP2 GT PUSH2 0xF1D JUMPI PUSH1 0x40 MLOAD PUSH3 0x461BCD PUSH1 0xE5 SHL DUP2 MSTORE PUSH1 0x20 PUSH1 0x4 DUP3 ADD MSTORE PUSH1 0xF PUSH1 0x24 DUP3 ADD MSTORE PUSH15 0x105B1B081391951CC81B5A5B9D1959 PUSH1 0x8A SHL PUSH1 0x44 DUP3 ADD MSTORE PUSH1 0x64 ADD PUSH2 0x9EB JUMP JUMPDEST PUSH1 0x2 SLOAD PUSH1 0x1 PUSH1 0x1 PUSH1 0xA0 SHL SUB AND ISZERO PUSH2 0x101D JUMPI PUSH1 0x2 DUP1 SLOAD PUSH1 0x1 DUP5 ADD SLOAD SWAP2 DUP5 ADD SLOAD PUSH1 0x4 DUP6 ADD SLOAD PUSH1 0x1 PUSH1 0x1 PUSH1 0xA0 SHL SUB SWAP3 DUP4 AND SWAP4 PUSH4 0xF4FB8159 SWAP4 AND SWAP2 DUP8 SWAP2 PUSH2 0xF64 SWAP1 PUSH3 0x278D00 SWAP1 PUSH2 0x156E JUMP JUMPDEST PUSH1 0x3 DUP9 ADD SLOAD PUSH1 0x9 DUP10 ADD SLOAD PUSH1 0x8 DUP11 ADD SLOAD PUSH1 0xFF SWAP1 SWAP2 AND SWAP1 PUSH2 0xF87 SWAP1 PUSH3 0x278D00 SWAP1 PUSH2 0x155B JUMP JUMPDEST PUSH1 0x40 MLOAD PUSH1 0x1 PUSH1 0x1 PUSH1 0xE0 SHL SUB NOT PUSH1 0xE0 DUP11 SWAP1 SHL AND DUP2 MSTORE PUSH1 0x1 PUSH1 0x1 PUSH1 0xA0 SHL SUB SWAP1 SWAP8 AND PUSH1 0x4 DUP9 ADD MSTORE PUSH1 0x24 DUP8 ADD SWAP6 SWAP1 SWAP6 MSTORE PUSH1 0x44 DUP7 ADD SWAP4 SWAP1 SWAP4 MSTORE PUSH1 0x64 DUP6 ADD SWAP2 SWAP1 SWAP2 MSTORE PUSH1 0x84 DUP5 ADD MSTORE PUSH1 0xFF AND PUSH1 0xA4 DUP4 ADD MSTORE PUSH1 0xC4 DUP3 ADD MSTORE PUSH1 0xE4 ADD PUSH1 0x20 PUSH1 0x40 MLOAD DUP1 DUP4 SUB DUP2 PUSH1 0x0 DUP8 GAS CALL ISZERO DUP1 ISZERO PUSH2 0xFF7 JUMPI RETURNDATASIZE PUSH1 0x0 DUP1 RETURNDATACOPY RETURNDATASIZE PUSH1 0x0 REVERT JUMPDEST POP POP POP POP PUSH1 0x40 MLOAD RETURNDATASIZE PUSH1 0x1F NOT PUSH1 0x1F DUP3 ADD AND DUP3 ADD DUP1 PUSH1 0x40 MSTORE POP DUP2 ADD SWAP1 PUSH2 0x101B SWAP2 SWAP1 PUSH2 0x1590 JUMP JUMPDEST POP JUMPDEST PUSH1 0x9 DUP3 ADD DUP1 SLOAD PUSH1 0x1 SWAP2 SWAP1 PUSH1 0x0 SWAP1 PUSH2 0x1038 SWAP1 DUP5 SWAP1 PUSH1 0xFF AND PUSH2 0x15A9 JUMP JUMPDEST SWAP3 POP PUSH2 0x100 EXP DUP2 SLOAD DUP2 PUSH1 0xFF MUL NOT AND SWAP1 DUP4 PUSH1 0xFF AND MUL OR SWAP1 SSTORE POP PUSH3 0x278D00 DUP3 PUSH1 0x8 ADD PUSH1 0x0 DUP3 DUP3 SLOAD PUSH2 0x1067 SWAP2 SWAP1 PUSH2 0x155B JUMP JUMPDEST SWAP1 SWAP2 SSTORE POP POP POP POP POP JUMP JUMPDEST PUSH1 0xFF DUP5 AND PUSH1 0x0 DUP2 DUP2 MSTORE PUSH1 0x5 PUSH1 0x20 SWAP1 DUP2 MSTORE PUSH1 0x40 DUP1 DUP4 KECCAK256 DUP8 SWAP1 SSTORE PUSH1 0x6 DUP3 MSTORE DUP1 DUP4 KECCAK256 DUP7 SWAP1 SSTORE PUSH1 0x7 DUP3 MSTORE SWAP2 DUP3 SWAP1 KECCAK256 DUP5 SWAP1 SSTORE DUP2 MLOAD DUP7 DUP2 MSTORE SWAP1 DUP2 ADD DUP6 SWAP1 MSTORE SWAP1 DUP2 ADD DUP4 SWAP1 MSTORE PUSH32 0x8A8BE32F561BAE947D8A12913D5DDBCB7EB4B7E8DB9D7474CE283D37ADB1AB73 SWAP1 PUSH1 0x60 ADD PUSH1 0x40 MLOAD DUP1 SWAP2 SUB SWAP1 LOG2 POP POP POP POP JUMP JUMPDEST PUSH2 0x10EC DUP2 CALLER PUSH2 0x1253 JUMP JUMPDEST POP JUMP JUMPDEST PUSH1 0x0 PUSH1 0x0 DUP1 MLOAD PUSH1 0x20 PUSH2 0x15C3 DUP4 CODECOPY DUP2 MLOAD SWAP2 MSTORE PUSH2 0x110A DUP5 DUP5 PUSH2 0x954 JUMP JUMPDEST PUSH2 0x118A JUMPI PUSH1 0x0 DUP5 DUP2 MSTORE PUSH1 0x20 DUP3 DUP2 MSTORE PUSH1 0x40 DUP1 DUP4 KECCAK256 PUSH1 0x1 PUSH1 0x1 PUSH1 0xA0 SHL SUB DUP8 AND DUP5 MSTORE SWAP1 SWAP2 MSTORE SWAP1 KECCAK256 DUP1 SLOAD PUSH1 0xFF NOT AND PUSH1 0x1 OR SWAP1 SSTORE PUSH2 0x1140 CALLER SWAP1 JUMP JUMPDEST PUSH1 0x1 PUSH1 0x1 PUSH1 0xA0 SHL SUB AND DUP4 PUSH1 0x1 PUSH1 0x1 PUSH1 0xA0 SHL SUB AND DUP6 PUSH32 0x2F8788117E7EFF1D82E926EC794901D17C78024A50270940304540A733656F0D PUSH1 0x40 MLOAD PUSH1 0x40 MLOAD DUP1 SWAP2 SUB SWAP1 LOG4 PUSH1 0x1 SWAP2 POP POP PUSH2 0x58C JUMP JUMPDEST PUSH1 0x0 SWAP2 POP POP PUSH2 0x58C JUMP JUMPDEST PUSH1 0x0 PUSH1 0x0 DUP1 MLOAD PUSH1 0x20 PUSH2 0x15C3 DUP4 CODECOPY DUP2 MLOAD SWAP2 MSTORE PUSH2 0x11AF DUP5 DUP5 PUSH2 0x954 JUMP JUMPDEST ISZERO PUSH2 0x118A JUMPI PUSH1 0x0 DUP5 DUP2 MSTORE PUSH1 0x20 DUP3 DUP2 MSTORE PUSH1 0x40 DUP1 DUP4 KECCAK256 PUSH1 0x1 PUSH1 0x1 PUSH1 0xA0 SHL SUB DUP8 AND DUP1 DUP6 MSTORE SWAP3 MSTORE DUP1 DUP4 KECCAK256 DUP1 SLOAD PUSH1 0xFF NOT AND SWAP1 SSTORE MLOAD CALLER SWAP3 DUP8 SWAP2 PUSH32 0xF6391F5C32D9C69D2A47EA670B442974B53935D1EDC7FD64EB21E047A839171B SWAP2 SWAP1 LOG4 PUSH1 0x1 SWAP2 POP POP PUSH2 0x58C JUMP JUMPDEST PUSH1 0x0 DUP1 PUSH32 0xF0C57E16840DF040F15088DC2F81FE391C3923BEC73E23A9662EFC9C229C6A00 PUSH2 0x58C JUMP JUMPDEST PUSH2 0x1241 PUSH2 0x1290 JUMP JUMPDEST JUMP JUMPDEST PUSH2 0x124B PUSH2 0x1290 JUMP JUMPDEST PUSH2 0x1241 PUSH2 0x12B5 JUMP JUMPDEST PUSH2 0x125D DUP3 DUP3 PUSH2 0x954 JUMP JUMPDEST PUSH2 0x128C JUMPI PUSH1 0x40 MLOAD PUSH4 0xE2517D3F PUSH1 0xE0 SHL DUP2 MSTORE PUSH1 0x1 PUSH1 0x1 PUSH1 0xA0 SHL SUB DUP3 AND PUSH1 0x4 DUP3 ADD MSTORE PUSH1 0x24 DUP2 ADD DUP4 SWAP1 MSTORE PUSH1 0x44 ADD PUSH2 0x9EB JUMP JUMPDEST POP POP JUMP JUMPDEST PUSH2 0x1298 PUSH2 0x12E3 JUMP JUMPDEST PUSH2 0x1241 JUMPI PUSH1 0x40 MLOAD PUSH4 0x1AFCD79F PUSH1 0xE3 SHL DUP2 MSTORE PUSH1 0x4 ADD PUSH1 0x40 MLOAD DUP1 SWAP2 SUB SWAP1 REVERT JUMPDEST PUSH2 0x12BD PUSH2 0x1290 JUMP JUMPDEST PUSH1 0x1 PUSH32 0x9B779B17422D0DF92223018B32B4D1FA46E071723D6817E2486D003BECC55F00 SSTORE JUMP JUMPDEST PUSH1 0x0 PUSH2 0x12ED PUSH2 0x1210 JUMP JUMPDEST SLOAD PUSH1 0x1 PUSH1 0x40 SHL SWAP1 DIV PUSH1 0xFF AND SWAP2 SWAP1 POP JUMP JUMPDEST PUSH1 0x0 PUSH1 0x20 DUP3 DUP5 SUB SLT ISZERO PUSH2 0x130F JUMPI PUSH1 0x0 DUP1 REVERT JUMPDEST DUP2 CALLDATALOAD PUSH1 0x1 PUSH1 0x1 PUSH1 0xE0 SHL SUB NOT DUP2 AND DUP2 EQ PUSH2 0x1327 JUMPI PUSH1 0x0 DUP1 REVERT JUMPDEST SWAP4 SWAP3 POP POP POP JUMP JUMPDEST PUSH1 0x0 PUSH1 0x20 DUP3 DUP5 SUB SLT ISZERO PUSH2 0x1340 JUMPI PUSH1 0x0 DUP1 REVERT JUMPDEST POP CALLDATALOAD SWAP2 SWAP1 POP JUMP JUMPDEST DUP1 CALLDATALOAD PUSH1 0x1 PUSH1 0x1 PUSH1 0xA0 SHL SUB DUP2 AND DUP2 EQ PUSH2 0x135E JUMPI PUSH1 0x0 DUP1 REVERT JUMPDEST SWAP2 SWAP1 POP JUMP JUMPDEST PUSH1 0x0 DUP1 PUSH1 0x40 DUP4 DUP6 SUB SLT ISZERO PUSH2 0x1376 JUMPI PUSH1 0x0 DUP1 REVERT JUMPDEST DUP3 CALLDATALOAD SWAP2 POP PUSH2 0x1386 PUSH1 0x20 DUP5 ADD PUSH2 0x1347 JUMP JUMPDEST SWAP1 POP SWAP3 POP SWAP3 SWAP1 POP JUMP JUMPDEST PUSH1 0x0 DUP1 PUSH1 0x40 DUP4 DUP6 SUB SLT ISZERO PUSH2 0x13A2 JUMPI PUSH1 0x0 DUP1 REVERT JUMPDEST PUSH2 0x13AB DUP4 PUSH2 0x1347 JUMP JUMPDEST SWAP2 POP PUSH2 0x1386 PUSH1 0x20 DUP5 ADD PUSH2 0x1347 JUMP JUMPDEST PUSH1 0x20 DUP2 MSTORE PUSH1 0x0 DUP3 MLOAD DUP1 PUSH1 0x20 DUP5 ADD MSTORE PUSH1 0x0 JUMPDEST DUP2 DUP2 LT ISZERO PUSH2 0x13E7 JUMPI PUSH1 0x20 DUP2 DUP7 ADD DUP2 ADD MLOAD PUSH1 0x40 DUP7 DUP5 ADD ADD MSTORE ADD PUSH2 0x13CA JUMP JUMPDEST POP PUSH1 0x0 PUSH1 0x40 DUP3 DUP6 ADD ADD MSTORE PUSH1 0x40 PUSH1 0x1F NOT PUSH1 0x1F DUP4 ADD AND DUP5 ADD ADD SWAP2 POP POP SWAP3 SWAP2 POP POP JUMP JUMPDEST DUP1 CALLDATALOAD PUSH1 0xFF DUP2 AND DUP2 EQ PUSH2 0x135E JUMPI PUSH1 0x0 DUP1 REVERT JUMPDEST PUSH1 0x0 PUSH1 0x20 DUP3 DUP5 SUB SLT ISZERO PUSH2 0x142A JUMPI PUSH1 0x0 DUP1 REVERT JUMPDEST PUSH2 0x1327 DUP3 PUSH2 0x1407 JUMP JUMPDEST PUSH1 0x0 DUP1 PUSH1 0x40 DUP4 DUP6 SUB SLT ISZERO PUSH2 0x1446 JUMPI PUSH1 0x0 DUP1 REVERT JUMPDEST PUSH2 0x144F DUP4 PUSH2 0x1347 JUMP JUMPDEST SWAP5 PUSH1 0x20 SWAP4 SWAP1 SWAP4 ADD CALLDATALOAD SWAP4 POP POP POP JUMP JUMPDEST PUSH1 0x0 PUSH1 0x20 DUP3 DUP5 SUB SLT ISZERO PUSH2 0x146F JUMPI PUSH1 0x0 DUP1 REVERT JUMPDEST PUSH2 0x1327 DUP3 PUSH2 0x1347 JUMP JUMPDEST PUSH1 0x0 DUP1 PUSH1 0x40 DUP4 DUP6 SUB SLT ISZERO PUSH2 0x148B JUMPI PUSH1 0x0 DUP1 REVERT JUMPDEST POP POP DUP1 CALLDATALOAD SWAP3 PUSH1 0x20 SWAP1 SWAP2 ADD CALLDATALOAD SWAP2 POP JUMP JUMPDEST PUSH1 0x0 DUP1 PUSH1 0x0 DUP1 PUSH1 0x80 DUP6 DUP8 SUB SLT ISZERO PUSH2 0x14B0 JUMPI PUSH1 0x0 DUP1 REVERT JUMPDEST PUSH2 0x14B9 DUP6 PUSH2 0x1407 JUMP JUMPDEST SWAP7 PUSH1 0x20 DUP7 ADD CALLDATALOAD SWAP7 POP PUSH1 0x40 DUP7 ADD CALLDATALOAD SWAP6 PUSH1 0x60 ADD CALLDATALOAD SWAP5 POP SWAP3 POP POP POP JUMP JUMPDEST PUSH1 0x0 PUSH1 0x20 DUP3 DUP5 SUB SLT ISZERO PUSH2 0x14E5 JUMPI PUSH1 0x0 DUP1 REVERT JUMPDEST DUP2 MLOAD PUSH1 0x4 DUP2 LT PUSH2 0x1327 JUMPI PUSH1 0x0 DUP1 REVERT JUMPDEST PUSH4 0x4E487B71 PUSH1 0xE0 SHL PUSH1 0x0 MSTORE PUSH1 0x21 PUSH1 0x4 MSTORE PUSH1 0x24 PUSH1 0x0 REVERT JUMPDEST PUSH1 0x0 PUSH1 0x20 DUP3 DUP5 SUB SLT ISZERO PUSH2 0x151C JUMPI PUSH1 0x0 DUP1 REVERT JUMPDEST DUP2 MLOAD DUP1 ISZERO ISZERO DUP2 EQ PUSH2 0x1327 JUMPI PUSH1 0x0 DUP1 REVERT JUMPDEST PUSH4 0x4E487B71 PUSH1 0xE0 SHL PUSH1 0x0 MSTORE PUSH1 0x11 PUSH1 0x4 MSTORE PUSH1 0x24 PUSH1 0x0 REVERT JUMPDEST PUSH1 0x0 PUSH1 0x1 DUP3 ADD PUSH2 0x1554 JUMPI PUSH2 0x1554 PUSH2 0x152C JUMP JUMPDEST POP PUSH1 0x1 ADD SWAP1 JUMP JUMPDEST DUP1 DUP3 ADD DUP1 DUP3 GT ISZERO PUSH2 0x58C JUMPI PUSH2 0x58C PUSH2 0x152C JUMP JUMPDEST PUSH1 0x0 DUP3 PUSH2 0x158B JUMPI PUSH4 0x4E487B71 PUSH1 0xE0 SHL PUSH1 0x0 MSTORE PUSH1 0x12 PUSH1 0x4 MSTORE PUSH1 0x24 PUSH1 0x0 REVERT JUMPDEST POP DIV SWAP1 JUMP JUMPDEST PUSH1 0x0 PUSH1 0x20 DUP3 DUP5 SUB SLT ISZERO PUSH2 0x15A2 JUMPI PUSH1 0x0 DUP1 REVERT JUMPDEST POP MLOAD SWAP2 SWAP1 POP JUMP JUMPDEST PUSH1 0xFF DUP2 DUP2 AND DUP4 DUP3 AND ADD SWAP1 DUP2 GT ISZERO PUSH2 0x58C JUMPI PUSH2 0x58C PUSH2 0x152C JUMP INVALID MUL 0xDD PUSH28 0xC7DEC4DCEEDDA775E58DD541E08A116C6C53815C0BD028192F7B6268 STOP LOG2 PUSH5 0x6970667358 0x22 SLT KECCAK256 0xE5 0xB2 0xE1 0xC6 PUSH14 0x66B91A88F4FBD191F470F229C8B SWAP16 MSIZE 0xD6 0xDE 0xC 0xD6 LOG1 0xD3 SWAP11 DUP7 0xB5 RETURN 0xD PUSH5 0x736F6C6343 STOP ADDMOD SHR STOP CALLER "},"methodIdentifiers":{"ADMIN_ROLE()":"75b238fc","DEFAULT_ADMIN_ROLE()":"a217fddf","MINTER_ROLE()":"d5391393","REWARD_INTERVAL()":"5dbdda69","createPosition(uint256,uint256)":"d1aaef05","getRoleAdmin(bytes32)":"248a9ca3","getTierDuration(uint8)":"5e07e877","getTierMinAmount(uint8)":"fc640da5","getTierWeight(uint8)":"ca059910","grantRole(bytes32,address)":"2f2ff15d","hasRole(bytes32,address)":"91d14854","initialize(address,address)":"485cc955","mintNextNFT(uint256)":"f883462c","nextPositionId()":"899346c7","nftFactory()":"d63843cd","positions(uint256)":"99fbab88","renounceRole(bytes32,address)":"36568abe","revokeRole(bytes32,address)":"d547741f","setNFTFactory(address)":"cb2d93ce","stakingToken()":"72f702f3","supportsInterface(bytes4)":"01ffc9a7","tierCalculator()":"be0f2b88","tierDurations(uint8)":"6551ab2a","tierMinAmounts(uint8)":"df6756a1","tierWeights(uint8)":"92935236","updateTierRequirements(uint8,uint256,uint256,uint256)":"f8d459f0","userPositions(address,uint256)":"5e1b4d99","version()":"54fd4d50"}},"storageLayout":{"storage":[{"astId":1145,"contract":"contracts/UpgradeableMultiStakeManagerV2.sol:UpgradeableMultiStakeManagerV2","label":"stakingToken","offset":0,"slot":"0","type":"t_contract(IERC20)1008"},{"astId":1148,"contract":"contracts/UpgradeableMultiStakeManagerV2.sol:UpgradeableMultiStakeManagerV2","label":"tierCalculator","offset":0,"slot":"1","type":"t_contract(ITierCalculator)1096"},{"astId":1151,"contract":"contracts/UpgradeableMultiStakeManagerV2.sol:UpgradeableMultiStakeManagerV2","label":"nftFactory","offset":0,"slot":"2","type":"t_contract(IPADNFTFactory)1124"},{"astId":1179,"contract":"contracts/UpgradeableMultiStakeManagerV2.sol:UpgradeableMultiStakeManagerV2","label":"positions","offset":0,"slot":"3","type":"t_mapping(t_uint256,t_struct(StakingPosition)1174_storage)"},{"astId":1184,"contract":"contracts/UpgradeableMultiStakeManagerV2.sol:UpgradeableMultiStakeManagerV2","label":"userPositions","offset":0,"slot":"4","type":"t_mapping(t_address,t_array(t_uint256)dyn_storage)"},{"astId":1188,"contract":"contracts/UpgradeableMultiStakeManagerV2.sol:UpgradeableMultiStakeManagerV2","label":"tierWeights","offset":0,"slot":"5","type":"t_mapping(t_uint8,t_uint256)"},{"astId":1192,"contract":"contracts/UpgradeableMultiStakeManagerV2.sol:UpgradeableMultiStakeManagerV2","label":"tierDurations","offset":0,"slot":"6","type":"t_mapping(t_uint8,t_uint256)"},{"astId":1196,"contract":"contracts/UpgradeableMultiStakeManagerV2.sol:UpgradeableMultiStakeManagerV2","label":"tierMinAmounts","offset":0,"slot":"7","type":"t_mapping(t_uint8,t_uint256)"},{"astId":1198,"contract":"contracts/UpgradeableMultiStakeManagerV2.sol:UpgradeableMultiStakeManagerV2","label":"nextPositionId","offset":0,"slot":"8","type":"t_uint256"}],"types":{"t_address":{"encoding":"inplace","label":"address","numberOfBytes":"20"},"t_array(t_uint256)dyn_storage":{"base":"t_uint256","encoding":"dynamic_array","label":"uint256[]","numberOfBytes":"32"},"t_bool":{"encoding":"inplace","label":"bool","numberOfBytes":"1"},"t_contract(IERC20)1008":{"encoding":"inplace","label":"contract IERC20","numberOfBytes":"20"},"t_contract(IPADNFTFactory)1124":{"encoding":"inplace","label":"contract IPADNFTFactory","numberOfBytes":"20"},"t_contract(ITierCalculator)1096":{"encoding":"inplace","label":"contract ITierCalculator","numberOfBytes":"20"},"t_mapping(t_address,t_array(t_uint256)dyn_storage)":{"encoding":"mapping","key":"t_address","label":"mapping(address => uint256[])","numberOfBytes":"32","value":"t_array(t_uint256)dyn_storage"},"t_mapping(t_uint256,t_struct(StakingPosition)1174_storage)":{"encoding":"mapping","key":"t_uint256","label":"mapping(uint256 => struct UpgradeableMultiStakeManagerV2.StakingPosition)","numberOfBytes":"32","value":"t_struct(StakingPosition)1174_storage"},"t_mapping(t_uint8,t_uint256)":{"encoding":"mapping","key":"t_uint8","label":"mapping(uint8 => uint256)","numberOfBytes":"32","value":"t_uint256"},"t_struct(StakingPosition)1174_storage":{"encoding":"inplace","label":"struct UpgradeableMultiStakeManagerV2.StakingPosition","members":[{"astId":1153,"contract":"contracts/UpgradeableMultiStakeManagerV2.sol:UpgradeableMultiStakeManagerV2","label":"id","offset":0,"slot":"0","type":"t_uint256"},{"astId":1155,"contract":"contracts/UpgradeableMultiStakeManagerV2.sol:UpgradeableMultiStakeManagerV2","label":"owner","offset":0,"slot":"1","type":"t_address"},{"astId":1157,"contract":"contracts/UpgradeableMultiStakeManagerV2.sol:UpgradeableMultiStakeManagerV2","label":"amount","offset":0,"slot":"2","type":"t_uint256"},{"astId":1159,"contract":"contracts/UpgradeableMultiStakeManagerV2.sol:UpgradeableMultiStakeManagerV2","label":"startTime","offset":0,"slot":"3","type":"t_uint256"},{"astId":1161,"contract":"contracts/UpgradeableMultiStakeManagerV2.sol:UpgradeableMultiStakeManagerV2","label":"duration","offset":0,"slot":"4","type":"t_uint256"},{"astId":1163,"contract":"contracts/UpgradeableMultiStakeManagerV2.sol:UpgradeableMultiStakeManagerV2","label":"tier","offset":0,"slot":"5","type":"t_uint8"},{"astId":1165,"contract":"contracts/UpgradeableMultiStakeManagerV2.sol:UpgradeableMultiStakeManagerV2","label":"isActive","offset":1,"slot":"5","type":"t_bool"},{"astId":1167,"contract":"contracts/UpgradeableMultiStakeManagerV2.sol:UpgradeableMultiStakeManagerV2","label":"lastClaimTime","offset":0,"slot":"6","type":"t_uint256"},{"astId":1169,"contract":"contracts/UpgradeableMultiStakeManagerV2.sol:UpgradeableMultiStakeManagerV2","label":"totalClaimed","offset":0,"slot":"7","type":"t_uint256"},{"astId":1171,"contract":"contracts/UpgradeableMultiStakeManagerV2.sol:UpgradeableMultiStakeManagerV2","label":"nextMintAt","offset":0,"slot":"8","type":"t_uint256"},{"astId":1173,"contract":"contracts/UpgradeableMultiStakeManagerV2.sol:UpgradeableMultiStakeManagerV2","label":"monthIndex","offset":0,"slot":"9","type":"t_uint8"}],"numberOfBytes":"320"},"t_uint256":{"encoding":"inplace","label":"uint256","numberOfBytes":"32"},"t_uint8":{"encoding":"inplace","label":"uint8","numberOfBytes":"1"}}}}}}