{
  "_format": "hh-sol-artifact-1",
  "contractName": "NewTierCalculator",
  "sourceName": "contracts/NewTierCalculator.sol",
  "abi": [
    {
      "inputs": [
        {
          "internalType": "uint256",
          "name": "duration",
          "type": "uint256"
        }
      ],
      "name": "getTier",
      "outputs": [
        {
          "internalType": "uint8",
          "name": "",
          "type": "uint8"
        }
      ],
      "stateMutability": "pure",
      "type": "function"
    },
    {
      "inputs": [
        {
          "internalType": "uint8",
          "name": "tier",
          "type": "uint8"
        }
      ],
      "name": "getTierDuration",
      "outputs": [
        {
          "internalType": "uint256",
          "name": "",
          "type": "uint256"
        }
      ],
      "stateMutability": "pure",
      "type": "function"
    },
    {
      "inputs": [
        {
          "internalType": "uint8",
          "name": "tier",
          "type": "uint8"
        }
      ],
      "name": "getTierMinAmount",
      "outputs": [
        {
          "internalType": "uint256",
          "name": "",
          "type": "uint256"
        }
      ],
      "stateMutability": "pure",
      "type": "function"
    },
    {
      "inputs": [
        {
          "internalType": "uint8",
          "name": "tier",
          "type": "uint8"
        }
      ],
      "name": "getTierName",
      "outputs": [
        {
          "internalType": "string",
          "name": "",
          "type": "string"
        }
      ],
      "stateMutability": "pure",
      "type": "function"
    }
  ],
  "bytecode": "0x6080604052348015600f57600080fd5b506103988061001f6000396000f3fe608060405234801561001057600080fd5b506004361061004c5760003560e01c80634f062c5a146100515780635e07e8771461007b578063e64bd5931461009c578063fc640da5146100bc575b600080fd5b61006461005f3660046102d1565b6100cf565b60405160ff90911681526020015b60405180910390f35b61008e6100893660046102ea565b61011d565b604051908152602001610072565b6100af6100aa3660046102ea565b610178565b6040516100729190610314565b61008e6100ca3660046102ea565b610251565b600061708082106100e257506003919050565b61546082106100f357506002919050565b613840821061010457506001919050565b611c20821061011557506000919050565b506000919050565b60008160ff166000036101335750611c20919050565b8160ff166001036101475750613840919050565b8160ff1660020361015b5750615460919050565b8160ff1660030361016f5750617080919050565b50611c20919050565b60608160ff166000036101a757505060408051808201909152600681526542726f6e7a6560d01b602082015290565b8160ff166001036101d457505060408051808201909152600681526529b4b63b32b960d11b602082015290565b8160ff166002036101ff57505060408051808201909152600481526311dbdb1960e21b602082015290565b8160ff1660030361022e575050604080518082019091526008815267506c6174696e756d60c01b602082015290565b50506040805180820190915260078152662ab735b737bbb760c91b602082015290565b60008160ff1660000361026e5750683635c9adc5dea00000919050565b8160ff166001036102895750686c6b935b8bbd400000919050565b8160ff166002036102a5575069010f0cf064dd59200000919050565b8160ff166003036102c1575069021e19e0c9bab2400000919050565b50683635c9adc5dea00000919050565b6000602082840312156102e357600080fd5b5035919050565b6000602082840312156102fc57600080fd5b813560ff8116811461030d57600080fd5b9392505050565b602081526000825180602084015260005b818110156103425760208186018101516040868401015201610325565b506000604082850101526040601f19601f8301168401019150509291505056fea264697066735822122085aedec30cacbc6d9cd1af7d82b56ecdc9c8a04d91eadad83b81e4f5d5d7cb5764736f6c634300081c0033",
  "linkReferences": {},
  "deployedLinkReferences": {}
}