{
  "_format": "hh-sol-artifact-1",
  "contractName": "DateUtilsHelper",
  "sourceName": "contracts/DateUtilsHelper.sol",
  "abi": [
    {
      "inputs": [
        {
          "internalType": "uint256",
          "name": "timestamp",
          "type": "uint256"
        },
        {
          "internalType": "uint256",
          "name": "months",
          "type": "uint256"
        }
      ],
      "name": "addMonths",
      "outputs": [
        {
          "internalType": "uint256",
          "name": "",
          "type": "uint256"
        }
      ],
      "stateMutability": "pure",
      "type": "function"
    },
    {
      "inputs": [
        {
          "internalType": "uint256",
          "name": "start",
          "type": "uint256"
        },
        {
          "internalType": "uint256",
          "name": "end",
          "type": "uint256"
        }
      ],
      "name": "monthsBetween",
      "outputs": [
        {
          "internalType": "uint256",
          "name": "",
          "type": "uint256"
        }
      ],
      "stateMutability": "pure",
      "type": "function"
    }
  ],
  "bytecode": "0x6080604052348015600f57600080fd5b506101f08061001f6000396000f3fe608060405234801561001057600080fd5b50600436106100365760003560e01c80634355644d1461003b5780639d883e4114610060575b600080fd5b61004e610049366004610123565b610073565b60405190815260200160405180910390f35b61004e61006e366004610123565b610088565b600061007f8383610094565b90505b92915050565b600061007f83836100b8565b60006100a462015180601e61015b565b6100ae908361015b565b61007f9084610172565b6000828210156101015760405162461bcd60e51b815260206004820152601060248201526f115b99081899599bdc99481cdd185c9d60821b604482015260640160405180910390fd5b61010f62015180601e61015b565b6101198484610185565b61007f9190610198565b6000806040838503121561013657600080fd5b50508035926020909101359150565b634e487b7160e01b600052601160045260246000fd5b808202811582820484141761008257610082610145565b8082018082111561008257610082610145565b8181038181111561008257610082610145565b6000826101b557634e487b7160e01b600052601260045260246000fd5b50049056fea26469706673582212207fbf29e485b4e14e93a72ea9828fed5e7ae449604639629b91c8d397c89dd00164736f6c634300081c0033",
  "linkReferences": {},
  "deployedLinkReferences": {}
}