{
  "_format": "hh-sol-artifact-1",
  "contractName": "PADNFTFactoryV2",
  "sourceName": "contracts/PADNFTFactoryV2.sol",
  "abi": [
    {
      "inputs": [],
      "stateMutability": "nonpayable",
      "type": "constructor"
    },
    {
      "inputs": [],
      "name": "AccessControlBadConfirmation",
      "type": "error"
    },
    {
      "inputs": [
        {
          "internalType": "address",
          "name": "account",
          "type": "address"
        },
        {
          "internalType": "bytes32",
          "name": "neededRole",
          "type": "bytes32"
        }
      ],
      "name": "AccessControlUnauthorizedAccount",
      "type": "error"
    },
    {
      "inputs": [
        {
          "internalType": "address",
          "name": "target",
          "type": "address"
        }
      ],
      "name": "AddressEmptyCode",
      "type": "error"
    },
    {
      "inputs": [
        {
          "internalType": "address",
          "name": "implementation",
          "type": "address"
        }
      ],
      "name": "ERC1967InvalidImplementation",
      "type": "error"
    },
    {
      "inputs": [],
      "name": "ERC1967NonPayable",
      "type": "error"
    },
    {
      "inputs": [
        {
          "internalType": "address",
          "name": "sender",
          "type": "address"
        },
        {
          "internalType": "uint256",
          "name": "tokenId",
          "type": "uint256"
        },
        {
          "internalType": "address",
          "name": "owner",
          "type": "address"
        }
      ],
      "name": "ERC721IncorrectOwner",
      "type": "error"
    },
    {
      "inputs": [
        {
          "internalType": "address",
          "name": "operator",
          "type": "address"
        },
        {
          "internalType": "uint256",
          "name": "tokenId",
          "type": "uint256"
        }
      ],
      "name": "ERC721InsufficientApproval",
      "type": "error"
    },
    {
      "inputs": [
        {
          "internalType": "address",
          "name": "approver",
          "type": "address"
        }
      ],
      "name": "ERC721InvalidApprover",
      "type": "error"
    },
    {
      "inputs": [
        {
          "internalType": "address",
          "name": "operator",
          "type": "address"
        }
      ],
      "name": "ERC721InvalidOperator",
      "type": "error"
    },
    {
      "inputs": [
        {
          "internalType": "address",
          "name": "owner",
          "type": "address"
        }
      ],
      "name": "ERC721InvalidOwner",
      "type": "error"
    },
    {
      "inputs": [
        {
          "internalType": "address",
          "name": "receiver",
          "type": "address"
        }
      ],
      "name": "ERC721InvalidReceiver",
      "type": "error"
    },
    {
      "inputs": [
        {
          "internalType": "address",
          "name": "sender",
          "type": "address"
        }
      ],
      "name": "ERC721InvalidSender",
      "type": "error"
    },
    {
      "inputs": [
        {
          "internalType": "uint256",
          "name": "tokenId",
          "type": "uint256"
        }
      ],
      "name": "ERC721NonexistentToken",
      "type": "error"
    },
    {
      "inputs": [],
      "name": "FailedCall",
      "type": "error"
    },
    {
      "inputs": [],
      "name": "InvalidInitialization",
      "type": "error"
    },
    {
      "inputs": [],
      "name": "InvalidTier",
      "type": "error"
    },
    {
      "inputs": [],
      "name": "NotInitializing",
      "type": "error"
    },
    {
      "inputs": [],
      "name": "OnlyStakeManager",
      "type": "error"
    },
    {
      "inputs": [],
      "name": "UUPSUnauthorizedCallContext",
      "type": "error"
    },
    {
      "inputs": [
        {
          "internalType": "bytes32",
          "name": "slot",
          "type": "bytes32"
        }
      ],
      "name": "UUPSUnsupportedProxiableUUID",
      "type": "error"
    },
    {
      "anonymous": false,
      "inputs": [
        {
          "indexed": true,
          "internalType": "address",
          "name": "owner",
          "type": "address"
        },
        {
          "indexed": true,
          "internalType": "address",
          "name": "approved",
          "type": "address"
        },
        {
          "indexed": true,
          "internalType": "uint256",
          "name": "tokenId",
          "type": "uint256"
        }
      ],
      "name": "Approval",
      "type": "event"
    },
    {
      "anonymous": false,
      "inputs": [
        {
          "indexed": true,
          "internalType": "address",
          "name": "owner",
          "type": "address"
        },
        {
          "indexed": true,
          "internalType": "address",
          "name": "operator",
          "type": "address"
        },
        {
          "indexed": false,
          "internalType": "bool",
          "name": "approved",
          "type": "bool"
        }
      ],
      "name": "ApprovalForAll",
      "type": "event"
    },
    {
      "anonymous": false,
      "inputs": [
        {
          "indexed": false,
          "internalType": "string",
          "name": "oldURI",
          "type": "string"
        },
        {
          "indexed": false,
          "internalType": "string",
          "name": "newURI",
          "type": "string"
        }
      ],
      "name": "BaseURIUpdated",
      "type": "event"
    },
    {
      "anonymous": false,
      "inputs": [
        {
          "indexed": false,
          "internalType": "uint64",
          "name": "version",
          "type": "uint64"
        }
      ],
      "name": "Initialized",
      "type": "event"
    },
    {
      "anonymous": false,
      "inputs": [
        {
          "indexed": true,
          "internalType": "address",
          "name": "to",
          "type": "address"
        },
        {
          "indexed": true,
          "internalType": "uint256",
          "name": "tokenId",
          "type": "uint256"
        },
        {
          "indexed": false,
          "internalType": "uint256",
          "name": "positionId",
          "type": "uint256"
        },
        {
          "indexed": false,
          "internalType": "uint256",
          "name": "tier",
          "type": "uint256"
        }
      ],
      "name": "NFTMinted",
      "type": "event"
    },
    {
      "anonymous": false,
      "inputs": [
        {
          "indexed": true,
          "internalType": "bytes32",
          "name": "role",
          "type": "bytes32"
        },
        {
          "indexed": true,
          "internalType": "bytes32",
          "name": "previousAdminRole",
          "type": "bytes32"
        },
        {
          "indexed": true,
          "internalType": "bytes32",
          "name": "newAdminRole",
          "type": "bytes32"
        }
      ],
      "name": "RoleAdminChanged",
      "type": "event"
    },
    {
      "anonymous": false,
      "inputs": [
        {
          "indexed": true,
          "internalType": "bytes32",
          "name": "role",
          "type": "bytes32"
        },
        {
          "indexed": true,
          "internalType": "address",
          "name": "account",
          "type": "address"
        },
        {
          "indexed": true,
          "internalType": "address",
          "name": "sender",
          "type": "address"
        }
      ],
      "name": "RoleGranted",
      "type": "event"
    },
    {
      "anonymous": false,
      "inputs": [
        {
          "indexed": true,
          "internalType": "bytes32",
          "name": "role",
          "type": "bytes32"
        },
        {
          "indexed": true,
          "internalType": "address",
          "name": "account",
          "type": "address"
        },
        {
          "indexed": true,
          "internalType": "address",
          "name": "sender",
          "type": "address"
        }
      ],
      "name": "RoleRevoked",
      "type": "event"
    },
    {
      "anonymous": false,
      "inputs": [
        {
          "indexed": true,
          "internalType": "address",
          "name": "oldManager",
          "type": "address"
        },
        {
          "indexed": true,
          "internalType": "address",
          "name": "newManager",
          "type": "address"
        }
      ],
      "name": "StakeManagerUpdated",
      "type": "event"
    },
    {
      "anonymous": false,
      "inputs": [
        {
          "indexed": true,
          "internalType": "address",
          "name": "oldCalculator",
          "type": "address"
        },
        {
          "indexed": true,
          "internalType": "address",
          "name": "newCalculator",
          "type": "address"
        }
      ],
      "name": "TierCalculatorUpdated",
      "type": "event"
    },
    {
      "anonymous": false,
      "inputs": [
        {
          "indexed": true,
          "internalType": "address",
          "name": "from",
          "type": "address"
        },
        {
          "indexed": true,
          "internalType": "address",
          "name": "to",
          "type": "address"
        },
        {
          "indexed": true,
          "internalType": "uint256",
          "name": "tokenId",
          "type": "uint256"
        }
      ],
      "name": "Transfer",
      "type": "event"
    },
    {
      "anonymous": false,
      "inputs": [
        {
          "indexed": true,
          "internalType": "address",
          "name": "implementation",
          "type": "address"
        }
      ],
      "name": "Upgraded",
      "type": "event"
    },
    {
      "inputs": [],
      "name": "DEFAULT_ADMIN_ROLE",
      "outputs": [
        {
          "internalType": "bytes32",
          "name": "",
          "type": "bytes32"
        }
      ],
      "stateMutability": "view",
      "type": "function"
    },
    {
      "inputs": [],
      "name": "UPGRADE_INTERFACE_VERSION",
      "outputs": [
        {
          "internalType": "string",
          "name": "",
          "type": "string"
        }
      ],
      "stateMutability": "view",
      "type": "function"
    },
    {
      "inputs": [
        {
          "internalType": "address",
          "name": "to",
          "type": "address"
        },
        {
          "internalType": "uint256",
          "name": "tokenId",
          "type": "uint256"
        }
      ],
      "name": "approve",
      "outputs": [],
      "stateMutability": "nonpayable",
      "type": "function"
    },
    {
      "inputs": [
        {
          "internalType": "address",
          "name": "owner",
          "type": "address"
        }
      ],
      "name": "balanceOf",
      "outputs": [
        {
          "internalType": "uint256",
          "name": "",
          "type": "uint256"
        }
      ],
      "stateMutability": "view",
      "type": "function"
    },
    {
      "inputs": [
        {
          "internalType": "uint256",
          "name": "tokenId",
          "type": "uint256"
        }
      ],
      "name": "getApproved",
      "outputs": [
        {
          "internalType": "address",
          "name": "",
          "type": "address"
        }
      ],
      "stateMutability": "view",
      "type": "function"
    },
    {
      "inputs": [],
      "name": "getCurrentTokenId",
      "outputs": [
        {
          "internalType": "uint256",
          "name": "",
          "type": "uint256"
        }
      ],
      "stateMutability": "view",
      "type": "function"
    },
    {
      "inputs": [
        {
          "internalType": "bytes32",
          "name": "role",
          "type": "bytes32"
        }
      ],
      "name": "getRoleAdmin",
      "outputs": [
        {
          "internalType": "bytes32",
          "name": "",
          "type": "bytes32"
        }
      ],
      "stateMutability": "view",
      "type": "function"
    },
    {
      "inputs": [
        {
          "internalType": "bytes32",
          "name": "role",
          "type": "bytes32"
        },
        {
          "internalType": "address",
          "name": "account",
          "type": "address"
        }
      ],
      "name": "grantRole",
      "outputs": [],
      "stateMutability": "nonpayable",
      "type": "function"
    },
    {
      "inputs": [
        {
          "internalType": "bytes32",
          "name": "role",
          "type": "bytes32"
        },
        {
          "internalType": "address",
          "name": "account",
          "type": "address"
        }
      ],
      "name": "hasRole",
      "outputs": [
        {
          "internalType": "bool",
          "name": "",
          "type": "bool"
        }
      ],
      "stateMutability": "view",
      "type": "function"
    },
    {
      "inputs": [
        {
          "internalType": "address",
          "name": "_stakeManager",
          "type": "address"
        },
        {
          "internalType": "address",
          "name": "_tierCalc",
          "type": "address"
        }
      ],
      "name": "initialize",
      "outputs": [],
      "stateMutability": "nonpayable",
      "type": "function"
    },
    {
      "inputs": [
        {
          "internalType": "address",
          "name": "owner",
          "type": "address"
        },
        {
          "internalType": "address",
          "name": "operator",
          "type": "address"
        }
      ],
      "name": "isApprovedForAll",
      "outputs": [
        {
          "internalType": "bool",
          "name": "",
          "type": "bool"
        }
      ],
      "stateMutability": "view",
      "type": "function"
    },
    {
      "inputs": [
        {
          "internalType": "address",
          "name": "to",
          "type": "address"
        },
        {
          "internalType": "uint256",
          "name": "positionId",
          "type": "uint256"
        },
        {
          "internalType": "uint256",
          "name": "amountStaked",
          "type": "uint256"
        },
        {
          "internalType": "uint256",
          "name": "lockDurationHours",
          "type": "uint256"
        },
        {
          "internalType": "uint256",
          "name": "startTimestamp",
          "type": "uint256"
        },
        {
          "internalType": "uint8",
          "name": "tierLevel",
          "type": "uint8"
        },
        {
          "internalType": "uint256",
          "name": "hourIndex",
          "type": "uint256"
        }
      ],
      "name": "mintNFT",
      "outputs": [],
      "stateMutability": "nonpayable",
      "type": "function"
    },
    {
      "inputs": [],
      "name": "name",
      "outputs": [
        {
          "internalType": "string",
          "name": "",
          "type": "string"
        }
      ],
      "stateMutability": "view",
      "type": "function"
    },
    {
      "inputs": [
        {
          "internalType": "uint256",
          "name": "tokenId",
          "type": "uint256"
        }
      ],
      "name": "ownerOf",
      "outputs": [
        {
          "internalType": "address",
          "name": "",
          "type": "address"
        }
      ],
      "stateMutability": "view",
      "type": "function"
    },
    {
      "inputs": [],
      "name": "proxiableUUID",
      "outputs": [
        {
          "internalType": "bytes32",
          "name": "",
          "type": "bytes32"
        }
      ],
      "stateMutability": "view",
      "type": "function"
    },
    {
      "inputs": [
        {
          "internalType": "bytes32",
          "name": "role",
          "type": "bytes32"
        },
        {
          "internalType": "address",
          "name": "callerConfirmation",
          "type": "address"
        }
      ],
      "name": "renounceRole",
      "outputs": [],
      "stateMutability": "nonpayable",
      "type": "function"
    },
    {
      "inputs": [
        {
          "internalType": "bytes32",
          "name": "role",
          "type": "bytes32"
        },
        {
          "internalType": "address",
          "name": "account",
          "type": "address"
        }
      ],
      "name": "revokeRole",
      "outputs": [],
      "stateMutability": "nonpayable",
      "type": "function"
    },
    {
      "inputs": [
        {
          "internalType": "address",
          "name": "from",
          "type": "address"
        },
        {
          "internalType": "address",
          "name": "to",
          "type": "address"
        },
        {
          "internalType": "uint256",
          "name": "tokenId",
          "type": "uint256"
        }
      ],
      "name": "safeTransferFrom",
      "outputs": [],
      "stateMutability": "nonpayable",
      "type": "function"
    },
    {
      "inputs": [
        {
          "internalType": "address",
          "name": "from",
          "type": "address"
        },
        {
          "internalType": "address",
          "name": "to",
          "type": "address"
        },
        {
          "internalType": "uint256",
          "name": "tokenId",
          "type": "uint256"
        },
        {
          "internalType": "bytes",
          "name": "data",
          "type": "bytes"
        }
      ],
      "name": "safeTransferFrom",
      "outputs": [],
      "stateMutability": "nonpayable",
      "type": "function"
    },
    {
      "inputs": [
        {
          "internalType": "address",
          "name": "operator",
          "type": "address"
        },
        {
          "internalType": "bool",
          "name": "approved",
          "type": "bool"
        }
      ],
      "name": "setApprovalForAll",
      "outputs": [],
      "stateMutability": "nonpayable",
      "type": "function"
    },
    {
      "inputs": [
        {
          "internalType": "string",
          "name": "newBaseURI",
          "type": "string"
        }
      ],
      "name": "setBaseURI",
      "outputs": [],
      "stateMutability": "nonpayable",
      "type": "function"
    },
    {
      "inputs": [
        {
          "internalType": "address",
          "name": "_stakeManager",
          "type": "address"
        }
      ],
      "name": "setStakeManager",
      "outputs": [],
      "stateMutability": "nonpayable",
      "type": "function"
    },
    {
      "inputs": [
        {
          "internalType": "address",
          "name": "_tierCalculator",
          "type": "address"
        }
      ],
      "name": "setTierCalculator",
      "outputs": [],
      "stateMutability": "nonpayable",
      "type": "function"
    },
    {
      "inputs": [],
      "name": "stakeManager",
      "outputs": [
        {
          "internalType": "address",
          "name": "",
          "type": "address"
        }
      ],
      "stateMutability": "view",
      "type": "function"
    },
    {
      "inputs": [
        {
          "internalType": "bytes4",
          "name": "interfaceId",
          "type": "bytes4"
        }
      ],
      "name": "supportsInterface",
      "outputs": [
        {
          "internalType": "bool",
          "name": "",
          "type": "bool"
        }
      ],
      "stateMutability": "view",
      "type": "function"
    },
    {
      "inputs": [],
      "name": "symbol",
      "outputs": [
        {
          "internalType": "string",
          "name": "",
          "type": "string"
        }
      ],
      "stateMutability": "view",
      "type": "function"
    },
    {
      "inputs": [],
      "name": "tierCalculator",
      "outputs": [
        {
          "internalType": "address",
          "name": "",
          "type": "address"
        }
      ],
      "stateMutability": "view",
      "type": "function"
    },
    {
      "inputs": [
        {
          "internalType": "uint256",
          "name": "tokenId",
          "type": "uint256"
        }
      ],
      "name": "tokenURI",
      "outputs": [
        {
          "internalType": "string",
          "name": "",
          "type": "string"
        }
      ],
      "stateMutability": "view",
      "type": "function"
    },
    {
      "inputs": [
        {
          "internalType": "address",
          "name": "from",
          "type": "address"
        },
        {
          "internalType": "address",
          "name": "to",
          "type": "address"
        },
        {
          "internalType": "uint256",
          "name": "tokenId",
          "type": "uint256"
        }
      ],
      "name": "transferFrom",
      "outputs": [],
      "stateMutability": "nonpayable",
      "type": "function"
    },
    {
      "inputs": [
        {
          "internalType": "address",
          "name": "newImplementation",
          "type": "address"
        },
        {
          "internalType": "bytes",
          "name": "data",
          "type": "bytes"
        }
      ],
      "name": "upgradeToAndCall",
      "outputs": [],
      "stateMutability": "payable",
      "type": "function"
    },
    {
      "inputs": [],
      "name": "version",
      "outputs": [
        {
          "internalType": "string",
          "name": "",
          "type": "string"
        }
      ],
      "stateMutability": "pure",
      "type": "function"
    }
  ],
  "bytecode": "0x60a06040523060805234801561001457600080fd5b5061001d610022565b6100d4565b7ff0c57e16840df040f15088dc2f81fe391c3923bec73e23a9662efc9c229c6a00805468010000000000000000900460ff16156100725760405163f92ee8a960e01b815260040160405180910390fd5b80546001600160401b03908116146100d15780546001600160401b0319166001600160401b0390811782556040519081527fc7f505b2f371ae2175ee4913f4499e1f2633a7b5936321eed1cdaeb6115181d29060200160405180910390a15b50565b6080516123626100fd6000396000818161118d015281816111b601526112fa01526123626000f3fe6080604052600436106101d85760003560e01c806354fd4d5011610102578063a217fddf11610095578063be0f2b8811610064578063be0f2b8814610562578063c87b56dd14610582578063d547741f146105a2578063e985e9c5146105c257600080fd5b8063a217fddf146104dc578063a22cb465146104f1578063ad3cb1cc14610511578063b88d4fde1461054257600080fd5b806370a08231116100d157806370a08231146104675780637542ff951461048757806391d14854146104a757806395d89b41146104c757600080fd5b806354fd4d50146103e457806355f804b31461041257806356189236146104325780636352211e1461044757600080fd5b8063248a9ca31161017a5780634326c1bc116101495780634326c1bc1461037c578063485cc9551461039c5780634f1ef286146103bc57806352d1902d146103cf57600080fd5b8063248a9ca3146102ee5780632f2ff15d1461031c57806336568abe1461033c57806342842e0e1461035c57600080fd5b8063095ea7b3116101b6578063095ea7b31461026c5780630af7767e1461028e5780630e7c67fc146102ae57806323b872dd146102ce57600080fd5b806301ffc9a7146101dd57806306fdde0314610212578063081812fc14610234575b600080fd5b3480156101e957600080fd5b506101fd6101f8366004611c8c565b6105e2565b60405190151581526020015b60405180910390f35b34801561021e57600080fd5b506102276105f3565b6040516102099190611cf9565b34801561024057600080fd5b5061025461024f366004611d0c565b610697565b6040516001600160a01b039091168152602001610209565b34801561027857600080fd5b5061028c610287366004611d41565b6106ac565b005b34801561029a57600080fd5b5061028c6102a9366004611d6b565b6106bb565b3480156102ba57600080fd5b5061028c6102c9366004611d6b565b610719565b3480156102da57600080fd5b5061028c6102e9366004611d86565b610777565b3480156102fa57600080fd5b5061030e610309366004611d0c565b610807565b604051908152602001610209565b34801561032857600080fd5b5061028c610337366004611dc3565b610829565b34801561034857600080fd5b5061028c610357366004611dc3565b610845565b34801561036857600080fd5b5061028c610377366004611d86565b61087d565b34801561038857600080fd5b5061028c610397366004611def565b610898565b3480156103a857600080fd5b5061028c6103b7366004611e5d565b61095a565b61028c6103ca366004611f37565b610ae6565b3480156103db57600080fd5b5061030e610b01565b3480156103f057600080fd5b506040805180820190915260058152640322e302e360dc1b6020820152610227565b34801561041e57600080fd5b5061028c61042d366004611f85565b610b1e565b34801561043e57600080fd5b5060005461030e565b34801561045357600080fd5b50610254610462366004611d0c565b610c06565b34801561047357600080fd5b5061030e610482366004611d6b565b610c11565b34801561049357600080fd5b50600254610254906001600160a01b031681565b3480156104b357600080fd5b506101fd6104c2366004611dc3565b610c6d565b3480156104d357600080fd5b50610227610ca5565b3480156104e857600080fd5b5061030e600081565b3480156104fd57600080fd5b5061028c61050c366004611fce565b610ce4565b34801561051d57600080fd5b50610227604051806040016040528060058152602001640352e302e360dc1b81525081565b34801561054e57600080fd5b5061028c61055d36600461200a565b610cef565b34801561056e57600080fd5b50600354610254906001600160a01b031681565b34801561058e57600080fd5b5061022761059d366004611d0c565b610d07565b3480156105ae57600080fd5b5061028c6105bd366004611dc3565b610dde565b3480156105ce57600080fd5b506101fd6105dd366004611e5d565b610dfa565b60006105ed82610e47565b92915050565b6000805160206122cd833981519152805460609190819061061390612072565b80601f016020809104026020016040519081016040528092919081815260200182805461063f90612072565b801561068c5780601f106106615761010080835404028352916020019161068c565b820191906000526020600020905b81548152906001019060200180831161066f57829003601f168201915b505050505091505090565b60006106a282610e6c565b506105ed82610ea4565b6106b7828233610ede565b5050565b60006106c681610eeb565b600380546001600160a01b038481166001600160a01b0319831681179093556040519116919082907f2e02a5f0842499c79705a834a5887c29abff2d083a0454ea5857deb412d900b790600090a3505050565b600061072481610eeb565b600280546001600160a01b038481166001600160a01b0319831681179093556040519116919082907f2038065b2af1abb2e4baff0b93010f47c0fec731edade04aa0a6749f4f5350d890600090a3505050565b6001600160a01b0382166107a657604051633250574960e11b8152600060048201526024015b60405180910390fd5b60006107b3838333610ef8565b9050836001600160a01b0316816001600160a01b031614610801576040516364283d7b60e01b81526001600160a01b038086166004830152602482018490528216604482015260640161079d565b50505050565b600090815260008051602061230d833981519152602052604090206001015490565b61083282610807565b61083b81610eeb565b6108018383611002565b6001600160a01b038116331461086e5760405163334bd91960e11b815260040160405180910390fd5b61087882826110a7565b505050565b61087883838360405180602001604052806000815250610cef565b6002546001600160a01b031633146108c35760405163fe907fb760e01b815260040160405180910390fd5b60038260ff1611156108e85760405163e142361760e01b815260040160405180910390fd5b60008054908190806108f9836120ac565b91905055506109088882611123565b6040805188815260ff8516602082015282916001600160a01b038b16917f7bc3ddf0bf2ada973906c61001cd8f787646720bb7da90229e5bf81fa71bab6d910160405180910390a35050505050505050565b600061096461113d565b805490915060ff600160401b820416159067ffffffffffffffff1660008115801561098c5750825b905060008267ffffffffffffffff1660011480156109a95750303b155b9050811580156109b7575080155b156109d55760405163f92ee8a960e01b815260040160405180910390fd5b845467ffffffffffffffff1916600117855583156109ff57845460ff60401b1916600160401b1785555b610a46604051806040016040528060078152602001661410510813919560ca1b8152506040518060400160405280600681526020016514105113919560d21b815250611166565b610a4e611178565b610a56611178565b610a61600033611002565b50600280546001600160a01b03808a166001600160a01b031992831617909255600380549289169290911691909117905560016000558315610add57845460ff60401b19168555604051600181527fc7f505b2f371ae2175ee4913f4499e1f2633a7b5936321eed1cdaeb6115181d29060200160405180910390a15b50505050505050565b610aee611182565b610af782611227565b6106b78282611232565b6000610b0b6112ef565b506000805160206122ed83398151915290565b6000610b2981610eeb565b600060018054610b3890612072565b80601f0160208091040260200160405190810160405280929190818152602001828054610b6490612072565b8015610bb15780601f10610b8657610100808354040283529160200191610bb1565b820191906000526020600020905b815481529060010190602001808311610b9457829003601f168201915b505050505090508260019081610bc7919061211a565b507f309b29ded109b9e28fb9885757b3e0096eb75c51d23aa4635d68bcd569f6adc18184604051610bf99291906121d9565b60405180910390a1505050565b60006105ed82610e6c565b60006000805160206122cd8339815191526001600160a01b038316610c4c576040516322718ad960e21b81526000600482015260240161079d565b6001600160a01b039092166000908152600390920160205250604090205490565b600091825260008051602061230d833981519152602090815260408084206001600160a01b0393909316845291905290205460ff1690565b7f80bb2b638cc20bc4d0a60d66940f3ab4a00c1d7b313497ca82fb0b4ab007930180546060916000805160206122cd8339815191529161061390612072565b6106b7338383611338565b610cfa848484610777565b61080133858585856113e9565b60606000610d1483611514565b6001600160a01b031603610d825760405162461bcd60e51b815260206004820152602f60248201527f4552433732314d657461646174613a2055524920717565727920666f72206e6f60448201526e3732bc34b9ba32b73a103a37b5b2b760891b606482015260840161079d565b6000610d8c61154e565b90506000815111610dac5760405180602001604052806000815250610dd7565b80610db6846115e0565b604051602001610dc79291906121fe565b6040516020818303038152906040525b9392505050565b610de782610807565b610df081610eeb565b61080183836110a7565b6001600160a01b0391821660009081527f80bb2b638cc20bc4d0a60d66940f3ab4a00c1d7b313497ca82fb0b4ab00793056020908152604080832093909416825291909152205460ff1690565b60006001600160e01b03198216637965db0b60e01b14806105ed57506105ed82611673565b600080610e7883611514565b90506001600160a01b0381166105ed57604051637e27328960e01b81526004810184905260240161079d565b60009081527f80bb2b638cc20bc4d0a60d66940f3ab4a00c1d7b313497ca82fb0b4ab007930460205260409020546001600160a01b031690565b61087883838360016116c3565b610ef581336117d9565b50565b60006000805160206122cd83398151915281610f1385611514565b90506001600160a01b03841615610f2f57610f2f818587611812565b6001600160a01b03811615610f6f57610f4c6000866000806116c3565b6001600160a01b0381166000908152600383016020526040902080546000190190555b6001600160a01b03861615610fa0576001600160a01b03861660009081526003830160205260409020805460010190555b600085815260028301602052604080822080546001600160a01b0319166001600160a01b038a811691821790925591518893918516917fddf252ad1be2c89b69c2b068fc378daa952ba7f163c4a11628f55a4df523b3ef91a495945050505050565b600060008051602061230d83398151915261101d8484610c6d565b61109d576000848152602082815260408083206001600160a01b03871684529091529020805460ff191660011790556110533390565b6001600160a01b0316836001600160a01b0316857f2f8788117e7eff1d82e926ec794901d17c78024a50270940304540a733656f0d60405160405180910390a460019150506105ed565b60009150506105ed565b600060008051602061230d8339815191526110c28484610c6d565b1561109d576000848152602082815260408083206001600160a01b0387168085529252808320805460ff1916905551339287917ff6391f5c32d9c69d2a47ea670b442974b53935d1edc7fd64eb21e047a839171b9190a460019150506105ed565b6106b7828260405180602001604052806000815250611876565b6000807ff0c57e16840df040f15088dc2f81fe391c3923bec73e23a9662efc9c229c6a006105ed565b61116e61188e565b6106b782826118b3565b61118061188e565b565b306001600160a01b037f000000000000000000000000000000000000000000000000000000000000000016148061120957507f00000000000000000000000000000000000000000000000000000000000000006001600160a01b03166111fd6000805160206122ed833981519152546001600160a01b031690565b6001600160a01b031614155b156111805760405163703e46dd60e11b815260040160405180910390fd5b60006106b781610eeb565b816001600160a01b03166352d1902d6040518163ffffffff1660e01b8152600401602060405180830381865afa92505050801561128c575060408051601f3d908101601f191682019092526112899181019061223d565b60015b6112b457604051634c9c8ce360e01b81526001600160a01b038316600482015260240161079d565b6000805160206122ed83398151915281146112e557604051632a87526960e21b81526004810182905260240161079d565b61087883836118e4565b306001600160a01b037f000000000000000000000000000000000000000000000000000000000000000016146111805760405163703e46dd60e11b815260040160405180910390fd5b6000805160206122cd8339815191526001600160a01b03831661137957604051630b61174360e31b81526001600160a01b038416600482015260240161079d565b6001600160a01b038481166000818152600584016020908152604080832094881680845294825291829020805460ff191687151590811790915591519182527f17307eab39ab6107e8899845ad3d59bd9653f200f220920489ca2b5937696c31910160405180910390a350505050565b6001600160a01b0383163b1561150d57604051630a85bd0160e11b81526001600160a01b0384169063150b7a029061142b908890889087908790600401612256565b6020604051808303816000875af1925050508015611466575060408051601f3d908101601f1916820190925261146391810190612293565b60015b6114cf573d808015611494576040519150601f19603f3d011682016040523d82523d6000602084013e611499565b606091505b5080516000036114c757604051633250574960e11b81526001600160a01b038516600482015260240161079d565b805181602001fd5b6001600160e01b03198116630a85bd0160e11b1461150b57604051633250574960e11b81526001600160a01b038516600482015260240161079d565b505b5050505050565b60009081527f80bb2b638cc20bc4d0a60d66940f3ab4a00c1d7b313497ca82fb0b4ab007930260205260409020546001600160a01b031690565b60606001805461155d90612072565b80601f016020809104026020016040519081016040528092919081815260200182805461158990612072565b80156115d65780601f106115ab576101008083540402835291602001916115d6565b820191906000526020600020905b8154815290600101906020018083116115b957829003601f168201915b5050505050905090565b606060006115ed8361193a565b600101905060008167ffffffffffffffff81111561160d5761160d611e87565b6040519080825280601f01601f191660200182016040528015611637576020820181803683370190505b5090508181016020015b600019016f181899199a1a9b1b9c1cb0b131b232b360811b600a86061a8153600a850494508461164157509392505050565b60006001600160e01b031982166380ac58cd60e01b14806116a457506001600160e01b03198216635b5e139f60e01b145b806105ed57506301ffc9a760e01b6001600160e01b03198316146105ed565b6000805160206122cd83398151915281806116e657506001600160a01b03831615155b156117a85760006116f685610e6c565b90506001600160a01b038416158015906117225750836001600160a01b0316816001600160a01b031614155b801561173557506117338185610dfa565b155b1561175e5760405163a9fbf51f60e01b81526001600160a01b038516600482015260240161079d565b82156117a65784866001600160a01b0316826001600160a01b03167f8c5be1e5ebec7d5bd14f71427d1e84f3dd0314c0f7b2291e5b200ac8c7c3b92560405160405180910390a45b505b600093845260040160205250506040902080546001600160a01b0319166001600160a01b0392909216919091179055565b6117e38282610c6d565b6106b75760405163e2517d3f60e01b81526001600160a01b03821660048201526024810183905260440161079d565b61181d838383611a12565b610878576001600160a01b03831661184b57604051637e27328960e01b81526004810182905260240161079d565b60405163177e802f60e01b81526001600160a01b03831660048201526024810182905260440161079d565b6118808383611a78565b6108783360008585856113e9565b611896611add565b61118057604051631afcd79f60e31b815260040160405180910390fd5b6118bb61188e565b6000805160206122cd833981519152806118d5848261211a565b5060018101610801838261211a565b6118ed82611af7565b6040516001600160a01b038316907fbc7cd75a20ee27fd9adebab32041f755214dbc6bffa90cc0225b39da2e5c2d3b90600090a2805115611932576108788282611b5c565b6106b7611bd2565b60008072184f03e93ff9f4daa797ed6e38ed64bf6a1f0160401b83106119795772184f03e93ff9f4daa797ed6e38ed64bf6a1f0160401b830492506040015b6d04ee2d6d415b85acef810000000083106119a5576d04ee2d6d415b85acef8100000000830492506020015b662386f26fc1000083106119c357662386f26fc10000830492506010015b6305f5e10083106119db576305f5e100830492506008015b61271083106119ef57612710830492506004015b60648310611a01576064830492506002015b600a83106105ed5760010192915050565b60006001600160a01b03831615801590611a705750826001600160a01b0316846001600160a01b03161480611a4c5750611a4c8484610dfa565b80611a705750826001600160a01b0316611a6583610ea4565b6001600160a01b0316145b949350505050565b6001600160a01b038216611aa257604051633250574960e11b81526000600482015260240161079d565b6000611ab083836000610ef8565b90506001600160a01b03811615610878576040516339e3563760e11b81526000600482015260240161079d565b6000611ae761113d565b54600160401b900460ff16919050565b806001600160a01b03163b600003611b2d57604051634c9c8ce360e01b81526001600160a01b038216600482015260240161079d565b6000805160206122ed83398151915280546001600160a01b0319166001600160a01b0392909216919091179055565b6060600080846001600160a01b031684604051611b7991906122b0565b600060405180830381855af49150503d8060008114611bb4576040519150601f19603f3d011682016040523d82523d6000602084013e611bb9565b606091505b5091509150611bc9858383611bf1565b95945050505050565b34156111805760405163b398979f60e01b815260040160405180910390fd5b606082611c0657611c0182611c4d565b610dd7565b8151158015611c1d57506001600160a01b0384163b155b15611c4657604051639996b31560e01b81526001600160a01b038516600482015260240161079d565b5080610dd7565b805115611c5d5780518082602001fd5b60405163d6bda27560e01b815260040160405180910390fd5b6001600160e01b031981168114610ef557600080fd5b600060208284031215611c9e57600080fd5b8135610dd781611c76565b60005b83811015611cc4578181015183820152602001611cac565b50506000910152565b60008151808452611ce5816020860160208601611ca9565b601f01601f19169290920160200192915050565b602081526000610dd76020830184611ccd565b600060208284031215611d1e57600080fd5b5035919050565b80356001600160a01b0381168114611d3c57600080fd5b919050565b60008060408385031215611d5457600080fd5b611d5d83611d25565b946020939093013593505050565b600060208284031215611d7d57600080fd5b610dd782611d25565b600080600060608486031215611d9b57600080fd5b611da484611d25565b9250611db260208501611d25565b929592945050506040919091013590565b60008060408385031215611dd657600080fd5b82359150611de660208401611d25565b90509250929050565b600080600080600080600060e0888a031215611e0a57600080fd5b611e1388611d25565b96506020880135955060408801359450606088013593506080880135925060a088013560ff81168114611e4557600080fd5b96999598509396929591949193505060c09091013590565b60008060408385031215611e7057600080fd5b611e7983611d25565b9150611de660208401611d25565b634e487b7160e01b600052604160045260246000fd5b60008067ffffffffffffffff841115611eb857611eb8611e87565b50604051601f19601f85018116603f0116810181811067ffffffffffffffff82111715611ee757611ee7611e87565b604052838152905080828401851015611eff57600080fd5b83836020830137600060208583010152509392505050565b600082601f830112611f2857600080fd5b610dd783833560208501611e9d565b60008060408385031215611f4a57600080fd5b611f5383611d25565b9150602083013567ffffffffffffffff811115611f6f57600080fd5b611f7b85828601611f17565b9150509250929050565b600060208284031215611f9757600080fd5b813567ffffffffffffffff811115611fae57600080fd5b8201601f81018413611fbf57600080fd5b611a7084823560208401611e9d565b60008060408385031215611fe157600080fd5b611fea83611d25565b915060208301358015158114611fff57600080fd5b809150509250929050565b6000806000806080858703121561202057600080fd5b61202985611d25565b935061203760208601611d25565b925060408501359150606085013567ffffffffffffffff81111561205a57600080fd5b61206687828801611f17565b91505092959194509250565b600181811c9082168061208657607f821691505b6020821081036120a657634e487b7160e01b600052602260045260246000fd5b50919050565b6000600182016120cc57634e487b7160e01b600052601160045260246000fd5b5060010190565b601f82111561087857806000526020600020601f840160051c810160208510156120fa5750805b601f840160051c820191505b8181101561150d5760008155600101612106565b815167ffffffffffffffff81111561213457612134611e87565b612148816121428454612072565b846120d3565b6020601f82116001811461217c57600083156121645750848201515b600019600385901b1c1916600184901b17845561150d565b600084815260208120601f198516915b828110156121ac578785015182556020948501946001909201910161218c565b50848210156121ca5786840151600019600387901b60f8161c191681555b50505050600190811b01905550565b6040815260006121ec6040830185611ccd565b8281036020840152611bc98185611ccd565b60008351612210818460208801611ca9565b835190830190612224818360208801611ca9565b64173539b7b760d91b9101908152600501949350505050565b60006020828403121561224f57600080fd5b5051919050565b6001600160a01b038581168252841660208201526040810183905260806060820181905260009061228990830184611ccd565b9695505050505050565b6000602082840312156122a557600080fd5b8151610dd781611c76565b600082516122c2818460208701611ca9565b919091019291505056fe80bb2b638cc20bc4d0a60d66940f3ab4a00c1d7b313497ca82fb0b4ab0079300360894a13ba1a3210667c828492db98dca3e2076cc3735a920a3ca505d382bbc02dd7bc7dec4dceedda775e58dd541e08a116c6c53815c0bd028192f7b626800a26469706673582212205675a0c55cf36945f7d6ca0f1667e327c6e690e01b8e78cb934d4a5c8dc02c9964736f6c634300081c0033",
  "linkReferences": {},
  "deployedLinkReferences": {}
}