{
  "_format": "hh-sol-artifact-1",
  "contractName": "UpgradeableMultiStakeManagerV3",
  "sourceName": "contracts/UpgradeableMultiStakeManagerV3.sol",
  "abi": [
    {
      "inputs": [],
      "name": "AccessControlBadConfirmation",
      "type": "error"
    },
    {
      "inputs": [
        {
          "internalType": "address",
          "name": "account",
          "type": "address"
        },
        {
          "internalType": "bytes32",
          "name": "neededRole",
          "type": "bytes32"
        }
      ],
      "name": "AccessControlUnauthorizedAccount",
      "type": "error"
    },
    {
      "inputs": [
        {
          "internalType": "address",
          "name": "target",
          "type": "address"
        }
      ],
      "name": "AddressEmptyCode",
      "type": "error"
    },
    {
      "inputs": [
        {
          "internalType": "address",
          "name": "account",
          "type": "address"
        }
      ],
      "name": "AddressIsBlacklisted",
      "type": "error"
    },
    {
      "inputs": [
        {
          "internalType": "address",
          "name": "implementation",
          "type": "address"
        }
      ],
      "name": "ERC1967InvalidImplementation",
      "type": "error"
    },
    {
      "inputs": [],
      "name": "ERC1967NonPayable",
      "type": "error"
    },
    {
      "inputs": [],
      "name": "FailedCall",
      "type": "error"
    },
    {
      "inputs": [],
      "name": "InvalidInitialization",
      "type": "error"
    },
    {
      "inputs": [],
      "name": "NotInitializing",
      "type": "error"
    },
    {
      "inputs": [],
      "name": "ReentrancyGuardReentrantCall",
      "type": "error"
    },
    {
      "inputs": [],
      "name": "UUPSUnauthorizedCallContext",
      "type": "error"
    },
    {
      "inputs": [
        {
          "internalType": "bytes32",
          "name": "slot",
          "type": "bytes32"
        }
      ],
      "name": "UUPSUnsupportedProxiableUUID",
      "type": "error"
    },
    {
      "anonymous": false,
      "inputs": [
        {
          "indexed": true,
          "internalType": "address",
          "name": "account",
          "type": "address"
        },
        {
          "indexed": true,
          "internalType": "address",
          "name": "admin",
          "type": "address"
        }
      ],
      "name": "AddressBlacklisted",
      "type": "event"
    },
    {
      "anonymous": false,
      "inputs": [
        {
          "indexed": true,
          "internalType": "address",
          "name": "account",
          "type": "address"
        },
        {
          "indexed": true,
          "internalType": "address",
          "name": "admin",
          "type": "address"
        }
      ],
      "name": "AddressRemovedFromBlacklist",
      "type": "event"
    },
    {
      "anonymous": false,
      "inputs": [
        {
          "indexed": false,
          "internalType": "uint64",
          "name": "version",
          "type": "uint64"
        }
      ],
      "name": "Initialized",
      "type": "event"
    },
    {
      "anonymous": false,
      "inputs": [
        {
          "indexed": true,
          "internalType": "uint256",
          "name": "positionId",
          "type": "uint256"
        },
        {
          "indexed": true,
          "internalType": "address",
          "name": "owner",
          "type": "address"
        },
        {
          "indexed": false,
          "internalType": "uint256",
          "name": "amount",
          "type": "uint256"
        }
      ],
      "name": "PositionClosed",
      "type": "event"
    },
    {
      "anonymous": false,
      "inputs": [
        {
          "indexed": true,
          "internalType": "uint256",
          "name": "positionId",
          "type": "uint256"
        },
        {
          "indexed": true,
          "internalType": "address",
          "name": "owner",
          "type": "address"
        },
        {
          "indexed": false,
          "internalType": "uint256",
          "name": "amount",
          "type": "uint256"
        },
        {
          "indexed": false,
          "internalType": "uint8",
          "name": "tier",
          "type": "uint8"
        }
      ],
      "name": "PositionCreated",
      "type": "event"
    },
    {
      "anonymous": false,
      "inputs": [
        {
          "indexed": true,
          "internalType": "uint256",
          "name": "positionId",
          "type": "uint256"
        },
        {
          "indexed": true,
          "internalType": "address",
          "name": "owner",
          "type": "address"
        },
        {
          "indexed": false,
          "internalType": "uint256",
          "name": "amount",
          "type": "uint256"
        }
      ],
      "name": "RewardsClaimed",
      "type": "event"
    },
    {
      "anonymous": false,
      "inputs": [
        {
          "indexed": true,
          "internalType": "bytes32",
          "name": "role",
          "type": "bytes32"
        },
        {
          "indexed": true,
          "internalType": "bytes32",
          "name": "previousAdminRole",
          "type": "bytes32"
        },
        {
          "indexed": true,
          "internalType": "bytes32",
          "name": "newAdminRole",
          "type": "bytes32"
        }
      ],
      "name": "RoleAdminChanged",
      "type": "event"
    },
    {
      "anonymous": false,
      "inputs": [
        {
          "indexed": true,
          "internalType": "bytes32",
          "name": "role",
          "type": "bytes32"
        },
        {
          "indexed": true,
          "internalType": "address",
          "name": "account",
          "type": "address"
        },
        {
          "indexed": true,
          "internalType": "address",
          "name": "sender",
          "type": "address"
        }
      ],
      "name": "RoleGranted",
      "type": "event"
    },
    {
      "anonymous": false,
      "inputs": [
        {
          "indexed": true,
          "internalType": "bytes32",
          "name": "role",
          "type": "bytes32"
        },
        {
          "indexed": true,
          "internalType": "address",
          "name": "account",
          "type": "address"
        },
        {
          "indexed": true,
          "internalType": "address",
          "name": "sender",
          "type": "address"
        }
      ],
      "name": "RoleRevoked",
      "type": "event"
    },
    {
      "anonymous": false,
      "inputs": [
        {
          "indexed": true,
          "internalType": "uint8",
          "name": "tier",
          "type": "uint8"
        },
        {
          "indexed": false,
          "internalType": "uint256",
          "name": "weight",
          "type": "uint256"
        },
        {
          "indexed": false,
          "internalType": "uint256",
          "name": "duration",
          "type": "uint256"
        },
        {
          "indexed": false,
          "internalType": "uint256",
          "name": "minAmount",
          "type": "uint256"
        }
      ],
      "name": "TierUpdated",
      "type": "event"
    },
    {
      "anonymous": false,
      "inputs": [
        {
          "indexed": true,
          "internalType": "address",
          "name": "implementation",
          "type": "address"
        }
      ],
      "name": "Upgraded",
      "type": "event"
    },
    {
      "inputs": [],
      "name": "ADMIN_ROLE",
      "outputs": [
        {
          "internalType": "bytes32",
          "name": "",
          "type": "bytes32"
        }
      ],
      "stateMutability": "view",
      "type": "function"
    },
    {
      "inputs": [],
      "name": "DEFAULT_ADMIN_ROLE",
      "outputs": [
        {
          "internalType": "bytes32",
          "name": "",
          "type": "bytes32"
        }
      ],
      "stateMutability": "view",
      "type": "function"
    },
    {
      "inputs": [],
      "name": "MINTER_ROLE",
      "outputs": [
        {
          "internalType": "bytes32",
          "name": "",
          "type": "bytes32"
        }
      ],
      "stateMutability": "view",
      "type": "function"
    },
    {
      "inputs": [],
      "name": "REWARD_INTERVAL",
      "outputs": [
        {
          "internalType": "uint256",
          "name": "",
          "type": "uint256"
        }
      ],
      "stateMutability": "view",
      "type": "function"
    },
    {
      "inputs": [],
      "name": "UPGRADE_INTERFACE_VERSION",
      "outputs": [
        {
          "internalType": "string",
          "name": "",
          "type": "string"
        }
      ],
      "stateMutability": "view",
      "type": "function"
    },
    {
      "inputs": [
        {
          "internalType": "address",
          "name": "account",
          "type": "address"
        }
      ],
      "name": "addToBlacklist",
      "outputs": [],
      "stateMutability": "nonpayable",
      "type": "function"
    },
    {
      "inputs": [
        {
          "internalType": "address[]",
          "name": "accounts",
          "type": "address[]"
        }
      ],
      "name": "batchAddToBlacklist",
      "outputs": [],
      "stateMutability": "nonpayable",
      "type": "function"
    },
    {
      "inputs": [
        {
          "internalType": "address[]",
          "name": "accounts",
          "type": "address[]"
        }
      ],
      "name": "batchRemoveFromBlacklist",
      "outputs": [],
      "stateMutability": "nonpayable",
      "type": "function"
    },
    {
      "inputs": [
        {
          "internalType": "uint256",
          "name": "amount",
          "type": "uint256"
        },
        {
          "internalType": "uint256",
          "name": "duration",
          "type": "uint256"
        }
      ],
      "name": "createPosition",
      "outputs": [],
      "stateMutability": "nonpayable",
      "type": "function"
    },
    {
      "inputs": [
        {
          "internalType": "address[]",
          "name": "accounts",
          "type": "address[]"
        }
      ],
      "name": "getBlacklistStatus",
      "outputs": [
        {
          "internalType": "bool[]",
          "name": "statuses",
          "type": "bool[]"
        }
      ],
      "stateMutability": "view",
      "type": "function"
    },
    {
      "inputs": [
        {
          "internalType": "bytes32",
          "name": "role",
          "type": "bytes32"
        }
      ],
      "name": "getRoleAdmin",
      "outputs": [
        {
          "internalType": "bytes32",
          "name": "",
          "type": "bytes32"
        }
      ],
      "stateMutability": "view",
      "type": "function"
    },
    {
      "inputs": [
        {
          "internalType": "uint8",
          "name": "tier",
          "type": "uint8"
        }
      ],
      "name": "getTierDuration",
      "outputs": [
        {
          "internalType": "uint256",
          "name": "",
          "type": "uint256"
        }
      ],
      "stateMutability": "view",
      "type": "function"
    },
    {
      "inputs": [
        {
          "internalType": "uint8",
          "name": "tier",
          "type": "uint8"
        }
      ],
      "name": "getTierMinAmount",
      "outputs": [
        {
          "internalType": "uint256",
          "name": "",
          "type": "uint256"
        }
      ],
      "stateMutability": "view",
      "type": "function"
    },
    {
      "inputs": [
        {
          "internalType": "uint8",
          "name": "tier",
          "type": "uint8"
        }
      ],
      "name": "getTierWeight",
      "outputs": [
        {
          "internalType": "uint256",
          "name": "",
          "type": "uint256"
        }
      ],
      "stateMutability": "view",
      "type": "function"
    },
    {
      "inputs": [
        {
          "internalType": "address",
          "name": "user",
          "type": "address"
        }
      ],
      "name": "getUserPositions",
      "outputs": [
        {
          "internalType": "uint256[]",
          "name": "",
          "type": "uint256[]"
        }
      ],
      "stateMutability": "view",
      "type": "function"
    },
    {
      "inputs": [
        {
          "internalType": "bytes32",
          "name": "role",
          "type": "bytes32"
        },
        {
          "internalType": "address",
          "name": "account",
          "type": "address"
        }
      ],
      "name": "grantRole",
      "outputs": [],
      "stateMutability": "nonpayable",
      "type": "function"
    },
    {
      "inputs": [
        {
          "internalType": "bytes32",
          "name": "role",
          "type": "bytes32"
        },
        {
          "internalType": "address",
          "name": "account",
          "type": "address"
        }
      ],
      "name": "hasRole",
      "outputs": [
        {
          "internalType": "bool",
          "name": "",
          "type": "bool"
        }
      ],
      "stateMutability": "view",
      "type": "function"
    },
    {
      "inputs": [
        {
          "internalType": "address",
          "name": "_stakingToken",
          "type": "address"
        },
        {
          "internalType": "address",
          "name": "_tierCalculator",
          "type": "address"
        }
      ],
      "name": "initialize",
      "outputs": [],
      "stateMutability": "nonpayable",
      "type": "function"
    },
    {
      "inputs": [],
      "name": "initializeV3",
      "outputs": [],
      "stateMutability": "nonpayable",
      "type": "function"
    },
    {
      "inputs": [
        {
          "internalType": "address",
          "name": "account",
          "type": "address"
        }
      ],
      "name": "isBlacklisted",
      "outputs": [
        {
          "internalType": "bool",
          "name": "",
          "type": "bool"
        }
      ],
      "stateMutability": "view",
      "type": "function"
    },
    {
      "inputs": [
        {
          "internalType": "uint256",
          "name": "positionId",
          "type": "uint256"
        }
      ],
      "name": "mintNextNFT",
      "outputs": [],
      "stateMutability": "nonpayable",
      "type": "function"
    },
    {
      "inputs": [],
      "name": "nextPositionId",
      "outputs": [
        {
          "internalType": "uint256",
          "name": "",
          "type": "uint256"
        }
      ],
      "stateMutability": "view",
      "type": "function"
    },
    {
      "inputs": [],
      "name": "nftFactory",
      "outputs": [
        {
          "internalType": "contract IPADNFTFactory",
          "name": "",
          "type": "address"
        }
      ],
      "stateMutability": "view",
      "type": "function"
    },
    {
      "inputs": [
        {
          "internalType": "uint256",
          "name": "",
          "type": "uint256"
        }
      ],
      "name": "positions",
      "outputs": [
        {
          "internalType": "uint256",
          "name": "id",
          "type": "uint256"
        },
        {
          "internalType": "address",
          "name": "owner",
          "type": "address"
        },
        {
          "internalType": "uint256",
          "name": "amount",
          "type": "uint256"
        },
        {
          "internalType": "uint256",
          "name": "startTime",
          "type": "uint256"
        },
        {
          "internalType": "uint256",
          "name": "duration",
          "type": "uint256"
        },
        {
          "internalType": "uint8",
          "name": "tier",
          "type": "uint8"
        },
        {
          "internalType": "bool",
          "name": "isActive",
          "type": "bool"
        },
        {
          "internalType": "uint256",
          "name": "lastClaimTime",
          "type": "uint256"
        },
        {
          "internalType": "uint256",
          "name": "totalClaimed",
          "type": "uint256"
        },
        {
          "internalType": "uint256",
          "name": "nextMintAt",
          "type": "uint256"
        },
        {
          "internalType": "uint8",
          "name": "monthIndex",
          "type": "uint8"
        }
      ],
      "stateMutability": "view",
      "type": "function"
    },
    {
      "inputs": [],
      "name": "proxiableUUID",
      "outputs": [
        {
          "internalType": "bytes32",
          "name": "",
          "type": "bytes32"
        }
      ],
      "stateMutability": "view",
      "type": "function"
    },
    {
      "inputs": [
        {
          "internalType": "address",
          "name": "account",
          "type": "address"
        }
      ],
      "name": "removeFromBlacklist",
      "outputs": [],
      "stateMutability": "nonpayable",
      "type": "function"
    },
    {
      "inputs": [
        {
          "internalType": "bytes32",
          "name": "role",
          "type": "bytes32"
        },
        {
          "internalType": "address",
          "name": "callerConfirmation",
          "type": "address"
        }
      ],
      "name": "renounceRole",
      "outputs": [],
      "stateMutability": "nonpayable",
      "type": "function"
    },
    {
      "inputs": [
        {
          "internalType": "bytes32",
          "name": "role",
          "type": "bytes32"
        },
        {
          "internalType": "address",
          "name": "account",
          "type": "address"
        }
      ],
      "name": "revokeRole",
      "outputs": [],
      "stateMutability": "nonpayable",
      "type": "function"
    },
    {
      "inputs": [
        {
          "internalType": "address",
          "name": "_nftFactory",
          "type": "address"
        }
      ],
      "name": "setNFTFactory",
      "outputs": [],
      "stateMutability": "nonpayable",
      "type": "function"
    },
    {
      "inputs": [],
      "name": "stakingToken",
      "outputs": [
        {
          "internalType": "contract IERC20",
          "name": "",
          "type": "address"
        }
      ],
      "stateMutability": "view",
      "type": "function"
    },
    {
      "inputs": [
        {
          "internalType": "bytes4",
          "name": "interfaceId",
          "type": "bytes4"
        }
      ],
      "name": "supportsInterface",
      "outputs": [
        {
          "internalType": "bool",
          "name": "",
          "type": "bool"
        }
      ],
      "stateMutability": "view",
      "type": "function"
    },
    {
      "inputs": [],
      "name": "tierCalculator",
      "outputs": [
        {
          "internalType": "contract ITierCalculator",
          "name": "",
          "type": "address"
        }
      ],
      "stateMutability": "view",
      "type": "function"
    },
    {
      "inputs": [
        {
          "internalType": "uint8",
          "name": "",
          "type": "uint8"
        }
      ],
      "name": "tierDurations",
      "outputs": [
        {
          "internalType": "uint256",
          "name": "",
          "type": "uint256"
        }
      ],
      "stateMutability": "view",
      "type": "function"
    },
    {
      "inputs": [
        {
          "internalType": "uint8",
          "name": "",
          "type": "uint8"
        }
      ],
      "name": "tierMinAmounts",
      "outputs": [
        {
          "internalType": "uint256",
          "name": "",
          "type": "uint256"
        }
      ],
      "stateMutability": "view",
      "type": "function"
    },
    {
      "inputs": [
        {
          "internalType": "uint8",
          "name": "",
          "type": "uint8"
        }
      ],
      "name": "tierWeights",
      "outputs": [
        {
          "internalType": "uint256",
          "name": "",
          "type": "uint256"
        }
      ],
      "stateMutability": "view",
      "type": "function"
    },
    {
      "inputs": [
        {
          "internalType": "uint8",
          "name": "tier",
          "type": "uint8"
        },
        {
          "internalType": "uint256",
          "name": "weight",
          "type": "uint256"
        },
        {
          "internalType": "uint256",
          "name": "duration",
          "type": "uint256"
        },
        {
          "internalType": "uint256",
          "name": "minAmount",
          "type": "uint256"
        }
      ],
      "name": "updateTierRequirements",
      "outputs": [],
      "stateMutability": "nonpayable",
      "type": "function"
    },
    {
      "inputs": [
        {
          "internalType": "address",
          "name": "newImplementation",
          "type": "address"
        },
        {
          "internalType": "bytes",
          "name": "data",
          "type": "bytes"
        }
      ],
      "name": "upgradeToAndCall",
      "outputs": [],
      "stateMutability": "payable",
      "type": "function"
    },
    {
      "inputs": [
        {
          "internalType": "address",
          "name": "",
          "type": "address"
        },
        {
          "internalType": "uint256",
          "name": "",
          "type": "uint256"
        }
      ],
      "name": "userPositions",
      "outputs": [
        {
          "internalType": "uint256",
          "name": "",
          "type": "uint256"
        }
      ],
      "stateMutability": "view",
      "type": "function"
    },
    {
      "inputs": [],
      "name": "version",
      "outputs": [
        {
          "internalType": "string",
          "name": "",
          "type": "string"
        }
      ],
      "stateMutability": "pure",
      "type": "function"
    }
  ],
  "bytecode": "0x60a060405230608052348015601357600080fd5b5060805161250261003d60003960008181611b9601528181611bbf0152611d0301526125026000f3fe6080604052600436106102305760003560e01c8063899346c71161012e578063d1aaef05116100ab578063df6756a11161006f578063df6756a1146107e0578063f883462c1461080d578063f8d459f01461082d578063fc640da51461084d578063fe575a871461087d57600080fd5b8063d1aaef051461072c578063d53913931461074c578063d547741f14610780578063d63843cd146107a0578063d7162657146107c057600080fd5b8063a6ecc5cf116100f2578063a6ecc5cf1461065e578063ad3cb1cc1461068b578063be0f2b88146106bc578063ca059910146106dc578063cb2d93ce1461070c57600080fd5b8063899346c7146104fa57806391d1485414610510578063929352361461053057806399fbab881461055d578063a217fddf1461064957600080fd5b806352d1902d116101bc5780635e1b4d99116101805780635e1b4d99146104215780636551ab2a14610441578063679d665f1461046e57806372f702f31461048e57806375b238fc146104c657600080fd5b806352d1902d1461036f578063537df3b61461038457806354fd4d50146103a45780635dbdda69146103db5780635e07e877146103f157600080fd5b806336568abe1161020357806336568abe146102e757806338e454b11461030757806344337ea11461031c578063485cc9551461033c5780634f1ef2861461035c57600080fd5b806301ffc9a714610235578063248a9ca31461026a5780632a6bc2dd146102985780632f2ff15d146102c5575b600080fd5b34801561024157600080fd5b50610255610250366004611fbf565b6108b6565b60405190151581526020015b60405180910390f35b34801561027657600080fd5b5061028a610285366004611fe9565b6108ed565b604051908152602001610261565b3480156102a457600080fd5b506102b86102b336600461201e565b61090f565b6040516102619190612039565b3480156102d157600080fd5b506102e56102e036600461207c565b61097b565b005b3480156102f357600080fd5b506102e561030236600461207c565b61099d565b34801561031357600080fd5b506102e56109d5565b34801561032857600080fd5b506102e561033736600461201e565b610a89565b34801561034857600080fd5b506102e56103573660046120a8565b610ba7565b6102e561036a3660046120e8565b610ef8565b34801561037b57600080fd5b5061028a610f17565b34801561039057600080fd5b506102e561039f36600461201e565b610f34565b3480156103b057600080fd5b506040805180820190915260058152640332e302e360dc1b60208201525b60405161026191906121d6565b3480156103e757600080fd5b5061028a61012c81565b3480156103fd57600080fd5b5061028a61040c36600461221a565b60ff1660009081526006602052604090205490565b34801561042d57600080fd5b5061028a61043c366004612235565b610ff3565b34801561044d57600080fd5b5061028a61045c36600461221a565b60066020526000908152604090205481565b34801561047a57600080fd5b506102e561048936600461225f565b611024565b34801561049a57600080fd5b506000546104ae906001600160a01b031681565b6040516001600160a01b039091168152602001610261565b3480156104d257600080fd5b5061028a7fa49807205ce4d355092ef5a8a18f56e8913cf4a201fbe287825b095693c2177581565b34801561050657600080fd5b5061028a60085481565b34801561051c57600080fd5b5061025561052b36600461207c565b6110f0565b34801561053c57600080fd5b5061028a61054b36600461221a565b60056020526000908152604090205481565b34801561056957600080fd5b506105e0610578366004611fe9565b6003602081905260009182526040909120805460018201546002830154938301546004840154600585015460068601546007870154600888015460099098015496986001600160a01b039096169795969495939460ff8085169561010090950481169491168b565b604080519b8c526001600160a01b03909a1660208c0152988a01979097526060890195909552608088019390935260ff91821660a0880152151560c087015260e08601919091526101008501919091526101208401919091521661014082015261016001610261565b34801561065557600080fd5b5061028a600081565b34801561066a57600080fd5b5061067e61067936600461225f565b611128565b60405161026191906122d6565b34801561069757600080fd5b506103ce604051806040016040528060058152602001640352e302e360dc1b81525081565b3480156106c857600080fd5b506001546104ae906001600160a01b031681565b3480156106e857600080fd5b5061028a6106f736600461221a565b60ff1660009081526005602052604090205490565b34801561071857600080fd5b506102e561072736600461201e565b6111f8565b34801561073857600080fd5b506102e5610747366004612310565b61125e565b34801561075857600080fd5b5061028a7f9f2df0fed2c77648de5860a4cc508cd0818c85b8b8a1ab4ceeef8d981c8956a681565b34801561078c57600080fd5b506102e561079b36600461207c565b61167d565b3480156107ac57600080fd5b506002546104ae906001600160a01b031681565b3480156107cc57600080fd5b506102e56107db36600461225f565b611699565b3480156107ec57600080fd5b5061028a6107fb36600461221a565b60076020526000908152604090205481565b34801561081957600080fd5b506102e5610828366004611fe9565b61174e565b34801561083957600080fd5b506102e5610848366004612332565b6119a9565b34801561085957600080fd5b5061028a61086836600461221a565b60ff1660009081526007602052604090205490565b34801561088957600080fd5b5061025561089836600461201e565b6001600160a01b031660009081526009602052604090205460ff1690565b60006001600160e01b03198216637965db0b60e01b14806108e757506301ffc9a760e01b6001600160e01b03198316145b92915050565b60009081526000805160206124ad833981519152602052604090206001015490565b6001600160a01b03811660009081526004602090815260409182902080548351818402810184019094528084526060939283018282801561096f57602002820191906000526020600020905b81548152602001906001019080831161095b575b50505050509050919050565b610984826108ed565b61098d81611a1a565b6109978383611a27565b50505050565b6001600160a01b03811633146109c65760405163334bd91960e11b815260040160405180910390fd5b6109d08282611acc565b505050565b600360006109e1611b48565b8054909150600160401b900460ff1680610a095750805467ffffffffffffffff808416911610155b15610a275760405163f92ee8a960e01b815260040160405180910390fd5b805468ffffffffffffffffff191667ffffffffffffffff8316908117600160401b1760ff60401b191682556040519081527fc7f505b2f371ae2175ee4913f4499e1f2633a7b5936321eed1cdaeb6115181d29060200160405180910390a15050565b6000610a9481611a1a565b6001600160a01b038216610aef5760405162461bcd60e51b815260206004820152601d60248201527f43616e6e6f7420626c61636b6c697374207a65726f206164647265737300000060448201526064015b60405180910390fd5b6001600160a01b03821660009081526009602052604090205460ff1615610b585760405162461bcd60e51b815260206004820152601b60248201527f4164647265737320616c726561647920626c61636b6c697374656400000000006044820152606401610ae6565b6001600160a01b038216600081815260096020526040808220805460ff19166001179055513392917f4a740bebda0bde2baf1735e1b1fa93babe7a2bb77ecade7bf5e222d541c076cd91a35050565b6000610bb1611b48565b805490915060ff600160401b820416159067ffffffffffffffff16600081158015610bd95750825b905060008267ffffffffffffffff166001148015610bf65750303b155b905081158015610c04575080155b15610c225760405163f92ee8a960e01b815260040160405180910390fd5b845467ffffffffffffffff191660011785558315610c4c57845460ff60401b1916600160401b1785555b610c54611b71565b610c5c611b7b565b600080546001600160a01b03808a166001600160a01b031992831617835560018054918a1691909216179055610c929033611a27565b50610cbd7fa49807205ce4d355092ef5a8a18f56e8913cf4a201fbe287825b095693c2177533611a27565b50610ea960647f05b8ccbb9d4d8fb16ea74ce3c29a41f1b461fbdaff4714a0d9a8eb05499746bc5560c87f1471eb6eb2c5e789fc3de43f8ce62938c7d1836ec861730447e2ada8fd81017b5561012c7f89832631fb3c3307a103ba2c84ab569c64d6182a18893dcd163f0f1c2090733a556101907fa9bc9a3a348c357ba16b37005d7e6b3236198c0e939f4af8c5f19b8deeb8ebc05562278d007f54cdd369e4e8a8515e52ca72ec816c2101831ad1f18bf44102ed171459c9b4f8556276a7007f3e5fec24aa4dc4e5aee2e025e51e1392c72a2500577559fae9665c6d52bd6a315562ed4e007f8819ef417987f8ae7a81f42cdfb18815282fe989326fbff903d13cf0e03ace29556301e133807f75f96ab15d697e93042dc45b5c896c4b27e89bb6eaf39475c5c371cb2513f7d2556007602052681b1ae4d6e2ef5000007f6d5257204ebe7d88fd91ae87941cb2dd9d8062b64ae5a2bd2d28ec40b9fbf6df55683635c9adc5dea000007fb39221ace053465ec3453ce2b36430bd138b997ecea25c1043da0c366812b8285568878678326eac9000007fb7c774451310d1be4108bc180d1b52823cb0ee0274a6c0081bcaf94f115fb96d55600360005269010f0cf064dd592000007f3be6fd20d5acfde5b873b48692cd31f4d3c7e8ee8a813af4696af8859e5ca6c655565b8315610eef57845460ff60401b19168555604051600181527fc7f505b2f371ae2175ee4913f4499e1f2633a7b5936321eed1cdaeb6115181d29060200160405180910390a15b50505050505050565b610f00611b8b565b610f0982611c30565b610f138282611c3b565b5050565b6000610f21611cf8565b5060008051602061248d83398151915290565b6000610f3f81611a1a565b6001600160a01b03821660009081526009602052604090205460ff16610fa75760405162461bcd60e51b815260206004820152601760248201527f41646472657373206e6f7420626c61636b6c69737465640000000000000000006044820152606401610ae6565b6001600160a01b038216600081815260096020526040808220805460ff19169055513392917fc5d633221a999da7b50bad97ddd6cff0c917455d8651123a6433642833252b7c91a35050565b6004602052816000526040600020818154811061100f57600080fd5b90600052602060002001600091509150505481565b600061102f81611a1a565b60005b8281101561099757600084848381811061104e5761104e61236b565b9050602002016020810190611063919061201e565b90506001600160a01b0381161580159061109657506001600160a01b03811660009081526009602052604090205460ff16155b156110e7576001600160a01b038116600081815260096020526040808220805460ff19166001179055513392917f4a740bebda0bde2baf1735e1b1fa93babe7a2bb77ecade7bf5e222d541c076cd91a35b50600101611032565b60009182526000805160206124ad833981519152602090815260408084206001600160a01b0393909316845291905290205460ff1690565b60608167ffffffffffffffff811115611143576111436120d2565b60405190808252806020026020018201604052801561116c578160200160208202803683370190505b50905060005b828110156111f157600960008585848181106111905761119061236b565b90506020020160208101906111a5919061201e565b6001600160a01b03168152602081019190915260400160002054825160ff909116908390839081106111d9576111d961236b565b91151560209283029190910190910152600101611172565b5092915050565b6112036000336110f0565b61123c5760405162461bcd60e51b815260206004820152600a60248201526927b7363c9030b236b4b760b11b6044820152606401610ae6565b600280546001600160a01b0319166001600160a01b0392909216919091179055565b3360008181526009602052604090205460ff161561129a5760405163e2a0fe6360e01b81526001600160a01b0382166004820152602401610ae6565b600083116112ea5760405162461bcd60e51b815260206004820152601d60248201527f416d6f756e74206d7573742062652067726561746572207468616e20300000006044820152606401610ae6565b6000821161133a5760405162461bcd60e51b815260206004820152601f60248201527f4475726174696f6e206d7573742062652067726561746572207468616e2030006044820152606401610ae6565b600154604051632783162d60e11b8152600481018490526000916001600160a01b031690634f062c5a90602401602060405180830381865afa158015611384573d6000803e3d6000fd5b505050506040513d601f19601f820116820180604052508101906113a89190612381565b60038111156113b9576113b96123a2565b60ff811660009081526007602052604090205490915084101561141e5760405162461bcd60e51b815260206004820152601d60248201527f416d6f756e742062656c6f77206d696e696d756d20666f7220746965720000006044820152606401610ae6565b6000546040516323b872dd60e01b8152336004820152306024820152604481018690526001600160a01b03909116906323b872dd906064016020604051808303816000875af1158015611475573d6000803e3d6000fd5b505050506040513d601f19601f8201168201806040525081019061149991906123b8565b6114d75760405162461bcd60e51b815260206004820152600f60248201526e151c985b9cd9995c8819985a5b1959608a1b6044820152606401610ae6565b60088054600091826114e8836123f0565b919050559050604051806101600160405280828152602001336001600160a01b031681526020018681526020014281526020018581526020018360ff16815260200160011515815260200160008152602001600081526020014262278d006115509190612409565b815260006020918201819052838152600380835260408083208551815585850151600180830180546001600160a01b0319166001600160a01b0390931692909217909155868301516002830155606087015193820193909355608086015160048083019190915560a087015160058301805460c08a015160ff93841661ffff199092169190911761010091151582021790915560e0890151600685015588015160078401556101208801516008840155610140909701516009909201805460ff19169288169290921790915533808552908552818420805493840181558452928490209091018590558051898152938616928401929092529183917f777faa44f45af96105bd34ff5ed16f195afc71ff2a37560bbc675164bc1bd58d910160405180910390a35050505050565b611686826108ed565b61168f81611a1a565b6109978383611acc565b60006116a481611a1a565b60005b828110156109975760008484838181106116c3576116c361236b565b90506020020160208101906116d8919061201e565b6001600160a01b03811660009081526009602052604090205490915060ff1615611745576001600160a01b038116600081815260096020526040808220805460ff19169055513392917fc5d633221a999da7b50bad97ddd6cff0c917455d8651123a6433642833252b7c91a35b506001016116a7565b60008181526003602052604090206005810154610100900460ff166117ab5760405162461bcd60e51b8152602060048201526013602482015272506f736974696f6e206e6f742061637469766560681b6044820152606401610ae6565b80600801544210156117f85760405162461bcd60e51b8152602060048201526016602482015275151bdbc819585c9b1e48199bdc881b995e1d0813919560521b6044820152606401610ae6565b600061012c826004015461180c919061241c565b600983015490915060ff1681116118575760405162461bcd60e51b815260206004820152600f60248201526e105b1b081391951cc81b5a5b9d1959608a1b6044820152606401610ae6565b6002546001600160a01b031615611956576002805460018401549184015460048501546001600160a01b039283169363f4fb8159931691879161189e9062278d009061241c565b6003880154600989015460088a015460ff909116906118c09061012c90612409565b6040516001600160e01b031960e08a901b1681526001600160a01b039097166004880152602487019590955260448601939093526064850191909152608484015260ff1660a483015260c482015260e4016020604051808303816000875af1158015611930573d6000803e3d6000fd5b505050506040513d601f19601f82011682018060405250810190611954919061243e565b505b6009820180546001919060009061197190849060ff16612457565b92506101000a81548160ff021916908360ff16021790555061012c82600801600082825461199f9190612409565b9091555050505050565b60ff8416600081815260056020908152604080832087905560068252808320869055600782529182902084905581518681529081018590529081018390527f8a8be32f561bae947d8a12913d5ddbcb7eb4b7e8db9d7474ce283d37adb1ab739060600160405180910390a250505050565b611a248133611d41565b50565b60006000805160206124ad833981519152611a4284846110f0565b611ac2576000848152602082815260408083206001600160a01b03871684529091529020805460ff19166001179055611a783390565b6001600160a01b0316836001600160a01b0316857f2f8788117e7eff1d82e926ec794901d17c78024a50270940304540a733656f0d60405160405180910390a460019150506108e7565b60009150506108e7565b60006000805160206124ad833981519152611ae784846110f0565b15611ac2576000848152602082815260408083206001600160a01b0387168085529252808320805460ff1916905551339287917ff6391f5c32d9c69d2a47ea670b442974b53935d1edc7fd64eb21e047a839171b9190a460019150506108e7565b6000807ff0c57e16840df040f15088dc2f81fe391c3923bec73e23a9662efc9c229c6a006108e7565b611b79611d7a565b565b611b83611d7a565b611b79611d9f565b306001600160a01b037f0000000000000000000000000000000000000000000000000000000000000000161480611c1257507f00000000000000000000000000000000000000000000000000000000000000006001600160a01b0316611c0660008051602061248d833981519152546001600160a01b031690565b6001600160a01b031614155b15611b795760405163703e46dd60e11b815260040160405180910390fd5b6000610f1381611a1a565b816001600160a01b03166352d1902d6040518163ffffffff1660e01b8152600401602060405180830381865afa925050508015611c95575060408051601f3d908101601f19168201909252611c929181019061243e565b60015b611cbd57604051634c9c8ce360e01b81526001600160a01b0383166004820152602401610ae6565b60008051602061248d8339815191528114611cee57604051632a87526960e21b815260048101829052602401610ae6565b6109d08383611dcd565b306001600160a01b037f00000000000000000000000000000000000000000000000000000000000000001614611b795760405163703e46dd60e11b815260040160405180910390fd5b611d4b82826110f0565b610f135760405163e2517d3f60e01b81526001600160a01b038216600482015260248101839052604401610ae6565b611d82611e23565b611b7957604051631afcd79f60e31b815260040160405180910390fd5b611da7611d7a565b60017f9b779b17422d0df92223018b32b4d1fa46e071723d6817e2486d003becc55f0055565b611dd682611e3d565b6040516001600160a01b038316907fbc7cd75a20ee27fd9adebab32041f755214dbc6bffa90cc0225b39da2e5c2d3b90600090a2805115611e1b576109d08282611ea2565b610f13611f18565b6000611e2d611b48565b54600160401b900460ff16919050565b806001600160a01b03163b600003611e7357604051634c9c8ce360e01b81526001600160a01b0382166004820152602401610ae6565b60008051602061248d83398151915280546001600160a01b0319166001600160a01b0392909216919091179055565b6060600080846001600160a01b031684604051611ebf9190612470565b600060405180830381855af49150503d8060008114611efa576040519150601f19603f3d011682016040523d82523d6000602084013e611eff565b606091505b5091509150611f0f858383611f37565b95945050505050565b3415611b795760405163b398979f60e01b815260040160405180910390fd5b606082611f4c57611f4782611f96565b611f8f565b8151158015611f6357506001600160a01b0384163b155b15611f8c57604051639996b31560e01b81526001600160a01b0385166004820152602401610ae6565b50805b9392505050565b805115611fa65780518082602001fd5b60405163d6bda27560e01b815260040160405180910390fd5b600060208284031215611fd157600080fd5b81356001600160e01b031981168114611f8f57600080fd5b600060208284031215611ffb57600080fd5b5035919050565b80356001600160a01b038116811461201957600080fd5b919050565b60006020828403121561203057600080fd5b611f8f82612002565b602080825282518282018190526000918401906040840190835b81811015612071578351835260209384019390920191600101612053565b509095945050505050565b6000806040838503121561208f57600080fd5b8235915061209f60208401612002565b90509250929050565b600080604083850312156120bb57600080fd5b6120c483612002565b915061209f60208401612002565b634e487b7160e01b600052604160045260246000fd5b600080604083850312156120fb57600080fd5b61210483612002565b9150602083013567ffffffffffffffff81111561212057600080fd5b8301601f8101851361213157600080fd5b803567ffffffffffffffff81111561214b5761214b6120d2565b604051601f8201601f19908116603f0116810167ffffffffffffffff8111828210171561217a5761217a6120d2565b60405281815282820160200187101561219257600080fd5b816020840160208301376000602083830101528093505050509250929050565b60005b838110156121cd5781810151838201526020016121b5565b50506000910152565b60208152600082518060208401526121f58160408501602087016121b2565b601f01601f19169190910160400192915050565b803560ff8116811461201957600080fd5b60006020828403121561222c57600080fd5b611f8f82612209565b6000806040838503121561224857600080fd5b61225183612002565b946020939093013593505050565b6000806020838503121561227257600080fd5b823567ffffffffffffffff81111561228957600080fd5b8301601f8101851361229a57600080fd5b803567ffffffffffffffff8111156122b157600080fd5b8560208260051b84010111156122c657600080fd5b6020919091019590945092505050565b602080825282518282018190526000918401906040840190835b8181101561207157835115158352602093840193909201916001016122f0565b6000806040838503121561232357600080fd5b50508035926020909101359150565b6000806000806080858703121561234857600080fd5b61235185612209565b966020860135965060408601359560600135945092505050565b634e487b7160e01b600052603260045260246000fd5b60006020828403121561239357600080fd5b815160048110611f8f57600080fd5b634e487b7160e01b600052602160045260246000fd5b6000602082840312156123ca57600080fd5b81518015158114611f8f57600080fd5b634e487b7160e01b600052601160045260246000fd5b600060018201612402576124026123da565b5060010190565b808201808211156108e7576108e76123da565b60008261243957634e487b7160e01b600052601260045260246000fd5b500490565b60006020828403121561245057600080fd5b5051919050565b60ff81811683821601908111156108e7576108e76123da565b600082516124828184602087016121b2565b919091019291505056fe360894a13ba1a3210667c828492db98dca3e2076cc3735a920a3ca505d382bbc02dd7bc7dec4dceedda775e58dd541e08a116c6c53815c0bd028192f7b626800a2646970667358221220f064d689b7875b5c40a055a6bb2d50a90bdeca69fbd2b9ff8570d2f562209e5964736f6c634300081c0033",
  "linkReferences": {},
  "deployedLinkReferences": {}
}