{
  "_format": "hh-sol-artifact-1",
  "contractName": "VoucherManager",
  "sourceName": "contracts/VoucherManager.sol",
  "abi": [
    {
      "inputs": [],
      "stateMutability": "nonpayable",
      "type": "constructor"
    },
    {
      "inputs": [],
      "name": "AccessControlBadConfirmation",
      "type": "error"
    },
    {
      "inputs": [
        {
          "internalType": "address",
          "name": "account",
          "type": "address"
        },
        {
          "internalType": "bytes32",
          "name": "neededRole",
          "type": "bytes32"
        }
      ],
      "name": "AccessControlUnauthorizedAccount",
      "type": "error"
    },
    {
      "inputs": [],
      "name": "ReentrancyGuardReentrantCall",
      "type": "error"
    },
    {
      "anonymous": false,
      "inputs": [
        {
          "indexed": true,
          "internalType": "uint256",
          "name": "voucherId",
          "type": "uint256"
        },
        {
          "indexed": false,
          "internalType": "string",
          "name": "qrCode",
          "type": "string"
        }
      ],
      "name": "QRCodeGenerated",
      "type": "event"
    },
    {
      "anonymous": false,
      "inputs": [
        {
          "indexed": true,
          "internalType": "bytes32",
          "name": "role",
          "type": "bytes32"
        },
        {
          "indexed": true,
          "internalType": "bytes32",
          "name": "previousAdminRole",
          "type": "bytes32"
        },
        {
          "indexed": true,
          "internalType": "bytes32",
          "name": "newAdminRole",
          "type": "bytes32"
        }
      ],
      "name": "RoleAdminChanged",
      "type": "event"
    },
    {
      "anonymous": false,
      "inputs": [
        {
          "indexed": true,
          "internalType": "bytes32",
          "name": "role",
          "type": "bytes32"
        },
        {
          "indexed": true,
          "internalType": "address",
          "name": "account",
          "type": "address"
        },
        {
          "indexed": true,
          "internalType": "address",
          "name": "sender",
          "type": "address"
        }
      ],
      "name": "RoleGranted",
      "type": "event"
    },
    {
      "anonymous": false,
      "inputs": [
        {
          "indexed": true,
          "internalType": "bytes32",
          "name": "role",
          "type": "bytes32"
        },
        {
          "indexed": true,
          "internalType": "address",
          "name": "account",
          "type": "address"
        },
        {
          "indexed": true,
          "internalType": "address",
          "name": "sender",
          "type": "address"
        }
      ],
      "name": "RoleRevoked",
      "type": "event"
    },
    {
      "anonymous": false,
      "inputs": [
        {
          "indexed": true,
          "internalType": "uint256",
          "name": "voucherId",
          "type": "uint256"
        },
        {
          "indexed": true,
          "internalType": "address",
          "name": "owner",
          "type": "address"
        },
        {
          "indexed": false,
          "internalType": "enum VoucherManager.VoucherType",
          "name": "voucherType",
          "type": "uint8"
        },
        {
          "indexed": false,
          "internalType": "string",
          "name": "name",
          "type": "string"
        }
      ],
      "name": "VoucherCreated",
      "type": "event"
    },
    {
      "anonymous": false,
      "inputs": [
        {
          "indexed": true,
          "internalType": "uint256",
          "name": "voucherId",
          "type": "uint256"
        }
      ],
      "name": "VoucherDeactivated",
      "type": "event"
    },
    {
      "anonymous": false,
      "inputs": [
        {
          "indexed": true,
          "internalType": "uint256",
          "name": "voucherId",
          "type": "uint256"
        },
        {
          "indexed": true,
          "internalType": "address",
          "name": "redeemer",
          "type": "address"
        },
        {
          "indexed": false,
          "internalType": "string",
          "name": "qrCode",
          "type": "string"
        }
      ],
      "name": "VoucherRedeemed",
      "type": "event"
    },
    {
      "inputs": [],
      "name": "ADMIN_ROLE",
      "outputs": [
        {
          "internalType": "bytes32",
          "name": "",
          "type": "bytes32"
        }
      ],
      "stateMutability": "view",
      "type": "function"
    },
    {
      "inputs": [],
      "name": "DEFAULT_ADMIN_ROLE",
      "outputs": [
        {
          "internalType": "bytes32",
          "name": "",
          "type": "bytes32"
        }
      ],
      "stateMutability": "view",
      "type": "function"
    },
    {
      "inputs": [],
      "name": "REDEEMER_ROLE",
      "outputs": [
        {
          "internalType": "bytes32",
          "name": "",
          "type": "bytes32"
        }
      ],
      "stateMutability": "view",
      "type": "function"
    },
    {
      "inputs": [
        {
          "internalType": "address",
          "name": "redeemer",
          "type": "address"
        }
      ],
      "name": "addRedeemer",
      "outputs": [],
      "stateMutability": "nonpayable",
      "type": "function"
    },
    {
      "inputs": [
        {
          "internalType": "address",
          "name": "owner",
          "type": "address"
        },
        {
          "internalType": "uint256",
          "name": "positionId",
          "type": "uint256"
        },
        {
          "internalType": "uint8",
          "name": "tier",
          "type": "uint8"
        }
      ],
      "name": "createVouchersForPosition",
      "outputs": [
        {
          "internalType": "uint256[]",
          "name": "",
          "type": "uint256[]"
        }
      ],
      "stateMutability": "nonpayable",
      "type": "function"
    },
    {
      "inputs": [
        {
          "internalType": "uint256",
          "name": "voucherId",
          "type": "uint256"
        }
      ],
      "name": "deactivateVoucher",
      "outputs": [],
      "stateMutability": "nonpayable",
      "type": "function"
    },
    {
      "inputs": [
        {
          "internalType": "string",
          "name": "qrCode",
          "type": "string"
        }
      ],
      "name": "findVoucherByQRCode",
      "outputs": [
        {
          "components": [
            {
              "internalType": "uint256",
              "name": "id",
              "type": "uint256"
            },
            {
              "internalType": "address",
              "name": "owner",
              "type": "address"
            },
            {
              "internalType": "enum VoucherManager.VoucherType",
              "name": "voucherType",
              "type": "uint8"
            },
            {
              "internalType": "string",
              "name": "name",
              "type": "string"
            },
            {
              "internalType": "string",
              "name": "description",
              "type": "string"
            },
            {
              "internalType": "string",
              "name": "value",
              "type": "string"
            },
            {
              "internalType": "uint256",
              "name": "maxUses",
              "type": "uint256"
            },
            {
              "internalType": "uint256",
              "name": "currentUses",
              "type": "uint256"
            },
            {
              "internalType": "uint256",
              "name": "expiresAt",
              "type": "uint256"
            },
            {
              "internalType": "bool",
              "name": "isActive",
              "type": "bool"
            },
            {
              "internalType": "string",
              "name": "qrCode",
              "type": "string"
            },
            {
              "internalType": "uint256",
              "name": "positionId",
              "type": "uint256"
            }
          ],
          "internalType": "struct VoucherManager.Voucher",
          "name": "",
          "type": "tuple"
        }
      ],
      "stateMutability": "view",
      "type": "function"
    },
    {
      "inputs": [
        {
          "internalType": "bytes32",
          "name": "role",
          "type": "bytes32"
        }
      ],
      "name": "getRoleAdmin",
      "outputs": [
        {
          "internalType": "bytes32",
          "name": "",
          "type": "bytes32"
        }
      ],
      "stateMutability": "view",
      "type": "function"
    },
    {
      "inputs": [
        {
          "internalType": "address",
          "name": "user",
          "type": "address"
        }
      ],
      "name": "getUserVouchers",
      "outputs": [
        {
          "internalType": "uint256[]",
          "name": "",
          "type": "uint256[]"
        }
      ],
      "stateMutability": "view",
      "type": "function"
    },
    {
      "inputs": [
        {
          "internalType": "uint256",
          "name": "voucherId",
          "type": "uint256"
        }
      ],
      "name": "getVoucher",
      "outputs": [
        {
          "components": [
            {
              "internalType": "uint256",
              "name": "id",
              "type": "uint256"
            },
            {
              "internalType": "address",
              "name": "owner",
              "type": "address"
            },
            {
              "internalType": "enum VoucherManager.VoucherType",
              "name": "voucherType",
              "type": "uint8"
            },
            {
              "internalType": "string",
              "name": "name",
              "type": "string"
            },
            {
              "internalType": "string",
              "name": "description",
              "type": "string"
            },
            {
              "internalType": "string",
              "name": "value",
              "type": "string"
            },
            {
              "internalType": "uint256",
              "name": "maxUses",
              "type": "uint256"
            },
            {
              "internalType": "uint256",
              "name": "currentUses",
              "type": "uint256"
            },
            {
              "internalType": "uint256",
              "name": "expiresAt",
              "type": "uint256"
            },
            {
              "internalType": "bool",
              "name": "isActive",
              "type": "bool"
            },
            {
              "internalType": "string",
              "name": "qrCode",
              "type": "string"
            },
            {
              "internalType": "uint256",
              "name": "positionId",
              "type": "uint256"
            }
          ],
          "internalType": "struct VoucherManager.Voucher",
          "name": "",
          "type": "tuple"
        }
      ],
      "stateMutability": "view",
      "type": "function"
    },
    {
      "inputs": [
        {
          "internalType": "bytes32",
          "name": "role",
          "type": "bytes32"
        },
        {
          "internalType": "address",
          "name": "account",
          "type": "address"
        }
      ],
      "name": "grantRole",
      "outputs": [],
      "stateMutability": "nonpayable",
      "type": "function"
    },
    {
      "inputs": [
        {
          "internalType": "bytes32",
          "name": "role",
          "type": "bytes32"
        },
        {
          "internalType": "address",
          "name": "account",
          "type": "address"
        }
      ],
      "name": "hasRole",
      "outputs": [
        {
          "internalType": "bool",
          "name": "",
          "type": "bool"
        }
      ],
      "stateMutability": "view",
      "type": "function"
    },
    {
      "inputs": [
        {
          "internalType": "uint256",
          "name": "voucherId",
          "type": "uint256"
        }
      ],
      "name": "isVoucherValid",
      "outputs": [
        {
          "internalType": "bool",
          "name": "",
          "type": "bool"
        }
      ],
      "stateMutability": "view",
      "type": "function"
    },
    {
      "inputs": [
        {
          "internalType": "string",
          "name": "",
          "type": "string"
        }
      ],
      "name": "qrCodeUsed",
      "outputs": [
        {
          "internalType": "bool",
          "name": "",
          "type": "bool"
        }
      ],
      "stateMutability": "view",
      "type": "function"
    },
    {
      "inputs": [
        {
          "internalType": "string",
          "name": "qrCode",
          "type": "string"
        },
        {
          "internalType": "address",
          "name": "redeemer",
          "type": "address"
        }
      ],
      "name": "redeemVoucher",
      "outputs": [
        {
          "internalType": "bool",
          "name": "",
          "type": "bool"
        }
      ],
      "stateMutability": "nonpayable",
      "type": "function"
    },
    {
      "inputs": [
        {
          "internalType": "uint256",
          "name": "voucherId",
          "type": "uint256"
        }
      ],
      "name": "redeemVoucherById",
      "outputs": [
        {
          "internalType": "bool",
          "name": "",
          "type": "bool"
        }
      ],
      "stateMutability": "nonpayable",
      "type": "function"
    },
    {
      "inputs": [
        {
          "internalType": "address",
          "name": "redeemer",
          "type": "address"
        }
      ],
      "name": "removeRedeemer",
      "outputs": [],
      "stateMutability": "nonpayable",
      "type": "function"
    },
    {
      "inputs": [
        {
          "internalType": "bytes32",
          "name": "role",
          "type": "bytes32"
        },
        {
          "internalType": "address",
          "name": "callerConfirmation",
          "type": "address"
        }
      ],
      "name": "renounceRole",
      "outputs": [],
      "stateMutability": "nonpayable",
      "type": "function"
    },
    {
      "inputs": [
        {
          "internalType": "bytes32",
          "name": "role",
          "type": "bytes32"
        },
        {
          "internalType": "address",
          "name": "account",
          "type": "address"
        }
      ],
      "name": "revokeRole",
      "outputs": [],
      "stateMutability": "nonpayable",
      "type": "function"
    },
    {
      "inputs": [
        {
          "internalType": "uint256",
          "name": "voucherId",
          "type": "uint256"
        },
        {
          "internalType": "uint256",
          "name": "expirationTime",
          "type": "uint256"
        }
      ],
      "name": "setVoucherExpiration",
      "outputs": [],
      "stateMutability": "nonpayable",
      "type": "function"
    },
    {
      "inputs": [
        {
          "internalType": "bytes4",
          "name": "interfaceId",
          "type": "bytes4"
        }
      ],
      "name": "supportsInterface",
      "outputs": [
        {
          "internalType": "bool",
          "name": "",
          "type": "bool"
        }
      ],
      "stateMutability": "view",
      "type": "function"
    },
    {
      "inputs": [
        {
          "internalType": "uint256",
          "name": "",
          "type": "uint256"
        }
      ],
      "name": "usedVouchers",
      "outputs": [
        {
          "internalType": "bool",
          "name": "",
          "type": "bool"
        }
      ],
      "stateMutability": "view",
      "type": "function"
    },
    {
      "inputs": [
        {
          "internalType": "address",
          "name": "",
          "type": "address"
        },
        {
          "internalType": "uint256",
          "name": "",
          "type": "uint256"
        }
      ],
      "name": "userVouchers",
      "outputs": [
        {
          "internalType": "uint256",
          "name": "",
          "type": "uint256"
        }
      ],
      "stateMutability": "view",
      "type": "function"
    },
    {
      "inputs": [
        {
          "internalType": "uint256",
          "name": "",
          "type": "uint256"
        }
      ],
      "name": "voucherUses",
      "outputs": [
        {
          "internalType": "uint256",
          "name": "",
          "type": "uint256"
        }
      ],
      "stateMutability": "view",
      "type": "function"
    },
    {
      "inputs": [
        {
          "internalType": "uint256",
          "name": "",
          "type": "uint256"
        }
      ],
      "name": "vouchers",
      "outputs": [
        {
          "internalType": "uint256",
          "name": "id",
          "type": "uint256"
        },
        {
          "internalType": "address",
          "name": "owner",
          "type": "address"
        },
        {
          "internalType": "enum VoucherManager.VoucherType",
          "name": "voucherType",
          "type": "uint8"
        },
        {
          "internalType": "string",
          "name": "name",
          "type": "string"
        },
        {
          "internalType": "string",
          "name": "description",
          "type": "string"
        },
        {
          "internalType": "string",
          "name": "value",
          "type": "string"
        },
        {
          "internalType": "uint256",
          "name": "maxUses",
          "type": "uint256"
        },
        {
          "internalType": "uint256",
          "name": "currentUses",
          "type": "uint256"
        },
        {
          "internalType": "uint256",
          "name": "expiresAt",
          "type": "uint256"
        },
        {
          "internalType": "bool",
          "name": "isActive",
          "type": "bool"
        },
        {
          "internalType": "string",
          "name": "qrCode",
          "type": "string"
        },
        {
          "internalType": "uint256",
          "name": "positionId",
          "type": "uint256"
        }
      ],
      "stateMutability": "view",
      "type": "function"
    }
  ],
  "bytecode": "0x6080604052600160025534801561001557600080fd5b5060018055610025600033610081565b506100507fa49807205ce4d355092ef5a8a18f56e8913cf4a201fbe287825b095693c2177533610081565b5061007b7f44ac9762eec3a11893fefb11d028bb3102560094137c3ed4518712475b2577cc33610081565b5061012d565b6000828152602081815260408083206001600160a01b038516845290915281205460ff16610123576000838152602081815260408083206001600160a01b03861684529091529020805460ff191660011790556100db3390565b6001600160a01b0316826001600160a01b0316847f2f8788117e7eff1d82e926ec794901d17c78024a50270940304540a733656f0d60405160405180910390a4506001610127565b5060005b92915050565b6141818061013c6000396000f3fe608060405234801561001057600080fd5b50600436106101735760003560e01c80637fa46ab4116100de578063d030824a11610097578063eb8e413b11610071578063eb8e413b14610384578063f28e91d714610397578063f91ce77e146103aa578063fee1bd7c146103bd57600080fd5b8063d030824a1461033b578063d547741f1461035e578063e50f3c871461037157600080fd5b80637fa46ab4146102c5578063886c4e57146102da57806391d14854146102fa5780639b52b4311461030d578063a217fddf14610320578063c39fa9b11461032857600080fd5b806336568abe1161013057806336568abe146102395780633e97b43f1461024c5780636200ee7a14610277578063640cc26d1461028a578063645fc2d01461029d57806375b238fc146102b057600080fd5b806301ffc9a7146101785780630cfa2fd8146101a057806316537786146101c0578063248a9ca3146101d55780632d211e95146102065780632f2ff15d14610226575b600080fd5b61018b61018636600461371b565b6103eb565b60405190151581526020015b60405180910390f35b6101b36101ae36600461374c565b610422565b60405161019791906137ed565b6101d36101ce36600461390a565b610720565b005b6101f86101e336600461374c565b60009081526020819052604090206001015490565b604051908152602001610197565b61021961021436600461390a565b610755565b6040516101979190613925565b6101d3610234366004613968565b6107c1565b6101d3610247366004613968565b6107ec565b61025f61025a36600461374c565b61081f565b6040516101979c9b9a99989796959493929190613994565b61018b61028536600461374c565b610ab2565b6101b3610298366004613ae8565b610ba4565b61018b6102ab36600461374c565b610ed9565b6101f86000805160206140c983398151915281565b6101f86000805160206140a983398151915281565b6101f86102e836600461374c565b60066020526000908152604090205481565b61018b610308366004613968565b6111ef565b6101d361031b36600461374c565b611218565b6101f8600081565b6101d3610336366004613b25565b6112a1565b61018b61034936600461374c565b60056020526000908152604090205460ff1681565b6101d361036c366004613968565b611371565b61018b61037f366004613b47565b611396565b610219610392366004613b8c565b61178e565b6101d36103a536600461390a565b61303e565b6101f86103b8366004613bd2565b61306e565b61018b6103cb366004613ae8565b805160208183018101805160078252928201919093012091525460ff1681565b60006001600160e01b03198216637965db0b60e01b148061041c57506301ffc9a760e01b6001600160e01b03198316145b92915050565b61042a6136b8565b6000828152600360209081526040918290208251610180810184528154815260018201546001600160a01b0381169382019390935292909190830190600160a01b900460ff16600281111561048157610481613765565b600281111561049257610492613765565b81526020016002820180546104a690613bfc565b80601f01602080910402602001604051908101604052809291908181526020018280546104d290613bfc565b801561051f5780601f106104f45761010080835404028352916020019161051f565b820191906000526020600020905b81548152906001019060200180831161050257829003601f168201915b5050505050815260200160038201805461053890613bfc565b80601f016020809104026020016040519081016040528092919081815260200182805461056490613bfc565b80156105b15780601f10610586576101008083540402835291602001916105b1565b820191906000526020600020905b81548152906001019060200180831161059457829003601f168201915b505050505081526020016004820180546105ca90613bfc565b80601f01602080910402602001604051908101604052809291908181526020018280546105f690613bfc565b80156106435780601f1061061857610100808354040283529160200191610643565b820191906000526020600020905b81548152906001019060200180831161062657829003601f168201915b5050509183525050600582015460208201526006820154604082015260078201546060820152600882015460ff161515608082015260098201805460a09092019161068d90613bfc565b80601f01602080910402602001604051908101604052809291908181526020018280546106b990613bfc565b80156107065780601f106106db57610100808354040283529160200191610706565b820191906000526020600020905b8154815290600101906020018083116106e957829003601f168201915b50505050508152602001600a820154815250509050919050565b6000805160206140c98339815191526107388161309f565b6107506000805160206140a9833981519152836130ac565b505050565b6001600160a01b0381166000908152600460209081526040918290208054835181840281018401909452808452606093928301828280156107b557602002820191906000526020600020905b8154815260200190600101908083116107a1575b50505050509050919050565b6000828152602081905260409020600101546107dc8161309f565b6107e6838361311f565b50505050565b6001600160a01b03811633146108155760405163334bd91960e11b815260040160405180910390fd5b61075082826130ac565b60036020526000908152604090208054600182015460028301805492936001600160a01b03831693600160a01b90930460ff169290919061085f90613bfc565b80601f016020809104026020016040519081016040528092919081815260200182805461088b90613bfc565b80156108d85780601f106108ad576101008083540402835291602001916108d8565b820191906000526020600020905b8154815290600101906020018083116108bb57829003601f168201915b5050505050908060030180546108ed90613bfc565b80601f016020809104026020016040519081016040528092919081815260200182805461091990613bfc565b80156109665780601f1061093b57610100808354040283529160200191610966565b820191906000526020600020905b81548152906001019060200180831161094957829003601f168201915b50505050509080600401805461097b90613bfc565b80601f01602080910402602001604051908101604052809291908181526020018280546109a790613bfc565b80156109f45780601f106109c9576101008083540402835291602001916109f4565b820191906000526020600020905b8154815290600101906020018083116109d757829003601f168201915b50505060058401546006850154600786015460088701546009880180549798949793965091945060ff169291610a2990613bfc565b80601f0160208091040260200160405190810160405280929190818152602001828054610a5590613bfc565b8015610aa25780601f10610a7757610100808354040283529160200191610aa2565b820191906000526020600020905b815481529060010190602001808311610a8557829003601f168201915b50505050509080600a015490508c565b6000818152600360205260408120600881015460ff16610ad55750600092915050565b60018101546001600160a01b0316610af05750600092915050565b60006001820154600160a01b900460ff166002811115610b1257610b12613765565b03610b2f57505060009081526005602052604090205460ff161590565b600180820154600160a01b900460ff166002811115610b5057610b50613765565b03610b675760058101546006909101541092915050565b60026001820154600160a01b900460ff166002811115610b8957610b89613765565b03610b9b576007015442111592915050565b50600092915050565b610bac6136b8565b6000610bb7836131a9565b905080600003610be25760405162461bcd60e51b8152600401610bd990613c30565b60405180910390fd5b6000818152600360209081526040918290208251610180810184528154815260018201546001600160a01b0381169382019390935292909190830190600160a01b900460ff166002811115610c3957610c39613765565b6002811115610c4a57610c4a613765565b8152602001600282018054610c5e90613bfc565b80601f0160208091040260200160405190810160405280929190818152602001828054610c8a90613bfc565b8015610cd75780601f10610cac57610100808354040283529160200191610cd7565b820191906000526020600020905b815481529060010190602001808311610cba57829003601f168201915b50505050508152602001600382018054610cf090613bfc565b80601f0160208091040260200160405190810160405280929190818152602001828054610d1c90613bfc565b8015610d695780601f10610d3e57610100808354040283529160200191610d69565b820191906000526020600020905b815481529060010190602001808311610d4c57829003601f168201915b50505050508152602001600482018054610d8290613bfc565b80601f0160208091040260200160405190810160405280929190818152602001828054610dae90613bfc565b8015610dfb5780601f10610dd057610100808354040283529160200191610dfb565b820191906000526020600020905b815481529060010190602001808311610dde57829003601f168201915b5050509183525050600582015460208201526006820154604082015260078201546060820152600882015460ff161515608082015260098201805460a090920191610e4590613bfc565b80601f0160208091040260200160405190810160405280929190818152602001828054610e7190613bfc565b8015610ebe5780601f10610e9357610100808354040283529160200191610ebe565b820191906000526020600020905b815481529060010190602001808311610ea157829003601f168201915b50505050508152602001600a82015481525050915050919050565b60006000805160206140a9833981519152610ef38161309f565b610efb6131fe565b6000838152600360205260408120549003610f285760405162461bcd60e51b8152600401610bd990613c30565b6000838152600360205260409020600881015460ff16610f7f5760405162461bcd60e51b8152602060048201526012602482015271566f7563686572206e6f742061637469766560701b6044820152606401610bd9565b60018101546001600160a01b0316610fcb5760405162461bcd60e51b815260206004820152600f60248201526e24b73b30b634b2103b37bab1b432b960891b6044820152606401610bd9565b60006001820154600160a01b900460ff166002811115610fed57610fed613765565b036110745760008481526005602052604090205460ff16156110485760405162461bcd60e51b8152602060048201526014602482015273159bdd58da195c88185b1c9958591e481d5cd95960621b6044820152606401610bd9565b6000848152600560205260409020805460ff199081166001179091556008820180549091169055611196565b600180820154600160a01b900460ff16600281111561109557611095613765565b036111295780600501548160060154106110f15760405162461bcd60e51b815260206004820152601b60248201527f566f7563686572207573616765206c696d6974207265616368656400000000006044820152606401610bd9565b60068101805490600061110383613c5b565b919050555080600501548160060154106111245760088101805460ff191690555b611196565b60026001820154600160a01b900460ff16600281111561114b5761114b613765565b036111965780600701544211156111965760405162461bcd60e51b815260206004820152600f60248201526e159bdd58da195c88195e1c1a5c9959608a1b6044820152606401610bd9565b336001600160a01b0316847f290c04f5af8237e05060307ac611b85db686e06624753298f18cc184e0164f0d836009016040516111d39190613c82565b60405180910390a360019250506111e960018055565b50919050565b6000918252602082815260408084206001600160a01b0393909316845291905290205460ff1690565b6000805160206140c98339815191526112308161309f565b600082815260036020526040812054900361125d5760405162461bcd60e51b8152600401610bd990613c30565b600082815260036020526040808220600801805460ff191690555183917f8aa46b1aea753332634408e435aefb589109f671657f39ae8910d3713009833c91a25050565b6000805160206140c98339815191526112b98161309f565b60008381526003602052604081205490036112e65760405162461bcd60e51b8152600401610bd990613c30565b6002600084815260036020526040902060010154600160a01b900460ff16600281111561131557611315613765565b1461135b5760405162461bcd60e51b81526020600482015260166024820152752737ba103090222aa920aa24a7a7103b37bab1b432b960511b6044820152606401610bd9565b5060009182526003602052604090912060070155565b60008281526020819052604090206001015461138c8161309f565b6107e683836130ac565b60006000805160206140a98339815191526113b08161309f565b6113b86131fe565b6007846040516113c89190613d0e565b9081526040519081900360200190205460ff161561141f5760405162461bcd60e51b815260206004820152601460248201527314548818dbd91948185b1c9958591e481d5cd95960621b6044820152606401610bd9565b6001600160a01b0383166114685760405162461bcd60e51b815260206004820152601060248201526f24b73b30b634b2103932b232b2b6b2b960811b6044820152606401610bd9565b6000611473856131a9565b9050806000036114955760405162461bcd60e51b8152600401610bd990613c30565b6000818152600360205260409020600881015460ff166114ec5760405162461bcd60e51b8152602060048201526012602482015271566f7563686572206e6f742061637469766560701b6044820152606401610bd9565b60018101546001600160a01b03166115385760405162461bcd60e51b815260206004820152600f60248201526e24b73b30b634b2103b37bab1b432b960891b6044820152606401610bd9565b60006001820154600160a01b900460ff16600281111561155a5761155a613765565b036115e15760008281526005602052604090205460ff16156115b55760405162461bcd60e51b8152602060048201526014602482015273159bdd58da195c88185b1c9958591e481d5cd95960621b6044820152606401610bd9565b6000828152600560205260409020805460ff199081166001179091556008820180549091169055611703565b600180820154600160a01b900460ff16600281111561160257611602613765565b0361169657806005015481600601541061165e5760405162461bcd60e51b815260206004820152601b60248201527f566f7563686572207573616765206c696d6974207265616368656400000000006044820152606401610bd9565b60068101805490600061167083613c5b565b919050555080600501548160060154106116915760088101805460ff191690555b611703565b60026001820154600160a01b900460ff1660028111156116b8576116b8613765565b036117035780600701544211156117035760405162461bcd60e51b815260206004820152600f60248201526e159bdd58da195c88195e1c1a5c9959608a1b6044820152606401610bd9565b60016007876040516117159190613d0e565b908152604051908190036020018120805492151560ff19909316929092179091556001600160a01b0386169083907f290c04f5af8237e05060307ac611b85db686e06624753298f18cc184e0164f0d90611770908a90613d2a565b60405180910390a360019350505061178760018055565b5092915050565b60606000805160206140c98339815191526117a88161309f565b6001600160a01b0385166117ee5760405162461bcd60e51b815260206004820152600d60248201526c24b73b30b634b21037bbb732b960991b6044820152606401610bd9565b60608360ff16600003611a8b5760408051600480825260a082019092529060208201608080368337019050509050611884868660006040518060400160405280600b81526020016a0d4948111a5cd8dbdd5b9d60aa1b815250604051806060016040528060398152602001613fbb6039913960405180604001604052806002815260200161352560f01b81525060016000613228565b8160008151811061189757611897613d3d565b602002602001018181525050611914868660006040518060400160405280601081526020016f233932b2902932b73a30b6102437bab960811b81525060405180606001604052806031815260200161411b603191396040518060400160405280600681526020016518903437bab960d11b81525060016000613228565b8160018151811061192757611927613d3d565b6020026020010181815250506119bb868660006040518060400160405280600d81526020016c2932b73a30b61021b7bab837b760991b8152506040518060400160405280601881526020017f317820243530206361722072656e74616c20636f75706f6e00000000000000008152506040518060400160405280600381526020016202435360ec1b81525060016000613228565b816002815181106119ce576119ce613d3d565b602002602001018181525050611a67868660026040518060400160405280601381526020017214995cdd185d5c985b9d08111a5cd8dbdd5b9d606a1b8152506040518060400160405280601a81526020017f31302520646973636f756e742061742072657374617572616e740000000000008152506040518060400160405280600381526020016231302560e81b815250600080613228565b81600381518110611a7a57611a7a613d3d565b602002602001018181525050613035565b8360ff16600103612037576040805160098082526101408201909252906020820161012080368337019050509050611b21868660006040518060400160405280600b81526020016a0d4948111a5cd8dbdd5b9d60aa1b815250604051806060016040528060398152602001613fbb6039913960405180604001604052806002815260200161352560f01b81525060016000613228565b81600081518110611b3457611b34613d3d565b602002602001018181525050611bb38686600060405180604001604052806011815260200170467265652052656e74616c20486f75727360781b8152506040518060600160405280603281526020016140e960329139604051806040016040528060078152602001663220686f75727360c81b81525060016000613228565b81600181518110611bc657611bc6613d3d565b602002602001018181525050611c5c868660016040518060400160405280600e81526020016d52656e74616c20436f75706f6e7360901b8152506040518060400160405280601a81526020017f33782024313530206361722072656e74616c20636f75706f6e73000000000000815250604051806040016040528060048152602001630243135360e41b81525060036000613228565b81600281518110611c6f57611c6f613d3d565b602002602001018181525050611d0a8686600260405180604001604052806015815260200174105d5d1bc814d95c9d9a58d948111a5cd8dbdd5b9d605a1b8152506040518060400160405280601c81526020017f31352520646973636f756e74206174206175746f2073657276696365000000008152506040518060400160405280600381526020016231352560e81b815250600080613228565b81600381518110611d1d57611d1d613d3d565b602002602001018181525050611db6868660026040518060400160405280601381526020017214995cdd185d5c985b9d08111a5cd8dbdd5b9d606a1b8152506040518060400160405280601a81526020017f31302520646973636f756e742061742072657374617572616e740000000000008152506040518060400160405280600381526020016231302560e81b815250600080613228565b81600481518110611dc957611dc9613d3d565b602002602001018181525050611e498686600060405180604001604052806008815260200167086c2e440aec2e6d60c31b8152506040518060400160405280600d81526020016c08ce4caca40c6c2e440eec2e6d609b1b815250604051806040016040528060048152602001634672656560e01b81525060016000613228565b81600581518110611e5c57611e5c613d3d565b602002602001018181525050611ef7868660026040518060400160405280601081526020016f5072696f7269747920426f6f6b696e6760801b8152506040518060400160405280601c81526020017f5072696f7269747920626f6f6b696e6720666f722072656e74616c7300000000815250604051806040016040528060088152602001675072696f7269747960c01b815250600080613228565b81600681518110611f0a57611f0a613d3d565b602002602001018181525050611f93868660006040518060400160405280600b81526020016a436172205570677261646560a81b8152506040518060400160405280601081526020016f4672656520636172207570677261646560801b815250604051806040016040528060078152602001665570677261646560c81b81525060016000613228565b81600781518110611fa657611fa6613d3d565b602002602001018181525050612024868660006040518060400160405280601281526020017113185b589bdc99da1a5b9a4814995b9d185b60721b815250604051806060016040528060278152602001613ff46027913960405180604001604052806005815260200164312064617960d81b81525060016000613228565b81600881518110611a7a57611a7a613d3d565b8360ff1660020361273f5760408051600b80825261018082019092529060208201610160803683370190505090506120cd868660006040518060400160405280600b81526020016a0d4948111a5cd8dbdd5b9d60aa1b815250604051806060016040528060398152602001613fbb6039913960405180604001604052806002815260200161352560f01b81525060016000613228565b816000815181106120e0576120e0613d3d565b60200260200101818152505061215f8686600060405180604001604052806011815260200170467265652052656e74616c20486f75727360781b81525060405180606001604052806032815260200161401b60329139604051806040016040528060078152602001663320686f75727360c81b81525060016000613228565b8160018151811061217257612172613d3d565b602002602001018181525050612208868660016040518060400160405280600e81526020016d52656e74616c20436f75706f6e7360901b8152506040518060400160405280601a81526020017f36782024363030206361722072656e74616c20636f75706f6e73000000000000815250604051806040016040528060048152602001630243630360e41b81525060066000613228565b8160028151811061221b5761221b613d3d565b6020026020010181815250506122b68686600260405180604001604052806015815260200174105d5d1bc814d95c9d9a58d948111a5cd8dbdd5b9d605a1b8152506040518060400160405280601c81526020017f32302520646973636f756e74206174206175746f2073657276696365000000008152506040518060400160405280600381526020016232302560e81b815250600080613228565b816003815181106122c9576122c9613d3d565b602002602001018181525050612362868660026040518060400160405280601381526020017214995cdd185d5c985b9d08111a5cd8dbdd5b9d606a1b8152506040518060400160405280601a81526020017f31352520646973636f756e742061742072657374617572616e740000000000008152506040518060400160405280600381526020016231352560e81b815250600080613228565b8160048151811061237557612375613d3d565b6020026020010181815250506124128686600260405180604001604052806011815260200170556e6c696d69746564204d696c6561676560781b8152506040518060400160405280601c81526020017f556e6c696d69746564206d696c65616765206f6e2072656e74616c730000000081525060405180604001604052806009815260200168155b9b1a5b5a5d195960ba1b815250600080613228565b8160058151811061242557612425613d3d565b6020026020010181815250506124c18686600260405180604001604052806012815260200171283932b6b4bab690283937ba32b1ba34b7b760711b8152506040518060400160405280601b81526020017f5072656d69756d2070726f74656374696f6e20696e636c756465640000000000815250604051806040016040528060078152602001665072656d69756d60c81b815250600080613228565b816006815181106124d4576124d4613d3d565b60200260200101818152505061256f868660026040518060400160405280601081526020016f5072696f7269747920426f6f6b696e6760801b8152506040518060400160405280601c81526020017f5072696f7269747920626f6f6b696e6720666f722072656e74616c7300000000815250604051806040016040528060088152602001675072696f7269747960c01b815250600080613228565b8160078151811061258257612582613d3d565b60200260200101818152505061260b868660006040518060400160405280600b81526020016a436172205570677261646560a81b8152506040518060400160405280601081526020016f4672656520636172207570677261646560801b815250604051806040016040528060078152602001665570677261646560c81b81525060016000613228565b8160088151811061261e5761261e613d3d565b60200260200101818152505061269c868660006040518060400160405280601281526020017113185b589bdc99da1a5b9a4814995b9d185b60721b815250604051806060016040528060278152602001613ff46027913960405180604001604052806005815260200164312064617960d81b81525060016000613228565b816009815181106126af576126af613d3d565b60200260200101818152505061272c868660006040518060400160405280600f81526020016e5765656b656e64205061636b61676560881b815250604051806060016040528060268152602001613f95602691396040518060400160405280600781526020016615d9595ad95b9960ca1b81525060016000613228565b81600a81518110611a7a57611a7a613d3d565b8360ff166003036130355760408051600e8082526101e0820190925290602082016101c0803683370190505090506127d5868660006040518060400160405280600b81526020016a0d4948111a5cd8dbdd5b9d60aa1b815250604051806060016040528060398152602001613fbb6039913960405180604001604052806002815260200161352560f01b81525060016000613228565b816000815181106127e8576127e8613d3d565b6020026020010181815250506128678686600060405180604001604052806011815260200170467265652052656e74616c20486f75727360781b81525060405180606001604052806032815260200161404d60329139604051806040016040528060078152602001663520686f75727360c81b81525060016000613228565b8160018151811061287a5761287a613d3d565b602002602001018181525050612911868660016040518060400160405280600e81526020016d52656e74616c20436f75706f6e7360901b8152506040518060400160405280601c81526020017f313278202431323530206361722072656e74616c20636f75706f6e730000000081525060405180604001604052806005815260200164024313235360dc1b815250600c6000613228565b8160028151811061292457612924613d3d565b6020026020010181815250506129bf8686600260405180604001604052806015815260200174105d5d1bc814d95c9d9a58d948111a5cd8dbdd5b9d605a1b8152506040518060400160405280601c81526020017f33302520646973636f756e74206174206175746f2073657276696365000000008152506040518060400160405280600381526020016233302560e81b815250600080613228565b816003815181106129d2576129d2613d3d565b602002602001018181525050612a6b868660026040518060400160405280601381526020017214995cdd185d5c985b9d08111a5cd8dbdd5b9d606a1b8152506040518060400160405280601a81526020017f32302520646973636f756e742061742072657374617572616e740000000000008152506040518060400160405280600381526020016232302560e81b815250600080613228565b81600481518110612a7e57612a7e613d3d565b602002602001018181525050612b1b8686600260405180604001604052806011815260200170556e6c696d69746564204d696c6561676560781b8152506040518060400160405280601c81526020017f556e6c696d69746564206d696c65616765206f6e2072656e74616c730000000081525060405180604001604052806009815260200168155b9b1a5b5a5d195960ba1b815250600080613228565b81600581518110612b2e57612b2e613d3d565b602002602001018181525050612bca8686600260405180604001604052806012815260200171283932b6b4bab690283937ba32b1ba34b7b760711b8152506040518060400160405280601b81526020017f5072656d69756d2070726f74656374696f6e20696e636c756465640000000000815250604051806040016040528060078152602001665072656d69756d60c81b815250600080613228565b81600681518110612bdd57612bdd613d3d565b602002602001018181525050612c78868660026040518060400160405280601081526020016f5072696f7269747920426f6f6b696e6760801b8152506040518060400160405280601c81526020017f5072696f7269747920626f6f6b696e6720666f722072656e74616c7300000000815250604051806040016040528060088152602001675072696f7269747960c01b815250600080613228565b81600781518110612c8b57612c8b613d3d565b602002602001018181525050612d14868660006040518060400160405280600b81526020016a436172205570677261646560a81b8152506040518060400160405280601081526020016f4672656520636172207570677261646560801b815250604051806040016040528060078152602001665570677261646560c81b81525060016000613228565b81600881518110612d2757612d27613d3d565b602002602001018181525050612dc38686600060405180604001604052806011815260200170436861756666657572205365727669636560781b8152506040518060400160405280601981526020017f3620686f75727320636861756666657572207365727669636500000000000000815250604051806040016040528060078152602001663620686f75727360c81b81525060016000613228565b81600981518110612dd657612dd6613d3d565b602002602001018181525050612e668686600060405180604001604052806011815260200170467265652044656c69766572792055414560781b81525060405180604001604052806014815260200173467265652064656c697665727920696e2055414560601b815250604051806040016040528060048152602001634672656560e01b81525060016000613228565b81600a81518110612e7957612e79613d3d565b602002602001018181525050612ef7868660006040518060400160405280601281526020017113185b589bdc99da1a5b9a4814995b9d185b60721b815250604051806060016040528060278152602001613ff46027913960405180604001604052806005815260200164312064617960d81b81525060016000613228565b81600b81518110612f0a57612f0a613d3d565b602002602001018181525050612f87868660006040518060400160405280600f81526020016e5765656b656e64205061636b61676560881b815250604051806060016040528060268152602001613f95602691396040518060400160405280600781526020016615d9595ad95b9960ca1b81525060016000613228565b81600c81518110612f9a57612f9a613d3d565b602002602001018181525050613015868660006040518060400160405280600a8152602001690596163687420547269760b41b8152506040518060600160405280602a815260200161407f602a91396040518060400160405280600a8152602001692cb0b1b43a17aa37bab960b11b81525060016000613228565b81600d8151811061302857613028613d3d565b6020026020010181815250505b95945050505050565b6000805160206140c98339815191526130568161309f565b6107506000805160206140a98339815191528361311f565b6004602052816000526040600020818154811061308a57600080fd5b90600052602060002001600091509150505481565b6130a98133613499565b50565b60006130b883836111ef565b15613117576000838152602081815260408083206001600160a01b0386168085529252808320805460ff1916905551339286917ff6391f5c32d9c69d2a47ea670b442974b53935d1edc7fd64eb21e047a839171b9190a450600161041c565b50600061041c565b600061312b83836111ef565b613117576000838152602081815260408083206001600160a01b03861684529091529020805460ff191660011790556131613390565b6001600160a01b0316826001600160a01b0316847f2f8788117e7eff1d82e926ec794901d17c78024a50270940304540a733656f0d60405160405180910390a450600161041c565b600060015b600254811015610b9b578280519060200120600360008381526020019081526020016000206009016040516131e39190613d53565b6040518091039020036131f65792915050565b6001016131ae565b60026001540361322157604051633ee5aeb560e01b815260040160405180910390fd5b6002600155565b600280546000918291908261323c83613c5b565b919050559050600061324f828c8c6134d6565b9050600060028a600281111561326757613267613765565b03613270575060005b6040518061018001604052808481526020018d6001600160a01b031681526020018b60028111156132a3576132a3613765565b815260208082018c905260408083018c9052606083018b9052608083018a905260a0830189905260c08301859052600160e0840181905261010084018790526101209093018f9052600087815260038352819020845181559184015192820180546001600160a01b031981166001600160a01b03909516948517825591850151929390916001600160a81b03191617600160a01b83600281111561334957613349613765565b0217905550606082015160028201906133629082613e12565b50608082015160038201906133779082613e12565b5060a0820151600482019061338c9082613e12565b5060c0820151600582015560e08201516006820155610100820151600782015561012082015160088201805460ff191691151591909117905561014082015160098201906133da9082613e12565b506101609190910151600a909101556001600160a01b038c166000818152600460209081526040808320805460018101825590845291909220018590555184907f301d66678e53aeea3639fd107597f02b9b3377515e75a9f9c98c9232ad3f513e90613449908e908e90613ed1565b60405180910390a3827fe041a16e704f07ecadcc3a2adc4fee6dc8f69789a538d1ebaaed3ca699e3f96d836040516134819190613d2a565b60405180910390a250909a9950505050505050505050565b6134a382826111ef565b6134d25760405163e2517d3f60e01b81526001600160a01b038216600482015260248101839052604401610bd9565b5050565b60606134e18461354d565b604080516bffffffffffffffffffffffff19606087901b1660208201528151601481830301815260349091019091526135198461354d565b6135224261354d565b6040516020016135359493929190613ef1565b60405160208183030381529060405290509392505050565b6060600061355a836135e0565b600101905060008167ffffffffffffffff81111561357a5761357a613a43565b6040519080825280601f01601f1916602001820160405280156135a4576020820181803683370190505b5090508181016020015b600019016f181899199a1a9b1b9c1cb0b131b232b360811b600a86061a8153600a85049450846135ae57509392505050565b60008072184f03e93ff9f4daa797ed6e38ed64bf6a1f0160401b831061361f5772184f03e93ff9f4daa797ed6e38ed64bf6a1f0160401b830492506040015b6d04ee2d6d415b85acef8100000000831061364b576d04ee2d6d415b85acef8100000000830492506020015b662386f26fc10000831061366957662386f26fc10000830492506010015b6305f5e1008310613681576305f5e100830492506008015b612710831061369557612710830492506004015b606483106136a7576064830492506002015b600a831061041c5760010192915050565b60408051610180810182526000808252602082018190529091820190815260200160608152602001606081526020016060815260200160008152602001600081526020016000815260200160001515815260200160608152602001600081525090565b60006020828403121561372d57600080fd5b81356001600160e01b03198116811461374557600080fd5b9392505050565b60006020828403121561375e57600080fd5b5035919050565b634e487b7160e01b600052602160045260246000fd5b6003811061379957634e487b7160e01b600052602160045260246000fd5b9052565b60005b838110156137b85781810151838201526020016137a0565b50506000910152565b600081518084526137d981602086016020860161379d565b601f01601f19169290920160200192915050565b60208152815160208201526000602083015161381460408401826001600160a01b03169052565b506040830151613827606084018261377b565b50606083015161018060808401526138436101a08401826137c1565b90506080840151601f198483030160a085015261386082826137c1565b91505060a0840151601f198483030160c085015261387e82826137c1565b91505060c084015160e084015260e08401516101008401526101008401516101208401526101208401516138b761014085018215159052565b50610140840151838203601f19016101608501526138d582826137c1565b9150506101608401516101808401528091505092915050565b80356001600160a01b038116811461390557600080fd5b919050565b60006020828403121561391c57600080fd5b613745826138ee565b602080825282518282018190526000918401906040840190835b8181101561395d57835183526020938401939092019160010161393f565b509095945050505050565b6000806040838503121561397b57600080fd5b8235915061398b602084016138ee565b90509250929050565b8c81526001600160a01b038c1660208201526139b3604082018c61377b565b610180606082015260006139cb61018083018c6137c1565b82810360808401526139dd818c6137c1565b905082810360a08401526139f1818b6137c1565b90508860c08401528760e084015286610100840152613a1561012084018715159052565b828103610140840152613a2881866137c1565b915050826101608301529d9c50505050505050505050505050565b634e487b7160e01b600052604160045260246000fd5b600082601f830112613a6a57600080fd5b813567ffffffffffffffff811115613a8457613a84613a43565b604051601f8201601f19908116603f0116810167ffffffffffffffff81118282101715613ab357613ab3613a43565b604052818152838201602001851015613acb57600080fd5b816020850160208301376000918101602001919091529392505050565b600060208284031215613afa57600080fd5b813567ffffffffffffffff811115613b1157600080fd5b613b1d84828501613a59565b949350505050565b60008060408385031215613b3857600080fd5b50508035926020909101359150565b60008060408385031215613b5a57600080fd5b823567ffffffffffffffff811115613b7157600080fd5b613b7d85828601613a59565b92505061398b602084016138ee565b600080600060608486031215613ba157600080fd5b613baa846138ee565b925060208401359150604084013560ff81168114613bc757600080fd5b809150509250925092565b60008060408385031215613be557600080fd5b613bee836138ee565b946020939093013593505050565b600181811c90821680613c1057607f821691505b6020821081036111e957634e487b7160e01b600052602260045260246000fd5b602080825260119082015270159bdd58da195c881b9bdd08199bdd5b99607a1b604082015260600190565b600060018201613c7b57634e487b7160e01b600052601160045260246000fd5b5060010190565b602081526000808354613c9481613bfc565b8060208601526001821660008114613cb35760018114613ccf57613d03565b60ff1983166040870152604082151560051b8701019350613d03565b86600052602060002060005b83811015613cfa57815488820160400152600190910190602001613cdb565b87016040019450505b509195945050505050565b60008251613d2081846020870161379d565b9190910192915050565b60208152600061374560208301846137c1565b634e487b7160e01b600052603260045260246000fd5b6000808354613d6181613bfc565b600182168015613d785760018114613d8d57613d03565b60ff1983168652811515820286019350613d03565b86600052602060002060005b83811015613db557815488820152600190910190602001613d99565b50505093909301949350505050565b601f82111561075057806000526020600020601f840160051c81016020851015613deb5750805b601f840160051c820191505b81811015613e0b5760008155600101613df7565b5050505050565b815167ffffffffffffffff811115613e2c57613e2c613a43565b613e4081613e3a8454613bfc565b84613dc4565b6020601f821160018114613e745760008315613e5c5750848201515b600019600385901b1c1916600184901b178455613e0b565b600084815260208120601f198516915b82811015613ea45787850151825560209485019460019092019101613e84565b5084821015613ec25786840151600019600387901b60f8161c191681555b50505050600190811b01905550565b613edb818461377b565b604060208201526000613b1d60408301846137c1565b6c504144445f564f55434845525f60981b815260008551613f1981600d850160208a0161379d565b605f60f81b600d918401918201528551613f3a81600e840160208a0161379d565b600d81830101915050605f60f81b60018201528451613f6081600284016020890161379d565b600181830101915050605f60f81b60018201528351613f8681600284016020880161379d565b01600201969550505050505056fe5765656b656e6420776974682063617220616e6420352d7374617220686f74656c2073746179352520646973636f756e74207768656e20706179696e6720666f72206361722072656e74616c207769746820504144442d5220746f6b656e7331206461792072656e74616c206f66204c616d626f726768696e69204875726163616e2045564f3320686f75727320667265652072656e74616c207768656e2072656e74696e6720666f72203120646179206f72206d6f72653520686f75727320667265652072656e74616c207768656e2072656e74696e6720666f72203120646179206f72206d6f726559616368742074726970206f72207072697661746520746f7572206f662074686520456d69726174657344ac9762eec3a11893fefb11d028bb3102560094137c3ed4518712475b2577cca49807205ce4d355092ef5a8a18f56e8913cf4a201fbe287825b095693c217753220686f75727320667265652072656e74616c207768656e2072656e74696e6720666f72203120646179206f72206d6f72653120686f757220667265652072656e74616c207768656e2072656e74696e6720666f72203120646179206f72206d6f7265a264697066735822122000027c0e7354b82dc4e60521517f421c2f2b5ce01613861ffe3f67e5935c672564736f6c634300081c0033",
  "linkReferences": {},
  "deployedLinkReferences": {}
}