{
  "_format": "hh-sol-artifact-1",
  "contractName": "PADTokenV3Simple",
  "sourceName": "contracts/PADTokenV3Simple.sol",
  "abi": [
    {
      "inputs": [],
      "stateMutability": "nonpayable",
      "type": "constructor"
    },
    {
      "inputs": [],
      "name": "AccessControlBadConfirmation",
      "type": "error"
    },
    {
      "inputs": [
        {
          "internalType": "address",
          "name": "account",
          "type": "address"
        },
        {
          "internalType": "bytes32",
          "name": "neededRole",
          "type": "bytes32"
        }
      ],
      "name": "AccessControlUnauthorizedAccount",
      "type": "error"
    },
    {
      "inputs": [
        {
          "internalType": "address",
          "name": "target",
          "type": "address"
        }
      ],
      "name": "AddressEmptyCode",
      "type": "error"
    },
    {
      "inputs": [
        {
          "internalType": "address",
          "name": "account",
          "type": "address"
        }
      ],
      "name": "AddressIsBlacklisted",
      "type": "error"
    },
    {
      "inputs": [
        {
          "internalType": "address",
          "name": "account",
          "type": "address"
        },
        {
          "internalType": "uint256",
          "name": "cooldown",
          "type": "uint256"
        }
      ],
      "name": "CooldownNotExpired",
      "type": "error"
    },
    {
      "inputs": [],
      "name": "ECDSAInvalidSignature",
      "type": "error"
    },
    {
      "inputs": [
        {
          "internalType": "uint256",
          "name": "length",
          "type": "uint256"
        }
      ],
      "name": "ECDSAInvalidSignatureLength",
      "type": "error"
    },
    {
      "inputs": [
        {
          "internalType": "bytes32",
          "name": "s",
          "type": "bytes32"
        }
      ],
      "name": "ECDSAInvalidSignatureS",
      "type": "error"
    },
    {
      "inputs": [
        {
          "internalType": "address",
          "name": "implementation",
          "type": "address"
        }
      ],
      "name": "ERC1967InvalidImplementation",
      "type": "error"
    },
    {
      "inputs": [],
      "name": "ERC1967NonPayable",
      "type": "error"
    },
    {
      "inputs": [
        {
          "internalType": "address",
          "name": "spender",
          "type": "address"
        },
        {
          "internalType": "uint256",
          "name": "allowance",
          "type": "uint256"
        },
        {
          "internalType": "uint256",
          "name": "needed",
          "type": "uint256"
        }
      ],
      "name": "ERC20InsufficientAllowance",
      "type": "error"
    },
    {
      "inputs": [
        {
          "internalType": "address",
          "name": "sender",
          "type": "address"
        },
        {
          "internalType": "uint256",
          "name": "balance",
          "type": "uint256"
        },
        {
          "internalType": "uint256",
          "name": "needed",
          "type": "uint256"
        }
      ],
      "name": "ERC20InsufficientBalance",
      "type": "error"
    },
    {
      "inputs": [
        {
          "internalType": "address",
          "name": "approver",
          "type": "address"
        }
      ],
      "name": "ERC20InvalidApprover",
      "type": "error"
    },
    {
      "inputs": [
        {
          "internalType": "address",
          "name": "receiver",
          "type": "address"
        }
      ],
      "name": "ERC20InvalidReceiver",
      "type": "error"
    },
    {
      "inputs": [
        {
          "internalType": "address",
          "name": "sender",
          "type": "address"
        }
      ],
      "name": "ERC20InvalidSender",
      "type": "error"
    },
    {
      "inputs": [
        {
          "internalType": "address",
          "name": "spender",
          "type": "address"
        }
      ],
      "name": "ERC20InvalidSpender",
      "type": "error"
    },
    {
      "inputs": [
        {
          "internalType": "uint256",
          "name": "deadline",
          "type": "uint256"
        }
      ],
      "name": "ERC2612ExpiredSignature",
      "type": "error"
    },
    {
      "inputs": [
        {
          "internalType": "address",
          "name": "signer",
          "type": "address"
        },
        {
          "internalType": "address",
          "name": "owner",
          "type": "address"
        }
      ],
      "name": "ERC2612InvalidSigner",
      "type": "error"
    },
    {
      "inputs": [],
      "name": "EnforcedPause",
      "type": "error"
    },
    {
      "inputs": [],
      "name": "ExpectedPause",
      "type": "error"
    },
    {
      "inputs": [],
      "name": "FailedCall",
      "type": "error"
    },
    {
      "inputs": [
        {
          "internalType": "address",
          "name": "account",
          "type": "address"
        },
        {
          "internalType": "uint256",
          "name": "currentNonce",
          "type": "uint256"
        }
      ],
      "name": "InvalidAccountNonce",
      "type": "error"
    },
    {
      "inputs": [],
      "name": "InvalidInitialization",
      "type": "error"
    },
    {
      "inputs": [],
      "name": "NotInitializing",
      "type": "error"
    },
    {
      "inputs": [],
      "name": "UUPSUnauthorizedCallContext",
      "type": "error"
    },
    {
      "inputs": [
        {
          "internalType": "bytes32",
          "name": "slot",
          "type": "bytes32"
        }
      ],
      "name": "UUPSUnsupportedProxiableUUID",
      "type": "error"
    },
    {
      "anonymous": false,
      "inputs": [
        {
          "indexed": true,
          "internalType": "address",
          "name": "account",
          "type": "address"
        },
        {
          "indexed": true,
          "internalType": "address",
          "name": "admin",
          "type": "address"
        }
      ],
      "name": "AddressBlacklisted",
      "type": "event"
    },
    {
      "anonymous": false,
      "inputs": [
        {
          "indexed": true,
          "internalType": "address",
          "name": "account",
          "type": "address"
        },
        {
          "indexed": true,
          "internalType": "address",
          "name": "admin",
          "type": "address"
        }
      ],
      "name": "AddressRemovedFromBlacklist",
      "type": "event"
    },
    {
      "anonymous": false,
      "inputs": [
        {
          "indexed": true,
          "internalType": "address",
          "name": "owner",
          "type": "address"
        },
        {
          "indexed": true,
          "internalType": "address",
          "name": "spender",
          "type": "address"
        },
        {
          "indexed": false,
          "internalType": "uint256",
          "name": "value",
          "type": "uint256"
        }
      ],
      "name": "Approval",
      "type": "event"
    },
    {
      "anonymous": false,
      "inputs": [
        {
          "indexed": false,
          "internalType": "uint256",
          "name": "oldPeriod",
          "type": "uint256"
        },
        {
          "indexed": false,
          "internalType": "uint256",
          "name": "newPeriod",
          "type": "uint256"
        }
      ],
      "name": "CooldownPeriodUpdated",
      "type": "event"
    },
    {
      "anonymous": false,
      "inputs": [
        {
          "indexed": true,
          "internalType": "address",
          "name": "account",
          "type": "address"
        },
        {
          "indexed": false,
          "internalType": "uint256",
          "name": "cooldown",
          "type": "uint256"
        }
      ],
      "name": "CooldownSet",
      "type": "event"
    },
    {
      "anonymous": false,
      "inputs": [],
      "name": "EIP712DomainChanged",
      "type": "event"
    },
    {
      "anonymous": false,
      "inputs": [
        {
          "indexed": true,
          "internalType": "address",
          "name": "oldSafe",
          "type": "address"
        },
        {
          "indexed": true,
          "internalType": "address",
          "name": "newSafe",
          "type": "address"
        }
      ],
      "name": "GnosisSafeUpdated",
      "type": "event"
    },
    {
      "anonymous": false,
      "inputs": [
        {
          "indexed": false,
          "internalType": "uint64",
          "name": "version",
          "type": "uint64"
        }
      ],
      "name": "Initialized",
      "type": "event"
    },
    {
      "anonymous": false,
      "inputs": [
        {
          "indexed": false,
          "internalType": "address",
          "name": "account",
          "type": "address"
        }
      ],
      "name": "Paused",
      "type": "event"
    },
    {
      "anonymous": false,
      "inputs": [
        {
          "indexed": true,
          "internalType": "bytes32",
          "name": "role",
          "type": "bytes32"
        },
        {
          "indexed": true,
          "internalType": "bytes32",
          "name": "previousAdminRole",
          "type": "bytes32"
        },
        {
          "indexed": true,
          "internalType": "bytes32",
          "name": "newAdminRole",
          "type": "bytes32"
        }
      ],
      "name": "RoleAdminChanged",
      "type": "event"
    },
    {
      "anonymous": false,
      "inputs": [
        {
          "indexed": true,
          "internalType": "bytes32",
          "name": "role",
          "type": "bytes32"
        },
        {
          "indexed": true,
          "internalType": "address",
          "name": "account",
          "type": "address"
        },
        {
          "indexed": true,
          "internalType": "address",
          "name": "sender",
          "type": "address"
        }
      ],
      "name": "RoleGranted",
      "type": "event"
    },
    {
      "anonymous": false,
      "inputs": [
        {
          "indexed": true,
          "internalType": "bytes32",
          "name": "role",
          "type": "bytes32"
        },
        {
          "indexed": true,
          "internalType": "address",
          "name": "account",
          "type": "address"
        },
        {
          "indexed": true,
          "internalType": "address",
          "name": "sender",
          "type": "address"
        }
      ],
      "name": "RoleRevoked",
      "type": "event"
    },
    {
      "anonymous": false,
      "inputs": [
        {
          "indexed": true,
          "internalType": "address",
          "name": "from",
          "type": "address"
        },
        {
          "indexed": true,
          "internalType": "address",
          "name": "to",
          "type": "address"
        },
        {
          "indexed": false,
          "internalType": "uint256",
          "name": "value",
          "type": "uint256"
        }
      ],
      "name": "Transfer",
      "type": "event"
    },
    {
      "anonymous": false,
      "inputs": [
        {
          "indexed": false,
          "internalType": "address",
          "name": "account",
          "type": "address"
        }
      ],
      "name": "Unpaused",
      "type": "event"
    },
    {
      "anonymous": false,
      "inputs": [
        {
          "indexed": true,
          "internalType": "address",
          "name": "implementation",
          "type": "address"
        }
      ],
      "name": "Upgraded",
      "type": "event"
    },
    {
      "inputs": [],
      "name": "DEFAULT_ADMIN_ROLE",
      "outputs": [
        {
          "internalType": "bytes32",
          "name": "",
          "type": "bytes32"
        }
      ],
      "stateMutability": "view",
      "type": "function"
    },
    {
      "inputs": [],
      "name": "DOMAIN_SEPARATOR",
      "outputs": [
        {
          "internalType": "bytes32",
          "name": "",
          "type": "bytes32"
        }
      ],
      "stateMutability": "view",
      "type": "function"
    },
    {
      "inputs": [],
      "name": "MINTER_ROLE",
      "outputs": [
        {
          "internalType": "bytes32",
          "name": "",
          "type": "bytes32"
        }
      ],
      "stateMutability": "view",
      "type": "function"
    },
    {
      "inputs": [],
      "name": "PAUSER_ROLE",
      "outputs": [
        {
          "internalType": "bytes32",
          "name": "",
          "type": "bytes32"
        }
      ],
      "stateMutability": "view",
      "type": "function"
    },
    {
      "inputs": [],
      "name": "UPGRADE_INTERFACE_VERSION",
      "outputs": [
        {
          "internalType": "string",
          "name": "",
          "type": "string"
        }
      ],
      "stateMutability": "view",
      "type": "function"
    },
    {
      "inputs": [
        {
          "internalType": "address",
          "name": "account",
          "type": "address"
        }
      ],
      "name": "addToBlacklist",
      "outputs": [],
      "stateMutability": "nonpayable",
      "type": "function"
    },
    {
      "inputs": [
        {
          "internalType": "address",
          "name": "owner",
          "type": "address"
        },
        {
          "internalType": "address",
          "name": "spender",
          "type": "address"
        }
      ],
      "name": "allowance",
      "outputs": [
        {
          "internalType": "uint256",
          "name": "",
          "type": "uint256"
        }
      ],
      "stateMutability": "view",
      "type": "function"
    },
    {
      "inputs": [
        {
          "internalType": "address",
          "name": "spender",
          "type": "address"
        },
        {
          "internalType": "uint256",
          "name": "value",
          "type": "uint256"
        }
      ],
      "name": "approve",
      "outputs": [
        {
          "internalType": "bool",
          "name": "",
          "type": "bool"
        }
      ],
      "stateMutability": "nonpayable",
      "type": "function"
    },
    {
      "inputs": [
        {
          "internalType": "address",
          "name": "account",
          "type": "address"
        }
      ],
      "name": "balanceOf",
      "outputs": [
        {
          "internalType": "uint256",
          "name": "",
          "type": "uint256"
        }
      ],
      "stateMutability": "view",
      "type": "function"
    },
    {
      "inputs": [
        {
          "internalType": "address[]",
          "name": "accounts",
          "type": "address[]"
        }
      ],
      "name": "batchAddToBlacklist",
      "outputs": [],
      "stateMutability": "nonpayable",
      "type": "function"
    },
    {
      "inputs": [
        {
          "internalType": "address[]",
          "name": "accounts",
          "type": "address[]"
        }
      ],
      "name": "batchRemoveFromBlacklist",
      "outputs": [],
      "stateMutability": "nonpayable",
      "type": "function"
    },
    {
      "inputs": [
        {
          "internalType": "address[]",
          "name": "recipients",
          "type": "address[]"
        },
        {
          "internalType": "uint256[]",
          "name": "amounts",
          "type": "uint256[]"
        }
      ],
      "name": "batchTransfer",
      "outputs": [],
      "stateMutability": "nonpayable",
      "type": "function"
    },
    {
      "inputs": [],
      "name": "cooldownPeriod",
      "outputs": [
        {
          "internalType": "uint256",
          "name": "",
          "type": "uint256"
        }
      ],
      "stateMutability": "view",
      "type": "function"
    },
    {
      "inputs": [
        {
          "internalType": "address",
          "name": "",
          "type": "address"
        }
      ],
      "name": "cooldowns",
      "outputs": [
        {
          "internalType": "uint256",
          "name": "",
          "type": "uint256"
        }
      ],
      "stateMutability": "view",
      "type": "function"
    },
    {
      "inputs": [],
      "name": "decimals",
      "outputs": [
        {
          "internalType": "uint8",
          "name": "",
          "type": "uint8"
        }
      ],
      "stateMutability": "view",
      "type": "function"
    },
    {
      "inputs": [],
      "name": "eip712Domain",
      "outputs": [
        {
          "internalType": "bytes1",
          "name": "fields",
          "type": "bytes1"
        },
        {
          "internalType": "string",
          "name": "name",
          "type": "string"
        },
        {
          "internalType": "string",
          "name": "version",
          "type": "string"
        },
        {
          "internalType": "uint256",
          "name": "chainId",
          "type": "uint256"
        },
        {
          "internalType": "address",
          "name": "verifyingContract",
          "type": "address"
        },
        {
          "internalType": "bytes32",
          "name": "salt",
          "type": "bytes32"
        },
        {
          "internalType": "uint256[]",
          "name": "extensions",
          "type": "uint256[]"
        }
      ],
      "stateMutability": "view",
      "type": "function"
    },
    {
      "inputs": [
        {
          "internalType": "address[]",
          "name": "accounts",
          "type": "address[]"
        }
      ],
      "name": "getBlacklistStatus",
      "outputs": [
        {
          "internalType": "bool[]",
          "name": "statuses",
          "type": "bool[]"
        }
      ],
      "stateMutability": "view",
      "type": "function"
    },
    {
      "inputs": [
        {
          "internalType": "bytes32",
          "name": "role",
          "type": "bytes32"
        }
      ],
      "name": "getRoleAdmin",
      "outputs": [
        {
          "internalType": "bytes32",
          "name": "",
          "type": "bytes32"
        }
      ],
      "stateMutability": "view",
      "type": "function"
    },
    {
      "inputs": [],
      "name": "gnosisSafe",
      "outputs": [
        {
          "internalType": "address",
          "name": "",
          "type": "address"
        }
      ],
      "stateMutability": "view",
      "type": "function"
    },
    {
      "inputs": [
        {
          "internalType": "bytes32",
          "name": "role",
          "type": "bytes32"
        },
        {
          "internalType": "address",
          "name": "account",
          "type": "address"
        }
      ],
      "name": "grantRole",
      "outputs": [],
      "stateMutability": "nonpayable",
      "type": "function"
    },
    {
      "inputs": [
        {
          "internalType": "bytes32",
          "name": "role",
          "type": "bytes32"
        },
        {
          "internalType": "address",
          "name": "account",
          "type": "address"
        }
      ],
      "name": "hasRole",
      "outputs": [
        {
          "internalType": "bool",
          "name": "",
          "type": "bool"
        }
      ],
      "stateMutability": "view",
      "type": "function"
    },
    {
      "inputs": [
        {
          "internalType": "uint256",
          "name": "initialSupply",
          "type": "uint256"
        }
      ],
      "name": "initialize",
      "outputs": [],
      "stateMutability": "nonpayable",
      "type": "function"
    },
    {
      "inputs": [
        {
          "internalType": "address",
          "name": "account",
          "type": "address"
        }
      ],
      "name": "isBlacklisted",
      "outputs": [
        {
          "internalType": "bool",
          "name": "",
          "type": "bool"
        }
      ],
      "stateMutability": "view",
      "type": "function"
    },
    {
      "inputs": [],
      "name": "name",
      "outputs": [
        {
          "internalType": "string",
          "name": "",
          "type": "string"
        }
      ],
      "stateMutability": "view",
      "type": "function"
    },
    {
      "inputs": [
        {
          "internalType": "address",
          "name": "owner",
          "type": "address"
        }
      ],
      "name": "nonces",
      "outputs": [
        {
          "internalType": "uint256",
          "name": "",
          "type": "uint256"
        }
      ],
      "stateMutability": "view",
      "type": "function"
    },
    {
      "inputs": [],
      "name": "pause",
      "outputs": [],
      "stateMutability": "nonpayable",
      "type": "function"
    },
    {
      "inputs": [],
      "name": "paused",
      "outputs": [
        {
          "internalType": "bool",
          "name": "",
          "type": "bool"
        }
      ],
      "stateMutability": "view",
      "type": "function"
    },
    {
      "inputs": [
        {
          "internalType": "address",
          "name": "owner",
          "type": "address"
        },
        {
          "internalType": "address",
          "name": "spender",
          "type": "address"
        },
        {
          "internalType": "uint256",
          "name": "value",
          "type": "uint256"
        },
        {
          "internalType": "uint256",
          "name": "deadline",
          "type": "uint256"
        },
        {
          "internalType": "uint8",
          "name": "v",
          "type": "uint8"
        },
        {
          "internalType": "bytes32",
          "name": "r",
          "type": "bytes32"
        },
        {
          "internalType": "bytes32",
          "name": "s",
          "type": "bytes32"
        }
      ],
      "name": "permit",
      "outputs": [],
      "stateMutability": "nonpayable",
      "type": "function"
    },
    {
      "inputs": [],
      "name": "proxiableUUID",
      "outputs": [
        {
          "internalType": "bytes32",
          "name": "",
          "type": "bytes32"
        }
      ],
      "stateMutability": "view",
      "type": "function"
    },
    {
      "inputs": [
        {
          "internalType": "address",
          "name": "account",
          "type": "address"
        }
      ],
      "name": "removeFromBlacklist",
      "outputs": [],
      "stateMutability": "nonpayable",
      "type": "function"
    },
    {
      "inputs": [
        {
          "internalType": "bytes32",
          "name": "role",
          "type": "bytes32"
        },
        {
          "internalType": "address",
          "name": "callerConfirmation",
          "type": "address"
        }
      ],
      "name": "renounceRole",
      "outputs": [],
      "stateMutability": "nonpayable",
      "type": "function"
    },
    {
      "inputs": [
        {
          "internalType": "bytes32",
          "name": "role",
          "type": "bytes32"
        },
        {
          "internalType": "address",
          "name": "account",
          "type": "address"
        }
      ],
      "name": "revokeRole",
      "outputs": [],
      "stateMutability": "nonpayable",
      "type": "function"
    },
    {
      "inputs": [
        {
          "internalType": "address",
          "name": "account",
          "type": "address"
        },
        {
          "internalType": "uint256",
          "name": "cooldown",
          "type": "uint256"
        }
      ],
      "name": "setCooldown",
      "outputs": [],
      "stateMutability": "nonpayable",
      "type": "function"
    },
    {
      "inputs": [
        {
          "internalType": "uint256",
          "name": "_cooldownPeriod",
          "type": "uint256"
        }
      ],
      "name": "setCooldownPeriod",
      "outputs": [],
      "stateMutability": "nonpayable",
      "type": "function"
    },
    {
      "inputs": [
        {
          "internalType": "address",
          "name": "_gnosisSafe",
          "type": "address"
        }
      ],
      "name": "setGnosisSafe",
      "outputs": [],
      "stateMutability": "nonpayable",
      "type": "function"
    },
    {
      "inputs": [
        {
          "internalType": "bytes4",
          "name": "interfaceId",
          "type": "bytes4"
        }
      ],
      "name": "supportsInterface",
      "outputs": [
        {
          "internalType": "bool",
          "name": "",
          "type": "bool"
        }
      ],
      "stateMutability": "view",
      "type": "function"
    },
    {
      "inputs": [],
      "name": "symbol",
      "outputs": [
        {
          "internalType": "string",
          "name": "",
          "type": "string"
        }
      ],
      "stateMutability": "view",
      "type": "function"
    },
    {
      "inputs": [],
      "name": "totalSupply",
      "outputs": [
        {
          "internalType": "uint256",
          "name": "",
          "type": "uint256"
        }
      ],
      "stateMutability": "view",
      "type": "function"
    },
    {
      "inputs": [
        {
          "internalType": "address",
          "name": "to",
          "type": "address"
        },
        {
          "internalType": "uint256",
          "name": "value",
          "type": "uint256"
        }
      ],
      "name": "transfer",
      "outputs": [
        {
          "internalType": "bool",
          "name": "",
          "type": "bool"
        }
      ],
      "stateMutability": "nonpayable",
      "type": "function"
    },
    {
      "inputs": [
        {
          "internalType": "address",
          "name": "from",
          "type": "address"
        },
        {
          "internalType": "address",
          "name": "to",
          "type": "address"
        },
        {
          "internalType": "uint256",
          "name": "value",
          "type": "uint256"
        }
      ],
      "name": "transferFrom",
      "outputs": [
        {
          "internalType": "bool",
          "name": "",
          "type": "bool"
        }
      ],
      "stateMutability": "nonpayable",
      "type": "function"
    },
    {
      "inputs": [],
      "name": "unpause",
      "outputs": [],
      "stateMutability": "nonpayable",
      "type": "function"
    },
    {
      "inputs": [
        {
          "internalType": "address",
          "name": "newImplementation",
          "type": "address"
        },
        {
          "internalType": "bytes",
          "name": "data",
          "type": "bytes"
        }
      ],
      "name": "upgradeToAndCall",
      "outputs": [],
      "stateMutability": "payable",
      "type": "function"
    },
    {
      "inputs": [],
      "name": "version",
      "outputs": [
        {
          "internalType": "string",
          "name": "",
          "type": "string"
        }
      ],
      "stateMutability": "pure",
      "type": "function"
    }
  ],
  "bytecode": "0x60a06040523060805234801561001457600080fd5b5061001d610022565b6100d4565b7ff0c57e16840df040f15088dc2f81fe391c3923bec73e23a9662efc9c229c6a00805468010000000000000000900460ff16156100725760405163f92ee8a960e01b815260040160405180910390fd5b80546001600160401b03908116146100d15780546001600160401b0319166001600160401b0390811782556040519081527fc7f505b2f371ae2175ee4913f4499e1f2633a7b5936321eed1cdaeb6115181d29060200160405180910390a15b50565b608051612bf86100fd600039600081816117b6015281816117df01526119250152612bf86000f3fe60806040526004361061025c5760003560e01c80637ecebe0011610144578063a9059cbb116100b6578063d547741f1161007a578063d547741f14610751578063d716265714610771578063dd62ed3e14610791578063e63ab1e9146107b1578063fe4b84df146107d3578063fe575a87146107f357600080fd5b8063a9059cbb1461068c578063ad3cb1cc146106ac578063c3085a3e146106dd578063d505accf146106fd578063d53913931461071d57600080fd5b806391d148541161010857806391d14854146105bd57806395d89b41146105dd5780639781a37e146105f2578063a217fddf14610612578063a6ecc5cf14610627578063a84173ae1461065457600080fd5b80637ecebe001461052057806380ea3de1146105405780638456cb591461056057806384b0196e1461057557806388d695b21461059d57600080fd5b80633644e515116101dd57806352d1902d116101a157806352d1902d14610458578063537df3b61461046d57806354fd4d501461048d5780635c975abb146104bb578063679d665f146104e057806370a082311461050057600080fd5b80633644e515146103db57806336568abe146103f05780633f4ba83a1461041057806344337ea1146104255780634f1ef2861461044557600080fd5b806318160ddd1161022457806318160ddd1461032957806323b872dd1461035d578063248a9ca31461037d5780632f2ff15d1461039d578063313ce567146103bf57600080fd5b806301320fe21461026157806301ffc9a7146102a157806304646a49146102d157806306fdde03146102e7578063095ea7b314610309575b600080fd5b34801561026d57600080fd5b5061028e61027c366004612493565b60026020526000908152604090205481565b6040519081526020015b60405180910390f35b3480156102ad57600080fd5b506102c16102bc3660046124ae565b61082c565b6040519015158152602001610298565b3480156102dd57600080fd5b5061028e60015481565b3480156102f357600080fd5b506102fc610863565b6040516102989190612528565b34801561031557600080fd5b506102c161032436600461253b565b61090c565b34801561033557600080fd5b507f52c63247e1f47db19d5ce0460030c497f067ca4cebf71ba98eeadabe20bace025461028e565b34801561036957600080fd5b506102c1610378366004612565565b610924565b34801561038957600080fd5b5061028e6103983660046125a2565b61094a565b3480156103a957600080fd5b506103bd6103b83660046125bb565b61096c565b005b3480156103cb57600080fd5b5060405160128152602001610298565b3480156103e757600080fd5b5061028e61098e565b3480156103fc57600080fd5b506103bd61040b3660046125bb565b61099d565b34801561041c57600080fd5b506103bd6109d5565b34801561043157600080fd5b506103bd610440366004612493565b6109f8565b6103bd6104533660046125fd565b610b16565b34801561046457600080fd5b5061028e610b35565b34801561047957600080fd5b506103bd610488366004612493565b610b52565b34801561049957600080fd5b506040805180820190915260058152640332e302e360dc1b60208201526102fc565b3480156104c757600080fd5b50600080516020612ba38339815191525460ff166102c1565b3480156104ec57600080fd5b506103bd6104fb366004612713565b610c11565b34801561050c57600080fd5b5061028e61051b366004612493565b610cdd565b34801561052c57600080fd5b5061028e61053b366004612493565b610d10565b34801561054c57600080fd5b506103bd61055b3660046125a2565b610d1b565b34801561056c57600080fd5b506103bd610d6c565b34801561058157600080fd5b5061058a610d8c565b6040516102989796959493929190612755565b3480156105a957600080fd5b506103bd6105b83660046127ed565b610e38565b3480156105c957600080fd5b506102c16105d83660046125bb565b610ee3565b3480156105e957600080fd5b506102fc610f1b565b3480156105fe57600080fd5b506103bd61060d36600461253b565b610f5a565b34801561061e57600080fd5b5061028e600081565b34801561063357600080fd5b50610647610642366004612713565b610fbf565b604051610298919061285e565b34801561066057600080fd5b50600054610674906001600160a01b031681565b6040516001600160a01b039091168152602001610298565b34801561069857600080fd5b506102c16106a736600461253b565b61108f565b3480156106b857600080fd5b506102fc604051806040016040528060058152602001640352e302e360dc1b81525081565b3480156106e957600080fd5b506103bd6106f8366004612493565b61109d565b34801561070957600080fd5b506103bd6107183660046128a3565b6110f9565b34801561072957600080fd5b5061028e7f9f2df0fed2c77648de5860a4cc508cd0818c85b8b8a1ab4ceeef8d981c8956a681565b34801561075d57600080fd5b506103bd61076c3660046125bb565b611252565b34801561077d57600080fd5b506103bd61078c366004612713565b61126e565b34801561079d57600080fd5b5061028e6107ac366004612916565b611323565b3480156107bd57600080fd5b5061028e600080516020612b6383398151915281565b3480156107df57600080fd5b506103bd6107ee3660046125a2565b61136d565b3480156107ff57600080fd5b506102c161080e366004612493565b6001600160a01b031660009081526003602052604090205460ff1690565b60006001600160e01b03198216637965db0b60e01b148061085d57506301ffc9a760e01b6001600160e01b03198316145b92915050565b60606000600080516020612b038339815191525b905080600301805461088890612940565b80601f01602080910402602001604051908101604052809291908181526020018280546108b490612940565b80156109015780601f106108d657610100808354040283529160200191610901565b820191906000526020600020905b8154815290600101906020018083116108e457829003601f168201915b505050505091505090565b60003361091a818585611549565b5060019392505050565b600033610932858285611556565b61093d8585856115b7565b60019150505b9392505050565b6000908152600080516020612b83833981519152602052604090206001015490565b6109758261094a565b61097e81611616565b6109888383611620565b50505050565b60006109986116c5565b905090565b6001600160a01b03811633146109c65760405163334bd91960e11b815260040160405180910390fd5b6109d082826116cf565b505050565b600080516020612b638339815191526109ed81611616565b6109f561174b565b50565b6000610a0381611616565b6001600160a01b038216610a5e5760405162461bcd60e51b815260206004820152601d60248201527f43616e6e6f7420626c61636b6c697374207a65726f206164647265737300000060448201526064015b60405180910390fd5b6001600160a01b03821660009081526003602052604090205460ff1615610ac75760405162461bcd60e51b815260206004820152601b60248201527f4164647265737320616c726561647920626c61636b6c697374656400000000006044820152606401610a55565b6001600160a01b038216600081815260036020526040808220805460ff19166001179055513392917f4a740bebda0bde2baf1735e1b1fa93babe7a2bb77ecade7bf5e222d541c076cd91a35050565b610b1e6117ab565b610b2782611852565b610b31828261185d565b5050565b6000610b3f61191a565b50600080516020612b4383398151915290565b6000610b5d81611616565b6001600160a01b03821660009081526003602052604090205460ff16610bc55760405162461bcd60e51b815260206004820152601760248201527f41646472657373206e6f7420626c61636b6c69737465640000000000000000006044820152606401610a55565b6001600160a01b038216600081815260036020526040808220805460ff19169055513392917fc5d633221a999da7b50bad97ddd6cff0c917455d8651123a6433642833252b7c91a35050565b6000610c1c81611616565b60005b82811015610988576000848483818110610c3b57610c3b61297a565b9050602002016020810190610c509190612493565b90506001600160a01b03811615801590610c8357506001600160a01b03811660009081526003602052604090205460ff16155b15610cd4576001600160a01b038116600081815260036020526040808220805460ff19166001179055513392917f4a740bebda0bde2baf1735e1b1fa93babe7a2bb77ecade7bf5e222d541c076cd91a35b50600101610c1f565b600080600080516020612b038339815191525b6001600160a01b0390931660009081526020939093525050604090205490565b600061085d82611963565b6000610d2681611616565b600180549083905560408051828152602081018590527f98eaabfe135a9c40c420208962bf81e7926b4d6df3e23502164c0554b7b35224910160405180910390a1505050565b600080516020612b63833981519152610d8481611616565b6109f561198c565b60006060808280808381600080516020612b238339815191528054909150158015610db957506001810154155b610dfd5760405162461bcd60e51b81526020600482015260156024820152741152540dcc4c8e88155b9a5b9a5d1a585b1a5e9959605a1b6044820152606401610a55565b610e056119d5565b610e0d611a14565b60408051600080825260208201909252600f60f81b9c939b5091995046985030975095509350915050565b828114610e805760405162461bcd60e51b8152602060048201526016602482015275082e4e4c2f2e640d8cadccee8d040dad2e6dac2e8c6d60531b6044820152606401610a55565b60005b83811015610edc57610ed433868684818110610ea157610ea161297a565b9050602002016020810190610eb69190612493565b858585818110610ec857610ec861297a565b905060200201356115b7565b600101610e83565b5050505050565b6000918252600080516020612b83833981519152602090815260408084206001600160a01b0393909316845291905290205460ff1690565b7f52c63247e1f47db19d5ce0460030c497f067ca4cebf71ba98eeadabe20bace048054606091600080516020612b038339815191529161088890612940565b6000610f6581611616565b6001600160a01b03831660008181526002602052604090819020849055517fa162f0703cbc0c48ea2c9e9bed5743aabc058e7532e594490e3a35bfb0f75ab890610fb29085815260200190565b60405180910390a2505050565b60608167ffffffffffffffff811115610fda57610fda6125e7565b604051908082528060200260200182016040528015611003578160200160208202803683370190505b50905060005b8281101561108857600360008585848181106110275761102761297a565b905060200201602081019061103c9190612493565b6001600160a01b03168152602081019190915260400160002054825160ff909116908390839081106110705761107061297a565b91151560209283029190910190910152600101611009565b5092915050565b60003361091a8185856115b7565b60006110a881611616565b600080546001600160a01b038481166001600160a01b0319831681178455604051919092169283917fdaaf87d9985c65a1bfbd019043294923ae1b048ba8b4616e3acb32741d268da19190a3505050565b8342111561111d5760405163313c898160e11b815260048101859052602401610a55565b60007f6e71edae12b1b97f4d1f60370fef10105fa2faae0126114a169c64845d6126c98888886111898c6001600160a01b031660009081527f5ab42ced628888259c08ac98db1eb0cf702fc1501344311d8b100cd1bfe4bb006020526040902080546001810190915590565b6040805160208101969096526001600160a01b0394851690860152929091166060840152608083015260a082015260c0810186905260e00160405160208183030381529060405280519060200120905060006111e482611a2c565b905060006111f482878787611a59565b9050896001600160a01b0316816001600160a01b03161461123b576040516325c0072360e11b81526001600160a01b0380831660048301528b166024820152604401610a55565b6112468a8a8a611549565b50505050505050505050565b61125b8261094a565b61126481611616565b61098883836116cf565b600061127981611616565b60005b828110156109885760008484838181106112985761129861297a565b90506020020160208101906112ad9190612493565b6001600160a01b03811660009081526003602052604090205490915060ff161561131a576001600160a01b038116600081815260036020526040808220805460ff19169055513392917fc5d633221a999da7b50bad97ddd6cff0c917455d8651123a6433642833252b7c91a35b5060010161127c565b6001600160a01b0391821660009081527f52c63247e1f47db19d5ce0460030c497f067ca4cebf71ba98eeadabe20bace016020908152604080832093909416825291909152205490565b6000611377611a87565b805490915060ff600160401b820416159067ffffffffffffffff1660008115801561139f5750825b905060008267ffffffffffffffff1660011480156113bc5750303b155b9050811580156113ca575080155b156113e85760405163f92ee8a960e01b815260040160405180910390fd5b845467ffffffffffffffff19166001178555831561141257845460ff60401b1916600160401b1785555b611458604051806040016040528060098152602001682820a2102a37b5b2b760b91b8152506040518060400160405280600381526020016214105160ea1b815250611ab0565b611482604051806040016040528060098152602001682820a2102a37b5b2b760b91b815250611ac2565b61148a611aed565b611492611aed565b61149a611aed565b6114a5600033611620565b506114be600080516020612b6383398151915233611620565b506114e97f9f2df0fed2c77648de5860a4cc508cd0818c85b8b8a1ab4ceeef8d981c8956a633611620565b506114f43387611af5565b62015180600155831561154157845460ff60401b19168555604051600181527fc7f505b2f371ae2175ee4913f4499e1f2633a7b5936321eed1cdaeb6115181d29060200160405180910390a15b505050505050565b6109d08383836001611b2b565b60006115628484611323565b905060001981101561098857818110156115a857604051637dc7a0d960e11b81526001600160a01b03841660048201526024810182905260448101839052606401610a55565b61098884848484036000611b2b565b6001600160a01b0383166115e157604051634b637e8f60e11b815260006004820152602401610a55565b6001600160a01b03821661160b5760405163ec442f0560e01b815260006004820152602401610a55565b6109d0838383611c12565b6109f58133611d2f565b6000600080516020612b8383398151915261163b8484610ee3565b6116bb576000848152602082815260408083206001600160a01b03871684529091529020805460ff191660011790556116713390565b6001600160a01b0316836001600160a01b0316857f2f8788117e7eff1d82e926ec794901d17c78024a50270940304540a733656f0d60405160405180910390a4600191505061085d565b600091505061085d565b6000610998611d68565b6000600080516020612b838339815191526116ea8484610ee3565b156116bb576000848152602082815260408083206001600160a01b0387168085529252808320805460ff1916905551339287917ff6391f5c32d9c69d2a47ea670b442974b53935d1edc7fd64eb21e047a839171b9190a4600191505061085d565b611753611ddc565b600080516020612ba3833981519152805460ff191681557f5db9ee0a495bf2e6ff9c91a7834c1ba4fdd244a5e8aa4e537bd38aeae4b073aa335b6040516001600160a01b03909116815260200160405180910390a150565b306001600160a01b037f000000000000000000000000000000000000000000000000000000000000000016148061183257507f00000000000000000000000000000000000000000000000000000000000000006001600160a01b0316611826600080516020612b43833981519152546001600160a01b031690565b6001600160a01b031614155b156118505760405163703e46dd60e11b815260040160405180910390fd5b565b6000610b3181611616565b816001600160a01b03166352d1902d6040518163ffffffff1660e01b8152600401602060405180830381865afa9250505080156118b7575060408051601f3d908101601f191682019092526118b491810190612990565b60015b6118df57604051634c9c8ce360e01b81526001600160a01b0383166004820152602401610a55565b600080516020612b43833981519152811461191057604051632a87526960e21b815260048101829052602401610a55565b6109d08383611e0c565b306001600160a01b037f000000000000000000000000000000000000000000000000000000000000000016146118505760405163703e46dd60e11b815260040160405180910390fd5b6000807f5ab42ced628888259c08ac98db1eb0cf702fc1501344311d8b100cd1bfe4bb00610cf0565b611994611e62565b600080516020612ba3833981519152805460ff191660011781557f62e78cea01bee320cd4e420270b5ea74000d11b0c9f74754ebdbfc544b05a2583361178d565b7fa16a46d94261c7517cc8ff89f61c0ce93598e3c849801011dee649a6a557d1028054606091600080516020612b238339815191529161088890612940565b60606000600080516020612b23833981519152610877565b600061085d611a396116c5565b8360405161190160f01b8152600281019290925260228201526042902090565b600080600080611a6b88888888611e93565b925092509250611a7b8282611f62565b50909695505050505050565b6000807ff0c57e16840df040f15088dc2f81fe391c3923bec73e23a9662efc9c229c6a0061085d565b611ab861201b565b610b318282612040565b611aca61201b565b6109f581604051806040016040528060018152602001603160f81b815250612091565b61185061201b565b6001600160a01b038216611b1f5760405163ec442f0560e01b815260006004820152602401610a55565b610b3160008383611c12565b600080516020612b038339815191526001600160a01b038516611b645760405163e602df0560e01b815260006004820152602401610a55565b6001600160a01b038416611b8e57604051634a1406b160e11b815260006004820152602401610a55565b6001600160a01b03808616600090815260018301602090815260408083209388168352929052208390558115610edc57836001600160a01b0316856001600160a01b03167f8c5be1e5ebec7d5bd14f71427d1e84f3dd0314c0f7b2291e5b200ac8c7c3b92585604051611c0391815260200190565b60405180910390a35050505050565b6001600160a01b03831660009081526003602052604090205460ff1680611c5157506001600160a01b03821660009081526003602052604090205460ff165b15611ca3576001600160a01b03831660009081526003602052604090205460ff16611c7c5781611c7e565b825b60405163e2a0fe6360e01b81526001600160a01b039091166004820152602401610a55565b6001600160a01b03831615801590611cc357506001600160a01b03821615155b15611d24576001600160a01b038316600090815260026020526040902054421015611d24576001600160a01b03831660008181526002602052604090819020549051630dac64f960e01b815260048101929092526024820152604401610a55565b6109d08383836120f2565b611d398282610ee3565b610b315760405163e2517d3f60e01b81526001600160a01b038216600482015260248101839052604401610a55565b60007f8b73c3c69bb8fe3d512ecc4cf759cc79239f7b179b0ffacaa9a75d522b39400f611d93612230565b611d9b61229a565b60408051602081019490945283019190915260608201524660808201523060a082015260c00160405160208183030381529060405280519060200120905090565b600080516020612ba38339815191525460ff1661185057604051638dfc202b60e01b815260040160405180910390fd5b611e15826122de565b6040516001600160a01b038316907fbc7cd75a20ee27fd9adebab32041f755214dbc6bffa90cc0225b39da2e5c2d3b90600090a2805115611e5a576109d08282612343565b610b316123b9565b600080516020612ba38339815191525460ff16156118505760405163d93c066560e01b815260040160405180910390fd5b600080807f7fffffffffffffffffffffffffffffff5d576e7357a4501ddfe92f46681b20a0841115611ece5750600091506003905082611f58565b604080516000808252602082018084528a905260ff891692820192909252606081018790526080810186905260019060a0016020604051602081039080840390855afa158015611f22573d6000803e3d6000fd5b5050604051601f1901519150506001600160a01b038116611f4e57506000925060019150829050611f58565b9250600091508190505b9450945094915050565b6000826003811115611f7657611f766129a9565b03611f7f575050565b6001826003811115611f9357611f936129a9565b03611fb15760405163f645eedf60e01b815260040160405180910390fd5b6002826003811115611fc557611fc56129a9565b03611fe65760405163fce698f760e01b815260048101829052602401610a55565b6003826003811115611ffa57611ffa6129a9565b03610b31576040516335e2f38360e21b815260048101829052602401610a55565b6120236123d8565b61185057604051631afcd79f60e31b815260040160405180910390fd5b61204861201b565b600080516020612b038339815191527f52c63247e1f47db19d5ce0460030c497f067ca4cebf71ba98eeadabe20bace036120828482612a06565b50600481016109888382612a06565b61209961201b565b600080516020612b238339815191527fa16a46d94261c7517cc8ff89f61c0ce93598e3c849801011dee649a6a557d1026120d38482612a06565b50600381016120e28382612a06565b5060008082556001909101555050565b600080516020612b038339815191526001600160a01b03841661212e57818160020160008282546121239190612ac5565b909155506121a09050565b6001600160a01b038416600090815260208290526040902054828110156121815760405163391434e360e21b81526001600160a01b03861660048201526024810182905260448101849052606401610a55565b6001600160a01b03851660009081526020839052604090209083900390555b6001600160a01b0383166121be5760028101805483900390556121dd565b6001600160a01b03831660009081526020829052604090208054830190555b826001600160a01b0316846001600160a01b03167fddf252ad1be2c89b69c2b068fc378daa952ba7f163c4a11628f55a4df523b3ef8460405161222291815260200190565b60405180910390a350505050565b6000600080516020612b238339815191528161224a6119d5565b80519091501561226257805160209091012092915050565b81548015612271579392505050565b7fc5d2460186f7233c927e7db2dcc703c0e500b653ca82273b7bfad8045d85a470935050505090565b6000600080516020612b23833981519152816122b4611a14565b8051909150156122cc57805160209091012092915050565b60018201548015612271579392505050565b806001600160a01b03163b60000361231457604051634c9c8ce360e01b81526001600160a01b0382166004820152602401610a55565b600080516020612b4383398151915280546001600160a01b0319166001600160a01b0392909216919091179055565b6060600080846001600160a01b0316846040516123609190612ae6565b600060405180830381855af49150503d806000811461239b576040519150601f19603f3d011682016040523d82523d6000602084013e6123a0565b606091505b50915091506123b08583836123f2565b95945050505050565b34156118505760405163b398979f60e01b815260040160405180910390fd5b60006123e2611a87565b54600160401b900460ff16919050565b606082612407576124028261244e565b610943565b815115801561241e57506001600160a01b0384163b155b1561244757604051639996b31560e01b81526001600160a01b0385166004820152602401610a55565b5080610943565b80511561245e5780518082602001fd5b60405163d6bda27560e01b815260040160405180910390fd5b80356001600160a01b038116811461248e57600080fd5b919050565b6000602082840312156124a557600080fd5b61094382612477565b6000602082840312156124c057600080fd5b81356001600160e01b03198116811461094357600080fd5b60005b838110156124f35781810151838201526020016124db565b50506000910152565b600081518084526125148160208601602086016124d8565b601f01601f19169290920160200192915050565b60208152600061094360208301846124fc565b6000806040838503121561254e57600080fd5b61255783612477565b946020939093013593505050565b60008060006060848603121561257a57600080fd5b61258384612477565b925061259160208501612477565b929592945050506040919091013590565b6000602082840312156125b457600080fd5b5035919050565b600080604083850312156125ce57600080fd5b823591506125de60208401612477565b90509250929050565b634e487b7160e01b600052604160045260246000fd5b6000806040838503121561261057600080fd5b61261983612477565b9150602083013567ffffffffffffffff81111561263557600080fd5b8301601f8101851361264657600080fd5b803567ffffffffffffffff811115612660576126606125e7565b604051601f8201601f19908116603f0116810167ffffffffffffffff8111828210171561268f5761268f6125e7565b6040528181528282016020018710156126a757600080fd5b816020840160208301376000602083830101528093505050509250929050565b60008083601f8401126126d957600080fd5b50813567ffffffffffffffff8111156126f157600080fd5b6020830191508360208260051b850101111561270c57600080fd5b9250929050565b6000806020838503121561272657600080fd5b823567ffffffffffffffff81111561273d57600080fd5b612749858286016126c7565b90969095509350505050565b60ff60f81b8816815260e06020820152600061277460e08301896124fc565b828103604084015261278681896124fc565b606084018890526001600160a01b038716608085015260a0840186905283810360c08501528451808252602080870193509091019060005b818110156127dc5783518352602093840193909201916001016127be565b50909b9a5050505050505050505050565b6000806000806040858703121561280357600080fd5b843567ffffffffffffffff81111561281a57600080fd5b612826878288016126c7565b909550935050602085013567ffffffffffffffff81111561284657600080fd5b612852878288016126c7565b95989497509550505050565b602080825282518282018190526000918401906040840190835b818110156128985783511515835260209384019390920191600101612878565b509095945050505050565b600080600080600080600060e0888a0312156128be57600080fd5b6128c788612477565b96506128d560208901612477565b95506040880135945060608801359350608088013560ff811681146128f957600080fd5b9699959850939692959460a0840135945060c09093013592915050565b6000806040838503121561292957600080fd5b61293283612477565b91506125de60208401612477565b600181811c9082168061295457607f821691505b60208210810361297457634e487b7160e01b600052602260045260246000fd5b50919050565b634e487b7160e01b600052603260045260246000fd5b6000602082840312156129a257600080fd5b5051919050565b634e487b7160e01b600052602160045260246000fd5b601f8211156109d057806000526020600020601f840160051c810160208510156129e65750805b601f840160051c820191505b81811015610edc57600081556001016129f2565b815167ffffffffffffffff811115612a2057612a206125e7565b612a3481612a2e8454612940565b846129bf565b6020601f821160018114612a685760008315612a505750848201515b600019600385901b1c1916600184901b178455610edc565b600084815260208120601f198516915b82811015612a985787850151825560209485019460019092019101612a78565b5084821015612ab65786840151600019600387901b60f8161c191681555b50505050600190811b01905550565b8082018082111561085d57634e487b7160e01b600052601160045260246000fd5b60008251612af88184602087016124d8565b919091019291505056fe52c63247e1f47db19d5ce0460030c497f067ca4cebf71ba98eeadabe20bace00a16a46d94261c7517cc8ff89f61c0ce93598e3c849801011dee649a6a557d100360894a13ba1a3210667c828492db98dca3e2076cc3735a920a3ca505d382bbc65d7a28e3265b37a6474929f336521b332c1681b933f6cb9f3376673440d862a02dd7bc7dec4dceedda775e58dd541e08a116c6c53815c0bd028192f7b626800cd5ed15c6e187e77e9aee88184c21f4f2182ab5827cb3b7e07fbedcd63f03300a26469706673582212208b001c9f043daef07cecd464febc215b1e7bd5a6a52ec7a44d82defb8c346eb664736f6c634300081c0033",
  "linkReferences": {},
  "deployedLinkReferences": {}
}