{
  "_format": "hh-sol-artifact-1",
  "contractName": "TierWeightManager",
  "sourceName": "contracts/TierWeightManager.sol",
  "abi": [
    {
      "inputs": [],
      "stateMutability": "nonpayable",
      "type": "constructor"
    },
    {
      "inputs": [],
      "name": "AccessControlBadConfirmation",
      "type": "error"
    },
    {
      "inputs": [
        {
          "internalType": "address",
          "name": "account",
          "type": "address"
        },
        {
          "internalType": "bytes32",
          "name": "neededRole",
          "type": "bytes32"
        }
      ],
      "name": "AccessControlUnauthorizedAccount",
      "type": "error"
    },
    {
      "inputs": [],
      "name": "ReentrancyGuardReentrantCall",
      "type": "error"
    },
    {
      "anonymous": false,
      "inputs": [
        {
          "indexed": false,
          "internalType": "uint256",
          "name": "newVersion",
          "type": "uint256"
        }
      ],
      "name": "ConfigVersionUpdated",
      "type": "event"
    },
    {
      "anonymous": false,
      "inputs": [
        {
          "indexed": true,
          "internalType": "bytes32",
          "name": "role",
          "type": "bytes32"
        },
        {
          "indexed": true,
          "internalType": "bytes32",
          "name": "previousAdminRole",
          "type": "bytes32"
        },
        {
          "indexed": true,
          "internalType": "bytes32",
          "name": "newAdminRole",
          "type": "bytes32"
        }
      ],
      "name": "RoleAdminChanged",
      "type": "event"
    },
    {
      "anonymous": false,
      "inputs": [
        {
          "indexed": true,
          "internalType": "bytes32",
          "name": "role",
          "type": "bytes32"
        },
        {
          "indexed": true,
          "internalType": "address",
          "name": "account",
          "type": "address"
        },
        {
          "indexed": true,
          "internalType": "address",
          "name": "sender",
          "type": "address"
        }
      ],
      "name": "RoleGranted",
      "type": "event"
    },
    {
      "anonymous": false,
      "inputs": [
        {
          "indexed": true,
          "internalType": "bytes32",
          "name": "role",
          "type": "bytes32"
        },
        {
          "indexed": true,
          "internalType": "address",
          "name": "account",
          "type": "address"
        },
        {
          "indexed": true,
          "internalType": "address",
          "name": "sender",
          "type": "address"
        }
      ],
      "name": "RoleRevoked",
      "type": "event"
    },
    {
      "anonymous": false,
      "inputs": [
        {
          "indexed": true,
          "internalType": "uint8",
          "name": "tier",
          "type": "uint8"
        },
        {
          "indexed": false,
          "internalType": "bool",
          "name": "active",
          "type": "bool"
        }
      ],
      "name": "TierActivated",
      "type": "event"
    },
    {
      "anonymous": false,
      "inputs": [
        {
          "indexed": true,
          "internalType": "uint8",
          "name": "tier",
          "type": "uint8"
        },
        {
          "components": [
            {
              "internalType": "uint256",
              "name": "minAmount",
              "type": "uint256"
            },
            {
              "internalType": "uint256",
              "name": "maxAmount",
              "type": "uint256"
            },
            {
              "internalType": "uint256",
              "name": "duration",
              "type": "uint256"
            },
            {
              "internalType": "uint256",
              "name": "rewardRate",
              "type": "uint256"
            },
            {
              "internalType": "uint256",
              "name": "nftMultiplier",
              "type": "uint256"
            },
            {
              "internalType": "bool",
              "name": "isActive",
              "type": "bool"
            }
          ],
          "indexed": false,
          "internalType": "struct TierWeightManager.TierConfig",
          "name": "config",
          "type": "tuple"
        },
        {
          "indexed": false,
          "internalType": "uint256",
          "name": "version",
          "type": "uint256"
        }
      ],
      "name": "TierConfigUpdated",
      "type": "event"
    },
    {
      "inputs": [],
      "name": "ADMIN_ROLE",
      "outputs": [
        {
          "internalType": "bytes32",
          "name": "",
          "type": "bytes32"
        }
      ],
      "stateMutability": "view",
      "type": "function"
    },
    {
      "inputs": [],
      "name": "DEFAULT_ADMIN_ROLE",
      "outputs": [
        {
          "internalType": "bytes32",
          "name": "",
          "type": "bytes32"
        }
      ],
      "stateMutability": "view",
      "type": "function"
    },
    {
      "inputs": [],
      "name": "WEIGHT_UPDATER_ROLE",
      "outputs": [
        {
          "internalType": "bytes32",
          "name": "",
          "type": "bytes32"
        }
      ],
      "stateMutability": "view",
      "type": "function"
    },
    {
      "inputs": [],
      "name": "configVersion",
      "outputs": [
        {
          "internalType": "uint256",
          "name": "",
          "type": "uint256"
        }
      ],
      "stateMutability": "view",
      "type": "function"
    },
    {
      "inputs": [],
      "name": "getActiveTiers",
      "outputs": [
        {
          "internalType": "uint8[]",
          "name": "activeTiers",
          "type": "uint8[]"
        }
      ],
      "stateMutability": "view",
      "type": "function"
    },
    {
      "inputs": [],
      "name": "getConfigVersion",
      "outputs": [
        {
          "internalType": "uint256",
          "name": "version",
          "type": "uint256"
        }
      ],
      "stateMutability": "view",
      "type": "function"
    },
    {
      "inputs": [
        {
          "internalType": "bytes32",
          "name": "role",
          "type": "bytes32"
        }
      ],
      "name": "getRoleAdmin",
      "outputs": [
        {
          "internalType": "bytes32",
          "name": "",
          "type": "bytes32"
        }
      ],
      "stateMutability": "view",
      "type": "function"
    },
    {
      "inputs": [
        {
          "internalType": "uint8",
          "name": "tier",
          "type": "uint8"
        }
      ],
      "name": "getTierConfig",
      "outputs": [
        {
          "components": [
            {
              "internalType": "uint256",
              "name": "minAmount",
              "type": "uint256"
            },
            {
              "internalType": "uint256",
              "name": "maxAmount",
              "type": "uint256"
            },
            {
              "internalType": "uint256",
              "name": "duration",
              "type": "uint256"
            },
            {
              "internalType": "uint256",
              "name": "rewardRate",
              "type": "uint256"
            },
            {
              "internalType": "uint256",
              "name": "nftMultiplier",
              "type": "uint256"
            },
            {
              "internalType": "bool",
              "name": "isActive",
              "type": "bool"
            }
          ],
          "internalType": "struct TierWeightManager.TierConfig",
          "name": "config",
          "type": "tuple"
        }
      ],
      "stateMutability": "view",
      "type": "function"
    },
    {
      "inputs": [
        {
          "internalType": "uint8",
          "name": "tier",
          "type": "uint8"
        }
      ],
      "name": "getTierNFTMultiplier",
      "outputs": [
        {
          "internalType": "uint256",
          "name": "multiplier",
          "type": "uint256"
        }
      ],
      "stateMutability": "view",
      "type": "function"
    },
    {
      "inputs": [
        {
          "internalType": "uint8",
          "name": "tier",
          "type": "uint8"
        }
      ],
      "name": "getTierRewardRate",
      "outputs": [
        {
          "internalType": "uint256",
          "name": "rewardRate",
          "type": "uint256"
        }
      ],
      "stateMutability": "view",
      "type": "function"
    },
    {
      "inputs": [
        {
          "internalType": "bytes32",
          "name": "role",
          "type": "bytes32"
        },
        {
          "internalType": "address",
          "name": "account",
          "type": "address"
        }
      ],
      "name": "grantRole",
      "outputs": [],
      "stateMutability": "nonpayable",
      "type": "function"
    },
    {
      "inputs": [
        {
          "internalType": "bytes32",
          "name": "role",
          "type": "bytes32"
        },
        {
          "internalType": "address",
          "name": "account",
          "type": "address"
        }
      ],
      "name": "hasRole",
      "outputs": [
        {
          "internalType": "bool",
          "name": "",
          "type": "bool"
        }
      ],
      "stateMutability": "view",
      "type": "function"
    },
    {
      "inputs": [
        {
          "internalType": "bytes32",
          "name": "role",
          "type": "bytes32"
        },
        {
          "internalType": "address",
          "name": "callerConfirmation",
          "type": "address"
        }
      ],
      "name": "renounceRole",
      "outputs": [],
      "stateMutability": "nonpayable",
      "type": "function"
    },
    {
      "inputs": [
        {
          "internalType": "bytes32",
          "name": "role",
          "type": "bytes32"
        },
        {
          "internalType": "address",
          "name": "account",
          "type": "address"
        }
      ],
      "name": "revokeRole",
      "outputs": [],
      "stateMutability": "nonpayable",
      "type": "function"
    },
    {
      "inputs": [
        {
          "internalType": "uint8",
          "name": "tier",
          "type": "uint8"
        },
        {
          "internalType": "bool",
          "name": "active",
          "type": "bool"
        }
      ],
      "name": "setTierActive",
      "outputs": [],
      "stateMutability": "nonpayable",
      "type": "function"
    },
    {
      "inputs": [
        {
          "internalType": "bytes4",
          "name": "interfaceId",
          "type": "bytes4"
        }
      ],
      "name": "supportsInterface",
      "outputs": [
        {
          "internalType": "bool",
          "name": "",
          "type": "bool"
        }
      ],
      "stateMutability": "view",
      "type": "function"
    },
    {
      "inputs": [
        {
          "internalType": "uint8",
          "name": "",
          "type": "uint8"
        }
      ],
      "name": "tierConfigs",
      "outputs": [
        {
          "internalType": "uint256",
          "name": "minAmount",
          "type": "uint256"
        },
        {
          "internalType": "uint256",
          "name": "maxAmount",
          "type": "uint256"
        },
        {
          "internalType": "uint256",
          "name": "duration",
          "type": "uint256"
        },
        {
          "internalType": "uint256",
          "name": "rewardRate",
          "type": "uint256"
        },
        {
          "internalType": "uint256",
          "name": "nftMultiplier",
          "type": "uint256"
        },
        {
          "internalType": "bool",
          "name": "isActive",
          "type": "bool"
        }
      ],
      "stateMutability": "view",
      "type": "function"
    },
    {
      "inputs": [
        {
          "internalType": "uint8",
          "name": "tier",
          "type": "uint8"
        },
        {
          "components": [
            {
              "internalType": "uint256",
              "name": "minAmount",
              "type": "uint256"
            },
            {
              "internalType": "uint256",
              "name": "maxAmount",
              "type": "uint256"
            },
            {
              "internalType": "uint256",
              "name": "duration",
              "type": "uint256"
            },
            {
              "internalType": "uint256",
              "name": "rewardRate",
              "type": "uint256"
            },
            {
              "internalType": "uint256",
              "name": "nftMultiplier",
              "type": "uint256"
            },
            {
              "internalType": "bool",
              "name": "isActive",
              "type": "bool"
            }
          ],
          "internalType": "struct TierWeightManager.TierConfig",
          "name": "config",
          "type": "tuple"
        }
      ],
      "name": "updateTierConfig",
      "outputs": [],
      "stateMutability": "nonpayable",
      "type": "function"
    },
    {
      "inputs": [
        {
          "internalType": "uint256",
          "name": "amount",
          "type": "uint256"
        },
        {
          "internalType": "uint256",
          "name": "duration",
          "type": "uint256"
        }
      ],
      "name": "validateTierAmount",
      "outputs": [
        {
          "internalType": "uint8",
          "name": "tier",
          "type": "uint8"
        }
      ],
      "stateMutability": "view",
      "type": "function"
    }
  ],
  "bytecode": "0x608060405234801561001057600080fd5b5060018055610020600033610084565b5061004b7fa49807205ce4d355092ef5a8a18f56e8913cf4a201fbe287825b095693c2177533610084565b506100767f135612785e76fe57e7696609c82bd391eb5fb0f6cb27da7151e3420a6934327633610084565b5061007f610130565b6105f9565b6000828152602081815260408083206001600160a01b038516845290915281205460ff16610126576000838152602081815260408083206001600160a01b03861684529091529020805460ff191660011790556100de3390565b6001600160a01b0316826001600160a01b0316847f2f8788117e7eff1d82e926ec794901d17c78024a50270940304540a733656f0d60405160405180910390a450600161012a565b5060005b92915050565b6040805160c08082018352681b1ae4d6e2ef500000808352602080840191825262278d008486019081526000606080870182815260016080808a0182815260a0808c018481528780526002808b529c517fac33ff75c19e70fe83507db0d683fd3465c996598dc972688b7ace676c89077b5599517fac33ff75c19e70fe83507db0d683fd3465c996598dc972688b7ace676c89077c5596517fac33ff75c19e70fe83507db0d683fd3465c996598dc972688b7ace676c89077d5592517fac33ff75c19e70fe83507db0d683fd3465c996598dc972688b7ace676c89077e5591517fac33ff75c19e70fe83507db0d683fd3465c996598dc972688b7ace676c89077f5595517fac33ff75c19e70fe83507db0d683fd3465c996598dc972688b7ace676c890780805460ff1990811692151592909217905589518089018b52683635c9adc5dea000008082528188019081526276a700828d019081528286018781528386018b8152848a018c81528c8a528e8c5294517fe90b7bceb6e7df5418fb78d8ee546e97c83a08bbccc01a0644d599ccd2a7c2e05592517fe90b7bceb6e7df5418fb78d8ee546e97c83a08bbccc01a0644d599ccd2a7c2e15590517fe90b7bceb6e7df5418fb78d8ee546e97c83a08bbccc01a0644d599ccd2a7c2e255517fe90b7bceb6e7df5418fb78d8ee546e97c83a08bbccc01a0644d599ccd2a7c2e355517fe90b7bceb6e7df5418fb78d8ee546e97c83a08bbccc01a0644d599ccd2a7c2e455517fe90b7bceb6e7df5418fb78d8ee546e97c83a08bbccc01a0644d599ccd2a7c2e58054831691151591909117905589518089018b5268878678326eac90000080825281880190815262ed4e00828d019081528286018781528386018b8152848a018c81528e8a528e8c5294517f679795a0195a1b76cdebb7c51d74e058aee92919b8c3389af86ef24535e8a28c5592517f679795a0195a1b76cdebb7c51d74e058aee92919b8c3389af86ef24535e8a28d5590517f679795a0195a1b76cdebb7c51d74e058aee92919b8c3389af86ef24535e8a28e55517f679795a0195a1b76cdebb7c51d74e058aee92919b8c3389af86ef24535e8a28f55517f679795a0195a1b76cdebb7c51d74e058aee92919b8c3389af86ef24535e8a29055517f679795a0195a1b76cdebb7c51d74e058aee92919b8c3389af86ef24535e8a2918054831691151591909117905589519788018a5269010f0cf064dd592000008089528887019081526301e13380898c0190815293890185815292890188815295890188815260039586905299875297517f88601476d11616a71c5be67555bd1dff4b1cbf21533d2669b768b61518cfe1c35596517f88601476d11616a71c5be67555bd1dff4b1cbf21533d2669b768b61518cfe1c45590517f88601476d11616a71c5be67555bd1dff4b1cbf21533d2669b768b61518cfe1c555517f88601476d11616a71c5be67555bd1dff4b1cbf21533d2669b768b61518cfe1c65590517f88601476d11616a71c5be67555bd1dff4b1cbf21533d2669b768b61518cfe1c75593517f88601476d11616a71c5be67555bd1dff4b1cbf21533d2669b768b61518cfe1c88054909416901515179092559182905591519081527f6126ab0a9aadc9f729174668b7965114b5198740cc236df82aa4435b33d3626a910160405180910390a1565b610f43806106086000396000f3fe608060405234801561001057600080fd5b50600436106101215760003560e01c80639da9db2a116100ad578063b8265b3411610071578063b8265b34146102c9578063c0055ba9146102f0578063c022c52314610315578063d547741f14610376578063dd64d24d1461038957600080fd5b80639da9db2a1461021c5780639dc6edc714610293578063a217fddf1461029b578063affa9f2e146102a3578063b0140470146102b657600080fd5b806336568abe116100f457806336568abe146101a95780634c9d3653146101bc57806375b238fc146101cf57806379604e1a146101f657806391d148541461020957600080fd5b806301ffc9a71461012657806302f73f2d1461014e578063248a9ca3146101635780632f2ff15d14610194575b600080fd5b610139610134366004610c2e565b610392565b60405190151581526020015b60405180910390f35b6101566103c9565b6040516101459190610c5f565b610186610171366004610ca5565b60009081526020819052604090206001015490565b604051908152602001610145565b6101a76101a2366004610cbe565b6104da565b005b6101a76101b7366004610cbe565b610505565b6101a76101ca366004610d10565b61053d565b6101867fa49807205ce4d355092ef5a8a18f56e8913cf4a201fbe287825b095693c2177581565b610186610204366004610d4f565b6107c4565b610139610217366004610cbe565b610803565b61026461022a366004610d4f565b6002602081905260009182526040909120805460018201549282015460038301546004840154600590940154929493919290919060ff1686565b6040805196875260208701959095529385019290925260608401526080830152151560a082015260c001610145565b600354610186565b610186600081565b6101866102b1366004610d4f565b61082c565b6101a76102c4366004610d78565b61086b565b6101867f135612785e76fe57e7696609c82bd391eb5fb0f6cb27da7151e3420a6934327681565b6103036102fe366004610da4565b610916565b60405160ff9091168152602001610145565b610328610323366004610d4f565b6109d9565b6040516101459190600060c082019050825182526020830151602083015260408301516040830152606083015160608301526080830151608083015260a0830151151560a083015292915050565b6101a7610384366004610cbe565b610a98565b61018660035481565b60006001600160e01b03198216637965db0b60e01b14806103c357506301ffc9a760e01b6001600160e01b03198316145b92915050565b60606000805b60038160ff16116104175760ff8082166000908152600260205260409020600501541615610405578161040181610ddc565b9250505b8061040f81610ddc565b9150506103cf565b508060ff1667ffffffffffffffff81111561043457610434610dfb565b60405190808252806020026020018201604052801561045d578160200160208202803683370190505b5091506000805b60038160ff16116104d45760ff80821660009081526002602052604090206005015416156104c25780848360ff16815181106104a2576104a2610e11565b60ff90921660209283029190910190910152816104be81610ddc565b9250505b806104cc81610ddc565b915050610464565b50505090565b6000828152602081905260409020600101546104f581610abd565b6104ff8383610aca565b50505050565b6001600160a01b038116331461052e5760405163334bd91960e11b815260040160405180910390fd5b6105388282610b5c565b505050565b7f135612785e76fe57e7696609c82bd391eb5fb0f6cb27da7151e3420a6934327661056781610abd565b61056f610bc7565b60038360ff16111561059c5760405162461bcd60e51b815260040161059390610e27565b60405180910390fd5b81356105df5760405162461bcd60e51b8152602060048201526012602482015271125b9d985b1a59081b5a5b88185b5bdd5b9d60721b6044820152606401610593565b81356020830135101561062b5760405162461bcd60e51b8152602060048201526014602482015273496e76616c696420616d6f756e742072616e676560601b6044820152606401610593565b60008260400135116106725760405162461bcd60e51b815260206004820152601060248201526f24b73b30b634b210323ab930ba34b7b760811b6044820152606401610593565b612710826060013511156106bf5760405162461bcd60e51b81526020600482015260146024820152730a4caeec2e4c840e4c2e8ca40e8dede40d0d2ced60631b6044820152606401610593565b600082608001351161070c5760405162461bcd60e51b815260206004820152601660248201527524b73b30b634b21027232a1036bab63a34b83634b2b960511b6044820152606401610593565b60ff83166000908152600260205260409020829061072a8282610e4d565b50506003805490600061073c83610ea1565b91905055508260ff167f493a29baeb3cc4d6f5ab26f60b3936df82384abd62bcc6f1575dcaeb3bdf437383600354604051610778929190610eba565b60405180910390a27f6126ab0a9aadc9f729174668b7965114b5198740cc236df82aa4435b33d3626a6003546040516107b391815260200190565b60405180910390a161053860018055565b600060038260ff1611156107ea5760405162461bcd60e51b815260040161059390610e27565b5060ff1660009081526002602052604090206004015490565b6000918252602082815260408084206001600160a01b0393909316845291905290205460ff1690565b600060038260ff1611156108525760405162461bcd60e51b815260040161059390610e27565b5060ff1660009081526002602052604090206003015490565b7fa49807205ce4d355092ef5a8a18f56e8913cf4a201fbe287825b095693c2177561089581610abd565b60038360ff1611156108b95760405162461bcd60e51b815260040161059390610e27565b60ff8316600081815260026020908152604091829020600501805460ff191686151590811790915591519182527fe5283e65312a60b7d36b0f9a3f40b565fd52e49b2c2a2bd37452d2d8849eb9db910160405180910390a2505050565b6000805b60038160ff16116109cf5760ff808216600090815260026020818152604092839020835160c08101855281548152600182015492810192909252918201549281019290925260038101546060830152600481015460808301526005015490911615801560a0830181905290610990575080518510155b80156109a0575080602001518511155b80156109af5750806040015184145b156109bc575090506103c3565b50806109c781610ddc565b91505061091a565b5060ff9392505050565b610a146040518060c0016040528060008152602001600081526020016000815260200160008152602001600081526020016000151581525090565b60038260ff161115610a385760405162461bcd60e51b815260040161059390610e27565b5060ff908116600090815260026020818152604092839020835160c081018552815481526001820154928101929092529182015492810192909252600381015460608301526004810154608083015260050154909116151560a082015290565b600082815260208190526040902060010154610ab381610abd565b6104ff8383610b5c565b610ac78133610bf1565b50565b6000610ad68383610803565b610b54576000838152602081815260408083206001600160a01b03861684529091529020805460ff19166001179055610b0c3390565b6001600160a01b0316826001600160a01b0316847f2f8788117e7eff1d82e926ec794901d17c78024a50270940304540a733656f0d60405160405180910390a45060016103c3565b5060006103c3565b6000610b688383610803565b15610b54576000838152602081815260408083206001600160a01b0386168085529252808320805460ff1916905551339286917ff6391f5c32d9c69d2a47ea670b442974b53935d1edc7fd64eb21e047a839171b9190a45060016103c3565b600260015403610bea57604051633ee5aeb560e01b815260040160405180910390fd5b6002600155565b610bfb8282610803565b610c2a5760405163e2517d3f60e01b81526001600160a01b038216600482015260248101839052604401610593565b5050565b600060208284031215610c4057600080fd5b81356001600160e01b031981168114610c5857600080fd5b9392505050565b602080825282518282018190526000918401906040840190835b81811015610c9a57835160ff16835260209384019390920191600101610c79565b509095945050505050565b600060208284031215610cb757600080fd5b5035919050565b60008060408385031215610cd157600080fd5b8235915060208301356001600160a01b0381168114610cef57600080fd5b809150509250929050565b803560ff81168114610d0b57600080fd5b919050565b60008082840360e0811215610d2457600080fd5b610d2d84610cfa565b925060c0601f1982011215610d4157600080fd5b506020830190509250929050565b600060208284031215610d6157600080fd5b610c5882610cfa565b8015158114610ac757600080fd5b60008060408385031215610d8b57600080fd5b610d9483610cfa565b91506020830135610cef81610d6a565b60008060408385031215610db757600080fd5b50508035926020909101359150565b634e487b7160e01b600052601160045260246000fd5b600060ff821660ff8103610df257610df2610dc6565b60010192915050565b634e487b7160e01b600052604160045260246000fd5b634e487b7160e01b600052603260045260246000fd5b6020808252600c908201526b24b73b30b634b2103a34b2b960a11b604082015260600190565b81358155602082013560018201556040820135600282015560608201356003820155608082013560048201556005810160a0830135610e8b81610d6a565b815490151560ff1660ff19919091161790555050565b600060018201610eb357610eb3610dc6565b5060010190565b823581526020808401359082015260408084013590820152606080840135908201526080808401359082015260e0810160a0840135610ef881610d6a565b151560a083015260c09091019190915291905056fea26469706673582212203218be5723c7738320272bdd344ec09491d0f1179769033f1d3c506e0c13049064736f6c634300081c0033",
  "linkReferences": {},
  "deployedLinkReferences": {}
}