{
  "_format": "hh-sol-artifact-1",
  "contractName": "UpgradeableMultiStakeManagerV4",
  "sourceName": "contracts/UpgradeableMultiStakeManagerV4.sol",
  "abi": [
    {
      "inputs": [],
      "name": "AccessControlBadConfirmation",
      "type": "error"
    },
    {
      "inputs": [
        {
          "internalType": "address",
          "name": "account",
          "type": "address"
        },
        {
          "internalType": "bytes32",
          "name": "neededRole",
          "type": "bytes32"
        }
      ],
      "name": "AccessControlUnauthorizedAccount",
      "type": "error"
    },
    {
      "inputs": [
        {
          "internalType": "address",
          "name": "target",
          "type": "address"
        }
      ],
      "name": "AddressEmptyCode",
      "type": "error"
    },
    {
      "inputs": [
        {
          "internalType": "address",
          "name": "account",
          "type": "address"
        }
      ],
      "name": "AddressIsBlacklisted",
      "type": "error"
    },
    {
      "inputs": [],
      "name": "ContractEmergencyPaused",
      "type": "error"
    },
    {
      "inputs": [
        {
          "internalType": "address",
          "name": "implementation",
          "type": "address"
        }
      ],
      "name": "ERC1967InvalidImplementation",
      "type": "error"
    },
    {
      "inputs": [],
      "name": "ERC1967NonPayable",
      "type": "error"
    },
    {
      "inputs": [],
      "name": "FailedCall",
      "type": "error"
    },
    {
      "inputs": [],
      "name": "InvalidInitialization",
      "type": "error"
    },
    {
      "inputs": [],
      "name": "NotEmergencyPaused",
      "type": "error"
    },
    {
      "inputs": [],
      "name": "NotInitializing",
      "type": "error"
    },
    {
      "inputs": [],
      "name": "ReentrancyGuardReentrantCall",
      "type": "error"
    },
    {
      "inputs": [],
      "name": "UUPSUnauthorizedCallContext",
      "type": "error"
    },
    {
      "inputs": [
        {
          "internalType": "bytes32",
          "name": "slot",
          "type": "bytes32"
        }
      ],
      "name": "UUPSUnsupportedProxiableUUID",
      "type": "error"
    },
    {
      "anonymous": false,
      "inputs": [
        {
          "indexed": true,
          "internalType": "address",
          "name": "account",
          "type": "address"
        },
        {
          "indexed": true,
          "internalType": "address",
          "name": "admin",
          "type": "address"
        }
      ],
      "name": "AddressBlacklisted",
      "type": "event"
    },
    {
      "anonymous": false,
      "inputs": [
        {
          "indexed": true,
          "internalType": "address",
          "name": "account",
          "type": "address"
        },
        {
          "indexed": true,
          "internalType": "address",
          "name": "admin",
          "type": "address"
        },
        {
          "indexed": false,
          "internalType": "string",
          "name": "reason",
          "type": "string"
        }
      ],
      "name": "AddressBlacklistedWithReason",
      "type": "event"
    },
    {
      "anonymous": false,
      "inputs": [
        {
          "indexed": true,
          "internalType": "address",
          "name": "account",
          "type": "address"
        },
        {
          "indexed": true,
          "internalType": "address",
          "name": "admin",
          "type": "address"
        }
      ],
      "name": "AddressRemovedFromBlacklist",
      "type": "event"
    },
    {
      "anonymous": false,
      "inputs": [
        {
          "indexed": true,
          "internalType": "address",
          "name": "admin",
          "type": "address"
        },
        {
          "indexed": false,
          "internalType": "uint256",
          "name": "timestamp",
          "type": "uint256"
        }
      ],
      "name": "EmergencyPaused",
      "type": "event"
    },
    {
      "anonymous": false,
      "inputs": [
        {
          "indexed": true,
          "internalType": "address",
          "name": "admin",
          "type": "address"
        },
        {
          "indexed": false,
          "internalType": "uint256",
          "name": "timestamp",
          "type": "uint256"
        }
      ],
      "name": "EmergencyUnpaused",
      "type": "event"
    },
    {
      "anonymous": false,
      "inputs": [
        {
          "indexed": false,
          "internalType": "uint64",
          "name": "version",
          "type": "uint64"
        }
      ],
      "name": "Initialized",
      "type": "event"
    },
    {
      "anonymous": false,
      "inputs": [
        {
          "indexed": true,
          "internalType": "uint256",
          "name": "positionId",
          "type": "uint256"
        },
        {
          "indexed": true,
          "internalType": "address",
          "name": "owner",
          "type": "address"
        },
        {
          "indexed": false,
          "internalType": "uint256",
          "name": "amount",
          "type": "uint256"
        }
      ],
      "name": "PositionClosed",
      "type": "event"
    },
    {
      "anonymous": false,
      "inputs": [
        {
          "indexed": true,
          "internalType": "uint256",
          "name": "positionId",
          "type": "uint256"
        },
        {
          "indexed": true,
          "internalType": "address",
          "name": "owner",
          "type": "address"
        },
        {
          "indexed": false,
          "internalType": "uint256",
          "name": "amount",
          "type": "uint256"
        },
        {
          "indexed": false,
          "internalType": "uint8",
          "name": "tier",
          "type": "uint8"
        }
      ],
      "name": "PositionCreated",
      "type": "event"
    },
    {
      "anonymous": false,
      "inputs": [
        {
          "indexed": true,
          "internalType": "uint256",
          "name": "positionId",
          "type": "uint256"
        },
        {
          "indexed": true,
          "internalType": "address",
          "name": "owner",
          "type": "address"
        },
        {
          "indexed": false,
          "internalType": "uint256",
          "name": "amount",
          "type": "uint256"
        }
      ],
      "name": "RewardsClaimed",
      "type": "event"
    },
    {
      "anonymous": false,
      "inputs": [
        {
          "indexed": true,
          "internalType": "bytes32",
          "name": "role",
          "type": "bytes32"
        },
        {
          "indexed": true,
          "internalType": "bytes32",
          "name": "previousAdminRole",
          "type": "bytes32"
        },
        {
          "indexed": true,
          "internalType": "bytes32",
          "name": "newAdminRole",
          "type": "bytes32"
        }
      ],
      "name": "RoleAdminChanged",
      "type": "event"
    },
    {
      "anonymous": false,
      "inputs": [
        {
          "indexed": true,
          "internalType": "bytes32",
          "name": "role",
          "type": "bytes32"
        },
        {
          "indexed": true,
          "internalType": "address",
          "name": "account",
          "type": "address"
        },
        {
          "indexed": true,
          "internalType": "address",
          "name": "sender",
          "type": "address"
        }
      ],
      "name": "RoleGranted",
      "type": "event"
    },
    {
      "anonymous": false,
      "inputs": [
        {
          "indexed": true,
          "internalType": "bytes32",
          "name": "role",
          "type": "bytes32"
        },
        {
          "indexed": true,
          "internalType": "address",
          "name": "account",
          "type": "address"
        },
        {
          "indexed": true,
          "internalType": "address",
          "name": "sender",
          "type": "address"
        }
      ],
      "name": "RoleRevoked",
      "type": "event"
    },
    {
      "anonymous": false,
      "inputs": [
        {
          "indexed": false,
          "internalType": "uint256",
          "name": "totalStaked",
          "type": "uint256"
        },
        {
          "indexed": false,
          "internalType": "uint256",
          "name": "totalPositions",
          "type": "uint256"
        }
      ],
      "name": "StatisticsUpdated",
      "type": "event"
    },
    {
      "anonymous": false,
      "inputs": [
        {
          "indexed": true,
          "internalType": "uint8",
          "name": "tier",
          "type": "uint8"
        },
        {
          "indexed": false,
          "internalType": "uint256",
          "name": "weight",
          "type": "uint256"
        },
        {
          "indexed": false,
          "internalType": "uint256",
          "name": "duration",
          "type": "uint256"
        },
        {
          "indexed": false,
          "internalType": "uint256",
          "name": "minAmount",
          "type": "uint256"
        }
      ],
      "name": "TierUpdated",
      "type": "event"
    },
    {
      "anonymous": false,
      "inputs": [
        {
          "indexed": true,
          "internalType": "address",
          "name": "implementation",
          "type": "address"
        }
      ],
      "name": "Upgraded",
      "type": "event"
    },
    {
      "inputs": [],
      "name": "ADMIN_ROLE",
      "outputs": [
        {
          "internalType": "bytes32",
          "name": "",
          "type": "bytes32"
        }
      ],
      "stateMutability": "view",
      "type": "function"
    },
    {
      "inputs": [],
      "name": "DEFAULT_ADMIN_ROLE",
      "outputs": [
        {
          "internalType": "bytes32",
          "name": "",
          "type": "bytes32"
        }
      ],
      "stateMutability": "view",
      "type": "function"
    },
    {
      "inputs": [],
      "name": "MINTER_ROLE",
      "outputs": [
        {
          "internalType": "bytes32",
          "name": "",
          "type": "bytes32"
        }
      ],
      "stateMutability": "view",
      "type": "function"
    },
    {
      "inputs": [],
      "name": "REWARD_INTERVAL",
      "outputs": [
        {
          "internalType": "uint256",
          "name": "",
          "type": "uint256"
        }
      ],
      "stateMutability": "view",
      "type": "function"
    },
    {
      "inputs": [],
      "name": "UPGRADE_INTERFACE_VERSION",
      "outputs": [
        {
          "internalType": "string",
          "name": "",
          "type": "string"
        }
      ],
      "stateMutability": "view",
      "type": "function"
    },
    {
      "inputs": [
        {
          "internalType": "address",
          "name": "account",
          "type": "address"
        }
      ],
      "name": "addToBlacklist",
      "outputs": [],
      "stateMutability": "nonpayable",
      "type": "function"
    },
    {
      "inputs": [
        {
          "internalType": "address",
          "name": "account",
          "type": "address"
        },
        {
          "internalType": "string",
          "name": "reason",
          "type": "string"
        }
      ],
      "name": "addToBlacklistWithReason",
      "outputs": [],
      "stateMutability": "nonpayable",
      "type": "function"
    },
    {
      "inputs": [
        {
          "internalType": "address[]",
          "name": "accounts",
          "type": "address[]"
        }
      ],
      "name": "batchAddToBlacklist",
      "outputs": [],
      "stateMutability": "nonpayable",
      "type": "function"
    },
    {
      "inputs": [
        {
          "internalType": "address[]",
          "name": "accounts",
          "type": "address[]"
        },
        {
          "internalType": "string[]",
          "name": "reasons",
          "type": "string[]"
        }
      ],
      "name": "batchAddToBlacklistWithReasons",
      "outputs": [],
      "stateMutability": "nonpayable",
      "type": "function"
    },
    {
      "inputs": [
        {
          "internalType": "address[]",
          "name": "accounts",
          "type": "address[]"
        }
      ],
      "name": "batchRemoveFromBlacklist",
      "outputs": [],
      "stateMutability": "nonpayable",
      "type": "function"
    },
    {
      "inputs": [
        {
          "internalType": "uint256",
          "name": "amount",
          "type": "uint256"
        },
        {
          "internalType": "uint256",
          "name": "duration",
          "type": "uint256"
        }
      ],
      "name": "createPosition",
      "outputs": [],
      "stateMutability": "nonpayable",
      "type": "function"
    },
    {
      "inputs": [],
      "name": "emergencyPause",
      "outputs": [],
      "stateMutability": "nonpayable",
      "type": "function"
    },
    {
      "inputs": [],
      "name": "emergencyPauseTimestamp",
      "outputs": [
        {
          "internalType": "uint256",
          "name": "",
          "type": "uint256"
        }
      ],
      "stateMutability": "view",
      "type": "function"
    },
    {
      "inputs": [],
      "name": "emergencyPaused",
      "outputs": [
        {
          "internalType": "bool",
          "name": "",
          "type": "bool"
        }
      ],
      "stateMutability": "view",
      "type": "function"
    },
    {
      "inputs": [],
      "name": "emergencyUnpause",
      "outputs": [],
      "stateMutability": "nonpayable",
      "type": "function"
    },
    {
      "inputs": [
        {
          "internalType": "address",
          "name": "account",
          "type": "address"
        }
      ],
      "name": "getBlacklistReason",
      "outputs": [
        {
          "internalType": "string",
          "name": "",
          "type": "string"
        }
      ],
      "stateMutability": "view",
      "type": "function"
    },
    {
      "inputs": [
        {
          "internalType": "address[]",
          "name": "accounts",
          "type": "address[]"
        }
      ],
      "name": "getBlacklistStatus",
      "outputs": [
        {
          "internalType": "bool[]",
          "name": "statuses",
          "type": "bool[]"
        }
      ],
      "stateMutability": "view",
      "type": "function"
    },
    {
      "inputs": [
        {
          "internalType": "bytes32",
          "name": "role",
          "type": "bytes32"
        }
      ],
      "name": "getRoleAdmin",
      "outputs": [
        {
          "internalType": "bytes32",
          "name": "",
          "type": "bytes32"
        }
      ],
      "stateMutability": "view",
      "type": "function"
    },
    {
      "inputs": [],
      "name": "getStatistics",
      "outputs": [
        {
          "internalType": "uint256",
          "name": "_totalStakedAmount",
          "type": "uint256"
        },
        {
          "internalType": "uint256",
          "name": "_totalPositionsCreated",
          "type": "uint256"
        },
        {
          "internalType": "bool",
          "name": "_emergencyPaused",
          "type": "bool"
        },
        {
          "internalType": "uint256",
          "name": "_emergencyPauseTimestamp",
          "type": "uint256"
        }
      ],
      "stateMutability": "view",
      "type": "function"
    },
    {
      "inputs": [
        {
          "internalType": "uint8",
          "name": "tier",
          "type": "uint8"
        }
      ],
      "name": "getTierDuration",
      "outputs": [
        {
          "internalType": "uint256",
          "name": "",
          "type": "uint256"
        }
      ],
      "stateMutability": "view",
      "type": "function"
    },
    {
      "inputs": [
        {
          "internalType": "uint8",
          "name": "tier",
          "type": "uint8"
        }
      ],
      "name": "getTierMinAmount",
      "outputs": [
        {
          "internalType": "uint256",
          "name": "",
          "type": "uint256"
        }
      ],
      "stateMutability": "view",
      "type": "function"
    },
    {
      "inputs": [
        {
          "internalType": "uint8",
          "name": "tier",
          "type": "uint8"
        }
      ],
      "name": "getTierWeight",
      "outputs": [
        {
          "internalType": "uint256",
          "name": "",
          "type": "uint256"
        }
      ],
      "stateMutability": "view",
      "type": "function"
    },
    {
      "inputs": [
        {
          "internalType": "address",
          "name": "user",
          "type": "address"
        }
      ],
      "name": "getUserPositions",
      "outputs": [
        {
          "internalType": "uint256[]",
          "name": "",
          "type": "uint256[]"
        }
      ],
      "stateMutability": "view",
      "type": "function"
    },
    {
      "inputs": [
        {
          "internalType": "bytes32",
          "name": "role",
          "type": "bytes32"
        },
        {
          "internalType": "address",
          "name": "account",
          "type": "address"
        }
      ],
      "name": "grantRole",
      "outputs": [],
      "stateMutability": "nonpayable",
      "type": "function"
    },
    {
      "inputs": [
        {
          "internalType": "bytes32",
          "name": "role",
          "type": "bytes32"
        },
        {
          "internalType": "address",
          "name": "account",
          "type": "address"
        }
      ],
      "name": "hasRole",
      "outputs": [
        {
          "internalType": "bool",
          "name": "",
          "type": "bool"
        }
      ],
      "stateMutability": "view",
      "type": "function"
    },
    {
      "inputs": [
        {
          "internalType": "address",
          "name": "_stakingToken",
          "type": "address"
        },
        {
          "internalType": "address",
          "name": "_tierCalculator",
          "type": "address"
        }
      ],
      "name": "initialize",
      "outputs": [],
      "stateMutability": "nonpayable",
      "type": "function"
    },
    {
      "inputs": [],
      "name": "initializeV3",
      "outputs": [],
      "stateMutability": "nonpayable",
      "type": "function"
    },
    {
      "inputs": [],
      "name": "initializeV4",
      "outputs": [],
      "stateMutability": "nonpayable",
      "type": "function"
    },
    {
      "inputs": [
        {
          "internalType": "address",
          "name": "account",
          "type": "address"
        }
      ],
      "name": "isBlacklisted",
      "outputs": [
        {
          "internalType": "bool",
          "name": "",
          "type": "bool"
        }
      ],
      "stateMutability": "view",
      "type": "function"
    },
    {
      "inputs": [
        {
          "internalType": "uint256",
          "name": "positionId",
          "type": "uint256"
        }
      ],
      "name": "mintNextNFT",
      "outputs": [],
      "stateMutability": "nonpayable",
      "type": "function"
    },
    {
      "inputs": [],
      "name": "nextPositionId",
      "outputs": [
        {
          "internalType": "uint256",
          "name": "",
          "type": "uint256"
        }
      ],
      "stateMutability": "view",
      "type": "function"
    },
    {
      "inputs": [],
      "name": "nftFactory",
      "outputs": [
        {
          "internalType": "contract IPADNFTFactory",
          "name": "",
          "type": "address"
        }
      ],
      "stateMutability": "view",
      "type": "function"
    },
    {
      "inputs": [
        {
          "internalType": "uint256",
          "name": "",
          "type": "uint256"
        }
      ],
      "name": "positions",
      "outputs": [
        {
          "internalType": "uint256",
          "name": "id",
          "type": "uint256"
        },
        {
          "internalType": "address",
          "name": "owner",
          "type": "address"
        },
        {
          "internalType": "uint256",
          "name": "amount",
          "type": "uint256"
        },
        {
          "internalType": "uint256",
          "name": "startTime",
          "type": "uint256"
        },
        {
          "internalType": "uint256",
          "name": "duration",
          "type": "uint256"
        },
        {
          "internalType": "uint8",
          "name": "tier",
          "type": "uint8"
        },
        {
          "internalType": "bool",
          "name": "isActive",
          "type": "bool"
        },
        {
          "internalType": "uint256",
          "name": "lastClaimTime",
          "type": "uint256"
        },
        {
          "internalType": "uint256",
          "name": "totalClaimed",
          "type": "uint256"
        },
        {
          "internalType": "uint256",
          "name": "nextMintAt",
          "type": "uint256"
        },
        {
          "internalType": "uint8",
          "name": "monthIndex",
          "type": "uint8"
        }
      ],
      "stateMutability": "view",
      "type": "function"
    },
    {
      "inputs": [],
      "name": "proxiableUUID",
      "outputs": [
        {
          "internalType": "bytes32",
          "name": "",
          "type": "bytes32"
        }
      ],
      "stateMutability": "view",
      "type": "function"
    },
    {
      "inputs": [
        {
          "internalType": "address",
          "name": "account",
          "type": "address"
        }
      ],
      "name": "removeFromBlacklist",
      "outputs": [],
      "stateMutability": "nonpayable",
      "type": "function"
    },
    {
      "inputs": [
        {
          "internalType": "bytes32",
          "name": "role",
          "type": "bytes32"
        },
        {
          "internalType": "address",
          "name": "callerConfirmation",
          "type": "address"
        }
      ],
      "name": "renounceRole",
      "outputs": [],
      "stateMutability": "nonpayable",
      "type": "function"
    },
    {
      "inputs": [
        {
          "internalType": "bytes32",
          "name": "role",
          "type": "bytes32"
        },
        {
          "internalType": "address",
          "name": "account",
          "type": "address"
        }
      ],
      "name": "revokeRole",
      "outputs": [],
      "stateMutability": "nonpayable",
      "type": "function"
    },
    {
      "inputs": [
        {
          "internalType": "address",
          "name": "_nftFactory",
          "type": "address"
        }
      ],
      "name": "setNFTFactory",
      "outputs": [],
      "stateMutability": "nonpayable",
      "type": "function"
    },
    {
      "inputs": [],
      "name": "stakingToken",
      "outputs": [
        {
          "internalType": "contract IERC20",
          "name": "",
          "type": "address"
        }
      ],
      "stateMutability": "view",
      "type": "function"
    },
    {
      "inputs": [
        {
          "internalType": "bytes4",
          "name": "interfaceId",
          "type": "bytes4"
        }
      ],
      "name": "supportsInterface",
      "outputs": [
        {
          "internalType": "bool",
          "name": "",
          "type": "bool"
        }
      ],
      "stateMutability": "view",
      "type": "function"
    },
    {
      "inputs": [],
      "name": "tierCalculator",
      "outputs": [
        {
          "internalType": "contract ITierCalculator",
          "name": "",
          "type": "address"
        }
      ],
      "stateMutability": "view",
      "type": "function"
    },
    {
      "inputs": [
        {
          "internalType": "uint8",
          "name": "",
          "type": "uint8"
        }
      ],
      "name": "tierDurations",
      "outputs": [
        {
          "internalType": "uint256",
          "name": "",
          "type": "uint256"
        }
      ],
      "stateMutability": "view",
      "type": "function"
    },
    {
      "inputs": [
        {
          "internalType": "uint8",
          "name": "",
          "type": "uint8"
        }
      ],
      "name": "tierMinAmounts",
      "outputs": [
        {
          "internalType": "uint256",
          "name": "",
          "type": "uint256"
        }
      ],
      "stateMutability": "view",
      "type": "function"
    },
    {
      "inputs": [
        {
          "internalType": "uint8",
          "name": "",
          "type": "uint8"
        }
      ],
      "name": "tierWeights",
      "outputs": [
        {
          "internalType": "uint256",
          "name": "",
          "type": "uint256"
        }
      ],
      "stateMutability": "view",
      "type": "function"
    },
    {
      "inputs": [],
      "name": "totalPositionsCreated",
      "outputs": [
        {
          "internalType": "uint256",
          "name": "",
          "type": "uint256"
        }
      ],
      "stateMutability": "view",
      "type": "function"
    },
    {
      "inputs": [],
      "name": "totalStakedAmount",
      "outputs": [
        {
          "internalType": "uint256",
          "name": "",
          "type": "uint256"
        }
      ],
      "stateMutability": "view",
      "type": "function"
    },
    {
      "inputs": [
        {
          "internalType": "uint8",
          "name": "tier",
          "type": "uint8"
        },
        {
          "internalType": "uint256",
          "name": "weight",
          "type": "uint256"
        },
        {
          "internalType": "uint256",
          "name": "duration",
          "type": "uint256"
        },
        {
          "internalType": "uint256",
          "name": "minAmount",
          "type": "uint256"
        }
      ],
      "name": "updateTierRequirements",
      "outputs": [],
      "stateMutability": "nonpayable",
      "type": "function"
    },
    {
      "inputs": [
        {
          "internalType": "address",
          "name": "newImplementation",
          "type": "address"
        },
        {
          "internalType": "bytes",
          "name": "data",
          "type": "bytes"
        }
      ],
      "name": "upgradeToAndCall",
      "outputs": [],
      "stateMutability": "payable",
      "type": "function"
    },
    {
      "inputs": [
        {
          "internalType": "address",
          "name": "",
          "type": "address"
        },
        {
          "internalType": "uint256",
          "name": "",
          "type": "uint256"
        }
      ],
      "name": "userPositions",
      "outputs": [
        {
          "internalType": "uint256",
          "name": "",
          "type": "uint256"
        }
      ],
      "stateMutability": "view",
      "type": "function"
    },
    {
      "inputs": [],
      "name": "version",
      "outputs": [
        {
          "internalType": "string",
          "name": "",
          "type": "string"
        }
      ],
      "stateMutability": "pure",
      "type": "function"
    }
  ],
  "bytecode": "0x60a060405230608052348015601357600080fd5b5060805161311261003d60003960008181612499015281816124c2015261260601526131126000f3fe6080604052600436106102c95760003560e01c8063665c77d211610175578063be0f2b88116100dc578063d63843cd11610095578063f883462c1161006f578063f883462c146109e8578063f8d459f014610a08578063fc640da514610a28578063fe575a8714610a5857600080fd5b8063d63843cd1461097b578063d71626571461099b578063df6756a1146109bb57600080fd5b8063be0f2b8814610897578063ca059910146108b7578063cb2d93ce146108e7578063d1aaef0514610907578063d539139314610927578063d547741f1461095b57600080fd5b806391d148541161012e57806391d14854146106eb578063929352361461070b57806399fbab8814610738578063a217fddf14610824578063a6ecc5cf14610839578063ad3cb1cc1461086657600080fd5b8063665c77d214610613578063679d665f1461062957806372f702f31461064957806375b238fc1461068157806376485d03146106b5578063899346c7146106d557600080fd5b80634a4e3bd51161023457806354a08606116101ed5780635dbdda69116101c75780635dbdda69146105805780635e07e877146105965780635e1b4d99146105c65780636551ab2a146105e657600080fd5b806354a086061461052757806354fd4d501461053c578063567e98f91461056a57600080fd5b80634a4e3bd51461049f5780634a8dac81146104b45780634f1ef286146104ca57806351858e27146104dd57806352d1902d146104f2578063537df3b61461050757600080fd5b806336568abe1161028657806336568abe146103ba578063372d6b27146103da57806338e454b11461041d57806344337ea11461043257806346ba473214610452578063485cc9551461047f57600080fd5b806301ffc9a7146102ce578063248a9ca31461030357806327c830a9146103315780632a6bc2dd1461034b5780632f2ff15d14610378578063361c90d21461039a575b600080fd5b3480156102da57600080fd5b506102ee6102e93660046128c2565b610a91565b60405190151581526020015b60405180910390f35b34801561030f57600080fd5b5061032361031e3660046128ec565b610ac8565b6040519081526020016102fa565b34801561033d57600080fd5b50600d546102ee9060ff1681565b34801561035757600080fd5b5061036b610366366004612921565b610aea565b6040516102fa919061293c565b34801561038457600080fd5b5061039861039336600461297f565b610b56565b005b3480156103a657600080fd5b506103986103b53660046129f6565b610b78565b3480156103c657600080fd5b506103986103d536600461297f565b610da3565b3480156103e657600080fd5b50600a54600b54600d54600c5460408051948552602085019390935260ff90911615159183019190915260608201526080016102fa565b34801561042957600080fd5b50610398610ddb565b34801561043e57600080fd5b5061039861044d366004612921565b610e8e565b34801561045e57600080fd5b5061047261046d366004612921565b610fa7565b6040516102fa9190612a89565b34801561048b57600080fd5b5061039861049a366004612abc565b611049565b3480156104ab57600080fd5b50610398611398565b3480156104c057600080fd5b50610323600c5481565b6103986104d8366004612b74565b611425565b3480156104e957600080fd5b50610398611444565b3480156104fe57600080fd5b506103236114d9565b34801561051357600080fd5b50610398610522366004612921565b6114f6565b34801561053357600080fd5b506103986115b5565b34801561054857600080fd5b506040805180820190915260058152640342e302e360dc1b6020820152610472565b34801561057657600080fd5b50610323600a5481565b34801561058c57600080fd5b5061032361012c81565b3480156105a257600080fd5b506103236105b1366004612be6565b60ff1660009081526006602052604090205490565b3480156105d257600080fd5b506103236105e1366004612c01565b611678565b3480156105f257600080fd5b50610323610601366004612be6565b60066020526000908152604090205481565b34801561061f57600080fd5b50610323600b5481565b34801561063557600080fd5b50610398610644366004612c2b565b6116a9565b34801561065557600080fd5b50600054610669906001600160a01b031681565b6040516001600160a01b0390911681526020016102fa565b34801561068d57600080fd5b506103237fa49807205ce4d355092ef5a8a18f56e8913cf4a201fbe287825b095693c2177581565b3480156106c157600080fd5b506103986106d0366004612b74565b611775565b3480156106e157600080fd5b5061032360085481565b3480156106f757600080fd5b506102ee61070636600461297f565b61195e565b34801561071757600080fd5b50610323610726366004612be6565b60056020526000908152604090205481565b34801561074457600080fd5b506107bb6107533660046128ec565b6003602081905260009182526040909120805460018201546002830154938301546004840154600585015460068601546007870154600888015460099098015496986001600160a01b039096169795969495939460ff8085169561010090950481169491168b565b604080519b8c526001600160a01b03909a1660208c0152988a01979097526060890195909552608088019390935260ff91821660a0880152151560c087015260e086019190915261010085019190915261012084019190915216610140820152610160016102fa565b34801561083057600080fd5b50610323600081565b34801561084557600080fd5b50610859610854366004612c2b565b611996565b6040516102fa9190612c6c565b34801561087257600080fd5b50610472604051806040016040528060058152602001640352e302e360dc1b81525081565b3480156108a357600080fd5b50600154610669906001600160a01b031681565b3480156108c357600080fd5b506103236108d2366004612be6565b60ff1660009081526005602052604090205490565b3480156108f357600080fd5b50610398610902366004612921565b611a65565b34801561091357600080fd5b50610398610922366004612ca6565b611acb565b34801561093357600080fd5b506103237f9f2df0fed2c77648de5860a4cc508cd0818c85b8b8a1ab4ceeef8d981c8956a681565b34801561096757600080fd5b5061039861097636600461297f565b611f80565b34801561098757600080fd5b50600254610669906001600160a01b031681565b3480156109a757600080fd5b506103986109b6366004612c2b565b611f9c565b3480156109c757600080fd5b506103236109d6366004612be6565b60076020526000908152604090205481565b3480156109f457600080fd5b50610398610a033660046128ec565b612051565b348015610a1457600080fd5b50610398610a23366004612cc8565b6122ac565b348015610a3457600080fd5b50610323610a43366004612be6565b60ff1660009081526007602052604090205490565b348015610a6457600080fd5b506102ee610a73366004612921565b6001600160a01b031660009081526009602052604090205460ff1690565b60006001600160e01b03198216637965db0b60e01b1480610ac257506301ffc9a760e01b6001600160e01b03198316145b92915050565b60009081526000805160206130bd833981519152602052604090206001015490565b6001600160a01b038116600090815260046020908152604091829020805483518184028101840190945280845260609392830182828015610b4a57602002820191906000526020600020905b815481526020019060010190808311610b36575b50505050509050919050565b610b5f82610ac8565b610b688161231d565b610b72838361232a565b50505050565b6000610b838161231d565b838214610bd05760405162461bcd60e51b8152602060048201526016602482015275082e4e4c2f2e640d8cadccee8d040dad2e6dac2e8c6d60531b60448201526064015b60405180910390fd5b60005b84811015610d9b576000868683818110610bef57610bef612d01565b9050602002016020810190610c049190612921565b90506001600160a01b03811615610d925760405163fe575a8760e01b81526001600160a01b0382166004820152600090309063fe575a8790602401602060405180830381865afa158015610c5c573d6000803e3d6000fd5b505050506040513d601f19601f82011682018060405250810190610c809190612d17565b905080610d90576040516344337ea160e01b81526001600160a01b038316600482015230906344337ea190602401600060405180830381600087803b158015610cc857600080fd5b505af1158015610cdc573d6000803e3d6000fd5b50505050858584818110610cf257610cf2612d01565b9050602002810190610d049190612d39565b6001600160a01b0384166000908152600e6020526040902091610d28919083612e07565b50336001600160a01b0383167fcbad351ddba6da4eef3b2f5d6a420785e96e66f97f3d8234c719740a4d00a9d0888887818110610d6757610d67612d01565b9050602002810190610d799190612d39565b604051610d87929190612ec6565b60405180910390a35b505b50600101610bd3565b505050505050565b6001600160a01b0381163314610dcc5760405163334bd91960e11b815260040160405180910390fd5b610dd682826123cf565b505050565b60036000610de761244b565b8054909150600160401b900460ff1680610e0e575080546001600160401b03808416911610155b15610e2c5760405163f92ee8a960e01b815260040160405180910390fd5b805468ffffffffffffffffff19166001600160401b038316908117600160401b1760ff60401b191682556040519081527fc7f505b2f371ae2175ee4913f4499e1f2633a7b5936321eed1cdaeb6115181d2906020015b60405180910390a15050565b6000610e998161231d565b6001600160a01b038216610eef5760405162461bcd60e51b815260206004820152601d60248201527f43616e6e6f7420626c61636b6c697374207a65726f20616464726573730000006044820152606401610bc7565b6001600160a01b03821660009081526009602052604090205460ff1615610f585760405162461bcd60e51b815260206004820152601b60248201527f4164647265737320616c726561647920626c61636b6c697374656400000000006044820152606401610bc7565b6001600160a01b038216600081815260096020526040808220805460ff19166001179055513392917f4a740bebda0bde2baf1735e1b1fa93babe7a2bb77ecade7bf5e222d541c076cd91a35050565b6001600160a01b0381166000908152600e60205260409020805460609190610fce90612d7f565b80601f0160208091040260200160405190810160405280929190818152602001828054610ffa90612d7f565b8015610b4a5780601f1061101c57610100808354040283529160200191610b4a565b820191906000526020600020905b81548152906001019060200180831161102a5750939695505050505050565b600061105361244b565b805490915060ff600160401b82041615906001600160401b031660008115801561107a5750825b90506000826001600160401b031660011480156110965750303b155b9050811580156110a4575080155b156110c25760405163f92ee8a960e01b815260040160405180910390fd5b845467ffffffffffffffff1916600117855583156110ec57845460ff60401b1916600160401b1785555b6110f4612474565b6110fc61247e565b600080546001600160a01b03808a166001600160a01b031992831617835560018054918a1691909216179055611132903361232a565b5061115d7fa49807205ce4d355092ef5a8a18f56e8913cf4a201fbe287825b095693c217753361232a565b5061134960647f05b8ccbb9d4d8fb16ea74ce3c29a41f1b461fbdaff4714a0d9a8eb05499746bc5560c87f1471eb6eb2c5e789fc3de43f8ce62938c7d1836ec861730447e2ada8fd81017b5561012c7f89832631fb3c3307a103ba2c84ab569c64d6182a18893dcd163f0f1c2090733a556101907fa9bc9a3a348c357ba16b37005d7e6b3236198c0e939f4af8c5f19b8deeb8ebc05562278d007f54cdd369e4e8a8515e52ca72ec816c2101831ad1f18bf44102ed171459c9b4f8556276a7007f3e5fec24aa4dc4e5aee2e025e51e1392c72a2500577559fae9665c6d52bd6a315562ed4e007f8819ef417987f8ae7a81f42cdfb18815282fe989326fbff903d13cf0e03ace29556301e133807f75f96ab15d697e93042dc45b5c896c4b27e89bb6eaf39475c5c371cb2513f7d2556007602052681b1ae4d6e2ef5000007f6d5257204ebe7d88fd91ae87941cb2dd9d8062b64ae5a2bd2d28ec40b9fbf6df55683635c9adc5dea000007fb39221ace053465ec3453ce2b36430bd138b997ecea25c1043da0c366812b8285568878678326eac9000007fb7c774451310d1be4108bc180d1b52823cb0ee0274a6c0081bcaf94f115fb96d55600360005269010f0cf064dd592000007f3be6fd20d5acfde5b873b48692cd31f4d3c7e8ee8a813af4696af8859e5ca6c655565b831561138f57845460ff60401b19168555604051600181527fc7f505b2f371ae2175ee4913f4499e1f2633a7b5936321eed1cdaeb6115181d29060200160405180910390a15b50505050505050565b60006113a38161231d565b600d5460ff166113e25760405162461bcd60e51b815260206004820152600a602482015269139bdd081c185d5cd95960b21b6044820152606401610bc7565b600d805460ff1916905560405142815233907fdacac23d353cc4fe05be85350ed1e8227ed9edf2323b7cb5aad3174e6a9ce1d6906020015b60405180910390a250565b61142d61248e565b61143682612533565b611440828261253e565b5050565b600061144f8161231d565b600d5460ff16156114935760405162461bcd60e51b815260206004820152600e60248201526d105b1c9958591e481c185d5cd95960921b6044820152606401610bc7565b600d805460ff1916600117905542600c81905560405133917f2e31b3b12b9bb0e82c32f27df5f234fabc95a374f54fd287a7132878d5dc9fc39161141a91815260200190565b60006114e36125fb565b5060008051602061309d83398151915290565b60006115018161231d565b6001600160a01b03821660009081526009602052604090205460ff166115695760405162461bcd60e51b815260206004820152601760248201527f41646472657373206e6f7420626c61636b6c69737465640000000000000000006044820152606401610bc7565b6001600160a01b038216600081815260096020526040808220805460ff19169055513392917fc5d633221a999da7b50bad97ddd6cff0c917455d8651123a6433642833252b7c91a35050565b600460006115c161244b565b8054909150600160401b900460ff16806115e8575080546001600160401b03808416911610155b156116065760405163f92ee8a960e01b815260040160405180910390fd5b805468ffffffffffffffffff19166001600160401b038316908117600160401b1782556000600a819055600b55600d805460ff19169055815460ff60401b191682556040519081527fc7f505b2f371ae2175ee4913f4499e1f2633a7b5936321eed1cdaeb6115181d290602001610e82565b6004602052816000526040600020818154811061169457600080fd5b90600052602060002001600091509150505481565b60006116b48161231d565b60005b82811015610b725760008484838181106116d3576116d3612d01565b90506020020160208101906116e89190612921565b90506001600160a01b0381161580159061171b57506001600160a01b03811660009081526009602052604090205460ff16155b1561176c576001600160a01b038116600081815260096020526040808220805460ff19166001179055513392917f4a740bebda0bde2baf1735e1b1fa93babe7a2bb77ecade7bf5e222d541c076cd91a35b506001016116b7565b60006117808161231d565b6001600160a01b0383166117d65760405162461bcd60e51b815260206004820152601d60248201527f43616e6e6f7420626c61636b6c697374207a65726f20616464726573730000006044820152606401610bc7565b60405163fe575a8760e01b81526001600160a01b0384166004820152600090309063fe575a8790602401602060405180830381865afa15801561181d573d6000803e3d6000fd5b505050506040513d601f19601f820116820180604052508101906118419190612d17565b905080156118915760405162461bcd60e51b815260206004820152601b60248201527f4164647265737320616c726561647920626c61636b6c697374656400000000006044820152606401610bc7565b6040516344337ea160e01b81526001600160a01b038516600482015230906344337ea190602401600060405180830381600087803b1580156118d257600080fd5b505af11580156118e6573d6000803e3d6000fd5b505050506001600160a01b0384166000908152600e6020526040902061190c8482612ef5565b50336001600160a01b0316846001600160a01b03167fcbad351ddba6da4eef3b2f5d6a420785e96e66f97f3d8234c719740a4d00a9d0856040516119509190612a89565b60405180910390a350505050565b60009182526000805160206130bd833981519152602090815260408084206001600160a01b0393909316845291905290205460ff1690565b6060816001600160401b038111156119b0576119b0612ae6565b6040519080825280602002602001820160405280156119d9578160200160208202803683370190505b50905060005b82811015611a5e57600960008585848181106119fd576119fd612d01565b9050602002016020810190611a129190612921565b6001600160a01b03168152602081019190915260400160002054825160ff90911690839083908110611a4657611a46612d01565b911515602092830291909101909101526001016119df565b5092915050565b611a7060003361195e565b611aa95760405162461bcd60e51b815260206004820152600a60248201526927b7363c9030b236b4b760b11b6044820152606401610bc7565b600280546001600160a01b0319166001600160a01b0392909216919091179055565b3360008181526009602052604090205460ff1615611b075760405163e2a0fe6360e01b81526001600160a01b0382166004820152602401610bc7565b600d5460ff1615611b2b576040516359a3343160e11b815260040160405180910390fd5b60008311611b7b5760405162461bcd60e51b815260206004820152601d60248201527f416d6f756e74206d7573742062652067726561746572207468616e20300000006044820152606401610bc7565b60008211611bcb5760405162461bcd60e51b815260206004820152601f60248201527f4475726174696f6e206d7573742062652067726561746572207468616e2030006044820152606401610bc7565b600154604051632783162d60e11b8152600481018490526000916001600160a01b031690634f062c5a90602401602060405180830381865afa158015611c15573d6000803e3d6000fd5b505050506040513d601f19601f82011682018060405250810190611c399190612fb3565b6003811115611c4a57611c4a612fd4565b60ff8116600090815260076020526040902054909150841015611caf5760405162461bcd60e51b815260206004820152601d60248201527f416d6f756e742062656c6f77206d696e696d756d20666f7220746965720000006044820152606401610bc7565b6000546040516323b872dd60e01b8152336004820152306024820152604481018690526001600160a01b03909116906323b872dd906064016020604051808303816000875af1158015611d06573d6000803e3d6000fd5b505050506040513d601f19601f82011682018060405250810190611d2a9190612d17565b611d685760405162461bcd60e51b815260206004820152600f60248201526e151c985b9cd9995c8819985a5b1959608a1b6044820152606401610bc7565b6008805460009182611d7983613000565b919050559050604051806101600160405280828152602001336001600160a01b031681526020018681526020014281526020018581526020018360ff16815260200160011515815260200160008152602001600081526020014262278d00611de19190613019565b815260006020918201819052838152600380835260408083208551815585850151600180830180546001600160a01b0319166001600160a01b0390931692909217909155868301516002830155606087015193820193909355608086015160048083019190915560a087015160058301805460c08a015160ff93841661ffff199092169190911761010091151582021790915560e0890151600685015588015160078401556101208801516008840155610140909701516009909201805460ff19169288169290921790915533808552908552818420805493840181558452928490209091018590558051898152938616928401929092529183917f777faa44f45af96105bd34ff5ed16f195afc71ff2a37560bbc675164bc1bd58d910160405180910390a384600a6000828254611f199190613019565b9091555050600b8054906000611f2e83613000565b91905055507f338f67e2968e67831be923fa5195d483621b5773680f59506aca37ca7be148fa600a54600b54604051611f71929190918252602082015260400190565b60405180910390a15050505050565b611f8982610ac8565b611f928161231d565b610b7283836123cf565b6000611fa78161231d565b60005b82811015610b72576000848483818110611fc657611fc6612d01565b9050602002016020810190611fdb9190612921565b6001600160a01b03811660009081526009602052604090205490915060ff1615612048576001600160a01b038116600081815260096020526040808220805460ff19169055513392917fc5d633221a999da7b50bad97ddd6cff0c917455d8651123a6433642833252b7c91a35b50600101611faa565b60008181526003602052604090206005810154610100900460ff166120ae5760405162461bcd60e51b8152602060048201526013602482015272506f736974696f6e206e6f742061637469766560681b6044820152606401610bc7565b80600801544210156120fb5760405162461bcd60e51b8152602060048201526016602482015275151bdbc819585c9b1e48199bdc881b995e1d0813919560521b6044820152606401610bc7565b600061012c826004015461210f919061302c565b600983015490915060ff16811161215a5760405162461bcd60e51b815260206004820152600f60248201526e105b1b081391951cc81b5a5b9d1959608a1b6044820152606401610bc7565b6002546001600160a01b031615612259576002805460018401549184015460048501546001600160a01b039283169363f4fb815993169187916121a19062278d009061302c565b6003880154600989015460088a015460ff909116906121c39061012c90613019565b6040516001600160e01b031960e08a901b1681526001600160a01b039097166004880152602487019590955260448601939093526064850191909152608484015260ff1660a483015260c482015260e4016020604051808303816000875af1158015612233573d6000803e3d6000fd5b505050506040513d601f19601f82011682018060405250810190612257919061304e565b505b6009820180546001919060009061227490849060ff16613067565b92506101000a81548160ff021916908360ff16021790555061012c8260080160008282546122a29190613019565b9091555050505050565b60ff8416600081815260056020908152604080832087905560068252808320869055600782529182902084905581518681529081018590529081018390527f8a8be32f561bae947d8a12913d5ddbcb7eb4b7e8db9d7474ce283d37adb1ab739060600160405180910390a250505050565b6123278133612644565b50565b60006000805160206130bd833981519152612345848461195e565b6123c5576000848152602082815260408083206001600160a01b03871684529091529020805460ff1916600117905561237b3390565b6001600160a01b0316836001600160a01b0316857f2f8788117e7eff1d82e926ec794901d17c78024a50270940304540a733656f0d60405160405180910390a46001915050610ac2565b6000915050610ac2565b60006000805160206130bd8339815191526123ea848461195e565b156123c5576000848152602082815260408083206001600160a01b0387168085529252808320805460ff1916905551339287917ff6391f5c32d9c69d2a47ea670b442974b53935d1edc7fd64eb21e047a839171b9190a46001915050610ac2565b6000807ff0c57e16840df040f15088dc2f81fe391c3923bec73e23a9662efc9c229c6a00610ac2565b61247c61267d565b565b61248661267d565b61247c6126a2565b306001600160a01b037f000000000000000000000000000000000000000000000000000000000000000016148061251557507f00000000000000000000000000000000000000000000000000000000000000006001600160a01b031661250960008051602061309d833981519152546001600160a01b031690565b6001600160a01b031614155b1561247c5760405163703e46dd60e11b815260040160405180910390fd5b60006114408161231d565b816001600160a01b03166352d1902d6040518163ffffffff1660e01b8152600401602060405180830381865afa925050508015612598575060408051601f3d908101601f191682019092526125959181019061304e565b60015b6125c057604051634c9c8ce360e01b81526001600160a01b0383166004820152602401610bc7565b60008051602061309d83398151915281146125f157604051632a87526960e21b815260048101829052602401610bc7565b610dd683836126d0565b306001600160a01b037f0000000000000000000000000000000000000000000000000000000000000000161461247c5760405163703e46dd60e11b815260040160405180910390fd5b61264e828261195e565b6114405760405163e2517d3f60e01b81526001600160a01b038216600482015260248101839052604401610bc7565b612685612726565b61247c57604051631afcd79f60e31b815260040160405180910390fd5b6126aa61267d565b60017f9b779b17422d0df92223018b32b4d1fa46e071723d6817e2486d003becc55f0055565b6126d982612740565b6040516001600160a01b038316907fbc7cd75a20ee27fd9adebab32041f755214dbc6bffa90cc0225b39da2e5c2d3b90600090a280511561271e57610dd682826127a5565b61144061281b565b600061273061244b565b54600160401b900460ff16919050565b806001600160a01b03163b60000361277657604051634c9c8ce360e01b81526001600160a01b0382166004820152602401610bc7565b60008051602061309d83398151915280546001600160a01b0319166001600160a01b0392909216919091179055565b6060600080846001600160a01b0316846040516127c29190613080565b600060405180830381855af49150503d80600081146127fd576040519150601f19603f3d011682016040523d82523d6000602084013e612802565b606091505b509150915061281285838361283a565b95945050505050565b341561247c5760405163b398979f60e01b815260040160405180910390fd5b60608261284f5761284a82612899565b612892565b815115801561286657506001600160a01b0384163b155b1561288f57604051639996b31560e01b81526001600160a01b0385166004820152602401610bc7565b50805b9392505050565b8051156128a95780518082602001fd5b60405163d6bda27560e01b815260040160405180910390fd5b6000602082840312156128d457600080fd5b81356001600160e01b03198116811461289257600080fd5b6000602082840312156128fe57600080fd5b5035919050565b80356001600160a01b038116811461291c57600080fd5b919050565b60006020828403121561293357600080fd5b61289282612905565b602080825282518282018190526000918401906040840190835b81811015612974578351835260209384019390920191600101612956565b509095945050505050565b6000806040838503121561299257600080fd5b823591506129a260208401612905565b90509250929050565b60008083601f8401126129bd57600080fd5b5081356001600160401b038111156129d457600080fd5b6020830191508360208260051b85010111156129ef57600080fd5b9250929050565b60008060008060408587031215612a0c57600080fd5b84356001600160401b03811115612a2257600080fd5b612a2e878288016129ab565b90955093505060208501356001600160401b03811115612a4d57600080fd5b612a59878288016129ab565b95989497509550505050565b60005b83811015612a80578181015183820152602001612a68565b50506000910152565b6020815260008251806020840152612aa8816040850160208701612a65565b601f01601f19169190910160400192915050565b60008060408385031215612acf57600080fd5b612ad883612905565b91506129a260208401612905565b634e487b7160e01b600052604160045260246000fd5b6000806001600160401b03841115612b1657612b16612ae6565b50604051601f19601f85018116603f011681018181106001600160401b0382111715612b4457612b44612ae6565b604052838152905080828401851015612b5c57600080fd5b83836020830137600060208583010152509392505050565b60008060408385031215612b8757600080fd5b612b9083612905565b915060208301356001600160401b03811115612bab57600080fd5b8301601f81018513612bbc57600080fd5b612bcb85823560208401612afc565b9150509250929050565b803560ff8116811461291c57600080fd5b600060208284031215612bf857600080fd5b61289282612bd5565b60008060408385031215612c1457600080fd5b612c1d83612905565b946020939093013593505050565b60008060208385031215612c3e57600080fd5b82356001600160401b03811115612c5457600080fd5b612c60858286016129ab565b90969095509350505050565b602080825282518282018190526000918401906040840190835b818110156129745783511515835260209384019390920191600101612c86565b60008060408385031215612cb957600080fd5b50508035926020909101359150565b60008060008060808587031215612cde57600080fd5b612ce785612bd5565b966020860135965060408601359560600135945092505050565b634e487b7160e01b600052603260045260246000fd5b600060208284031215612d2957600080fd5b8151801515811461289257600080fd5b6000808335601e19843603018112612d5057600080fd5b8301803591506001600160401b03821115612d6a57600080fd5b6020019150368190038213156129ef57600080fd5b600181811c90821680612d9357607f821691505b602082108103612db357634e487b7160e01b600052602260045260246000fd5b50919050565b601f821115610dd657806000526020600020601f840160051c81016020851015612de05750805b601f840160051c820191505b81811015612e005760008155600101612dec565b5050505050565b6001600160401b03831115612e1e57612e1e612ae6565b612e3283612e2c8354612d7f565b83612db9565b6000601f841160018114612e665760008515612e4e5750838201355b600019600387901b1c1916600186901b178355612e00565b600083815260209020601f19861690835b82811015612e975786850135825560209485019460019092019101612e77565b5086821015612eb45760001960f88860031b161c19848701351681555b505060018560011b0183555050505050565b60208152816020820152818360408301376000818301604090810191909152601f909201601f19160101919050565b81516001600160401b03811115612f0e57612f0e612ae6565b612f2281612f1c8454612d7f565b84612db9565b6020601f821160018114612f565760008315612f3e5750848201515b600019600385901b1c1916600184901b178455612e00565b600084815260208120601f198516915b82811015612f865787850151825560209485019460019092019101612f66565b5084821015612fa45786840151600019600387901b60f8161c191681555b50505050600190811b01905550565b600060208284031215612fc557600080fd5b81516004811061289257600080fd5b634e487b7160e01b600052602160045260246000fd5b634e487b7160e01b600052601160045260246000fd5b60006001820161301257613012612fea565b5060010190565b80820180821115610ac257610ac2612fea565b60008261304957634e487b7160e01b600052601260045260246000fd5b500490565b60006020828403121561306057600080fd5b5051919050565b60ff8181168382160190811115610ac257610ac2612fea565b60008251613092818460208701612a65565b919091019291505056fe360894a13ba1a3210667c828492db98dca3e2076cc3735a920a3ca505d382bbc02dd7bc7dec4dceedda775e58dd541e08a116c6c53815c0bd028192f7b626800a2646970667358221220097442ca99b5159250c1dfe94dda03c719d69473cf935f92784cf37d519e91fd64736f6c634300081c0033",
  "linkReferences": {},
  "deployedLinkReferences": {}
}