{
  "_format": "hh-sol-artifact-1",
  "contractName": "MaliciousContract",
  "sourceName": "contracts/MaliciousContract.sol",
  "abi": [
    {
      "inputs": [
        {
          "internalType": "address",
          "name": "_stakeManager",
          "type": "address"
        }
      ],
      "stateMutability": "nonpayable",
      "type": "constructor"
    },
    {
      "inputs": [
        {
          "internalType": "uint256",
          "name": "positionId",
          "type": "uint256"
        }
      ],
      "name": "callEmergencyWithdraw",
      "outputs": [],
      "stateMutability": "nonpayable",
      "type": "function"
    },
    {
      "inputs": [],
      "name": "stakeManager",
      "outputs": [
        {
          "internalType": "contract MultiStakeManager",
          "name": "",
          "type": "address"
        }
      ],
      "stateMutability": "view",
      "type": "function"
    }
  ],
  "bytecode": "0x60a0604052348015600f57600080fd5b506040516101e93803806101e9833981016040819052602c91603c565b6001600160a01b0316608052606a565b600060208284031215604d57600080fd5b81516001600160a01b0381168114606357600080fd5b9392505050565b60805161015f61008a600039600081816055015260a9015261015f6000f3fe608060405234801561001057600080fd5b50600436106100365760003560e01c806338c42dfc1461003b5780637542ff9514610050575b600080fd5b61004e610049366004610110565b610093565b005b6100777f000000000000000000000000000000000000000000000000000000000000000081565b6040516001600160a01b03909116815260200160405180910390f35b604051632989754760e11b8152600481018290527f00000000000000000000000000000000000000000000000000000000000000006001600160a01b031690635312ea8e90602401600060405180830381600087803b1580156100f557600080fd5b505af1158015610109573d6000803e3d6000fd5b5050505050565b60006020828403121561012257600080fd5b503591905056fea2646970667358221220c01dd10eeef25e25dbb247bad3b911131581f04aeaff7c002684a6a1f81b16f364736f6c634300081c0033",
  "linkReferences": {},
  "deployedLinkReferences": {}
}