{
  "_format": "hh-sol-artifact-1",
  "contractName": "MultiStakeManager",
  "sourceName": "contracts/MultiStakeManager.sol",
  "abi": [
    {
      "inputs": [
        {
          "internalType": "address",
          "name": "_stakingToken",
          "type": "address"
        }
      ],
      "stateMutability": "nonpayable",
      "type": "constructor"
    },
    {
      "inputs": [],
      "name": "AccessControlBadConfirmation",
      "type": "error"
    },
    {
      "inputs": [
        {
          "internalType": "address",
          "name": "account",
          "type": "address"
        },
        {
          "internalType": "bytes32",
          "name": "neededRole",
          "type": "bytes32"
        }
      ],
      "name": "AccessControlUnauthorizedAccount",
      "type": "error"
    },
    {
      "inputs": [],
      "name": "ReentrancyGuardReentrantCall",
      "type": "error"
    },
    {
      "anonymous": false,
      "inputs": [
        {
          "indexed": true,
          "internalType": "uint256",
          "name": "positionId",
          "type": "uint256"
        },
        {
          "indexed": true,
          "internalType": "address",
          "name": "owner",
          "type": "address"
        },
        {
          "indexed": false,
          "internalType": "uint256",
          "name": "amount",
          "type": "uint256"
        }
      ],
      "name": "EmergencyWithdrawn",
      "type": "event"
    },
    {
      "anonymous": false,
      "inputs": [
        {
          "indexed": true,
          "internalType": "address",
          "name": "newNFTFactory",
          "type": "address"
        }
      ],
      "name": "NFTFactorySet",
      "type": "event"
    },
    {
      "anonymous": false,
      "inputs": [
        {
          "indexed": true,
          "internalType": "uint256",
          "name": "positionId",
          "type": "uint256"
        },
        {
          "indexed": true,
          "internalType": "address",
          "name": "owner",
          "type": "address"
        },
        {
          "indexed": false,
          "internalType": "uint256",
          "name": "amount",
          "type": "uint256"
        },
        {
          "indexed": false,
          "internalType": "uint256",
          "name": "reward",
          "type": "uint256"
        }
      ],
      "name": "PositionClosed",
      "type": "event"
    },
    {
      "anonymous": false,
      "inputs": [
        {
          "indexed": true,
          "internalType": "uint256",
          "name": "positionId",
          "type": "uint256"
        },
        {
          "indexed": true,
          "internalType": "address",
          "name": "owner",
          "type": "address"
        },
        {
          "indexed": false,
          "internalType": "uint256",
          "name": "amount",
          "type": "uint256"
        },
        {
          "indexed": false,
          "internalType": "uint256",
          "name": "duration",
          "type": "uint256"
        }
      ],
      "name": "PositionCreated",
      "type": "event"
    },
    {
      "anonymous": false,
      "inputs": [
        {
          "indexed": true,
          "internalType": "bytes32",
          "name": "role",
          "type": "bytes32"
        },
        {
          "indexed": true,
          "internalType": "bytes32",
          "name": "previousAdminRole",
          "type": "bytes32"
        },
        {
          "indexed": true,
          "internalType": "bytes32",
          "name": "newAdminRole",
          "type": "bytes32"
        }
      ],
      "name": "RoleAdminChanged",
      "type": "event"
    },
    {
      "anonymous": false,
      "inputs": [
        {
          "indexed": true,
          "internalType": "bytes32",
          "name": "role",
          "type": "bytes32"
        },
        {
          "indexed": true,
          "internalType": "address",
          "name": "account",
          "type": "address"
        },
        {
          "indexed": true,
          "internalType": "address",
          "name": "sender",
          "type": "address"
        }
      ],
      "name": "RoleGranted",
      "type": "event"
    },
    {
      "anonymous": false,
      "inputs": [
        {
          "indexed": true,
          "internalType": "bytes32",
          "name": "role",
          "type": "bytes32"
        },
        {
          "indexed": true,
          "internalType": "address",
          "name": "account",
          "type": "address"
        },
        {
          "indexed": true,
          "internalType": "address",
          "name": "sender",
          "type": "address"
        }
      ],
      "name": "RoleRevoked",
      "type": "event"
    },
    {
      "inputs": [],
      "name": "ADMIN_ROLE",
      "outputs": [
        {
          "internalType": "bytes32",
          "name": "",
          "type": "bytes32"
        }
      ],
      "stateMutability": "view",
      "type": "function"
    },
    {
      "inputs": [],
      "name": "DEFAULT_ADMIN_ROLE",
      "outputs": [
        {
          "internalType": "bytes32",
          "name": "",
          "type": "bytes32"
        }
      ],
      "stateMutability": "view",
      "type": "function"
    },
    {
      "inputs": [],
      "name": "MAX_POSITIONS_PER_WALLET",
      "outputs": [
        {
          "internalType": "uint256",
          "name": "",
          "type": "uint256"
        }
      ],
      "stateMutability": "view",
      "type": "function"
    },
    {
      "inputs": [],
      "name": "MAX_STAKE_DURATION",
      "outputs": [
        {
          "internalType": "uint256",
          "name": "",
          "type": "uint256"
        }
      ],
      "stateMutability": "view",
      "type": "function"
    },
    {
      "inputs": [],
      "name": "MIN_STAKE_DURATION",
      "outputs": [
        {
          "internalType": "uint256",
          "name": "",
          "type": "uint256"
        }
      ],
      "stateMutability": "view",
      "type": "function"
    },
    {
      "inputs": [],
      "name": "REWARD_INTERVAL",
      "outputs": [
        {
          "internalType": "uint256",
          "name": "",
          "type": "uint256"
        }
      ],
      "stateMutability": "view",
      "type": "function"
    },
    {
      "inputs": [
        {
          "internalType": "uint256",
          "name": "positionId",
          "type": "uint256"
        }
      ],
      "name": "calculateRewards",
      "outputs": [
        {
          "internalType": "uint256",
          "name": "",
          "type": "uint256"
        }
      ],
      "stateMutability": "view",
      "type": "function"
    },
    {
      "inputs": [
        {
          "internalType": "uint256",
          "name": "positionId",
          "type": "uint256"
        }
      ],
      "name": "closePosition",
      "outputs": [],
      "stateMutability": "nonpayable",
      "type": "function"
    },
    {
      "inputs": [
        {
          "internalType": "uint256",
          "name": "amount",
          "type": "uint256"
        },
        {
          "internalType": "uint256",
          "name": "duration",
          "type": "uint256"
        }
      ],
      "name": "createPosition",
      "outputs": [],
      "stateMutability": "nonpayable",
      "type": "function"
    },
    {
      "inputs": [
        {
          "internalType": "uint256",
          "name": "positionId",
          "type": "uint256"
        }
      ],
      "name": "emergencyWithdraw",
      "outputs": [],
      "stateMutability": "nonpayable",
      "type": "function"
    },
    {
      "inputs": [
        {
          "internalType": "bytes32",
          "name": "role",
          "type": "bytes32"
        }
      ],
      "name": "getRoleAdmin",
      "outputs": [
        {
          "internalType": "bytes32",
          "name": "",
          "type": "bytes32"
        }
      ],
      "stateMutability": "view",
      "type": "function"
    },
    {
      "inputs": [
        {
          "internalType": "address",
          "name": "user",
          "type": "address"
        }
      ],
      "name": "getUserPositions",
      "outputs": [
        {
          "internalType": "uint256[]",
          "name": "",
          "type": "uint256[]"
        }
      ],
      "stateMutability": "view",
      "type": "function"
    },
    {
      "inputs": [
        {
          "internalType": "bytes32",
          "name": "role",
          "type": "bytes32"
        },
        {
          "internalType": "address",
          "name": "account",
          "type": "address"
        }
      ],
      "name": "grantRole",
      "outputs": [],
      "stateMutability": "nonpayable",
      "type": "function"
    },
    {
      "inputs": [
        {
          "internalType": "bytes32",
          "name": "role",
          "type": "bytes32"
        },
        {
          "internalType": "address",
          "name": "account",
          "type": "address"
        }
      ],
      "name": "hasRole",
      "outputs": [
        {
          "internalType": "bool",
          "name": "",
          "type": "bool"
        }
      ],
      "stateMutability": "view",
      "type": "function"
    },
    {
      "inputs": [
        {
          "internalType": "uint256",
          "name": "positionId",
          "type": "uint256"
        }
      ],
      "name": "mintNextNFT",
      "outputs": [],
      "stateMutability": "nonpayable",
      "type": "function"
    },
    {
      "inputs": [],
      "name": "nftFactory",
      "outputs": [
        {
          "internalType": "address",
          "name": "",
          "type": "address"
        }
      ],
      "stateMutability": "view",
      "type": "function"
    },
    {
      "inputs": [
        {
          "internalType": "uint256",
          "name": "",
          "type": "uint256"
        }
      ],
      "name": "positionIndexInUserArray",
      "outputs": [
        {
          "internalType": "uint256",
          "name": "",
          "type": "uint256"
        }
      ],
      "stateMutability": "view",
      "type": "function"
    },
    {
      "inputs": [
        {
          "internalType": "uint256",
          "name": "",
          "type": "uint256"
        }
      ],
      "name": "positions",
      "outputs": [
        {
          "internalType": "uint128",
          "name": "amount",
          "type": "uint128"
        },
        {
          "internalType": "uint64",
          "name": "startTime",
          "type": "uint64"
        },
        {
          "internalType": "uint32",
          "name": "duration",
          "type": "uint32"
        },
        {
          "internalType": "uint32",
          "name": "nextMintAt",
          "type": "uint32"
        },
        {
          "internalType": "uint8",
          "name": "tier",
          "type": "uint8"
        },
        {
          "internalType": "uint8",
          "name": "monthIndex",
          "type": "uint8"
        },
        {
          "internalType": "bool",
          "name": "isActive",
          "type": "bool"
        },
        {
          "internalType": "address",
          "name": "owner",
          "type": "address"
        }
      ],
      "stateMutability": "view",
      "type": "function"
    },
    {
      "inputs": [
        {
          "internalType": "bytes32",
          "name": "role",
          "type": "bytes32"
        },
        {
          "internalType": "address",
          "name": "callerConfirmation",
          "type": "address"
        }
      ],
      "name": "renounceRole",
      "outputs": [],
      "stateMutability": "nonpayable",
      "type": "function"
    },
    {
      "inputs": [
        {
          "internalType": "bytes32",
          "name": "role",
          "type": "bytes32"
        },
        {
          "internalType": "address",
          "name": "account",
          "type": "address"
        }
      ],
      "name": "revokeRole",
      "outputs": [],
      "stateMutability": "nonpayable",
      "type": "function"
    },
    {
      "inputs": [
        {
          "internalType": "address",
          "name": "_nftFactory",
          "type": "address"
        }
      ],
      "name": "setNFTFactory",
      "outputs": [],
      "stateMutability": "nonpayable",
      "type": "function"
    },
    {
      "inputs": [
        {
          "internalType": "address",
          "name": "_voucherManager",
          "type": "address"
        }
      ],
      "name": "setVoucherManager",
      "outputs": [],
      "stateMutability": "nonpayable",
      "type": "function"
    },
    {
      "inputs": [],
      "name": "stakingToken",
      "outputs": [
        {
          "internalType": "contract IERC20",
          "name": "",
          "type": "address"
        }
      ],
      "stateMutability": "view",
      "type": "function"
    },
    {
      "inputs": [
        {
          "internalType": "bytes4",
          "name": "interfaceId",
          "type": "bytes4"
        }
      ],
      "name": "supportsInterface",
      "outputs": [
        {
          "internalType": "bool",
          "name": "",
          "type": "bool"
        }
      ],
      "stateMutability": "view",
      "type": "function"
    },
    {
      "inputs": [
        {
          "internalType": "address",
          "name": "",
          "type": "address"
        },
        {
          "internalType": "uint256",
          "name": "",
          "type": "uint256"
        }
      ],
      "name": "userPositions",
      "outputs": [
        {
          "internalType": "uint256",
          "name": "",
          "type": "uint256"
        }
      ],
      "stateMutability": "view",
      "type": "function"
    },
    {
      "inputs": [],
      "name": "voucherManager",
      "outputs": [
        {
          "internalType": "address",
          "name": "",
          "type": "address"
        }
      ],
      "stateMutability": "view",
      "type": "function"
    }
  ],
  "bytecode": "0x60a0604052600160025534801561001557600080fd5b50604051611d60380380611d6083398101604081905261003491610177565b600180556001600160a01b0381166100815760405162461bcd60e51b815260206004820152600c60248201526b5a65726f206164647265737360a01b604482015260640160405180910390fd5b6001600160a01b0381166080526100996000336100cb565b506100c47fa49807205ce4d355092ef5a8a18f56e8913cf4a201fbe287825b095693c21775336100cb565b50506101a7565b6000828152602081815260408083206001600160a01b038516845290915281205460ff1661016d576000838152602081815260408083206001600160a01b03861684529091529020805460ff191660011790556101253390565b6001600160a01b0316826001600160a01b0316847f2f8788117e7eff1d82e926ec794901d17c78024a50270940304540a733656f0d60405160405180910390a4506001610171565b5060005b92915050565b60006020828403121561018957600080fd5b81516001600160a01b03811681146101a057600080fd5b9392505050565b608051611b896101d7600039600081816102840152818161075b015281816109db0152610f130152611b896000f3fe608060405234801561001057600080fd5b506004361061018e5760003560e01c806399fbab88116100de578063d1aaef0511610097578063d63843cd11610071578063d63843cd14610468578063e0c570ba14610262578063e89636d91461047b578063f883462c1461049b57600080fd5b8063d1aaef051461042f578063d3ea435014610442578063d547741f1461045557600080fd5b806399fbab88146102f8578063a126d601146103e3578063a217fddf146103f6578063aa902b4d146103fe578063ca19e41214610409578063cb2d93ce1461041c57600080fd5b80633b3133611161014b5780635e1b4d99116101255780635e1b4d991461026c57806372f702f31461027f57806375b238fc146102be57806391d14854146102e557600080fd5b80633b3133611461023c5780635312ea8e1461024f5780635dbdda691461026257600080fd5b806301ffc9a71461019357806303d50b1f146101bb578063248a9ca3146101d15780632a6bc2dd146101f45780632f2ff15d1461021457806336568abe14610229575b600080fd5b6101a66101a136600461170d565b6104ae565b60405190151581526020015b60405180910390f35b6101c3600a81565b6040519081526020016101b2565b6101c36101df36600461173e565b60009081526020819052604090206001015490565b610207610202366004611773565b6104e5565b6040516101b2919061178e565b6102276102223660046117d1565b610551565b005b6102276102373660046117d1565b61057c565b61022761024a366004611773565b6105b4565b61022761025d36600461173e565b61064b565b6101c362278d0081565b6101c361027a3660046117fd565b610832565b6102a67f000000000000000000000000000000000000000000000000000000000000000081565b6040516001600160a01b0390911681526020016101b2565b6101c37fa49807205ce4d355092ef5a8a18f56e8913cf4a201fbe287825b095693c2177581565b6101a66102f33660046117d1565b610863565b61037b61030636600461173e565b600360205260009081526040902080546001909101546001600160801b0382169167ffffffffffffffff600160801b8204169163ffffffff600160c01b8304811692600160e01b9004169060ff80821691610100810482169162010000820416906001600160a01b0363010000009091041688565b604080516001600160801b03909916895267ffffffffffffffff909716602089015263ffffffff9586169688019690965293909216606086015260ff90811660808601521660a0840152151560c08301526001600160a01b031660e0820152610100016101b2565b6102276103f136600461173e565b61088c565b6101c3600081565b6101c36301e1338081565b6007546102a6906001600160a01b031681565b61022761042a366004611773565b610aa6565b61022761043d366004611827565b610b60565b6101c361045036600461173e565b611087565b6102276104633660046117d1565b611119565b6006546102a6906001600160a01b031681565b6101c361048936600461173e565b60056020526000908152604090205481565b6102276104a936600461173e565b61113e565b60006001600160e01b03198216637965db0b60e01b14806104df57506301ffc9a760e01b6001600160e01b03198316145b92915050565b6001600160a01b03811660009081526004602090815260409182902080548351818402810184019094528084526060939283018282801561054557602002820191906000526020600020905b815481526020019060010190808311610531575b50505050509050919050565b60008281526020819052604090206001015461056c81611404565b610576838361140e565b50505050565b6001600160a01b03811633146105a55760405163334bd91960e11b815260040160405180910390fd5b6105af82826114a0565b505050565b7fa49807205ce4d355092ef5a8a18f56e8913cf4a201fbe287825b095693c217756105de81611404565b6001600160a01b0382166106285760405162461bcd60e51b815260206004820152600c60248201526b5a65726f206164647265737360a01b60448201526064015b60405180910390fd5b50600780546001600160a01b0319166001600160a01b0392909216919091179055565b61065361150b565b6000818152600360205260409020600181015462010000900460ff1661068b5760405162461bcd60e51b815260040161061f90611849565b6001810154630100000090046001600160a01b031633146106e35760405162461bcd60e51b81526020600482015260126024820152712737ba103837b9b4ba34b7b71037bbb732b960711b604482015260640161061f565b33321461071d5760405162461bcd60e51b81526020600482015260086024820152674f6e6c7920454f4160c01b604482015260640161061f565b805460018201805462ff0000191690556001600160801b031661073f83611535565b60405163a9059cbb60e01b8152336004820152602481018290527f00000000000000000000000000000000000000000000000000000000000000006001600160a01b03169063a9059cbb906044016020604051808303816000875af11580156107ac573d6000803e3d6000fd5b505050506040513d601f19601f820116820180604052508101906107d09190611876565b6107ec5760405162461bcd60e51b815260040161061f90611898565b604051818152339084907fafe87099d21cd68765ccb431a535ca7a632ac9f66e04e99c9574fb5ddfdefca7906020015b60405180910390a3505061082f60018055565b50565b6004602052816000526040600020818154811061084e57600080fd5b90600052602060002001600091509150505481565b6000918252602082815260408084206001600160a01b0393909316845291905290205460ff1690565b61089461150b565b6000818152600360205260409020600181015462010000900460ff166108cc5760405162461bcd60e51b815260040161061f90611849565b6001810154630100000090046001600160a01b031633146109245760405162461bcd60e51b81526020600482015260126024820152712737ba103837b9b4ba34b7b71037bbb732b960711b604482015260640161061f565b805461094e90600160c01b810463ffffffff1690600160801b900467ffffffffffffffff166118d7565b67ffffffffffffffff1642101561099d5760405162461bcd60e51b8152602060048201526013602482015272506f736974696f6e206e6f74206d617475726560681b604482015260640161061f565b805460018201805462ff0000191690556001600160801b03166109bf83611535565b60405163a9059cbb60e01b8152336004820152602481018290527f00000000000000000000000000000000000000000000000000000000000000006001600160a01b03169063a9059cbb906044016020604051808303816000875af1158015610a2c573d6000803e3d6000fd5b505050506040513d601f19601f82011682018060405250810190610a509190611876565b610a6c5760405162461bcd60e51b815260040161061f90611898565b6040805182815260006020820152339185917f3120c845c5d2c39308641201562a412527c1e7aff294f09c0c936f1c60a1b067910161081c565b7fa49807205ce4d355092ef5a8a18f56e8913cf4a201fbe287825b095693c21775610ad081611404565b6001600160a01b038216610b155760405162461bcd60e51b815260206004820152600c60248201526b5a65726f206164647265737360a01b604482015260640161061f565b600680546001600160a01b0319166001600160a01b0384169081179091556040517f0b2a4659dd447011d8135e07f985a6153b6446f82b0d167e0f804c5fde175e2f90600090a25050565b610b6861150b565b60008211610ba65760405162461bcd60e51b815260206004820152600b60248201526a16995c9bc8185b5bdd5b9d60aa1b604482015260640161061f565b62278d00811015610bee5760405162461bcd60e51b8152602060048201526012602482015271111d5c985d1a5bdb881d1bdbc81cda1bdc9d60721b604482015260640161061f565b6301e13380811115610c365760405162461bcd60e51b81526020600482015260116024820152704475726174696f6e20746f6f206c6f6e6760781b604482015260640161061f565b33600090815260046020526040902054600a11610c8a5760405162461bcd60e51b8152602060048201526012602482015271546f6f206d616e7920706f736974696f6e7360701b604482015260640161061f565b6001600160801b03821115610cd45760405162461bcd60e51b815260206004820152601060248201526f416d6f756e7420746f6f206c6172676560801b604482015260640161061f565b6000610ce0838361162b565b90508060ff1660ff03610d2b5760405162461bcd60e51b8152602060048201526013602482015272125b9d985b1a59081d1a595c88185b5bdd5b9d606a1b604482015260640161061f565b6002805460009182610d3c836118f7565b9190505590506000429050600062278d009050604051806101000160405280876001600160801b031681526020018367ffffffffffffffff1681526020018663ffffffff1681526020018284610d929190611910565b63ffffffff908116825260ff80881660208085019190915260006040808601829052600160608088018290523360809889018190528c8552600386528385208a5181548c8901518d880151958e01518c16600160e01b026001600160e01b0396909c16600160c01b02959095166001600160c01b0367ffffffffffffffff909616600160801b026001600160c01b03199092166001600160801b039093169290921717939093169290921797909717815596880151968101805460a08a015160c08b015160e0909b01516001600160a01b03166301000000026301000000600160b81b03199b151562010000029b909b1662010000600160b81b03199189166101000261ffff199093169a9098169990991717979097169490941796909617909455828452600481529383208054808301825581855294842090940187905591529054610edf9190611923565b6000848152600560205260409081902091909155516323b872dd60e01b8152336004820152306024820152604481018790527f00000000000000000000000000000000000000000000000000000000000000006001600160a01b0316906323b872dd906064016020604051808303816000875af1158015610f64573d6000803e3d6000fd5b505050506040513d601f19601f82011682018060405250810190610f889190611876565b610fa45760405162461bcd60e51b815260040161061f90611898565b6040805187815260208101879052339185917ffb617c13a5b4b052ee893903dca019ab1611dfef1b20f7acb7a5bfe008c10260910160405180910390a36007546001600160a01b0316156110765760075460405163eb8e413b60e01b81523360048201526024810185905260ff861660448201526001600160a01b039091169063eb8e413b906064016000604051808303816000875af115801561104c573d6000803e3d6000fd5b505050506040513d6000823e601f3d908101601f19168201604052611074919081019061194c565b505b5050505061108360018055565b5050565b6000818152600360205260408120600181015462010000900460ff166110bf5760405162461bcd60e51b815260040161061f90611849565b600181015481546000916064916110e29160ff16906001600160801b0316611a19565b6110ec9190611a58565b60018301546001600160801b0391909116915061111190610100900460ff1682611a86565b949350505050565b60008281526020819052604090206001015461113481611404565b61057683836114a0565b6000818152600360205260409020600181015462010000900460ff166111765760405162461bcd60e51b815260040161061f90611849565b8054600160e01b900463ffffffff164210156111cd5760405162461bcd60e51b8152602060048201526016602482015275151bdbc819585c9b1e48199bdc881b995e1d0813919560521b604482015260640161061f565b80546000906111ed9062278d0090600160c01b900463ffffffff16611a9d565b6001830154909150610100900460ff16811161123d5760405162461bcd60e51b815260206004820152600f60248201526e105b1b081391951cc81b5a5b9d1959608a1b604482015260640161061f565b6006546001600160a01b03161561138757600654600183015483546001600160a01b039283169263f4fb81599263010000009004169086906001600160801b0381169061129b9062278d0090600160c01b900463ffffffff16611ab1565b87546001890154600160801b820467ffffffffffffffff169161010090910460ff16906112d99062278d0090600160e01b900463ffffffff16611910565b6040516001600160e01b031960e08a901b1681526001600160a01b03909716600488015260248701959095526001600160801b03909316604486015263ffffffff91909116606485015267ffffffffffffffff16608484015260ff1660a483015260c482015260e4016020604051808303816000875af1158015611361573d6000803e3d6000fd5b505050506040513d601f19601f820116820180604052508101906113859190611ad9565b505b6001828101805482906113a3908290610100900460ff16611af2565b92506101000a81548160ff021916908360ff16021790555062278d0082600001601c8282829054906101000a900463ffffffff166113e19190611b0b565b92506101000a81548163ffffffff021916908363ffffffff160217905550505050565b61082f81336116d4565b600061141a8383610863565b611498576000838152602081815260408083206001600160a01b03861684529091529020805460ff191660011790556114503390565b6001600160a01b0316826001600160a01b0316847f2f8788117e7eff1d82e926ec794901d17c78024a50270940304540a733656f0d60405160405180910390a45060016104df565b5060006104df565b60006114ac8383610863565b15611498576000838152602081815260408083206001600160a01b0386168085529252808320805460ff1916905551339286917ff6391f5c32d9c69d2a47ea670b442974b53935d1edc7fd64eb21e047a839171b9190a45060016104df565b60026001540361152e57604051633ee5aeb560e01b815260040160405180910390fd5b6002600155565b6000818152600360209081526040808320600180820154630100000090046001600160a01b0316855260048452828520868652600590945291909320548254909161157f91611923565b81146115e8578154600090839061159890600190611923565b815481106115a8576115a8611b27565b90600052602060002001549050808383815481106115c8576115c8611b27565b600091825260208083209091019290925591825260059052604090208190555b818054806115f8576115f8611b3d565b60019003818190600052602060002001600090559055600560008581526020019081526020016000206000905550505050565b600082681b1ae4d6e2ef50000014801561164757508162278d00145b15611654575060006104df565b82683635c9adc5dea0000014801561166e5750816276a700145b1561167b575060016104df565b8268878678326eac90000014801561169557508162ed4e00145b156116a2575060026104df565b8269010f0cf064dd592000001480156116be5750816301e13380145b156116cb575060036104df565b5060ff92915050565b6116de8282610863565b6110835760405163e2517d3f60e01b81526001600160a01b03821660048201526024810183905260440161061f565b60006020828403121561171f57600080fd5b81356001600160e01b03198116811461173757600080fd5b9392505050565b60006020828403121561175057600080fd5b5035919050565b80356001600160a01b038116811461176e57600080fd5b919050565b60006020828403121561178557600080fd5b61173782611757565b602080825282518282018190526000918401906040840190835b818110156117c65783518352602093840193909201916001016117a8565b509095945050505050565b600080604083850312156117e457600080fd5b823591506117f460208401611757565b90509250929050565b6000806040838503121561181057600080fd5b61181983611757565b946020939093013593505050565b6000806040838503121561183a57600080fd5b50508035926020909101359150565b602080825260139082015272506f736974696f6e206e6f742061637469766560681b604082015260600190565b60006020828403121561188857600080fd5b8151801515811461173757600080fd5b6020808252600f908201526e151c985b9cd9995c8819985a5b1959608a1b604082015260600190565b634e487b7160e01b600052601160045260246000fd5b67ffffffffffffffff81811683821601908111156104df576104df6118c1565b600060018201611909576119096118c1565b5060010190565b808201808211156104df576104df6118c1565b818103818111156104df576104df6118c1565b634e487b7160e01b600052604160045260246000fd5b60006020828403121561195e57600080fd5b815167ffffffffffffffff81111561197557600080fd5b8201601f8101841361198657600080fd5b805167ffffffffffffffff8111156119a0576119a0611936565b8060051b604051601f19603f830116810181811067ffffffffffffffff821117156119cd576119cd611936565b6040529182526020818401810192908101878411156119eb57600080fd5b6020850194505b83851015611a0e578451808252602095860195909350016119f2565b509695505050505050565b6001600160801b038181168382160290811690818114611a3b57611a3b6118c1565b5092915050565b634e487b7160e01b600052601260045260246000fd5b60006001600160801b03831680611a7157611a71611a42565b806001600160801b0384160491505092915050565b80820281158282048414176104df576104df6118c1565b600082611aac57611aac611a42565b500490565b600063ffffffff831680611ac757611ac7611a42565b8063ffffffff84160491505092915050565b600060208284031215611aeb57600080fd5b5051919050565b60ff81811683821601908111156104df576104df6118c1565b63ffffffff81811683821601908111156104df576104df6118c1565b634e487b7160e01b600052603260045260246000fd5b634e487b7160e01b600052603160045260246000fdfea2646970667358221220777f15fdd5f030a77134ce7dbf80c1bf5b6eabc1366e0bb5572f55a84c8e4ec564736f6c634300081c0033",
  "linkReferences": {},
  "deployedLinkReferences": {}
}