{
  "_format": "hh-sol-artifact-1",
  "contractName": "UpgradeableMultiStakeManager",
  "sourceName": "contracts/UpgradeableMultiStakeManager.sol",
  "abi": [
    {
      "inputs": [],
      "stateMutability": "nonpayable",
      "type": "constructor"
    },
    {
      "inputs": [],
      "name": "AccessControlBadConfirmation",
      "type": "error"
    },
    {
      "inputs": [
        {
          "internalType": "address",
          "name": "account",
          "type": "address"
        },
        {
          "internalType": "bytes32",
          "name": "neededRole",
          "type": "bytes32"
        }
      ],
      "name": "AccessControlUnauthorizedAccount",
      "type": "error"
    },
    {
      "inputs": [],
      "name": "ReentrancyGuardReentrantCall",
      "type": "error"
    },
    {
      "anonymous": false,
      "inputs": [
        {
          "indexed": true,
          "internalType": "uint256",
          "name": "positionId",
          "type": "uint256"
        },
        {
          "indexed": true,
          "internalType": "address",
          "name": "owner",
          "type": "address"
        },
        {
          "indexed": false,
          "internalType": "uint256",
          "name": "amount",
          "type": "uint256"
        }
      ],
      "name": "EmergencyWithdrawn",
      "type": "event"
    },
    {
      "anonymous": false,
      "inputs": [
        {
          "indexed": true,
          "internalType": "address",
          "name": "newNFTFactory",
          "type": "address"
        }
      ],
      "name": "NFTFactorySet",
      "type": "event"
    },
    {
      "anonymous": false,
      "inputs": [
        {
          "indexed": true,
          "internalType": "uint256",
          "name": "positionId",
          "type": "uint256"
        },
        {
          "indexed": true,
          "internalType": "address",
          "name": "owner",
          "type": "address"
        },
        {
          "indexed": false,
          "internalType": "uint256",
          "name": "amount",
          "type": "uint256"
        },
        {
          "indexed": false,
          "internalType": "uint256",
          "name": "reward",
          "type": "uint256"
        }
      ],
      "name": "PositionClosed",
      "type": "event"
    },
    {
      "anonymous": false,
      "inputs": [
        {
          "indexed": true,
          "internalType": "uint256",
          "name": "positionId",
          "type": "uint256"
        },
        {
          "indexed": true,
          "internalType": "address",
          "name": "owner",
          "type": "address"
        },
        {
          "indexed": false,
          "internalType": "uint256",
          "name": "amount",
          "type": "uint256"
        },
        {
          "indexed": false,
          "internalType": "uint256",
          "name": "duration",
          "type": "uint256"
        },
        {
          "indexed": false,
          "internalType": "uint8",
          "name": "tier",
          "type": "uint8"
        }
      ],
      "name": "PositionCreated",
      "type": "event"
    },
    {
      "anonymous": false,
      "inputs": [
        {
          "indexed": true,
          "internalType": "bytes32",
          "name": "role",
          "type": "bytes32"
        },
        {
          "indexed": true,
          "internalType": "bytes32",
          "name": "previousAdminRole",
          "type": "bytes32"
        },
        {
          "indexed": true,
          "internalType": "bytes32",
          "name": "newAdminRole",
          "type": "bytes32"
        }
      ],
      "name": "RoleAdminChanged",
      "type": "event"
    },
    {
      "anonymous": false,
      "inputs": [
        {
          "indexed": true,
          "internalType": "bytes32",
          "name": "role",
          "type": "bytes32"
        },
        {
          "indexed": true,
          "internalType": "address",
          "name": "account",
          "type": "address"
        },
        {
          "indexed": true,
          "internalType": "address",
          "name": "sender",
          "type": "address"
        }
      ],
      "name": "RoleGranted",
      "type": "event"
    },
    {
      "anonymous": false,
      "inputs": [
        {
          "indexed": true,
          "internalType": "bytes32",
          "name": "role",
          "type": "bytes32"
        },
        {
          "indexed": true,
          "internalType": "address",
          "name": "account",
          "type": "address"
        },
        {
          "indexed": true,
          "internalType": "address",
          "name": "sender",
          "type": "address"
        }
      ],
      "name": "RoleRevoked",
      "type": "event"
    },
    {
      "anonymous": false,
      "inputs": [
        {
          "indexed": true,
          "internalType": "address",
          "name": "newTierWeightManager",
          "type": "address"
        }
      ],
      "name": "TierWeightManagerUpdated",
      "type": "event"
    },
    {
      "inputs": [],
      "name": "ADMIN_ROLE",
      "outputs": [
        {
          "internalType": "bytes32",
          "name": "",
          "type": "bytes32"
        }
      ],
      "stateMutability": "view",
      "type": "function"
    },
    {
      "inputs": [],
      "name": "DEFAULT_ADMIN_ROLE",
      "outputs": [
        {
          "internalType": "bytes32",
          "name": "",
          "type": "bytes32"
        }
      ],
      "stateMutability": "view",
      "type": "function"
    },
    {
      "inputs": [],
      "name": "MAX_POSITIONS_PER_WALLET",
      "outputs": [
        {
          "internalType": "uint256",
          "name": "",
          "type": "uint256"
        }
      ],
      "stateMutability": "view",
      "type": "function"
    },
    {
      "inputs": [],
      "name": "REWARD_INTERVAL",
      "outputs": [
        {
          "internalType": "uint256",
          "name": "",
          "type": "uint256"
        }
      ],
      "stateMutability": "view",
      "type": "function"
    },
    {
      "inputs": [],
      "name": "UPGRADER_ROLE",
      "outputs": [
        {
          "internalType": "bytes32",
          "name": "",
          "type": "bytes32"
        }
      ],
      "stateMutability": "view",
      "type": "function"
    },
    {
      "inputs": [
        {
          "internalType": "uint256",
          "name": "positionId",
          "type": "uint256"
        }
      ],
      "name": "calculateRewards",
      "outputs": [
        {
          "internalType": "uint256",
          "name": "",
          "type": "uint256"
        }
      ],
      "stateMutability": "view",
      "type": "function"
    },
    {
      "inputs": [
        {
          "internalType": "uint256",
          "name": "positionId",
          "type": "uint256"
        }
      ],
      "name": "closePosition",
      "outputs": [],
      "stateMutability": "nonpayable",
      "type": "function"
    },
    {
      "inputs": [
        {
          "internalType": "uint256",
          "name": "amount",
          "type": "uint256"
        },
        {
          "internalType": "uint256",
          "name": "duration",
          "type": "uint256"
        }
      ],
      "name": "createPosition",
      "outputs": [],
      "stateMutability": "nonpayable",
      "type": "function"
    },
    {
      "inputs": [
        {
          "internalType": "uint256",
          "name": "positionId",
          "type": "uint256"
        }
      ],
      "name": "emergencyWithdraw",
      "outputs": [],
      "stateMutability": "nonpayable",
      "type": "function"
    },
    {
      "inputs": [],
      "name": "getActiveTiers",
      "outputs": [
        {
          "internalType": "uint8[]",
          "name": "activeTiers",
          "type": "uint8[]"
        }
      ],
      "stateMutability": "view",
      "type": "function"
    },
    {
      "inputs": [],
      "name": "getConfigVersion",
      "outputs": [
        {
          "internalType": "uint256",
          "name": "version",
          "type": "uint256"
        }
      ],
      "stateMutability": "view",
      "type": "function"
    },
    {
      "inputs": [
        {
          "internalType": "uint256",
          "name": "positionId",
          "type": "uint256"
        }
      ],
      "name": "getPositionWithConfig",
      "outputs": [
        {
          "components": [
            {
              "internalType": "uint128",
              "name": "amount",
              "type": "uint128"
            },
            {
              "internalType": "uint64",
              "name": "startTime",
              "type": "uint64"
            },
            {
              "internalType": "uint32",
              "name": "duration",
              "type": "uint32"
            },
            {
              "internalType": "uint32",
              "name": "nextMintAt",
              "type": "uint32"
            },
            {
              "internalType": "uint8",
              "name": "tier",
              "type": "uint8"
            },
            {
              "internalType": "uint8",
              "name": "monthIndex",
              "type": "uint8"
            },
            {
              "internalType": "bool",
              "name": "isActive",
              "type": "bool"
            },
            {
              "internalType": "address",
              "name": "owner",
              "type": "address"
            },
            {
              "internalType": "uint256",
              "name": "configVersion",
              "type": "uint256"
            }
          ],
          "internalType": "struct UpgradeableMultiStakeManager.Position",
          "name": "position",
          "type": "tuple"
        },
        {
          "components": [
            {
              "internalType": "uint256",
              "name": "minAmount",
              "type": "uint256"
            },
            {
              "internalType": "uint256",
              "name": "maxAmount",
              "type": "uint256"
            },
            {
              "internalType": "uint256",
              "name": "duration",
              "type": "uint256"
            },
            {
              "internalType": "uint256",
              "name": "rewardRate",
              "type": "uint256"
            },
            {
              "internalType": "uint256",
              "name": "nftMultiplier",
              "type": "uint256"
            },
            {
              "internalType": "bool",
              "name": "isActive",
              "type": "bool"
            }
          ],
          "internalType": "struct TierWeightManager.TierConfig",
          "name": "currentTierConfig",
          "type": "tuple"
        },
        {
          "internalType": "bool",
          "name": "isConfigUpdated",
          "type": "bool"
        }
      ],
      "stateMutability": "view",
      "type": "function"
    },
    {
      "inputs": [
        {
          "internalType": "bytes32",
          "name": "role",
          "type": "bytes32"
        }
      ],
      "name": "getRoleAdmin",
      "outputs": [
        {
          "internalType": "bytes32",
          "name": "",
          "type": "bytes32"
        }
      ],
      "stateMutability": "view",
      "type": "function"
    },
    {
      "inputs": [
        {
          "internalType": "address",
          "name": "user",
          "type": "address"
        }
      ],
      "name": "getUserPositions",
      "outputs": [
        {
          "internalType": "uint256[]",
          "name": "",
          "type": "uint256[]"
        }
      ],
      "stateMutability": "view",
      "type": "function"
    },
    {
      "inputs": [
        {
          "internalType": "bytes32",
          "name": "role",
          "type": "bytes32"
        },
        {
          "internalType": "address",
          "name": "account",
          "type": "address"
        }
      ],
      "name": "grantRole",
      "outputs": [],
      "stateMutability": "nonpayable",
      "type": "function"
    },
    {
      "inputs": [
        {
          "internalType": "bytes32",
          "name": "role",
          "type": "bytes32"
        },
        {
          "internalType": "address",
          "name": "account",
          "type": "address"
        }
      ],
      "name": "hasRole",
      "outputs": [
        {
          "internalType": "bool",
          "name": "",
          "type": "bool"
        }
      ],
      "stateMutability": "view",
      "type": "function"
    },
    {
      "inputs": [
        {
          "internalType": "address",
          "name": "_stakingToken",
          "type": "address"
        },
        {
          "internalType": "address",
          "name": "_tierWeightManager",
          "type": "address"
        }
      ],
      "name": "initialize",
      "outputs": [],
      "stateMutability": "nonpayable",
      "type": "function"
    },
    {
      "inputs": [
        {
          "internalType": "uint256",
          "name": "positionId",
          "type": "uint256"
        }
      ],
      "name": "mintNextNFT",
      "outputs": [],
      "stateMutability": "nonpayable",
      "type": "function"
    },
    {
      "inputs": [],
      "name": "nftFactory",
      "outputs": [
        {
          "internalType": "address",
          "name": "",
          "type": "address"
        }
      ],
      "stateMutability": "view",
      "type": "function"
    },
    {
      "inputs": [
        {
          "internalType": "uint256",
          "name": "",
          "type": "uint256"
        }
      ],
      "name": "positionIndexInUserArray",
      "outputs": [
        {
          "internalType": "uint256",
          "name": "",
          "type": "uint256"
        }
      ],
      "stateMutability": "view",
      "type": "function"
    },
    {
      "inputs": [
        {
          "internalType": "uint256",
          "name": "",
          "type": "uint256"
        }
      ],
      "name": "positions",
      "outputs": [
        {
          "internalType": "uint128",
          "name": "amount",
          "type": "uint128"
        },
        {
          "internalType": "uint64",
          "name": "startTime",
          "type": "uint64"
        },
        {
          "internalType": "uint32",
          "name": "duration",
          "type": "uint32"
        },
        {
          "internalType": "uint32",
          "name": "nextMintAt",
          "type": "uint32"
        },
        {
          "internalType": "uint8",
          "name": "tier",
          "type": "uint8"
        },
        {
          "internalType": "uint8",
          "name": "monthIndex",
          "type": "uint8"
        },
        {
          "internalType": "bool",
          "name": "isActive",
          "type": "bool"
        },
        {
          "internalType": "address",
          "name": "owner",
          "type": "address"
        },
        {
          "internalType": "uint256",
          "name": "configVersion",
          "type": "uint256"
        }
      ],
      "stateMutability": "view",
      "type": "function"
    },
    {
      "inputs": [
        {
          "internalType": "bytes32",
          "name": "role",
          "type": "bytes32"
        },
        {
          "internalType": "address",
          "name": "callerConfirmation",
          "type": "address"
        }
      ],
      "name": "renounceRole",
      "outputs": [],
      "stateMutability": "nonpayable",
      "type": "function"
    },
    {
      "inputs": [
        {
          "internalType": "bytes32",
          "name": "role",
          "type": "bytes32"
        },
        {
          "internalType": "address",
          "name": "account",
          "type": "address"
        }
      ],
      "name": "revokeRole",
      "outputs": [],
      "stateMutability": "nonpayable",
      "type": "function"
    },
    {
      "inputs": [
        {
          "internalType": "address",
          "name": "_nftFactory",
          "type": "address"
        }
      ],
      "name": "setNFTFactory",
      "outputs": [],
      "stateMutability": "nonpayable",
      "type": "function"
    },
    {
      "inputs": [
        {
          "internalType": "address",
          "name": "_voucherManager",
          "type": "address"
        }
      ],
      "name": "setVoucherManager",
      "outputs": [],
      "stateMutability": "nonpayable",
      "type": "function"
    },
    {
      "inputs": [],
      "name": "stakingToken",
      "outputs": [
        {
          "internalType": "contract IERC20",
          "name": "",
          "type": "address"
        }
      ],
      "stateMutability": "view",
      "type": "function"
    },
    {
      "inputs": [
        {
          "internalType": "bytes4",
          "name": "interfaceId",
          "type": "bytes4"
        }
      ],
      "name": "supportsInterface",
      "outputs": [
        {
          "internalType": "bool",
          "name": "",
          "type": "bool"
        }
      ],
      "stateMutability": "view",
      "type": "function"
    },
    {
      "inputs": [],
      "name": "tierWeightManager",
      "outputs": [
        {
          "internalType": "contract TierWeightManager",
          "name": "",
          "type": "address"
        }
      ],
      "stateMutability": "view",
      "type": "function"
    },
    {
      "inputs": [
        {
          "internalType": "address",
          "name": "_tierWeightManager",
          "type": "address"
        }
      ],
      "name": "updateTierWeightManager",
      "outputs": [],
      "stateMutability": "nonpayable",
      "type": "function"
    },
    {
      "inputs": [
        {
          "internalType": "address",
          "name": "",
          "type": "address"
        },
        {
          "internalType": "uint256",
          "name": "",
          "type": "uint256"
        }
      ],
      "name": "userPositions",
      "outputs": [
        {
          "internalType": "uint256",
          "name": "",
          "type": "uint256"
        }
      ],
      "stateMutability": "view",
      "type": "function"
    },
    {
      "inputs": [],
      "name": "voucherManager",
      "outputs": [
        {
          "internalType": "address",
          "name": "",
          "type": "address"
        }
      ],
      "stateMutability": "view",
      "type": "function"
    }
  ],
  "bytecode": "0x60806040526001600455348015601457600080fd5b5060018055612476806100286000396000f3fe608060405234801561001057600080fd5b50600436106101e55760003560e01c806396371a9a1161010f578063d3ea4350116100a2578063e89636d911610071578063e89636d914610513578063f31c658914610533578063f72c0d8b14610546578063f883462c1461056d57600080fd5b8063d3ea4350146104c7578063d547741f146104da578063d63843cd146104ed578063d8ba62491461050057600080fd5b8063a217fddf116100de578063a217fddf14610486578063ca19e4121461048e578063cb2d93ce146104a1578063d1aaef05146104b457600080fd5b806396371a9a1461035157806399fbab88146103735780639dc6edc71461046b578063a126d6011461047357600080fd5b80633b313361116101875780635e1b4d99116101565780635e1b4d99146102eb57806372f702f3146102fe57806375b238fc1461032957806391d148541461033e57600080fd5b80633b313361146102a8578063485cc955146102bb5780635312ea8e146102ce5780635dbdda69146102e157600080fd5b8063248a9ca3116101c3578063248a9ca31461023d5780632a6bc2dd146102605780632f2ff15d1461028057806336568abe1461029557600080fd5b806301ffc9a7146101ea57806302f73f2d1461021257806303d50b1f14610227575b600080fd5b6101fd6101f8366004611d2d565b610580565b60405190151581526020015b60405180910390f35b61021a6105b7565b6040516102099190611d5e565b61022f600a81565b604051908152602001610209565b61022f61024b366004611da4565b60009081526020819052604090206001015490565b61027361026e366004611dd9565b61062e565b6040516102099190611df4565b61029361028e366004611e2c565b61069a565b005b6102936102a3366004611e2c565b6106c5565b6102936102b6366004611dd9565b6106fd565b6102936102c9366004611e58565b610767565b6102936102dc366004611da4565b6108e1565b61022f62278d0081565b61022f6102f9366004611e82565b610aab565b600254610311906001600160a01b031681565b6040516001600160a01b039091168152602001610209565b61022f60008051602061242183398151915281565b6101fd61034c366004611e2c565b610adc565b61036461035f366004611da4565b610b05565b60405161020993929190611eac565b6103fe610381366004611da4565b6005602052600090815260409020805460018201546002909201546001600160801b038216926001600160401b03600160801b8404169263ffffffff600160c01b8204811693600160e01b909204169160ff808216926101008304821692620100008104909216916001600160a01b036301000000909104169089565b604080516001600160801b03909a168a526001600160401b0390981660208a015263ffffffff9687169789019790975294909316606087015260ff91821660808701521660a0850152151560c08401526001600160a01b031660e083015261010082015261012001610209565b61022f610d29565b610293610481366004611da4565b610d97565b61022f600081565b600954610311906001600160a01b031681565b6102936104af366004611dd9565b610fc5565b6102936104c2366004611fba565b61104e565b61022f6104d5366004611da4565b6115c9565b6102936104e8366004611e2c565b6116c4565b600854610311906001600160a01b031681565b61029361050e366004611dd9565b6116e9565b61022f610521366004611da4565b60076020526000908152604090205481565b600354610311906001600160a01b031681565b61022f7f189ab7a9244df0848122154315af71fe140f3db0fe014031783b0946b8c9d2e381565b61029361057b366004611da4565b611784565b60006001600160e01b03198216637965db0b60e01b14806105b157506301ffc9a760e01b6001600160e01b03198316145b92915050565b600354604080516302f73f2d60e01b815290516060926001600160a01b0316916302f73f2d9160048083019260009291908290030181865afa158015610601573d6000803e3d6000fd5b505050506040513d6000823e601f3d908101601f191682016040526106299190810190612056565b905090565b6001600160a01b03811660009081526006602090815260409182902080548351818402810184019094528084526060939283018282801561068e57602002820191906000526020600020905b81548152602001906001019080831161067a575b50505050509050919050565b6000828152602081905260409020600101546106b581611acd565b6106bf8383611ad7565b50505050565b6001600160a01b03811633146106ee5760405163334bd91960e11b815260040160405180910390fd5b6106f88282611b69565b505050565b60008051602061242183398151915261071581611acd565b6001600160a01b0382166107445760405162461bcd60e51b815260040161073b906120f7565b60405180910390fd5b50600980546001600160a01b0319166001600160a01b0392909216919091179055565b6001600160a01b0382166107bd5760405162461bcd60e51b815260206004820152601a60248201527f5a65726f207374616b696e6720746f6b656e2061646472657373000000000000604482015260640161073b565b6001600160a01b0381166108135760405162461bcd60e51b815260206004820181905260248201527f5a65726f207469657220776569676874206d616e616765722061646472657373604482015260640161073b565b6002546001600160a01b0316156108625760405162461bcd60e51b8152602060048201526013602482015272105b1c9958591e481a5b9a5d1a585b1a5e9959606a1b604482015260640161073b565b600280546001600160a01b038085166001600160a01b031992831617909255600380549284169290911691909117905561089d600033611ad7565b506108b660008051602061242183398151915233611ad7565b506106f87f189ab7a9244df0848122154315af71fe140f3db0fe014031783b0946b8c9d2e333611ad7565b6108e9611bd4565b6000818152600560205260409020600181015462010000900460ff166109215760405162461bcd60e51b815260040161073b9061211d565b6001810154630100000090046001600160a01b031633146109795760405162461bcd60e51b81526020600482015260126024820152712737ba103837b9b4ba34b7b71037bbb732b960711b604482015260640161073b565b3332146109b35760405162461bcd60e51b81526020600482015260086024820152674f6e6c7920454f4160c01b604482015260640161073b565b805460018201805462ff0000191690556001600160801b03166109d583611bfe565b60025460405163a9059cbb60e01b8152336004820152602481018390526001600160a01b039091169063a9059cbb906044016020604051808303816000875af1158015610a26573d6000803e3d6000fd5b505050506040513d601f19601f82011682018060405250810190610a4a919061215a565b610a665760405162461bcd60e51b815260040161073b90612175565b604051818152339084907fafe87099d21cd68765ccb431a535ca7a632ac9f66e04e99c9574fb5ddfdefca79060200160405180910390a35050610aa860018055565b50565b60066020528160005260406000208181548110610ac757600080fd5b90600052602060002001600091509150505481565b6000918252602082815260408084206001600160a01b0393909316845291905290205460ff1690565b6040805161012081018252600080825260208201819052918101829052606081018290526080810182905260a0810182905260c0810182905260e08101829052610100810191909152610b896040518060c0016040528060008152602001600081526020016000815260200160008152602001600081526020016000151581525090565b600083815260056020908152604080832081516101208101835281546001600160801b03811682526001600160401b03600160801b8204169482019490945263ffffffff600160c01b8504811682850152600160e01b9094049093166060840152600181015460ff80821660808601819052610100808404831660a0880152620100008404909216151560c08701526001600160a01b036301000000909304831660e087015260029093015490850152600354925163c022c52360e01b8152600481019290925292955091169063c022c5239060240160c060405180830381865afa158015610c7c573d6000803e3d6000fd5b505050506040513d601f19601f82011682018060405250810190610ca0919061219e565b9150600360009054906101000a90046001600160a01b03166001600160a01b0316639dc6edc76040518163ffffffff1660e01b8152600401602060405180830381865afa158015610cf5573d6000803e3d6000fd5b505050506040513d601f19601f82011682018060405250810190610d199190612223565b8361010001511090509193909250565b60035460408051639dc6edc760e01b815290516000926001600160a01b031691639dc6edc79160048083019260209291908290030181865afa158015610d73573d6000803e3d6000fd5b505050506040513d601f19601f820116820180604052508101906106299190612223565b610d9f611bd4565b6000818152600560205260409020600181015462010000900460ff16610dd75760405162461bcd60e51b815260040161073b9061211d565b6001810154630100000090046001600160a01b03163314610e2f5760405162461bcd60e51b81526020600482015260126024820152712737ba103837b9b4ba34b7b71037bbb732b960711b604482015260640161073b565b8054610e5890600160c01b810463ffffffff1690600160801b90046001600160401b0316612252565b6001600160401b0316421015610ea65760405162461bcd60e51b8152602060048201526013602482015272506f736974696f6e206e6f74206d617475726560681b604482015260640161073b565b80546001600160801b03166000610ebc846115c9565b60018401805462ff0000191690559050610ed584611bfe565b6002546001600160a01b031663a9059cbb33610ef18486612271565b6040516001600160e01b031960e085901b1681526001600160a01b03909216600483015260248201526044016020604051808303816000875af1158015610f3c573d6000803e3d6000fd5b505050506040513d601f19601f82011682018060405250810190610f60919061215a565b610f7c5760405162461bcd60e51b815260040161073b90612175565b6040805183815260208101839052339186917f3120c845c5d2c39308641201562a412527c1e7aff294f09c0c936f1c60a1b067910160405180910390a3505050610aa860018055565b600080516020612421833981519152610fdd81611acd565b6001600160a01b0382166110035760405162461bcd60e51b815260040161073b906120f7565b600880546001600160a01b0319166001600160a01b0384169081179091556040517f0b2a4659dd447011d8135e07f985a6153b6446f82b0d167e0f804c5fde175e2f90600090a25050565b611056611bd4565b600082116110945760405162461bcd60e51b815260206004820152600b60248201526a16995c9bc8185b5bdd5b9d60aa1b604482015260640161073b565b33600090815260066020526040902054600a116110e85760405162461bcd60e51b8152602060048201526012602482015271546f6f206d616e7920706f736974696f6e7360701b604482015260640161073b565b6001600160801b038211156111325760405162461bcd60e51b815260206004820152601060248201526f416d6f756e7420746f6f206c6172676560801b604482015260640161073b565b60035460405163c0055ba960e01b815260048101849052602481018390526000916001600160a01b03169063c0055ba990604401602060405180830381865afa158015611183573d6000803e3d6000fd5b505050506040513d601f19601f820116820180604052508101906111a79190612284565b90508060ff1660ff036111fc5760405162461bcd60e51b815260206004820152601f60248201527f496e76616c6964207469657220616d6f756e74206f72206475726174696f6e00604482015260640161073b565b600480546000918261120d8361229f565b9091555060035460408051639dc6edc760e01b8152905192935042926000926001600160a01b031691639dc6edc79160048083019260209291908290030181865afa158015611260573d6000803e3d6000fd5b505050506040513d601f19601f820116820180604052508101906112849190612223565b9050600062278d009050604051806101200160405280886001600160801b03168152602001846001600160401b031681526020018763ffffffff16815260200182856112d09190612271565b63ffffffff908116825260ff8089166020808501919091526000604080860182905260016060808801829052336080808a0182905260a0998a018d90528e8652600587528486208b5181548d8a01518e890151968f01518d16600160e01b026001600160e01b0397909d16600160c01b02969096166001600160c01b036001600160401b03909716600160801b026001600160c01b03199092166001600160801b0390931692909217179490941693909317989098178255968901518183018054998b015160c08c015160e08d01516001600160a01b03166301000000026301000000600160b81b031991151562010000029190911662010000600160b81b0319928b1661010090810261ffff19909e1695909b16949094179b909b17169190911798909817909755939096015160029095019490945582845260068152938320805480830182558185529484209094018890559152905461143291906122b8565b600085815260076020526040908190209190915560025490516323b872dd60e01b8152336004820152306024820152604481018990526001600160a01b03909116906323b872dd906064016020604051808303816000875af115801561149c573d6000803e3d6000fd5b505050506040513d601f19601f820116820180604052508101906114c0919061215a565b6114dc5760405162461bcd60e51b815260040161073b90612175565b604080518881526020810188905260ff8716818301529051339186917fac935f2e66d6e01ce1829c130e6f9b3ba4cf0b492eaba790477f0ed11ae0e5399181900360600190a36009546001600160a01b0316156115b75760095460405163eb8e413b60e01b81523360048201526024810186905260ff871660448201526001600160a01b039091169063eb8e413b906064016000604051808303816000875af115801561158d573d6000803e3d6000fd5b505050506040513d6000823e601f3d908101601f191682016040526115b591908101906122cb565b505b50505050506115c560018055565b5050565b6000818152600560205260408120600181015462010000900460ff166116015760405162461bcd60e51b815260040161073b9061211d565b60035460018201546040516357fd4f9760e11b815260ff90911660048201526000916001600160a01b03169063affa9f2e90602401602060405180830381865afa158015611653573d6000803e3d6000fd5b505050506040513d601f19601f820116820180604052508101906116779190612223565b8254909150600090612710906116979084906001600160801b0316612356565b6116a19190612383565b60018401549091506116bb90610100900460ff1682612356565b95945050505050565b6000828152602081905260409020600101546116df81611acd565b6106bf8383611b69565b7f189ab7a9244df0848122154315af71fe140f3db0fe014031783b0946b8c9d2e361171381611acd565b6001600160a01b0382166117395760405162461bcd60e51b815260040161073b906120f7565b600380546001600160a01b0319166001600160a01b0384169081179091556040517fa5da5fb11cf6d623063884cb7bc66e4fea856ee0ecf785f19c79d4a4a47eb50290600090a25050565b6000818152600560205260409020600181015462010000900460ff166117bc5760405162461bcd60e51b815260040161073b9061211d565b8054600160e01b900463ffffffff164210156118135760405162461bcd60e51b8152602060048201526016602482015275151bdbc819585c9b1e48199bdc881b995e1d0813919560521b604482015260640161073b565b6003546001820154604051633cb0270d60e11b815260ff90911660048201526000916001600160a01b0316906379604e1a90602401602060405180830381865afa158015611865573d6000803e3d6000fd5b505050506040513d601f19601f820116820180604052508101906118899190612223565b825490915060009082906118ae9062278d0090600160c01b900463ffffffff16612383565b6118b89190612356565b6001840154909150610100900460ff1681116119085760405162461bcd60e51b815260206004820152600f60248201526e105b1b081391951cc81b5a5b9d1959608a1b604482015260640161073b565b6008546001600160a01b031615611a4f57600854600184015484546001600160a01b039283169263f4fb81599263010000009004169087906001600160801b0381169061196590610e1090600160c01b900463ffffffff16612397565b885460018a0154600160801b82046001600160401b03169161010090910460ff16906119a29062278d0090600160e01b900463ffffffff16612271565b6040516001600160e01b031960e08a901b1681526001600160a01b03909716600488015260248701959095526001600160801b03909316604486015263ffffffff9190911660648501526001600160401b0316608484015260ff1660a483015260c482015260e4016020604051808303816000875af1158015611a29573d6000803e3d6000fd5b505050506040513d601f19601f82011682018060405250810190611a4d9190612223565b505b600183810180548290611a6b908290610100900460ff166123bf565b92506101000a81548160ff021916908360ff16021790555062278d0083600001601c8282829054906101000a900463ffffffff16611aa991906123d8565b92506101000a81548163ffffffff021916908363ffffffff16021790555050505050565b610aa88133611cf4565b6000611ae38383610adc565b611b61576000838152602081815260408083206001600160a01b03861684529091529020805460ff19166001179055611b193390565b6001600160a01b0316826001600160a01b0316847f2f8788117e7eff1d82e926ec794901d17c78024a50270940304540a733656f0d60405160405180910390a45060016105b1565b5060006105b1565b6000611b758383610adc565b15611b61576000838152602081815260408083206001600160a01b0386168085529252808320805460ff1916905551339286917ff6391f5c32d9c69d2a47ea670b442974b53935d1edc7fd64eb21e047a839171b9190a45060016105b1565b600260015403611bf757604051633ee5aeb560e01b815260040160405180910390fd5b6002600155565b6000818152600560209081526040808320600180820154630100000090046001600160a01b03168552600684528285208686526007909452919093205482549091611c48916122b8565b8114611cb15781546000908390611c61906001906122b8565b81548110611c7157611c716123f4565b9060005260206000200154905080838381548110611c9157611c916123f4565b600091825260208083209091019290925591825260079052604090208190555b81805480611cc157611cc161240a565b60019003818190600052602060002001600090559055600760008581526020019081526020016000206000905550505050565b611cfe8282610adc565b6115c55760405163e2517d3f60e01b81526001600160a01b03821660048201526024810183905260440161073b565b600060208284031215611d3f57600080fd5b81356001600160e01b031981168114611d5757600080fd5b9392505050565b602080825282518282018190526000918401906040840190835b81811015611d9957835160ff16835260209384019390920191600101611d78565b509095945050505050565b600060208284031215611db657600080fd5b5035919050565b80356001600160a01b0381168114611dd457600080fd5b919050565b600060208284031215611deb57600080fd5b611d5782611dbd565b602080825282518282018190526000918401906040840190835b81811015611d99578351835260209384019390920191600101611e0e565b60008060408385031215611e3f57600080fd5b82359150611e4f60208401611dbd565b90509250929050565b60008060408385031215611e6b57600080fd5b611e7483611dbd565b9150611e4f60208401611dbd565b60008060408385031215611e9557600080fd5b611e9e83611dbd565b946020939093013593505050565b6000610200820190506001600160801b0385511682526001600160401b0360208601511660208301526040850151611eec604084018263ffffffff169052565b506060850151611f04606084018263ffffffff169052565b506080850151611f19608084018260ff169052565b5060a0850151611f2e60a084018260ff169052565b5060c0850151611f4260c084018215159052565b5060e0850151611f5d60e08401826001600160a01b03169052565b506101009485015194820194909452825161012082015260208301516101408201526040830151610160820152606083015161018082015260808301516101a082015260a09092015115156101c083015215156101e09091015290565b60008060408385031215611fcd57600080fd5b50508035926020909101359150565b634e487b7160e01b600052604160045260246000fd5b604051601f8201601f191681016001600160401b038111828210171561201a5761201a611fdc565b604052919050565b60006001600160401b0382111561203b5761203b611fdc565b5060051b60200190565b805160ff81168114611dd457600080fd5b60006020828403121561206857600080fd5b81516001600160401b0381111561207e57600080fd5b8201601f8101841361208f57600080fd5b80516120a261209d82612022565b611ff2565b8082825260208201915060208360051b8501019250868311156120c457600080fd5b6020840193505b828410156120ed576120dc84612045565b8252602093840193909101906120cb565b9695505050505050565b6020808252600c908201526b5a65726f206164647265737360a01b604082015260600190565b602080825260139082015272506f736974696f6e206e6f742061637469766560681b604082015260600190565b80518015158114611dd457600080fd5b60006020828403121561216c57600080fd5b611d578261214a565b6020808252600f908201526e151c985b9cd9995c8819985a5b1959608a1b604082015260600190565b600060c08284031280156121b157600080fd5b5060405160009060c081016001600160401b03811182821017156121d7576121d7611fdc565b60409081528451825260208086015190830152848101519082015260608085015190820152608080850151908201819052915061221660a0850161214a565b60a0820152949350505050565b60006020828403121561223557600080fd5b5051919050565b634e487b7160e01b600052601160045260246000fd5b6001600160401b0381811683821601908111156105b1576105b161223c565b808201808211156105b1576105b161223c565b60006020828403121561229657600080fd5b611d5782612045565b6000600182016122b1576122b161223c565b5060010190565b818103818111156105b1576105b161223c565b6000602082840312156122dd57600080fd5b81516001600160401b038111156122f357600080fd5b8201601f8101841361230457600080fd5b805161231261209d82612022565b8082825260208201915060208360051b85010192508683111561233457600080fd5b6020840193505b828410156120ed57835182526020938401939091019061233b565b80820281158282048414176105b1576105b161223c565b634e487b7160e01b600052601260045260246000fd5b6000826123925761239261236d565b500490565b600063ffffffff8316806123ad576123ad61236d565b8063ffffffff84160491505092915050565b60ff81811683821601908111156105b1576105b161223c565b63ffffffff81811683821601908111156105b1576105b161223c565b634e487b7160e01b600052603260045260246000fd5b634e487b7160e01b600052603160045260246000fdfea49807205ce4d355092ef5a8a18f56e8913cf4a201fbe287825b095693c21775a26469706673582212205ac01fed17febcea8242cce266bdd0aaba8599773108f8b643037d1fa706c06264736f6c634300081c0033",
  "linkReferences": {},
  "deployedLinkReferences": {}
}